{
	"packages/contracts/src/dnssec-oracle/DNSSECImpl.sol": {
		"DNSSECImpl": {
			"abi": [
				{
					"inputs": [
						{
							"internalType": "bytes",
							"name": "_anchors",
							"type": "bytes"
						}
					],
					"stateMutability": "nonpayable",
					"type": "constructor"
				},
				{
					"inputs": [
						{
							"internalType": "uint16",
							"name": "class",
							"type": "uint16"
						}
					],
					"name": "InvalidClass",
					"type": "error"
				},
				{
					"inputs": [
						{
							"internalType": "bytes",
							"name": "name",
							"type": "bytes"
						},
						{
							"internalType": "uint256",
							"name": "labelsExpected",
							"type": "uint256"
						}
					],
					"name": "InvalidLabelCount",
					"type": "error"
				},
				{
					"inputs": [
						{
							"internalType": "uint16",
							"name": "proofType",
							"type": "uint16"
						}
					],
					"name": "InvalidProofType",
					"type": "error"
				},
				{
					"inputs": [],
					"name": "InvalidRRSet",
					"type": "error"
				},
				{
					"inputs": [
						{
							"internalType": "bytes",
							"name": "rrsetName",
							"type": "bytes"
						},
						{
							"internalType": "bytes",
							"name": "signerName",
							"type": "bytes"
						}
					],
					"name": "InvalidSignerName",
					"type": "error"
				},
				{
					"inputs": [
						{
							"internalType": "bytes",
							"name": "signerName",
							"type": "bytes"
						}
					],
					"name": "NoMatchingProof",
					"type": "error"
				},
				{
					"inputs": [
						{
							"internalType": "bytes",
							"name": "signerName",
							"type": "bytes"
						},
						{
							"internalType": "bytes",
							"name": "proofName",
							"type": "bytes"
						}
					],
					"name": "ProofNameMismatch",
					"type": "error"
				},
				{
					"inputs": [
						{
							"internalType": "uint32",
							"name": "expiration",
							"type": "uint32"
						},
						{
							"internalType": "uint32",
							"name": "now",
							"type": "uint32"
						}
					],
					"name": "SignatureExpired",
					"type": "error"
				},
				{
					"inputs": [
						{
							"internalType": "uint32",
							"name": "inception",
							"type": "uint32"
						},
						{
							"internalType": "uint32",
							"name": "now",
							"type": "uint32"
						}
					],
					"name": "SignatureNotValidYet",
					"type": "error"
				},
				{
					"inputs": [
						{
							"internalType": "uint16",
							"name": "rrsetType",
							"type": "uint16"
						},
						{
							"internalType": "uint16",
							"name": "sigType",
							"type": "uint16"
						}
					],
					"name": "SignatureTypeMismatch",
					"type": "error"
				},
				{
					"anonymous": false,
					"inputs": [
						{
							"indexed": false,
							"internalType": "uint8",
							"name": "id",
							"type": "uint8"
						},
						{
							"indexed": false,
							"internalType": "address",
							"name": "addr",
							"type": "address"
						}
					],
					"name": "AlgorithmUpdated",
					"type": "event"
				},
				{
					"anonymous": false,
					"inputs": [
						{
							"indexed": false,
							"internalType": "uint8",
							"name": "id",
							"type": "uint8"
						},
						{
							"indexed": false,
							"internalType": "address",
							"name": "addr",
							"type": "address"
						}
					],
					"name": "DigestUpdated",
					"type": "event"
				},
				{
					"inputs": [
						{
							"internalType": "uint8",
							"name": "",
							"type": "uint8"
						}
					],
					"name": "algorithms",
					"outputs": [
						{
							"internalType": "contract Algorithm",
							"name": "",
							"type": "address"
						}
					],
					"stateMutability": "view",
					"type": "function"
				},
				{
					"inputs": [],
					"name": "anchors",
					"outputs": [
						{
							"internalType": "bytes",
							"name": "",
							"type": "bytes"
						}
					],
					"stateMutability": "view",
					"type": "function"
				},
				{
					"inputs": [
						{
							"internalType": "uint8",
							"name": "",
							"type": "uint8"
						}
					],
					"name": "digests",
					"outputs": [
						{
							"internalType": "contract Digest",
							"name": "",
							"type": "address"
						}
					],
					"stateMutability": "view",
					"type": "function"
				},
				{
					"inputs": [],
					"name": "owner",
					"outputs": [
						{
							"internalType": "address",
							"name": "",
							"type": "address"
						}
					],
					"stateMutability": "view",
					"type": "function"
				},
				{
					"inputs": [
						{
							"internalType": "uint8",
							"name": "id",
							"type": "uint8"
						},
						{
							"internalType": "contract Algorithm",
							"name": "algo",
							"type": "address"
						}
					],
					"name": "setAlgorithm",
					"outputs": [],
					"stateMutability": "nonpayable",
					"type": "function"
				},
				{
					"inputs": [
						{
							"internalType": "uint8",
							"name": "id",
							"type": "uint8"
						},
						{
							"internalType": "contract Digest",
							"name": "digest",
							"type": "address"
						}
					],
					"name": "setDigest",
					"outputs": [],
					"stateMutability": "nonpayable",
					"type": "function"
				},
				{
					"inputs": [
						{
							"internalType": "address",
							"name": "newOwner",
							"type": "address"
						}
					],
					"name": "setOwner",
					"outputs": [],
					"stateMutability": "nonpayable",
					"type": "function"
				},
				{
					"inputs": [
						{
							"components": [
								{
									"internalType": "bytes",
									"name": "rrset",
									"type": "bytes"
								},
								{
									"internalType": "bytes",
									"name": "sig",
									"type": "bytes"
								}
							],
							"internalType": "struct DNSSEC.RRSetWithSignature[]",
							"name": "input",
							"type": "tuple[]"
						},
						{
							"internalType": "uint256",
							"name": "now",
							"type": "uint256"
						}
					],
					"name": "verifyRRSet",
					"outputs": [
						{
							"internalType": "bytes",
							"name": "rrs",
							"type": "bytes"
						},
						{
							"internalType": "uint32",
							"name": "inception",
							"type": "uint32"
						}
					],
					"stateMutability": "view",
					"type": "function"
				},
				{
					"inputs": [
						{
							"components": [
								{
									"internalType": "bytes",
									"name": "rrset",
									"type": "bytes"
								},
								{
									"internalType": "bytes",
									"name": "sig",
									"type": "bytes"
								}
							],
							"internalType": "struct DNSSEC.RRSetWithSignature[]",
							"name": "input",
							"type": "tuple[]"
						}
					],
					"name": "verifyRRSet",
					"outputs": [
						{
							"internalType": "bytes",
							"name": "rrs",
							"type": "bytes"
						},
						{
							"internalType": "uint32",
							"name": "inception",
							"type": "uint32"
						}
					],
					"stateMutability": "view",
					"type": "function"
				}
			],
			"devdoc": {
				"kind": "dev",
				"methods": {
					"constructor": {
						"details": "Constructor.",
						"params": {
							"_anchors": "The binary format RR entries for the root DS records."
						}
					},
					"setAlgorithm(uint8,address)": {
						"details": "Sets the contract address for a signature verification algorithm.      Callable only by the owner.",
						"params": {
							"algo": "The address of the algorithm contract.",
							"id": "The algorithm ID"
						}
					},
					"setDigest(uint8,address)": {
						"details": "Sets the contract address for a digest verification algorithm.      Callable only by the owner.",
						"params": {
							"digest": "The address of the digest contract.",
							"id": "The digest ID"
						}
					},
					"verifyRRSet((bytes,bytes)[])": {
						"details": "Takes a chain of signed DNS records, verifies them, and returns the data from the last record set in the chain.      Reverts if the records do not form an unbroken chain of trust to the DNSSEC anchor records.",
						"params": {
							"input": "A list of signed RRSets."
						},
						"returns": {
							"inception": "The inception time of the signed record set.",
							"rrs": "The RRData from the last RRSet in the chain."
						}
					},
					"verifyRRSet((bytes,bytes)[],uint256)": {
						"details": "Takes a chain of signed DNS records, verifies them, and returns the data from the last record set in the chain.      Reverts if the records do not form an unbroken chain of trust to the DNSSEC anchor records.",
						"params": {
							"input": "A list of signed RRSets.",
							"now": "The Unix timestamp to validate the records at."
						},
						"returns": {
							"inception": "The inception time of the signed record set.",
							"rrs": "The RRData from the last RRSet in the chain."
						}
					}
				},
				"version": 1
			},
			"evm": {
				"assembly": "    /* \"packages/contracts/src/dnssec-oracle/DNSSECImpl.sol\":928:15880  contract DNSSECImpl is DNSSEC, Owned {... */\n  mstore(0x40, 0x80)\n    /* \"packages/contracts/src/dnssec-oracle/DNSSECImpl.sol\":2015:2208  constructor(bytes memory _anchors) {... */\n  callvalue\n  dup1\n  iszero\n  tag_1\n  jumpi\n  0x00\n  dup1\n  revert\ntag_1:\n  pop\n  mload(0x40)\n  sub(codesize, bytecodeSize)\n  dup1\n  bytecodeSize\n  dup4\n  codecopy\n  dup2\n  add\n  0x40\n  dup2\n  swap1\n  mstore\n  tag_2\n  swap2\n  tag_3\n  jump\t// in\ntag_2:\n    /* \"packages/contracts/src/dnssec-oracle/Owned.sol\":295:300  owner */\n  0x01\n    /* \"packages/contracts/src/dnssec-oracle/Owned.sol\":295:313  owner = msg.sender */\n  dup1\n  sload\n  not(sub(shl(0xa0, 0x01), 0x01))\n  and\n    /* \"packages/contracts/src/dnssec-oracle/Owned.sol\":303:313  msg.sender */\n  caller\n    /* \"packages/contracts/src/dnssec-oracle/Owned.sol\":295:313  owner = msg.sender */\n  or\n  swap1\n  sstore\n    /* \"packages/contracts/src/dnssec-oracle/Owned.sol\":295:300  owner */\n  0x00\n    /* \"packages/contracts/src/dnssec-oracle/DNSSECImpl.sol\":2182:2200  anchors = _anchors */\n  tag_8\n    /* \"packages/contracts/src/dnssec-oracle/DNSSECImpl.sol\":2192:2200  _anchors */\n  dup3\n    /* \"packages/contracts/src/dnssec-oracle/Owned.sol\":295:300  owner */\n  dup3\n    /* \"packages/contracts/src/dnssec-oracle/DNSSECImpl.sol\":2182:2200  anchors = _anchors */\n  tag_9\n  jump\t// in\ntag_8:\n  pop\n    /* \"packages/contracts/src/dnssec-oracle/DNSSECImpl.sol\":2015:2208  constructor(bytes memory _anchors) {... */\n  pop\n    /* \"packages/contracts/src/dnssec-oracle/DNSSECImpl.sol\":928:15880  contract DNSSECImpl is DNSSEC, Owned {... */\n  jump(tag_16)\n    /* \"#utility.yul\":14:141   */\ntag_11:\n    /* \"#utility.yul\":75:85   */\n  0x4e487b71\n    /* \"#utility.yul\":70:73   */\n  0xe0\n    /* \"#utility.yul\":66:86   */\n  shl\n    /* \"#utility.yul\":63:64   */\n  0x00\n    /* \"#utility.yul\":56:87   */\n  mstore\n    /* \"#utility.yul\":106:110   */\n  0x41\n    /* \"#utility.yul\":103:104   */\n  0x04\n    /* \"#utility.yul\":96:111   */\n  mstore\n    /* \"#utility.yul\":130:134   */\n  0x24\n    /* \"#utility.yul\":127:128   */\n  0x00\n    /* \"#utility.yul\":120:135   */\n  revert\n    /* \"#utility.yul\":146:1187   */\ntag_3:\n    /* \"#utility.yul\":225:231   */\n  0x00\n    /* \"#utility.yul\":256:258   */\n  0x20\n    /* \"#utility.yul\":299:301   */\n  dup1\n    /* \"#utility.yul\":287:296   */\n  dup4\n    /* \"#utility.yul\":278:285   */\n  dup6\n    /* \"#utility.yul\":274:297   */\n  sub\n    /* \"#utility.yul\":270:302   */\n  slt\n    /* \"#utility.yul\":267:319   */\n  iszero\n  tag_19\n  jumpi\n    /* \"#utility.yul\":315:316   */\n  0x00\n    /* \"#utility.yul\":312:313   */\n  dup1\n    /* \"#utility.yul\":305:317   */\n  revert\n    /* \"#utility.yul\":267:319   */\ntag_19:\n    /* \"#utility.yul\":342:358   */\n  dup3\n  mload\n  sub(shl(0x40, 0x01), 0x01)\n    /* \"#utility.yul\":407:421   */\n  dup1\n  dup3\n  gt\n    /* \"#utility.yul\":404:438   */\n  iszero\n  tag_20\n  jumpi\n    /* \"#utility.yul\":434:435   */\n  0x00\n    /* \"#utility.yul\":431:432   */\n  dup1\n    /* \"#utility.yul\":424:436   */\n  revert\n    /* \"#utility.yul\":404:438   */\ntag_20:\n    /* \"#utility.yul\":472:478   */\n  dup2\n    /* \"#utility.yul\":461:470   */\n  dup6\n    /* \"#utility.yul\":457:479   */\n  add\n    /* \"#utility.yul\":447:479   */\n  swap2\n  pop\n    /* \"#utility.yul\":517:524   */\n  dup6\n    /* \"#utility.yul\":510:514   */\n  0x1f\n    /* \"#utility.yul\":506:508   */\n  dup4\n    /* \"#utility.yul\":502:515   */\n  add\n    /* \"#utility.yul\":498:525   */\n  slt\n    /* \"#utility.yul\":488:543   */\n  tag_21\n  jumpi\n    /* \"#utility.yul\":539:540   */\n  0x00\n    /* \"#utility.yul\":536:537   */\n  dup1\n    /* \"#utility.yul\":529:541   */\n  revert\n    /* \"#utility.yul\":488:543   */\ntag_21:\n    /* \"#utility.yul\":568:570   */\n  dup2\n    /* \"#utility.yul\":562:571   */\n  mload\n    /* \"#utility.yul\":590:592   */\n  dup2\n    /* \"#utility.yul\":586:588   */\n  dup2\n    /* \"#utility.yul\":583:593   */\n  gt\n    /* \"#utility.yul\":580:616   */\n  iszero\n  tag_23\n  jumpi\n    /* \"#utility.yul\":596:614   */\n  tag_23\n  tag_11\n  jump\t// in\ntag_23:\n    /* \"#utility.yul\":671:673   */\n  0x40\n    /* \"#utility.yul\":665:674   */\n  mload\n    /* \"#utility.yul\":639:641   */\n  0x1f\n    /* \"#utility.yul\":725:738   */\n  dup3\n  add\n  not(0x1f)\n    /* \"#utility.yul\":721:743   */\n  swap1\n  dup2\n  and\n    /* \"#utility.yul\":745:747   */\n  0x3f\n    /* \"#utility.yul\":717:748   */\n  add\n    /* \"#utility.yul\":713:753   */\n  and\n    /* \"#utility.yul\":701:754   */\n  dup2\n  add\n  swap1\n    /* \"#utility.yul\":769:787   */\n  dup4\n  dup3\n  gt\n    /* \"#utility.yul\":789:811   */\n  dup2\n  dup4\n  lt\n    /* \"#utility.yul\":766:812   */\n  or\n    /* \"#utility.yul\":763:835   */\n  iszero\n  tag_25\n  jumpi\n    /* \"#utility.yul\":815:833   */\n  tag_25\n  tag_11\n  jump\t// in\ntag_25:\n    /* \"#utility.yul\":855:865   */\n  dup2\n    /* \"#utility.yul\":851:853   */\n  0x40\n    /* \"#utility.yul\":844:866   */\n  mstore\n    /* \"#utility.yul\":890:892   */\n  dup3\n    /* \"#utility.yul\":882:888   */\n  dup2\n    /* \"#utility.yul\":875:893   */\n  mstore\n    /* \"#utility.yul\":930:937   */\n  dup9\n    /* \"#utility.yul\":925:927   */\n  dup7\n    /* \"#utility.yul\":920:922   */\n  dup5\n    /* \"#utility.yul\":916:918   */\n  dup8\n    /* \"#utility.yul\":912:923   */\n  add\n    /* \"#utility.yul\":908:928   */\n  add\n    /* \"#utility.yul\":905:938   */\n  gt\n    /* \"#utility.yul\":902:955   */\n  iszero\n  tag_26\n  jumpi\n    /* \"#utility.yul\":951:952   */\n  0x00\n    /* \"#utility.yul\":948:949   */\n  dup1\n    /* \"#utility.yul\":941:953   */\n  revert\n    /* \"#utility.yul\":902:955   */\ntag_26:\n    /* \"#utility.yul\":973:974   */\n  0x00\n    /* \"#utility.yul\":964:974   */\n  swap4\n  pop\n    /* \"#utility.yul\":983:1112   */\ntag_27:\n    /* \"#utility.yul\":997:999   */\n  dup3\n    /* \"#utility.yul\":994:995   */\n  dup5\n    /* \"#utility.yul\":991:1000   */\n  lt\n    /* \"#utility.yul\":983:1112   */\n  iszero\n  tag_29\n  jumpi\n    /* \"#utility.yul\":1085:1095   */\n  dup5\n  dup5\n  add\n    /* \"#utility.yul\":1081:1100   */\n  dup7\n  add\n    /* \"#utility.yul\":1075:1101   */\n  mload\n    /* \"#utility.yul\":1054:1068   */\n  dup2\n  dup6\n  add\n    /* \"#utility.yul\":1050:1073   */\n  dup8\n  add\n    /* \"#utility.yul\":1043:1102   */\n  mstore\n    /* \"#utility.yul\":1008:1018   */\n  swap3\n  dup6\n  add\n  swap3\n    /* \"#utility.yul\":983:1112   */\n  jump(tag_27)\ntag_29:\n    /* \"#utility.yul\":1154:1155   */\n  0x00\n    /* \"#utility.yul\":1149:1151   */\n  dup7\n    /* \"#utility.yul\":1144:1146   */\n  dup5\n    /* \"#utility.yul\":1136:1142   */\n  dup4\n    /* \"#utility.yul\":1132:1147   */\n  add\n    /* \"#utility.yul\":1128:1152   */\n  add\n    /* \"#utility.yul\":1121:1156   */\n  mstore\n    /* \"#utility.yul\":1175:1181   */\n  dup1\n    /* \"#utility.yul\":1165:1181   */\n  swap7\n  pop\n  pop\n  pop\n  pop\n  pop\n  pop\n  pop\n    /* \"#utility.yul\":146:1187   */\n  swap3\n  swap2\n  pop\n  pop\n  jump\t// out\n    /* \"#utility.yul\":1192:1572   */\ntag_12:\n    /* \"#utility.yul\":1271:1272   */\n  0x01\n    /* \"#utility.yul\":1267:1279   */\n  dup2\n  dup2\n  shr\n  swap1\n    /* \"#utility.yul\":1314:1326   */\n  dup3\n  and\n  dup1\n    /* \"#utility.yul\":1335:1396   */\n  tag_31\n  jumpi\n    /* \"#utility.yul\":1389:1393   */\n  0x7f\n    /* \"#utility.yul\":1381:1387   */\n  dup3\n    /* \"#utility.yul\":1377:1394   */\n  and\n    /* \"#utility.yul\":1367:1394   */\n  swap2\n  pop\n    /* \"#utility.yul\":1335:1396   */\ntag_31:\n    /* \"#utility.yul\":1442:1444   */\n  0x20\n    /* \"#utility.yul\":1434:1440   */\n  dup3\n    /* \"#utility.yul\":1431:1445   */\n  lt\n    /* \"#utility.yul\":1411:1429   */\n  dup2\n    /* \"#utility.yul\":1408:1446   */\n  sub\n    /* \"#utility.yul\":1405:1566   */\n  tag_32\n  jumpi\n    /* \"#utility.yul\":1488:1498   */\n  0x4e487b71\n    /* \"#utility.yul\":1483:1486   */\n  0xe0\n    /* \"#utility.yul\":1479:1499   */\n  shl\n    /* \"#utility.yul\":1476:1477   */\n  0x00\n    /* \"#utility.yul\":1469:1500   */\n  mstore\n    /* \"#utility.yul\":1523:1527   */\n  0x22\n    /* \"#utility.yul\":1520:1521   */\n  0x04\n    /* \"#utility.yul\":1513:1528   */\n  mstore\n    /* \"#utility.yul\":1551:1555   */\n  0x24\n    /* \"#utility.yul\":1548:1549   */\n  0x00\n    /* \"#utility.yul\":1541:1556   */\n  revert\n    /* \"#utility.yul\":1405:1566   */\ntag_32:\n  pop\n    /* \"#utility.yul\":1192:1572   */\n  swap2\n  swap1\n  pop\n  jump\t// out\n    /* \"#utility.yul\":1702:2246   */\ntag_14:\n    /* \"#utility.yul\":1803:1805   */\n  0x1f\n    /* \"#utility.yul\":1798:1801   */\n  dup3\n    /* \"#utility.yul\":1795:1806   */\n  gt\n    /* \"#utility.yul\":1792:2240   */\n  iszero\n  tag_35\n  jumpi\n    /* \"#utility.yul\":1839:1840   */\n  0x00\n    /* \"#utility.yul\":1864:1869   */\n  dup2\n    /* \"#utility.yul\":1860:1862   */\n  dup2\n    /* \"#utility.yul\":1853:1870   */\n  mstore\n    /* \"#utility.yul\":1909:1913   */\n  0x20\n    /* \"#utility.yul\":1905:1907   */\n  dup2\n    /* \"#utility.yul\":1895:1914   */\n  keccak256\n    /* \"#utility.yul\":1979:1981   */\n  0x1f\n    /* \"#utility.yul\":1967:1977   */\n  dup6\n    /* \"#utility.yul\":1963:1982   */\n  add\n    /* \"#utility.yul\":1960:1961   */\n  0x05\n    /* \"#utility.yul\":1956:1983   */\n  shr\n    /* \"#utility.yul\":1950:1954   */\n  dup2\n    /* \"#utility.yul\":1946:1984   */\n  add\n    /* \"#utility.yul\":2015:2019   */\n  0x20\n    /* \"#utility.yul\":2003:2013   */\n  dup7\n    /* \"#utility.yul\":2000:2020   */\n  lt\n    /* \"#utility.yul\":1997:2044   */\n  iszero\n  tag_36\n  jumpi\n  pop\n    /* \"#utility.yul\":2038:2042   */\n  dup1\n    /* \"#utility.yul\":1997:2044   */\ntag_36:\n    /* \"#utility.yul\":2093:2095   */\n  0x1f\n    /* \"#utility.yul\":2088:2091   */\n  dup6\n    /* \"#utility.yul\":2084:2096   */\n  add\n    /* \"#utility.yul\":2081:2082   */\n  0x05\n    /* \"#utility.yul\":2077:2097   */\n  shr\n    /* \"#utility.yul\":2071:2075   */\n  dup3\n    /* \"#utility.yul\":2067:2098   */\n  add\n    /* \"#utility.yul\":2057:2098   */\n  swap2\n  pop\n    /* \"#utility.yul\":2148:2230   */\ntag_37:\n    /* \"#utility.yul\":2166:2168   */\n  dup2\n    /* \"#utility.yul\":2159:2164   */\n  dup2\n    /* \"#utility.yul\":2156:2169   */\n  lt\n    /* \"#utility.yul\":2148:2230   */\n  iszero\n  tag_39\n  jumpi\n    /* \"#utility.yul\":2211:2228   */\n  dup3\n  dup2\n  sstore\n    /* \"#utility.yul\":2192:2193   */\n  0x01\n    /* \"#utility.yul\":2181:2194   */\n  add\n    /* \"#utility.yul\":2148:2230   */\n  jump(tag_37)\ntag_39:\n    /* \"#utility.yul\":2152:2155   */\n  pop\n  pop\n  pop\n    /* \"#utility.yul\":1792:2240   */\ntag_35:\n    /* \"#utility.yul\":1702:2246   */\n  pop\n  pop\n  pop\n  jump\t// out\n    /* \"#utility.yul\":2422:3770   */\ntag_9:\n    /* \"#utility.yul\":2540:2550   */\n  dup2\n  mload\n  sub(shl(0x40, 0x01), 0x01)\n    /* \"#utility.yul\":2562:2592   */\n  dup2\n  gt\n    /* \"#utility.yul\":2559:2615   */\n  iszero\n  tag_43\n  jumpi\n    /* \"#utility.yul\":2595:2613   */\n  tag_43\n  tag_11\n  jump\t// in\ntag_43:\n    /* \"#utility.yul\":2624:2720   */\n  tag_44\n    /* \"#utility.yul\":2713:2719   */\n  dup2\n    /* \"#utility.yul\":2673:2711   */\n  tag_45\n    /* \"#utility.yul\":2705:2709   */\n  dup5\n    /* \"#utility.yul\":2699:2710   */\n  sload\n    /* \"#utility.yul\":2673:2711   */\n  tag_12\n  jump\t// in\ntag_45:\n    /* \"#utility.yul\":2667:2671   */\n  dup5\n    /* \"#utility.yul\":2624:2720   */\n  tag_14\n  jump\t// in\ntag_44:\n    /* \"#utility.yul\":2775:2779   */\n  0x20\n  dup1\n    /* \"#utility.yul\":2839:2841   */\n  0x1f\n    /* \"#utility.yul\":2828:2842   */\n  dup4\n  gt\n    /* \"#utility.yul\":2856:2857   */\n  0x01\n    /* \"#utility.yul\":2851:3513   */\n  dup2\n  eq\n  tag_47\n  jumpi\n    /* \"#utility.yul\":3557:3558   */\n  0x00\n    /* \"#utility.yul\":3574:3580   */\n  dup5\n    /* \"#utility.yul\":3571:3660   */\n  iszero\n  tag_48\n  jumpi\n  pop\n    /* \"#utility.yul\":3626:3645   */\n  dup6\n  dup4\n  add\n    /* \"#utility.yul\":3620:3646   */\n  mload\n    /* \"#utility.yul\":3571:3660   */\ntag_48:\n  not(0x00)\n    /* \"#utility.yul\":2379:2380   */\n  0x03\n    /* \"#utility.yul\":2375:2386   */\n  dup7\n  swap1\n  shl\n    /* \"#utility.yul\":2371:2395   */\n  shr\n    /* \"#utility.yul\":2367:2396   */\n  not\n    /* \"#utility.yul\":2357:2397   */\n  and\n    /* \"#utility.yul\":2403:2404   */\n  0x01\n    /* \"#utility.yul\":2399:2410   */\n  dup6\n  swap1\n  shl\n    /* \"#utility.yul\":2354:2411   */\n  or\n    /* \"#utility.yul\":3673:3754   */\n  dup6\n  sstore\n    /* \"#utility.yul\":2821:3764   */\n  jump(tag_39)\n    /* \"#utility.yul\":2851:3513   */\ntag_47:\n    /* \"#utility.yul\":1649:1650   */\n  0x00\n    /* \"#utility.yul\":1642:1656   */\n  dup6\n  dup2\n  mstore\n    /* \"#utility.yul\":1686:1690   */\n  0x20\n    /* \"#utility.yul\":1673:1691   */\n  dup2\n  keccak256\n  not(0x1f)\n    /* \"#utility.yul\":2887:2907   */\n  dup7\n  and\n  swap2\n    /* \"#utility.yul\":3004:3240   */\ntag_51:\n    /* \"#utility.yul\":3018:3025   */\n  dup3\n    /* \"#utility.yul\":3015:3016   */\n  dup2\n    /* \"#utility.yul\":3012:3026   */\n  lt\n    /* \"#utility.yul\":3004:3240   */\n  iszero\n  tag_53\n  jumpi\n    /* \"#utility.yul\":3107:3126   */\n  dup9\n  dup7\n  add\n    /* \"#utility.yul\":3101:3127   */\n  mload\n    /* \"#utility.yul\":3086:3128   */\n  dup3\n  sstore\n    /* \"#utility.yul\":3199:3226   */\n  swap5\n  dup5\n  add\n  swap5\n    /* \"#utility.yul\":3167:3168   */\n  0x01\n    /* \"#utility.yul\":3155:3169   */\n  swap1\n  swap2\n  add\n  swap1\n    /* \"#utility.yul\":3034:3053   */\n  dup5\n  add\n    /* \"#utility.yul\":3004:3240   */\n  jump(tag_51)\ntag_53:\n    /* \"#utility.yul\":3008:3011   */\n  pop\n    /* \"#utility.yul\":3268:3274   */\n  dup6\n    /* \"#utility.yul\":3259:3266   */\n  dup3\n    /* \"#utility.yul\":3256:3275   */\n  lt\n    /* \"#utility.yul\":3253:3454   */\n  iszero\n  tag_54\n  jumpi\n    /* \"#utility.yul\":3329:3348   */\n  dup8\n  dup6\n  add\n    /* \"#utility.yul\":3323:3349   */\n  mload\n  not(0x00)\n    /* \"#utility.yul\":3412:3413   */\n  0x03\n    /* \"#utility.yul\":3408:3422   */\n  dup9\n  swap1\n  shl\n    /* \"#utility.yul\":3424:3427   */\n  0xf8\n    /* \"#utility.yul\":3404:3428   */\n  and\n    /* \"#utility.yul\":3400:3437   */\n  shr\n    /* \"#utility.yul\":3396:3438   */\n  not\n    /* \"#utility.yul\":3381:3439   */\n  and\n    /* \"#utility.yul\":3366:3440   */\n  dup2\n  sstore\n    /* \"#utility.yul\":3253:3454   */\ntag_54:\n  pop\n  pop\n  pop\n  pop\n  pop\n    /* \"#utility.yul\":3500:3501   */\n  0x01\n    /* \"#utility.yul\":3484:3498   */\n  swap1\n  dup2\n  shl\n    /* \"#utility.yul\":3480:3502   */\n  add\n    /* \"#utility.yul\":3467:3503   */\n  swap1\n  sstore\n  pop\n    /* \"#utility.yul\":2422:3770   */\n  jump\t// out\ntag_16:\n    /* \"packages/contracts/src/dnssec-oracle/DNSSECImpl.sol\":928:15880  contract DNSSECImpl is DNSSEC, Owned {... */\n  dataSize(sub_0)\n  dup1\n  dataOffset(sub_0)\n  0x00\n  codecopy\n  0x00\n  return\nstop\n\nsub_0: assembly {\n        /* \"packages/contracts/src/dnssec-oracle/DNSSECImpl.sol\":928:15880  contract DNSSECImpl is DNSSEC, Owned {... */\n      mstore(0x40, 0x80)\n      callvalue\n      dup1\n      iszero\n      tag_1\n      jumpi\n      0x00\n      dup1\n      revert\n    tag_1:\n      pop\n      jumpi(tag_2, lt(calldatasize, 0x04))\n      shr(0xe0, calldataload(0x00))\n      dup1\n      0x73cc48a6\n      gt\n      tag_12\n      jumpi\n      dup1\n      0x73cc48a6\n      eq\n      tag_7\n      jumpi\n      dup1\n      0x8da5cb5b\n      eq\n      tag_8\n      jumpi\n      dup1\n      0x98d35f20\n      eq\n      tag_9\n      jumpi\n      dup1\n      0xbdf95fef\n      eq\n      tag_10\n      jumpi\n      dup1\n      0xc327deef\n      eq\n      tag_11\n      jumpi\n      0x00\n      dup1\n      revert\n    tag_12:\n      dup1\n      0x020ed8d3\n      eq\n      tag_3\n      jumpi\n      dup1\n      0x13af4035\n      eq\n      tag_4\n      jumpi\n      dup1\n      0x28e7677d\n      eq\n      tag_5\n      jumpi\n      dup1\n      0x440f3d42\n      eq\n      tag_6\n      jumpi\n    tag_2:\n      0x00\n      dup1\n      revert\n        /* \"packages/contracts/src/dnssec-oracle/DNSSECImpl.sol\":2448:2605  function setAlgorithm(uint8 id, Algorithm algo) public owner_only {... */\n    tag_3:\n      tag_13\n      tag_14\n      calldatasize\n      0x04\n      tag_15\n      jump\t// in\n    tag_14:\n      tag_16\n      jump\t// in\n    tag_13:\n      stop\n        /* \"packages/contracts/src/dnssec-oracle/Owned.sol\":329:418  function setOwner(address newOwner) public owner_only {... */\n    tag_4:\n      tag_13\n      tag_18\n      calldatasize\n      0x04\n      tag_19\n      jump\t// in\n    tag_18:\n      tag_20\n      jump\t// in\n        /* \"packages/contracts/src/dnssec-oracle/DNSSECImpl.sol\":2838:2989  function setDigest(uint8 id, Digest digest) public owner_only {... */\n    tag_5:\n      tag_13\n      tag_22\n      calldatasize\n      0x04\n      tag_15\n      jump\t// in\n    tag_22:\n      tag_24\n      jump\t// in\n        /* \"packages/contracts/src/dnssec-oracle/DNSSECImpl.sol\":4190:4784  function verifyRRSet(... */\n    tag_6:\n      tag_25\n      tag_26\n      calldatasize\n      0x04\n      tag_27\n      jump\t// in\n    tag_26:\n      tag_28\n      jump\t// in\n    tag_25:\n      mload(0x40)\n      tag_29\n      swap3\n      swap2\n      swap1\n      tag_30\n      jump\t// in\n    tag_29:\n      mload(0x40)\n      dup1\n      swap2\n      sub\n      swap1\n      return\n        /* \"packages/contracts/src/dnssec-oracle/DNSSECImpl.sol\":1845:1884  mapping(uint8 => Digest) public digests */\n    tag_7:\n      tag_31\n      tag_32\n      calldatasize\n      0x04\n      tag_33\n      jump\t// in\n    tag_32:\n      mstore(0x20, 0x03)\n      0x00\n      swap1\n      dup2\n      mstore\n      0x40\n      swap1\n      keccak256\n      sload\n      sub(shl(0xa0, 0x01), 0x01)\n      and\n      dup2\n      jump\n    tag_31:\n      mload(0x40)\n      sub(shl(0xa0, 0x01), 0x01)\n        /* \"#utility.yul\":5756:5788   */\n      swap1\n      swap2\n      and\n        /* \"#utility.yul\":5738:5789   */\n      dup2\n      mstore\n        /* \"#utility.yul\":5726:5728   */\n      0x20\n        /* \"#utility.yul\":5711:5729   */\n      add\n        /* \"packages/contracts/src/dnssec-oracle/DNSSECImpl.sol\":1845:1884  mapping(uint8 => Digest) public digests */\n      tag_29\n        /* \"#utility.yul\":5577:5795   */\n      jump\n        /* \"packages/contracts/src/dnssec-oracle/Owned.sol\":145:165  address public owner */\n    tag_8:\n      sload(0x01)\n      tag_31\n      swap1\n      sub(shl(0xa0, 0x01), 0x01)\n      and\n      dup2\n      jump\n        /* \"packages/contracts/src/dnssec-oracle/DNSSEC.sol\":127:147  bytes public anchors */\n    tag_9:\n      tag_41\n      tag_42\n      jump\t// in\n    tag_41:\n      mload(0x40)\n      tag_29\n      swap2\n      swap1\n      tag_44\n      jump\t// in\n        /* \"packages/contracts/src/dnssec-oracle/DNSSECImpl.sol\":3427:3686  function verifyRRSet(... */\n    tag_10:\n      tag_25\n      tag_46\n      calldatasize\n      0x04\n      tag_47\n      jump\t// in\n    tag_46:\n      tag_48\n      jump\t// in\n        /* \"packages/contracts/src/dnssec-oracle/DNSSECImpl.sol\":1793:1838  mapping(uint8 => Algorithm) public algorithms */\n    tag_11:\n      tag_31\n      tag_51\n      calldatasize\n      0x04\n      tag_33\n      jump\t// in\n    tag_51:\n      mstore(0x20, 0x02)\n      0x00\n      swap1\n      dup2\n      mstore\n      0x40\n      swap1\n      keccak256\n      sload\n      sub(shl(0xa0, 0x01), 0x01)\n      and\n      dup2\n      jump\n        /* \"packages/contracts/src/dnssec-oracle/DNSSECImpl.sol\":2448:2605  function setAlgorithm(uint8 id, Algorithm algo) public owner_only {... */\n    tag_16:\n        /* \"packages/contracts/src/dnssec-oracle/Owned.sol\":229:234  owner */\n      and(sub(shl(0xa0, 0x01), 0x01), sload(0x01))\n        /* \"packages/contracts/src/dnssec-oracle/Owned.sol\":215:225  msg.sender */\n      caller\n        /* \"packages/contracts/src/dnssec-oracle/Owned.sol\":215:234  msg.sender == owner */\n      eq\n        /* \"packages/contracts/src/dnssec-oracle/Owned.sol\":207:235  require(msg.sender == owner) */\n      tag_56\n      jumpi\n      0x00\n      dup1\n      revert\n    tag_56:\n        /* \"packages/contracts/src/dnssec-oracle/DNSSECImpl.sol\":2525:2539  algorithms[id] */\n      0xff\n      dup3\n      and\n      0x00\n      dup2\n      dup2\n      mstore\n        /* \"packages/contracts/src/dnssec-oracle/DNSSECImpl.sol\":2525:2535  algorithms */\n      0x02\n        /* \"packages/contracts/src/dnssec-oracle/DNSSECImpl.sol\":2525:2539  algorithms[id] */\n      0x20\n      swap1\n      dup2\n      mstore\n      0x40\n      swap2\n      dup3\n      swap1\n      keccak256\n        /* \"packages/contracts/src/dnssec-oracle/DNSSECImpl.sol\":2525:2546  algorithms[id] = algo */\n      dup1\n      sload\n      not(sub(shl(0xa0, 0x01), 0x01))\n      and\n      sub(shl(0xa0, 0x01), 0x01)\n      dup7\n      and\n      swap1\n      dup2\n      or\n      swap1\n      swap2\n      sstore\n        /* \"packages/contracts/src/dnssec-oracle/DNSSECImpl.sol\":2562:2597  AlgorithmUpdated(id, address(algo)) */\n      dup3\n      mload\n        /* \"#utility.yul\":7033:7069   */\n      swap4\n      dup5\n      mstore\n        /* \"#utility.yul\":7085:7103   */\n      swap1\n      dup4\n      add\n        /* \"#utility.yul\":7078:7138   */\n      mstore\n        /* \"packages/contracts/src/dnssec-oracle/DNSSECImpl.sol\":2562:2597  AlgorithmUpdated(id, address(algo)) */\n      0xf73c3c226af96b7f1ba666a21b3ceaf2be3ee6a365e3178fd9cd1eaae0075aa8\n      swap2\n        /* \"#utility.yul\":7006:7024   */\n      add\n        /* \"packages/contracts/src/dnssec-oracle/DNSSECImpl.sol\":2562:2597  AlgorithmUpdated(id, address(algo)) */\n    tag_58:\n      mload(0x40)\n      dup1\n      swap2\n      sub\n      swap1\n      log1\n        /* \"packages/contracts/src/dnssec-oracle/DNSSECImpl.sol\":2448:2605  function setAlgorithm(uint8 id, Algorithm algo) public owner_only {... */\n      pop\n      pop\n      jump\t// out\n        /* \"packages/contracts/src/dnssec-oracle/Owned.sol\":329:418  function setOwner(address newOwner) public owner_only {... */\n    tag_20:\n        /* \"packages/contracts/src/dnssec-oracle/Owned.sol\":229:234  owner */\n      and(sub(shl(0xa0, 0x01), 0x01), sload(0x01))\n        /* \"packages/contracts/src/dnssec-oracle/Owned.sol\":215:225  msg.sender */\n      caller\n        /* \"packages/contracts/src/dnssec-oracle/Owned.sol\":215:234  msg.sender == owner */\n      eq\n        /* \"packages/contracts/src/dnssec-oracle/Owned.sol\":207:235  require(msg.sender == owner) */\n      tag_61\n      jumpi\n      0x00\n      dup1\n      revert\n    tag_61:\n        /* \"packages/contracts/src/dnssec-oracle/Owned.sol\":394:399  owner */\n      0x01\n        /* \"packages/contracts/src/dnssec-oracle/Owned.sol\":394:410  owner = newOwner */\n      dup1\n      sload\n      not(sub(shl(0xa0, 0x01), 0x01))\n      and\n      sub(shl(0xa0, 0x01), 0x01)\n      swap3\n      swap1\n      swap3\n      and\n      swap2\n      swap1\n      swap2\n      or\n      swap1\n      sstore\n        /* \"packages/contracts/src/dnssec-oracle/Owned.sol\":329:418  function setOwner(address newOwner) public owner_only {... */\n      jump\t// out\n        /* \"packages/contracts/src/dnssec-oracle/DNSSECImpl.sol\":2838:2989  function setDigest(uint8 id, Digest digest) public owner_only {... */\n    tag_24:\n        /* \"packages/contracts/src/dnssec-oracle/Owned.sol\":229:234  owner */\n      and(sub(shl(0xa0, 0x01), 0x01), sload(0x01))\n        /* \"packages/contracts/src/dnssec-oracle/Owned.sol\":215:225  msg.sender */\n      caller\n        /* \"packages/contracts/src/dnssec-oracle/Owned.sol\":215:234  msg.sender == owner */\n      eq\n        /* \"packages/contracts/src/dnssec-oracle/Owned.sol\":207:235  require(msg.sender == owner) */\n      tag_64\n      jumpi\n      0x00\n      dup1\n      revert\n    tag_64:\n        /* \"packages/contracts/src/dnssec-oracle/DNSSECImpl.sol\":2911:2922  digests[id] */\n      0xff\n      dup3\n      and\n      0x00\n      dup2\n      dup2\n      mstore\n        /* \"packages/contracts/src/dnssec-oracle/DNSSECImpl.sol\":2911:2918  digests */\n      0x03\n        /* \"packages/contracts/src/dnssec-oracle/DNSSECImpl.sol\":2911:2922  digests[id] */\n      0x20\n      swap1\n      dup2\n      mstore\n      0x40\n      swap2\n      dup3\n      swap1\n      keccak256\n        /* \"packages/contracts/src/dnssec-oracle/DNSSECImpl.sol\":2911:2931  digests[id] = digest */\n      dup1\n      sload\n      not(sub(shl(0xa0, 0x01), 0x01))\n      and\n      sub(shl(0xa0, 0x01), 0x01)\n      dup7\n      and\n      swap1\n      dup2\n      or\n      swap1\n      swap2\n      sstore\n        /* \"packages/contracts/src/dnssec-oracle/DNSSECImpl.sol\":2947:2981  DigestUpdated(id, address(digest)) */\n      dup3\n      mload\n        /* \"#utility.yul\":7033:7069   */\n      swap4\n      dup5\n      mstore\n        /* \"#utility.yul\":7085:7103   */\n      swap1\n      dup4\n      add\n        /* \"#utility.yul\":7078:7138   */\n      mstore\n        /* \"packages/contracts/src/dnssec-oracle/DNSSECImpl.sol\":2947:2981  DigestUpdated(id, address(digest)) */\n      0x2fcc274c3b72dd483ab201bfa87295e3817e8b9b10693219873b722ca1af00c7\n      swap2\n        /* \"#utility.yul\":7006:7024   */\n      add\n        /* \"packages/contracts/src/dnssec-oracle/DNSSECImpl.sol\":2947:2981  DigestUpdated(id, address(digest)) */\n      tag_58\n        /* \"#utility.yul\":6863:7144   */\n      jump\n        /* \"packages/contracts/src/dnssec-oracle/DNSSECImpl.sol\":4190:4784  function verifyRRSet(... */\n    tag_28:\n        /* \"packages/contracts/src/dnssec-oracle/DNSSECImpl.sol\":4367:4383  bytes memory rrs */\n      0x60\n        /* \"packages/contracts/src/dnssec-oracle/DNSSECImpl.sol\":4385:4401  uint32 inception */\n      0x00\n        /* \"packages/contracts/src/dnssec-oracle/DNSSECImpl.sol\":4419:4437  bytes memory proof */\n      dup1\n        /* \"packages/contracts/src/dnssec-oracle/DNSSECImpl.sol\":4440:4447  anchors */\n      0x00\n        /* \"packages/contracts/src/dnssec-oracle/DNSSECImpl.sol\":4419:4447  bytes memory proof = anchors */\n      dup1\n      sload\n      tag_68\n      swap1\n      tag_69\n      jump\t// in\n    tag_68:\n      dup1\n      0x1f\n      add\n      0x20\n      dup1\n      swap2\n      div\n      mul\n      0x20\n      add\n      mload(0x40)\n      swap1\n      dup2\n      add\n      0x40\n      mstore\n      dup1\n      swap3\n      swap2\n      swap1\n      dup2\n      dup2\n      mstore\n      0x20\n      add\n      dup3\n      dup1\n      sload\n      tag_70\n      swap1\n      tag_69\n      jump\t// in\n    tag_70:\n      dup1\n      iszero\n      tag_71\n      jumpi\n      dup1\n      0x1f\n      lt\n      tag_72\n      jumpi\n      0x0100\n      dup1\n      dup4\n      sload\n      div\n      mul\n      dup4\n      mstore\n      swap2\n      0x20\n      add\n      swap2\n      jump(tag_71)\n    tag_72:\n      dup3\n      add\n      swap2\n      swap1\n      0x00\n      mstore\n      keccak256(0x00, 0x20)\n      swap1\n    tag_73:\n      dup2\n      sload\n      dup2\n      mstore\n      swap1\n      0x01\n      add\n      swap1\n      0x20\n      add\n      dup1\n      dup4\n      gt\n      tag_73\n      jumpi\n      dup3\n      swap1\n      sub\n      0x1f\n      and\n      dup3\n      add\n      swap2\n    tag_71:\n      pop\n      pop\n      pop\n      pop\n      pop\n      swap1\n      pop\n        /* \"packages/contracts/src/dnssec-oracle/DNSSECImpl.sol\":4463:4472  uint256 i */\n      0x00\n        /* \"packages/contracts/src/dnssec-oracle/DNSSECImpl.sol\":4458:4741  for (uint256 i = 0; i < input.length; i++) {... */\n    tag_74:\n        /* \"packages/contracts/src/dnssec-oracle/DNSSECImpl.sol\":4482:4487  input */\n      dup6\n        /* \"packages/contracts/src/dnssec-oracle/DNSSECImpl.sol\":4482:4494  input.length */\n      mload\n        /* \"packages/contracts/src/dnssec-oracle/DNSSECImpl.sol\":4478:4479  i */\n      dup2\n        /* \"packages/contracts/src/dnssec-oracle/DNSSECImpl.sol\":4478:4494  i < input.length */\n      lt\n        /* \"packages/contracts/src/dnssec-oracle/DNSSECImpl.sol\":4458:4741  for (uint256 i = 0; i < input.length; i++) {... */\n      iszero\n      tag_75\n      jumpi\n        /* \"packages/contracts/src/dnssec-oracle/DNSSECImpl.sol\":4516:4546  RRUtils.SignedSet memory rrset */\n      0x00\n        /* \"packages/contracts/src/dnssec-oracle/DNSSECImpl.sol\":4549:4654  validateSignedSet(... */\n      tag_77\n        /* \"packages/contracts/src/dnssec-oracle/DNSSECImpl.sol\":4585:4590  input */\n      dup8\n        /* \"packages/contracts/src/dnssec-oracle/DNSSECImpl.sol\":4591:4592  i */\n      dup4\n        /* \"packages/contracts/src/dnssec-oracle/DNSSECImpl.sol\":4585:4593  input[i] */\n      dup2\n      mload\n      dup2\n      lt\n      tag_79\n      jumpi\n      tag_79\n      tag_80\n      jump\t// in\n    tag_79:\n      0x20\n      mul\n      0x20\n      add\n      add\n      mload\n        /* \"packages/contracts/src/dnssec-oracle/DNSSECImpl.sol\":4612:4617  proof */\n      dup5\n        /* \"packages/contracts/src/dnssec-oracle/DNSSECImpl.sol\":4636:4639  now */\n      dup9\n        /* \"packages/contracts/src/dnssec-oracle/DNSSECImpl.sol\":4549:4566  validateSignedSet */\n      tag_81\n        /* \"packages/contracts/src/dnssec-oracle/DNSSECImpl.sol\":4549:4654  validateSignedSet(... */\n      jump\t// in\n    tag_77:\n        /* \"packages/contracts/src/dnssec-oracle/DNSSECImpl.sol\":4677:4687  rrset.data */\n      0x0100\n      dup2\n      add\n      mload\n        /* \"packages/contracts/src/dnssec-oracle/DNSSECImpl.sol\":4714:4729  rrset.inception */\n      0xa0\n      swap1\n      swap2\n      add\n      mload\n      swap5\n      pop\n        /* \"packages/contracts/src/dnssec-oracle/DNSSECImpl.sol\":4677:4687  rrset.data */\n      swap3\n      pop\n        /* \"packages/contracts/src/dnssec-oracle/DNSSECImpl.sol\":4496:4499  i++ */\n      dup2\n      swap1\n      pop\n      tag_82\n      dup2\n      tag_83\n      jump\t// in\n    tag_82:\n      swap2\n      pop\n      pop\n        /* \"packages/contracts/src/dnssec-oracle/DNSSECImpl.sol\":4458:4741  for (uint256 i = 0; i < input.length; i++) {... */\n      jump(tag_74)\n    tag_75:\n      pop\n        /* \"packages/contracts/src/dnssec-oracle/DNSSECImpl.sol\":4759:4764  proof */\n      swap2\n      pop\n        /* \"packages/contracts/src/dnssec-oracle/DNSSECImpl.sol\":4190:4784  function verifyRRSet(... */\n      swap3\n      pop\n      swap3\n      swap1\n      pop\n      jump\t// out\n        /* \"packages/contracts/src/dnssec-oracle/DNSSEC.sol\":127:147  bytes public anchors */\n    tag_42:\n      0x00\n      dup1\n      sload\n      tag_84\n      swap1\n      tag_69\n      jump\t// in\n    tag_84:\n      dup1\n      0x1f\n      add\n      0x20\n      dup1\n      swap2\n      div\n      mul\n      0x20\n      add\n      mload(0x40)\n      swap1\n      dup2\n      add\n      0x40\n      mstore\n      dup1\n      swap3\n      swap2\n      swap1\n      dup2\n      dup2\n      mstore\n      0x20\n      add\n      dup3\n      dup1\n      sload\n      tag_85\n      swap1\n      tag_69\n      jump\t// in\n    tag_85:\n      dup1\n      iszero\n      tag_86\n      jumpi\n      dup1\n      0x1f\n      lt\n      tag_87\n      jumpi\n      0x0100\n      dup1\n      dup4\n      sload\n      div\n      mul\n      dup4\n      mstore\n      swap2\n      0x20\n      add\n      swap2\n      jump(tag_86)\n    tag_87:\n      dup3\n      add\n      swap2\n      swap1\n      0x00\n      mstore\n      keccak256(0x00, 0x20)\n      swap1\n    tag_88:\n      dup2\n      sload\n      dup2\n      mstore\n      swap1\n      0x01\n      add\n      swap1\n      0x20\n      add\n      dup1\n      dup4\n      gt\n      tag_88\n      jumpi\n      dup3\n      swap1\n      sub\n      0x1f\n      and\n      dup3\n      add\n      swap2\n    tag_86:\n      pop\n      pop\n      pop\n      pop\n      pop\n      dup2\n      jump\t// out\n        /* \"packages/contracts/src/dnssec-oracle/DNSSECImpl.sol\":3427:3686  function verifyRRSet(... */\n    tag_48:\n        /* \"packages/contracts/src/dnssec-oracle/DNSSECImpl.sol\":3584:3600  bytes memory rrs */\n      0x60\n        /* \"packages/contracts/src/dnssec-oracle/DNSSECImpl.sol\":3602:3618  uint32 inception */\n      0x00\n        /* \"packages/contracts/src/dnssec-oracle/DNSSECImpl.sol\":3643:3678  verifyRRSet(input, block.timestamp) */\n      tag_90\n        /* \"packages/contracts/src/dnssec-oracle/DNSSECImpl.sol\":3655:3660  input */\n      dup4\n        /* \"packages/contracts/src/dnssec-oracle/DNSSECImpl.sol\":3662:3677  block.timestamp */\n      timestamp\n        /* \"packages/contracts/src/dnssec-oracle/DNSSECImpl.sol\":3643:3654  verifyRRSet */\n      tag_28\n        /* \"packages/contracts/src/dnssec-oracle/DNSSECImpl.sol\":3643:3678  verifyRRSet(input, block.timestamp) */\n      jump\t// in\n    tag_90:\n        /* \"packages/contracts/src/dnssec-oracle/DNSSECImpl.sol\":3636:3678  return verifyRRSet(input, block.timestamp) */\n      swap2\n      pop\n      swap2\n      pop\n        /* \"packages/contracts/src/dnssec-oracle/DNSSECImpl.sol\":3427:3686  function verifyRRSet(... */\n      swap2\n      pop\n      swap2\n      jump\t// out\n        /* \"packages/contracts/src/dnssec-oracle/DNSSECImpl.sol\":5305:6732  function validateSignedSet(... */\n    tag_81:\n        /* \"packages/contracts/src/dnssec-oracle/DNSSECImpl.sol\":5455:5485  RRUtils.SignedSet memory rrset */\n      tag_91\n      tag_92\n      jump\t// in\n    tag_91:\n        /* \"packages/contracts/src/dnssec-oracle/DNSSECImpl.sol\":5506:5517  input.rrset */\n      dup4\n      mload\n        /* \"packages/contracts/src/dnssec-oracle/DNSSECImpl.sol\":5506:5533  input.rrset.readSignedSet() */\n      tag_94\n      swap1\n        /* \"packages/contracts/src/dnssec-oracle/DNSSECImpl.sol\":5506:5531  input.rrset.readSignedSet */\n      tag_95\n        /* \"packages/contracts/src/dnssec-oracle/DNSSECImpl.sol\":5506:5533  input.rrset.readSignedSet() */\n      jump\t// in\n    tag_94:\n        /* \"packages/contracts/src/dnssec-oracle/DNSSECImpl.sol\":5498:5533  rrset = input.rrset.readSignedSet() */\n      swap1\n      pop\n        /* \"packages/contracts/src/dnssec-oracle/DNSSECImpl.sol\":5611:5628  bytes memory name */\n      0x00\n        /* \"packages/contracts/src/dnssec-oracle/DNSSECImpl.sol\":5631:5668  validateRRs(rrset, rrset.typeCovered) */\n      tag_96\n        /* \"packages/contracts/src/dnssec-oracle/DNSSECImpl.sol\":5643:5648  rrset */\n      dup3\n        /* \"packages/contracts/src/dnssec-oracle/DNSSECImpl.sol\":5650:5655  rrset */\n      dup4\n        /* \"packages/contracts/src/dnssec-oracle/DNSSECImpl.sol\":5650:5667  rrset.typeCovered */\n      0x00\n      add\n      mload\n        /* \"packages/contracts/src/dnssec-oracle/DNSSECImpl.sol\":5631:5642  validateRRs */\n      tag_97\n        /* \"packages/contracts/src/dnssec-oracle/DNSSECImpl.sol\":5631:5668  validateRRs(rrset, rrset.typeCovered) */\n      jump\t// in\n    tag_96:\n        /* \"packages/contracts/src/dnssec-oracle/DNSSECImpl.sol\":5705:5717  rrset.labels */\n      0x40\n      dup4\n      add\n      mload\n        /* \"packages/contracts/src/dnssec-oracle/DNSSECImpl.sol\":5611:5668  bytes memory name = validateRRs(rrset, rrset.typeCovered) */\n      swap1\n      swap2\n      pop\n        /* \"packages/contracts/src/dnssec-oracle/DNSSECImpl.sol\":5683:5717  name.labelCount(0) != rrset.labels */\n      0xff\n      and\n        /* \"packages/contracts/src/dnssec-oracle/DNSSECImpl.sol\":5683:5701  name.labelCount(0) */\n      tag_98\n        /* \"packages/contracts/src/dnssec-oracle/DNSSECImpl.sol\":5611:5668  bytes memory name = validateRRs(rrset, rrset.typeCovered) */\n      dup3\n        /* \"packages/contracts/src/dnssec-oracle/DNSSECImpl.sol\":5699:5700  0 */\n      0x00\n        /* \"packages/contracts/src/dnssec-oracle/DNSSECImpl.sol\":5683:5698  name.labelCount */\n      tag_99\n        /* \"packages/contracts/src/dnssec-oracle/DNSSECImpl.sol\":5683:5701  name.labelCount(0) */\n      jump\t// in\n    tag_98:\n        /* \"packages/contracts/src/dnssec-oracle/DNSSECImpl.sol\":5683:5717  name.labelCount(0) != rrset.labels */\n      eq\n        /* \"packages/contracts/src/dnssec-oracle/DNSSECImpl.sol\":5679:5790  if (name.labelCount(0) != rrset.labels) {... */\n      tag_100\n      jumpi\n        /* \"packages/contracts/src/dnssec-oracle/DNSSECImpl.sol\":5759:5763  name */\n      dup1\n        /* \"packages/contracts/src/dnssec-oracle/DNSSECImpl.sol\":5765:5770  rrset */\n      dup3\n        /* \"packages/contracts/src/dnssec-oracle/DNSSECImpl.sol\":5765:5777  rrset.labels */\n      0x40\n      add\n      mload\n        /* \"packages/contracts/src/dnssec-oracle/DNSSECImpl.sol\":5741:5778  InvalidLabelCount(name, rrset.labels) */\n      mload(0x40)\n      shl(0xe0, 0xe861b2bd)\n      dup2\n      mstore\n      0x04\n      add\n      tag_101\n      swap3\n      swap2\n      swap1\n      tag_102\n      jump\t// in\n    tag_101:\n      mload(0x40)\n      dup1\n      swap2\n      sub\n      swap1\n      revert\n        /* \"packages/contracts/src/dnssec-oracle/DNSSECImpl.sol\":5679:5790  if (name.labelCount(0) != rrset.labels) {... */\n    tag_100:\n        /* \"packages/contracts/src/dnssec-oracle/DNSSECImpl.sol\":5800:5810  rrset.name */\n      0x0120\n      dup3\n      add\n        /* \"packages/contracts/src/dnssec-oracle/DNSSECImpl.sol\":5800:5817  rrset.name = name */\n      dup2\n      swap1\n      mstore\n        /* \"packages/contracts/src/dnssec-oracle/DNSSECImpl.sol\":6184:6200  rrset.expiration */\n      0x80\n      dup3\n      add\n      mload\n        /* \"packages/contracts/src/dnssec-oracle/RRUtils.sol\":10067:10071  bool */\n      0x00\n        /* \"packages/contracts/src/dnssec-oracle/RRUtils.sol\":10116:10137  int32(i1) - int32(i2) */\n      swap1\n      dup5\n      swap1\n      sub\n        /* \"packages/contracts/src/dnssec-oracle/RRUtils.sol\":10116:10142  int32(i1) - int32(i2) >= 0 */\n      0x03\n      signextend\n      slt\n      iszero\n        /* \"packages/contracts/src/dnssec-oracle/DNSSECImpl.sol\":6155:6297  if (!RRUtils.serialNumberGte(rrset.expiration, uint32(now))) {... */\n      tag_105\n      jumpi\n        /* \"packages/contracts/src/dnssec-oracle/DNSSECImpl.sol\":6255:6271  rrset.expiration */\n      0x80\n      dup3\n      add\n      mload\n        /* \"packages/contracts/src/dnssec-oracle/DNSSECImpl.sol\":6238:6285  SignatureExpired(rrset.expiration, uint32(now)) */\n      mload(0x40)\n      shl(0xe1, 0x53c27c3f)\n      dup2\n      mstore\n        /* \"#utility.yul\":8420:8430   */\n      0xffffffff\n        /* \"#utility.yul\":8457:8472   */\n      swap2\n      dup3\n      and\n        /* \"packages/contracts/src/dnssec-oracle/DNSSECImpl.sol\":6238:6285  SignatureExpired(rrset.expiration, uint32(now)) */\n      0x04\n      dup3\n      add\n        /* \"#utility.yul\":8439:8473   */\n      mstore\n        /* \"#utility.yul\":8509:8524   */\n      swap1\n      dup5\n      and\n        /* \"#utility.yul\":8489:8507   */\n      0x24\n      dup3\n      add\n        /* \"#utility.yul\":8482:8525   */\n      mstore\n        /* \"#utility.yul\":8383:8401   */\n      0x44\n      add\n        /* \"packages/contracts/src/dnssec-oracle/DNSSECImpl.sol\":6238:6285  SignatureExpired(rrset.expiration, uint32(now)) */\n      tag_101\n        /* \"#utility.yul\":8240:8531   */\n      jump\n        /* \"packages/contracts/src/dnssec-oracle/DNSSECImpl.sol\":6155:6297  if (!RRUtils.serialNumberGte(rrset.expiration, uint32(now))) {... */\n    tag_105:\n        /* \"packages/contracts/src/dnssec-oracle/DNSSECImpl.sol\":6508:6523  rrset.inception */\n      0xa0\n      dup3\n      add\n      mload\n        /* \"packages/contracts/src/dnssec-oracle/RRUtils.sol\":10067:10071  bool */\n      0x00\n        /* \"packages/contracts/src/dnssec-oracle/RRUtils.sol\":10116:10137  int32(i1) - int32(i2) */\n      swap1\n      dup5\n      sub\n        /* \"packages/contracts/src/dnssec-oracle/RRUtils.sol\":10116:10142  int32(i1) - int32(i2) >= 0 */\n      0x03\n      signextend\n      slt\n      iszero\n        /* \"packages/contracts/src/dnssec-oracle/DNSSECImpl.sol\":6466:6610  if (!RRUtils.serialNumberGte(uint32(now), rrset.inception)) {... */\n      tag_109\n      jumpi\n        /* \"packages/contracts/src/dnssec-oracle/DNSSECImpl.sol\":6569:6584  rrset.inception */\n      0xa0\n      dup3\n      add\n      mload\n        /* \"packages/contracts/src/dnssec-oracle/DNSSECImpl.sol\":6548:6598  SignatureNotValidYet(rrset.inception, uint32(now)) */\n      mload(0x40)\n      shl(0xe1, 0x5ea081b5)\n      dup2\n      mstore\n        /* \"#utility.yul\":8420:8430   */\n      0xffffffff\n        /* \"#utility.yul\":8457:8472   */\n      swap2\n      dup3\n      and\n        /* \"packages/contracts/src/dnssec-oracle/DNSSECImpl.sol\":6548:6598  SignatureNotValidYet(rrset.inception, uint32(now)) */\n      0x04\n      dup3\n      add\n        /* \"#utility.yul\":8439:8473   */\n      mstore\n        /* \"#utility.yul\":8509:8524   */\n      swap1\n      dup5\n      and\n        /* \"#utility.yul\":8489:8507   */\n      0x24\n      dup3\n      add\n        /* \"#utility.yul\":8482:8525   */\n      mstore\n        /* \"#utility.yul\":8383:8401   */\n      0x44\n      add\n        /* \"packages/contracts/src/dnssec-oracle/DNSSECImpl.sol\":6548:6598  SignatureNotValidYet(rrset.inception, uint32(now)) */\n      tag_101\n        /* \"#utility.yul\":8240:8531   */\n      jump\n        /* \"packages/contracts/src/dnssec-oracle/DNSSECImpl.sol\":6466:6610  if (!RRUtils.serialNumberGte(uint32(now), rrset.inception)) {... */\n    tag_109:\n        /* \"packages/contracts/src/dnssec-oracle/DNSSECImpl.sol\":6657:6699  verifySignature(name, rrset, input, proof) */\n      tag_111\n        /* \"packages/contracts/src/dnssec-oracle/DNSSECImpl.sol\":6673:6677  name */\n      dup2\n        /* \"packages/contracts/src/dnssec-oracle/DNSSECImpl.sol\":6679:6684  rrset */\n      dup4\n        /* \"packages/contracts/src/dnssec-oracle/DNSSECImpl.sol\":6686:6691  input */\n      dup8\n        /* \"packages/contracts/src/dnssec-oracle/DNSSECImpl.sol\":6693:6698  proof */\n      dup8\n        /* \"packages/contracts/src/dnssec-oracle/DNSSECImpl.sol\":6657:6672  verifySignature */\n      tag_112\n        /* \"packages/contracts/src/dnssec-oracle/DNSSECImpl.sol\":6657:6699  verifySignature(name, rrset, input, proof) */\n      jump\t// in\n    tag_111:\n        /* \"packages/contracts/src/dnssec-oracle/DNSSECImpl.sol\":6712:6724  return rrset */\n      pop\n        /* \"packages/contracts/src/dnssec-oracle/DNSSECImpl.sol\":5305:6732  function validateSignedSet(... */\n    tag_93:\n      swap4\n      swap3\n      pop\n      pop\n      pop\n      jump\t// out\n        /* \"packages/contracts/src/dnssec-oracle/RRUtils.sol\":2830:3574  function readSignedSet(... */\n    tag_95:\n        /* \"packages/contracts/src/dnssec-oracle/RRUtils.sol\":2911:2932  SignedSet memory self */\n      tag_113\n      tag_92\n      jump\t// in\n    tag_113:\n        /* \"packages/contracts/src/dnssec-oracle/RRUtils.sol\":2964:2991  data.readUint16(RRSIG_TYPE) */\n      tag_115\n        /* \"packages/contracts/src/dnssec-oracle/RRUtils.sol\":2964:2968  data */\n      dup3\n        /* \"packages/contracts/src/dnssec-oracle/RRUtils.sol\":2244:2245  0 */\n      0x00\n        /* \"packages/contracts/src/dnssec-oracle/RRUtils.sol\":2964:2979  data.readUint16 */\n      tag_116\n        /* \"packages/contracts/src/dnssec-oracle/RRUtils.sol\":2964:2991  data.readUint16(RRSIG_TYPE) */\n      jump\t// in\n    tag_115:\n        /* \"packages/contracts/src/dnssec-oracle/RRUtils.sol\":2945:2991  self.typeCovered = data.readUint16(RRSIG_TYPE) */\n      0xffff\n      and\n      dup2\n      mstore\n        /* \"packages/contracts/src/dnssec-oracle/RRUtils.sol\":3019:3050  data.readUint8(RRSIG_ALGORITHM) */\n      tag_117\n        /* \"packages/contracts/src/dnssec-oracle/RRUtils.sol\":3019:3023  data */\n      dup3\n        /* \"packages/contracts/src/dnssec-oracle/RRUtils.sol\":2287:2288  2 */\n      0x02\n        /* \"packages/contracts/src/dnssec-oracle/RRUtils.sol\":3019:3033  data.readUint8 */\n      tag_118\n        /* \"packages/contracts/src/dnssec-oracle/RRUtils.sol\":3019:3050  data.readUint8(RRSIG_ALGORITHM) */\n      jump\t// in\n    tag_117:\n        /* \"packages/contracts/src/dnssec-oracle/RRUtils.sol\":3002:3050  self.algorithm = data.readUint8(RRSIG_ALGORITHM) */\n      0xff\n      and\n        /* \"packages/contracts/src/dnssec-oracle/RRUtils.sol\":3002:3016  self.algorithm */\n      0x20\n      dup3\n      add\n        /* \"packages/contracts/src/dnssec-oracle/RRUtils.sol\":3002:3050  self.algorithm = data.readUint8(RRSIG_ALGORITHM) */\n      mstore\n        /* \"packages/contracts/src/dnssec-oracle/RRUtils.sol\":3075:3103  data.readUint8(RRSIG_LABELS) */\n      tag_119\n        /* \"packages/contracts/src/dnssec-oracle/RRUtils.sol\":3075:3079  data */\n      dup3\n        /* \"packages/contracts/src/dnssec-oracle/RRUtils.sol\":2327:2328  3 */\n      0x03\n        /* \"packages/contracts/src/dnssec-oracle/RRUtils.sol\":3075:3089  data.readUint8 */\n      tag_118\n        /* \"packages/contracts/src/dnssec-oracle/RRUtils.sol\":3075:3103  data.readUint8(RRSIG_LABELS) */\n      jump\t// in\n    tag_119:\n        /* \"packages/contracts/src/dnssec-oracle/RRUtils.sol\":3061:3103  self.labels = data.readUint8(RRSIG_LABELS) */\n      0xff\n      and\n        /* \"packages/contracts/src/dnssec-oracle/RRUtils.sol\":3061:3072  self.labels */\n      0x40\n      dup3\n      add\n        /* \"packages/contracts/src/dnssec-oracle/RRUtils.sol\":3061:3103  self.labels = data.readUint8(RRSIG_LABELS) */\n      mstore\n        /* \"packages/contracts/src/dnssec-oracle/RRUtils.sol\":3125:3151  data.readUint32(RRSIG_TTL) */\n      tag_120\n        /* \"packages/contracts/src/dnssec-oracle/RRUtils.sol\":3125:3129  data */\n      dup3\n        /* \"packages/contracts/src/dnssec-oracle/RRUtils.sol\":2364:2365  4 */\n      0x04\n        /* \"packages/contracts/src/dnssec-oracle/RRUtils.sol\":3125:3140  data.readUint32 */\n      tag_121\n        /* \"packages/contracts/src/dnssec-oracle/RRUtils.sol\":3125:3151  data.readUint32(RRSIG_TTL) */\n      jump\t// in\n    tag_120:\n        /* \"packages/contracts/src/dnssec-oracle/RRUtils.sol\":3114:3151  self.ttl = data.readUint32(RRSIG_TTL) */\n      0xffffffff\n      swap1\n      dup2\n      and\n        /* \"packages/contracts/src/dnssec-oracle/RRUtils.sol\":3114:3122  self.ttl */\n      0x60\n      dup4\n      add\n        /* \"packages/contracts/src/dnssec-oracle/RRUtils.sol\":3114:3151  self.ttl = data.readUint32(RRSIG_TTL) */\n      mstore\n        /* \"packages/contracts/src/dnssec-oracle/RRUtils.sol\":3180:3213  data.readUint32(RRSIG_EXPIRATION) */\n      tag_122\n      swap1\n        /* \"packages/contracts/src/dnssec-oracle/RRUtils.sol\":3180:3184  data */\n      dup4\n      swap1\n        /* \"packages/contracts/src/dnssec-oracle/RRUtils.sol\":2408:2409  8 */\n      0x08\n      swap1\n        /* \"packages/contracts/src/dnssec-oracle/RRUtils.sol\":3180:3195  data.readUint32 */\n      tag_121\n        /* \"packages/contracts/src/dnssec-oracle/RRUtils.sol\":3180:3213  data.readUint32(RRSIG_EXPIRATION) */\n      and\n      jump\t// in\n    tag_122:\n        /* \"packages/contracts/src/dnssec-oracle/RRUtils.sol\":3162:3213  self.expiration = data.readUint32(RRSIG_EXPIRATION) */\n      0xffffffff\n      swap1\n      dup2\n      and\n        /* \"packages/contracts/src/dnssec-oracle/RRUtils.sol\":3162:3177  self.expiration */\n      0x80\n      dup4\n      add\n        /* \"packages/contracts/src/dnssec-oracle/RRUtils.sol\":3162:3213  self.expiration = data.readUint32(RRSIG_EXPIRATION) */\n      mstore\n        /* \"packages/contracts/src/dnssec-oracle/RRUtils.sol\":3241:3273  data.readUint32(RRSIG_INCEPTION) */\n      tag_123\n      swap1\n        /* \"packages/contracts/src/dnssec-oracle/RRUtils.sol\":3241:3245  data */\n      dup4\n      swap1\n        /* \"packages/contracts/src/dnssec-oracle/RRUtils.sol\":2451:2453  12 */\n      0x0c\n      swap1\n        /* \"packages/contracts/src/dnssec-oracle/RRUtils.sol\":3241:3256  data.readUint32 */\n      tag_121\n        /* \"packages/contracts/src/dnssec-oracle/RRUtils.sol\":3241:3273  data.readUint32(RRSIG_INCEPTION) */\n      and\n      jump\t// in\n    tag_123:\n        /* \"packages/contracts/src/dnssec-oracle/RRUtils.sol\":3224:3273  self.inception = data.readUint32(RRSIG_INCEPTION) */\n      0xffffffff\n      swap1\n      dup2\n      and\n        /* \"packages/contracts/src/dnssec-oracle/RRUtils.sol\":3224:3238  self.inception */\n      0xa0\n      dup4\n      add\n        /* \"packages/contracts/src/dnssec-oracle/RRUtils.sol\":3224:3273  self.inception = data.readUint32(RRSIG_INCEPTION) */\n      mstore\n        /* \"packages/contracts/src/dnssec-oracle/RRUtils.sol\":3298:3328  data.readUint16(RRSIG_KEY_TAG) */\n      tag_124\n      swap1\n        /* \"packages/contracts/src/dnssec-oracle/RRUtils.sol\":3298:3302  data */\n      dup4\n      swap1\n        /* \"packages/contracts/src/dnssec-oracle/RRUtils.sol\":2493:2495  16 */\n      0x10\n      swap1\n        /* \"packages/contracts/src/dnssec-oracle/RRUtils.sol\":3298:3313  data.readUint16 */\n      tag_116\n        /* \"packages/contracts/src/dnssec-oracle/RRUtils.sol\":3298:3328  data.readUint16(RRSIG_KEY_TAG) */\n      and\n      jump\t// in\n    tag_124:\n        /* \"packages/contracts/src/dnssec-oracle/RRUtils.sol\":3284:3328  self.keytag = data.readUint16(RRSIG_KEY_TAG) */\n      0xffff\n      and\n        /* \"packages/contracts/src/dnssec-oracle/RRUtils.sol\":3284:3295  self.keytag */\n      0xc0\n      dup3\n      add\n        /* \"packages/contracts/src/dnssec-oracle/RRUtils.sol\":3284:3328  self.keytag = data.readUint16(RRSIG_KEY_TAG) */\n      mstore\n        /* \"packages/contracts/src/dnssec-oracle/RRUtils.sol\":3357:3390  readName(data, RRSIG_SIGNER_NAME) */\n      tag_125\n        /* \"packages/contracts/src/dnssec-oracle/RRUtils.sol\":3366:3370  data */\n      dup3\n        /* \"packages/contracts/src/dnssec-oracle/RRUtils.sol\":2539:2541  18 */\n      0x12\n        /* \"packages/contracts/src/dnssec-oracle/RRUtils.sol\":3357:3365  readName */\n      tag_126\n        /* \"packages/contracts/src/dnssec-oracle/RRUtils.sol\":3357:3390  readName(data, RRSIG_SIGNER_NAME) */\n      jump\t// in\n    tag_125:\n        /* \"packages/contracts/src/dnssec-oracle/RRUtils.sol\":3339:3354  self.signerName */\n      0xe0\n      dup3\n      add\n        /* \"packages/contracts/src/dnssec-oracle/RRUtils.sol\":3339:3390  self.signerName = readName(data, RRSIG_SIGNER_NAME) */\n      dup2\n      swap1\n      mstore\n        /* \"packages/contracts/src/dnssec-oracle/RRUtils.sol\":3462:3484  self.signerName.length */\n      mload\n        /* \"packages/contracts/src/dnssec-oracle/RRUtils.sol\":3413:3566  data.substring(... */\n      tag_127\n      swap1\n        /* \"packages/contracts/src/dnssec-oracle/RRUtils.sol\":3442:3484  RRSIG_SIGNER_NAME + self.signerName.length */\n      tag_128\n      swap1\n        /* \"packages/contracts/src/dnssec-oracle/RRUtils.sol\":2539:2541  18 */\n      0x12\n        /* \"packages/contracts/src/dnssec-oracle/RRUtils.sol\":3442:3484  RRSIG_SIGNER_NAME + self.signerName.length */\n      tag_129\n      jump\t// in\n    tag_128:\n        /* \"packages/contracts/src/dnssec-oracle/RRUtils.sol\":3533:3537  self */\n      dup3\n        /* \"packages/contracts/src/dnssec-oracle/RRUtils.sol\":3533:3548  self.signerName */\n      0xe0\n      add\n      mload\n        /* \"packages/contracts/src/dnssec-oracle/RRUtils.sol\":3533:3555  self.signerName.length */\n      mload\n        /* \"packages/contracts/src/dnssec-oracle/RRUtils.sol\":2539:2541  18 */\n      0x12\n        /* \"packages/contracts/src/dnssec-oracle/RRUtils.sol\":3499:3503  data */\n      dup6\n        /* \"packages/contracts/src/dnssec-oracle/RRUtils.sol\":3499:3510  data.length */\n      mload\n        /* \"packages/contracts/src/dnssec-oracle/RRUtils.sol\":3499:3530  data.length - RRSIG_SIGNER_NAME */\n      tag_130\n      swap2\n      swap1\n      tag_131\n      jump\t// in\n    tag_130:\n        /* \"packages/contracts/src/dnssec-oracle/RRUtils.sol\":3499:3555  data.length - RRSIG_SIGNER_NAME - self.signerName.length */\n      tag_132\n      swap2\n      swap1\n      tag_131\n      jump\t// in\n    tag_132:\n        /* \"packages/contracts/src/dnssec-oracle/RRUtils.sol\":3413:3417  data */\n      dup5\n      swap2\n        /* \"packages/contracts/src/dnssec-oracle/RRUtils.sol\":3413:3566  data.substring(... */\n      swap1\n        /* \"packages/contracts/src/dnssec-oracle/RRUtils.sol\":3413:3427  data.substring */\n      tag_133\n        /* \"packages/contracts/src/dnssec-oracle/RRUtils.sol\":3413:3566  data.substring(... */\n      jump\t// in\n    tag_127:\n        /* \"packages/contracts/src/dnssec-oracle/RRUtils.sol\":3401:3410  self.data */\n      0x0100\n      dup3\n      add\n        /* \"packages/contracts/src/dnssec-oracle/RRUtils.sol\":3401:3566  self.data = data.substring(... */\n      mstore\n        /* \"packages/contracts/src/dnssec-oracle/RRUtils.sol\":3401:3405  self */\n      swap2\n        /* \"packages/contracts/src/dnssec-oracle/RRUtils.sol\":2830:3574  function readSignedSet(... */\n      swap1\n      pop\n      jump\t// out\n        /* \"packages/contracts/src/dnssec-oracle/DNSSECImpl.sol\":6893:8112  function validateRRs(... */\n    tag_97:\n        /* \"packages/contracts/src/dnssec-oracle/DNSSECImpl.sol\":7014:7031  bytes memory name */\n      0x60\n        /* \"packages/contracts/src/dnssec-oracle/DNSSECImpl.sol\":7100:7130  RRUtils.RRIterator memory iter */\n      0x00\n        /* \"packages/contracts/src/dnssec-oracle/DNSSECImpl.sol\":7133:7144  rrset.rrs() */\n      tag_138\n        /* \"packages/contracts/src/dnssec-oracle/DNSSECImpl.sol\":7133:7138  rrset */\n      dup5\n        /* \"packages/contracts/src/dnssec-oracle/DNSSECImpl.sol\":7133:7142  rrset.rrs */\n      tag_139\n        /* \"packages/contracts/src/dnssec-oracle/DNSSECImpl.sol\":7133:7144  rrset.rrs() */\n      jump\t// in\n    tag_138:\n        /* \"packages/contracts/src/dnssec-oracle/DNSSECImpl.sol\":7100:7144  RRUtils.RRIterator memory iter = rrset.rrs() */\n      swap1\n      pop\n        /* \"packages/contracts/src/dnssec-oracle/DNSSECImpl.sol\":7081:8105  for (... */\n    tag_135:\n        /* \"packages/contracts/src/dnssec-oracle/RRUtils.sol\":4721:4730  iter.data */\n      dup1\n      mload\n        /* \"packages/contracts/src/dnssec-oracle/RRUtils.sol\":4721:4737  iter.data.length */\n      mload\n        /* \"packages/contracts/src/dnssec-oracle/RRUtils.sol\":4706:4717  iter.offset */\n      0x20\n      dup3\n      add\n      mload\n        /* \"packages/contracts/src/dnssec-oracle/RRUtils.sol\":4706:4737  iter.offset >= iter.data.length */\n      lt\n      iszero\n        /* \"packages/contracts/src/dnssec-oracle/DNSSECImpl.sol\":7081:8105  for (... */\n      tag_136\n      jumpi\n        /* \"packages/contracts/src/dnssec-oracle/DNSSECImpl.sol\":7280:7290  iter.class */\n      0x60\n      dup2\n      add\n      mload\n        /* \"packages/contracts/src/dnssec-oracle/DNSSECImpl.sol\":7280:7305  iter.class != DNSCLASS_IN */\n      0xffff\n      and\n        /* \"packages/contracts/src/dnssec-oracle/DNSSECImpl.sol\":1100:1101  1 */\n      0x01\n        /* \"packages/contracts/src/dnssec-oracle/DNSSECImpl.sol\":7280:7305  iter.class != DNSCLASS_IN */\n      eq\n        /* \"packages/contracts/src/dnssec-oracle/DNSSECImpl.sol\":7276:7373  if (iter.class != DNSCLASS_IN) {... */\n      tag_142\n      jumpi\n        /* \"packages/contracts/src/dnssec-oracle/DNSSECImpl.sol\":7346:7356  iter.class */\n      0x60\n      dup2\n      add\n      mload\n        /* \"packages/contracts/src/dnssec-oracle/DNSSECImpl.sol\":7333:7357  InvalidClass(iter.class) */\n      mload(0x40)\n      shl(0xe1, 0x4c52f98d)\n      dup2\n      mstore\n        /* \"#utility.yul\":8973:8979   */\n      0xffff\n        /* \"#utility.yul\":8961:8980   */\n      swap1\n      swap2\n      and\n        /* \"packages/contracts/src/dnssec-oracle/DNSSECImpl.sol\":7333:7357  InvalidClass(iter.class) */\n      0x04\n      dup3\n      add\n        /* \"#utility.yul\":8943:8981   */\n      mstore\n        /* \"#utility.yul\":8916:8934   */\n      0x24\n      add\n        /* \"packages/contracts/src/dnssec-oracle/DNSSECImpl.sol\":7333:7357  InvalidClass(iter.class) */\n      tag_101\n        /* \"#utility.yul\":8799:8987   */\n      jump\n        /* \"packages/contracts/src/dnssec-oracle/DNSSECImpl.sol\":7276:7373  if (iter.class != DNSCLASS_IN) {... */\n    tag_142:\n        /* \"packages/contracts/src/dnssec-oracle/DNSSECImpl.sol\":7393:7397  name */\n      dup2\n        /* \"packages/contracts/src/dnssec-oracle/DNSSECImpl.sol\":7393:7404  name.length */\n      mload\n        /* \"packages/contracts/src/dnssec-oracle/DNSSECImpl.sol\":7408:7409  0 */\n      0x00\n        /* \"packages/contracts/src/dnssec-oracle/DNSSECImpl.sol\":7393:7409  name.length == 0 */\n      sub\n        /* \"packages/contracts/src/dnssec-oracle/DNSSECImpl.sol\":7389:7873  if (name.length == 0) {... */\n      tag_145\n      jumpi\n        /* \"packages/contracts/src/dnssec-oracle/DNSSECImpl.sol\":7437:7448  iter.name() */\n      tag_146\n        /* \"packages/contracts/src/dnssec-oracle/DNSSECImpl.sol\":7437:7441  iter */\n      dup2\n        /* \"packages/contracts/src/dnssec-oracle/DNSSECImpl.sol\":7437:7446  iter.name */\n      tag_147\n        /* \"packages/contracts/src/dnssec-oracle/DNSSECImpl.sol\":7437:7448  iter.name() */\n      jump\t// in\n    tag_146:\n        /* \"packages/contracts/src/dnssec-oracle/DNSSECImpl.sol\":7430:7448  name = iter.name() */\n      swap2\n      pop\n        /* \"packages/contracts/src/dnssec-oracle/DNSSECImpl.sol\":7389:7873  if (name.length == 0) {... */\n      jump(tag_154)\n    tag_145:\n        /* \"packages/contracts/src/dnssec-oracle/DNSSECImpl.sol\":7685:7696  iter.offset */\n      0x20\n      dup2\n      add\n      mload\n        /* \"packages/contracts/src/dnssec-oracle/DNSSECImpl.sol\":7664:7673  iter.data */\n      dup2\n      mload\n        /* \"packages/contracts/src/dnssec-oracle/DNSSECImpl.sol\":7664:7697  iter.data.nameLength(iter.offset) */\n      tag_149\n      swap2\n        /* \"packages/contracts/src/dnssec-oracle/DNSSECImpl.sol\":7664:7684  iter.data.nameLength */\n      tag_150\n        /* \"packages/contracts/src/dnssec-oracle/DNSSECImpl.sol\":7664:7697  iter.data.nameLength(iter.offset) */\n      jump\t// in\n    tag_149:\n        /* \"packages/contracts/src/dnssec-oracle/DNSSECImpl.sol\":7649:7653  name */\n      dup3\n        /* \"packages/contracts/src/dnssec-oracle/DNSSECImpl.sol\":7649:7660  name.length */\n      mload\n        /* \"packages/contracts/src/dnssec-oracle/DNSSECImpl.sol\":7649:7697  name.length != iter.data.nameLength(iter.offset) */\n      eq\n      iszero\n        /* \"packages/contracts/src/dnssec-oracle/DNSSECImpl.sol\":7649:7774  name.length != iter.data.nameLength(iter.offset) ||... */\n      dup1\n      tag_151\n      jumpi\n      pop\n        /* \"packages/contracts/src/dnssec-oracle/DNSSECImpl.sol\":7738:7747  iter.data */\n      dup1\n      mload\n        /* \"packages/contracts/src/dnssec-oracle/DNSSECImpl.sol\":7749:7760  iter.offset */\n      0x20\n      dup3\n      add\n      mload\n        /* \"packages/contracts/src/dnssec-oracle/DNSSECImpl.sol\":7762:7773  name.length */\n      dup4\n      mload\n        /* \"packages/contracts/src/dnssec-oracle/DNSSECImpl.sol\":7723:7774  name.equals(0, iter.data, iter.offset, name.length) */\n      tag_152\n      swap3\n        /* \"packages/contracts/src/dnssec-oracle/DNSSECImpl.sol\":7762:7766  name */\n      dup6\n      swap3\n        /* \"packages/contracts/src/dnssec-oracle/DNSSECImpl.sol\":7735:7736  0 */\n      0x00\n      swap3\n        /* \"packages/contracts/src/dnssec-oracle/DNSSECImpl.sol\":7723:7734  name.equals */\n      tag_153\n        /* \"packages/contracts/src/dnssec-oracle/DNSSECImpl.sol\":7723:7774  name.equals(0, iter.data, iter.offset, name.length) */\n      jump\t// in\n    tag_152:\n        /* \"packages/contracts/src/dnssec-oracle/DNSSECImpl.sol\":7722:7774  !name.equals(0, iter.data, iter.offset, name.length) */\n      iszero\n        /* \"packages/contracts/src/dnssec-oracle/DNSSECImpl.sol\":7649:7774  name.length != iter.data.nameLength(iter.offset) ||... */\n    tag_151:\n        /* \"packages/contracts/src/dnssec-oracle/DNSSECImpl.sol\":7623:7858  if (... */\n      iszero\n      tag_154\n      jumpi\n        /* \"packages/contracts/src/dnssec-oracle/DNSSECImpl.sol\":7824:7838  InvalidRRSet() */\n      mload(0x40)\n      shl(0xe0, 0xcbceee6f)\n      dup2\n      mstore\n      0x04\n      add\n      mload(0x40)\n      dup1\n      swap2\n      sub\n      swap1\n      revert\n        /* \"packages/contracts/src/dnssec-oracle/DNSSECImpl.sol\":7623:7858  if (... */\n    tag_154:\n        /* \"packages/contracts/src/dnssec-oracle/DNSSECImpl.sol\":7991:8002  typecovered */\n      dup3\n        /* \"packages/contracts/src/dnssec-oracle/DNSSECImpl.sol\":7975:8002  iter.dnstype != typecovered */\n      0xffff\n      and\n        /* \"packages/contracts/src/dnssec-oracle/DNSSECImpl.sol\":7975:7979  iter */\n      dup2\n        /* \"packages/contracts/src/dnssec-oracle/DNSSECImpl.sol\":7975:7987  iter.dnstype */\n      0x40\n      add\n      mload\n        /* \"packages/contracts/src/dnssec-oracle/DNSSECImpl.sol\":7975:8002  iter.dnstype != typecovered */\n      0xffff\n      and\n      eq\n        /* \"packages/contracts/src/dnssec-oracle/DNSSECImpl.sol\":7971:8094  if (iter.dnstype != typecovered) {... */\n      tag_155\n      jumpi\n        /* \"packages/contracts/src/dnssec-oracle/DNSSECImpl.sol\":8052:8064  iter.dnstype */\n      0x40\n      dup1\n      dup3\n      add\n      mload\n        /* \"packages/contracts/src/dnssec-oracle/DNSSECImpl.sol\":8030:8078  SignatureTypeMismatch(iter.dnstype, typecovered) */\n      swap1\n      mload\n      shl(0xe1, 0x537fc545)\n      dup2\n      mstore\n        /* \"#utility.yul\":9172:9178   */\n      0xffff\n        /* \"#utility.yul\":9205:9220   */\n      swap2\n      dup3\n      and\n        /* \"packages/contracts/src/dnssec-oracle/DNSSECImpl.sol\":8030:8078  SignatureTypeMismatch(iter.dnstype, typecovered) */\n      0x04\n      dup3\n      add\n        /* \"#utility.yul\":9187:9221   */\n      mstore\n        /* \"#utility.yul\":9257:9272   */\n      swap1\n      dup5\n      and\n        /* \"#utility.yul\":9237:9255   */\n      0x24\n      dup3\n      add\n        /* \"#utility.yul\":9230:9273   */\n      mstore\n        /* \"#utility.yul\":9135:9153   */\n      0x44\n      add\n        /* \"packages/contracts/src/dnssec-oracle/DNSSECImpl.sol\":8030:8078  SignatureTypeMismatch(iter.dnstype, typecovered) */\n      tag_101\n        /* \"#utility.yul\":8992:9279   */\n      jump\n        /* \"packages/contracts/src/dnssec-oracle/DNSSECImpl.sol\":7971:8094  if (iter.dnstype != typecovered) {... */\n    tag_155:\n        /* \"packages/contracts/src/dnssec-oracle/DNSSECImpl.sol\":7186:7197  iter.next() */\n      tag_158\n        /* \"packages/contracts/src/dnssec-oracle/DNSSECImpl.sol\":7186:7190  iter */\n      dup2\n        /* \"packages/contracts/src/dnssec-oracle/DNSSECImpl.sol\":7186:7195  iter.next */\n      tag_159\n        /* \"packages/contracts/src/dnssec-oracle/DNSSECImpl.sol\":7186:7197  iter.next() */\n      jump\t// in\n    tag_158:\n        /* \"packages/contracts/src/dnssec-oracle/DNSSECImpl.sol\":7081:8105  for (... */\n      jump(tag_135)\n    tag_136:\n      pop\n        /* \"packages/contracts/src/dnssec-oracle/DNSSECImpl.sol\":6893:8112  function validateRRs(... */\n      swap3\n      swap2\n      pop\n      pop\n      jump\t// out\n        /* \"packages/contracts/src/dnssec-oracle/RRUtils.sol\":1766:2206  function labelCount(... */\n    tag_99:\n        /* \"packages/contracts/src/dnssec-oracle/RRUtils.sol\":1869:1876  uint256 */\n      0x00\n      dup1\n        /* \"packages/contracts/src/dnssec-oracle/RRUtils.sol\":1917:2176  while (true) {... */\n    tag_161:\n        /* \"packages/contracts/src/dnssec-oracle/RRUtils.sol\":1961:1965  self */\n      dup4\n        /* \"packages/contracts/src/dnssec-oracle/RRUtils.sol\":1961:1972  self.length */\n      mload\n        /* \"packages/contracts/src/dnssec-oracle/RRUtils.sol\":1952:1958  offset */\n      dup4\n        /* \"packages/contracts/src/dnssec-oracle/RRUtils.sol\":1952:1972  offset < self.length */\n      lt\n        /* \"packages/contracts/src/dnssec-oracle/RRUtils.sol\":1945:1973  assert(offset < self.length) */\n      tag_164\n      jumpi\n      tag_164\n      tag_165\n      jump\t// in\n    tag_164:\n        /* \"packages/contracts/src/dnssec-oracle/RRUtils.sol\":1988:2004  uint256 labelLen */\n      0x00\n        /* \"packages/contracts/src/dnssec-oracle/RRUtils.sol\":2007:2029  self.readUint8(offset) */\n      tag_166\n        /* \"packages/contracts/src/dnssec-oracle/RRUtils.sol\":2007:2011  self */\n      dup6\n        /* \"packages/contracts/src/dnssec-oracle/RRUtils.sol\":2022:2028  offset */\n      dup6\n        /* \"packages/contracts/src/dnssec-oracle/RRUtils.sol\":2007:2021  self.readUint8 */\n      tag_118\n        /* \"packages/contracts/src/dnssec-oracle/RRUtils.sol\":2007:2029  self.readUint8(offset) */\n      jump\t// in\n    tag_166:\n        /* \"packages/contracts/src/dnssec-oracle/RRUtils.sol\":1988:2029  uint256 labelLen = self.readUint8(offset) */\n      0xff\n      and\n      swap1\n      pop\n        /* \"packages/contracts/src/dnssec-oracle/RRUtils.sol\":2054:2066  labelLen + 1 */\n      tag_167\n        /* \"packages/contracts/src/dnssec-oracle/RRUtils.sol\":1988:2029  uint256 labelLen = self.readUint8(offset) */\n      dup2\n        /* \"packages/contracts/src/dnssec-oracle/RRUtils.sol\":2065:2066  1 */\n      0x01\n        /* \"packages/contracts/src/dnssec-oracle/RRUtils.sol\":2054:2066  labelLen + 1 */\n      tag_129\n      jump\t// in\n    tag_167:\n        /* \"packages/contracts/src/dnssec-oracle/RRUtils.sol\":2044:2066  offset += labelLen + 1 */\n      tag_168\n      swap1\n      dup6\n      tag_129\n      jump\t// in\n    tag_168:\n      swap4\n      pop\n        /* \"packages/contracts/src/dnssec-oracle/RRUtils.sol\":2085:2093  labelLen */\n      dup1\n        /* \"packages/contracts/src/dnssec-oracle/RRUtils.sol\":2097:2098  0 */\n      0x00\n        /* \"packages/contracts/src/dnssec-oracle/RRUtils.sol\":2085:2098  labelLen == 0 */\n      sub\n        /* \"packages/contracts/src/dnssec-oracle/RRUtils.sol\":2081:2140  if (labelLen == 0) {... */\n      tag_169\n      jumpi\n        /* \"packages/contracts/src/dnssec-oracle/RRUtils.sol\":2119:2124  break */\n      pop\n      jump(tag_162)\n        /* \"packages/contracts/src/dnssec-oracle/RRUtils.sol\":2081:2140  if (labelLen == 0) {... */\n    tag_169:\n        /* \"packages/contracts/src/dnssec-oracle/RRUtils.sol\":2154:2164  count += 1 */\n      tag_170\n        /* \"packages/contracts/src/dnssec-oracle/RRUtils.sol\":2163:2164  1 */\n      0x01\n        /* \"packages/contracts/src/dnssec-oracle/RRUtils.sol\":2154:2164  count += 1 */\n      dup4\n      tag_129\n      jump\t// in\n    tag_170:\n      swap2\n      pop\n        /* \"packages/contracts/src/dnssec-oracle/RRUtils.sol\":1930:2176  {... */\n      pop\n        /* \"packages/contracts/src/dnssec-oracle/RRUtils.sol\":1917:2176  while (true) {... */\n      jump(tag_161)\n    tag_162:\n        /* \"packages/contracts/src/dnssec-oracle/RRUtils.sol\":2193:2198  count */\n      swap1\n      pop\n        /* \"packages/contracts/src/dnssec-oracle/RRUtils.sol\":1766:2206  function labelCount(... */\n    tag_160:\n      swap3\n      swap2\n      pop\n      pop\n      jump\t// out\n        /* \"packages/contracts/src/dnssec-oracle/DNSSECImpl.sol\":8469:9296  function verifySignature(... */\n    tag_112:\n        /* \"packages/contracts/src/dnssec-oracle/DNSSECImpl.sol\":8808:8824  rrset.signerName */\n      0xe0\n      dup4\n      add\n      mload\n        /* \"packages/contracts/src/dnssec-oracle/DNSSECImpl.sol\":8789:8825  name.isSubdomainOf(rrset.signerName) */\n      tag_173\n      swap1\n        /* \"packages/contracts/src/dnssec-oracle/DNSSECImpl.sol\":8789:8793  name */\n      dup6\n      swap1\n        /* \"packages/contracts/src/dnssec-oracle/DNSSECImpl.sol\":8789:8807  name.isSubdomainOf */\n      tag_174\n        /* \"packages/contracts/src/dnssec-oracle/DNSSECImpl.sol\":8789:8825  name.isSubdomainOf(rrset.signerName) */\n      jump\t// in\n    tag_173:\n        /* \"packages/contracts/src/dnssec-oracle/DNSSECImpl.sol\":8784:8902  if (!name.isSubdomainOf(rrset.signerName)) {... */\n      tag_175\n      jumpi\n        /* \"packages/contracts/src/dnssec-oracle/DNSSECImpl.sol\":8873:8889  rrset.signerName */\n      0xe0\n      dup4\n      add\n      mload\n        /* \"packages/contracts/src/dnssec-oracle/DNSSECImpl.sol\":8849:8890  InvalidSignerName(name, rrset.signerName) */\n      mload(0x40)\n      shl(0xe0, 0xeaafc59b)\n      dup2\n      mstore\n      tag_101\n      swap2\n        /* \"packages/contracts/src/dnssec-oracle/DNSSECImpl.sol\":8867:8871  name */\n      dup7\n      swap2\n        /* \"packages/contracts/src/dnssec-oracle/DNSSECImpl.sol\":8849:8890  InvalidSignerName(name, rrset.signerName) */\n      0x04\n      add\n      tag_177\n      jump\t// in\n        /* \"packages/contracts/src/dnssec-oracle/DNSSECImpl.sol\":8784:8902  if (!name.isSubdomainOf(rrset.signerName)) {... */\n    tag_175:\n        /* \"packages/contracts/src/dnssec-oracle/DNSSECImpl.sol\":8914:8947  RRUtils.RRIterator memory proofRR */\n      0x00\n        /* \"packages/contracts/src/dnssec-oracle/DNSSECImpl.sol\":8950:8969  proof.iterateRRs(0) */\n      tag_178\n        /* \"packages/contracts/src/dnssec-oracle/DNSSECImpl.sol\":8950:8955  proof */\n      dup3\n        /* \"packages/contracts/src/dnssec-oracle/DNSSECImpl.sol\":8914:8947  RRUtils.RRIterator memory proofRR */\n      dup3\n        /* \"packages/contracts/src/dnssec-oracle/DNSSECImpl.sol\":8950:8966  proof.iterateRRs */\n      tag_179\n        /* \"packages/contracts/src/dnssec-oracle/DNSSECImpl.sol\":8950:8969  proof.iterateRRs(0) */\n      jump\t// in\n    tag_178:\n        /* \"packages/contracts/src/dnssec-oracle/DNSSECImpl.sol\":8914:8969  RRUtils.RRIterator memory proofRR = proof.iterateRRs(0) */\n      swap1\n      pop\n        /* \"packages/contracts/src/dnssec-oracle/DNSSECImpl.sol\":1139:1141  43 */\n      0x2b\n        /* \"packages/contracts/src/dnssec-oracle/DNSSECImpl.sol\":9012:9041  proofRR.dnstype == DNSTYPE_DS */\n      0xffff\n      and\n        /* \"packages/contracts/src/dnssec-oracle/DNSSECImpl.sol\":9012:9019  proofRR */\n      dup2\n        /* \"packages/contracts/src/dnssec-oracle/DNSSECImpl.sol\":9012:9027  proofRR.dnstype */\n      0x40\n      add\n      mload\n        /* \"packages/contracts/src/dnssec-oracle/DNSSECImpl.sol\":9012:9041  proofRR.dnstype == DNSTYPE_DS */\n      0xffff\n      and\n      sub\n        /* \"packages/contracts/src/dnssec-oracle/DNSSECImpl.sol\":9008:9289  if (proofRR.dnstype == DNSTYPE_DS) {... */\n      tag_180\n      jumpi\n        /* \"packages/contracts/src/dnssec-oracle/DNSSECImpl.sol\":9058:9092  verifyWithDS(rrset, data, proofRR) */\n      tag_181\n        /* \"packages/contracts/src/dnssec-oracle/DNSSECImpl.sol\":9071:9076  rrset */\n      dup5\n        /* \"packages/contracts/src/dnssec-oracle/DNSSECImpl.sol\":9078:9082  data */\n      dup5\n        /* \"packages/contracts/src/dnssec-oracle/DNSSECImpl.sol\":9084:9091  proofRR */\n      dup4\n        /* \"packages/contracts/src/dnssec-oracle/DNSSECImpl.sol\":9058:9070  verifyWithDS */\n      tag_182\n        /* \"packages/contracts/src/dnssec-oracle/DNSSECImpl.sol\":9058:9092  verifyWithDS(rrset, data, proofRR) */\n      jump\t// in\n    tag_181:\n        /* \"packages/contracts/src/dnssec-oracle/DNSSECImpl.sol\":9008:9289  if (proofRR.dnstype == DNSTYPE_DS) {... */\n      jump(tag_187)\n    tag_180:\n        /* \"packages/contracts/src/dnssec-oracle/DNSSECImpl.sol\":1181:1183  48 */\n      0x30\n        /* \"packages/contracts/src/dnssec-oracle/DNSSECImpl.sol\":9114:9147  proofRR.dnstype == DNSTYPE_DNSKEY */\n      0xffff\n      and\n        /* \"packages/contracts/src/dnssec-oracle/DNSSECImpl.sol\":9114:9121  proofRR */\n      dup2\n        /* \"packages/contracts/src/dnssec-oracle/DNSSECImpl.sol\":9114:9129  proofRR.dnstype */\n      0x40\n      add\n      mload\n        /* \"packages/contracts/src/dnssec-oracle/DNSSECImpl.sol\":9114:9147  proofRR.dnstype == DNSTYPE_DNSKEY */\n      0xffff\n      and\n      sub\n        /* \"packages/contracts/src/dnssec-oracle/DNSSECImpl.sol\":9110:9289  if (proofRR.dnstype == DNSTYPE_DNSKEY) {... */\n      tag_184\n      jumpi\n        /* \"packages/contracts/src/dnssec-oracle/DNSSECImpl.sol\":9164:9204  verifyWithKnownKey(rrset, data, proofRR) */\n      tag_181\n        /* \"packages/contracts/src/dnssec-oracle/DNSSECImpl.sol\":9183:9188  rrset */\n      dup5\n        /* \"packages/contracts/src/dnssec-oracle/DNSSECImpl.sol\":9190:9194  data */\n      dup5\n        /* \"packages/contracts/src/dnssec-oracle/DNSSECImpl.sol\":9196:9203  proofRR */\n      dup4\n        /* \"packages/contracts/src/dnssec-oracle/DNSSECImpl.sol\":9164:9182  verifyWithKnownKey */\n      tag_186\n        /* \"packages/contracts/src/dnssec-oracle/DNSSECImpl.sol\":9164:9204  verifyWithKnownKey(rrset, data, proofRR) */\n      jump\t// in\n        /* \"packages/contracts/src/dnssec-oracle/DNSSECImpl.sol\":9110:9289  if (proofRR.dnstype == DNSTYPE_DNSKEY) {... */\n    tag_184:\n        /* \"packages/contracts/src/dnssec-oracle/DNSSECImpl.sol\":9261:9276  proofRR.dnstype */\n      0x40\n      dup1\n      dup3\n      add\n      mload\n        /* \"packages/contracts/src/dnssec-oracle/DNSSECImpl.sol\":9244:9277  InvalidProofType(proofRR.dnstype) */\n      swap1\n      mload\n      shl(0xe0, 0x61529e87)\n      dup2\n      mstore\n        /* \"#utility.yul\":8973:8979   */\n      0xffff\n        /* \"#utility.yul\":8961:8980   */\n      swap1\n      swap2\n      and\n        /* \"packages/contracts/src/dnssec-oracle/DNSSECImpl.sol\":9244:9277  InvalidProofType(proofRR.dnstype) */\n      0x04\n      dup3\n      add\n        /* \"#utility.yul\":8943:8981   */\n      mstore\n        /* \"#utility.yul\":8916:8934   */\n      0x24\n      add\n        /* \"packages/contracts/src/dnssec-oracle/DNSSECImpl.sol\":9244:9277  InvalidProofType(proofRR.dnstype) */\n      tag_101\n        /* \"#utility.yul\":8799:8987   */\n      jump\n        /* \"packages/contracts/src/dnssec-oracle/DNSSECImpl.sol\":9110:9289  if (proofRR.dnstype == DNSTYPE_DNSKEY) {... */\n    tag_187:\n        /* \"packages/contracts/src/dnssec-oracle/DNSSECImpl.sol\":8654:9296  {... */\n      pop\n        /* \"packages/contracts/src/dnssec-oracle/DNSSECImpl.sol\":8469:9296  function verifySignature(... */\n      pop\n      pop\n      pop\n      pop\n      jump\t// out\n        /* \"packages/contracts/src/dnssec-oracle/BytesUtils.sol\":6707:6963  function readUint16(... */\n    tag_116:\n        /* \"packages/contracts/src/dnssec-oracle/BytesUtils.sol\":6849:6860  self.length */\n      dup2\n      mload\n        /* \"packages/contracts/src/dnssec-oracle/BytesUtils.sol\":6807:6817  uint16 ret */\n      0x00\n      swap1\n        /* \"packages/contracts/src/dnssec-oracle/BytesUtils.sol\":6838:6845  idx + 2 */\n      tag_190\n        /* \"packages/contracts/src/dnssec-oracle/BytesUtils.sol\":6838:6841  idx */\n      dup4\n        /* \"packages/contracts/src/dnssec-oracle/BytesUtils.sol\":6844:6845  2 */\n      0x02\n        /* \"packages/contracts/src/dnssec-oracle/BytesUtils.sol\":6838:6845  idx + 2 */\n      tag_129\n      jump\t// in\n    tag_190:\n        /* \"packages/contracts/src/dnssec-oracle/BytesUtils.sol\":6838:6860  idx + 2 <= self.length */\n      gt\n      iszero\n        /* \"packages/contracts/src/dnssec-oracle/BytesUtils.sol\":6830:6861  require(idx + 2 <= self.length) */\n      tag_191\n      jumpi\n      0x00\n      dup1\n      revert\n    tag_191:\n      pop\n        /* \"packages/contracts/src/dnssec-oracle/BytesUtils.sol\":6913:6935  add(add(self, 2), idx) */\n      add\n        /* \"packages/contracts/src/dnssec-oracle/BytesUtils.sol\":6927:6928  2 */\n      0x02\n        /* \"packages/contracts/src/dnssec-oracle/BytesUtils.sol\":6913:6935  add(add(self, 2), idx) */\n      add\n        /* \"packages/contracts/src/dnssec-oracle/BytesUtils.sol\":6907:6936  mload(add(add(self, 2), idx)) */\n      mload\n        /* \"packages/contracts/src/dnssec-oracle/BytesUtils.sol\":6938:6944  0xFFFF */\n      0xffff\n        /* \"packages/contracts/src/dnssec-oracle/BytesUtils.sol\":6903:6945  and(mload(add(add(self, 2), idx)), 0xFFFF) */\n      and\n      swap1\n        /* \"packages/contracts/src/dnssec-oracle/BytesUtils.sol\":6707:6963  function readUint16(... */\n      jump\t// out\n        /* \"packages/contracts/src/dnssec-oracle/BytesUtils.sol\":6298:6450  function readUint8(... */\n    tag_118:\n        /* \"packages/contracts/src/dnssec-oracle/BytesUtils.sol\":6397:6406  uint8 ret */\n      0x00\n        /* \"packages/contracts/src/dnssec-oracle/BytesUtils.sol\":6432:6436  self */\n      dup3\n        /* \"packages/contracts/src/dnssec-oracle/BytesUtils.sol\":6437:6440  idx */\n      dup3\n        /* \"packages/contracts/src/dnssec-oracle/BytesUtils.sol\":6432:6441  self[idx] */\n      dup2\n      mload\n      dup2\n      lt\n      tag_194\n      jumpi\n      tag_194\n      tag_80\n      jump\t// in\n    tag_194:\n      add\n      0x20\n      add\n      mload\n      0xf8\n      shr\n      swap1\n      pop\n        /* \"packages/contracts/src/dnssec-oracle/BytesUtils.sol\":6298:6450  function readUint8(... */\n      swap3\n      swap2\n      pop\n      pop\n      jump\t// out\n        /* \"packages/contracts/src/dnssec-oracle/BytesUtils.sol\":7220:7480  function readUint32(... */\n    tag_121:\n        /* \"packages/contracts/src/dnssec-oracle/BytesUtils.sol\":7362:7373  self.length */\n      dup2\n      mload\n        /* \"packages/contracts/src/dnssec-oracle/BytesUtils.sol\":7320:7330  uint32 ret */\n      0x00\n      swap1\n        /* \"packages/contracts/src/dnssec-oracle/BytesUtils.sol\":7351:7358  idx + 4 */\n      tag_196\n        /* \"packages/contracts/src/dnssec-oracle/BytesUtils.sol\":7351:7354  idx */\n      dup4\n        /* \"packages/contracts/src/dnssec-oracle/BytesUtils.sol\":7357:7358  4 */\n      0x04\n        /* \"packages/contracts/src/dnssec-oracle/BytesUtils.sol\":7351:7358  idx + 4 */\n      tag_129\n      jump\t// in\n    tag_196:\n        /* \"packages/contracts/src/dnssec-oracle/BytesUtils.sol\":7351:7373  idx + 4 <= self.length */\n      gt\n      iszero\n        /* \"packages/contracts/src/dnssec-oracle/BytesUtils.sol\":7343:7374  require(idx + 4 <= self.length) */\n      tag_197\n      jumpi\n      0x00\n      dup1\n      revert\n    tag_197:\n      pop\n        /* \"packages/contracts/src/dnssec-oracle/BytesUtils.sol\":7426:7448  add(add(self, 4), idx) */\n      add\n        /* \"packages/contracts/src/dnssec-oracle/BytesUtils.sol\":7440:7441  4 */\n      0x04\n        /* \"packages/contracts/src/dnssec-oracle/BytesUtils.sol\":7426:7448  add(add(self, 4), idx) */\n      add\n        /* \"packages/contracts/src/dnssec-oracle/BytesUtils.sol\":7420:7449  mload(add(add(self, 4), idx)) */\n      mload\n        /* \"packages/contracts/src/dnssec-oracle/BytesUtils.sol\":7451:7461  0xFFFFFFFF */\n      0xffffffff\n        /* \"packages/contracts/src/dnssec-oracle/BytesUtils.sol\":7416:7462  and(mload(add(add(self, 4), idx)), 0xFFFFFFFF) */\n      and\n      swap1\n        /* \"packages/contracts/src/dnssec-oracle/BytesUtils.sol\":7220:7480  function readUint32(... */\n      jump\t// out\n        /* \"packages/contracts/src/dnssec-oracle/RRUtils.sol\":1252:1473  function readName(... */\n    tag_126:\n        /* \"packages/contracts/src/dnssec-oracle/RRUtils.sol\":1353:1369  bytes memory ret */\n      0x60\n        /* \"packages/contracts/src/dnssec-oracle/RRUtils.sol\":1382:1393  uint256 len */\n      0x00\n        /* \"packages/contracts/src/dnssec-oracle/RRUtils.sol\":1396:1420  nameLength(self, offset) */\n      tag_199\n        /* \"packages/contracts/src/dnssec-oracle/RRUtils.sol\":1407:1411  self */\n      dup5\n        /* \"packages/contracts/src/dnssec-oracle/RRUtils.sol\":1413:1419  offset */\n      dup5\n        /* \"packages/contracts/src/dnssec-oracle/RRUtils.sol\":1396:1406  nameLength */\n      tag_150\n        /* \"packages/contracts/src/dnssec-oracle/RRUtils.sol\":1396:1420  nameLength(self, offset) */\n      jump\t// in\n    tag_199:\n        /* \"packages/contracts/src/dnssec-oracle/RRUtils.sol\":1382:1420  uint256 len = nameLength(self, offset) */\n      swap1\n      pop\n        /* \"packages/contracts/src/dnssec-oracle/RRUtils.sol\":1438:1465  self.substring(offset, len) */\n      tag_200\n        /* \"packages/contracts/src/dnssec-oracle/RRUtils.sol\":1438:1442  self */\n      dup5\n        /* \"packages/contracts/src/dnssec-oracle/RRUtils.sol\":1453:1459  offset */\n      dup5\n        /* \"packages/contracts/src/dnssec-oracle/RRUtils.sol\":1382:1420  uint256 len = nameLength(self, offset) */\n      dup4\n        /* \"packages/contracts/src/dnssec-oracle/RRUtils.sol\":1438:1452  self.substring */\n      tag_133\n        /* \"packages/contracts/src/dnssec-oracle/RRUtils.sol\":1438:1465  self.substring(offset, len) */\n      jump\t// in\n    tag_200:\n        /* \"packages/contracts/src/dnssec-oracle/RRUtils.sol\":1431:1465  return self.substring(offset, len) */\n      swap5\n        /* \"packages/contracts/src/dnssec-oracle/RRUtils.sol\":1252:1473  function readName(... */\n      swap4\n      pop\n      pop\n      pop\n      pop\n      jump\t// out\n        /* \"packages/contracts/src/dnssec-oracle/BytesUtils.sol\":10076:10530  function substring(... */\n    tag_133:\n        /* \"packages/contracts/src/dnssec-oracle/BytesUtils.sol\":10249:10260  self.length */\n      dup3\n      mload\n        /* \"packages/contracts/src/dnssec-oracle/BytesUtils.sol\":10200:10212  bytes memory */\n      0x60\n      swap1\n        /* \"packages/contracts/src/dnssec-oracle/BytesUtils.sol\":10233:10245  offset + len */\n      tag_202\n        /* \"packages/contracts/src/dnssec-oracle/BytesUtils.sol\":10242:10245  len */\n      dup4\n        /* \"packages/contracts/src/dnssec-oracle/BytesUtils.sol\":10233:10239  offset */\n      dup6\n        /* \"packages/contracts/src/dnssec-oracle/BytesUtils.sol\":10233:10245  offset + len */\n      tag_129\n      jump\t// in\n    tag_202:\n        /* \"packages/contracts/src/dnssec-oracle/BytesUtils.sol\":10233:10260  offset + len <= self.length */\n      gt\n      iszero\n        /* \"packages/contracts/src/dnssec-oracle/BytesUtils.sol\":10225:10261  require(offset + len <= self.length) */\n      tag_203\n      jumpi\n      0x00\n      dup1\n      revert\n    tag_203:\n        /* \"packages/contracts/src/dnssec-oracle/BytesUtils.sol\":10274:10290  bytes memory ret */\n      0x00\n        /* \"packages/contracts/src/dnssec-oracle/BytesUtils.sol\":10303:10306  len */\n      dup3\n        /* \"packages/contracts/src/dnssec-oracle/BytesUtils.sol\":10293:10307  new bytes(len) */\n      0xffffffffffffffff\n      dup2\n      gt\n      iszero\n      tag_205\n      jumpi\n      tag_205\n      tag_206\n      jump\t// in\n    tag_205:\n      mload(0x40)\n      swap1\n      dup1\n      dup3\n      mstore\n      dup1\n      0x1f\n      add\n      not(0x1f)\n      and\n      0x20\n      add\n      dup3\n      add\n      0x40\n      mstore\n      dup1\n      iszero\n      tag_207\n      jumpi\n      0x20\n      dup3\n      add\n      dup2\n      dup1\n      calldatasize\n      dup4\n      calldatacopy\n      add\n      swap1\n      pop\n    tag_207:\n      pop\n        /* \"packages/contracts/src/dnssec-oracle/BytesUtils.sol\":10274:10307  bytes memory ret = new bytes(len) */\n      swap1\n      pop\n        /* \"packages/contracts/src/dnssec-oracle/BytesUtils.sol\":10406:10408  32 */\n      0x20\n        /* \"packages/contracts/src/dnssec-oracle/BytesUtils.sol\":10397:10409  add(ret, 32) */\n      dup1\n      dup3\n      add\n      swap1\n        /* \"packages/contracts/src/dnssec-oracle/BytesUtils.sol\":10430:10456  add(add(self, 32), offset) */\n      dup7\n      dup7\n      add\n      add\n        /* \"packages/contracts/src/dnssec-oracle/BytesUtils.sol\":10477:10499  memcpy(dest, src, len) */\n      tag_208\n        /* \"packages/contracts/src/dnssec-oracle/BytesUtils.sol\":10397:10409  add(ret, 32) */\n      dup3\n        /* \"packages/contracts/src/dnssec-oracle/BytesUtils.sol\":10430:10456  add(add(self, 32), offset) */\n      dup3\n        /* \"packages/contracts/src/dnssec-oracle/BytesUtils.sol\":10495:10498  len */\n      dup8\n        /* \"packages/contracts/src/dnssec-oracle/BytesUtils.sol\":10477:10483  memcpy */\n      tag_209\n        /* \"packages/contracts/src/dnssec-oracle/BytesUtils.sol\":10477:10499  memcpy(dest, src, len) */\n      jump\t// in\n    tag_208:\n      pop\n        /* \"packages/contracts/src/dnssec-oracle/BytesUtils.sol\":10519:10522  ret */\n      swap1\n      swap6\n        /* \"packages/contracts/src/dnssec-oracle/BytesUtils.sol\":10076:10530  function substring(... */\n      swap5\n      pop\n      pop\n      pop\n      pop\n      pop\n      jump\t// out\n        /* \"packages/contracts/src/dnssec-oracle/RRUtils.sol\":3582:3728  function rrs(... */\n    tag_139:\n        /* \"packages/contracts/src/dnssec-oracle/RRUtils.sol\":3658:3675  RRIterator memory */\n      tag_210\n      tag_211\n      jump\t// in\n    tag_210:\n        /* \"packages/contracts/src/dnssec-oracle/RRUtils.sol\":3695:3720  iterateRRs(rrset.data, 0) */\n      tag_160\n        /* \"packages/contracts/src/dnssec-oracle/RRUtils.sol\":3706:3711  rrset */\n      dup3\n        /* \"packages/contracts/src/dnssec-oracle/RRUtils.sol\":3706:3716  rrset.data */\n      0x0100\n      add\n      mload\n        /* \"packages/contracts/src/dnssec-oracle/RRUtils.sol\":3718:3719  0 */\n      0x00\n        /* \"packages/contracts/src/dnssec-oracle/RRUtils.sol\":3695:3705  iterateRRs */\n      tag_179\n        /* \"packages/contracts/src/dnssec-oracle/RRUtils.sol\":3695:3720  iterateRRs(rrset.data, 0) */\n      jump\t// in\n        /* \"packages/contracts/src/dnssec-oracle/RRUtils.sol\":5774:6005  function name(RRIterator memory iter) internal pure returns (bytes memory) {... */\n    tag_147:\n        /* \"packages/contracts/src/dnssec-oracle/RRUtils.sol\":5918:5929  iter.offset */\n      0x20\n      dup2\n      add\n      mload\n        /* \"packages/contracts/src/dnssec-oracle/RRUtils.sol\":5959:5968  iter.data */\n      dup2\n      mload\n        /* \"packages/contracts/src/dnssec-oracle/RRUtils.sol\":5835:5847  bytes memory */\n      0x60\n      swap2\n        /* \"packages/contracts/src/dnssec-oracle/RRUtils.sol\":5880:5997  iter.data.substring(... */\n      tag_160\n      swap2\n        /* \"packages/contracts/src/dnssec-oracle/RRUtils.sol\":5948:5982  nameLength(iter.data, iter.offset) */\n      tag_217\n      swap1\n        /* \"packages/contracts/src/dnssec-oracle/RRUtils.sol\":5918:5929  iter.offset */\n      dup3\n        /* \"packages/contracts/src/dnssec-oracle/RRUtils.sol\":5948:5958  nameLength */\n      tag_150\n        /* \"packages/contracts/src/dnssec-oracle/RRUtils.sol\":5948:5982  nameLength(iter.data, iter.offset) */\n      jump\t// in\n    tag_217:\n        /* \"packages/contracts/src/dnssec-oracle/RRUtils.sol\":5880:5889  iter.data */\n      dup5\n      mload\n      swap2\n        /* \"packages/contracts/src/dnssec-oracle/RRUtils.sol\":5880:5997  iter.data.substring(... */\n      swap1\n        /* \"packages/contracts/src/dnssec-oracle/RRUtils.sol\":5880:5899  iter.data.substring */\n      tag_133\n        /* \"packages/contracts/src/dnssec-oracle/RRUtils.sol\":5880:5997  iter.data.substring(... */\n      jump\t// in\n        /* \"packages/contracts/src/dnssec-oracle/RRUtils.sol\":598:1014  function nameLength(... */\n    tag_150:\n        /* \"packages/contracts/src/dnssec-oracle/RRUtils.sol\":701:708  uint256 */\n      0x00\n        /* \"packages/contracts/src/dnssec-oracle/RRUtils.sol\":735:741  offset */\n      dup2\n        /* \"packages/contracts/src/dnssec-oracle/RRUtils.sol\":752:977  while (true) {... */\n    tag_219:\n        /* \"packages/contracts/src/dnssec-oracle/RRUtils.sol\":793:797  self */\n      dup4\n        /* \"packages/contracts/src/dnssec-oracle/RRUtils.sol\":793:804  self.length */\n      mload\n        /* \"packages/contracts/src/dnssec-oracle/RRUtils.sol\":787:790  idx */\n      dup2\n        /* \"packages/contracts/src/dnssec-oracle/RRUtils.sol\":787:804  idx < self.length */\n      lt\n        /* \"packages/contracts/src/dnssec-oracle/RRUtils.sol\":780:805  assert(idx < self.length) */\n      tag_222\n      jumpi\n      tag_222\n      tag_165\n      jump\t// in\n    tag_222:\n        /* \"packages/contracts/src/dnssec-oracle/RRUtils.sol\":820:836  uint256 labelLen */\n      0x00\n        /* \"packages/contracts/src/dnssec-oracle/RRUtils.sol\":839:858  self.readUint8(idx) */\n      tag_223\n        /* \"packages/contracts/src/dnssec-oracle/RRUtils.sol\":839:843  self */\n      dup6\n        /* \"packages/contracts/src/dnssec-oracle/RRUtils.sol\":854:857  idx */\n      dup4\n        /* \"packages/contracts/src/dnssec-oracle/RRUtils.sol\":839:853  self.readUint8 */\n      tag_118\n        /* \"packages/contracts/src/dnssec-oracle/RRUtils.sol\":839:858  self.readUint8(idx) */\n      jump\t// in\n    tag_223:\n        /* \"packages/contracts/src/dnssec-oracle/RRUtils.sol\":820:858  uint256 labelLen = self.readUint8(idx) */\n      0xff\n      and\n      swap1\n      pop\n        /* \"packages/contracts/src/dnssec-oracle/RRUtils.sol\":880:892  labelLen + 1 */\n      tag_224\n        /* \"packages/contracts/src/dnssec-oracle/RRUtils.sol\":820:858  uint256 labelLen = self.readUint8(idx) */\n      dup2\n        /* \"packages/contracts/src/dnssec-oracle/RRUtils.sol\":891:892  1 */\n      0x01\n        /* \"packages/contracts/src/dnssec-oracle/RRUtils.sol\":880:892  labelLen + 1 */\n      tag_129\n      jump\t// in\n    tag_224:\n        /* \"packages/contracts/src/dnssec-oracle/RRUtils.sol\":873:892  idx += labelLen + 1 */\n      tag_225\n      swap1\n      dup4\n      tag_129\n      jump\t// in\n    tag_225:\n      swap2\n      pop\n        /* \"packages/contracts/src/dnssec-oracle/RRUtils.sol\":911:919  labelLen */\n      dup1\n        /* \"packages/contracts/src/dnssec-oracle/RRUtils.sol\":923:924  0 */\n      0x00\n        /* \"packages/contracts/src/dnssec-oracle/RRUtils.sol\":911:924  labelLen == 0 */\n      sub\n        /* \"packages/contracts/src/dnssec-oracle/RRUtils.sol\":907:966  if (labelLen == 0) {... */\n      tag_226\n      jumpi\n        /* \"packages/contracts/src/dnssec-oracle/RRUtils.sol\":945:950  break */\n      pop\n      jump(tag_220)\n        /* \"packages/contracts/src/dnssec-oracle/RRUtils.sol\":907:966  if (labelLen == 0) {... */\n    tag_226:\n        /* \"packages/contracts/src/dnssec-oracle/RRUtils.sol\":765:977  {... */\n      pop\n        /* \"packages/contracts/src/dnssec-oracle/RRUtils.sol\":752:977  while (true) {... */\n      jump(tag_219)\n    tag_220:\n        /* \"packages/contracts/src/dnssec-oracle/RRUtils.sol\":994:1006  idx - offset */\n      tag_200\n        /* \"packages/contracts/src/dnssec-oracle/RRUtils.sol\":1000:1006  offset */\n      dup4\n        /* \"packages/contracts/src/dnssec-oracle/RRUtils.sol\":994:997  idx */\n      dup3\n        /* \"packages/contracts/src/dnssec-oracle/RRUtils.sol\":994:1006  idx - offset */\n      tag_131\n      jump\t// in\n        /* \"packages/contracts/src/dnssec-oracle/BytesUtils.sol\":3925:4197  function equals(... */\n    tag_153:\n        /* \"packages/contracts/src/dnssec-oracle/BytesUtils.sol\":4105:4109  bool */\n      0x00\n        /* \"packages/contracts/src/dnssec-oracle/BytesUtils.sol\":4158:4189  keccak(other, otherOffset, len) */\n      tag_229\n        /* \"packages/contracts/src/dnssec-oracle/BytesUtils.sol\":4165:4170  other */\n      dup5\n        /* \"packages/contracts/src/dnssec-oracle/BytesUtils.sol\":4172:4183  otherOffset */\n      dup5\n        /* \"packages/contracts/src/dnssec-oracle/BytesUtils.sol\":4185:4188  len */\n      dup5\n        /* \"packages/contracts/src/dnssec-oracle/BytesUtils.sol\":4158:4164  keccak */\n      tag_230\n        /* \"packages/contracts/src/dnssec-oracle/BytesUtils.sol\":4158:4189  keccak(other, otherOffset, len) */\n      jump\t// in\n    tag_229:\n        /* \"packages/contracts/src/dnssec-oracle/BytesUtils.sol\":4129:4154  keccak(self, offset, len) */\n      tag_231\n        /* \"packages/contracts/src/dnssec-oracle/BytesUtils.sol\":4136:4140  self */\n      dup8\n        /* \"packages/contracts/src/dnssec-oracle/BytesUtils.sol\":4142:4148  offset */\n      dup8\n        /* \"packages/contracts/src/dnssec-oracle/BytesUtils.sol\":4150:4153  len */\n      dup6\n        /* \"packages/contracts/src/dnssec-oracle/BytesUtils.sol\":4129:4135  keccak */\n      tag_230\n        /* \"packages/contracts/src/dnssec-oracle/BytesUtils.sol\":4129:4154  keccak(self, offset, len) */\n      jump\t// in\n    tag_231:\n        /* \"packages/contracts/src/dnssec-oracle/BytesUtils.sol\":4129:4189  keccak(self, offset, len) == keccak(other, otherOffset, len) */\n      eq\n      swap7\n        /* \"packages/contracts/src/dnssec-oracle/BytesUtils.sol\":3925:4197  function equals(... */\n      swap6\n      pop\n      pop\n      pop\n      pop\n      pop\n      pop\n      jump\t// out\n        /* \"packages/contracts/src/dnssec-oracle/RRUtils.sol\":4877:5587  function next(RRIterator memory iter) internal pure {... */\n    tag_159:\n        /* \"packages/contracts/src/dnssec-oracle/RRUtils.sol\":4954:4969  iter.nextOffset */\n      0xc0\n      dup2\n      add\n      mload\n        /* \"packages/contracts/src/dnssec-oracle/RRUtils.sol\":4940:4951  iter.offset */\n      0x20\n      dup3\n      add\n        /* \"packages/contracts/src/dnssec-oracle/RRUtils.sol\":4940:4969  iter.offset = iter.nextOffset */\n      dup2\n      swap1\n      mstore\n        /* \"packages/contracts/src/dnssec-oracle/RRUtils.sol\":4999:5008  iter.data */\n      dup2\n      mload\n        /* \"packages/contracts/src/dnssec-oracle/RRUtils.sol\":4999:5015  iter.data.length */\n      mload\n      gt\n        /* \"packages/contracts/src/dnssec-oracle/RRUtils.sol\":4980:5050  if (iter.offset >= iter.data.length) {... */\n      tag_233\n      jumpi\n        /* \"packages/contracts/src/dnssec-oracle/RRUtils.sol\":4877:5587  function next(RRIterator memory iter) internal pure {... */\n      pop\n      jump\t// out\n        /* \"packages/contracts/src/dnssec-oracle/RRUtils.sol\":4980:5050  if (iter.offset >= iter.data.length) {... */\n    tag_233:\n        /* \"packages/contracts/src/dnssec-oracle/RRUtils.sol\":5088:5099  uint256 off */\n      0x00\n        /* \"packages/contracts/src/dnssec-oracle/RRUtils.sol\":5116:5150  nameLength(iter.data, iter.offset) */\n      tag_234\n        /* \"packages/contracts/src/dnssec-oracle/RRUtils.sol\":5127:5131  iter */\n      dup3\n        /* \"packages/contracts/src/dnssec-oracle/RRUtils.sol\":5127:5136  iter.data */\n      0x00\n      add\n      mload\n        /* \"packages/contracts/src/dnssec-oracle/RRUtils.sol\":5138:5142  iter */\n      dup4\n        /* \"packages/contracts/src/dnssec-oracle/RRUtils.sol\":5138:5149  iter.offset */\n      0x20\n      add\n      mload\n        /* \"packages/contracts/src/dnssec-oracle/RRUtils.sol\":5116:5126  nameLength */\n      tag_150\n        /* \"packages/contracts/src/dnssec-oracle/RRUtils.sol\":5116:5150  nameLength(iter.data, iter.offset) */\n      jump\t// in\n    tag_234:\n        /* \"packages/contracts/src/dnssec-oracle/RRUtils.sol\":5102:5106  iter */\n      dup3\n        /* \"packages/contracts/src/dnssec-oracle/RRUtils.sol\":5102:5113  iter.offset */\n      0x20\n      add\n      mload\n        /* \"packages/contracts/src/dnssec-oracle/RRUtils.sol\":5102:5150  iter.offset + nameLength(iter.data, iter.offset) */\n      tag_235\n      swap2\n      swap1\n      tag_129\n      jump\t// in\n    tag_235:\n        /* \"packages/contracts/src/dnssec-oracle/RRUtils.sol\":5216:5225  iter.data */\n      dup3\n      mload\n        /* \"packages/contracts/src/dnssec-oracle/RRUtils.sol\":5088:5150  uint256 off = iter.offset + nameLength(iter.data, iter.offset) */\n      swap1\n      swap2\n      pop\n        /* \"packages/contracts/src/dnssec-oracle/RRUtils.sol\":5216:5241  iter.data.readUint16(off) */\n      tag_236\n      swap1\n        /* \"packages/contracts/src/dnssec-oracle/RRUtils.sol\":5088:5150  uint256 off = iter.offset + nameLength(iter.data, iter.offset) */\n      dup3\n        /* \"packages/contracts/src/dnssec-oracle/RRUtils.sol\":5216:5236  iter.data.readUint16 */\n      tag_116\n        /* \"packages/contracts/src/dnssec-oracle/RRUtils.sol\":5216:5241  iter.data.readUint16(off) */\n      jump\t// in\n    tag_236:\n        /* \"packages/contracts/src/dnssec-oracle/RRUtils.sol\":5201:5241  iter.dnstype = iter.data.readUint16(off) */\n      0xffff\n      and\n        /* \"packages/contracts/src/dnssec-oracle/RRUtils.sol\":5201:5213  iter.dnstype */\n      0x40\n      dup4\n      add\n        /* \"packages/contracts/src/dnssec-oracle/RRUtils.sol\":5201:5241  iter.dnstype = iter.data.readUint16(off) */\n      mstore\n        /* \"packages/contracts/src/dnssec-oracle/RRUtils.sol\":5252:5260  off += 2 */\n      tag_237\n        /* \"packages/contracts/src/dnssec-oracle/RRUtils.sol\":5259:5260  2 */\n      0x02\n        /* \"packages/contracts/src/dnssec-oracle/RRUtils.sol\":5252:5260  off += 2 */\n      dup3\n      tag_129\n      jump\t// in\n    tag_237:\n        /* \"packages/contracts/src/dnssec-oracle/RRUtils.sol\":5284:5293  iter.data */\n      dup3\n      mload\n        /* \"packages/contracts/src/dnssec-oracle/RRUtils.sol\":5252:5260  off += 2 */\n      swap1\n      swap2\n      pop\n        /* \"packages/contracts/src/dnssec-oracle/RRUtils.sol\":5284:5309  iter.data.readUint16(off) */\n      tag_238\n      swap1\n        /* \"packages/contracts/src/dnssec-oracle/RRUtils.sol\":5252:5260  off += 2 */\n      dup3\n        /* \"packages/contracts/src/dnssec-oracle/RRUtils.sol\":5284:5304  iter.data.readUint16 */\n      tag_116\n        /* \"packages/contracts/src/dnssec-oracle/RRUtils.sol\":5284:5309  iter.data.readUint16(off) */\n      jump\t// in\n    tag_238:\n        /* \"packages/contracts/src/dnssec-oracle/RRUtils.sol\":5271:5309  iter.class = iter.data.readUint16(off) */\n      0xffff\n      and\n        /* \"packages/contracts/src/dnssec-oracle/RRUtils.sol\":5271:5281  iter.class */\n      0x60\n      dup4\n      add\n        /* \"packages/contracts/src/dnssec-oracle/RRUtils.sol\":5271:5309  iter.class = iter.data.readUint16(off) */\n      mstore\n        /* \"packages/contracts/src/dnssec-oracle/RRUtils.sol\":5320:5328  off += 2 */\n      tag_239\n        /* \"packages/contracts/src/dnssec-oracle/RRUtils.sol\":5327:5328  2 */\n      0x02\n        /* \"packages/contracts/src/dnssec-oracle/RRUtils.sol\":5320:5328  off += 2 */\n      dup3\n      tag_129\n      jump\t// in\n    tag_239:\n        /* \"packages/contracts/src/dnssec-oracle/RRUtils.sol\":5350:5359  iter.data */\n      dup3\n      mload\n        /* \"packages/contracts/src/dnssec-oracle/RRUtils.sol\":5320:5328  off += 2 */\n      swap1\n      swap2\n      pop\n        /* \"packages/contracts/src/dnssec-oracle/RRUtils.sol\":5350:5375  iter.data.readUint32(off) */\n      tag_240\n      swap1\n        /* \"packages/contracts/src/dnssec-oracle/RRUtils.sol\":5320:5328  off += 2 */\n      dup3\n        /* \"packages/contracts/src/dnssec-oracle/RRUtils.sol\":5350:5370  iter.data.readUint32 */\n      tag_121\n        /* \"packages/contracts/src/dnssec-oracle/RRUtils.sol\":5350:5375  iter.data.readUint32(off) */\n      jump\t// in\n    tag_240:\n        /* \"packages/contracts/src/dnssec-oracle/RRUtils.sol\":5339:5375  iter.ttl = iter.data.readUint32(off) */\n      0xffffffff\n      and\n        /* \"packages/contracts/src/dnssec-oracle/RRUtils.sol\":5339:5347  iter.ttl */\n      0x80\n      dup4\n      add\n        /* \"packages/contracts/src/dnssec-oracle/RRUtils.sol\":5339:5375  iter.ttl = iter.data.readUint32(off) */\n      mstore\n        /* \"packages/contracts/src/dnssec-oracle/RRUtils.sol\":5386:5394  off += 4 */\n      tag_241\n        /* \"packages/contracts/src/dnssec-oracle/RRUtils.sol\":5393:5394  4 */\n      0x04\n        /* \"packages/contracts/src/dnssec-oracle/RRUtils.sol\":5386:5394  off += 4 */\n      dup3\n      tag_129\n      jump\t// in\n    tag_241:\n        /* \"packages/contracts/src/dnssec-oracle/RRUtils.sol\":5456:5465  iter.data */\n      dup3\n      mload\n        /* \"packages/contracts/src/dnssec-oracle/RRUtils.sol\":5386:5394  off += 4 */\n      swap1\n      swap2\n      pop\n        /* \"packages/contracts/src/dnssec-oracle/RRUtils.sol\":5434:5453  uint256 rdataLength */\n      0x00\n      swap1\n        /* \"packages/contracts/src/dnssec-oracle/RRUtils.sol\":5456:5481  iter.data.readUint16(off) */\n      tag_242\n      swap1\n        /* \"packages/contracts/src/dnssec-oracle/RRUtils.sol\":5386:5394  off += 4 */\n      dup4\n        /* \"packages/contracts/src/dnssec-oracle/RRUtils.sol\":5456:5476  iter.data.readUint16 */\n      tag_116\n        /* \"packages/contracts/src/dnssec-oracle/RRUtils.sol\":5456:5481  iter.data.readUint16(off) */\n      jump\t// in\n    tag_242:\n        /* \"packages/contracts/src/dnssec-oracle/RRUtils.sol\":5434:5481  uint256 rdataLength = iter.data.readUint16(off) */\n      0xffff\n      and\n      swap1\n      pop\n        /* \"packages/contracts/src/dnssec-oracle/RRUtils.sol\":5492:5500  off += 2 */\n      tag_243\n        /* \"packages/contracts/src/dnssec-oracle/RRUtils.sol\":5499:5500  2 */\n      0x02\n        /* \"packages/contracts/src/dnssec-oracle/RRUtils.sol\":5492:5500  off += 2 */\n      dup4\n      tag_129\n      jump\t// in\n    tag_243:\n        /* \"packages/contracts/src/dnssec-oracle/RRUtils.sol\":5511:5527  iter.rdataOffset */\n      0xa0\n      dup5\n      add\n        /* \"packages/contracts/src/dnssec-oracle/RRUtils.sol\":5511:5533  iter.rdataOffset = off */\n      dup2\n      swap1\n      mstore\n        /* \"packages/contracts/src/dnssec-oracle/RRUtils.sol\":5492:5500  off += 2 */\n      swap2\n      pop\n        /* \"packages/contracts/src/dnssec-oracle/RRUtils.sol\":5562:5579  off + rdataLength */\n      tag_244\n        /* \"packages/contracts/src/dnssec-oracle/RRUtils.sol\":5568:5579  rdataLength */\n      dup2\n        /* \"packages/contracts/src/dnssec-oracle/RRUtils.sol\":5492:5500  off += 2 */\n      dup4\n        /* \"packages/contracts/src/dnssec-oracle/RRUtils.sol\":5562:5579  off + rdataLength */\n      tag_129\n      jump\t// in\n    tag_244:\n        /* \"packages/contracts/src/dnssec-oracle/RRUtils.sol\":5544:5559  iter.nextOffset */\n      0xc0\n      swap1\n      swap4\n      add\n        /* \"packages/contracts/src/dnssec-oracle/RRUtils.sol\":5544:5579  iter.nextOffset = off + rdataLength */\n      swap3\n      swap1\n      swap3\n      mstore\n      pop\n      pop\n        /* \"packages/contracts/src/dnssec-oracle/RRUtils.sol\":4877:5587  function next(RRIterator memory iter) internal pure {... */\n      jump\t// out\n        /* \"packages/contracts/src/dnssec-oracle/RRUtils.sol\":7953:8365  function isSubdomainOf(... */\n    tag_174:\n        /* \"packages/contracts/src/dnssec-oracle/RRUtils.sol\":8063:8067  bool */\n      0x00\n      dup1\n      dup1\n        /* \"packages/contracts/src/dnssec-oracle/RRUtils.sol\":8123:8142  labelCount(self, 0) */\n      tag_246\n        /* \"packages/contracts/src/dnssec-oracle/RRUtils.sol\":8134:8138  self */\n      dup6\n        /* \"packages/contracts/src/dnssec-oracle/RRUtils.sol\":8063:8067  bool */\n      dup3\n        /* \"packages/contracts/src/dnssec-oracle/RRUtils.sol\":8123:8133  labelCount */\n      tag_99\n        /* \"packages/contracts/src/dnssec-oracle/RRUtils.sol\":8123:8142  labelCount(self, 0) */\n      jump\t// in\n    tag_246:\n        /* \"packages/contracts/src/dnssec-oracle/RRUtils.sol\":8106:8142  uint256 counts = labelCount(self, 0) */\n      swap1\n      pop\n        /* \"packages/contracts/src/dnssec-oracle/RRUtils.sol\":8153:8172  uint256 othercounts */\n      0x00\n        /* \"packages/contracts/src/dnssec-oracle/RRUtils.sol\":8175:8195  labelCount(other, 0) */\n      tag_247\n        /* \"packages/contracts/src/dnssec-oracle/RRUtils.sol\":8186:8191  other */\n      dup6\n        /* \"packages/contracts/src/dnssec-oracle/RRUtils.sol\":8193:8194  0 */\n      0x00\n        /* \"packages/contracts/src/dnssec-oracle/RRUtils.sol\":8175:8185  labelCount */\n      tag_99\n        /* \"packages/contracts/src/dnssec-oracle/RRUtils.sol\":8175:8195  labelCount(other, 0) */\n      jump\t// in\n    tag_247:\n        /* \"packages/contracts/src/dnssec-oracle/RRUtils.sol\":8153:8195  uint256 othercounts = labelCount(other, 0) */\n      swap1\n      pop\n        /* \"packages/contracts/src/dnssec-oracle/RRUtils.sol\":8208:8312  while (counts > othercounts) {... */\n    tag_248:\n        /* \"packages/contracts/src/dnssec-oracle/RRUtils.sol\":8224:8235  othercounts */\n      dup1\n        /* \"packages/contracts/src/dnssec-oracle/RRUtils.sol\":8215:8221  counts */\n      dup3\n        /* \"packages/contracts/src/dnssec-oracle/RRUtils.sol\":8215:8235  counts > othercounts */\n      gt\n        /* \"packages/contracts/src/dnssec-oracle/RRUtils.sol\":8208:8312  while (counts > othercounts) {... */\n      iszero\n      tag_249\n      jumpi\n        /* \"packages/contracts/src/dnssec-oracle/RRUtils.sol\":8258:8277  progress(self, off) */\n      tag_250\n        /* \"packages/contracts/src/dnssec-oracle/RRUtils.sol\":8267:8271  self */\n      dup7\n        /* \"packages/contracts/src/dnssec-oracle/RRUtils.sol\":8273:8276  off */\n      dup5\n        /* \"packages/contracts/src/dnssec-oracle/RRUtils.sol\":8258:8266  progress */\n      tag_251\n        /* \"packages/contracts/src/dnssec-oracle/RRUtils.sol\":8258:8277  progress(self, off) */\n      jump\t// in\n    tag_250:\n        /* \"packages/contracts/src/dnssec-oracle/RRUtils.sol\":8252:8277  off = progress(self, off) */\n      swap3\n      pop\n        /* \"packages/contracts/src/dnssec-oracle/RRUtils.sol\":8292:8300  counts-- */\n      dup2\n      tag_252\n      dup2\n      tag_253\n      jump\t// in\n    tag_252:\n      swap3\n      pop\n      pop\n        /* \"packages/contracts/src/dnssec-oracle/RRUtils.sol\":8208:8312  while (counts > othercounts) {... */\n      jump(tag_248)\n    tag_249:\n        /* \"packages/contracts/src/dnssec-oracle/RRUtils.sol\":8331:8357  self.equals(off, other, 0) */\n      tag_254\n        /* \"packages/contracts/src/dnssec-oracle/RRUtils.sol\":8331:8335  self */\n      dup7\n        /* \"packages/contracts/src/dnssec-oracle/RRUtils.sol\":8343:8346  off */\n      dup5\n        /* \"packages/contracts/src/dnssec-oracle/RRUtils.sol\":8348:8353  other */\n      dup8\n        /* \"packages/contracts/src/dnssec-oracle/RRUtils.sol\":8355:8356  0 */\n      0x00\n        /* \"packages/contracts/src/dnssec-oracle/RRUtils.sol\":8331:8342  self.equals */\n      tag_255\n        /* \"packages/contracts/src/dnssec-oracle/RRUtils.sol\":8331:8357  self.equals(off, other, 0) */\n      jump\t// in\n    tag_254:\n        /* \"packages/contracts/src/dnssec-oracle/RRUtils.sol\":8324:8357  return self.equals(off, other, 0) */\n      swap7\n        /* \"packages/contracts/src/dnssec-oracle/RRUtils.sol\":7953:8365  function isSubdomainOf(... */\n      swap6\n      pop\n      pop\n      pop\n      pop\n      pop\n      pop\n      jump\t// out\n        /* \"packages/contracts/src/dnssec-oracle/RRUtils.sol\":4225:4439  function iterateRRs(... */\n    tag_179:\n        /* \"packages/contracts/src/dnssec-oracle/RRUtils.sol\":4328:4349  RRIterator memory ret */\n      tag_256\n      tag_211\n      jump\t// in\n    tag_256:\n        /* \"packages/contracts/src/dnssec-oracle/RRUtils.sol\":4362:4377  ret.data = self */\n      dup3\n      dup2\n      mstore\n        /* \"packages/contracts/src/dnssec-oracle/RRUtils.sol\":4388:4402  ret.nextOffset */\n      0xc0\n      dup2\n      add\n        /* \"packages/contracts/src/dnssec-oracle/RRUtils.sol\":4388:4411  ret.nextOffset = offset */\n      dup3\n      swap1\n      mstore\n        /* \"packages/contracts/src/dnssec-oracle/RRUtils.sol\":4422:4431  next(ret) */\n      tag_160\n        /* \"packages/contracts/src/dnssec-oracle/RRUtils.sol\":4362:4365  ret */\n      dup2\n        /* \"packages/contracts/src/dnssec-oracle/RRUtils.sol\":4422:4426  next */\n      tag_159\n        /* \"packages/contracts/src/dnssec-oracle/RRUtils.sol\":4422:4431  next(ret) */\n      jump\t// in\n        /* \"packages/contracts/src/dnssec-oracle/DNSSECImpl.sol\":12525:13753  function verifyWithDS(... */\n    tag_182:\n        /* \"packages/contracts/src/dnssec-oracle/DNSSECImpl.sol\":12725:12737  proof.offset */\n      0x20\n      dup2\n      add\n      mload\n        /* \"packages/contracts/src/dnssec-oracle/DNSSECImpl.sol\":12703:12722  uint256 proofOffset */\n      0x00\n        /* \"packages/contracts/src/dnssec-oracle/DNSSECImpl.sol\":12800:12811  rrset.rrs() */\n      tag_263\n        /* \"packages/contracts/src/dnssec-oracle/DNSSECImpl.sol\":12800:12805  rrset */\n      dup6\n        /* \"packages/contracts/src/dnssec-oracle/DNSSECImpl.sol\":12800:12809  rrset.rrs */\n      tag_139\n        /* \"packages/contracts/src/dnssec-oracle/DNSSECImpl.sol\":12800:12811  rrset.rrs() */\n      jump\t// in\n    tag_263:\n        /* \"packages/contracts/src/dnssec-oracle/DNSSECImpl.sol\":12767:12811  RRUtils.RRIterator memory iter = rrset.rrs() */\n      swap1\n      pop\n        /* \"packages/contracts/src/dnssec-oracle/DNSSECImpl.sol\":12748:13695  for (... */\n    tag_260:\n        /* \"packages/contracts/src/dnssec-oracle/RRUtils.sol\":4721:4730  iter.data */\n      dup1\n      mload\n        /* \"packages/contracts/src/dnssec-oracle/RRUtils.sol\":4721:4737  iter.data.length */\n      mload\n        /* \"packages/contracts/src/dnssec-oracle/RRUtils.sol\":4706:4717  iter.offset */\n      0x20\n      dup3\n      add\n      mload\n        /* \"packages/contracts/src/dnssec-oracle/RRUtils.sol\":4706:4737  iter.offset >= iter.data.length */\n      lt\n      iszero\n        /* \"packages/contracts/src/dnssec-oracle/DNSSECImpl.sol\":12748:13695  for (... */\n      tag_261\n      jumpi\n        /* \"packages/contracts/src/dnssec-oracle/DNSSECImpl.sol\":12895:12907  iter.dnstype */\n      0x40\n      dup2\n      add\n      mload\n        /* \"packages/contracts/src/dnssec-oracle/DNSSECImpl.sol\":12895:12925  iter.dnstype != DNSTYPE_DNSKEY */\n      0xffff\n      and\n        /* \"packages/contracts/src/dnssec-oracle/DNSSECImpl.sol\":1181:1183  48 */\n      0x30\n        /* \"packages/contracts/src/dnssec-oracle/DNSSECImpl.sol\":12895:12925  iter.dnstype != DNSTYPE_DNSKEY */\n      eq\n        /* \"packages/contracts/src/dnssec-oracle/DNSSECImpl.sol\":12891:12999  if (iter.dnstype != DNSTYPE_DNSKEY) {... */\n      tag_265\n      jumpi\n        /* \"packages/contracts/src/dnssec-oracle/DNSSECImpl.sol\":12970:12982  iter.dnstype */\n      0x40\n      dup1\n      dup3\n      add\n      mload\n        /* \"packages/contracts/src/dnssec-oracle/DNSSECImpl.sol\":12953:12983  InvalidProofType(iter.dnstype) */\n      swap1\n      mload\n      shl(0xe0, 0x61529e87)\n      dup2\n      mstore\n        /* \"#utility.yul\":8973:8979   */\n      0xffff\n        /* \"#utility.yul\":8961:8980   */\n      swap1\n      swap2\n      and\n        /* \"packages/contracts/src/dnssec-oracle/DNSSECImpl.sol\":12953:12983  InvalidProofType(iter.dnstype) */\n      0x04\n      dup3\n      add\n        /* \"#utility.yul\":8943:8981   */\n      mstore\n        /* \"#utility.yul\":8916:8934   */\n      0x24\n      add\n        /* \"packages/contracts/src/dnssec-oracle/DNSSECImpl.sol\":12953:12983  InvalidProofType(iter.dnstype) */\n      tag_101\n        /* \"#utility.yul\":8799:8987   */\n      jump\n        /* \"packages/contracts/src/dnssec-oracle/DNSSECImpl.sol\":12891:12999  if (iter.dnstype != DNSTYPE_DNSKEY) {... */\n    tag_265:\n        /* \"packages/contracts/src/dnssec-oracle/DNSSECImpl.sol\":13015:13036  bytes memory keyrdata */\n      0x00\n        /* \"packages/contracts/src/dnssec-oracle/DNSSECImpl.sol\":13039:13051  iter.rdata() */\n      tag_267\n        /* \"packages/contracts/src/dnssec-oracle/DNSSECImpl.sol\":13039:13043  iter */\n      dup3\n        /* \"packages/contracts/src/dnssec-oracle/DNSSECImpl.sol\":13039:13049  iter.rdata */\n      tag_268\n        /* \"packages/contracts/src/dnssec-oracle/DNSSECImpl.sol\":13039:13051  iter.rdata() */\n      jump\t// in\n    tag_267:\n        /* \"packages/contracts/src/dnssec-oracle/DNSSECImpl.sol\":13015:13051  bytes memory keyrdata = iter.rdata() */\n      swap1\n      pop\n        /* \"packages/contracts/src/dnssec-oracle/DNSSECImpl.sol\":13066:13094  RRUtils.DNSKEY memory dnskey */\n      0x00\n        /* \"packages/contracts/src/dnssec-oracle/DNSSECImpl.sol\":13097:13185  keyrdata.readDNSKEY(... */\n      tag_269\n        /* \"packages/contracts/src/dnssec-oracle/DNSSECImpl.sol\":13135:13136  0 */\n      0x00\n        /* \"packages/contracts/src/dnssec-oracle/DNSSECImpl.sol\":13155:13163  keyrdata */\n      dup4\n        /* \"packages/contracts/src/dnssec-oracle/DNSSECImpl.sol\":13155:13170  keyrdata.length */\n      mload\n        /* \"packages/contracts/src/dnssec-oracle/DNSSECImpl.sol\":13097:13105  keyrdata */\n      dup5\n        /* \"packages/contracts/src/dnssec-oracle/DNSSECImpl.sol\":13097:13116  keyrdata.readDNSKEY */\n      tag_270\n      swap1\n        /* \"packages/contracts/src/dnssec-oracle/DNSSECImpl.sol\":13097:13185  keyrdata.readDNSKEY(... */\n      swap3\n      swap2\n      swap1\n      0xffffffff\n      and\n      jump\t// in\n    tag_269:\n        /* \"packages/contracts/src/dnssec-oracle/DNSSECImpl.sol\":13066:13185  RRUtils.DNSKEY memory dnskey = keyrdata.readDNSKEY(... */\n      swap1\n      pop\n        /* \"packages/contracts/src/dnssec-oracle/DNSSECImpl.sol\":13204:13257  verifySignatureWithKey(dnskey, keyrdata, rrset, data) */\n      tag_271\n        /* \"packages/contracts/src/dnssec-oracle/DNSSECImpl.sol\":13227:13233  dnskey */\n      dup2\n        /* \"packages/contracts/src/dnssec-oracle/DNSSECImpl.sol\":13235:13243  keyrdata */\n      dup4\n        /* \"packages/contracts/src/dnssec-oracle/DNSSECImpl.sol\":13245:13250  rrset */\n      dup10\n        /* \"packages/contracts/src/dnssec-oracle/DNSSECImpl.sol\":13252:13256  data */\n      dup10\n        /* \"packages/contracts/src/dnssec-oracle/DNSSECImpl.sol\":13204:13226  verifySignatureWithKey */\n      tag_272\n        /* \"packages/contracts/src/dnssec-oracle/DNSSECImpl.sol\":13204:13257  verifySignatureWithKey(dnskey, keyrdata, rrset, data) */\n      jump\t// in\n    tag_271:\n        /* \"packages/contracts/src/dnssec-oracle/DNSSECImpl.sol\":13200:13684  if (verifySignatureWithKey(dnskey, keyrdata, rrset, data)) {... */\n      iszero\n      tag_277\n      jumpi\n        /* \"packages/contracts/src/dnssec-oracle/DNSSECImpl.sol\":13378:13436  verifyKeyWithDS(rrset.signerName, proof, dnskey, keyrdata) */\n      tag_274\n        /* \"packages/contracts/src/dnssec-oracle/DNSSECImpl.sol\":13394:13399  rrset */\n      dup8\n        /* \"packages/contracts/src/dnssec-oracle/DNSSECImpl.sol\":13394:13410  rrset.signerName */\n      0xe0\n      add\n      mload\n        /* \"packages/contracts/src/dnssec-oracle/DNSSECImpl.sol\":13412:13417  proof */\n      dup7\n        /* \"packages/contracts/src/dnssec-oracle/DNSSECImpl.sol\":13419:13425  dnskey */\n      dup4\n        /* \"packages/contracts/src/dnssec-oracle/DNSSECImpl.sol\":13427:13435  keyrdata */\n      dup6\n        /* \"packages/contracts/src/dnssec-oracle/DNSSECImpl.sol\":13378:13393  verifyKeyWithDS */\n      tag_275\n        /* \"packages/contracts/src/dnssec-oracle/DNSSECImpl.sol\":13378:13436  verifyKeyWithDS(rrset.signerName, proof, dnskey, keyrdata) */\n      jump\t// in\n    tag_274:\n        /* \"packages/contracts/src/dnssec-oracle/DNSSECImpl.sol\":13352:13505  if (... */\n      iszero\n      tag_276\n      jumpi\n        /* \"packages/contracts/src/dnssec-oracle/DNSSECImpl.sol\":13479:13486  return; */\n      pop\n      pop\n      pop\n      pop\n        /* \"packages/contracts/src/dnssec-oracle/DNSSECImpl.sol\":12525:13753  function verifyWithDS(... */\n      pop\n      pop\n      pop\n      jump\t// out\n        /* \"packages/contracts/src/dnssec-oracle/DNSSECImpl.sol\":13352:13505  if (... */\n    tag_276:\n        /* \"packages/contracts/src/dnssec-oracle/DNSSECImpl.sol\":13607:13623  proof.nextOffset */\n      0xc0\n      dup6\n      add\n        /* \"packages/contracts/src/dnssec-oracle/DNSSECImpl.sol\":13607:13637  proof.nextOffset = proofOffset */\n      dup5\n      swap1\n      mstore\n        /* \"packages/contracts/src/dnssec-oracle/DNSSECImpl.sol\":13656:13668  proof.next() */\n      tag_277\n        /* \"packages/contracts/src/dnssec-oracle/DNSSECImpl.sol\":13607:13612  proof */\n      dup6\n        /* \"packages/contracts/src/dnssec-oracle/DNSSECImpl.sol\":13656:13666  proof.next */\n      tag_159\n        /* \"packages/contracts/src/dnssec-oracle/DNSSECImpl.sol\":13656:13668  proof.next() */\n      jump\t// in\n    tag_277:\n        /* \"packages/contracts/src/dnssec-oracle/DNSSECImpl.sol\":12876:13695  {... */\n      pop\n      pop\n        /* \"packages/contracts/src/dnssec-oracle/DNSSECImpl.sol\":12853:12864  iter.next() */\n      tag_278\n        /* \"packages/contracts/src/dnssec-oracle/DNSSECImpl.sol\":12853:12857  iter */\n      dup2\n        /* \"packages/contracts/src/dnssec-oracle/DNSSECImpl.sol\":12853:12862  iter.next */\n      tag_159\n        /* \"packages/contracts/src/dnssec-oracle/DNSSECImpl.sol\":12853:12864  iter.next() */\n      jump\t// in\n    tag_278:\n        /* \"packages/contracts/src/dnssec-oracle/DNSSECImpl.sol\":12748:13695  for (... */\n      jump(tag_260)\n    tag_261:\n      pop\n        /* \"packages/contracts/src/dnssec-oracle/DNSSECImpl.sol\":13728:13733  rrset */\n      dup4\n        /* \"packages/contracts/src/dnssec-oracle/DNSSECImpl.sol\":13728:13744  rrset.signerName */\n      0xe0\n      add\n      mload\n        /* \"packages/contracts/src/dnssec-oracle/DNSSECImpl.sol\":13712:13745  NoMatchingProof(rrset.signerName) */\n      mload(0x40)\n      shl(0xe0, 0x06cde0f3)\n      dup2\n      mstore\n      0x04\n      add\n      tag_101\n      swap2\n      swap1\n      tag_44\n      jump\t// in\n        /* \"packages/contracts/src/dnssec-oracle/DNSSECImpl.sol\":9594:10460  function verifyWithKnownKey(... */\n    tag_186:\n        /* \"packages/contracts/src/dnssec-oracle/RRUtils.sol\":4721:4730  iter.data */\n      dup1\n      mload\n        /* \"packages/contracts/src/dnssec-oracle/RRUtils.sol\":4721:4737  iter.data.length */\n      mload\n        /* \"packages/contracts/src/dnssec-oracle/RRUtils.sol\":4706:4717  iter.offset */\n      0x20\n      dup3\n      add\n      mload\n        /* \"packages/contracts/src/dnssec-oracle/RRUtils.sol\":4706:4737  iter.offset >= iter.data.length */\n      lt\n      iszero\n        /* \"packages/contracts/src/dnssec-oracle/DNSSECImpl.sol\":9857:10402  for (; !proof.done(); proof.next()) {... */\n      tag_282\n      jumpi\n        /* \"packages/contracts/src/dnssec-oracle/DNSSECImpl.sol\":9908:9930  bytes memory proofName */\n      0x00\n        /* \"packages/contracts/src/dnssec-oracle/DNSSECImpl.sol\":9933:9945  proof.name() */\n      tag_285\n        /* \"packages/contracts/src/dnssec-oracle/DNSSECImpl.sol\":9933:9938  proof */\n      dup3\n        /* \"packages/contracts/src/dnssec-oracle/DNSSECImpl.sol\":9933:9943  proof.name */\n      tag_147\n        /* \"packages/contracts/src/dnssec-oracle/DNSSECImpl.sol\":9933:9945  proof.name() */\n      jump\t// in\n    tag_285:\n        /* \"packages/contracts/src/dnssec-oracle/DNSSECImpl.sol\":9908:9945  bytes memory proofName = proof.name() */\n      swap1\n      pop\n        /* \"packages/contracts/src/dnssec-oracle/DNSSECImpl.sol\":9965:9999  proofName.equals(rrset.signerName) */\n      tag_286\n        /* \"packages/contracts/src/dnssec-oracle/DNSSECImpl.sol\":9982:9987  rrset */\n      dup5\n        /* \"packages/contracts/src/dnssec-oracle/DNSSECImpl.sol\":9982:9998  rrset.signerName */\n      0xe0\n      add\n      mload\n        /* \"packages/contracts/src/dnssec-oracle/DNSSECImpl.sol\":9965:9974  proofName */\n      dup3\n        /* \"packages/contracts/src/dnssec-oracle/DNSSECImpl.sol\":9965:9981  proofName.equals */\n      tag_287\n      swap1\n        /* \"packages/contracts/src/dnssec-oracle/DNSSECImpl.sol\":9965:9999  proofName.equals(rrset.signerName) */\n      swap2\n      swap1\n      0xffffffff\n      and\n      jump\t// in\n    tag_286:\n        /* \"packages/contracts/src/dnssec-oracle/DNSSECImpl.sol\":9960:10089  if (!proofName.equals(rrset.signerName)) {... */\n      tag_288\n      jumpi\n        /* \"packages/contracts/src/dnssec-oracle/DNSSECImpl.sol\":10045:10050  rrset */\n      dup4\n        /* \"packages/contracts/src/dnssec-oracle/DNSSECImpl.sol\":10045:10061  rrset.signerName */\n      0xe0\n      add\n      mload\n        /* \"packages/contracts/src/dnssec-oracle/DNSSECImpl.sol\":10063:10072  proofName */\n      dup2\n        /* \"packages/contracts/src/dnssec-oracle/DNSSECImpl.sol\":10027:10073  ProofNameMismatch(rrset.signerName, proofName) */\n      mload(0x40)\n      shl(0xe1, 0x6b80573f)\n      dup2\n      mstore\n      0x04\n      add\n      tag_101\n      swap3\n      swap2\n      swap1\n      tag_177\n      jump\t// in\n        /* \"packages/contracts/src/dnssec-oracle/DNSSECImpl.sol\":9960:10089  if (!proofName.equals(rrset.signerName)) {... */\n    tag_288:\n        /* \"packages/contracts/src/dnssec-oracle/DNSSECImpl.sol\":10105:10126  bytes memory keyrdata */\n      0x00\n        /* \"packages/contracts/src/dnssec-oracle/DNSSECImpl.sol\":10129:10142  proof.rdata() */\n      tag_290\n        /* \"packages/contracts/src/dnssec-oracle/DNSSECImpl.sol\":10129:10134  proof */\n      dup4\n        /* \"packages/contracts/src/dnssec-oracle/DNSSECImpl.sol\":10129:10140  proof.rdata */\n      tag_268\n        /* \"packages/contracts/src/dnssec-oracle/DNSSECImpl.sol\":10129:10142  proof.rdata() */\n      jump\t// in\n    tag_290:\n        /* \"packages/contracts/src/dnssec-oracle/DNSSECImpl.sol\":10105:10142  bytes memory keyrdata = proof.rdata() */\n      swap1\n      pop\n        /* \"packages/contracts/src/dnssec-oracle/DNSSECImpl.sol\":10157:10185  RRUtils.DNSKEY memory dnskey */\n      0x00\n        /* \"packages/contracts/src/dnssec-oracle/DNSSECImpl.sol\":10188:10276  keyrdata.readDNSKEY(... */\n      tag_291\n        /* \"packages/contracts/src/dnssec-oracle/DNSSECImpl.sol\":10226:10227  0 */\n      0x00\n        /* \"packages/contracts/src/dnssec-oracle/DNSSECImpl.sol\":10246:10254  keyrdata */\n      dup4\n        /* \"packages/contracts/src/dnssec-oracle/DNSSECImpl.sol\":10246:10261  keyrdata.length */\n      mload\n        /* \"packages/contracts/src/dnssec-oracle/DNSSECImpl.sol\":10188:10196  keyrdata */\n      dup5\n        /* \"packages/contracts/src/dnssec-oracle/DNSSECImpl.sol\":10188:10207  keyrdata.readDNSKEY */\n      tag_270\n      swap1\n        /* \"packages/contracts/src/dnssec-oracle/DNSSECImpl.sol\":10188:10276  keyrdata.readDNSKEY(... */\n      swap3\n      swap2\n      swap1\n      0xffffffff\n      and\n      jump\t// in\n    tag_291:\n        /* \"packages/contracts/src/dnssec-oracle/DNSSECImpl.sol\":10157:10276  RRUtils.DNSKEY memory dnskey = keyrdata.readDNSKEY(... */\n      swap1\n      pop\n        /* \"packages/contracts/src/dnssec-oracle/DNSSECImpl.sol\":10295:10348  verifySignatureWithKey(dnskey, keyrdata, rrset, data) */\n      tag_292\n        /* \"packages/contracts/src/dnssec-oracle/DNSSECImpl.sol\":10318:10324  dnskey */\n      dup2\n        /* \"packages/contracts/src/dnssec-oracle/DNSSECImpl.sol\":10326:10334  keyrdata */\n      dup4\n        /* \"packages/contracts/src/dnssec-oracle/DNSSECImpl.sol\":10336:10341  rrset */\n      dup9\n        /* \"packages/contracts/src/dnssec-oracle/DNSSECImpl.sol\":10343:10347  data */\n      dup9\n        /* \"packages/contracts/src/dnssec-oracle/DNSSECImpl.sol\":10295:10317  verifySignatureWithKey */\n      tag_272\n        /* \"packages/contracts/src/dnssec-oracle/DNSSECImpl.sol\":10295:10348  verifySignatureWithKey(dnskey, keyrdata, rrset, data) */\n      jump\t// in\n    tag_292:\n        /* \"packages/contracts/src/dnssec-oracle/DNSSECImpl.sol\":10291:10391  if (verifySignatureWithKey(dnskey, keyrdata, rrset, data)) {... */\n      iszero\n      tag_293\n      jumpi\n        /* \"packages/contracts/src/dnssec-oracle/DNSSECImpl.sol\":10369:10376  return; */\n      pop\n      pop\n      pop\n        /* \"packages/contracts/src/dnssec-oracle/DNSSECImpl.sol\":9594:10460  function verifyWithKnownKey(... */\n      pop\n      pop\n      pop\n      jump\t// out\n        /* \"packages/contracts/src/dnssec-oracle/DNSSECImpl.sol\":10291:10391  if (verifySignatureWithKey(dnskey, keyrdata, rrset, data)) {... */\n    tag_293:\n        /* \"packages/contracts/src/dnssec-oracle/DNSSECImpl.sol\":9893:10402  {... */\n      pop\n      pop\n      pop\n        /* \"packages/contracts/src/dnssec-oracle/DNSSECImpl.sol\":9879:9891  proof.next() */\n      tag_294\n        /* \"packages/contracts/src/dnssec-oracle/DNSSECImpl.sol\":9879:9884  proof */\n      dup2\n        /* \"packages/contracts/src/dnssec-oracle/DNSSECImpl.sol\":9879:9889  proof.next */\n      tag_159\n        /* \"packages/contracts/src/dnssec-oracle/DNSSECImpl.sol\":9879:9891  proof.next() */\n      jump\t// in\n    tag_294:\n        /* \"packages/contracts/src/dnssec-oracle/DNSSECImpl.sol\":9857:10402  for (; !proof.done(); proof.next()) {... */\n      jump(tag_186)\n    tag_282:\n        /* \"packages/contracts/src/dnssec-oracle/DNSSECImpl.sol\":10435:10440  rrset */\n      dup3\n        /* \"packages/contracts/src/dnssec-oracle/DNSSECImpl.sol\":10435:10451  rrset.signerName */\n      0xe0\n      add\n      mload\n        /* \"packages/contracts/src/dnssec-oracle/DNSSECImpl.sol\":10419:10452  NoMatchingProof(rrset.signerName) */\n      mload(0x40)\n      shl(0xe0, 0x06cde0f3)\n      dup2\n      mstore\n      0x04\n      add\n      tag_101\n      swap2\n      swap1\n      tag_44\n      jump\t// in\n        /* \"packages/contracts/src/dnssec-oracle/BytesUtils.sol\":9207:9843  function memcpy(uint256 dest, uint256 src, uint256 len) private pure {... */\n    tag_209:\n        /* \"packages/contracts/src/dnssec-oracle/BytesUtils.sol\":9352:9354  32 */\n      0x20\n        /* \"packages/contracts/src/dnssec-oracle/BytesUtils.sol\":9345:9348  len */\n      dup2\n        /* \"packages/contracts/src/dnssec-oracle/BytesUtils.sol\":9345:9354  len >= 32 */\n      lt\n        /* \"packages/contracts/src/dnssec-oracle/BytesUtils.sol\":9338:9509  for (; len >= 32; len -= 32) {... */\n      tag_298\n      jumpi\n        /* \"packages/contracts/src/dnssec-oracle/BytesUtils.sol\":9423:9433  mload(src) */\n      dup2\n      mload\n        /* \"packages/contracts/src/dnssec-oracle/BytesUtils.sol\":9410:9434  mstore(dest, mload(src)) */\n      dup4\n      mstore\n        /* \"packages/contracts/src/dnssec-oracle/BytesUtils.sol\":9463:9473  dest += 32 */\n      tag_300\n        /* \"packages/contracts/src/dnssec-oracle/BytesUtils.sol\":9471:9473  32 */\n      0x20\n        /* \"packages/contracts/src/dnssec-oracle/BytesUtils.sol\":9417:9421  dest */\n      dup5\n        /* \"packages/contracts/src/dnssec-oracle/BytesUtils.sol\":9463:9473  dest += 32 */\n      tag_129\n      jump\t// in\n    tag_300:\n      swap3\n      pop\n        /* \"packages/contracts/src/dnssec-oracle/BytesUtils.sol\":9488:9497  src += 32 */\n      tag_301\n        /* \"packages/contracts/src/dnssec-oracle/BytesUtils.sol\":9495:9497  32 */\n      0x20\n        /* \"packages/contracts/src/dnssec-oracle/BytesUtils.sol\":9488:9497  src += 32 */\n      dup4\n      tag_129\n      jump\t// in\n    tag_301:\n      swap2\n      pop\n        /* \"packages/contracts/src/dnssec-oracle/BytesUtils.sol\":9356:9365  len -= 32 */\n      tag_302\n        /* \"packages/contracts/src/dnssec-oracle/BytesUtils.sol\":9363:9365  32 */\n      0x20\n        /* \"packages/contracts/src/dnssec-oracle/BytesUtils.sol\":9356:9365  len -= 32 */\n      dup3\n      tag_131\n      jump\t// in\n    tag_302:\n      swap1\n      pop\n        /* \"packages/contracts/src/dnssec-oracle/BytesUtils.sol\":9338:9509  for (; len >= 32; len -= 32) {... */\n      jump(tag_209)\n    tag_298:\n        /* \"packages/contracts/src/dnssec-oracle/BytesUtils.sol\":9679:9689  mload(src) */\n      swap1\n      mload\n        /* \"packages/contracts/src/dnssec-oracle/BytesUtils.sol\":9739:9750  mload(dest) */\n      dup3\n      mload\n        /* \"packages/contracts/src/dnssec-oracle/BytesUtils.sol\":9603:9605  32 */\n      0x20\n        /* \"packages/contracts/src/dnssec-oracle/BytesUtils.sol\":9603:9611  32 - len */\n      swap3\n      swap1\n      swap3\n      sub\n        /* \"packages/contracts/src/dnssec-oracle/BytesUtils.sol\":9595:9598  256 */\n      0x0100\n        /* \"packages/contracts/src/dnssec-oracle/BytesUtils.sol\":9595:9612  256 ** (32 - len) */\n      exp\n      not(0x00)\n        /* \"packages/contracts/src/dnssec-oracle/BytesUtils.sol\":9594:9617  (256 ** (32 - len)) - 1 */\n      add\n        /* \"packages/contracts/src/dnssec-oracle/BytesUtils.sol\":9691:9700  not(mask) */\n      dup1\n      not\n        /* \"packages/contracts/src/dnssec-oracle/BytesUtils.sol\":9675:9701  and(mload(src), not(mask)) */\n      swap1\n      swap2\n      and\n        /* \"packages/contracts/src/dnssec-oracle/BytesUtils.sol\":9735:9757  and(mload(dest), mask) */\n      swap2\n      and\n        /* \"packages/contracts/src/dnssec-oracle/BytesUtils.sol\":9788:9809  or(destpart, srcpart) */\n      or\n        /* \"packages/contracts/src/dnssec-oracle/BytesUtils.sol\":9775:9810  mstore(dest, or(destpart, srcpart)) */\n      swap1\n      mstore\n        /* \"packages/contracts/src/dnssec-oracle/BytesUtils.sol\":9207:9843  function memcpy(uint256 dest, uint256 src, uint256 len) private pure {... */\n      jump\t// out\n        /* \"packages/contracts/src/dnssec-oracle/BytesUtils.sol\":429:712  function keccak(... */\n    tag_230:\n        /* \"packages/contracts/src/dnssec-oracle/BytesUtils.sol\":598:609  self.length */\n      dup3\n      mload\n        /* \"packages/contracts/src/dnssec-oracle/BytesUtils.sol\":550:561  bytes32 ret */\n      0x00\n      swap1\n        /* \"packages/contracts/src/dnssec-oracle/BytesUtils.sol\":582:594  offset + len */\n      tag_304\n        /* \"packages/contracts/src/dnssec-oracle/BytesUtils.sol\":591:594  len */\n      dup4\n        /* \"packages/contracts/src/dnssec-oracle/BytesUtils.sol\":582:588  offset */\n      dup6\n        /* \"packages/contracts/src/dnssec-oracle/BytesUtils.sol\":582:594  offset + len */\n      tag_129\n      jump\t// in\n    tag_304:\n        /* \"packages/contracts/src/dnssec-oracle/BytesUtils.sol\":582:609  offset + len <= self.length */\n      gt\n      iszero\n        /* \"packages/contracts/src/dnssec-oracle/BytesUtils.sol\":574:610  require(offset + len <= self.length) */\n      tag_305\n      jumpi\n      0x00\n      dup1\n      revert\n    tag_305:\n      pop\n        /* \"packages/contracts/src/dnssec-oracle/BytesUtils.sol\":662:688  add(add(self, 32), offset) */\n      swap2\n      add\n        /* \"packages/contracts/src/dnssec-oracle/BytesUtils.sol\":676:678  32 */\n      0x20\n        /* \"packages/contracts/src/dnssec-oracle/BytesUtils.sol\":662:688  add(add(self, 32), offset) */\n      add\n        /* \"packages/contracts/src/dnssec-oracle/BytesUtils.sol\":652:694  keccak256(add(add(self, 32), offset), len) */\n      keccak256\n      swap1\n        /* \"packages/contracts/src/dnssec-oracle/BytesUtils.sol\":429:712  function keccak(... */\n      jump\t// out\n        /* \"packages/contracts/src/dnssec-oracle/RRUtils.sol\":10169:10331  function progress(... */\n    tag_251:\n        /* \"packages/contracts/src/dnssec-oracle/RRUtils.sol\":10267:10274  uint256 */\n      0x00\n        /* \"packages/contracts/src/dnssec-oracle/RRUtils.sol\":10304:10323  body.readUint8(off) */\n      tag_307\n        /* \"packages/contracts/src/dnssec-oracle/RRUtils.sol\":10304:10308  body */\n      dup4\n        /* \"packages/contracts/src/dnssec-oracle/RRUtils.sol\":10319:10322  off */\n      dup4\n        /* \"packages/contracts/src/dnssec-oracle/RRUtils.sol\":10304:10318  body.readUint8 */\n      tag_118\n        /* \"packages/contracts/src/dnssec-oracle/RRUtils.sol\":10304:10323  body.readUint8(off) */\n      jump\t// in\n    tag_307:\n        /* \"packages/contracts/src/dnssec-oracle/RRUtils.sol\":10294:10323  off + 1 + body.readUint8(off) */\n      0xff\n      and\n        /* \"packages/contracts/src/dnssec-oracle/RRUtils.sol\":10294:10301  off + 1 */\n      tag_308\n        /* \"packages/contracts/src/dnssec-oracle/RRUtils.sol\":10294:10297  off */\n      dup4\n        /* \"packages/contracts/src/dnssec-oracle/RRUtils.sol\":10300:10301  1 */\n      0x01\n        /* \"packages/contracts/src/dnssec-oracle/RRUtils.sol\":10294:10301  off + 1 */\n      tag_129\n      jump\t// in\n    tag_308:\n        /* \"packages/contracts/src/dnssec-oracle/RRUtils.sol\":10294:10323  off + 1 + body.readUint8(off) */\n      tag_162\n      swap2\n      swap1\n      tag_129\n      jump\t// in\n        /* \"packages/contracts/src/dnssec-oracle/BytesUtils.sol\":4597:4913  function equals(... */\n    tag_255:\n        /* \"packages/contracts/src/dnssec-oracle/BytesUtils.sol\":4755:4759  bool */\n      0x00\n        /* \"packages/contracts/src/dnssec-oracle/BytesUtils.sol\":4851:4905  keccak(other, otherOffset, other.length - otherOffset) */\n      tag_311\n        /* \"packages/contracts/src/dnssec-oracle/BytesUtils.sol\":4858:4863  other */\n      dup4\n        /* \"packages/contracts/src/dnssec-oracle/BytesUtils.sol\":4865:4876  otherOffset */\n      dup4\n        /* \"packages/contracts/src/dnssec-oracle/BytesUtils.sol\":4893:4904  otherOffset */\n      dup5\n        /* \"packages/contracts/src/dnssec-oracle/BytesUtils.sol\":4878:4883  other */\n      dup7\n        /* \"packages/contracts/src/dnssec-oracle/BytesUtils.sol\":4878:4890  other.length */\n      mload\n        /* \"packages/contracts/src/dnssec-oracle/BytesUtils.sol\":4878:4904  other.length - otherOffset */\n      tag_312\n      swap2\n      swap1\n      tag_131\n      jump\t// in\n    tag_312:\n        /* \"packages/contracts/src/dnssec-oracle/BytesUtils.sol\":4851:4857  keccak */\n      tag_230\n        /* \"packages/contracts/src/dnssec-oracle/BytesUtils.sol\":4851:4905  keccak(other, otherOffset, other.length - otherOffset) */\n      jump\t// in\n    tag_311:\n        /* \"packages/contracts/src/dnssec-oracle/BytesUtils.sol\":4792:4834  keccak(self, offset, self.length - offset) */\n      tag_313\n        /* \"packages/contracts/src/dnssec-oracle/BytesUtils.sol\":4799:4803  self */\n      dup7\n        /* \"packages/contracts/src/dnssec-oracle/BytesUtils.sol\":4805:4811  offset */\n      dup7\n        /* \"packages/contracts/src/dnssec-oracle/BytesUtils.sol\":4827:4833  offset */\n      dup8\n        /* \"packages/contracts/src/dnssec-oracle/BytesUtils.sol\":4813:4817  self */\n      dup10\n        /* \"packages/contracts/src/dnssec-oracle/BytesUtils.sol\":4813:4824  self.length */\n      mload\n        /* \"packages/contracts/src/dnssec-oracle/BytesUtils.sol\":4813:4833  self.length - offset */\n      tag_312\n      swap2\n      swap1\n      tag_131\n      jump\t// in\n        /* \"packages/contracts/src/dnssec-oracle/BytesUtils.sol\":4792:4834  keccak(self, offset, self.length - offset) */\n    tag_313:\n        /* \"packages/contracts/src/dnssec-oracle/BytesUtils.sol\":4792:4905  keccak(self, offset, self.length - offset) ==... */\n      eq\n      swap6\n        /* \"packages/contracts/src/dnssec-oracle/BytesUtils.sol\":4597:4913  function equals(... */\n      swap5\n      pop\n      pop\n      pop\n      pop\n      pop\n      jump\t// out\n        /* \"packages/contracts/src/dnssec-oracle/RRUtils.sol\":6189:6442  function rdata(... */\n    tag_268:\n        /* \"packages/contracts/src/dnssec-oracle/RRUtils.sol\":6350:6366  iter.rdataOffset */\n      0xa0\n      dup2\n      add\n      mload\n        /* \"packages/contracts/src/dnssec-oracle/RRUtils.sol\":6385:6400  iter.nextOffset */\n      0xc0\n      dup3\n      add\n      mload\n        /* \"packages/contracts/src/dnssec-oracle/RRUtils.sol\":6267:6279  bytes memory */\n      0x60\n      swap2\n        /* \"packages/contracts/src/dnssec-oracle/RRUtils.sol\":6312:6434  iter.data.substring(... */\n      tag_160\n      swap2\n        /* \"packages/contracts/src/dnssec-oracle/RRUtils.sol\":6385:6419  iter.nextOffset - iter.rdataOffset */\n      tag_217\n      swap1\n        /* \"packages/contracts/src/dnssec-oracle/RRUtils.sol\":6350:6366  iter.rdataOffset */\n      dup3\n      swap1\n        /* \"packages/contracts/src/dnssec-oracle/RRUtils.sol\":6385:6419  iter.nextOffset - iter.rdataOffset */\n      tag_131\n      jump\t// in\n        /* \"packages/contracts/src/dnssec-oracle/RRUtils.sol\":6750:7231  function readDNSKEY(... */\n    tag_270:\n      0x40\n      dup1\n      mload\n      0x80\n      dup2\n      add\n      dup3\n      mstore\n      0x00\n      dup1\n      dup3\n      mstore\n      0x20\n      dup3\n      add\n      dup2\n      swap1\n      mstore\n      swap2\n      dup2\n      add\n      swap2\n      swap1\n      swap2\n      mstore\n      0x60\n      dup1\n      dup3\n      add\n      mstore\n        /* \"packages/contracts/src/dnssec-oracle/RRUtils.sol\":6922:6960  data.readUint16(offset + DNSKEY_FLAGS) */\n      tag_321\n        /* \"packages/contracts/src/dnssec-oracle/RRUtils.sol\":6938:6959  offset + DNSKEY_FLAGS */\n      tag_322\n        /* \"packages/contracts/src/dnssec-oracle/RRUtils.sol\":6482:6483  0 */\n      0x00\n        /* \"packages/contracts/src/dnssec-oracle/RRUtils.sol\":6938:6944  offset */\n      dup6\n        /* \"packages/contracts/src/dnssec-oracle/RRUtils.sol\":6938:6959  offset + DNSKEY_FLAGS */\n      tag_129\n      jump\t// in\n    tag_322:\n        /* \"packages/contracts/src/dnssec-oracle/RRUtils.sol\":6922:6926  data */\n      dup6\n      swap1\n        /* \"packages/contracts/src/dnssec-oracle/RRUtils.sol\":6922:6937  data.readUint16 */\n      tag_116\n        /* \"packages/contracts/src/dnssec-oracle/RRUtils.sol\":6922:6960  data.readUint16(offset + DNSKEY_FLAGS) */\n      jump\t// in\n    tag_321:\n        /* \"packages/contracts/src/dnssec-oracle/RRUtils.sol\":6909:6960  self.flags = data.readUint16(offset + DNSKEY_FLAGS) */\n      0xffff\n      and\n      dup2\n      mstore\n        /* \"packages/contracts/src/dnssec-oracle/RRUtils.sol\":6987:7027  data.readUint8(offset + DNSKEY_PROTOCOL) */\n      tag_323\n        /* \"packages/contracts/src/dnssec-oracle/RRUtils.sol\":7002:7026  offset + DNSKEY_PROTOCOL */\n      tag_324\n        /* \"packages/contracts/src/dnssec-oracle/RRUtils.sol\":6525:6526  2 */\n      0x02\n        /* \"packages/contracts/src/dnssec-oracle/RRUtils.sol\":7002:7008  offset */\n      dup6\n        /* \"packages/contracts/src/dnssec-oracle/RRUtils.sol\":7002:7026  offset + DNSKEY_PROTOCOL */\n      tag_129\n      jump\t// in\n    tag_324:\n        /* \"packages/contracts/src/dnssec-oracle/RRUtils.sol\":6987:6991  data */\n      dup6\n      swap1\n        /* \"packages/contracts/src/dnssec-oracle/RRUtils.sol\":6987:7001  data.readUint8 */\n      tag_118\n        /* \"packages/contracts/src/dnssec-oracle/RRUtils.sol\":6987:7027  data.readUint8(offset + DNSKEY_PROTOCOL) */\n      jump\t// in\n    tag_323:\n        /* \"packages/contracts/src/dnssec-oracle/RRUtils.sol\":6971:7027  self.protocol = data.readUint8(offset + DNSKEY_PROTOCOL) */\n      0xff\n      and\n        /* \"packages/contracts/src/dnssec-oracle/RRUtils.sol\":6971:6984  self.protocol */\n      0x20\n      dup3\n      add\n        /* \"packages/contracts/src/dnssec-oracle/RRUtils.sol\":6971:7027  self.protocol = data.readUint8(offset + DNSKEY_PROTOCOL) */\n      mstore\n        /* \"packages/contracts/src/dnssec-oracle/RRUtils.sol\":7055:7096  data.readUint8(offset + DNSKEY_ALGORITHM) */\n      tag_325\n        /* \"packages/contracts/src/dnssec-oracle/RRUtils.sol\":7070:7095  offset + DNSKEY_ALGORITHM */\n      tag_324\n        /* \"packages/contracts/src/dnssec-oracle/RRUtils.sol\":6569:6570  3 */\n      0x03\n        /* \"packages/contracts/src/dnssec-oracle/RRUtils.sol\":7070:7076  offset */\n      dup6\n        /* \"packages/contracts/src/dnssec-oracle/RRUtils.sol\":7070:7095  offset + DNSKEY_ALGORITHM */\n      tag_129\n      jump\t// in\n        /* \"packages/contracts/src/dnssec-oracle/RRUtils.sol\":7055:7096  data.readUint8(offset + DNSKEY_ALGORITHM) */\n    tag_325:\n        /* \"packages/contracts/src/dnssec-oracle/RRUtils.sol\":7038:7096  self.algorithm = data.readUint8(offset + DNSKEY_ALGORITHM) */\n      0xff\n      and\n        /* \"packages/contracts/src/dnssec-oracle/RRUtils.sol\":7038:7052  self.algorithm */\n      0x40\n      dup3\n      add\n        /* \"packages/contracts/src/dnssec-oracle/RRUtils.sol\":7038:7096  self.algorithm = data.readUint8(offset + DNSKEY_ALGORITHM) */\n      mstore\n        /* \"packages/contracts/src/dnssec-oracle/RRUtils.sol\":7124:7223  data.substring(... */\n      tag_327\n        /* \"packages/contracts/src/dnssec-oracle/RRUtils.sol\":7153:7175  offset + DNSKEY_PUBKEY */\n      tag_328\n        /* \"packages/contracts/src/dnssec-oracle/RRUtils.sol\":6610:6611  4 */\n      0x04\n        /* \"packages/contracts/src/dnssec-oracle/RRUtils.sol\":7153:7159  offset */\n      dup6\n        /* \"packages/contracts/src/dnssec-oracle/RRUtils.sol\":7153:7175  offset + DNSKEY_PUBKEY */\n      tag_129\n      jump\t// in\n    tag_328:\n        /* \"packages/contracts/src/dnssec-oracle/RRUtils.sol\":7190:7212  length - DNSKEY_PUBKEY */\n      tag_329\n        /* \"packages/contracts/src/dnssec-oracle/RRUtils.sol\":6610:6611  4 */\n      0x04\n        /* \"packages/contracts/src/dnssec-oracle/RRUtils.sol\":7190:7196  length */\n      dup6\n        /* \"packages/contracts/src/dnssec-oracle/RRUtils.sol\":7190:7212  length - DNSKEY_PUBKEY */\n      tag_131\n      jump\t// in\n    tag_329:\n        /* \"packages/contracts/src/dnssec-oracle/RRUtils.sol\":7124:7128  data */\n      dup7\n      swap2\n        /* \"packages/contracts/src/dnssec-oracle/RRUtils.sol\":7124:7223  data.substring(... */\n      swap1\n        /* \"packages/contracts/src/dnssec-oracle/RRUtils.sol\":7124:7138  data.substring */\n      tag_133\n        /* \"packages/contracts/src/dnssec-oracle/RRUtils.sol\":7124:7223  data.substring(... */\n      jump\t// in\n    tag_327:\n        /* \"packages/contracts/src/dnssec-oracle/RRUtils.sol\":7107:7121  self.publicKey */\n      0x60\n      dup3\n      add\n        /* \"packages/contracts/src/dnssec-oracle/RRUtils.sol\":7107:7223  self.publicKey = data.substring(... */\n      mstore\n        /* \"packages/contracts/src/dnssec-oracle/RRUtils.sol\":7107:7111  self */\n      swap4\n        /* \"packages/contracts/src/dnssec-oracle/RRUtils.sol\":6750:7231  function readDNSKEY(... */\n      swap3\n      pop\n      pop\n      pop\n      jump\t// out\n        /* \"packages/contracts/src/dnssec-oracle/DNSSECImpl.sol\":10812:12182  function verifySignatureWithKey(... */\n    tag_272:\n        /* \"packages/contracts/src/dnssec-oracle/DNSSECImpl.sol\":11027:11031  bool */\n      0x00\n        /* \"packages/contracts/src/dnssec-oracle/DNSSECImpl.sol\":11185:11191  dnskey */\n      dup5\n        /* \"packages/contracts/src/dnssec-oracle/DNSSECImpl.sol\":11185:11200  dnskey.protocol */\n      0x20\n      add\n      mload\n        /* \"packages/contracts/src/dnssec-oracle/DNSSECImpl.sol\":11185:11205  dnskey.protocol != 3 */\n      0xff\n      and\n        /* \"packages/contracts/src/dnssec-oracle/DNSSECImpl.sol\":11204:11205  3 */\n      0x03\n        /* \"packages/contracts/src/dnssec-oracle/DNSSECImpl.sol\":11185:11205  dnskey.protocol != 3 */\n      eq\n        /* \"packages/contracts/src/dnssec-oracle/DNSSECImpl.sol\":11181:11246  if (dnskey.protocol != 3) {... */\n      tag_331\n      jumpi\n      pop\n        /* \"packages/contracts/src/dnssec-oracle/DNSSECImpl.sol\":11229:11234  false */\n      0x00\n        /* \"packages/contracts/src/dnssec-oracle/DNSSECImpl.sol\":11222:11234  return false */\n      jump(tag_200)\n        /* \"packages/contracts/src/dnssec-oracle/DNSSECImpl.sol\":11181:11246  if (dnskey.protocol != 3) {... */\n    tag_331:\n        /* \"packages/contracts/src/dnssec-oracle/DNSSECImpl.sol\":11486:11491  rrset */\n      dup3\n        /* \"packages/contracts/src/dnssec-oracle/DNSSECImpl.sol\":11486:11501  rrset.algorithm */\n      0x20\n      add\n      mload\n        /* \"packages/contracts/src/dnssec-oracle/DNSSECImpl.sol\":11466:11501  dnskey.algorithm != rrset.algorithm */\n      0xff\n      and\n        /* \"packages/contracts/src/dnssec-oracle/DNSSECImpl.sol\":11466:11472  dnskey */\n      dup6\n        /* \"packages/contracts/src/dnssec-oracle/DNSSECImpl.sol\":11466:11482  dnskey.algorithm */\n      0x40\n      add\n      mload\n        /* \"packages/contracts/src/dnssec-oracle/DNSSECImpl.sol\":11466:11501  dnskey.algorithm != rrset.algorithm */\n      0xff\n      and\n      eq\n        /* \"packages/contracts/src/dnssec-oracle/DNSSECImpl.sol\":11462:11542  if (dnskey.algorithm != rrset.algorithm) {... */\n      tag_332\n      jumpi\n      pop\n        /* \"packages/contracts/src/dnssec-oracle/DNSSECImpl.sol\":11525:11530  false */\n      0x00\n        /* \"packages/contracts/src/dnssec-oracle/DNSSECImpl.sol\":11518:11530  return false */\n      jump(tag_200)\n        /* \"packages/contracts/src/dnssec-oracle/DNSSECImpl.sol\":11462:11542  if (dnskey.algorithm != rrset.algorithm) {... */\n    tag_332:\n        /* \"packages/contracts/src/dnssec-oracle/DNSSECImpl.sol\":11552:11573  uint16 computedkeytag */\n      0x00\n        /* \"packages/contracts/src/dnssec-oracle/DNSSECImpl.sol\":11576:11600  keyrdata.computeKeytag() */\n      tag_333\n        /* \"packages/contracts/src/dnssec-oracle/DNSSECImpl.sol\":11576:11584  keyrdata */\n      dup6\n        /* \"packages/contracts/src/dnssec-oracle/DNSSECImpl.sol\":11576:11598  keyrdata.computeKeytag */\n      tag_334\n        /* \"packages/contracts/src/dnssec-oracle/DNSSECImpl.sol\":11576:11600  keyrdata.computeKeytag() */\n      jump\t// in\n    tag_333:\n        /* \"packages/contracts/src/dnssec-oracle/DNSSECImpl.sol\":11552:11600  uint16 computedkeytag = keyrdata.computeKeytag() */\n      swap1\n      pop\n        /* \"packages/contracts/src/dnssec-oracle/DNSSECImpl.sol\":11633:11638  rrset */\n      dup4\n        /* \"packages/contracts/src/dnssec-oracle/DNSSECImpl.sol\":11633:11645  rrset.keytag */\n      0xc0\n      add\n      mload\n        /* \"packages/contracts/src/dnssec-oracle/DNSSECImpl.sol\":11615:11645  computedkeytag != rrset.keytag */\n      0xffff\n      and\n        /* \"packages/contracts/src/dnssec-oracle/DNSSECImpl.sol\":11615:11629  computedkeytag */\n      dup2\n        /* \"packages/contracts/src/dnssec-oracle/DNSSECImpl.sol\":11615:11645  computedkeytag != rrset.keytag */\n      0xffff\n      and\n      eq\n        /* \"packages/contracts/src/dnssec-oracle/DNSSECImpl.sol\":11611:11686  if (computedkeytag != rrset.keytag) {... */\n      tag_335\n      jumpi\n        /* \"packages/contracts/src/dnssec-oracle/DNSSECImpl.sol\":11669:11674  false */\n      0x00\n        /* \"packages/contracts/src/dnssec-oracle/DNSSECImpl.sol\":11662:11674  return false */\n      swap2\n      pop\n      pop\n      jump(tag_200)\n        /* \"packages/contracts/src/dnssec-oracle/DNSSECImpl.sol\":11611:11686  if (computedkeytag != rrset.keytag) {... */\n    tag_335:\n        /* \"packages/contracts/src/dnssec-oracle/DNSSECImpl.sol\":11879:11891  dnskey.flags */\n      dup6\n      mload\n        /* \"packages/contracts/src/dnssec-oracle/DNSSECImpl.sol\":1231:1236  0x100 */\n      0x0100\n        /* \"packages/contracts/src/dnssec-oracle/DNSSECImpl.sol\":11879:11913  dnskey.flags & DNSKEY_FLAG_ZONEKEY */\n      and\n        /* \"packages/contracts/src/dnssec-oracle/DNSSECImpl.sol\":11879:11891  dnskey.flags */\n      0x00\n        /* \"packages/contracts/src/dnssec-oracle/DNSSECImpl.sol\":11879:11918  dnskey.flags & DNSKEY_FLAG_ZONEKEY == 0 */\n      sub\n        /* \"packages/contracts/src/dnssec-oracle/DNSSECImpl.sol\":11875:11959  if (dnskey.flags & DNSKEY_FLAG_ZONEKEY == 0) {... */\n      tag_336\n      jumpi\n        /* \"packages/contracts/src/dnssec-oracle/DNSSECImpl.sol\":11942:11947  false */\n      0x00\n        /* \"packages/contracts/src/dnssec-oracle/DNSSECImpl.sol\":11935:11947  return false */\n      swap2\n      pop\n      pop\n      jump(tag_200)\n        /* \"packages/contracts/src/dnssec-oracle/DNSSECImpl.sol\":11875:11959  if (dnskey.flags & DNSKEY_FLAG_ZONEKEY == 0) {... */\n    tag_336:\n        /* \"packages/contracts/src/dnssec-oracle/DNSSECImpl.sol\":12004:12020  dnskey.algorithm */\n      0x40\n      dup1\n      dup8\n      add\n      mload\n        /* \"packages/contracts/src/dnssec-oracle/DNSSECImpl.sol\":11993:12021  algorithms[dnskey.algorithm] */\n      0xff\n      and\n        /* \"packages/contracts/src/dnssec-oracle/DNSSECImpl.sol\":11971:11990  Algorithm algorithm */\n      0x00\n        /* \"packages/contracts/src/dnssec-oracle/DNSSECImpl.sol\":11993:12021  algorithms[dnskey.algorithm] */\n      swap1\n      dup2\n      mstore\n        /* \"packages/contracts/src/dnssec-oracle/DNSSECImpl.sol\":11993:12003  algorithms */\n      0x02\n        /* \"packages/contracts/src/dnssec-oracle/DNSSECImpl.sol\":11993:12021  algorithms[dnskey.algorithm] */\n      0x20\n      mstore\n      keccak256\n      sload\n      sub(shl(0xa0, 0x01), 0x01)\n      and\n      dup1\n        /* \"packages/contracts/src/dnssec-oracle/DNSSECImpl.sol\":12032:12109  if (address(algorithm) == address(0)) {... */\n      tag_337\n      jumpi\n        /* \"packages/contracts/src/dnssec-oracle/DNSSECImpl.sol\":12092:12097  false */\n      0x00\n        /* \"packages/contracts/src/dnssec-oracle/DNSSECImpl.sol\":12085:12097  return false */\n      swap3\n      pop\n      pop\n      pop\n      jump(tag_200)\n        /* \"packages/contracts/src/dnssec-oracle/DNSSECImpl.sol\":12032:12109  if (address(algorithm) == address(0)) {... */\n    tag_337:\n        /* \"packages/contracts/src/dnssec-oracle/DNSSECImpl.sol\":12153:12163  data.rrset */\n      dup4\n      mload\n        /* \"packages/contracts/src/dnssec-oracle/DNSSECImpl.sol\":12165:12173  data.sig */\n      0x20\n      dup6\n      add\n      mload\n        /* \"packages/contracts/src/dnssec-oracle/DNSSECImpl.sol\":12126:12174  algorithm.verify(keyrdata, data.rrset, data.sig) */\n      mload(0x40)\n      shl(0xe0, 0xde8f50a1)\n      dup2\n      mstore\n      sub(shl(0xa0, 0x01), 0x01)\n        /* \"packages/contracts/src/dnssec-oracle/DNSSECImpl.sol\":12126:12142  algorithm.verify */\n      dup5\n      and\n      swap3\n      0xde8f50a1\n      swap3\n        /* \"packages/contracts/src/dnssec-oracle/DNSSECImpl.sol\":12126:12174  algorithm.verify(keyrdata, data.rrset, data.sig) */\n      tag_338\n      swap3\n        /* \"packages/contracts/src/dnssec-oracle/DNSSECImpl.sol\":12143:12151  keyrdata */\n      dup12\n      swap3\n        /* \"packages/contracts/src/dnssec-oracle/DNSSECImpl.sol\":12153:12163  data.rrset */\n      swap2\n        /* \"packages/contracts/src/dnssec-oracle/DNSSECImpl.sol\":12165:12173  data.sig */\n      swap1\n        /* \"packages/contracts/src/dnssec-oracle/DNSSECImpl.sol\":12126:12174  algorithm.verify(keyrdata, data.rrset, data.sig) */\n      0x04\n      add\n      tag_339\n      jump\t// in\n    tag_338:\n      0x20\n      mload(0x40)\n      dup1\n      dup4\n      sub\n      dup2\n      dup7\n      gas\n      staticcall\n      iszero\n      dup1\n      iszero\n      tag_341\n      jumpi\n      returndatasize\n      0x00\n      dup1\n      returndatacopy\n      revert(0x00, returndatasize)\n    tag_341:\n      pop\n      pop\n      pop\n      pop\n      mload(0x40)\n      returndatasize\n      not(0x1f)\n      0x1f\n      dup3\n      add\n      and\n      dup3\n      add\n      dup1\n      0x40\n      mstore\n      pop\n      dup2\n      add\n      swap1\n      tag_342\n      swap2\n      swap1\n      tag_343\n      jump\t// in\n    tag_342:\n        /* \"packages/contracts/src/dnssec-oracle/DNSSECImpl.sol\":12119:12174  return algorithm.verify(keyrdata, data.rrset, data.sig) */\n      swap8\n        /* \"packages/contracts/src/dnssec-oracle/DNSSECImpl.sol\":10812:12182  function verifySignatureWithKey(... */\n      swap7\n      pop\n      pop\n      pop\n      pop\n      pop\n      pop\n      pop\n      jump\t// out\n        /* \"packages/contracts/src/dnssec-oracle/DNSSECImpl.sol\":14126:15268  function verifyKeyWithDS(... */\n    tag_275:\n        /* \"packages/contracts/src/dnssec-oracle/DNSSECImpl.sol\":14325:14329  bool */\n      0x00\n        /* \"packages/contracts/src/dnssec-oracle/DNSSECImpl.sol\":14342:14355  uint16 keytag */\n      dup1\n        /* \"packages/contracts/src/dnssec-oracle/DNSSECImpl.sol\":14358:14382  keyrdata.computeKeytag() */\n      tag_345\n        /* \"packages/contracts/src/dnssec-oracle/DNSSECImpl.sol\":14358:14366  keyrdata */\n      dup4\n        /* \"packages/contracts/src/dnssec-oracle/DNSSECImpl.sol\":14358:14380  keyrdata.computeKeytag */\n      tag_334\n        /* \"packages/contracts/src/dnssec-oracle/DNSSECImpl.sol\":14358:14382  keyrdata.computeKeytag() */\n      jump\t// in\n    tag_345:\n        /* \"packages/contracts/src/dnssec-oracle/DNSSECImpl.sol\":14342:14382  uint16 keytag = keyrdata.computeKeytag() */\n      swap1\n      pop\n        /* \"packages/contracts/src/dnssec-oracle/DNSSECImpl.sol\":14393:15238  for (; !dsrrs.done(); dsrrs.next()) {... */\n    tag_346:\n        /* \"packages/contracts/src/dnssec-oracle/RRUtils.sol\":4721:4730  iter.data */\n      dup5\n      mload\n        /* \"packages/contracts/src/dnssec-oracle/RRUtils.sol\":4721:4737  iter.data.length */\n      mload\n        /* \"packages/contracts/src/dnssec-oracle/RRUtils.sol\":4706:4717  iter.offset */\n      0x20\n      dup7\n      add\n      mload\n        /* \"packages/contracts/src/dnssec-oracle/RRUtils.sol\":4706:4737  iter.offset >= iter.data.length */\n      lt\n      iszero\n        /* \"packages/contracts/src/dnssec-oracle/DNSSECImpl.sol\":14393:15238  for (; !dsrrs.done(); dsrrs.next()) {... */\n      tag_347\n      jumpi\n        /* \"packages/contracts/src/dnssec-oracle/DNSSECImpl.sol\":14444:14466  bytes memory proofName */\n      0x00\n        /* \"packages/contracts/src/dnssec-oracle/DNSSECImpl.sol\":14469:14481  dsrrs.name() */\n      tag_350\n        /* \"packages/contracts/src/dnssec-oracle/DNSSECImpl.sol\":14469:14474  dsrrs */\n      dup7\n        /* \"packages/contracts/src/dnssec-oracle/DNSSECImpl.sol\":14469:14479  dsrrs.name */\n      tag_147\n        /* \"packages/contracts/src/dnssec-oracle/DNSSECImpl.sol\":14469:14481  dsrrs.name() */\n      jump\t// in\n    tag_350:\n        /* \"packages/contracts/src/dnssec-oracle/DNSSECImpl.sol\":14444:14481  bytes memory proofName = dsrrs.name() */\n      swap1\n      pop\n        /* \"packages/contracts/src/dnssec-oracle/DNSSECImpl.sol\":14501:14526  proofName.equals(keyname) */\n      tag_351\n        /* \"packages/contracts/src/dnssec-oracle/DNSSECImpl.sol\":14444:14481  bytes memory proofName = dsrrs.name() */\n      dup2\n        /* \"packages/contracts/src/dnssec-oracle/DNSSECImpl.sol\":14518:14525  keyname */\n      dup9\n        /* \"packages/contracts/src/dnssec-oracle/DNSSECImpl.sol\":14501:14517  proofName.equals */\n      tag_287\n        /* \"packages/contracts/src/dnssec-oracle/DNSSECImpl.sol\":14501:14526  proofName.equals(keyname) */\n      jump\t// in\n    tag_351:\n        /* \"packages/contracts/src/dnssec-oracle/DNSSECImpl.sol\":14496:14607  if (!proofName.equals(keyname)) {... */\n      tag_352\n      jumpi\n        /* \"packages/contracts/src/dnssec-oracle/DNSSECImpl.sol\":14572:14579  keyname */\n      dup7\n        /* \"packages/contracts/src/dnssec-oracle/DNSSECImpl.sol\":14581:14590  proofName */\n      dup2\n        /* \"packages/contracts/src/dnssec-oracle/DNSSECImpl.sol\":14554:14591  ProofNameMismatch(keyname, proofName) */\n      mload(0x40)\n      shl(0xe1, 0x6b80573f)\n      dup2\n      mstore\n      0x04\n      add\n      tag_101\n      swap3\n      swap2\n      swap1\n      tag_177\n      jump\t// in\n        /* \"packages/contracts/src/dnssec-oracle/DNSSECImpl.sol\":14496:14607  if (!proofName.equals(keyname)) {... */\n    tag_352:\n        /* \"packages/contracts/src/dnssec-oracle/DNSSECImpl.sol\":14682:14699  dsrrs.rdataOffset */\n      0xa0\n      dup7\n      add\n      mload\n        /* \"packages/contracts/src/dnssec-oracle/DNSSECImpl.sol\":14718:14734  dsrrs.nextOffset */\n      0xc0\n      dup8\n      add\n      mload\n        /* \"packages/contracts/src/dnssec-oracle/DNSSECImpl.sol\":14623:14643  RRUtils.DS memory ds */\n      0x00\n      swap2\n        /* \"packages/contracts/src/dnssec-oracle/DNSSECImpl.sol\":14646:14769  dsrrs.data.readDS(... */\n      tag_354\n      swap2\n        /* \"packages/contracts/src/dnssec-oracle/DNSSECImpl.sol\":14718:14754  dsrrs.nextOffset - dsrrs.rdataOffset */\n      tag_355\n      swap1\n        /* \"packages/contracts/src/dnssec-oracle/DNSSECImpl.sol\":14682:14699  dsrrs.rdataOffset */\n      dup3\n      swap1\n        /* \"packages/contracts/src/dnssec-oracle/DNSSECImpl.sol\":14718:14754  dsrrs.nextOffset - dsrrs.rdataOffset */\n      tag_131\n      jump\t// in\n    tag_355:\n        /* \"packages/contracts/src/dnssec-oracle/DNSSECImpl.sol\":14646:14656  dsrrs.data */\n      dup10\n      mload\n      swap2\n        /* \"packages/contracts/src/dnssec-oracle/DNSSECImpl.sol\":14646:14769  dsrrs.data.readDS(... */\n      swap1\n        /* \"packages/contracts/src/dnssec-oracle/DNSSECImpl.sol\":14646:14663  dsrrs.data.readDS */\n      tag_270\n        /* \"packages/contracts/src/dnssec-oracle/DNSSECImpl.sol\":14646:14769  dsrrs.data.readDS(... */\n      jump\t// in\n    tag_354:\n        /* \"packages/contracts/src/dnssec-oracle/DNSSECImpl.sol\":14623:14769  RRUtils.DS memory ds = dsrrs.data.readDS(... */\n      swap1\n      pop\n        /* \"packages/contracts/src/dnssec-oracle/DNSSECImpl.sol\":14801:14807  keytag */\n      dup3\n        /* \"packages/contracts/src/dnssec-oracle/DNSSECImpl.sol\":14788:14807  ds.keytag != keytag */\n      0xffff\n      and\n        /* \"packages/contracts/src/dnssec-oracle/DNSSECImpl.sol\":14788:14790  ds */\n      dup2\n        /* \"packages/contracts/src/dnssec-oracle/DNSSECImpl.sol\":14788:14797  ds.keytag */\n      0x00\n      add\n      mload\n        /* \"packages/contracts/src/dnssec-oracle/DNSSECImpl.sol\":14788:14807  ds.keytag != keytag */\n      0xffff\n      and\n      eq\n        /* \"packages/contracts/src/dnssec-oracle/DNSSECImpl.sol\":14784:14852  if (ds.keytag != keytag) {... */\n      tag_357\n      jumpi\n        /* \"packages/contracts/src/dnssec-oracle/DNSSECImpl.sol\":14828:14836  continue */\n      pop\n      pop\n      jump(tag_348)\n        /* \"packages/contracts/src/dnssec-oracle/DNSSECImpl.sol\":14784:14852  if (ds.keytag != keytag) {... */\n    tag_357:\n        /* \"packages/contracts/src/dnssec-oracle/DNSSECImpl.sol\":14886:14892  dnskey */\n      dup6\n        /* \"packages/contracts/src/dnssec-oracle/DNSSECImpl.sol\":14886:14902  dnskey.algorithm */\n      0x40\n      add\n      mload\n        /* \"packages/contracts/src/dnssec-oracle/DNSSECImpl.sol\":14870:14902  ds.algorithm != dnskey.algorithm */\n      0xff\n      and\n        /* \"packages/contracts/src/dnssec-oracle/DNSSECImpl.sol\":14870:14872  ds */\n      dup2\n        /* \"packages/contracts/src/dnssec-oracle/DNSSECImpl.sol\":14870:14882  ds.algorithm */\n      0x20\n      add\n      mload\n        /* \"packages/contracts/src/dnssec-oracle/DNSSECImpl.sol\":14870:14902  ds.algorithm != dnskey.algorithm */\n      0xff\n      and\n      eq\n        /* \"packages/contracts/src/dnssec-oracle/DNSSECImpl.sol\":14866:14947  if (ds.algorithm != dnskey.algorithm) {... */\n      tag_358\n      jumpi\n        /* \"packages/contracts/src/dnssec-oracle/DNSSECImpl.sol\":14923:14931  continue */\n      pop\n      pop\n      jump(tag_348)\n        /* \"packages/contracts/src/dnssec-oracle/DNSSECImpl.sol\":14866:14947  if (ds.algorithm != dnskey.algorithm) {... */\n    tag_358:\n      0x40\n      dup1\n      mload\n      dup1\n      dup3\n      add\n      swap1\n      swap2\n      mstore\n      0x60\n      dup2\n      mstore\n      0x00\n      0x20\n      dup3\n      add\n      mstore\n        /* \"packages/contracts/src/dnssec-oracle/DNSSECImpl.sol\":15002:15044  buf.init(keyname.length + keyrdata.length) */\n      tag_361\n        /* \"packages/contracts/src/dnssec-oracle/DNSSECImpl.sol\":15028:15036  keyrdata */\n      dup7\n        /* \"packages/contracts/src/dnssec-oracle/DNSSECImpl.sol\":15028:15043  keyrdata.length */\n      mload\n        /* \"packages/contracts/src/dnssec-oracle/DNSSECImpl.sol\":15011:15018  keyname */\n      dup11\n        /* \"packages/contracts/src/dnssec-oracle/DNSSECImpl.sol\":15011:15025  keyname.length */\n      mload\n        /* \"packages/contracts/src/dnssec-oracle/DNSSECImpl.sol\":15011:15043  keyname.length + keyrdata.length */\n      tag_362\n      swap2\n      swap1\n      tag_129\n      jump\t// in\n    tag_362:\n        /* \"packages/contracts/src/dnssec-oracle/DNSSECImpl.sol\":15002:15005  buf */\n      dup3\n      swap1\n        /* \"packages/contracts/src/dnssec-oracle/DNSSECImpl.sol\":15002:15010  buf.init */\n      tag_363\n        /* \"packages/contracts/src/dnssec-oracle/DNSSECImpl.sol\":15002:15044  buf.init(keyname.length + keyrdata.length) */\n      jump\t// in\n    tag_361:\n      pop\n        /* \"packages/contracts/src/dnssec-oracle/DNSSECImpl.sol\":15059:15078  buf.append(keyname) */\n      tag_364\n        /* \"packages/contracts/src/dnssec-oracle/DNSSECImpl.sol\":15059:15062  buf */\n      dup2\n        /* \"packages/contracts/src/dnssec-oracle/DNSSECImpl.sol\":15070:15077  keyname */\n      dup11\n        /* \"packages/contracts/src/dnssec-oracle/DNSSECImpl.sol\":15059:15069  buf.append */\n      tag_365\n        /* \"packages/contracts/src/dnssec-oracle/DNSSECImpl.sol\":15059:15078  buf.append(keyname) */\n      jump\t// in\n    tag_364:\n      pop\n        /* \"packages/contracts/src/dnssec-oracle/DNSSECImpl.sol\":15093:15113  buf.append(keyrdata) */\n      tag_366\n        /* \"packages/contracts/src/dnssec-oracle/DNSSECImpl.sol\":15093:15096  buf */\n      dup2\n        /* \"packages/contracts/src/dnssec-oracle/DNSSECImpl.sol\":15104:15112  keyrdata */\n      dup8\n        /* \"packages/contracts/src/dnssec-oracle/DNSSECImpl.sol\":15093:15103  buf.append */\n      tag_365\n        /* \"packages/contracts/src/dnssec-oracle/DNSSECImpl.sol\":15093:15113  buf.append(keyrdata) */\n      jump\t// in\n    tag_366:\n      pop\n        /* \"packages/contracts/src/dnssec-oracle/DNSSECImpl.sol\":15132:15179  verifyDSHash(ds.digestType, buf.buf, ds.digest) */\n      tag_367\n        /* \"packages/contracts/src/dnssec-oracle/DNSSECImpl.sol\":15145:15147  ds */\n      dup3\n        /* \"packages/contracts/src/dnssec-oracle/DNSSECImpl.sol\":15145:15158  ds.digestType */\n      0x40\n      add\n      mload\n        /* \"packages/contracts/src/dnssec-oracle/DNSSECImpl.sol\":15160:15163  buf */\n      dup3\n        /* \"packages/contracts/src/dnssec-oracle/DNSSECImpl.sol\":15160:15167  buf.buf */\n      0x00\n      add\n      mload\n        /* \"packages/contracts/src/dnssec-oracle/DNSSECImpl.sol\":15169:15171  ds */\n      dup5\n        /* \"packages/contracts/src/dnssec-oracle/DNSSECImpl.sol\":15169:15178  ds.digest */\n      0x60\n      add\n      mload\n        /* \"packages/contracts/src/dnssec-oracle/DNSSECImpl.sol\":15132:15144  verifyDSHash */\n      tag_368\n        /* \"packages/contracts/src/dnssec-oracle/DNSSECImpl.sol\":15132:15179  verifyDSHash(ds.digestType, buf.buf, ds.digest) */\n      jump\t// in\n    tag_367:\n        /* \"packages/contracts/src/dnssec-oracle/DNSSECImpl.sol\":15128:15227  if (verifyDSHash(ds.digestType, buf.buf, ds.digest)) {... */\n      iszero\n      tag_369\n      jumpi\n        /* \"packages/contracts/src/dnssec-oracle/DNSSECImpl.sol\":15207:15211  true */\n      0x01\n        /* \"packages/contracts/src/dnssec-oracle/DNSSECImpl.sol\":15200:15211  return true */\n      swap5\n      pop\n      pop\n      pop\n      pop\n      pop\n      jump(tag_200)\n        /* \"packages/contracts/src/dnssec-oracle/DNSSECImpl.sol\":15128:15227  if (verifyDSHash(ds.digestType, buf.buf, ds.digest)) {... */\n    tag_369:\n        /* \"packages/contracts/src/dnssec-oracle/DNSSECImpl.sol\":14429:15238  {... */\n      pop\n      pop\n      pop\n        /* \"packages/contracts/src/dnssec-oracle/DNSSECImpl.sol\":14393:15238  for (; !dsrrs.done(); dsrrs.next()) {... */\n    tag_348:\n        /* \"packages/contracts/src/dnssec-oracle/DNSSECImpl.sol\":14415:14427  dsrrs.next() */\n      tag_370\n        /* \"packages/contracts/src/dnssec-oracle/DNSSECImpl.sol\":14415:14420  dsrrs */\n      dup6\n        /* \"packages/contracts/src/dnssec-oracle/DNSSECImpl.sol\":14415:14425  dsrrs.next */\n      tag_159\n        /* \"packages/contracts/src/dnssec-oracle/DNSSECImpl.sol\":14415:14427  dsrrs.next() */\n      jump\t// in\n    tag_370:\n        /* \"packages/contracts/src/dnssec-oracle/DNSSECImpl.sol\":14393:15238  for (; !dsrrs.done(); dsrrs.next()) {... */\n      jump(tag_346)\n    tag_347:\n      pop\n        /* \"packages/contracts/src/dnssec-oracle/DNSSECImpl.sol\":15255:15260  false */\n      0x00\n      swap6\n        /* \"packages/contracts/src/dnssec-oracle/DNSSECImpl.sol\":14126:15268  function verifyKeyWithDS(... */\n      swap5\n      pop\n      pop\n      pop\n      pop\n      pop\n      jump\t// out\n        /* \"packages/contracts/src/dnssec-oracle/BytesUtils.sol\":5813:6043  function equals(... */\n    tag_287:\n        /* \"packages/contracts/src/dnssec-oracle/BytesUtils.sol\":5916:5920  bool */\n      0x00\n        /* \"packages/contracts/src/dnssec-oracle/BytesUtils.sol\":5968:5973  other */\n      dup2\n        /* \"packages/contracts/src/dnssec-oracle/BytesUtils.sol\":5968:5980  other.length */\n      mload\n        /* \"packages/contracts/src/dnssec-oracle/BytesUtils.sol\":5953:5957  self */\n      dup4\n        /* \"packages/contracts/src/dnssec-oracle/BytesUtils.sol\":5953:5964  self.length */\n      mload\n        /* \"packages/contracts/src/dnssec-oracle/BytesUtils.sol\":5953:5980  self.length == other.length */\n      eq\n        /* \"packages/contracts/src/dnssec-oracle/BytesUtils.sol\":5953:6035  self.length == other.length &&... */\n      dup1\n      iszero\n      tag_162\n      jumpi\n      pop\n        /* \"packages/contracts/src/dnssec-oracle/BytesUtils.sol\":5997:6035  equals(self, 0, other, 0, self.length) */\n      tag_162\n        /* \"packages/contracts/src/dnssec-oracle/BytesUtils.sol\":6004:6008  self */\n      dup4\n        /* \"packages/contracts/src/dnssec-oracle/BytesUtils.sol\":6010:6011  0 */\n      0x00\n        /* \"packages/contracts/src/dnssec-oracle/BytesUtils.sol\":6013:6018  other */\n      dup5\n        /* \"packages/contracts/src/dnssec-oracle/BytesUtils.sol\":6020:6021  0 */\n      0x00\n        /* \"packages/contracts/src/dnssec-oracle/BytesUtils.sol\":6023:6027  self */\n      dup8\n        /* \"packages/contracts/src/dnssec-oracle/BytesUtils.sol\":6023:6034  self.length */\n      mload\n        /* \"packages/contracts/src/dnssec-oracle/BytesUtils.sol\":5997:6003  equals */\n      tag_153\n        /* \"packages/contracts/src/dnssec-oracle/BytesUtils.sol\":5997:6035  equals(self, 0, other, 0, self.length) */\n      jump\t// in\n        /* \"packages/contracts/src/dnssec-oracle/RRUtils.sol\":10503:14574  function computeKeytag(bytes memory data) internal pure returns (uint16) {... */\n    tag_334:\n        /* \"packages/contracts/src/dnssec-oracle/RRUtils.sol\":10568:10574  uint16 */\n      0x00\n        /* \"packages/contracts/src/dnssec-oracle/RRUtils.sol\":12387:12391  8192 */\n      0x2000\n        /* \"packages/contracts/src/dnssec-oracle/RRUtils.sol\":12372:12376  data */\n      dup3\n        /* \"packages/contracts/src/dnssec-oracle/RRUtils.sol\":12372:12383  data.length */\n      mload\n        /* \"packages/contracts/src/dnssec-oracle/RRUtils.sol\":12372:12391  data.length <= 8192 */\n      gt\n      iszero\n        /* \"packages/contracts/src/dnssec-oracle/RRUtils.sol\":12364:12419  require(data.length <= 8192, \"Long keys not permitted\") */\n      tag_375\n      jumpi\n      mload(0x40)\n      shl(0xe5, 0x461bcd)\n      dup2\n      mstore\n        /* \"#utility.yul\":10965:10967   */\n      0x20\n        /* \"packages/contracts/src/dnssec-oracle/RRUtils.sol\":12364:12419  require(data.length <= 8192, \"Long keys not permitted\") */\n      0x04\n      dup3\n      add\n        /* \"#utility.yul\":10947:10968   */\n      mstore\n        /* \"#utility.yul\":11004:11006   */\n      0x17\n        /* \"#utility.yul\":10984:11002   */\n      0x24\n      dup3\n      add\n        /* \"#utility.yul\":10977:11007   */\n      mstore\n        /* \"#utility.yul\":11043:11068   */\n      0x4c6f6e67206b657973206e6f74207065726d6974746564000000000000000000\n        /* \"#utility.yul\":11023:11041   */\n      0x44\n      dup3\n      add\n        /* \"#utility.yul\":11016:11069   */\n      mstore\n        /* \"#utility.yul\":11086:11104   */\n      0x64\n      add\n        /* \"packages/contracts/src/dnssec-oracle/RRUtils.sol\":12364:12419  require(data.length <= 8192, \"Long keys not permitted\") */\n      tag_101\n        /* \"#utility.yul\":10763:11110   */\n      jump\n        /* \"packages/contracts/src/dnssec-oracle/RRUtils.sol\":12364:12419  require(data.length <= 8192, \"Long keys not permitted\") */\n    tag_375:\n        /* \"packages/contracts/src/dnssec-oracle/RRUtils.sol\":12434:12445  uint256 ac1 */\n      0x00\n        /* \"packages/contracts/src/dnssec-oracle/RRUtils.sol\":12460:12471  uint256 ac2 */\n      dup1\n        /* \"packages/contracts/src/dnssec-oracle/RRUtils.sol\":12491:12500  uint256 i */\n      0x00\n        /* \"packages/contracts/src/dnssec-oracle/RRUtils.sol\":12486:13171  for (uint256 i = 0; i < data.length + 31; i += 32) {... */\n    tag_378:\n        /* \"packages/contracts/src/dnssec-oracle/RRUtils.sol\":12510:12514  data */\n      dup5\n        /* \"packages/contracts/src/dnssec-oracle/RRUtils.sol\":12510:12521  data.length */\n      mload\n        /* \"packages/contracts/src/dnssec-oracle/RRUtils.sol\":12524:12526  31 */\n      0x1f\n        /* \"packages/contracts/src/dnssec-oracle/RRUtils.sol\":12510:12526  data.length + 31 */\n      add\n        /* \"packages/contracts/src/dnssec-oracle/RRUtils.sol\":12506:12507  i */\n      dup2\n        /* \"packages/contracts/src/dnssec-oracle/RRUtils.sol\":12506:12526  i < data.length + 31 */\n      lt\n        /* \"packages/contracts/src/dnssec-oracle/RRUtils.sol\":12486:13171  for (uint256 i = 0; i < data.length + 31; i += 32) {... */\n      iszero\n      tag_379\n      jumpi\n        /* \"packages/contracts/src/dnssec-oracle/RRUtils.sol\":12556:12568  uint256 word */\n      0x00\n        /* \"packages/contracts/src/dnssec-oracle/RRUtils.sol\":12652:12653  i */\n      dup2\n        /* \"packages/contracts/src/dnssec-oracle/RRUtils.sol\":12647:12649  32 */\n      0x20\n        /* \"packages/contracts/src/dnssec-oracle/RRUtils.sol\":12641:12645  data */\n      dup8\n        /* \"packages/contracts/src/dnssec-oracle/RRUtils.sol\":12637:12650  add(data, 32) */\n      add\n        /* \"packages/contracts/src/dnssec-oracle/RRUtils.sol\":12633:12654  add(add(data, 32), i) */\n      add\n        /* \"packages/contracts/src/dnssec-oracle/RRUtils.sol\":12627:12655  mload(add(add(data, 32), i)) */\n      mload\n        /* \"packages/contracts/src/dnssec-oracle/RRUtils.sol\":12619:12655  word := mload(add(add(data, 32), i)) */\n      swap1\n      pop\n        /* \"packages/contracts/src/dnssec-oracle/RRUtils.sol\":12705:12709  data */\n      dup6\n        /* \"packages/contracts/src/dnssec-oracle/RRUtils.sol\":12705:12716  data.length */\n      mload\n        /* \"packages/contracts/src/dnssec-oracle/RRUtils.sol\":12696:12697  i */\n      dup3\n        /* \"packages/contracts/src/dnssec-oracle/RRUtils.sol\":12700:12702  32 */\n      0x20\n        /* \"packages/contracts/src/dnssec-oracle/RRUtils.sol\":12696:12702  i + 32 */\n      add\n        /* \"packages/contracts/src/dnssec-oracle/RRUtils.sol\":12696:12716  i + 32 > data.length */\n      gt\n        /* \"packages/contracts/src/dnssec-oracle/RRUtils.sol\":12692:12861  if (i + 32 > data.length) {... */\n      iszero\n      tag_381\n      jumpi\n        /* \"packages/contracts/src/dnssec-oracle/RRUtils.sol\":12765:12776  data.length */\n      dup6\n      mload\n        /* \"packages/contracts/src/dnssec-oracle/RRUtils.sol\":12765:12780  data.length - i */\n      dup3\n      swap1\n      sub\n        /* \"packages/contracts/src/dnssec-oracle/RRUtils.sol\":12784:12785  8 */\n      0x08\n        /* \"packages/contracts/src/dnssec-oracle/RRUtils.sol\":12764:12785  (data.length - i) * 8 */\n      mul\n        /* \"packages/contracts/src/dnssec-oracle/RRUtils.sol\":12758:12761  256 */\n      0x0100\n        /* \"packages/contracts/src/dnssec-oracle/RRUtils.sol\":12758:12785  256 - (data.length - i) * 8 */\n      sub\n        /* \"packages/contracts/src/dnssec-oracle/RRUtils.sol\":12816:12830  word >> unused */\n      swap1\n      dup2\n      shr\n        /* \"packages/contracts/src/dnssec-oracle/RRUtils.sol\":12815:12841  (word >> unused) << unused */\n      swap1\n      shl\n        /* \"packages/contracts/src/dnssec-oracle/RRUtils.sol\":12692:12861  if (i + 32 > data.length) {... */\n    tag_381:\n        /* \"packages/contracts/src/dnssec-oracle/RRUtils.sol\":12907:13033  (word &... */\n      0xff00ff00ff00ff00ff00ff00ff00ff00ff00ff00ff00ff00ff00ff00ff00ff\n        /* \"packages/contracts/src/dnssec-oracle/RRUtils.sol\":13032:13033  8 */\n      0x08\n        /* \"packages/contracts/src/dnssec-oracle/RRUtils.sol\":12907:13033  (word &... */\n      dup3\n      swap1\n      shr\n      dup2\n      and\n        /* \"packages/contracts/src/dnssec-oracle/RRUtils.sol\":12879:13033  ac1 +=... */\n      swap5\n      swap1\n      swap5\n      add\n      swap4\n        /* \"packages/contracts/src/dnssec-oracle/RRUtils.sol\":13060:13154  word &... */\n      and\n        /* \"packages/contracts/src/dnssec-oracle/RRUtils.sol\":13052:13155  ac2 += (word &... */\n      swap2\n      swap1\n      swap2\n      add\n      swap1\n        /* \"packages/contracts/src/dnssec-oracle/RRUtils.sol\":12533:12535  32 */\n      0x20\n        /* \"packages/contracts/src/dnssec-oracle/RRUtils.sol\":12528:12535  i += 32 */\n      add\n        /* \"packages/contracts/src/dnssec-oracle/RRUtils.sol\":12486:13171  for (uint256 i = 0; i < data.length + 31; i += 32) {... */\n      jump(tag_378)\n    tag_379:\n      pop\n        /* \"packages/contracts/src/dnssec-oracle/RRUtils.sol\":13444:13446  16 */\n      0x10\n        /* \"packages/contracts/src/dnssec-oracle/RRUtils.sol\":13325:13328  ac1 */\n      dup3\n        /* \"packages/contracts/src/dnssec-oracle/RRUtils.sol\":13352:13418  0xFFFF0000FFFF0000FFFF0000FFFF0000FFFF0000FFFF0000FFFF0000FFFF0000 */\n      0xffff0000ffff0000ffff0000ffff0000ffff0000ffff0000ffff0000ffff0000\n        /* \"packages/contracts/src/dnssec-oracle/RRUtils.sol\":13325:13418  ac1 &... */\n      and\n        /* \"packages/contracts/src/dnssec-oracle/RRUtils.sol\":13324:13446  (ac1 &... */\n      swap1\n      shr\n        /* \"packages/contracts/src/dnssec-oracle/RRUtils.sol\":13209:13212  ac1 */\n      dup3\n        /* \"packages/contracts/src/dnssec-oracle/RRUtils.sol\":13236:13302  0x0000FFFF0000FFFF0000FFFF0000FFFF0000FFFF0000FFFF0000FFFF0000FFFF */\n      0xffff0000ffff0000ffff0000ffff0000ffff0000ffff0000ffff0000ffff\n        /* \"packages/contracts/src/dnssec-oracle/RRUtils.sol\":13209:13302  ac1 &... */\n      and\n        /* \"packages/contracts/src/dnssec-oracle/RRUtils.sol\":13208:13447  (ac1 &... */\n      add\n        /* \"packages/contracts/src/dnssec-oracle/RRUtils.sol\":13185:13447  ac1 =... */\n      swap2\n      pop\n        /* \"packages/contracts/src/dnssec-oracle/RRUtils.sol\":13721:13723  16 */\n      0x10\n        /* \"packages/contracts/src/dnssec-oracle/RRUtils.sol\":13602:13605  ac2 */\n      dup2\n        /* \"packages/contracts/src/dnssec-oracle/RRUtils.sol\":13629:13695  0xFFFF0000FFFF0000FFFF0000FFFF0000FFFF0000FFFF0000FFFF0000FFFF0000 */\n      0xffff0000ffff0000ffff0000ffff0000ffff0000ffff0000ffff0000ffff0000\n        /* \"packages/contracts/src/dnssec-oracle/RRUtils.sol\":13602:13695  ac2 &... */\n      and\n        /* \"packages/contracts/src/dnssec-oracle/RRUtils.sol\":13601:13723  (ac2 &... */\n      swap1\n      shr\n        /* \"packages/contracts/src/dnssec-oracle/RRUtils.sol\":13486:13489  ac2 */\n      dup2\n        /* \"packages/contracts/src/dnssec-oracle/RRUtils.sol\":13513:13579  0x0000FFFF0000FFFF0000FFFF0000FFFF0000FFFF0000FFFF0000FFFF0000FFFF */\n      0xffff0000ffff0000ffff0000ffff0000ffff0000ffff0000ffff0000ffff\n        /* \"packages/contracts/src/dnssec-oracle/RRUtils.sol\":13486:13579  ac2 &... */\n      and\n        /* \"packages/contracts/src/dnssec-oracle/RRUtils.sol\":13485:13724  (ac2 &... */\n      add\n        /* \"packages/contracts/src/dnssec-oracle/RRUtils.sol\":13462:13724  ac2 =... */\n      swap1\n      pop\n        /* \"packages/contracts/src/dnssec-oracle/RRUtils.sol\":13758:13761  ac2 */\n      dup1\n        /* \"packages/contracts/src/dnssec-oracle/RRUtils.sol\":13753:13754  8 */\n      0x08\n        /* \"packages/contracts/src/dnssec-oracle/RRUtils.sol\":13746:13749  ac1 */\n      dup4\n        /* \"packages/contracts/src/dnssec-oracle/RRUtils.sol\":13746:13754  ac1 << 8 */\n      swap1\n      shl\n        /* \"packages/contracts/src/dnssec-oracle/RRUtils.sol\":13745:13761  (ac1 << 8) + ac2 */\n      add\n        /* \"packages/contracts/src/dnssec-oracle/RRUtils.sol\":13739:13761  ac1 = (ac1 << 8) + ac2 */\n      swap2\n      pop\n        /* \"packages/contracts/src/dnssec-oracle/RRUtils.sol\":14035:14037  32 */\n      0x20\n        /* \"packages/contracts/src/dnssec-oracle/RRUtils.sol\":13916:13919  ac1 */\n      dup3\n        /* \"packages/contracts/src/dnssec-oracle/RRUtils.sol\":13943:14009  0xFFFFFFFF00000000FFFFFFFF00000000FFFFFFFF00000000FFFFFFFF00000000 */\n      0xffffffff00000000ffffffff00000000ffffffff00000000ffffffff00000000\n        /* \"packages/contracts/src/dnssec-oracle/RRUtils.sol\":13916:14009  ac1 &... */\n      and\n        /* \"packages/contracts/src/dnssec-oracle/RRUtils.sol\":13915:14037  (ac1 &... */\n      swap1\n      shr\n        /* \"packages/contracts/src/dnssec-oracle/RRUtils.sol\":13800:13803  ac1 */\n      dup3\n        /* \"packages/contracts/src/dnssec-oracle/RRUtils.sol\":13827:13893  0x00000000FFFFFFFF00000000FFFFFFFF00000000FFFFFFFF00000000FFFFFFFF */\n      0xffffffff00000000ffffffff00000000ffffffff00000000ffffffff\n        /* \"packages/contracts/src/dnssec-oracle/RRUtils.sol\":13800:13893  ac1 &... */\n      and\n        /* \"packages/contracts/src/dnssec-oracle/RRUtils.sol\":13799:14038  (ac1 &... */\n      add\n        /* \"packages/contracts/src/dnssec-oracle/RRUtils.sol\":13776:14038  ac1 =... */\n      swap2\n      pop\n        /* \"packages/contracts/src/dnssec-oracle/RRUtils.sol\":14312:14314  64 */\n      0x40\n        /* \"packages/contracts/src/dnssec-oracle/RRUtils.sol\":14193:14196  ac1 */\n      dup3\n      not(0xffffffffffffffff0000000000000000ffffffffffffffff)\n        /* \"packages/contracts/src/dnssec-oracle/RRUtils.sol\":14193:14286  ac1 &... */\n      and\n        /* \"packages/contracts/src/dnssec-oracle/RRUtils.sol\":14192:14314  (ac1 &... */\n      swap1\n      shr\n        /* \"packages/contracts/src/dnssec-oracle/RRUtils.sol\":14077:14080  ac1 */\n      dup3\n        /* \"packages/contracts/src/dnssec-oracle/RRUtils.sol\":14104:14170  0x0000000000000000FFFFFFFFFFFFFFFF0000000000000000FFFFFFFFFFFFFFFF */\n      0xffffffffffffffff0000000000000000ffffffffffffffff\n        /* \"packages/contracts/src/dnssec-oracle/RRUtils.sol\":14077:14170  ac1 &... */\n      and\n        /* \"packages/contracts/src/dnssec-oracle/RRUtils.sol\":14076:14315  (ac1 &... */\n      add\n        /* \"packages/contracts/src/dnssec-oracle/RRUtils.sol\":14053:14315  ac1 =... */\n      swap2\n      pop\n        /* \"packages/contracts/src/dnssec-oracle/RRUtils.sol\":14476:14479  128 */\n      0x80\n        /* \"packages/contracts/src/dnssec-oracle/RRUtils.sol\":14469:14472  ac1 */\n      dup3\n        /* \"packages/contracts/src/dnssec-oracle/RRUtils.sol\":14469:14479  ac1 >> 128 */\n      swap1\n      shr\n        /* \"packages/contracts/src/dnssec-oracle/RRUtils.sol\":14354:14357  ac1 */\n      dup3\n        /* \"packages/contracts/src/dnssec-oracle/RRUtils.sol\":14381:14447  0x00000000000000000000000000000000FFFFFFFFFFFFFFFFFFFFFFFFFFFFFFFF */\n      0xffffffffffffffffffffffffffffffff\n        /* \"packages/contracts/src/dnssec-oracle/RRUtils.sol\":14354:14447  ac1 &... */\n      and\n        /* \"packages/contracts/src/dnssec-oracle/RRUtils.sol\":14353:14480  (ac1 &... */\n      add\n        /* \"packages/contracts/src/dnssec-oracle/RRUtils.sol\":14330:14480  ac1 =... */\n      swap2\n      pop\n        /* \"packages/contracts/src/dnssec-oracle/RRUtils.sol\":14510:14512  16 */\n      0x10\n        /* \"packages/contracts/src/dnssec-oracle/RRUtils.sol\":14503:14506  ac1 */\n      dup3\n        /* \"packages/contracts/src/dnssec-oracle/RRUtils.sol\":14503:14512  ac1 >> 16 */\n      swap1\n      shr\n        /* \"packages/contracts/src/dnssec-oracle/RRUtils.sol\":14516:14522  0xFFFF */\n      0xffff\n        /* \"packages/contracts/src/dnssec-oracle/RRUtils.sol\":14502:14522  (ac1 >> 16) & 0xFFFF */\n      and\n        /* \"packages/contracts/src/dnssec-oracle/RRUtils.sol\":14495:14522  ac1 += (ac1 >> 16) & 0xFFFF */\n      dup3\n      add\n      swap2\n      pop\n        /* \"packages/contracts/src/dnssec-oracle/RRUtils.sol\":14551:14554  ac1 */\n      dup2\n        /* \"packages/contracts/src/dnssec-oracle/RRUtils.sol\":14537:14555  return uint16(ac1) */\n      swap3\n      pop\n      pop\n      pop\n        /* \"packages/contracts/src/dnssec-oracle/RRUtils.sol\":10503:14574  function computeKeytag(bytes memory data) internal pure returns (uint16) {... */\n      swap2\n      swap1\n      pop\n      jump\t// out\n        /* \"@ensdomains/buffer/contracts/Buffer.sol\":1020:1575  function init(buffer memory buf, uint capacity) internal pure returns(buffer memory) {... */\n    tag_363:\n      0x40\n      dup1\n      mload\n      dup1\n      dup3\n      add\n      swap1\n      swap2\n      mstore\n      0x60\n      dup2\n      mstore\n      0x00\n      0x20\n      dup3\n      add\n      mstore\n        /* \"@ensdomains/buffer/contracts/Buffer.sol\":1119:1132  capacity % 32 */\n      tag_396\n        /* \"@ensdomains/buffer/contracts/Buffer.sol\":1130:1132  32 */\n      0x20\n        /* \"@ensdomains/buffer/contracts/Buffer.sol\":1119:1127  capacity */\n      dup4\n        /* \"@ensdomains/buffer/contracts/Buffer.sol\":1119:1132  capacity % 32 */\n      tag_397\n      jump\t// in\n    tag_396:\n        /* \"@ensdomains/buffer/contracts/Buffer.sol\":1119:1137  capacity % 32 != 0 */\n      iszero\n        /* \"@ensdomains/buffer/contracts/Buffer.sol\":1115:1196  if (capacity % 32 != 0) {... */\n      tag_398\n      jumpi\n        /* \"@ensdomains/buffer/contracts/Buffer.sol\":1171:1184  capacity % 32 */\n      tag_399\n        /* \"@ensdomains/buffer/contracts/Buffer.sol\":1182:1184  32 */\n      0x20\n        /* \"@ensdomains/buffer/contracts/Buffer.sol\":1171:1179  capacity */\n      dup4\n        /* \"@ensdomains/buffer/contracts/Buffer.sol\":1171:1184  capacity % 32 */\n      tag_397\n      jump\t// in\n    tag_399:\n        /* \"@ensdomains/buffer/contracts/Buffer.sol\":1165:1185  32 - (capacity % 32) */\n      tag_400\n      swap1\n        /* \"@ensdomains/buffer/contracts/Buffer.sol\":1165:1167  32 */\n      0x20\n        /* \"@ensdomains/buffer/contracts/Buffer.sol\":1165:1185  32 - (capacity % 32) */\n      tag_131\n      jump\t// in\n    tag_400:\n        /* \"@ensdomains/buffer/contracts/Buffer.sol\":1153:1185  capacity += 32 - (capacity % 32) */\n      tag_401\n      swap1\n      dup4\n      tag_129\n      jump\t// in\n    tag_401:\n      swap2\n      pop\n        /* \"@ensdomains/buffer/contracts/Buffer.sol\":1115:1196  if (capacity % 32 != 0) {... */\n    tag_398:\n        /* \"@ensdomains/buffer/contracts/Buffer.sol\":1251:1263  buf.capacity */\n      0x20\n      dup1\n      dup5\n      add\n        /* \"@ensdomains/buffer/contracts/Buffer.sol\":1251:1274  buf.capacity = capacity */\n      dup4\n      swap1\n      mstore\n        /* \"@ensdomains/buffer/contracts/Buffer.sol\":1324:1328  0x40 */\n      0x40\n        /* \"@ensdomains/buffer/contracts/Buffer.sol\":1318:1329  mload(0x40) */\n      mload\n        /* \"@ensdomains/buffer/contracts/Buffer.sol\":1342:1358  mstore(buf, ptr) */\n      dup1\n      dup6\n      mstore\n      0x00\n        /* \"@ensdomains/buffer/contracts/Buffer.sol\":1371:1385  mstore(ptr, 0) */\n      dup2\n      mstore\n        /* \"@ensdomains/buffer/contracts/Buffer.sol\":1318:1329  mload(0x40) */\n      swap1\n        /* \"@ensdomains/buffer/contracts/Buffer.sol\":1417:1435  add(ptr, capacity) */\n      dup2\n      dup5\n      add\n        /* \"@ensdomains/buffer/contracts/Buffer.sol\":1409:1436  add(32, add(ptr, capacity)) */\n      add\n        /* \"@ensdomains/buffer/contracts/Buffer.sol\":1452:1464  lt(fpm, ptr) */\n      dup2\n      dup2\n      lt\n        /* \"@ensdomains/buffer/contracts/Buffer.sol\":1449:1509  if lt(fpm, ptr) {... */\n      iszero\n      tag_402\n      jumpi\n        /* \"@ensdomains/buffer/contracts/Buffer.sol\":1493:1494  0 */\n      0x00\n        /* \"@ensdomains/buffer/contracts/Buffer.sol\":1490:1491  0 */\n      dup1\n        /* \"@ensdomains/buffer/contracts/Buffer.sol\":1483:1495  revert(0, 0) */\n      revert\n        /* \"@ensdomains/buffer/contracts/Buffer.sol\":1449:1509  if lt(fpm, ptr) {... */\n    tag_402:\n        /* \"@ensdomains/buffer/contracts/Buffer.sol\":1529:1533  0x40 */\n      0x40\n        /* \"@ensdomains/buffer/contracts/Buffer.sol\":1522:1539  mstore(0x40, fpm) */\n      mstore\n      pop\n        /* \"@ensdomains/buffer/contracts/Buffer.sol\":1565:1568  buf */\n      swap2\n      swap3\n        /* \"@ensdomains/buffer/contracts/Buffer.sol\":1020:1575  function init(buffer memory buf, uint capacity) internal pure returns(buffer memory) {... */\n      swap2\n      pop\n      pop\n      jump\t// out\n        /* \"@ensdomains/buffer/contracts/Buffer.sol\":4539:4685  function append(buffer memory buf, bytes memory data) internal pure returns (buffer memory) {... */\n    tag_365:\n      0x40\n      dup1\n      mload\n      dup1\n      dup3\n      add\n      swap1\n      swap2\n      mstore\n      0x60\n      dup2\n      mstore\n      0x00\n      0x20\n      dup3\n      add\n      mstore\n        /* \"@ensdomains/buffer/contracts/Buffer.sol\":4648:4678  append(buf, data, data.length) */\n      tag_162\n        /* \"@ensdomains/buffer/contracts/Buffer.sol\":4655:4658  buf */\n      dup4\n        /* \"@ensdomains/buffer/contracts/Buffer.sol\":4660:4664  data */\n      dup4\n        /* \"@ensdomains/buffer/contracts/Buffer.sol\":4666:4670  data */\n      dup5\n        /* \"@ensdomains/buffer/contracts/Buffer.sol\":4666:4677  data.length */\n      mload\n        /* \"@ensdomains/buffer/contracts/Buffer.sol\":4648:4654  append */\n      tag_406\n        /* \"@ensdomains/buffer/contracts/Buffer.sol\":4648:4678  append(buf, data, data.length) */\n      jump\t// in\n        /* \"packages/contracts/src/dnssec-oracle/DNSSECImpl.sol\":15571:15877  function verifyDSHash(... */\n    tag_368:\n        /* \"packages/contracts/src/dnssec-oracle/DNSSECImpl.sol\":15737:15756  digests[digesttype] */\n      0xff\n      dup4\n      and\n        /* \"packages/contracts/src/dnssec-oracle/DNSSECImpl.sol\":15708:15712  bool */\n      0x00\n        /* \"packages/contracts/src/dnssec-oracle/DNSSECImpl.sol\":15737:15756  digests[digesttype] */\n      swap1\n      dup2\n      mstore\n        /* \"packages/contracts/src/dnssec-oracle/DNSSECImpl.sol\":15737:15744  digests */\n      0x03\n        /* \"packages/contracts/src/dnssec-oracle/DNSSECImpl.sol\":15737:15756  digests[digesttype] */\n      0x20\n      mstore\n      0x40\n      dup2\n      keccak256\n      sload\n      sub(shl(0xa0, 0x01), 0x01)\n      and\n        /* \"packages/contracts/src/dnssec-oracle/DNSSECImpl.sol\":15725:15812  if (address(digests[digesttype]) == address(0)) {... */\n      tag_408\n      jumpi\n      pop\n        /* \"packages/contracts/src/dnssec-oracle/DNSSECImpl.sol\":15795:15800  false */\n      0x00\n        /* \"packages/contracts/src/dnssec-oracle/DNSSECImpl.sol\":15788:15800  return false */\n      jump(tag_93)\n        /* \"packages/contracts/src/dnssec-oracle/DNSSECImpl.sol\":15725:15812  if (address(digests[digesttype]) == address(0)) {... */\n    tag_408:\n        /* \"packages/contracts/src/dnssec-oracle/DNSSECImpl.sol\":15829:15848  digests[digesttype] */\n      0xff\n      dup5\n      and\n      0x00\n      swap1\n      dup2\n      mstore\n        /* \"packages/contracts/src/dnssec-oracle/DNSSECImpl.sol\":15829:15836  digests */\n      0x03\n        /* \"packages/contracts/src/dnssec-oracle/DNSSECImpl.sol\":15829:15848  digests[digesttype] */\n      0x20\n      mstore\n      0x40\n      swap1\n      dup2\n      swap1\n      keccak256\n      sload\n        /* \"packages/contracts/src/dnssec-oracle/DNSSECImpl.sol\":15829:15869  digests[digesttype].verify(data, digest) */\n      swap1\n      mload\n      shl(0xe1, 0x7bf41d77)\n      dup2\n      mstore\n      sub(shl(0xa0, 0x01), 0x01)\n        /* \"packages/contracts/src/dnssec-oracle/DNSSECImpl.sol\":15829:15848  digests[digesttype] */\n      swap1\n      swap2\n      and\n      swap1\n        /* \"packages/contracts/src/dnssec-oracle/DNSSECImpl.sol\":15829:15855  digests[digesttype].verify */\n      0xf7e83aee\n      swap1\n        /* \"packages/contracts/src/dnssec-oracle/DNSSECImpl.sol\":15829:15869  digests[digesttype].verify(data, digest) */\n      tag_409\n      swap1\n        /* \"packages/contracts/src/dnssec-oracle/DNSSECImpl.sol\":15856:15860  data */\n      dup7\n      swap1\n        /* \"packages/contracts/src/dnssec-oracle/DNSSECImpl.sol\":15862:15868  digest */\n      dup7\n      swap1\n        /* \"packages/contracts/src/dnssec-oracle/DNSSECImpl.sol\":15829:15869  digests[digesttype].verify(data, digest) */\n      0x04\n      add\n      tag_177\n      jump\t// in\n    tag_409:\n      0x20\n      mload(0x40)\n      dup1\n      dup4\n      sub\n      dup2\n      dup7\n      gas\n      staticcall\n      iszero\n      dup1\n      iszero\n      tag_411\n      jumpi\n      returndatasize\n      0x00\n      dup1\n      returndatacopy\n      revert(0x00, returndatasize)\n    tag_411:\n      pop\n      pop\n      pop\n      pop\n      mload(0x40)\n      returndatasize\n      not(0x1f)\n      0x1f\n      dup3\n      add\n      and\n      dup3\n      add\n      dup1\n      0x40\n      mstore\n      pop\n      dup2\n      add\n      swap1\n      tag_200\n      swap2\n      swap1\n      tag_343\n      jump\t// in\n        /* \"@ensdomains/buffer/contracts/Buffer.sol\":2844:4271  function append(buffer memory buf, bytes memory data, uint len) internal pure returns(buffer memory) {... */\n    tag_406:\n      0x40\n      dup1\n      mload\n      dup1\n      dup3\n      add\n      swap1\n      swap2\n      mstore\n      0x60\n      dup2\n      mstore\n      0x00\n      0x20\n      dup3\n      add\n      mstore\n        /* \"@ensdomains/buffer/contracts/Buffer.sol\":2970:2974  data */\n      dup3\n        /* \"@ensdomains/buffer/contracts/Buffer.sol\":2970:2981  data.length */\n      mload\n        /* \"@ensdomains/buffer/contracts/Buffer.sol\":2963:2966  len */\n      dup3\n        /* \"@ensdomains/buffer/contracts/Buffer.sol\":2963:2981  len <= data.length */\n      gt\n      iszero\n        /* \"@ensdomains/buffer/contracts/Buffer.sol\":2955:2982  require(len <= data.length) */\n      tag_415\n      jumpi\n      0x00\n      dup1\n      revert\n    tag_415:\n        /* \"@ensdomains/buffer/contracts/Buffer.sol\":3004:3011  buf.buf */\n      dup4\n      mload\n        /* \"@ensdomains/buffer/contracts/Buffer.sol\":3004:3018  buf.buf.length */\n      mload\n        /* \"@ensdomains/buffer/contracts/Buffer.sol\":2993:3001  uint off */\n      0x00\n        /* \"@ensdomains/buffer/contracts/Buffer.sol\":3047:3056  off + len */\n      tag_416\n        /* \"@ensdomains/buffer/contracts/Buffer.sol\":3053:3056  len */\n      dup5\n        /* \"@ensdomains/buffer/contracts/Buffer.sol\":3004:3018  buf.buf.length */\n      dup4\n        /* \"@ensdomains/buffer/contracts/Buffer.sol\":3047:3056  off + len */\n      tag_129\n      jump\t// in\n    tag_416:\n        /* \"@ensdomains/buffer/contracts/Buffer.sol\":3028:3056  uint newCapacity = off + len */\n      swap1\n      pop\n        /* \"@ensdomains/buffer/contracts/Buffer.sol\":3084:3087  buf */\n      dup6\n        /* \"@ensdomains/buffer/contracts/Buffer.sol\":3084:3096  buf.capacity */\n      0x20\n      add\n      mload\n        /* \"@ensdomains/buffer/contracts/Buffer.sol\":3070:3081  newCapacity */\n      dup2\n        /* \"@ensdomains/buffer/contracts/Buffer.sol\":3070:3096  newCapacity > buf.capacity */\n      gt\n        /* \"@ensdomains/buffer/contracts/Buffer.sol\":3066:3151  if (newCapacity > buf.capacity) {... */\n      iszero\n      tag_418\n      jumpi\n        /* \"@ensdomains/buffer/contracts/Buffer.sol\":3112:3140  resize(buf, newCapacity * 2) */\n      tag_418\n        /* \"@ensdomains/buffer/contracts/Buffer.sol\":3119:3122  buf */\n      dup7\n        /* \"@ensdomains/buffer/contracts/Buffer.sol\":3124:3139  newCapacity * 2 */\n      tag_419\n        /* \"@ensdomains/buffer/contracts/Buffer.sol\":3124:3135  newCapacity */\n      dup4\n        /* \"@ensdomains/buffer/contracts/Buffer.sol\":3138:3139  2 */\n      0x02\n        /* \"@ensdomains/buffer/contracts/Buffer.sol\":3124:3139  newCapacity * 2 */\n      tag_420\n      jump\t// in\n    tag_419:\n        /* \"@ensdomains/buffer/contracts/Buffer.sol\":3112:3118  resize */\n      tag_421\n        /* \"@ensdomains/buffer/contracts/Buffer.sol\":3112:3140  resize(buf, newCapacity * 2) */\n      jump\t// in\n    tag_418:\n        /* \"@ensdomains/buffer/contracts/Buffer.sol\":3284:3294  mload(buf) */\n      dup6\n      mload\n        /* \"@ensdomains/buffer/contracts/Buffer.sol\":3367:3380  mload(bufptr) */\n      dup1\n      mload\n        /* \"@ensdomains/buffer/contracts/Buffer.sol\":3480:3505  add(add(bufptr, 32), off) */\n      dup4\n      dup3\n      add\n        /* \"@ensdomains/buffer/contracts/Buffer.sol\":3496:3498  32 */\n      0x20\n        /* \"@ensdomains/buffer/contracts/Buffer.sol\":3480:3505  add(add(bufptr, 32), off) */\n      add\n      swap2\n        /* \"@ensdomains/buffer/contracts/Buffer.sol\":3161:3170  uint dest */\n      0x00\n      swap2\n        /* \"@ensdomains/buffer/contracts/Buffer.sol\":3579:3602  gt(newCapacity, buflen) */\n      dup1\n      dup6\n      gt\n        /* \"@ensdomains/buffer/contracts/Buffer.sol\":3576:3662  if gt(newCapacity, buflen) {... */\n      iszero\n      tag_422\n      jumpi\n        /* \"@ensdomains/buffer/contracts/Buffer.sol\":3636:3647  newCapacity */\n      dup5\n        /* \"@ensdomains/buffer/contracts/Buffer.sol\":3628:3634  bufptr */\n      dup3\n        /* \"@ensdomains/buffer/contracts/Buffer.sol\":3621:3648  mstore(bufptr, newCapacity) */\n      mstore\n        /* \"@ensdomains/buffer/contracts/Buffer.sol\":3576:3662  if gt(newCapacity, buflen) {... */\n    tag_422:\n      pop\n      pop\n      pop\n        /* \"@ensdomains/buffer/contracts/Buffer.sol\":3692:3694  32 */\n      0x20\n        /* \"@ensdomains/buffer/contracts/Buffer.sol\":3682:3695  add(data, 32) */\n      dup7\n      add\n        /* \"@ensdomains/buffer/contracts/Buffer.sol\":3765:3930  for (; len >= 32; len -= 32) {... */\n    tag_423:\n        /* \"@ensdomains/buffer/contracts/Buffer.sol\":3779:3781  32 */\n      0x20\n        /* \"@ensdomains/buffer/contracts/Buffer.sol\":3772:3775  len */\n      dup7\n        /* \"@ensdomains/buffer/contracts/Buffer.sol\":3772:3781  len >= 32 */\n      lt\n        /* \"@ensdomains/buffer/contracts/Buffer.sol\":3765:3930  for (; len >= 32; len -= 32) {... */\n      tag_424\n      jumpi\n        /* \"@ensdomains/buffer/contracts/Buffer.sol\":3848:3858  mload(src) */\n      dup1\n      mload\n        /* \"@ensdomains/buffer/contracts/Buffer.sol\":3835:3859  mstore(dest, mload(src)) */\n      dup3\n      mstore\n        /* \"@ensdomains/buffer/contracts/Buffer.sol\":3886:3896  dest += 32 */\n      tag_426\n        /* \"@ensdomains/buffer/contracts/Buffer.sol\":3894:3896  32 */\n      0x20\n        /* \"@ensdomains/buffer/contracts/Buffer.sol\":3842:3846  dest */\n      dup4\n        /* \"@ensdomains/buffer/contracts/Buffer.sol\":3886:3896  dest += 32 */\n      tag_129\n      jump\t// in\n    tag_426:\n      swap2\n      pop\n        /* \"@ensdomains/buffer/contracts/Buffer.sol\":3910:3919  src += 32 */\n      tag_427\n        /* \"@ensdomains/buffer/contracts/Buffer.sol\":3917:3919  32 */\n      0x20\n        /* \"@ensdomains/buffer/contracts/Buffer.sol\":3910:3919  src += 32 */\n      dup3\n      tag_129\n      jump\t// in\n    tag_427:\n      swap1\n      pop\n        /* \"@ensdomains/buffer/contracts/Buffer.sol\":3783:3792  len -= 32 */\n      tag_428\n        /* \"@ensdomains/buffer/contracts/Buffer.sol\":3790:3792  32 */\n      0x20\n        /* \"@ensdomains/buffer/contracts/Buffer.sol\":3783:3792  len -= 32 */\n      dup8\n      tag_131\n      jump\t// in\n    tag_428:\n      swap6\n      pop\n        /* \"@ensdomains/buffer/contracts/Buffer.sol\":3765:3930  for (; len >= 32; len -= 32) {... */\n      jump(tag_423)\n    tag_424:\n        /* \"@ensdomains/buffer/contracts/Buffer.sol\":4091:4101  mload(src) */\n      mload\n        /* \"@ensdomains/buffer/contracts/Buffer.sol\":4150:4161  mload(dest) */\n      dup2\n      mload\n      not(0x00)\n        /* \"@ensdomains/buffer/contracts/Buffer.sol\":4017:4019  32 */\n      0x20\n        /* \"@ensdomains/buffer/contracts/Buffer.sol\":4017:4025  32 - len */\n      dup9\n      swap1\n      sub\n        /* \"@ensdomains/buffer/contracts/Buffer.sol\":4009:4012  256 */\n      0x0100\n        /* \"@ensdomains/buffer/contracts/Buffer.sol\":4009:4026  256 ** (32 - len) */\n      exp\n        /* \"@ensdomains/buffer/contracts/Buffer.sol\":4008:4031  (256 ** (32 - len)) - 1 */\n      add\n        /* \"@ensdomains/buffer/contracts/Buffer.sol\":4146:4168  and(mload(dest), mask) */\n      swap1\n      dup2\n      and\n        /* \"@ensdomains/buffer/contracts/Buffer.sol\":4103:4112  not(mask) */\n      swap1\n      not\n        /* \"@ensdomains/buffer/contracts/Buffer.sol\":4087:4113  and(mload(src), not(mask)) */\n      swap2\n      swap1\n      swap2\n      and\n        /* \"@ensdomains/buffer/contracts/Buffer.sol\":4198:4219  or(destpart, srcpart) */\n      or\n        /* \"@ensdomains/buffer/contracts/Buffer.sol\":4185:4220  mstore(dest, or(destpart, srcpart)) */\n      swap1\n      mstore\n      pop\n        /* \"@ensdomains/buffer/contracts/Buffer.sol\":4261:4264  buf */\n      dup5\n      swap2\n      pop\n      pop\n        /* \"@ensdomains/buffer/contracts/Buffer.sol\":2844:4271  function append(buffer memory buf, bytes memory data, uint len) internal pure returns(buffer memory) {... */\n      swap4\n      swap3\n      pop\n      pop\n      pop\n      jump\t// out\n        /* \"@ensdomains/buffer/contracts/Buffer.sol\":2004:2171  function resize(buffer memory buf, uint capacity) private pure {... */\n    tag_421:\n        /* \"@ensdomains/buffer/contracts/Buffer.sol\":2099:2106  buf.buf */\n      dup2\n      mload\n        /* \"@ensdomains/buffer/contracts/Buffer.sol\":2116:2135  init(buf, capacity) */\n      tag_430\n        /* \"@ensdomains/buffer/contracts/Buffer.sol\":2099:2102  buf */\n      dup4\n        /* \"@ensdomains/buffer/contracts/Buffer.sol\":2126:2134  capacity */\n      dup4\n        /* \"@ensdomains/buffer/contracts/Buffer.sol\":2116:2120  init */\n      tag_363\n        /* \"@ensdomains/buffer/contracts/Buffer.sol\":2116:2135  init(buf, capacity) */\n      jump\t// in\n    tag_430:\n      pop\n        /* \"@ensdomains/buffer/contracts/Buffer.sol\":2145:2164  append(buf, oldbuf) */\n      tag_431\n        /* \"@ensdomains/buffer/contracts/Buffer.sol\":2152:2155  buf */\n      dup4\n        /* \"@ensdomains/buffer/contracts/Buffer.sol\":2157:2163  oldbuf */\n      dup3\n        /* \"@ensdomains/buffer/contracts/Buffer.sol\":2145:2151  append */\n      tag_365\n        /* \"@ensdomains/buffer/contracts/Buffer.sol\":2145:2164  append(buf, oldbuf) */\n      jump\t// in\n    tag_431:\n      pop\n        /* \"@ensdomains/buffer/contracts/Buffer.sol\":2067:2171  {... */\n      pop\n        /* \"@ensdomains/buffer/contracts/Buffer.sol\":2004:2171  function resize(buffer memory buf, uint capacity) private pure {... */\n      pop\n      pop\n      jump\t// out\n    tag_92:\n      0x40\n      dup1\n      mload\n      0x0140\n      dup2\n      add\n      dup3\n      mstore\n      0x00\n      dup1\n      dup3\n      mstore\n      0x20\n      dup3\n      add\n      dup2\n      swap1\n      mstore\n      swap2\n      dup2\n      add\n      dup3\n      swap1\n      mstore\n      0x60\n      dup1\n      dup3\n      add\n      dup4\n      swap1\n      mstore\n      0x80\n      dup3\n      add\n      dup4\n      swap1\n      mstore\n      0xa0\n      dup3\n      add\n      dup4\n      swap1\n      mstore\n      0xc0\n      dup3\n      add\n      swap3\n      swap1\n      swap3\n      mstore\n      0xe0\n      dup2\n      add\n      dup3\n      swap1\n      mstore\n      0x0100\n      dup2\n      add\n      dup3\n      swap1\n      mstore\n      0x0120\n      dup2\n      add\n      swap2\n      swap1\n      swap2\n      mstore\n      swap1\n      jump\t// out\n    tag_211:\n      mload(0x40)\n      dup1\n      0xe0\n      add\n      0x40\n      mstore\n      dup1\n      0x60\n      dup2\n      mstore\n      0x20\n      add\n      0x00\n      dup2\n      mstore\n      0x20\n      add\n      and(0xffff, 0x00)\n      dup2\n      mstore\n      0x20\n      add\n      and(0xffff, 0x00)\n      dup2\n      mstore\n      0x20\n      add\n      and(0xffffffff, 0x00)\n      dup2\n      mstore\n      0x20\n      add\n      0x00\n      dup2\n      mstore\n      0x20\n      add\n      0x00\n      dup2\n      mstore\n      pop\n      swap1\n      jump\t// out\n        /* \"#utility.yul\":14:170   */\n    tag_432:\n        /* \"#utility.yul\":80:100   */\n      dup1\n      calldataload\n        /* \"#utility.yul\":140:144   */\n      0xff\n        /* \"#utility.yul\":129:145   */\n      dup2\n      and\n        /* \"#utility.yul\":119:146   */\n      dup2\n      eq\n        /* \"#utility.yul\":109:164   */\n      tag_442\n      jumpi\n        /* \"#utility.yul\":160:161   */\n      0x00\n        /* \"#utility.yul\":157:158   */\n      dup1\n        /* \"#utility.yul\":150:162   */\n      revert\n        /* \"#utility.yul\":109:164   */\n    tag_442:\n        /* \"#utility.yul\":14:170   */\n      swap2\n      swap1\n      pop\n      jump\t// out\n        /* \"#utility.yul\":175:317   */\n    tag_433:\n      sub(shl(0xa0, 0x01), 0x01)\n        /* \"#utility.yul\":261:292   */\n      dup2\n      and\n        /* \"#utility.yul\":251:293   */\n      dup2\n      eq\n        /* \"#utility.yul\":241:311   */\n      tag_444\n      jumpi\n        /* \"#utility.yul\":307:308   */\n      0x00\n        /* \"#utility.yul\":304:305   */\n      dup1\n        /* \"#utility.yul\":297:309   */\n      revert\n        /* \"#utility.yul\":241:311   */\n    tag_444:\n        /* \"#utility.yul\":175:317   */\n      pop\n      jump\t// out\n        /* \"#utility.yul\":322:668   */\n    tag_15:\n        /* \"#utility.yul\":406:412   */\n      0x00\n        /* \"#utility.yul\":414:420   */\n      dup1\n        /* \"#utility.yul\":467:469   */\n      0x40\n        /* \"#utility.yul\":455:464   */\n      dup4\n        /* \"#utility.yul\":446:453   */\n      dup6\n        /* \"#utility.yul\":442:465   */\n      sub\n        /* \"#utility.yul\":438:470   */\n      slt\n        /* \"#utility.yul\":435:487   */\n      iszero\n      tag_446\n      jumpi\n        /* \"#utility.yul\":483:484   */\n      0x00\n        /* \"#utility.yul\":480:481   */\n      dup1\n        /* \"#utility.yul\":473:485   */\n      revert\n        /* \"#utility.yul\":435:487   */\n    tag_446:\n        /* \"#utility.yul\":506:533   */\n      tag_447\n        /* \"#utility.yul\":523:532   */\n      dup4\n        /* \"#utility.yul\":506:533   */\n      tag_432\n      jump\t// in\n    tag_447:\n        /* \"#utility.yul\":496:533   */\n      swap2\n      pop\n        /* \"#utility.yul\":583:585   */\n      0x20\n        /* \"#utility.yul\":572:581   */\n      dup4\n        /* \"#utility.yul\":568:586   */\n      add\n        /* \"#utility.yul\":555:587   */\n      calldataload\n        /* \"#utility.yul\":596:638   */\n      tag_448\n        /* \"#utility.yul\":632:637   */\n      dup2\n        /* \"#utility.yul\":596:638   */\n      tag_433\n      jump\t// in\n    tag_448:\n        /* \"#utility.yul\":657:662   */\n      dup1\n        /* \"#utility.yul\":647:662   */\n      swap2\n      pop\n      pop\n        /* \"#utility.yul\":322:668   */\n      swap3\n      pop\n      swap3\n      swap1\n      pop\n      jump\t// out\n        /* \"#utility.yul\":673:931   */\n    tag_19:\n        /* \"#utility.yul\":732:738   */\n      0x00\n        /* \"#utility.yul\":785:787   */\n      0x20\n        /* \"#utility.yul\":773:782   */\n      dup3\n        /* \"#utility.yul\":764:771   */\n      dup5\n        /* \"#utility.yul\":760:783   */\n      sub\n        /* \"#utility.yul\":756:788   */\n      slt\n        /* \"#utility.yul\":753:805   */\n      iszero\n      tag_450\n      jumpi\n        /* \"#utility.yul\":801:802   */\n      0x00\n        /* \"#utility.yul\":798:799   */\n      dup1\n        /* \"#utility.yul\":791:803   */\n      revert\n        /* \"#utility.yul\":753:805   */\n    tag_450:\n        /* \"#utility.yul\":840:849   */\n      dup2\n        /* \"#utility.yul\":827:850   */\n      calldataload\n        /* \"#utility.yul\":859:901   */\n      tag_162\n        /* \"#utility.yul\":895:900   */\n      dup2\n        /* \"#utility.yul\":859:901   */\n      tag_433\n      jump\t// in\n        /* \"#utility.yul\":1284:1411   */\n    tag_206:\n        /* \"#utility.yul\":1345:1355   */\n      0x4e487b71\n        /* \"#utility.yul\":1340:1343   */\n      0xe0\n        /* \"#utility.yul\":1336:1356   */\n      shl\n        /* \"#utility.yul\":1333:1334   */\n      0x00\n        /* \"#utility.yul\":1326:1357   */\n      mstore\n        /* \"#utility.yul\":1376:1380   */\n      0x41\n        /* \"#utility.yul\":1373:1374   */\n      0x04\n        /* \"#utility.yul\":1366:1381   */\n      mstore\n        /* \"#utility.yul\":1400:1404   */\n      0x24\n        /* \"#utility.yul\":1397:1398   */\n      0x00\n        /* \"#utility.yul\":1390:1405   */\n      revert\n        /* \"#utility.yul\":1416:1673   */\n    tag_434:\n        /* \"#utility.yul\":1488:1492   */\n      0x40\n        /* \"#utility.yul\":1482:1493   */\n      dup1\n      mload\n      swap1\n        /* \"#utility.yul\":1520:1537   */\n      dup2\n      add\n        /* \"#utility.yul\":1567:1585   */\n      0xffffffffffffffff\n        /* \"#utility.yul\":1552:1586   */\n      dup2\n      gt\n        /* \"#utility.yul\":1588:1610   */\n      dup3\n      dup3\n      lt\n        /* \"#utility.yul\":1549:1611   */\n      or\n        /* \"#utility.yul\":1546:1634   */\n      iszero\n      tag_459\n      jumpi\n        /* \"#utility.yul\":1614:1632   */\n      tag_459\n      tag_206\n      jump\t// in\n    tag_459:\n        /* \"#utility.yul\":1650:1654   */\n      0x40\n        /* \"#utility.yul\":1643:1667   */\n      mstore\n        /* \"#utility.yul\":1416:1673   */\n      swap1\n      jump\t// out\n        /* \"#utility.yul\":1678:1953   */\n    tag_435:\n        /* \"#utility.yul\":1749:1751   */\n      0x40\n        /* \"#utility.yul\":1743:1752   */\n      mload\n        /* \"#utility.yul\":1814:1816   */\n      0x1f\n        /* \"#utility.yul\":1795:1808   */\n      dup3\n      add\n      not(0x1f)\n        /* \"#utility.yul\":1791:1818   */\n      and\n        /* \"#utility.yul\":1779:1819   */\n      dup2\n      add\n        /* \"#utility.yul\":1849:1867   */\n      0xffffffffffffffff\n        /* \"#utility.yul\":1834:1868   */\n      dup2\n      gt\n        /* \"#utility.yul\":1870:1892   */\n      dup3\n      dup3\n      lt\n        /* \"#utility.yul\":1831:1893   */\n      or\n        /* \"#utility.yul\":1828:1916   */\n      iszero\n      tag_462\n      jumpi\n        /* \"#utility.yul\":1896:1914   */\n      tag_462\n      tag_206\n      jump\t// in\n    tag_462:\n        /* \"#utility.yul\":1932:1934   */\n      0x40\n        /* \"#utility.yul\":1925:1947   */\n      mstore\n        /* \"#utility.yul\":1678:1953   */\n      swap2\n      swap1\n      pop\n      jump\t// out\n        /* \"#utility.yul\":1958:2488   */\n    tag_436:\n        /* \"#utility.yul\":2000:2005   */\n      0x00\n        /* \"#utility.yul\":2053:2056   */\n      dup3\n        /* \"#utility.yul\":2046:2050   */\n      0x1f\n        /* \"#utility.yul\":2038:2044   */\n      dup4\n        /* \"#utility.yul\":2034:2051   */\n      add\n        /* \"#utility.yul\":2030:2057   */\n      slt\n        /* \"#utility.yul\":2020:2075   */\n      tag_464\n      jumpi\n        /* \"#utility.yul\":2071:2072   */\n      0x00\n        /* \"#utility.yul\":2068:2069   */\n      dup1\n        /* \"#utility.yul\":2061:2073   */\n      revert\n        /* \"#utility.yul\":2020:2075   */\n    tag_464:\n        /* \"#utility.yul\":2107:2113   */\n      dup2\n        /* \"#utility.yul\":2094:2114   */\n      calldataload\n        /* \"#utility.yul\":2133:2151   */\n      0xffffffffffffffff\n        /* \"#utility.yul\":2129:2131   */\n      dup2\n        /* \"#utility.yul\":2126:2152   */\n      gt\n        /* \"#utility.yul\":2123:2175   */\n      iszero\n      tag_466\n      jumpi\n        /* \"#utility.yul\":2155:2173   */\n      tag_466\n      tag_206\n      jump\t// in\n    tag_466:\n        /* \"#utility.yul\":2199:2254   */\n      tag_467\n        /* \"#utility.yul\":2242:2244   */\n      0x1f\n        /* \"#utility.yul\":2223:2236   */\n      dup3\n      add\n      not(0x1f)\n        /* \"#utility.yul\":2219:2246   */\n      and\n        /* \"#utility.yul\":2248:2252   */\n      0x20\n        /* \"#utility.yul\":2215:2253   */\n      add\n        /* \"#utility.yul\":2199:2254   */\n      tag_435\n      jump\t// in\n    tag_467:\n        /* \"#utility.yul\":2279:2281   */\n      dup2\n        /* \"#utility.yul\":2270:2277   */\n      dup2\n        /* \"#utility.yul\":2263:2282   */\n      mstore\n        /* \"#utility.yul\":2325:2328   */\n      dup5\n        /* \"#utility.yul\":2318:2322   */\n      0x20\n        /* \"#utility.yul\":2313:2315   */\n      dup4\n        /* \"#utility.yul\":2305:2311   */\n      dup7\n        /* \"#utility.yul\":2301:2316   */\n      add\n        /* \"#utility.yul\":2297:2323   */\n      add\n        /* \"#utility.yul\":2294:2329   */\n      gt\n        /* \"#utility.yul\":2291:2346   */\n      iszero\n      tag_468\n      jumpi\n        /* \"#utility.yul\":2342:2343   */\n      0x00\n        /* \"#utility.yul\":2339:2340   */\n      dup1\n        /* \"#utility.yul\":2332:2344   */\n      revert\n        /* \"#utility.yul\":2291:2346   */\n    tag_468:\n        /* \"#utility.yul\":2407:2409   */\n      dup2\n        /* \"#utility.yul\":2400:2404   */\n      0x20\n        /* \"#utility.yul\":2392:2398   */\n      dup6\n        /* \"#utility.yul\":2388:2405   */\n      add\n        /* \"#utility.yul\":2381:2385   */\n      0x20\n        /* \"#utility.yul\":2372:2379   */\n      dup4\n        /* \"#utility.yul\":2368:2386   */\n      add\n        /* \"#utility.yul\":2355:2410   */\n      calldatacopy\n        /* \"#utility.yul\":2455:2456   */\n      0x00\n        /* \"#utility.yul\":2430:2446   */\n      swap2\n      dup2\n      add\n        /* \"#utility.yul\":2448:2452   */\n      0x20\n        /* \"#utility.yul\":2426:2453   */\n      add\n        /* \"#utility.yul\":2419:2457   */\n      swap2\n      swap1\n      swap2\n      mstore\n        /* \"#utility.yul\":2434:2441   */\n      swap4\n        /* \"#utility.yul\":1958:2488   */\n      swap3\n      pop\n      pop\n      pop\n      jump\t// out\n        /* \"#utility.yul\":2493:4175   */\n    tag_437:\n        /* \"#utility.yul\":2565:2570   */\n      0x00\n        /* \"#utility.yul\":2618:2621   */\n      dup3\n        /* \"#utility.yul\":2611:2615   */\n      0x1f\n        /* \"#utility.yul\":2603:2609   */\n      dup4\n        /* \"#utility.yul\":2599:2616   */\n      add\n        /* \"#utility.yul\":2595:2622   */\n      slt\n        /* \"#utility.yul\":2585:2640   */\n      tag_470\n      jumpi\n        /* \"#utility.yul\":2636:2637   */\n      0x00\n        /* \"#utility.yul\":2633:2634   */\n      dup1\n        /* \"#utility.yul\":2626:2638   */\n      revert\n        /* \"#utility.yul\":2585:2640   */\n    tag_470:\n        /* \"#utility.yul\":2672:2678   */\n      dup2\n        /* \"#utility.yul\":2659:2679   */\n      calldataload\n        /* \"#utility.yul\":2698:2702   */\n      0x20\n        /* \"#utility.yul\":2721:2739   */\n      0xffffffffffffffff\n        /* \"#utility.yul\":2758:2760   */\n      dup1\n        /* \"#utility.yul\":2754:2756   */\n      dup4\n        /* \"#utility.yul\":2751:2761   */\n      gt\n        /* \"#utility.yul\":2748:2784   */\n      iszero\n      tag_472\n      jumpi\n        /* \"#utility.yul\":2764:2782   */\n      tag_472\n      tag_206\n      jump\t// in\n    tag_472:\n        /* \"#utility.yul\":2810:2812   */\n      dup3\n        /* \"#utility.yul\":2807:2808   */\n      0x05\n        /* \"#utility.yul\":2803:2813   */\n      shl\n        /* \"#utility.yul\":2833:2861   */\n      tag_473\n        /* \"#utility.yul\":2857:2859   */\n      dup4\n        /* \"#utility.yul\":2853:2855   */\n      dup3\n        /* \"#utility.yul\":2849:2860   */\n      add\n        /* \"#utility.yul\":2833:2861   */\n      tag_435\n      jump\t// in\n    tag_473:\n        /* \"#utility.yul\":2895:2910   */\n      swap4\n      dup5\n      mstore\n        /* \"#utility.yul\":2965:2980   */\n      dup6\n      dup2\n      add\n        /* \"#utility.yul\":2961:2985   */\n      dup4\n      add\n      swap4\n        /* \"#utility.yul\":2926:2938   */\n      dup4\n      dup2\n      add\n      swap1\n        /* \"#utility.yul\":2997:3012   */\n      dup9\n      dup7\n      gt\n        /* \"#utility.yul\":2994:3029   */\n      iszero\n      tag_474\n      jumpi\n        /* \"#utility.yul\":3025:3026   */\n      0x00\n        /* \"#utility.yul\":3022:3023   */\n      dup1\n        /* \"#utility.yul\":3015:3027   */\n      revert\n        /* \"#utility.yul\":2994:3029   */\n    tag_474:\n        /* \"#utility.yul\":3061:3063   */\n      dup5\n        /* \"#utility.yul\":3053:3059   */\n      dup9\n        /* \"#utility.yul\":3049:3064   */\n      add\n        /* \"#utility.yul\":3038:3064   */\n      swap3\n      pop\n        /* \"#utility.yul\":3073:4146   */\n    tag_475:\n        /* \"#utility.yul\":3089:3095   */\n      dup6\n        /* \"#utility.yul\":3084:3087   */\n      dup4\n        /* \"#utility.yul\":3081:3096   */\n      lt\n        /* \"#utility.yul\":3073:4146   */\n      iszero\n      tag_477\n      jumpi\n        /* \"#utility.yul\":3175:3178   */\n      dup3\n        /* \"#utility.yul\":3162:3179   */\n      calldataload\n        /* \"#utility.yul\":3211:3213   */\n      dup5\n        /* \"#utility.yul\":3198:3209   */\n      dup2\n        /* \"#utility.yul\":3195:3214   */\n      gt\n        /* \"#utility.yul\":3192:3301   */\n      iszero\n      tag_478\n      jumpi\n        /* \"#utility.yul\":3255:3256   */\n      0x00\n        /* \"#utility.yul\":3284:3286   */\n      dup1\n        /* \"#utility.yul\":3280:3282   */\n      dup2\n        /* \"#utility.yul\":3273:3287   */\n      revert\n        /* \"#utility.yul\":3192:3301   */\n    tag_478:\n        /* \"#utility.yul\":3324:3348   */\n      dup9\n      add\n        /* \"#utility.yul\":3371:3375   */\n      0x40\n        /* \"#utility.yul\":3399:3411   */\n      dup2\n      dup12\n      sub\n      not(0x1f)\n        /* \"#utility.yul\":3395:3421   */\n      add\n        /* \"#utility.yul\":3391:3426   */\n      dup2\n      sgt\n        /* \"#utility.yul\":3388:3513   */\n      iszero\n      tag_479\n      jumpi\n        /* \"#utility.yul\":3467:3468   */\n      0x00\n        /* \"#utility.yul\":3496:3498   */\n      dup1\n        /* \"#utility.yul\":3492:3494   */\n      dup2\n        /* \"#utility.yul\":3485:3499   */\n      revert\n        /* \"#utility.yul\":3388:3513   */\n    tag_479:\n        /* \"#utility.yul\":3539:3561   */\n      tag_480\n      tag_434\n      jump\t// in\n    tag_480:\n        /* \"#utility.yul\":3611:3613   */\n      dup8\n        /* \"#utility.yul\":3607:3609   */\n      dup4\n        /* \"#utility.yul\":3603:3614   */\n      add\n        /* \"#utility.yul\":3590:3615   */\n      calldataload\n        /* \"#utility.yul\":3644:3646   */\n      dup8\n        /* \"#utility.yul\":3634:3642   */\n      dup2\n        /* \"#utility.yul\":3631:3647   */\n      gt\n        /* \"#utility.yul\":3628:3734   */\n      iszero\n      tag_481\n      jumpi\n        /* \"#utility.yul\":3688:3689   */\n      0x00\n        /* \"#utility.yul\":3717:3719   */\n      dup1\n        /* \"#utility.yul\":3713:3715   */\n      dup2\n        /* \"#utility.yul\":3706:3720   */\n      revert\n        /* \"#utility.yul\":3628:3734   */\n    tag_481:\n        /* \"#utility.yul\":3761:3810   */\n      tag_482\n        /* \"#utility.yul\":3806:3809   */\n      dup14\n        /* \"#utility.yul\":3801:3803   */\n      dup11\n        /* \"#utility.yul\":3790:3798   */\n      dup4\n        /* \"#utility.yul\":3786:3788   */\n      dup8\n        /* \"#utility.yul\":3782:3799   */\n      add\n        /* \"#utility.yul\":3778:3804   */\n      add\n        /* \"#utility.yul\":3761:3810   */\n      tag_436\n      jump\t// in\n    tag_482:\n        /* \"#utility.yul\":3747:3811   */\n      dup3\n      mstore\n      pop\n        /* \"#utility.yul\":3853:3864   */\n      swap1\n      dup3\n      add\n        /* \"#utility.yul\":3840:3865   */\n      calldataload\n      swap1\n        /* \"#utility.yul\":3881:3897   */\n      dup7\n      dup3\n      gt\n        /* \"#utility.yul\":3878:3987   */\n      iszero\n      tag_483\n      jumpi\n        /* \"#utility.yul\":3939:3940   */\n      0x00\n        /* \"#utility.yul\":3969:3972   */\n      dup1\n        /* \"#utility.yul\":3964:3967   */\n      dup2\n        /* \"#utility.yul\":3957:3973   */\n      revert\n        /* \"#utility.yul\":3878:3987   */\n    tag_483:\n        /* \"#utility.yul\":4023:4072   */\n      tag_484\n        /* \"#utility.yul\":4068:4071   */\n      dup13\n        /* \"#utility.yul\":4063:4065   */\n      dup10\n        /* \"#utility.yul\":4052:4060   */\n      dup5\n        /* \"#utility.yul\":4048:4050   */\n      dup7\n        /* \"#utility.yul\":4044:4061   */\n      add\n        /* \"#utility.yul\":4040:4066   */\n      add\n        /* \"#utility.yul\":4023:4072   */\n      tag_436\n      jump\t// in\n    tag_484:\n        /* \"#utility.yul\":4007:4021   */\n      dup2\n      dup10\n      add\n        /* \"#utility.yul\":4000:4073   */\n      mstore\n        /* \"#utility.yul\":4086:4104   */\n      dup5\n      mstore\n      pop\n      pop\n        /* \"#utility.yul\":3106:3118   */\n      swap2\n      dup5\n      add\n      swap2\n        /* \"#utility.yul\":4124:4136   */\n      swap1\n      dup5\n      add\n      swap1\n        /* \"#utility.yul\":3073:4146   */\n      jump(tag_475)\n    tag_477:\n        /* \"#utility.yul\":4164:4169   */\n      swap9\n        /* \"#utility.yul\":2493:4175   */\n      swap8\n      pop\n      pop\n      pop\n      pop\n      pop\n      pop\n      pop\n      pop\n      jump\t// out\n        /* \"#utility.yul\":4180:4650   */\n    tag_27:\n        /* \"#utility.yul\":4309:4315   */\n      0x00\n        /* \"#utility.yul\":4317:4323   */\n      dup1\n        /* \"#utility.yul\":4370:4372   */\n      0x40\n        /* \"#utility.yul\":4358:4367   */\n      dup4\n        /* \"#utility.yul\":4349:4356   */\n      dup6\n        /* \"#utility.yul\":4345:4368   */\n      sub\n        /* \"#utility.yul\":4341:4373   */\n      slt\n        /* \"#utility.yul\":4338:4390   */\n      iszero\n      tag_486\n      jumpi\n        /* \"#utility.yul\":4386:4387   */\n      0x00\n        /* \"#utility.yul\":4383:4384   */\n      dup1\n        /* \"#utility.yul\":4376:4388   */\n      revert\n        /* \"#utility.yul\":4338:4390   */\n    tag_486:\n        /* \"#utility.yul\":4426:4435   */\n      dup3\n        /* \"#utility.yul\":4413:4436   */\n      calldataload\n        /* \"#utility.yul\":4459:4477   */\n      0xffffffffffffffff\n        /* \"#utility.yul\":4451:4457   */\n      dup2\n        /* \"#utility.yul\":4448:4478   */\n      gt\n        /* \"#utility.yul\":4445:4495   */\n      iszero\n      tag_487\n      jumpi\n        /* \"#utility.yul\":4491:4492   */\n      0x00\n        /* \"#utility.yul\":4488:4489   */\n      dup1\n        /* \"#utility.yul\":4481:4493   */\n      revert\n        /* \"#utility.yul\":4445:4495   */\n    tag_487:\n        /* \"#utility.yul\":4514:4593   */\n      tag_488\n        /* \"#utility.yul\":4585:4592   */\n      dup6\n        /* \"#utility.yul\":4576:4582   */\n      dup3\n        /* \"#utility.yul\":4565:4574   */\n      dup7\n        /* \"#utility.yul\":4561:4583   */\n      add\n        /* \"#utility.yul\":4514:4593   */\n      tag_437\n      jump\t// in\n    tag_488:\n        /* \"#utility.yul\":4504:4593   */\n      swap6\n        /* \"#utility.yul\":4640:4642   */\n      0x20\n        /* \"#utility.yul\":4625:4643   */\n      swap5\n      swap1\n      swap5\n      add\n        /* \"#utility.yul\":4612:4644   */\n      calldataload\n      swap5\n      pop\n      pop\n      pop\n      pop\n        /* \"#utility.yul\":4180:4650   */\n      jump\t// out\n        /* \"#utility.yul\":4655:5077   */\n    tag_438:\n        /* \"#utility.yul\":4696:4699   */\n      0x00\n        /* \"#utility.yul\":4734:4739   */\n      dup2\n        /* \"#utility.yul\":4728:4740   */\n      mload\n        /* \"#utility.yul\":4761:4767   */\n      dup1\n        /* \"#utility.yul\":4756:4759   */\n      dup5\n        /* \"#utility.yul\":4749:4768   */\n      mstore\n        /* \"#utility.yul\":4786:4787   */\n      0x00\n        /* \"#utility.yul\":4796:4958   */\n    tag_490:\n        /* \"#utility.yul\":4810:4816   */\n      dup2\n        /* \"#utility.yul\":4807:4808   */\n      dup2\n        /* \"#utility.yul\":4804:4817   */\n      lt\n        /* \"#utility.yul\":4796:4958   */\n      iszero\n      tag_492\n      jumpi\n        /* \"#utility.yul\":4872:4876   */\n      0x20\n        /* \"#utility.yul\":4928:4941   */\n      dup2\n      dup6\n      add\n        /* \"#utility.yul\":4924:4946   */\n      dup2\n      add\n        /* \"#utility.yul\":4918:4947   */\n      mload\n        /* \"#utility.yul\":4900:4911   */\n      dup7\n      dup4\n      add\n        /* \"#utility.yul\":4896:4916   */\n      dup3\n      add\n        /* \"#utility.yul\":4889:4948   */\n      mstore\n        /* \"#utility.yul\":4825:4837   */\n      add\n        /* \"#utility.yul\":4796:4958   */\n      jump(tag_490)\n    tag_492:\n        /* \"#utility.yul\":4800:4803   */\n      pop\n        /* \"#utility.yul\":5003:5004   */\n      0x00\n        /* \"#utility.yul\":4996:5000   */\n      0x20\n        /* \"#utility.yul\":4987:4993   */\n      dup3\n        /* \"#utility.yul\":4982:4985   */\n      dup7\n        /* \"#utility.yul\":4978:4994   */\n      add\n        /* \"#utility.yul\":4974:5001   */\n      add\n        /* \"#utility.yul\":4967:5005   */\n      mstore\n        /* \"#utility.yul\":5066:5070   */\n      0x20\n        /* \"#utility.yul\":5059:5061   */\n      0x1f\n        /* \"#utility.yul\":5055:5062   */\n      not\n        /* \"#utility.yul\":5050:5052   */\n      0x1f\n        /* \"#utility.yul\":5042:5048   */\n      dup4\n        /* \"#utility.yul\":5038:5053   */\n      add\n        /* \"#utility.yul\":5034:5063   */\n      and\n        /* \"#utility.yul\":5029:5032   */\n      dup6\n        /* \"#utility.yul\":5025:5064   */\n      add\n        /* \"#utility.yul\":5021:5071   */\n      add\n        /* \"#utility.yul\":5014:5071   */\n      swap2\n      pop\n      pop\n        /* \"#utility.yul\":4655:5077   */\n      swap3\n      swap2\n      pop\n      pop\n      jump\t// out\n        /* \"#utility.yul\":5082:5385   */\n    tag_30:\n        /* \"#utility.yul\":5255:5257   */\n      0x40\n        /* \"#utility.yul\":5244:5253   */\n      dup2\n        /* \"#utility.yul\":5237:5258   */\n      mstore\n        /* \"#utility.yul\":5218:5222   */\n      0x00\n        /* \"#utility.yul\":5275:5319   */\n      tag_494\n        /* \"#utility.yul\":5315:5317   */\n      0x40\n        /* \"#utility.yul\":5304:5313   */\n      dup4\n        /* \"#utility.yul\":5300:5318   */\n      add\n        /* \"#utility.yul\":5292:5298   */\n      dup6\n        /* \"#utility.yul\":5275:5319   */\n      tag_438\n      jump\t// in\n    tag_494:\n        /* \"#utility.yul\":5267:5319   */\n      swap1\n      pop\n        /* \"#utility.yul\":5367:5377   */\n      0xffffffff\n        /* \"#utility.yul\":5359:5365   */\n      dup4\n        /* \"#utility.yul\":5355:5378   */\n      and\n        /* \"#utility.yul\":5350:5352   */\n      0x20\n        /* \"#utility.yul\":5339:5348   */\n      dup4\n        /* \"#utility.yul\":5335:5353   */\n      add\n        /* \"#utility.yul\":5328:5379   */\n      mstore\n        /* \"#utility.yul\":5082:5385   */\n      swap4\n      swap3\n      pop\n      pop\n      pop\n      jump\t// out\n        /* \"#utility.yul\":5390:5572   */\n    tag_33:\n        /* \"#utility.yul\":5447:5453   */\n      0x00\n        /* \"#utility.yul\":5500:5502   */\n      0x20\n        /* \"#utility.yul\":5488:5497   */\n      dup3\n        /* \"#utility.yul\":5479:5486   */\n      dup5\n        /* \"#utility.yul\":5475:5498   */\n      sub\n        /* \"#utility.yul\":5471:5503   */\n      slt\n        /* \"#utility.yul\":5468:5520   */\n      iszero\n      tag_496\n      jumpi\n        /* \"#utility.yul\":5516:5517   */\n      0x00\n        /* \"#utility.yul\":5513:5514   */\n      dup1\n        /* \"#utility.yul\":5506:5518   */\n      revert\n        /* \"#utility.yul\":5468:5520   */\n    tag_496:\n        /* \"#utility.yul\":5539:5566   */\n      tag_162\n        /* \"#utility.yul\":5556:5565   */\n      dup3\n        /* \"#utility.yul\":5539:5566   */\n      tag_432\n      jump\t// in\n        /* \"#utility.yul\":6008:6225   */\n    tag_44:\n        /* \"#utility.yul\":6155:6157   */\n      0x20\n        /* \"#utility.yul\":6144:6153   */\n      dup2\n        /* \"#utility.yul\":6137:6158   */\n      mstore\n        /* \"#utility.yul\":6118:6122   */\n      0x00\n        /* \"#utility.yul\":6175:6219   */\n      tag_162\n        /* \"#utility.yul\":6215:6217   */\n      0x20\n        /* \"#utility.yul\":6204:6213   */\n      dup4\n        /* \"#utility.yul\":6200:6218   */\n      add\n        /* \"#utility.yul\":6192:6198   */\n      dup5\n        /* \"#utility.yul\":6175:6219   */\n      tag_438\n      jump\t// in\n        /* \"#utility.yul\":6230:6632   */\n    tag_47:\n        /* \"#utility.yul\":6350:6356   */\n      0x00\n        /* \"#utility.yul\":6403:6405   */\n      0x20\n        /* \"#utility.yul\":6391:6400   */\n      dup3\n        /* \"#utility.yul\":6382:6389   */\n      dup5\n        /* \"#utility.yul\":6378:6401   */\n      sub\n        /* \"#utility.yul\":6374:6406   */\n      slt\n        /* \"#utility.yul\":6371:6423   */\n      iszero\n      tag_503\n      jumpi\n        /* \"#utility.yul\":6419:6420   */\n      0x00\n        /* \"#utility.yul\":6416:6417   */\n      dup1\n        /* \"#utility.yul\":6409:6421   */\n      revert\n        /* \"#utility.yul\":6371:6423   */\n    tag_503:\n        /* \"#utility.yul\":6459:6468   */\n      dup2\n        /* \"#utility.yul\":6446:6469   */\n      calldataload\n        /* \"#utility.yul\":6492:6510   */\n      0xffffffffffffffff\n        /* \"#utility.yul\":6484:6490   */\n      dup2\n        /* \"#utility.yul\":6481:6511   */\n      gt\n        /* \"#utility.yul\":6478:6528   */\n      iszero\n      tag_504\n      jumpi\n        /* \"#utility.yul\":6524:6525   */\n      0x00\n        /* \"#utility.yul\":6521:6522   */\n      dup1\n        /* \"#utility.yul\":6514:6526   */\n      revert\n        /* \"#utility.yul\":6478:6528   */\n    tag_504:\n        /* \"#utility.yul\":6547:6626   */\n      tag_200\n        /* \"#utility.yul\":6618:6625   */\n      dup5\n        /* \"#utility.yul\":6609:6615   */\n      dup3\n        /* \"#utility.yul\":6598:6607   */\n      dup6\n        /* \"#utility.yul\":6594:6616   */\n      add\n        /* \"#utility.yul\":6547:6626   */\n      tag_437\n      jump\t// in\n        /* \"#utility.yul\":7149:7529   */\n    tag_69:\n        /* \"#utility.yul\":7228:7229   */\n      0x01\n        /* \"#utility.yul\":7224:7236   */\n      dup2\n      dup2\n      shr\n      swap1\n        /* \"#utility.yul\":7271:7283   */\n      dup3\n      and\n      dup1\n        /* \"#utility.yul\":7292:7353   */\n      tag_509\n      jumpi\n        /* \"#utility.yul\":7346:7350   */\n      0x7f\n        /* \"#utility.yul\":7338:7344   */\n      dup3\n        /* \"#utility.yul\":7334:7351   */\n      and\n        /* \"#utility.yul\":7324:7351   */\n      swap2\n      pop\n        /* \"#utility.yul\":7292:7353   */\n    tag_509:\n        /* \"#utility.yul\":7399:7401   */\n      0x20\n        /* \"#utility.yul\":7391:7397   */\n      dup3\n        /* \"#utility.yul\":7388:7402   */\n      lt\n        /* \"#utility.yul\":7368:7386   */\n      dup2\n        /* \"#utility.yul\":7365:7403   */\n      sub\n        /* \"#utility.yul\":7362:7523   */\n      tag_510\n      jumpi\n        /* \"#utility.yul\":7445:7455   */\n      0x4e487b71\n        /* \"#utility.yul\":7440:7443   */\n      0xe0\n        /* \"#utility.yul\":7436:7456   */\n      shl\n        /* \"#utility.yul\":7433:7434   */\n      0x00\n        /* \"#utility.yul\":7426:7457   */\n      mstore\n        /* \"#utility.yul\":7480:7484   */\n      0x22\n        /* \"#utility.yul\":7477:7478   */\n      0x04\n        /* \"#utility.yul\":7470:7485   */\n      mstore\n        /* \"#utility.yul\":7508:7512   */\n      0x24\n        /* \"#utility.yul\":7505:7506   */\n      0x00\n        /* \"#utility.yul\":7498:7513   */\n      revert\n        /* \"#utility.yul\":7362:7523   */\n    tag_510:\n      pop\n        /* \"#utility.yul\":7149:7529   */\n      swap2\n      swap1\n      pop\n      jump\t// out\n        /* \"#utility.yul\":7534:7661   */\n    tag_80:\n        /* \"#utility.yul\":7595:7605   */\n      0x4e487b71\n        /* \"#utility.yul\":7590:7593   */\n      0xe0\n        /* \"#utility.yul\":7586:7606   */\n      shl\n        /* \"#utility.yul\":7583:7584   */\n      0x00\n        /* \"#utility.yul\":7576:7607   */\n      mstore\n        /* \"#utility.yul\":7626:7630   */\n      0x32\n        /* \"#utility.yul\":7623:7624   */\n      0x04\n        /* \"#utility.yul\":7616:7631   */\n      mstore\n        /* \"#utility.yul\":7650:7654   */\n      0x24\n        /* \"#utility.yul\":7647:7648   */\n      0x00\n        /* \"#utility.yul\":7640:7655   */\n      revert\n        /* \"#utility.yul\":7666:7793   */\n    tag_439:\n        /* \"#utility.yul\":7727:7737   */\n      0x4e487b71\n        /* \"#utility.yul\":7722:7725   */\n      0xe0\n        /* \"#utility.yul\":7718:7738   */\n      shl\n        /* \"#utility.yul\":7715:7716   */\n      0x00\n        /* \"#utility.yul\":7708:7739   */\n      mstore\n        /* \"#utility.yul\":7758:7762   */\n      0x11\n        /* \"#utility.yul\":7755:7756   */\n      0x04\n        /* \"#utility.yul\":7748:7763   */\n      mstore\n        /* \"#utility.yul\":7782:7786   */\n      0x24\n        /* \"#utility.yul\":7779:7780   */\n      0x00\n        /* \"#utility.yul\":7772:7787   */\n      revert\n        /* \"#utility.yul\":7798:7933   */\n    tag_83:\n        /* \"#utility.yul\":7837:7840   */\n      0x00\n        /* \"#utility.yul\":7858:7875   */\n      0x01\n      dup3\n      add\n        /* \"#utility.yul\":7855:7898   */\n      tag_515\n      jumpi\n        /* \"#utility.yul\":7878:7896   */\n      tag_515\n      tag_439\n      jump\t// in\n    tag_515:\n      pop\n        /* \"#utility.yul\":7925:7926   */\n      0x01\n        /* \"#utility.yul\":7914:7927   */\n      add\n      swap1\n        /* \"#utility.yul\":7798:7933   */\n      jump\t// out\n        /* \"#utility.yul\":7938:8235   */\n    tag_102:\n        /* \"#utility.yul\":8111:8113   */\n      0x40\n        /* \"#utility.yul\":8100:8109   */\n      dup2\n        /* \"#utility.yul\":8093:8114   */\n      mstore\n        /* \"#utility.yul\":8074:8078   */\n      0x00\n        /* \"#utility.yul\":8131:8175   */\n      tag_517\n        /* \"#utility.yul\":8171:8173   */\n      0x40\n        /* \"#utility.yul\":8160:8169   */\n      dup4\n        /* \"#utility.yul\":8156:8174   */\n      add\n        /* \"#utility.yul\":8148:8154   */\n      dup6\n        /* \"#utility.yul\":8131:8175   */\n      tag_438\n      jump\t// in\n    tag_517:\n        /* \"#utility.yul\":8123:8175   */\n      swap1\n      pop\n        /* \"#utility.yul\":8223:8227   */\n      0xff\n        /* \"#utility.yul\":8215:8221   */\n      dup4\n        /* \"#utility.yul\":8211:8228   */\n      and\n        /* \"#utility.yul\":8206:8208   */\n      0x20\n        /* \"#utility.yul\":8195:8204   */\n      dup4\n        /* \"#utility.yul\":8191:8209   */\n      add\n        /* \"#utility.yul\":8184:8229   */\n      mstore\n        /* \"#utility.yul\":7938:8235   */\n      swap4\n      swap3\n      pop\n      pop\n      pop\n      jump\t// out\n        /* \"#utility.yul\":8536:8661   */\n    tag_129:\n        /* \"#utility.yul\":8601:8610   */\n      dup1\n      dup3\n      add\n        /* \"#utility.yul\":8622:8632   */\n      dup1\n      dup3\n      gt\n        /* \"#utility.yul\":8619:8655   */\n      iszero\n      tag_160\n      jumpi\n        /* \"#utility.yul\":8635:8653   */\n      tag_160\n      tag_439\n      jump\t// in\n        /* \"#utility.yul\":8666:8794   */\n    tag_131:\n        /* \"#utility.yul\":8733:8742   */\n      dup2\n      dup2\n      sub\n        /* \"#utility.yul\":8754:8765   */\n      dup2\n      dup2\n      gt\n        /* \"#utility.yul\":8751:8788   */\n      iszero\n      tag_160\n      jumpi\n        /* \"#utility.yul\":8768:8786   */\n      tag_160\n      tag_439\n      jump\t// in\n        /* \"#utility.yul\":9284:9411   */\n    tag_165:\n        /* \"#utility.yul\":9345:9355   */\n      0x4e487b71\n        /* \"#utility.yul\":9340:9343   */\n      0xe0\n        /* \"#utility.yul\":9336:9356   */\n      shl\n        /* \"#utility.yul\":9333:9334   */\n      0x00\n        /* \"#utility.yul\":9326:9357   */\n      mstore\n        /* \"#utility.yul\":9376:9380   */\n      0x01\n        /* \"#utility.yul\":9373:9374   */\n      0x04\n        /* \"#utility.yul\":9366:9381   */\n      mstore\n        /* \"#utility.yul\":9400:9404   */\n      0x24\n        /* \"#utility.yul\":9397:9398   */\n      0x00\n        /* \"#utility.yul\":9390:9405   */\n      revert\n        /* \"#utility.yul\":9416:9793   */\n    tag_177:\n        /* \"#utility.yul\":9609:9611   */\n      0x40\n        /* \"#utility.yul\":9598:9607   */\n      dup2\n        /* \"#utility.yul\":9591:9612   */\n      mstore\n        /* \"#utility.yul\":9572:9576   */\n      0x00\n        /* \"#utility.yul\":9635:9679   */\n      tag_529\n        /* \"#utility.yul\":9675:9677   */\n      0x40\n        /* \"#utility.yul\":9664:9673   */\n      dup4\n        /* \"#utility.yul\":9660:9678   */\n      add\n        /* \"#utility.yul\":9652:9658   */\n      dup6\n        /* \"#utility.yul\":9635:9679   */\n      tag_438\n      jump\t// in\n    tag_529:\n        /* \"#utility.yul\":9727:9736   */\n      dup3\n        /* \"#utility.yul\":9719:9725   */\n      dup2\n        /* \"#utility.yul\":9715:9737   */\n      sub\n        /* \"#utility.yul\":9710:9712   */\n      0x20\n        /* \"#utility.yul\":9699:9708   */\n      dup5\n        /* \"#utility.yul\":9695:9713   */\n      add\n        /* \"#utility.yul\":9688:9738   */\n      mstore\n        /* \"#utility.yul\":9755:9787   */\n      tag_530\n        /* \"#utility.yul\":9780:9786   */\n      dup2\n        /* \"#utility.yul\":9772:9778   */\n      dup6\n        /* \"#utility.yul\":9755:9787   */\n      tag_438\n      jump\t// in\n    tag_530:\n        /* \"#utility.yul\":9747:9787   */\n      swap6\n        /* \"#utility.yul\":9416:9793   */\n      swap5\n      pop\n      pop\n      pop\n      pop\n      pop\n      jump\t// out\n        /* \"#utility.yul\":9798:9934   */\n    tag_253:\n        /* \"#utility.yul\":9837:9840   */\n      0x00\n        /* \"#utility.yul\":9865:9870   */\n      dup2\n        /* \"#utility.yul\":9855:9894   */\n      tag_533\n      jumpi\n        /* \"#utility.yul\":9874:9892   */\n      tag_533\n      tag_439\n      jump\t// in\n    tag_533:\n      pop\n      not(0x00)\n        /* \"#utility.yul\":9910:9928   */\n      add\n      swap1\n        /* \"#utility.yul\":9798:9934   */\n      jump\t// out\n        /* \"#utility.yul\":9939:10476   */\n    tag_339:\n        /* \"#utility.yul\":10178:10180   */\n      0x60\n        /* \"#utility.yul\":10167:10176   */\n      dup2\n        /* \"#utility.yul\":10160:10181   */\n      mstore\n        /* \"#utility.yul\":10141:10145   */\n      0x00\n        /* \"#utility.yul\":10204:10248   */\n      tag_535\n        /* \"#utility.yul\":10244:10246   */\n      0x60\n        /* \"#utility.yul\":10233:10242   */\n      dup4\n        /* \"#utility.yul\":10229:10247   */\n      add\n        /* \"#utility.yul\":10221:10227   */\n      dup7\n        /* \"#utility.yul\":10204:10248   */\n      tag_438\n      jump\t// in\n    tag_535:\n        /* \"#utility.yul\":10296:10305   */\n      dup3\n        /* \"#utility.yul\":10288:10294   */\n      dup2\n        /* \"#utility.yul\":10284:10306   */\n      sub\n        /* \"#utility.yul\":10279:10281   */\n      0x20\n        /* \"#utility.yul\":10268:10277   */\n      dup5\n        /* \"#utility.yul\":10264:10282   */\n      add\n        /* \"#utility.yul\":10257:10307   */\n      mstore\n        /* \"#utility.yul\":10330:10362   */\n      tag_536\n        /* \"#utility.yul\":10355:10361   */\n      dup2\n        /* \"#utility.yul\":10347:10353   */\n      dup7\n        /* \"#utility.yul\":10330:10362   */\n      tag_438\n      jump\t// in\n    tag_536:\n        /* \"#utility.yul\":10316:10362   */\n      swap1\n      pop\n        /* \"#utility.yul\":10410:10419   */\n      dup3\n        /* \"#utility.yul\":10402:10408   */\n      dup2\n        /* \"#utility.yul\":10398:10420   */\n      sub\n        /* \"#utility.yul\":10393:10395   */\n      0x40\n        /* \"#utility.yul\":10382:10391   */\n      dup5\n        /* \"#utility.yul\":10378:10396   */\n      add\n        /* \"#utility.yul\":10371:10421   */\n      mstore\n        /* \"#utility.yul\":10438:10470   */\n      tag_254\n        /* \"#utility.yul\":10463:10469   */\n      dup2\n        /* \"#utility.yul\":10455:10461   */\n      dup6\n        /* \"#utility.yul\":10438:10470   */\n      tag_438\n      jump\t// in\n        /* \"#utility.yul\":10481:10758   */\n    tag_343:\n        /* \"#utility.yul\":10548:10554   */\n      0x00\n        /* \"#utility.yul\":10601:10603   */\n      0x20\n        /* \"#utility.yul\":10589:10598   */\n      dup3\n        /* \"#utility.yul\":10580:10587   */\n      dup5\n        /* \"#utility.yul\":10576:10599   */\n      sub\n        /* \"#utility.yul\":10572:10604   */\n      slt\n        /* \"#utility.yul\":10569:10621   */\n      iszero\n      tag_539\n      jumpi\n        /* \"#utility.yul\":10617:10618   */\n      0x00\n        /* \"#utility.yul\":10614:10615   */\n      dup1\n        /* \"#utility.yul\":10607:10619   */\n      revert\n        /* \"#utility.yul\":10569:10621   */\n    tag_539:\n        /* \"#utility.yul\":10649:10658   */\n      dup2\n        /* \"#utility.yul\":10643:10659   */\n      mload\n        /* \"#utility.yul\":10702:10707   */\n      dup1\n        /* \"#utility.yul\":10695:10708   */\n      iszero\n        /* \"#utility.yul\":10688:10709   */\n      iszero\n        /* \"#utility.yul\":10681:10686   */\n      dup2\n        /* \"#utility.yul\":10678:10710   */\n      eq\n        /* \"#utility.yul\":10668:10728   */\n      tag_162\n      jumpi\n        /* \"#utility.yul\":10724:10725   */\n      0x00\n        /* \"#utility.yul\":10721:10722   */\n      dup1\n        /* \"#utility.yul\":10714:10726   */\n      revert\n        /* \"#utility.yul\":11115:11324   */\n    tag_397:\n        /* \"#utility.yul\":11147:11148   */\n      0x00\n        /* \"#utility.yul\":11173:11174   */\n      dup3\n        /* \"#utility.yul\":11163:11295   */\n      tag_543\n      jumpi\n        /* \"#utility.yul\":11217:11227   */\n      0x4e487b71\n        /* \"#utility.yul\":11212:11215   */\n      0xe0\n        /* \"#utility.yul\":11208:11228   */\n      shl\n        /* \"#utility.yul\":11205:11206   */\n      0x00\n        /* \"#utility.yul\":11198:11229   */\n      mstore\n        /* \"#utility.yul\":11252:11256   */\n      0x12\n        /* \"#utility.yul\":11249:11250   */\n      0x04\n        /* \"#utility.yul\":11242:11257   */\n      mstore\n        /* \"#utility.yul\":11280:11284   */\n      0x24\n        /* \"#utility.yul\":11277:11278   */\n      0x00\n        /* \"#utility.yul\":11270:11285   */\n      revert\n        /* \"#utility.yul\":11163:11295   */\n    tag_543:\n      pop\n        /* \"#utility.yul\":11309:11318   */\n      mod\n      swap1\n        /* \"#utility.yul\":11115:11324   */\n      jump\t// out\n        /* \"#utility.yul\":11329:11497   */\n    tag_420:\n        /* \"#utility.yul\":11402:11411   */\n      dup1\n      dup3\n      mul\n        /* \"#utility.yul\":11433:11442   */\n      dup2\n      iszero\n        /* \"#utility.yul\":11450:11465   */\n      dup3\n      dup3\n      div\n        /* \"#utility.yul\":11444:11466   */\n      dup5\n      eq\n        /* \"#utility.yul\":11430:11467   */\n      or\n        /* \"#utility.yul\":11420:11491   */\n      tag_160\n      jumpi\n        /* \"#utility.yul\":11471:11489   */\n      tag_160\n      tag_439\n      jump\t// in\n\n    auxdata: 0xa2646970667358221220d9f840df995898bea655c762bec971127e4007415650db190c0beed62620368764736f6c63430008110033\n}\n",
				"bytecode": {
					"linkReferences": {},
					"object": "60806040523480156200001157600080fd5b5060405162001e9f38038062001e9f833981016040819052620000349162000072565b600180546001600160a01b031916331790556000620000548282620001d6565b5050620002a2565b634e487b7160e01b600052604160045260246000fd5b600060208083850312156200008657600080fd5b82516001600160401b03808211156200009e57600080fd5b818501915085601f830112620000b357600080fd5b815181811115620000c857620000c86200005c565b604051601f8201601f19908116603f01168101908382118183101715620000f357620000f36200005c565b8160405282815288868487010111156200010c57600080fd5b600093505b8284101562000130578484018601518185018701529285019262000111565b600086848301015280965050505050505092915050565b600181811c908216806200015c57607f821691505b6020821081036200017d57634e487b7160e01b600052602260045260246000fd5b50919050565b601f821115620001d157600081815260208120601f850160051c81016020861015620001ac5750805b601f850160051c820191505b81811015620001cd57828155600101620001b8565b5050505b505050565b81516001600160401b03811115620001f257620001f26200005c565b6200020a8162000203845462000147565b8462000183565b602080601f831160018114620002425760008415620002295750858301515b600019600386901b1c1916600185901b178555620001cd565b600085815260208120601f198616915b82811015620002735788860151825594840194600190910190840162000252565b5085821015620002925787850151600019600388901b60f8161c191681555b5050505050600190811b01905550565b611bed80620002b26000396000f3fe608060405234801561001057600080fd5b50600436106100935760003560e01c806373cc48a61161006657806373cc48a6146100fd5780638da5cb5b1461013e57806398d35f2014610151578063bdf95fef14610166578063c327deef1461017957600080fd5b8063020ed8d31461009857806313af4035146100ad57806328e7677d146100c0578063440f3d42146100d3575b600080fd5b6100ab6100a63660046116ba565b6101a2565b005b6100ab6100bb3660046116f1565b610224565b6100ab6100ce3660046116ba565b61025d565b6100e66100e13660046118e8565b6102d7565b6040516100f4929190611973565b60405180910390f35b61012661010b36600461199b565b6003602052600090815260409020546001600160a01b031681565b6040516001600160a01b0390911681526020016100f4565b600154610126906001600160a01b031681565b6101596103c9565b6040516100f491906119b6565b6100e66101743660046119c9565b610457565b61012661018736600461199b565b6002602052600090815260409020546001600160a01b031681565b6001546001600160a01b031633146101b957600080fd5b60ff821660008181526002602090815260409182902080546001600160a01b0319166001600160a01b0386169081179091558251938452908301527ff73c3c226af96b7f1ba666a21b3ceaf2be3ee6a365e3178fd9cd1eaae0075aa891015b60405180910390a15050565b6001546001600160a01b0316331461023b57600080fd5b600180546001600160a01b0319166001600160a01b0392909216919091179055565b6001546001600160a01b0316331461027457600080fd5b60ff821660008181526003602090815260409182902080546001600160a01b0319166001600160a01b0386169081179091558251938452908301527f2fcc274c3b72dd483ab201bfa87295e3817e8b9b10693219873b722ca1af00c79101610218565b6060600080600080546102e9906119fe565b80601f0160208091040260200160405190810160405280929190818152602001828054610315906119fe565b80156103625780601f1061033757610100808354040283529160200191610362565b820191906000526020600020905b81548152906001019060200180831161034557829003601f168201915b5050505050905060005b85518110156103bf57600061039b87838151811061038c5761038c611a38565b6020026020010151848861046e565b61010081015160a090910151945092508190506103b781611a64565b91505061036c565b5091509250929050565b600080546103d6906119fe565b80601f0160208091040260200160405190810160405280929190818152602001828054610402906119fe565b801561044f5780601f106104245761010080835404028352916020019161044f565b820191906000526020600020905b81548152906001019060200180831161043257829003601f168201915b505050505081565b6060600061046583426102d7565b91509150915091565b6104766115eb565b83516104819061057a565b90506000610493828360000151610674565b604083015190915060ff166104a9826000610786565b146104d85780826040015160405163e861b2bd60e01b81526004016104cf929190611a7d565b60405180910390fd5b6101208201819052608082015160009084900360030b12156105235760808201516040516353c27c3f60e11b815263ffffffff918216600482015290841660248201526044016104cf565b60a0820151600090840360030b12156105655760a0820151604051635ea081b560e11b815263ffffffff918216600482015290841660248201526044016104cf565b610571818387876107ec565b505b9392505050565b6105826115eb565b61058d82600061089d565b61ffff16815261059e8260026108c5565b60ff1660208201526105b18260036108c5565b60ff1660408201526105c48260046108e9565b63ffffffff90811660608301526105e09083906008906108e916565b63ffffffff90811660808301526105fc908390600c906108e916565b63ffffffff90811660a083015261061890839060109061089d16565b61ffff1660c082015261062c826012610913565b60e082018190525161066990610643906012611aa2565b8260e0015151601285516106579190611ab5565b6106619190611ab5565b849190610936565b610100820152919050565b60606000610681846109b8565b90505b8051516020820151101561077f57606081015161ffff166001146106c7576060810151604051634c52f98d60e11b815261ffff90911660048201526024016104cf565b81516000036106e0576106d9816109d0565b9150610731565b602081015181516106f0916109f1565b82511415806107135750805160208201518351610711928592600092610a4b565b155b156107315760405163cbceee6f60e01b815260040160405180910390fd5b8261ffff16816040015161ffff161461077157604080820151905163537fc54560e11b815261ffff918216600482015290841660248201526044016104cf565b61077a81610a6e565b610684565b5092915050565b6000805b8351831061079a5761079a611ac8565b60006107a685856108c5565b60ff1690506107b6816001611aa2565b6107c09085611aa2565b9350806000036107d057506107e3565b6107db600183611aa2565b91505061078a565b90505b92915050565b60e08301516107fc908590610b56565b6108205760e083015160405163eaafc59b60e01b81526104cf918691600401611ade565b600061082c8282610bb3565b9050602b61ffff16816040015161ffff16036108525761084d848483610bce565b610896565b603061ffff16816040015161ffff16036108715761084d848483610cbb565b60408082015190516361529e8760e01b815261ffff90911660048201526024016104cf565b5050505050565b81516000906108ad836002611aa2565b11156108b857600080fd5b50016002015161ffff1690565b60008282815181106108d9576108d9611a38565b016020015160f81c905092915050565b81516000906108f9836004611aa2565b111561090457600080fd5b50016004015163ffffffff1690565b6060600061092184846109f1565b905061092e848483610936565b949350505050565b82516060906109458385611aa2565b111561095057600080fd5b60008267ffffffffffffffff81111561096b5761096b61170e565b6040519080825280601f01601f191660200182016040528015610995576020820181803683370190505b509050602080820190868601016109ad828287610d83565b509095945050505050565b6109c0611641565b6107e68261010001516000610bb3565b602081015181516060916107e6916109e890826109f1565b84519190610936565b6000815b83518110610a0557610a05611ac8565b6000610a1185836108c5565b60ff169050610a21816001611aa2565b610a2b9083611aa2565b915080600003610a3b5750610a41565b506109f5565b61092e8382611ab5565b6000610a58848484610dd9565b610a63878785610dd9565b149695505050505050565b60c08101516020820181905281515111610a855750565b6000610a99826000015183602001516109f1565b8260200151610aa89190611aa2565b8251909150610ab7908261089d565b61ffff166040830152610acb600282611aa2565b8251909150610ada908261089d565b61ffff166060830152610aee600282611aa2565b8251909150610afd90826108e9565b63ffffffff166080830152610b13600482611aa2565b8251909150600090610b25908361089d565b61ffff169050610b36600283611aa2565b60a084018190529150610b498183611aa2565b60c0909301929092525050565b60008080610b648582610786565b90506000610b73856000610786565b90505b80821115610b9c57610b888684610dfd565b925081610b9481611b0c565b925050610b76565b610ba98684876000610e21565b9695505050505050565b610bbb611641565b82815260c081018290526107e681610a6e565b60208101516000610bde856109b8565b90505b80515160208201511015610c9b57604081015161ffff16603014610c245760408082015190516361529e8760e01b815261ffff90911660048201526024016104cf565b6000610c2f82610e56565b90506000610c4a6000835184610e729092919063ffffffff16565b9050610c5881838989610f10565b15610c8b57610c6d8760e00151868385611036565b15610c7b5750505050505050565b60c08501849052610c8b85610a6e565b5050610c9681610a6e565b610be1565b508360e001516040516306cde0f360e01b81526004016104cf91906119b6565b80515160208201511015610d64576000610cd4826109d0565b9050610ced8460e001518261117390919063ffffffff16565b610d12578360e0015181604051636b80573f60e11b81526004016104cf929190611ade565b6000610d1d83610e56565b90506000610d386000835184610e729092919063ffffffff16565b9050610d4681838888610f10565b15610d5357505050505050565b505050610d5f81610a6e565b610cbb565b8260e001516040516306cde0f360e01b81526004016104cf91906119b6565b60208110610dbb5781518352610d9a602084611aa2565b9250610da7602083611aa2565b9150610db4602082611ab5565b9050610d83565b905182516020929092036101000a6000190180199091169116179052565b8251600090610de88385611aa2565b1115610df357600080fd5b5091016020012090565b6000610e0983836108c5565b60ff16610e17836001611aa2565b6107e39190611aa2565b6000610e3a8383848651610e359190611ab5565b610dd9565b610e4c8686878951610e359190611ab5565b1495945050505050565b60a081015160c08201516060916107e6916109e8908290611ab5565b6040805160808101825260008082526020820181905291810191909152606080820152610eaa610ea3600085611aa2565b859061089d565b61ffff168152610ec5610ebe600285611aa2565b85906108c5565b60ff166020820152610edb610ebe600385611aa2565b60ff166040820152610f04610ef1600485611aa2565b610efc600485611ab5565b869190610936565b60608201529392505050565b6000846020015160ff16600314610f295750600061092e565b826020015160ff16856040015160ff1614610f465750600061092e565b6000610f5185611191565b90508360c0015161ffff168161ffff1614610f7057600091505061092e565b855161010016600003610f8757600091505061092e565b60408087015160ff166000908152600260205220546001600160a01b031680610fb55760009250505061092e565b8351602085015160405163de8f50a160e01b81526001600160a01b0384169263de8f50a192610fea928b929190600401611b23565b602060405180830381865afa158015611007573d6000803e3d6000fd5b505050506040513d601f19601f8201168201806040525081019061102b9190611b5c565b979650505050505050565b60008061104283611191565b90505b8451516020860151101561116757600061105e866109d0565b905061106a8188611173565b61108b578681604051636b80573f60e11b81526004016104cf929190611ade565b60a086015160c08701516000916110b0916110a7908290611ab5565b89519190610e72565b90508261ffff16816000015161ffff16146110cc575050611159565b856040015160ff16816020015160ff16146110e8575050611159565b60408051808201909152606081526000602082015261111586518a5161110e9190611aa2565b82906113b4565b50611120818a61142b565b5061112b818761142b565b5061114382604001518260000151846060015161144c565b1561115557600194505050505061092e565b5050505b61116285610a6e565b611045565b50600095945050505050565b6000815183511480156107e357506107e38360008460008751610a4b565b6000612000825111156111e65760405162461bcd60e51b815260206004820152601760248201527f4c6f6e67206b657973206e6f74207065726d697474656400000000000000000060448201526064016104cf565b60008060005b8451601f0181101561125b57600081602087010151905085518260200111156112215785518290036008026101000390811c901b5b7eff00ff00ff00ff00ff00ff00ff00ff00ff00ff00ff00ff00ff00ff00ff00ff600882901c811694909401931691909101906020016111ec565b506010827fffff0000ffff0000ffff0000ffff0000ffff0000ffff0000ffff0000ffff000016901c827dffff0000ffff0000ffff0000ffff0000ffff0000ffff0000ffff0000ffff160191506010817fffff0000ffff0000ffff0000ffff0000ffff0000ffff0000ffff0000ffff000016901c817dffff0000ffff0000ffff0000ffff0000ffff0000ffff0000ffff0000ffff1601905080600883901b0191506020827fffffffff00000000ffffffff00000000ffffffff00000000ffffffff0000000016901c827bffffffff00000000ffffffff00000000ffffffff00000000ffffffff1601915060408277ffffffffffffffff0000000000000000ffffffffffffffff1916901c8277ffffffffffffffff0000000000000000ffffffffffffffff16019150608082901c826fffffffffffffffffffffffffffffffff16019150601082901c61ffff16820191508192505050919050565b6040805180820190915260608152600060208201526113d4602083611b7e565b156113fc576113e4602083611b7e565b6113ef906020611ab5565b6113f99083611aa2565b91505b60208084018390526040518085526000815290818401018181101561142057600080fd5b604052509192915050565b6040805180820190915260608152600060208201526107e3838384516114f8565b60ff83166000908152600360205260408120546001600160a01b031661147457506000610573565b60ff841660009081526003602052604090819020549051637bf41d7760e11b81526001600160a01b039091169063f7e83aee906114b79086908690600401611ade565b602060405180830381865afa1580156114d4573d6000803e3d6000fd5b505050506040513d601f19601f8201168201806040525081019061092e9190611b5c565b604080518082019091526060815260006020820152825182111561151b57600080fd5b835151600061152a8483611aa2565b9050856020015181111561154c5761154c86611547836002611ba0565b6115ce565b855180518382016020019160009180851115611566578482525b505050602086015b602086106115a65780518252611585602083611aa2565b9150611592602082611aa2565b905061159f602087611ab5565b955061156e565b51815160001960208890036101000a0190811690199190911617905250849150509392505050565b81516115da83836113b4565b506115e5838261142b565b50505050565b604080516101408101825260008082526020820181905291810182905260608082018390526080820183905260a0820183905260c082019290925260e08101829052610100810182905261012081019190915290565b6040518060e001604052806060815260200160008152602001600061ffff168152602001600061ffff168152602001600063ffffffff16815260200160008152602001600081525090565b803560ff8116811461169d57600080fd5b919050565b6001600160a01b03811681146116b757600080fd5b50565b600080604083850312156116cd57600080fd5b6116d68361168c565b915060208301356116e6816116a2565b809150509250929050565b60006020828403121561170357600080fd5b81356107e3816116a2565b634e487b7160e01b600052604160045260246000fd5b6040805190810167ffffffffffffffff811182821017156117475761174761170e565b60405290565b604051601f8201601f1916810167ffffffffffffffff811182821017156117765761177661170e565b604052919050565b600082601f83011261178f57600080fd5b813567ffffffffffffffff8111156117a9576117a961170e565b6117bc601f8201601f191660200161174d565b8181528460208386010111156117d157600080fd5b816020850160208301376000918101602001919091529392505050565b600082601f8301126117ff57600080fd5b8135602067ffffffffffffffff8083111561181c5761181c61170e565b8260051b61182b83820161174d565b938452858101830193838101908886111561184557600080fd5b84880192505b858310156118dc578235848111156118635760008081fd5b88016040818b03601f190181131561187b5760008081fd5b611883611724565b87830135878111156118955760008081fd5b6118a38d8a8387010161177e565b8252509082013590868211156118b95760008081fd5b6118c78c898486010161177e565b8189015284525050918401919084019061184b565b98975050505050505050565b600080604083850312156118fb57600080fd5b823567ffffffffffffffff81111561191257600080fd5b61191e858286016117ee565b95602094909401359450505050565b6000815180845260005b8181101561195357602081850181015186830182015201611937565b506000602082860101526020601f19601f83011685010191505092915050565b604081526000611986604083018561192d565b905063ffffffff831660208301529392505050565b6000602082840312156119ad57600080fd5b6107e38261168c565b6020815260006107e3602083018461192d565b6000602082840312156119db57600080fd5b813567ffffffffffffffff8111156119f257600080fd5b61092e848285016117ee565b600181811c90821680611a1257607f821691505b602082108103611a3257634e487b7160e01b600052602260045260246000fd5b50919050565b634e487b7160e01b600052603260045260246000fd5b634e487b7160e01b600052601160045260246000fd5b600060018201611a7657611a76611a4e565b5060010190565b604081526000611a90604083018561192d565b905060ff831660208301529392505050565b808201808211156107e6576107e6611a4e565b818103818111156107e6576107e6611a4e565b634e487b7160e01b600052600160045260246000fd5b604081526000611af1604083018561192d565b8281036020840152611b03818561192d565b95945050505050565b600081611b1b57611b1b611a4e565b506000190190565b606081526000611b36606083018661192d565b8281036020840152611b48818661192d565b90508281036040840152610ba9818561192d565b600060208284031215611b6e57600080fd5b815180151581146107e357600080fd5b600082611b9b57634e487b7160e01b600052601260045260246000fd5b500690565b80820281158282048414176107e6576107e6611a4e56fea2646970667358221220d9f840df995898bea655c762bec971127e4007415650db190c0beed62620368764736f6c63430008110033",
					"opcodes": "PUSH1 0x80 PUSH1 0x40 MSTORE CALLVALUE DUP1 ISZERO PUSH3 0x11 JUMPI PUSH1 0x0 DUP1 REVERT JUMPDEST POP PUSH1 0x40 MLOAD PUSH3 0x1E9F CODESIZE SUB DUP1 PUSH3 0x1E9F DUP4 CODECOPY DUP2 ADD PUSH1 0x40 DUP2 SWAP1 MSTORE PUSH3 0x34 SWAP2 PUSH3 0x72 JUMP JUMPDEST PUSH1 0x1 DUP1 SLOAD PUSH1 0x1 PUSH1 0x1 PUSH1 0xA0 SHL SUB NOT AND CALLER OR SWAP1 SSTORE PUSH1 0x0 PUSH3 0x54 DUP3 DUP3 PUSH3 0x1D6 JUMP JUMPDEST POP POP PUSH3 0x2A2 JUMP JUMPDEST PUSH4 0x4E487B71 PUSH1 0xE0 SHL PUSH1 0x0 MSTORE PUSH1 0x41 PUSH1 0x4 MSTORE PUSH1 0x24 PUSH1 0x0 REVERT JUMPDEST PUSH1 0x0 PUSH1 0x20 DUP1 DUP4 DUP6 SUB SLT ISZERO PUSH3 0x86 JUMPI PUSH1 0x0 DUP1 REVERT JUMPDEST DUP3 MLOAD PUSH1 0x1 PUSH1 0x1 PUSH1 0x40 SHL SUB DUP1 DUP3 GT ISZERO PUSH3 0x9E JUMPI PUSH1 0x0 DUP1 REVERT JUMPDEST DUP2 DUP6 ADD SWAP2 POP DUP6 PUSH1 0x1F DUP4 ADD SLT PUSH3 0xB3 JUMPI PUSH1 0x0 DUP1 REVERT JUMPDEST DUP2 MLOAD DUP2 DUP2 GT ISZERO PUSH3 0xC8 JUMPI PUSH3 0xC8 PUSH3 0x5C JUMP JUMPDEST PUSH1 0x40 MLOAD PUSH1 0x1F DUP3 ADD PUSH1 0x1F NOT SWAP1 DUP2 AND PUSH1 0x3F ADD AND DUP2 ADD SWAP1 DUP4 DUP3 GT DUP2 DUP4 LT OR ISZERO PUSH3 0xF3 JUMPI PUSH3 0xF3 PUSH3 0x5C JUMP JUMPDEST DUP2 PUSH1 0x40 MSTORE DUP3 DUP2 MSTORE DUP9 DUP7 DUP5 DUP8 ADD ADD GT ISZERO PUSH3 0x10C JUMPI PUSH1 0x0 DUP1 REVERT JUMPDEST PUSH1 0x0 SWAP4 POP JUMPDEST DUP3 DUP5 LT ISZERO PUSH3 0x130 JUMPI DUP5 DUP5 ADD DUP7 ADD MLOAD DUP2 DUP6 ADD DUP8 ADD MSTORE SWAP3 DUP6 ADD SWAP3 PUSH3 0x111 JUMP JUMPDEST PUSH1 0x0 DUP7 DUP5 DUP4 ADD ADD MSTORE DUP1 SWAP7 POP POP POP POP POP POP POP SWAP3 SWAP2 POP POP JUMP JUMPDEST PUSH1 0x1 DUP2 DUP2 SHR SWAP1 DUP3 AND DUP1 PUSH3 0x15C JUMPI PUSH1 0x7F DUP3 AND SWAP2 POP JUMPDEST PUSH1 0x20 DUP3 LT DUP2 SUB PUSH3 0x17D JUMPI PUSH4 0x4E487B71 PUSH1 0xE0 SHL PUSH1 0x0 MSTORE PUSH1 0x22 PUSH1 0x4 MSTORE PUSH1 0x24 PUSH1 0x0 REVERT JUMPDEST POP SWAP2 SWAP1 POP JUMP JUMPDEST PUSH1 0x1F DUP3 GT ISZERO PUSH3 0x1D1 JUMPI PUSH1 0x0 DUP2 DUP2 MSTORE PUSH1 0x20 DUP2 KECCAK256 PUSH1 0x1F DUP6 ADD PUSH1 0x5 SHR DUP2 ADD PUSH1 0x20 DUP7 LT ISZERO PUSH3 0x1AC JUMPI POP DUP1 JUMPDEST PUSH1 0x1F DUP6 ADD PUSH1 0x5 SHR DUP3 ADD SWAP2 POP JUMPDEST DUP2 DUP2 LT ISZERO PUSH3 0x1CD JUMPI DUP3 DUP2 SSTORE PUSH1 0x1 ADD PUSH3 0x1B8 JUMP JUMPDEST POP POP POP JUMPDEST POP POP POP JUMP JUMPDEST DUP2 MLOAD PUSH1 0x1 PUSH1 0x1 PUSH1 0x40 SHL SUB DUP2 GT ISZERO PUSH3 0x1F2 JUMPI PUSH3 0x1F2 PUSH3 0x5C JUMP JUMPDEST PUSH3 0x20A DUP2 PUSH3 0x203 DUP5 SLOAD PUSH3 0x147 JUMP JUMPDEST DUP5 PUSH3 0x183 JUMP JUMPDEST PUSH1 0x20 DUP1 PUSH1 0x1F DUP4 GT PUSH1 0x1 DUP2 EQ PUSH3 0x242 JUMPI PUSH1 0x0 DUP5 ISZERO PUSH3 0x229 JUMPI POP DUP6 DUP4 ADD MLOAD JUMPDEST PUSH1 0x0 NOT PUSH1 0x3 DUP7 SWAP1 SHL SHR NOT AND PUSH1 0x1 DUP6 SWAP1 SHL OR DUP6 SSTORE PUSH3 0x1CD JUMP JUMPDEST PUSH1 0x0 DUP6 DUP2 MSTORE PUSH1 0x20 DUP2 KECCAK256 PUSH1 0x1F NOT DUP7 AND SWAP2 JUMPDEST DUP3 DUP2 LT ISZERO PUSH3 0x273 JUMPI DUP9 DUP7 ADD MLOAD DUP3 SSTORE SWAP5 DUP5 ADD SWAP5 PUSH1 0x1 SWAP1 SWAP2 ADD SWAP1 DUP5 ADD PUSH3 0x252 JUMP JUMPDEST POP DUP6 DUP3 LT ISZERO PUSH3 0x292 JUMPI DUP8 DUP6 ADD MLOAD PUSH1 0x0 NOT PUSH1 0x3 DUP9 SWAP1 SHL PUSH1 0xF8 AND SHR NOT AND DUP2 SSTORE JUMPDEST POP POP POP POP POP PUSH1 0x1 SWAP1 DUP2 SHL ADD SWAP1 SSTORE POP JUMP JUMPDEST PUSH2 0x1BED DUP1 PUSH3 0x2B2 PUSH1 0x0 CODECOPY PUSH1 0x0 RETURN INVALID PUSH1 0x80 PUSH1 0x40 MSTORE CALLVALUE DUP1 ISZERO PUSH2 0x10 JUMPI PUSH1 0x0 DUP1 REVERT JUMPDEST POP PUSH1 0x4 CALLDATASIZE LT PUSH2 0x93 JUMPI PUSH1 0x0 CALLDATALOAD PUSH1 0xE0 SHR DUP1 PUSH4 0x73CC48A6 GT PUSH2 0x66 JUMPI DUP1 PUSH4 0x73CC48A6 EQ PUSH2 0xFD JUMPI DUP1 PUSH4 0x8DA5CB5B EQ PUSH2 0x13E JUMPI DUP1 PUSH4 0x98D35F20 EQ PUSH2 0x151 JUMPI DUP1 PUSH4 0xBDF95FEF EQ PUSH2 0x166 JUMPI DUP1 PUSH4 0xC327DEEF EQ PUSH2 0x179 JUMPI PUSH1 0x0 DUP1 REVERT JUMPDEST DUP1 PUSH4 0x20ED8D3 EQ PUSH2 0x98 JUMPI DUP1 PUSH4 0x13AF4035 EQ PUSH2 0xAD JUMPI DUP1 PUSH4 0x28E7677D EQ PUSH2 0xC0 JUMPI DUP1 PUSH4 0x440F3D42 EQ PUSH2 0xD3 JUMPI JUMPDEST PUSH1 0x0 DUP1 REVERT JUMPDEST PUSH2 0xAB PUSH2 0xA6 CALLDATASIZE PUSH1 0x4 PUSH2 0x16BA JUMP JUMPDEST PUSH2 0x1A2 JUMP JUMPDEST STOP JUMPDEST PUSH2 0xAB PUSH2 0xBB CALLDATASIZE PUSH1 0x4 PUSH2 0x16F1 JUMP JUMPDEST PUSH2 0x224 JUMP JUMPDEST PUSH2 0xAB PUSH2 0xCE CALLDATASIZE PUSH1 0x4 PUSH2 0x16BA JUMP JUMPDEST PUSH2 0x25D JUMP JUMPDEST PUSH2 0xE6 PUSH2 0xE1 CALLDATASIZE PUSH1 0x4 PUSH2 0x18E8 JUMP JUMPDEST PUSH2 0x2D7 JUMP JUMPDEST PUSH1 0x40 MLOAD PUSH2 0xF4 SWAP3 SWAP2 SWAP1 PUSH2 0x1973 JUMP JUMPDEST PUSH1 0x40 MLOAD DUP1 SWAP2 SUB SWAP1 RETURN JUMPDEST PUSH2 0x126 PUSH2 0x10B CALLDATASIZE PUSH1 0x4 PUSH2 0x199B JUMP JUMPDEST PUSH1 0x3 PUSH1 0x20 MSTORE PUSH1 0x0 SWAP1 DUP2 MSTORE PUSH1 0x40 SWAP1 KECCAK256 SLOAD PUSH1 0x1 PUSH1 0x1 PUSH1 0xA0 SHL SUB AND DUP2 JUMP JUMPDEST PUSH1 0x40 MLOAD PUSH1 0x1 PUSH1 0x1 PUSH1 0xA0 SHL SUB SWAP1 SWAP2 AND DUP2 MSTORE PUSH1 0x20 ADD PUSH2 0xF4 JUMP JUMPDEST PUSH1 0x1 SLOAD PUSH2 0x126 SWAP1 PUSH1 0x1 PUSH1 0x1 PUSH1 0xA0 SHL SUB AND DUP2 JUMP JUMPDEST PUSH2 0x159 PUSH2 0x3C9 JUMP JUMPDEST PUSH1 0x40 MLOAD PUSH2 0xF4 SWAP2 SWAP1 PUSH2 0x19B6 JUMP JUMPDEST PUSH2 0xE6 PUSH2 0x174 CALLDATASIZE PUSH1 0x4 PUSH2 0x19C9 JUMP JUMPDEST PUSH2 0x457 JUMP JUMPDEST PUSH2 0x126 PUSH2 0x187 CALLDATASIZE PUSH1 0x4 PUSH2 0x199B JUMP JUMPDEST PUSH1 0x2 PUSH1 0x20 MSTORE PUSH1 0x0 SWAP1 DUP2 MSTORE PUSH1 0x40 SWAP1 KECCAK256 SLOAD PUSH1 0x1 PUSH1 0x1 PUSH1 0xA0 SHL SUB AND DUP2 JUMP JUMPDEST PUSH1 0x1 SLOAD PUSH1 0x1 PUSH1 0x1 PUSH1 0xA0 SHL SUB AND CALLER EQ PUSH2 0x1B9 JUMPI PUSH1 0x0 DUP1 REVERT JUMPDEST PUSH1 0xFF DUP3 AND PUSH1 0x0 DUP2 DUP2 MSTORE PUSH1 0x2 PUSH1 0x20 SWAP1 DUP2 MSTORE PUSH1 0x40 SWAP2 DUP3 SWAP1 KECCAK256 DUP1 SLOAD PUSH1 0x1 PUSH1 0x1 PUSH1 0xA0 SHL SUB NOT AND PUSH1 0x1 PUSH1 0x1 PUSH1 0xA0 SHL SUB DUP7 AND SWAP1 DUP2 OR SWAP1 SWAP2 SSTORE DUP3 MLOAD SWAP4 DUP5 MSTORE SWAP1 DUP4 ADD MSTORE PUSH32 0xF73C3C226AF96B7F1BA666A21B3CEAF2BE3EE6A365E3178FD9CD1EAAE0075AA8 SWAP2 ADD JUMPDEST PUSH1 0x40 MLOAD DUP1 SWAP2 SUB SWAP1 LOG1 POP POP JUMP JUMPDEST PUSH1 0x1 SLOAD PUSH1 0x1 PUSH1 0x1 PUSH1 0xA0 SHL SUB AND CALLER EQ PUSH2 0x23B JUMPI PUSH1 0x0 DUP1 REVERT JUMPDEST PUSH1 0x1 DUP1 SLOAD PUSH1 0x1 PUSH1 0x1 PUSH1 0xA0 SHL SUB NOT AND PUSH1 0x1 PUSH1 0x1 PUSH1 0xA0 SHL SUB SWAP3 SWAP1 SWAP3 AND SWAP2 SWAP1 SWAP2 OR SWAP1 SSTORE JUMP JUMPDEST PUSH1 0x1 SLOAD PUSH1 0x1 PUSH1 0x1 PUSH1 0xA0 SHL SUB AND CALLER EQ PUSH2 0x274 JUMPI PUSH1 0x0 DUP1 REVERT JUMPDEST PUSH1 0xFF DUP3 AND PUSH1 0x0 DUP2 DUP2 MSTORE PUSH1 0x3 PUSH1 0x20 SWAP1 DUP2 MSTORE PUSH1 0x40 SWAP2 DUP3 SWAP1 KECCAK256 DUP1 SLOAD PUSH1 0x1 PUSH1 0x1 PUSH1 0xA0 SHL SUB NOT AND PUSH1 0x1 PUSH1 0x1 PUSH1 0xA0 SHL SUB DUP7 AND SWAP1 DUP2 OR SWAP1 SWAP2 SSTORE DUP3 MLOAD SWAP4 DUP5 MSTORE SWAP1 DUP4 ADD MSTORE PUSH32 0x2FCC274C3B72DD483AB201BFA87295E3817E8B9B10693219873B722CA1AF00C7 SWAP2 ADD PUSH2 0x218 JUMP JUMPDEST PUSH1 0x60 PUSH1 0x0 DUP1 PUSH1 0x0 DUP1 SLOAD PUSH2 0x2E9 SWAP1 PUSH2 0x19FE JUMP JUMPDEST DUP1 PUSH1 0x1F ADD PUSH1 0x20 DUP1 SWAP2 DIV MUL PUSH1 0x20 ADD PUSH1 0x40 MLOAD SWAP1 DUP2 ADD PUSH1 0x40 MSTORE DUP1 SWAP3 SWAP2 SWAP1 DUP2 DUP2 MSTORE PUSH1 0x20 ADD DUP3 DUP1 SLOAD PUSH2 0x315 SWAP1 PUSH2 0x19FE JUMP JUMPDEST DUP1 ISZERO PUSH2 0x362 JUMPI DUP1 PUSH1 0x1F LT PUSH2 0x337 JUMPI PUSH2 0x100 DUP1 DUP4 SLOAD DIV MUL DUP4 MSTORE SWAP2 PUSH1 0x20 ADD SWAP2 PUSH2 0x362 JUMP JUMPDEST DUP3 ADD SWAP2 SWAP1 PUSH1 0x0 MSTORE PUSH1 0x20 PUSH1 0x0 KECCAK256 SWAP1 JUMPDEST DUP2 SLOAD DUP2 MSTORE SWAP1 PUSH1 0x1 ADD SWAP1 PUSH1 0x20 ADD DUP1 DUP4 GT PUSH2 0x345 JUMPI DUP3 SWAP1 SUB PUSH1 0x1F AND DUP3 ADD SWAP2 JUMPDEST POP POP POP POP POP SWAP1 POP PUSH1 0x0 JUMPDEST DUP6 MLOAD DUP2 LT ISZERO PUSH2 0x3BF JUMPI PUSH1 0x0 PUSH2 0x39B DUP8 DUP4 DUP2 MLOAD DUP2 LT PUSH2 0x38C JUMPI PUSH2 0x38C PUSH2 0x1A38 JUMP JUMPDEST PUSH1 0x20 MUL PUSH1 0x20 ADD ADD MLOAD DUP5 DUP9 PUSH2 0x46E JUMP JUMPDEST PUSH2 0x100 DUP2 ADD MLOAD PUSH1 0xA0 SWAP1 SWAP2 ADD MLOAD SWAP5 POP SWAP3 POP DUP2 SWAP1 POP PUSH2 0x3B7 DUP2 PUSH2 0x1A64 JUMP JUMPDEST SWAP2 POP POP PUSH2 0x36C JUMP JUMPDEST POP SWAP2 POP SWAP3 POP SWAP3 SWAP1 POP JUMP JUMPDEST PUSH1 0x0 DUP1 SLOAD PUSH2 0x3D6 SWAP1 PUSH2 0x19FE JUMP JUMPDEST DUP1 PUSH1 0x1F ADD PUSH1 0x20 DUP1 SWAP2 DIV MUL PUSH1 0x20 ADD PUSH1 0x40 MLOAD SWAP1 DUP2 ADD PUSH1 0x40 MSTORE DUP1 SWAP3 SWAP2 SWAP1 DUP2 DUP2 MSTORE PUSH1 0x20 ADD DUP3 DUP1 SLOAD PUSH2 0x402 SWAP1 PUSH2 0x19FE JUMP JUMPDEST DUP1 ISZERO PUSH2 0x44F JUMPI DUP1 PUSH1 0x1F LT PUSH2 0x424 JUMPI PUSH2 0x100 DUP1 DUP4 SLOAD DIV MUL DUP4 MSTORE SWAP2 PUSH1 0x20 ADD SWAP2 PUSH2 0x44F JUMP JUMPDEST DUP3 ADD SWAP2 SWAP1 PUSH1 0x0 MSTORE PUSH1 0x20 PUSH1 0x0 KECCAK256 SWAP1 JUMPDEST DUP2 SLOAD DUP2 MSTORE SWAP1 PUSH1 0x1 ADD SWAP1 PUSH1 0x20 ADD DUP1 DUP4 GT PUSH2 0x432 JUMPI DUP3 SWAP1 SUB PUSH1 0x1F AND DUP3 ADD SWAP2 JUMPDEST POP POP POP POP POP DUP2 JUMP JUMPDEST PUSH1 0x60 PUSH1 0x0 PUSH2 0x465 DUP4 TIMESTAMP PUSH2 0x2D7 JUMP JUMPDEST SWAP2 POP SWAP2 POP SWAP2 POP SWAP2 JUMP JUMPDEST PUSH2 0x476 PUSH2 0x15EB JUMP JUMPDEST DUP4 MLOAD PUSH2 0x481 SWAP1 PUSH2 0x57A JUMP JUMPDEST SWAP1 POP PUSH1 0x0 PUSH2 0x493 DUP3 DUP4 PUSH1 0x0 ADD MLOAD PUSH2 0x674 JUMP JUMPDEST PUSH1 0x40 DUP4 ADD MLOAD SWAP1 SWAP2 POP PUSH1 0xFF AND PUSH2 0x4A9 DUP3 PUSH1 0x0 PUSH2 0x786 JUMP JUMPDEST EQ PUSH2 0x4D8 JUMPI DUP1 DUP3 PUSH1 0x40 ADD MLOAD PUSH1 0x40 MLOAD PUSH4 0xE861B2BD PUSH1 0xE0 SHL DUP2 MSTORE PUSH1 0x4 ADD PUSH2 0x4CF SWAP3 SWAP2 SWAP1 PUSH2 0x1A7D JUMP JUMPDEST PUSH1 0x40 MLOAD DUP1 SWAP2 SUB SWAP1 REVERT JUMPDEST PUSH2 0x120 DUP3 ADD DUP2 SWAP1 MSTORE PUSH1 0x80 DUP3 ADD MLOAD PUSH1 0x0 SWAP1 DUP5 SWAP1 SUB PUSH1 0x3 SIGNEXTEND SLT ISZERO PUSH2 0x523 JUMPI PUSH1 0x80 DUP3 ADD MLOAD PUSH1 0x40 MLOAD PUSH4 0x53C27C3F PUSH1 0xE1 SHL DUP2 MSTORE PUSH4 0xFFFFFFFF SWAP2 DUP3 AND PUSH1 0x4 DUP3 ADD MSTORE SWAP1 DUP5 AND PUSH1 0x24 DUP3 ADD MSTORE PUSH1 0x44 ADD PUSH2 0x4CF JUMP JUMPDEST PUSH1 0xA0 DUP3 ADD MLOAD PUSH1 0x0 SWAP1 DUP5 SUB PUSH1 0x3 SIGNEXTEND SLT ISZERO PUSH2 0x565 JUMPI PUSH1 0xA0 DUP3 ADD MLOAD PUSH1 0x40 MLOAD PUSH4 0x5EA081B5 PUSH1 0xE1 SHL DUP2 MSTORE PUSH4 0xFFFFFFFF SWAP2 DUP3 AND PUSH1 0x4 DUP3 ADD MSTORE SWAP1 DUP5 AND PUSH1 0x24 DUP3 ADD MSTORE PUSH1 0x44 ADD PUSH2 0x4CF JUMP JUMPDEST PUSH2 0x571 DUP2 DUP4 DUP8 DUP8 PUSH2 0x7EC JUMP JUMPDEST POP JUMPDEST SWAP4 SWAP3 POP POP POP JUMP JUMPDEST PUSH2 0x582 PUSH2 0x15EB JUMP JUMPDEST PUSH2 0x58D DUP3 PUSH1 0x0 PUSH2 0x89D JUMP JUMPDEST PUSH2 0xFFFF AND DUP2 MSTORE PUSH2 0x59E DUP3 PUSH1 0x2 PUSH2 0x8C5 JUMP JUMPDEST PUSH1 0xFF AND PUSH1 0x20 DUP3 ADD MSTORE PUSH2 0x5B1 DUP3 PUSH1 0x3 PUSH2 0x8C5 JUMP JUMPDEST PUSH1 0xFF AND PUSH1 0x40 DUP3 ADD MSTORE PUSH2 0x5C4 DUP3 PUSH1 0x4 PUSH2 0x8E9 JUMP JUMPDEST PUSH4 0xFFFFFFFF SWAP1 DUP2 AND PUSH1 0x60 DUP4 ADD MSTORE PUSH2 0x5E0 SWAP1 DUP4 SWAP1 PUSH1 0x8 SWAP1 PUSH2 0x8E9 AND JUMP JUMPDEST PUSH4 0xFFFFFFFF SWAP1 DUP2 AND PUSH1 0x80 DUP4 ADD MSTORE PUSH2 0x5FC SWAP1 DUP4 SWAP1 PUSH1 0xC SWAP1 PUSH2 0x8E9 AND JUMP JUMPDEST PUSH4 0xFFFFFFFF SWAP1 DUP2 AND PUSH1 0xA0 DUP4 ADD MSTORE PUSH2 0x618 SWAP1 DUP4 SWAP1 PUSH1 0x10 SWAP1 PUSH2 0x89D AND JUMP JUMPDEST PUSH2 0xFFFF AND PUSH1 0xC0 DUP3 ADD MSTORE PUSH2 0x62C DUP3 PUSH1 0x12 PUSH2 0x913 JUMP JUMPDEST PUSH1 0xE0 DUP3 ADD DUP2 SWAP1 MSTORE MLOAD PUSH2 0x669 SWAP1 PUSH2 0x643 SWAP1 PUSH1 0x12 PUSH2 0x1AA2 JUMP JUMPDEST DUP3 PUSH1 0xE0 ADD MLOAD MLOAD PUSH1 0x12 DUP6 MLOAD PUSH2 0x657 SWAP2 SWAP1 PUSH2 0x1AB5 JUMP JUMPDEST PUSH2 0x661 SWAP2 SWAP1 PUSH2 0x1AB5 JUMP JUMPDEST DUP5 SWAP2 SWAP1 PUSH2 0x936 JUMP JUMPDEST PUSH2 0x100 DUP3 ADD MSTORE SWAP2 SWAP1 POP JUMP JUMPDEST PUSH1 0x60 PUSH1 0x0 PUSH2 0x681 DUP5 PUSH2 0x9B8 JUMP JUMPDEST SWAP1 POP JUMPDEST DUP1 MLOAD MLOAD PUSH1 0x20 DUP3 ADD MLOAD LT ISZERO PUSH2 0x77F JUMPI PUSH1 0x60 DUP2 ADD MLOAD PUSH2 0xFFFF AND PUSH1 0x1 EQ PUSH2 0x6C7 JUMPI PUSH1 0x60 DUP2 ADD MLOAD PUSH1 0x40 MLOAD PUSH4 0x4C52F98D PUSH1 0xE1 SHL DUP2 MSTORE PUSH2 0xFFFF SWAP1 SWAP2 AND PUSH1 0x4 DUP3 ADD MSTORE PUSH1 0x24 ADD PUSH2 0x4CF JUMP JUMPDEST DUP2 MLOAD PUSH1 0x0 SUB PUSH2 0x6E0 JUMPI PUSH2 0x6D9 DUP2 PUSH2 0x9D0 JUMP JUMPDEST SWAP2 POP PUSH2 0x731 JUMP JUMPDEST PUSH1 0x20 DUP2 ADD MLOAD DUP2 MLOAD PUSH2 0x6F0 SWAP2 PUSH2 0x9F1 JUMP JUMPDEST DUP3 MLOAD EQ ISZERO DUP1 PUSH2 0x713 JUMPI POP DUP1 MLOAD PUSH1 0x20 DUP3 ADD MLOAD DUP4 MLOAD PUSH2 0x711 SWAP3 DUP6 SWAP3 PUSH1 0x0 SWAP3 PUSH2 0xA4B JUMP JUMPDEST ISZERO JUMPDEST ISZERO PUSH2 0x731 JUMPI PUSH1 0x40 MLOAD PUSH4 0xCBCEEE6F PUSH1 0xE0 SHL DUP2 MSTORE PUSH1 0x4 ADD PUSH1 0x40 MLOAD DUP1 SWAP2 SUB SWAP1 REVERT JUMPDEST DUP3 PUSH2 0xFFFF AND DUP2 PUSH1 0x40 ADD MLOAD PUSH2 0xFFFF AND EQ PUSH2 0x771 JUMPI PUSH1 0x40 DUP1 DUP3 ADD MLOAD SWAP1 MLOAD PUSH4 0x537FC545 PUSH1 0xE1 SHL DUP2 MSTORE PUSH2 0xFFFF SWAP2 DUP3 AND PUSH1 0x4 DUP3 ADD MSTORE SWAP1 DUP5 AND PUSH1 0x24 DUP3 ADD MSTORE PUSH1 0x44 ADD PUSH2 0x4CF JUMP JUMPDEST PUSH2 0x77A DUP2 PUSH2 0xA6E JUMP JUMPDEST PUSH2 0x684 JUMP JUMPDEST POP SWAP3 SWAP2 POP POP JUMP JUMPDEST PUSH1 0x0 DUP1 JUMPDEST DUP4 MLOAD DUP4 LT PUSH2 0x79A JUMPI PUSH2 0x79A PUSH2 0x1AC8 JUMP JUMPDEST PUSH1 0x0 PUSH2 0x7A6 DUP6 DUP6 PUSH2 0x8C5 JUMP JUMPDEST PUSH1 0xFF AND SWAP1 POP PUSH2 0x7B6 DUP2 PUSH1 0x1 PUSH2 0x1AA2 JUMP JUMPDEST PUSH2 0x7C0 SWAP1 DUP6 PUSH2 0x1AA2 JUMP JUMPDEST SWAP4 POP DUP1 PUSH1 0x0 SUB PUSH2 0x7D0 JUMPI POP PUSH2 0x7E3 JUMP JUMPDEST PUSH2 0x7DB PUSH1 0x1 DUP4 PUSH2 0x1AA2 JUMP JUMPDEST SWAP2 POP POP PUSH2 0x78A JUMP JUMPDEST SWAP1 POP JUMPDEST SWAP3 SWAP2 POP POP JUMP JUMPDEST PUSH1 0xE0 DUP4 ADD MLOAD PUSH2 0x7FC SWAP1 DUP6 SWAP1 PUSH2 0xB56 JUMP JUMPDEST PUSH2 0x820 JUMPI PUSH1 0xE0 DUP4 ADD MLOAD PUSH1 0x40 MLOAD PUSH4 0xEAAFC59B PUSH1 0xE0 SHL DUP2 MSTORE PUSH2 0x4CF SWAP2 DUP7 SWAP2 PUSH1 0x4 ADD PUSH2 0x1ADE JUMP JUMPDEST PUSH1 0x0 PUSH2 0x82C DUP3 DUP3 PUSH2 0xBB3 JUMP JUMPDEST SWAP1 POP PUSH1 0x2B PUSH2 0xFFFF AND DUP2 PUSH1 0x40 ADD MLOAD PUSH2 0xFFFF AND SUB PUSH2 0x852 JUMPI PUSH2 0x84D DUP5 DUP5 DUP4 PUSH2 0xBCE JUMP JUMPDEST PUSH2 0x896 JUMP JUMPDEST PUSH1 0x30 PUSH2 0xFFFF AND DUP2 PUSH1 0x40 ADD MLOAD PUSH2 0xFFFF AND SUB PUSH2 0x871 JUMPI PUSH2 0x84D DUP5 DUP5 DUP4 PUSH2 0xCBB JUMP JUMPDEST PUSH1 0x40 DUP1 DUP3 ADD MLOAD SWAP1 MLOAD PUSH4 0x61529E87 PUSH1 0xE0 SHL DUP2 MSTORE PUSH2 0xFFFF SWAP1 SWAP2 AND PUSH1 0x4 DUP3 ADD MSTORE PUSH1 0x24 ADD PUSH2 0x4CF JUMP JUMPDEST POP POP POP POP POP JUMP JUMPDEST DUP2 MLOAD PUSH1 0x0 SWAP1 PUSH2 0x8AD DUP4 PUSH1 0x2 PUSH2 0x1AA2 JUMP JUMPDEST GT ISZERO PUSH2 0x8B8 JUMPI PUSH1 0x0 DUP1 REVERT JUMPDEST POP ADD PUSH1 0x2 ADD MLOAD PUSH2 0xFFFF AND SWAP1 JUMP JUMPDEST PUSH1 0x0 DUP3 DUP3 DUP2 MLOAD DUP2 LT PUSH2 0x8D9 JUMPI PUSH2 0x8D9 PUSH2 0x1A38 JUMP JUMPDEST ADD PUSH1 0x20 ADD MLOAD PUSH1 0xF8 SHR SWAP1 POP SWAP3 SWAP2 POP POP JUMP JUMPDEST DUP2 MLOAD PUSH1 0x0 SWAP1 PUSH2 0x8F9 DUP4 PUSH1 0x4 PUSH2 0x1AA2 JUMP JUMPDEST GT ISZERO PUSH2 0x904 JUMPI PUSH1 0x0 DUP1 REVERT JUMPDEST POP ADD PUSH1 0x4 ADD MLOAD PUSH4 0xFFFFFFFF AND SWAP1 JUMP JUMPDEST PUSH1 0x60 PUSH1 0x0 PUSH2 0x921 DUP5 DUP5 PUSH2 0x9F1 JUMP JUMPDEST SWAP1 POP PUSH2 0x92E DUP5 DUP5 DUP4 PUSH2 0x936 JUMP JUMPDEST SWAP5 SWAP4 POP POP POP POP JUMP JUMPDEST DUP3 MLOAD PUSH1 0x60 SWAP1 PUSH2 0x945 DUP4 DUP6 PUSH2 0x1AA2 JUMP JUMPDEST GT ISZERO PUSH2 0x950 JUMPI PUSH1 0x0 DUP1 REVERT JUMPDEST PUSH1 0x0 DUP3 PUSH8 0xFFFFFFFFFFFFFFFF DUP2 GT ISZERO PUSH2 0x96B JUMPI PUSH2 0x96B PUSH2 0x170E JUMP JUMPDEST PUSH1 0x40 MLOAD SWAP1 DUP1 DUP3 MSTORE DUP1 PUSH1 0x1F ADD PUSH1 0x1F NOT AND PUSH1 0x20 ADD DUP3 ADD PUSH1 0x40 MSTORE DUP1 ISZERO PUSH2 0x995 JUMPI PUSH1 0x20 DUP3 ADD DUP2 DUP1 CALLDATASIZE DUP4 CALLDATACOPY ADD SWAP1 POP JUMPDEST POP SWAP1 POP PUSH1 0x20 DUP1 DUP3 ADD SWAP1 DUP7 DUP7 ADD ADD PUSH2 0x9AD DUP3 DUP3 DUP8 PUSH2 0xD83 JUMP JUMPDEST POP SWAP1 SWAP6 SWAP5 POP POP POP POP POP JUMP JUMPDEST PUSH2 0x9C0 PUSH2 0x1641 JUMP JUMPDEST PUSH2 0x7E6 DUP3 PUSH2 0x100 ADD MLOAD PUSH1 0x0 PUSH2 0xBB3 JUMP JUMPDEST PUSH1 0x20 DUP2 ADD MLOAD DUP2 MLOAD PUSH1 0x60 SWAP2 PUSH2 0x7E6 SWAP2 PUSH2 0x9E8 SWAP1 DUP3 PUSH2 0x9F1 JUMP JUMPDEST DUP5 MLOAD SWAP2 SWAP1 PUSH2 0x936 JUMP JUMPDEST PUSH1 0x0 DUP2 JUMPDEST DUP4 MLOAD DUP2 LT PUSH2 0xA05 JUMPI PUSH2 0xA05 PUSH2 0x1AC8 JUMP JUMPDEST PUSH1 0x0 PUSH2 0xA11 DUP6 DUP4 PUSH2 0x8C5 JUMP JUMPDEST PUSH1 0xFF AND SWAP1 POP PUSH2 0xA21 DUP2 PUSH1 0x1 PUSH2 0x1AA2 JUMP JUMPDEST PUSH2 0xA2B SWAP1 DUP4 PUSH2 0x1AA2 JUMP JUMPDEST SWAP2 POP DUP1 PUSH1 0x0 SUB PUSH2 0xA3B JUMPI POP PUSH2 0xA41 JUMP JUMPDEST POP PUSH2 0x9F5 JUMP JUMPDEST PUSH2 0x92E DUP4 DUP3 PUSH2 0x1AB5 JUMP JUMPDEST PUSH1 0x0 PUSH2 0xA58 DUP5 DUP5 DUP5 PUSH2 0xDD9 JUMP JUMPDEST PUSH2 0xA63 DUP8 DUP8 DUP6 PUSH2 0xDD9 JUMP JUMPDEST EQ SWAP7 SWAP6 POP POP POP POP POP POP JUMP JUMPDEST PUSH1 0xC0 DUP2 ADD MLOAD PUSH1 0x20 DUP3 ADD DUP2 SWAP1 MSTORE DUP2 MLOAD MLOAD GT PUSH2 0xA85 JUMPI POP JUMP JUMPDEST PUSH1 0x0 PUSH2 0xA99 DUP3 PUSH1 0x0 ADD MLOAD DUP4 PUSH1 0x20 ADD MLOAD PUSH2 0x9F1 JUMP JUMPDEST DUP3 PUSH1 0x20 ADD MLOAD PUSH2 0xAA8 SWAP2 SWAP1 PUSH2 0x1AA2 JUMP JUMPDEST DUP3 MLOAD SWAP1 SWAP2 POP PUSH2 0xAB7 SWAP1 DUP3 PUSH2 0x89D JUMP JUMPDEST PUSH2 0xFFFF AND PUSH1 0x40 DUP4 ADD MSTORE PUSH2 0xACB PUSH1 0x2 DUP3 PUSH2 0x1AA2 JUMP JUMPDEST DUP3 MLOAD SWAP1 SWAP2 POP PUSH2 0xADA SWAP1 DUP3 PUSH2 0x89D JUMP JUMPDEST PUSH2 0xFFFF AND PUSH1 0x60 DUP4 ADD MSTORE PUSH2 0xAEE PUSH1 0x2 DUP3 PUSH2 0x1AA2 JUMP JUMPDEST DUP3 MLOAD SWAP1 SWAP2 POP PUSH2 0xAFD SWAP1 DUP3 PUSH2 0x8E9 JUMP JUMPDEST PUSH4 0xFFFFFFFF AND PUSH1 0x80 DUP4 ADD MSTORE PUSH2 0xB13 PUSH1 0x4 DUP3 PUSH2 0x1AA2 JUMP JUMPDEST DUP3 MLOAD SWAP1 SWAP2 POP PUSH1 0x0 SWAP1 PUSH2 0xB25 SWAP1 DUP4 PUSH2 0x89D JUMP JUMPDEST PUSH2 0xFFFF AND SWAP1 POP PUSH2 0xB36 PUSH1 0x2 DUP4 PUSH2 0x1AA2 JUMP JUMPDEST PUSH1 0xA0 DUP5 ADD DUP2 SWAP1 MSTORE SWAP2 POP PUSH2 0xB49 DUP2 DUP4 PUSH2 0x1AA2 JUMP JUMPDEST PUSH1 0xC0 SWAP1 SWAP4 ADD SWAP3 SWAP1 SWAP3 MSTORE POP POP JUMP JUMPDEST PUSH1 0x0 DUP1 DUP1 PUSH2 0xB64 DUP6 DUP3 PUSH2 0x786 JUMP JUMPDEST SWAP1 POP PUSH1 0x0 PUSH2 0xB73 DUP6 PUSH1 0x0 PUSH2 0x786 JUMP JUMPDEST SWAP1 POP JUMPDEST DUP1 DUP3 GT ISZERO PUSH2 0xB9C JUMPI PUSH2 0xB88 DUP7 DUP5 PUSH2 0xDFD JUMP JUMPDEST SWAP3 POP DUP2 PUSH2 0xB94 DUP2 PUSH2 0x1B0C JUMP JUMPDEST SWAP3 POP POP PUSH2 0xB76 JUMP JUMPDEST PUSH2 0xBA9 DUP7 DUP5 DUP8 PUSH1 0x0 PUSH2 0xE21 JUMP JUMPDEST SWAP7 SWAP6 POP POP POP POP POP POP JUMP JUMPDEST PUSH2 0xBBB PUSH2 0x1641 JUMP JUMPDEST DUP3 DUP2 MSTORE PUSH1 0xC0 DUP2 ADD DUP3 SWAP1 MSTORE PUSH2 0x7E6 DUP2 PUSH2 0xA6E JUMP JUMPDEST PUSH1 0x20 DUP2 ADD MLOAD PUSH1 0x0 PUSH2 0xBDE DUP6 PUSH2 0x9B8 JUMP JUMPDEST SWAP1 POP JUMPDEST DUP1 MLOAD MLOAD PUSH1 0x20 DUP3 ADD MLOAD LT ISZERO PUSH2 0xC9B JUMPI PUSH1 0x40 DUP2 ADD MLOAD PUSH2 0xFFFF AND PUSH1 0x30 EQ PUSH2 0xC24 JUMPI PUSH1 0x40 DUP1 DUP3 ADD MLOAD SWAP1 MLOAD PUSH4 0x61529E87 PUSH1 0xE0 SHL DUP2 MSTORE PUSH2 0xFFFF SWAP1 SWAP2 AND PUSH1 0x4 DUP3 ADD MSTORE PUSH1 0x24 ADD PUSH2 0x4CF JUMP JUMPDEST PUSH1 0x0 PUSH2 0xC2F DUP3 PUSH2 0xE56 JUMP JUMPDEST SWAP1 POP PUSH1 0x0 PUSH2 0xC4A PUSH1 0x0 DUP4 MLOAD DUP5 PUSH2 0xE72 SWAP1 SWAP3 SWAP2 SWAP1 PUSH4 0xFFFFFFFF AND JUMP JUMPDEST SWAP1 POP PUSH2 0xC58 DUP2 DUP4 DUP10 DUP10 PUSH2 0xF10 JUMP JUMPDEST ISZERO PUSH2 0xC8B JUMPI PUSH2 0xC6D DUP8 PUSH1 0xE0 ADD MLOAD DUP7 DUP4 DUP6 PUSH2 0x1036 JUMP JUMPDEST ISZERO PUSH2 0xC7B JUMPI POP POP POP POP POP POP POP JUMP JUMPDEST PUSH1 0xC0 DUP6 ADD DUP5 SWAP1 MSTORE PUSH2 0xC8B DUP6 PUSH2 0xA6E JUMP JUMPDEST POP POP PUSH2 0xC96 DUP2 PUSH2 0xA6E JUMP JUMPDEST PUSH2 0xBE1 JUMP JUMPDEST POP DUP4 PUSH1 0xE0 ADD MLOAD PUSH1 0x40 MLOAD PUSH4 0x6CDE0F3 PUSH1 0xE0 SHL DUP2 MSTORE PUSH1 0x4 ADD PUSH2 0x4CF SWAP2 SWAP1 PUSH2 0x19B6 JUMP JUMPDEST DUP1 MLOAD MLOAD PUSH1 0x20 DUP3 ADD MLOAD LT ISZERO PUSH2 0xD64 JUMPI PUSH1 0x0 PUSH2 0xCD4 DUP3 PUSH2 0x9D0 JUMP JUMPDEST SWAP1 POP PUSH2 0xCED DUP5 PUSH1 0xE0 ADD MLOAD DUP3 PUSH2 0x1173 SWAP1 SWAP2 SWAP1 PUSH4 0xFFFFFFFF AND JUMP JUMPDEST PUSH2 0xD12 JUMPI DUP4 PUSH1 0xE0 ADD MLOAD DUP2 PUSH1 0x40 MLOAD PUSH4 0x6B80573F PUSH1 0xE1 SHL DUP2 MSTORE PUSH1 0x4 ADD PUSH2 0x4CF SWAP3 SWAP2 SWAP1 PUSH2 0x1ADE JUMP JUMPDEST PUSH1 0x0 PUSH2 0xD1D DUP4 PUSH2 0xE56 JUMP JUMPDEST SWAP1 POP PUSH1 0x0 PUSH2 0xD38 PUSH1 0x0 DUP4 MLOAD DUP5 PUSH2 0xE72 SWAP1 SWAP3 SWAP2 SWAP1 PUSH4 0xFFFFFFFF AND JUMP JUMPDEST SWAP1 POP PUSH2 0xD46 DUP2 DUP4 DUP9 DUP9 PUSH2 0xF10 JUMP JUMPDEST ISZERO PUSH2 0xD53 JUMPI POP POP POP POP POP POP JUMP JUMPDEST POP POP POP PUSH2 0xD5F DUP2 PUSH2 0xA6E JUMP JUMPDEST PUSH2 0xCBB JUMP JUMPDEST DUP3 PUSH1 0xE0 ADD MLOAD PUSH1 0x40 MLOAD PUSH4 0x6CDE0F3 PUSH1 0xE0 SHL DUP2 MSTORE PUSH1 0x4 ADD PUSH2 0x4CF SWAP2 SWAP1 PUSH2 0x19B6 JUMP JUMPDEST PUSH1 0x20 DUP2 LT PUSH2 0xDBB JUMPI DUP2 MLOAD DUP4 MSTORE PUSH2 0xD9A PUSH1 0x20 DUP5 PUSH2 0x1AA2 JUMP JUMPDEST SWAP3 POP PUSH2 0xDA7 PUSH1 0x20 DUP4 PUSH2 0x1AA2 JUMP JUMPDEST SWAP2 POP PUSH2 0xDB4 PUSH1 0x20 DUP3 PUSH2 0x1AB5 JUMP JUMPDEST SWAP1 POP PUSH2 0xD83 JUMP JUMPDEST SWAP1 MLOAD DUP3 MLOAD PUSH1 0x20 SWAP3 SWAP1 SWAP3 SUB PUSH2 0x100 EXP PUSH1 0x0 NOT ADD DUP1 NOT SWAP1 SWAP2 AND SWAP2 AND OR SWAP1 MSTORE JUMP JUMPDEST DUP3 MLOAD PUSH1 0x0 SWAP1 PUSH2 0xDE8 DUP4 DUP6 PUSH2 0x1AA2 JUMP JUMPDEST GT ISZERO PUSH2 0xDF3 JUMPI PUSH1 0x0 DUP1 REVERT JUMPDEST POP SWAP2 ADD PUSH1 0x20 ADD KECCAK256 SWAP1 JUMP JUMPDEST PUSH1 0x0 PUSH2 0xE09 DUP4 DUP4 PUSH2 0x8C5 JUMP JUMPDEST PUSH1 0xFF AND PUSH2 0xE17 DUP4 PUSH1 0x1 PUSH2 0x1AA2 JUMP JUMPDEST PUSH2 0x7E3 SWAP2 SWAP1 PUSH2 0x1AA2 JUMP JUMPDEST PUSH1 0x0 PUSH2 0xE3A DUP4 DUP4 DUP5 DUP7 MLOAD PUSH2 0xE35 SWAP2 SWAP1 PUSH2 0x1AB5 JUMP JUMPDEST PUSH2 0xDD9 JUMP JUMPDEST PUSH2 0xE4C DUP7 DUP7 DUP8 DUP10 MLOAD PUSH2 0xE35 SWAP2 SWAP1 PUSH2 0x1AB5 JUMP JUMPDEST EQ SWAP6 SWAP5 POP POP POP POP POP JUMP JUMPDEST PUSH1 0xA0 DUP2 ADD MLOAD PUSH1 0xC0 DUP3 ADD MLOAD PUSH1 0x60 SWAP2 PUSH2 0x7E6 SWAP2 PUSH2 0x9E8 SWAP1 DUP3 SWAP1 PUSH2 0x1AB5 JUMP JUMPDEST PUSH1 0x40 DUP1 MLOAD PUSH1 0x80 DUP2 ADD DUP3 MSTORE PUSH1 0x0 DUP1 DUP3 MSTORE PUSH1 0x20 DUP3 ADD DUP2 SWAP1 MSTORE SWAP2 DUP2 ADD SWAP2 SWAP1 SWAP2 MSTORE PUSH1 0x60 DUP1 DUP3 ADD MSTORE PUSH2 0xEAA PUSH2 0xEA3 PUSH1 0x0 DUP6 PUSH2 0x1AA2 JUMP JUMPDEST DUP6 SWAP1 PUSH2 0x89D JUMP JUMPDEST PUSH2 0xFFFF AND DUP2 MSTORE PUSH2 0xEC5 PUSH2 0xEBE PUSH1 0x2 DUP6 PUSH2 0x1AA2 JUMP JUMPDEST DUP6 SWAP1 PUSH2 0x8C5 JUMP JUMPDEST PUSH1 0xFF AND PUSH1 0x20 DUP3 ADD MSTORE PUSH2 0xEDB PUSH2 0xEBE PUSH1 0x3 DUP6 PUSH2 0x1AA2 JUMP JUMPDEST PUSH1 0xFF AND PUSH1 0x40 DUP3 ADD MSTORE PUSH2 0xF04 PUSH2 0xEF1 PUSH1 0x4 DUP6 PUSH2 0x1AA2 JUMP JUMPDEST PUSH2 0xEFC PUSH1 0x4 DUP6 PUSH2 0x1AB5 JUMP JUMPDEST DUP7 SWAP2 SWAP1 PUSH2 0x936 JUMP JUMPDEST PUSH1 0x60 DUP3 ADD MSTORE SWAP4 SWAP3 POP POP POP JUMP JUMPDEST PUSH1 0x0 DUP5 PUSH1 0x20 ADD MLOAD PUSH1 0xFF AND PUSH1 0x3 EQ PUSH2 0xF29 JUMPI POP PUSH1 0x0 PUSH2 0x92E JUMP JUMPDEST DUP3 PUSH1 0x20 ADD MLOAD PUSH1 0xFF AND DUP6 PUSH1 0x40 ADD MLOAD PUSH1 0xFF AND EQ PUSH2 0xF46 JUMPI POP PUSH1 0x0 PUSH2 0x92E JUMP JUMPDEST PUSH1 0x0 PUSH2 0xF51 DUP6 PUSH2 0x1191 JUMP JUMPDEST SWAP1 POP DUP4 PUSH1 0xC0 ADD MLOAD PUSH2 0xFFFF AND DUP2 PUSH2 0xFFFF AND EQ PUSH2 0xF70 JUMPI PUSH1 0x0 SWAP2 POP POP PUSH2 0x92E JUMP JUMPDEST DUP6 MLOAD PUSH2 0x100 AND PUSH1 0x0 SUB PUSH2 0xF87 JUMPI PUSH1 0x0 SWAP2 POP POP PUSH2 0x92E JUMP JUMPDEST PUSH1 0x40 DUP1 DUP8 ADD MLOAD PUSH1 0xFF AND PUSH1 0x0 SWAP1 DUP2 MSTORE PUSH1 0x2 PUSH1 0x20 MSTORE KECCAK256 SLOAD PUSH1 0x1 PUSH1 0x1 PUSH1 0xA0 SHL SUB AND DUP1 PUSH2 0xFB5 JUMPI PUSH1 0x0 SWAP3 POP POP POP PUSH2 0x92E JUMP JUMPDEST DUP4 MLOAD PUSH1 0x20 DUP6 ADD MLOAD PUSH1 0x40 MLOAD PUSH4 0xDE8F50A1 PUSH1 0xE0 SHL DUP2 MSTORE PUSH1 0x1 PUSH1 0x1 PUSH1 0xA0 SHL SUB DUP5 AND SWAP3 PUSH4 0xDE8F50A1 SWAP3 PUSH2 0xFEA SWAP3 DUP12 SWAP3 SWAP2 SWAP1 PUSH1 0x4 ADD PUSH2 0x1B23 JUMP JUMPDEST PUSH1 0x20 PUSH1 0x40 MLOAD DUP1 DUP4 SUB DUP2 DUP7 GAS STATICCALL ISZERO DUP1 ISZERO PUSH2 0x1007 JUMPI RETURNDATASIZE PUSH1 0x0 DUP1 RETURNDATACOPY RETURNDATASIZE PUSH1 0x0 REVERT JUMPDEST POP POP POP POP PUSH1 0x40 MLOAD RETURNDATASIZE PUSH1 0x1F NOT PUSH1 0x1F DUP3 ADD AND DUP3 ADD DUP1 PUSH1 0x40 MSTORE POP DUP2 ADD SWAP1 PUSH2 0x102B SWAP2 SWAP1 PUSH2 0x1B5C JUMP JUMPDEST SWAP8 SWAP7 POP POP POP POP POP POP POP JUMP JUMPDEST PUSH1 0x0 DUP1 PUSH2 0x1042 DUP4 PUSH2 0x1191 JUMP JUMPDEST SWAP1 POP JUMPDEST DUP5 MLOAD MLOAD PUSH1 0x20 DUP7 ADD MLOAD LT ISZERO PUSH2 0x1167 JUMPI PUSH1 0x0 PUSH2 0x105E DUP7 PUSH2 0x9D0 JUMP JUMPDEST SWAP1 POP PUSH2 0x106A DUP2 DUP9 PUSH2 0x1173 JUMP JUMPDEST PUSH2 0x108B JUMPI DUP7 DUP2 PUSH1 0x40 MLOAD PUSH4 0x6B80573F PUSH1 0xE1 SHL DUP2 MSTORE PUSH1 0x4 ADD PUSH2 0x4CF SWAP3 SWAP2 SWAP1 PUSH2 0x1ADE JUMP JUMPDEST PUSH1 0xA0 DUP7 ADD MLOAD PUSH1 0xC0 DUP8 ADD MLOAD PUSH1 0x0 SWAP2 PUSH2 0x10B0 SWAP2 PUSH2 0x10A7 SWAP1 DUP3 SWAP1 PUSH2 0x1AB5 JUMP JUMPDEST DUP10 MLOAD SWAP2 SWAP1 PUSH2 0xE72 JUMP JUMPDEST SWAP1 POP DUP3 PUSH2 0xFFFF AND DUP2 PUSH1 0x0 ADD MLOAD PUSH2 0xFFFF AND EQ PUSH2 0x10CC JUMPI POP POP PUSH2 0x1159 JUMP JUMPDEST DUP6 PUSH1 0x40 ADD MLOAD PUSH1 0xFF AND DUP2 PUSH1 0x20 ADD MLOAD PUSH1 0xFF AND EQ PUSH2 0x10E8 JUMPI POP POP PUSH2 0x1159 JUMP JUMPDEST PUSH1 0x40 DUP1 MLOAD DUP1 DUP3 ADD SWAP1 SWAP2 MSTORE PUSH1 0x60 DUP2 MSTORE PUSH1 0x0 PUSH1 0x20 DUP3 ADD MSTORE PUSH2 0x1115 DUP7 MLOAD DUP11 MLOAD PUSH2 0x110E SWAP2 SWAP1 PUSH2 0x1AA2 JUMP JUMPDEST DUP3 SWAP1 PUSH2 0x13B4 JUMP JUMPDEST POP PUSH2 0x1120 DUP2 DUP11 PUSH2 0x142B JUMP JUMPDEST POP PUSH2 0x112B DUP2 DUP8 PUSH2 0x142B JUMP JUMPDEST POP PUSH2 0x1143 DUP3 PUSH1 0x40 ADD MLOAD DUP3 PUSH1 0x0 ADD MLOAD DUP5 PUSH1 0x60 ADD MLOAD PUSH2 0x144C JUMP JUMPDEST ISZERO PUSH2 0x1155 JUMPI PUSH1 0x1 SWAP5 POP POP POP POP POP PUSH2 0x92E JUMP JUMPDEST POP POP POP JUMPDEST PUSH2 0x1162 DUP6 PUSH2 0xA6E JUMP JUMPDEST PUSH2 0x1045 JUMP JUMPDEST POP PUSH1 0x0 SWAP6 SWAP5 POP POP POP POP POP JUMP JUMPDEST PUSH1 0x0 DUP2 MLOAD DUP4 MLOAD EQ DUP1 ISZERO PUSH2 0x7E3 JUMPI POP PUSH2 0x7E3 DUP4 PUSH1 0x0 DUP5 PUSH1 0x0 DUP8 MLOAD PUSH2 0xA4B JUMP JUMPDEST PUSH1 0x0 PUSH2 0x2000 DUP3 MLOAD GT ISZERO PUSH2 0x11E6 JUMPI PUSH1 0x40 MLOAD PUSH3 0x461BCD PUSH1 0xE5 SHL DUP2 MSTORE PUSH1 0x20 PUSH1 0x4 DUP3 ADD MSTORE PUSH1 0x17 PUSH1 0x24 DUP3 ADD MSTORE PUSH32 0x4C6F6E67206B657973206E6F74207065726D6974746564000000000000000000 PUSH1 0x44 DUP3 ADD MSTORE PUSH1 0x64 ADD PUSH2 0x4CF JUMP JUMPDEST PUSH1 0x0 DUP1 PUSH1 0x0 JUMPDEST DUP5 MLOAD PUSH1 0x1F ADD DUP2 LT ISZERO PUSH2 0x125B JUMPI PUSH1 0x0 DUP2 PUSH1 0x20 DUP8 ADD ADD MLOAD SWAP1 POP DUP6 MLOAD DUP3 PUSH1 0x20 ADD GT ISZERO PUSH2 0x1221 JUMPI DUP6 MLOAD DUP3 SWAP1 SUB PUSH1 0x8 MUL PUSH2 0x100 SUB SWAP1 DUP2 SHR SWAP1 SHL JUMPDEST PUSH31 0xFF00FF00FF00FF00FF00FF00FF00FF00FF00FF00FF00FF00FF00FF00FF00FF PUSH1 0x8 DUP3 SWAP1 SHR DUP2 AND SWAP5 SWAP1 SWAP5 ADD SWAP4 AND SWAP2 SWAP1 SWAP2 ADD SWAP1 PUSH1 0x20 ADD PUSH2 0x11EC JUMP JUMPDEST POP PUSH1 0x10 DUP3 PUSH32 0xFFFF0000FFFF0000FFFF0000FFFF0000FFFF0000FFFF0000FFFF0000FFFF0000 AND SWAP1 SHR DUP3 PUSH30 0xFFFF0000FFFF0000FFFF0000FFFF0000FFFF0000FFFF0000FFFF0000FFFF AND ADD SWAP2 POP PUSH1 0x10 DUP2 PUSH32 0xFFFF0000FFFF0000FFFF0000FFFF0000FFFF0000FFFF0000FFFF0000FFFF0000 AND SWAP1 SHR DUP2 PUSH30 0xFFFF0000FFFF0000FFFF0000FFFF0000FFFF0000FFFF0000FFFF0000FFFF AND ADD SWAP1 POP DUP1 PUSH1 0x8 DUP4 SWAP1 SHL ADD SWAP2 POP PUSH1 0x20 DUP3 PUSH32 0xFFFFFFFF00000000FFFFFFFF00000000FFFFFFFF00000000FFFFFFFF00000000 AND SWAP1 SHR DUP3 PUSH28 0xFFFFFFFF00000000FFFFFFFF00000000FFFFFFFF00000000FFFFFFFF AND ADD SWAP2 POP PUSH1 0x40 DUP3 PUSH24 0xFFFFFFFFFFFFFFFF0000000000000000FFFFFFFFFFFFFFFF NOT AND SWAP1 SHR DUP3 PUSH24 0xFFFFFFFFFFFFFFFF0000000000000000FFFFFFFFFFFFFFFF AND ADD SWAP2 POP PUSH1 0x80 DUP3 SWAP1 SHR DUP3 PUSH16 0xFFFFFFFFFFFFFFFFFFFFFFFFFFFFFFFF AND ADD SWAP2 POP PUSH1 0x10 DUP3 SWAP1 SHR PUSH2 0xFFFF AND DUP3 ADD SWAP2 POP DUP2 SWAP3 POP POP POP SWAP2 SWAP1 POP JUMP JUMPDEST PUSH1 0x40 DUP1 MLOAD DUP1 DUP3 ADD SWAP1 SWAP2 MSTORE PUSH1 0x60 DUP2 MSTORE PUSH1 0x0 PUSH1 0x20 DUP3 ADD MSTORE PUSH2 0x13D4 PUSH1 0x20 DUP4 PUSH2 0x1B7E JUMP JUMPDEST ISZERO PUSH2 0x13FC JUMPI PUSH2 0x13E4 PUSH1 0x20 DUP4 PUSH2 0x1B7E JUMP JUMPDEST PUSH2 0x13EF SWAP1 PUSH1 0x20 PUSH2 0x1AB5 JUMP JUMPDEST PUSH2 0x13F9 SWAP1 DUP4 PUSH2 0x1AA2 JUMP JUMPDEST SWAP2 POP JUMPDEST PUSH1 0x20 DUP1 DUP5 ADD DUP4 SWAP1 MSTORE PUSH1 0x40 MLOAD DUP1 DUP6 MSTORE PUSH1 0x0 DUP2 MSTORE SWAP1 DUP2 DUP5 ADD ADD DUP2 DUP2 LT ISZERO PUSH2 0x1420 JUMPI PUSH1 0x0 DUP1 REVERT JUMPDEST PUSH1 0x40 MSTORE POP SWAP2 SWAP3 SWAP2 POP POP JUMP JUMPDEST PUSH1 0x40 DUP1 MLOAD DUP1 DUP3 ADD SWAP1 SWAP2 MSTORE PUSH1 0x60 DUP2 MSTORE PUSH1 0x0 PUSH1 0x20 DUP3 ADD MSTORE PUSH2 0x7E3 DUP4 DUP4 DUP5 MLOAD PUSH2 0x14F8 JUMP JUMPDEST PUSH1 0xFF DUP4 AND PUSH1 0x0 SWAP1 DUP2 MSTORE PUSH1 0x3 PUSH1 0x20 MSTORE PUSH1 0x40 DUP2 KECCAK256 SLOAD PUSH1 0x1 PUSH1 0x1 PUSH1 0xA0 SHL SUB AND PUSH2 0x1474 JUMPI POP PUSH1 0x0 PUSH2 0x573 JUMP JUMPDEST PUSH1 0xFF DUP5 AND PUSH1 0x0 SWAP1 DUP2 MSTORE PUSH1 0x3 PUSH1 0x20 MSTORE PUSH1 0x40 SWAP1 DUP2 SWAP1 KECCAK256 SLOAD SWAP1 MLOAD PUSH4 0x7BF41D77 PUSH1 0xE1 SHL DUP2 MSTORE PUSH1 0x1 PUSH1 0x1 PUSH1 0xA0 SHL SUB SWAP1 SWAP2 AND SWAP1 PUSH4 0xF7E83AEE SWAP1 PUSH2 0x14B7 SWAP1 DUP7 SWAP1 DUP7 SWAP1 PUSH1 0x4 ADD PUSH2 0x1ADE JUMP JUMPDEST PUSH1 0x20 PUSH1 0x40 MLOAD DUP1 DUP4 SUB DUP2 DUP7 GAS STATICCALL ISZERO DUP1 ISZERO PUSH2 0x14D4 JUMPI RETURNDATASIZE PUSH1 0x0 DUP1 RETURNDATACOPY RETURNDATASIZE PUSH1 0x0 REVERT JUMPDEST POP POP POP POP PUSH1 0x40 MLOAD RETURNDATASIZE PUSH1 0x1F NOT PUSH1 0x1F DUP3 ADD AND DUP3 ADD DUP1 PUSH1 0x40 MSTORE POP DUP2 ADD SWAP1 PUSH2 0x92E SWAP2 SWAP1 PUSH2 0x1B5C JUMP JUMPDEST PUSH1 0x40 DUP1 MLOAD DUP1 DUP3 ADD SWAP1 SWAP2 MSTORE PUSH1 0x60 DUP2 MSTORE PUSH1 0x0 PUSH1 0x20 DUP3 ADD MSTORE DUP3 MLOAD DUP3 GT ISZERO PUSH2 0x151B JUMPI PUSH1 0x0 DUP1 REVERT JUMPDEST DUP4 MLOAD MLOAD PUSH1 0x0 PUSH2 0x152A DUP5 DUP4 PUSH2 0x1AA2 JUMP JUMPDEST SWAP1 POP DUP6 PUSH1 0x20 ADD MLOAD DUP2 GT ISZERO PUSH2 0x154C JUMPI PUSH2 0x154C DUP7 PUSH2 0x1547 DUP4 PUSH1 0x2 PUSH2 0x1BA0 JUMP JUMPDEST PUSH2 0x15CE JUMP JUMPDEST DUP6 MLOAD DUP1 MLOAD DUP4 DUP3 ADD PUSH1 0x20 ADD SWAP2 PUSH1 0x0 SWAP2 DUP1 DUP6 GT ISZERO PUSH2 0x1566 JUMPI DUP5 DUP3 MSTORE JUMPDEST POP POP POP PUSH1 0x20 DUP7 ADD JUMPDEST PUSH1 0x20 DUP7 LT PUSH2 0x15A6 JUMPI DUP1 MLOAD DUP3 MSTORE PUSH2 0x1585 PUSH1 0x20 DUP4 PUSH2 0x1AA2 JUMP JUMPDEST SWAP2 POP PUSH2 0x1592 PUSH1 0x20 DUP3 PUSH2 0x1AA2 JUMP JUMPDEST SWAP1 POP PUSH2 0x159F PUSH1 0x20 DUP8 PUSH2 0x1AB5 JUMP JUMPDEST SWAP6 POP PUSH2 0x156E JUMP JUMPDEST MLOAD DUP2 MLOAD PUSH1 0x0 NOT PUSH1 0x20 DUP9 SWAP1 SUB PUSH2 0x100 EXP ADD SWAP1 DUP2 AND SWAP1 NOT SWAP2 SWAP1 SWAP2 AND OR SWAP1 MSTORE POP DUP5 SWAP2 POP POP SWAP4 SWAP3 POP POP POP JUMP JUMPDEST DUP2 MLOAD PUSH2 0x15DA DUP4 DUP4 PUSH2 0x13B4 JUMP JUMPDEST POP PUSH2 0x15E5 DUP4 DUP3 PUSH2 0x142B JUMP JUMPDEST POP POP POP POP JUMP JUMPDEST PUSH1 0x40 DUP1 MLOAD PUSH2 0x140 DUP2 ADD DUP3 MSTORE PUSH1 0x0 DUP1 DUP3 MSTORE PUSH1 0x20 DUP3 ADD DUP2 SWAP1 MSTORE SWAP2 DUP2 ADD DUP3 SWAP1 MSTORE PUSH1 0x60 DUP1 DUP3 ADD DUP4 SWAP1 MSTORE PUSH1 0x80 DUP3 ADD DUP4 SWAP1 MSTORE PUSH1 0xA0 DUP3 ADD DUP4 SWAP1 MSTORE PUSH1 0xC0 DUP3 ADD SWAP3 SWAP1 SWAP3 MSTORE PUSH1 0xE0 DUP2 ADD DUP3 SWAP1 MSTORE PUSH2 0x100 DUP2 ADD DUP3 SWAP1 MSTORE PUSH2 0x120 DUP2 ADD SWAP2 SWAP1 SWAP2 MSTORE SWAP1 JUMP JUMPDEST PUSH1 0x40 MLOAD DUP1 PUSH1 0xE0 ADD PUSH1 0x40 MSTORE DUP1 PUSH1 0x60 DUP2 MSTORE PUSH1 0x20 ADD PUSH1 0x0 DUP2 MSTORE PUSH1 0x20 ADD PUSH1 0x0 PUSH2 0xFFFF AND DUP2 MSTORE PUSH1 0x20 ADD PUSH1 0x0 PUSH2 0xFFFF AND DUP2 MSTORE PUSH1 0x20 ADD PUSH1 0x0 PUSH4 0xFFFFFFFF AND DUP2 MSTORE PUSH1 0x20 ADD PUSH1 0x0 DUP2 MSTORE PUSH1 0x20 ADD PUSH1 0x0 DUP2 MSTORE POP SWAP1 JUMP JUMPDEST DUP1 CALLDATALOAD PUSH1 0xFF DUP2 AND DUP2 EQ PUSH2 0x169D JUMPI PUSH1 0x0 DUP1 REVERT JUMPDEST SWAP2 SWAP1 POP JUMP JUMPDEST PUSH1 0x1 PUSH1 0x1 PUSH1 0xA0 SHL SUB DUP2 AND DUP2 EQ PUSH2 0x16B7 JUMPI PUSH1 0x0 DUP1 REVERT JUMPDEST POP JUMP JUMPDEST PUSH1 0x0 DUP1 PUSH1 0x40 DUP4 DUP6 SUB SLT ISZERO PUSH2 0x16CD JUMPI PUSH1 0x0 DUP1 REVERT JUMPDEST PUSH2 0x16D6 DUP4 PUSH2 0x168C JUMP JUMPDEST SWAP2 POP PUSH1 0x20 DUP4 ADD CALLDATALOAD PUSH2 0x16E6 DUP2 PUSH2 0x16A2 JUMP JUMPDEST DUP1 SWAP2 POP POP SWAP3 POP SWAP3 SWAP1 POP JUMP JUMPDEST PUSH1 0x0 PUSH1 0x20 DUP3 DUP5 SUB SLT ISZERO PUSH2 0x1703 JUMPI PUSH1 0x0 DUP1 REVERT JUMPDEST DUP2 CALLDATALOAD PUSH2 0x7E3 DUP2 PUSH2 0x16A2 JUMP JUMPDEST PUSH4 0x4E487B71 PUSH1 0xE0 SHL PUSH1 0x0 MSTORE PUSH1 0x41 PUSH1 0x4 MSTORE PUSH1 0x24 PUSH1 0x0 REVERT JUMPDEST PUSH1 0x40 DUP1 MLOAD SWAP1 DUP2 ADD PUSH8 0xFFFFFFFFFFFFFFFF DUP2 GT DUP3 DUP3 LT OR ISZERO PUSH2 0x1747 JUMPI PUSH2 0x1747 PUSH2 0x170E JUMP JUMPDEST PUSH1 0x40 MSTORE SWAP1 JUMP JUMPDEST PUSH1 0x40 MLOAD PUSH1 0x1F DUP3 ADD PUSH1 0x1F NOT AND DUP2 ADD PUSH8 0xFFFFFFFFFFFFFFFF DUP2 GT DUP3 DUP3 LT OR ISZERO PUSH2 0x1776 JUMPI PUSH2 0x1776 PUSH2 0x170E JUMP JUMPDEST PUSH1 0x40 MSTORE SWAP2 SWAP1 POP JUMP JUMPDEST PUSH1 0x0 DUP3 PUSH1 0x1F DUP4 ADD SLT PUSH2 0x178F JUMPI PUSH1 0x0 DUP1 REVERT JUMPDEST DUP2 CALLDATALOAD PUSH8 0xFFFFFFFFFFFFFFFF DUP2 GT ISZERO PUSH2 0x17A9 JUMPI PUSH2 0x17A9 PUSH2 0x170E JUMP JUMPDEST PUSH2 0x17BC PUSH1 0x1F DUP3 ADD PUSH1 0x1F NOT AND PUSH1 0x20 ADD PUSH2 0x174D JUMP JUMPDEST DUP2 DUP2 MSTORE DUP5 PUSH1 0x20 DUP4 DUP7 ADD ADD GT ISZERO PUSH2 0x17D1 JUMPI PUSH1 0x0 DUP1 REVERT JUMPDEST DUP2 PUSH1 0x20 DUP6 ADD PUSH1 0x20 DUP4 ADD CALLDATACOPY PUSH1 0x0 SWAP2 DUP2 ADD PUSH1 0x20 ADD SWAP2 SWAP1 SWAP2 MSTORE SWAP4 SWAP3 POP POP POP JUMP JUMPDEST PUSH1 0x0 DUP3 PUSH1 0x1F DUP4 ADD SLT PUSH2 0x17FF JUMPI PUSH1 0x0 DUP1 REVERT JUMPDEST DUP2 CALLDATALOAD PUSH1 0x20 PUSH8 0xFFFFFFFFFFFFFFFF DUP1 DUP4 GT ISZERO PUSH2 0x181C JUMPI PUSH2 0x181C PUSH2 0x170E JUMP JUMPDEST DUP3 PUSH1 0x5 SHL PUSH2 0x182B DUP4 DUP3 ADD PUSH2 0x174D JUMP JUMPDEST SWAP4 DUP5 MSTORE DUP6 DUP2 ADD DUP4 ADD SWAP4 DUP4 DUP2 ADD SWAP1 DUP9 DUP7 GT ISZERO PUSH2 0x1845 JUMPI PUSH1 0x0 DUP1 REVERT JUMPDEST DUP5 DUP9 ADD SWAP3 POP JUMPDEST DUP6 DUP4 LT ISZERO PUSH2 0x18DC JUMPI DUP3 CALLDATALOAD DUP5 DUP2 GT ISZERO PUSH2 0x1863 JUMPI PUSH1 0x0 DUP1 DUP2 REVERT JUMPDEST DUP9 ADD PUSH1 0x40 DUP2 DUP12 SUB PUSH1 0x1F NOT ADD DUP2 SGT ISZERO PUSH2 0x187B JUMPI PUSH1 0x0 DUP1 DUP2 REVERT JUMPDEST PUSH2 0x1883 PUSH2 0x1724 JUMP JUMPDEST DUP8 DUP4 ADD CALLDATALOAD DUP8 DUP2 GT ISZERO PUSH2 0x1895 JUMPI PUSH1 0x0 DUP1 DUP2 REVERT JUMPDEST PUSH2 0x18A3 DUP14 DUP11 DUP4 DUP8 ADD ADD PUSH2 0x177E JUMP JUMPDEST DUP3 MSTORE POP SWAP1 DUP3 ADD CALLDATALOAD SWAP1 DUP7 DUP3 GT ISZERO PUSH2 0x18B9 JUMPI PUSH1 0x0 DUP1 DUP2 REVERT JUMPDEST PUSH2 0x18C7 DUP13 DUP10 DUP5 DUP7 ADD ADD PUSH2 0x177E JUMP JUMPDEST DUP2 DUP10 ADD MSTORE DUP5 MSTORE POP POP SWAP2 DUP5 ADD SWAP2 SWAP1 DUP5 ADD SWAP1 PUSH2 0x184B JUMP JUMPDEST SWAP9 SWAP8 POP POP POP POP POP POP POP POP JUMP JUMPDEST PUSH1 0x0 DUP1 PUSH1 0x40 DUP4 DUP6 SUB SLT ISZERO PUSH2 0x18FB JUMPI PUSH1 0x0 DUP1 REVERT JUMPDEST DUP3 CALLDATALOAD PUSH8 0xFFFFFFFFFFFFFFFF DUP2 GT ISZERO PUSH2 0x1912 JUMPI PUSH1 0x0 DUP1 REVERT JUMPDEST PUSH2 0x191E DUP6 DUP3 DUP7 ADD PUSH2 0x17EE JUMP JUMPDEST SWAP6 PUSH1 0x20 SWAP5 SWAP1 SWAP5 ADD CALLDATALOAD SWAP5 POP POP POP POP JUMP JUMPDEST PUSH1 0x0 DUP2 MLOAD DUP1 DUP5 MSTORE PUSH1 0x0 JUMPDEST DUP2 DUP2 LT ISZERO PUSH2 0x1953 JUMPI PUSH1 0x20 DUP2 DUP6 ADD DUP2 ADD MLOAD DUP7 DUP4 ADD DUP3 ADD MSTORE ADD PUSH2 0x1937 JUMP JUMPDEST POP PUSH1 0x0 PUSH1 0x20 DUP3 DUP7 ADD ADD MSTORE PUSH1 0x20 PUSH1 0x1F NOT PUSH1 0x1F DUP4 ADD AND DUP6 ADD ADD SWAP2 POP POP SWAP3 SWAP2 POP POP JUMP JUMPDEST PUSH1 0x40 DUP2 MSTORE PUSH1 0x0 PUSH2 0x1986 PUSH1 0x40 DUP4 ADD DUP6 PUSH2 0x192D JUMP JUMPDEST SWAP1 POP PUSH4 0xFFFFFFFF DUP4 AND PUSH1 0x20 DUP4 ADD MSTORE SWAP4 SWAP3 POP POP POP JUMP JUMPDEST PUSH1 0x0 PUSH1 0x20 DUP3 DUP5 SUB SLT ISZERO PUSH2 0x19AD JUMPI PUSH1 0x0 DUP1 REVERT JUMPDEST PUSH2 0x7E3 DUP3 PUSH2 0x168C JUMP JUMPDEST PUSH1 0x20 DUP2 MSTORE PUSH1 0x0 PUSH2 0x7E3 PUSH1 0x20 DUP4 ADD DUP5 PUSH2 0x192D JUMP JUMPDEST PUSH1 0x0 PUSH1 0x20 DUP3 DUP5 SUB SLT ISZERO PUSH2 0x19DB JUMPI PUSH1 0x0 DUP1 REVERT JUMPDEST DUP2 CALLDATALOAD PUSH8 0xFFFFFFFFFFFFFFFF DUP2 GT ISZERO PUSH2 0x19F2 JUMPI PUSH1 0x0 DUP1 REVERT JUMPDEST PUSH2 0x92E DUP5 DUP3 DUP6 ADD PUSH2 0x17EE JUMP JUMPDEST PUSH1 0x1 DUP2 DUP2 SHR SWAP1 DUP3 AND DUP1 PUSH2 0x1A12 JUMPI PUSH1 0x7F DUP3 AND SWAP2 POP JUMPDEST PUSH1 0x20 DUP3 LT DUP2 SUB PUSH2 0x1A32 JUMPI PUSH4 0x4E487B71 PUSH1 0xE0 SHL PUSH1 0x0 MSTORE PUSH1 0x22 PUSH1 0x4 MSTORE PUSH1 0x24 PUSH1 0x0 REVERT JUMPDEST POP SWAP2 SWAP1 POP JUMP JUMPDEST PUSH4 0x4E487B71 PUSH1 0xE0 SHL PUSH1 0x0 MSTORE PUSH1 0x32 PUSH1 0x4 MSTORE PUSH1 0x24 PUSH1 0x0 REVERT JUMPDEST PUSH4 0x4E487B71 PUSH1 0xE0 SHL PUSH1 0x0 MSTORE PUSH1 0x11 PUSH1 0x4 MSTORE PUSH1 0x24 PUSH1 0x0 REVERT JUMPDEST PUSH1 0x0 PUSH1 0x1 DUP3 ADD PUSH2 0x1A76 JUMPI PUSH2 0x1A76 PUSH2 0x1A4E JUMP JUMPDEST POP PUSH1 0x1 ADD SWAP1 JUMP JUMPDEST PUSH1 0x40 DUP2 MSTORE PUSH1 0x0 PUSH2 0x1A90 PUSH1 0x40 DUP4 ADD DUP6 PUSH2 0x192D JUMP JUMPDEST SWAP1 POP PUSH1 0xFF DUP4 AND PUSH1 0x20 DUP4 ADD MSTORE SWAP4 SWAP3 POP POP POP JUMP JUMPDEST DUP1 DUP3 ADD DUP1 DUP3 GT ISZERO PUSH2 0x7E6 JUMPI PUSH2 0x7E6 PUSH2 0x1A4E JUMP JUMPDEST DUP2 DUP2 SUB DUP2 DUP2 GT ISZERO PUSH2 0x7E6 JUMPI PUSH2 0x7E6 PUSH2 0x1A4E JUMP JUMPDEST PUSH4 0x4E487B71 PUSH1 0xE0 SHL PUSH1 0x0 MSTORE PUSH1 0x1 PUSH1 0x4 MSTORE PUSH1 0x24 PUSH1 0x0 REVERT JUMPDEST PUSH1 0x40 DUP2 MSTORE PUSH1 0x0 PUSH2 0x1AF1 PUSH1 0x40 DUP4 ADD DUP6 PUSH2 0x192D JUMP JUMPDEST DUP3 DUP2 SUB PUSH1 0x20 DUP5 ADD MSTORE PUSH2 0x1B03 DUP2 DUP6 PUSH2 0x192D JUMP JUMPDEST SWAP6 SWAP5 POP POP POP POP POP JUMP JUMPDEST PUSH1 0x0 DUP2 PUSH2 0x1B1B JUMPI PUSH2 0x1B1B PUSH2 0x1A4E JUMP JUMPDEST POP PUSH1 0x0 NOT ADD SWAP1 JUMP JUMPDEST PUSH1 0x60 DUP2 MSTORE PUSH1 0x0 PUSH2 0x1B36 PUSH1 0x60 DUP4 ADD DUP7 PUSH2 0x192D JUMP JUMPDEST DUP3 DUP2 SUB PUSH1 0x20 DUP5 ADD MSTORE PUSH2 0x1B48 DUP2 DUP7 PUSH2 0x192D JUMP JUMPDEST SWAP1 POP DUP3 DUP2 SUB PUSH1 0x40 DUP5 ADD MSTORE PUSH2 0xBA9 DUP2 DUP6 PUSH2 0x192D JUMP JUMPDEST PUSH1 0x0 PUSH1 0x20 DUP3 DUP5 SUB SLT ISZERO PUSH2 0x1B6E JUMPI PUSH1 0x0 DUP1 REVERT JUMPDEST DUP2 MLOAD DUP1 ISZERO ISZERO DUP2 EQ PUSH2 0x7E3 JUMPI PUSH1 0x0 DUP1 REVERT JUMPDEST PUSH1 0x0 DUP3 PUSH2 0x1B9B JUMPI PUSH4 0x4E487B71 PUSH1 0xE0 SHL PUSH1 0x0 MSTORE PUSH1 0x12 PUSH1 0x4 MSTORE PUSH1 0x24 PUSH1 0x0 REVERT JUMPDEST POP MOD SWAP1 JUMP JUMPDEST DUP1 DUP3 MUL DUP2 ISZERO DUP3 DUP3 DIV DUP5 EQ OR PUSH2 0x7E6 JUMPI PUSH2 0x7E6 PUSH2 0x1A4E JUMP INVALID LOG2 PUSH5 0x6970667358 0x22 SLT KECCAK256 0xD9 0xF8 BLOCKHASH 0xDF SWAP10 PC SWAP9 0xBE 0xA6 SSTORE 0xC7 PUSH3 0xBEC971 SLT PUSH31 0x4007415650DB190C0BEED62620368764736F6C634300081100330000000000 "
				},
				"gasEstimates": {
					"creation": {
						"codeDepositCost": "1429800",
						"executionCost": "infinite",
						"totalCost": "infinite"
					},
					"external": {
						"algorithms(uint8)": "2638",
						"anchors()": "infinite",
						"digests(uint8)": "2550",
						"owner()": "2359",
						"setAlgorithm(uint8,address)": "28212",
						"setDigest(uint8,address)": "28267",
						"setOwner(address)": "26732",
						"verifyRRSet((bytes,bytes)[])": "infinite",
						"verifyRRSet((bytes,bytes)[],uint256)": "infinite"
					},
					"internal": {
						"validateRRs(struct RRUtils.SignedSet memory,uint16)": "infinite",
						"validateSignedSet(struct DNSSEC.RRSetWithSignature memory,bytes memory,uint256)": "infinite",
						"verifyDSHash(uint8,bytes memory,bytes memory)": "infinite",
						"verifyKeyWithDS(bytes memory,struct RRUtils.RRIterator memory,struct RRUtils.DNSKEY memory,bytes memory)": "infinite",
						"verifySignature(bytes memory,struct RRUtils.SignedSet memory,struct DNSSEC.RRSetWithSignature memory,bytes memory)": "infinite",
						"verifySignatureWithKey(struct RRUtils.DNSKEY memory,bytes memory,struct RRUtils.SignedSet memory,struct DNSSEC.RRSetWithSignature memory)": "infinite",
						"verifyWithDS(struct RRUtils.SignedSet memory,struct DNSSEC.RRSetWithSignature memory,struct RRUtils.RRIterator memory)": "infinite",
						"verifyWithKnownKey(struct RRUtils.SignedSet memory,struct DNSSEC.RRSetWithSignature memory,struct RRUtils.RRIterator memory)": "infinite"
					}
				},
				"methodIdentifiers": {
					"algorithms(uint8)": "c327deef",
					"anchors()": "98d35f20",
					"digests(uint8)": "73cc48a6",
					"owner()": "8da5cb5b",
					"setAlgorithm(uint8,address)": "020ed8d3",
					"setDigest(uint8,address)": "28e7677d",
					"setOwner(address)": "13af4035",
					"verifyRRSet((bytes,bytes)[])": "bdf95fef",
					"verifyRRSet((bytes,bytes)[],uint256)": "440f3d42"
				}
			},
			"storageLayout": {
				"storage": [
					{
						"astId": 1243,
						"contract": "packages/contracts/src/dnssec-oracle/DNSSECImpl.sol:DNSSECImpl",
						"label": "anchors",
						"offset": 0,
						"slot": "0",
						"type": "t_bytes_storage"
					},
					{
						"astId": 2220,
						"contract": "packages/contracts/src/dnssec-oracle/DNSSECImpl.sol:DNSSECImpl",
						"label": "owner",
						"offset": 0,
						"slot": "1",
						"type": "t_address"
					},
					{
						"astId": 1375,
						"contract": "packages/contracts/src/dnssec-oracle/DNSSECImpl.sol:DNSSECImpl",
						"label": "algorithms",
						"offset": 0,
						"slot": "2",
						"type": "t_mapping(t_uint8,t_contract(Algorithm)3367)"
					},
					{
						"astId": 1380,
						"contract": "packages/contracts/src/dnssec-oracle/DNSSECImpl.sol:DNSSECImpl",
						"label": "digests",
						"offset": 0,
						"slot": "3",
						"type": "t_mapping(t_uint8,t_contract(Digest)3381)"
					}
				],
				"types": {
					"t_address": {
						"encoding": "inplace",
						"label": "address",
						"numberOfBytes": "20"
					},
					"t_bytes_storage": {
						"encoding": "bytes",
						"label": "bytes",
						"numberOfBytes": "32"
					},
					"t_contract(Algorithm)3367": {
						"encoding": "inplace",
						"label": "contract Algorithm",
						"numberOfBytes": "20"
					},
					"t_contract(Digest)3381": {
						"encoding": "inplace",
						"label": "contract Digest",
						"numberOfBytes": "20"
					},
					"t_mapping(t_uint8,t_contract(Algorithm)3367)": {
						"encoding": "mapping",
						"key": "t_uint8",
						"label": "mapping(uint8 => contract Algorithm)",
						"numberOfBytes": "32",
						"value": "t_contract(Algorithm)3367"
					},
					"t_mapping(t_uint8,t_contract(Digest)3381)": {
						"encoding": "mapping",
						"key": "t_uint8",
						"label": "mapping(uint8 => contract Digest)",
						"numberOfBytes": "32",
						"value": "t_contract(Digest)3381"
					},
					"t_uint8": {
						"encoding": "inplace",
						"label": "uint8",
						"numberOfBytes": "1"
					}
				}
			},
			"userdoc": {
				"kind": "user",
				"methods": {},
				"version": 1
			}
		}
	}
}