{
	"data": {
		"bytecode": {
			"linkReferences": {},
			"object": "60806040523480156200001157600080fd5b5060405162001e9f38038062001e9f833981016040819052620000349162000072565b600180546001600160a01b031916331790556000620000548282620001d6565b5050620002a2565b634e487b7160e01b600052604160045260246000fd5b600060208083850312156200008657600080fd5b82516001600160401b03808211156200009e57600080fd5b818501915085601f830112620000b357600080fd5b815181811115620000c857620000c86200005c565b604051601f8201601f19908116603f01168101908382118183101715620000f357620000f36200005c565b8160405282815288868487010111156200010c57600080fd5b600093505b8284101562000130578484018601518185018701529285019262000111565b600086848301015280965050505050505092915050565b600181811c908216806200015c57607f821691505b6020821081036200017d57634e487b7160e01b600052602260045260246000fd5b50919050565b601f821115620001d157600081815260208120601f850160051c81016020861015620001ac5750805b601f850160051c820191505b81811015620001cd57828155600101620001b8565b5050505b505050565b81516001600160401b03811115620001f257620001f26200005c565b6200020a8162000203845462000147565b8462000183565b602080601f831160018114620002425760008415620002295750858301515b600019600386901b1c1916600185901b178555620001cd565b600085815260208120601f198616915b82811015620002735788860151825594840194600190910190840162000252565b5085821015620002925787850151600019600388901b60f8161c191681555b5050505050600190811b01905550565b611bed80620002b26000396000f3fe608060405234801561001057600080fd5b50600436106100935760003560e01c806373cc48a61161006657806373cc48a6146100fd5780638da5cb5b1461013e57806398d35f2014610151578063bdf95fef14610166578063c327deef1461017957600080fd5b8063020ed8d31461009857806313af4035146100ad57806328e7677d146100c0578063440f3d42146100d3575b600080fd5b6100ab6100a63660046116ba565b6101a2565b005b6100ab6100bb3660046116f1565b610224565b6100ab6100ce3660046116ba565b61025d565b6100e66100e13660046118e8565b6102d7565b6040516100f4929190611973565b60405180910390f35b61012661010b36600461199b565b6003602052600090815260409020546001600160a01b031681565b6040516001600160a01b0390911681526020016100f4565b600154610126906001600160a01b031681565b6101596103c9565b6040516100f491906119b6565b6100e66101743660046119c9565b610457565b61012661018736600461199b565b6002602052600090815260409020546001600160a01b031681565b6001546001600160a01b031633146101b957600080fd5b60ff821660008181526002602090815260409182902080546001600160a01b0319166001600160a01b0386169081179091558251938452908301527ff73c3c226af96b7f1ba666a21b3ceaf2be3ee6a365e3178fd9cd1eaae0075aa891015b60405180910390a15050565b6001546001600160a01b0316331461023b57600080fd5b600180546001600160a01b0319166001600160a01b0392909216919091179055565b6001546001600160a01b0316331461027457600080fd5b60ff821660008181526003602090815260409182902080546001600160a01b0319166001600160a01b0386169081179091558251938452908301527f2fcc274c3b72dd483ab201bfa87295e3817e8b9b10693219873b722ca1af00c79101610218565b6060600080600080546102e9906119fe565b80601f0160208091040260200160405190810160405280929190818152602001828054610315906119fe565b80156103625780601f1061033757610100808354040283529160200191610362565b820191906000526020600020905b81548152906001019060200180831161034557829003601f168201915b5050505050905060005b85518110156103bf57600061039b87838151811061038c5761038c611a38565b6020026020010151848861046e565b61010081015160a090910151945092508190506103b781611a64565b91505061036c565b5091509250929050565b600080546103d6906119fe565b80601f0160208091040260200160405190810160405280929190818152602001828054610402906119fe565b801561044f5780601f106104245761010080835404028352916020019161044f565b820191906000526020600020905b81548152906001019060200180831161043257829003601f168201915b505050505081565b6060600061046583426102d7565b91509150915091565b6104766115eb565b83516104819061057a565b90506000610493828360000151610674565b604083015190915060ff166104a9826000610786565b146104d85780826040015160405163e861b2bd60e01b81526004016104cf929190611a7d565b60405180910390fd5b6101208201819052608082015160009084900360030b12156105235760808201516040516353c27c3f60e11b815263ffffffff918216600482015290841660248201526044016104cf565b60a0820151600090840360030b12156105655760a0820151604051635ea081b560e11b815263ffffffff918216600482015290841660248201526044016104cf565b610571818387876107ec565b505b9392505050565b6105826115eb565b61058d82600061089d565b61ffff16815261059e8260026108c5565b60ff1660208201526105b18260036108c5565b60ff1660408201526105c48260046108e9565b63ffffffff90811660608301526105e09083906008906108e916565b63ffffffff90811660808301526105fc908390600c906108e916565b63ffffffff90811660a083015261061890839060109061089d16565b61ffff1660c082015261062c826012610913565b60e082018190525161066990610643906012611aa2565b8260e0015151601285516106579190611ab5565b6106619190611ab5565b849190610936565b610100820152919050565b60606000610681846109b8565b90505b8051516020820151101561077f57606081015161ffff166001146106c7576060810151604051634c52f98d60e11b815261ffff90911660048201526024016104cf565b81516000036106e0576106d9816109d0565b9150610731565b602081015181516106f0916109f1565b82511415806107135750805160208201518351610711928592600092610a4b565b155b156107315760405163cbceee6f60e01b815260040160405180910390fd5b8261ffff16816040015161ffff161461077157604080820151905163537fc54560e11b815261ffff918216600482015290841660248201526044016104cf565b61077a81610a6e565b610684565b5092915050565b6000805b8351831061079a5761079a611ac8565b60006107a685856108c5565b60ff1690506107b6816001611aa2565b6107c09085611aa2565b9350806000036107d057506107e3565b6107db600183611aa2565b91505061078a565b90505b92915050565b60e08301516107fc908590610b56565b6108205760e083015160405163eaafc59b60e01b81526104cf918691600401611ade565b600061082c8282610bb3565b9050602b61ffff16816040015161ffff16036108525761084d848483610bce565b610896565b603061ffff16816040015161ffff16036108715761084d848483610cbb565b60408082015190516361529e8760e01b815261ffff90911660048201526024016104cf565b5050505050565b81516000906108ad836002611aa2565b11156108b857600080fd5b50016002015161ffff1690565b60008282815181106108d9576108d9611a38565b016020015160f81c905092915050565b81516000906108f9836004611aa2565b111561090457600080fd5b50016004015163ffffffff1690565b6060600061092184846109f1565b905061092e848483610936565b949350505050565b82516060906109458385611aa2565b111561095057600080fd5b60008267ffffffffffffffff81111561096b5761096b61170e565b6040519080825280601f01601f191660200182016040528015610995576020820181803683370190505b509050602080820190868601016109ad828287610d83565b509095945050505050565b6109c0611641565b6107e68261010001516000610bb3565b602081015181516060916107e6916109e890826109f1565b84519190610936565b6000815b83518110610a0557610a05611ac8565b6000610a1185836108c5565b60ff169050610a21816001611aa2565b610a2b9083611aa2565b915080600003610a3b5750610a41565b506109f5565b61092e8382611ab5565b6000610a58848484610dd9565b610a63878785610dd9565b149695505050505050565b60c08101516020820181905281515111610a855750565b6000610a99826000015183602001516109f1565b8260200151610aa89190611aa2565b8251909150610ab7908261089d565b61ffff166040830152610acb600282611aa2565b8251909150610ada908261089d565b61ffff166060830152610aee600282611aa2565b8251909150610afd90826108e9565b63ffffffff166080830152610b13600482611aa2565b8251909150600090610b25908361089d565b61ffff169050610b36600283611aa2565b60a084018190529150610b498183611aa2565b60c0909301929092525050565b60008080610b648582610786565b90506000610b73856000610786565b90505b80821115610b9c57610b888684610dfd565b925081610b9481611b0c565b925050610b76565b610ba98684876000610e21565b9695505050505050565b610bbb611641565b82815260c081018290526107e681610a6e565b60208101516000610bde856109b8565b90505b80515160208201511015610c9b57604081015161ffff16603014610c245760408082015190516361529e8760e01b815261ffff90911660048201526024016104cf565b6000610c2f82610e56565b90506000610c4a6000835184610e729092919063ffffffff16565b9050610c5881838989610f10565b15610c8b57610c6d8760e00151868385611036565b15610c7b5750505050505050565b60c08501849052610c8b85610a6e565b5050610c9681610a6e565b610be1565b508360e001516040516306cde0f360e01b81526004016104cf91906119b6565b80515160208201511015610d64576000610cd4826109d0565b9050610ced8460e001518261117390919063ffffffff16565b610d12578360e0015181604051636b80573f60e11b81526004016104cf929190611ade565b6000610d1d83610e56565b90506000610d386000835184610e729092919063ffffffff16565b9050610d4681838888610f10565b15610d5357505050505050565b505050610d5f81610a6e565b610cbb565b8260e001516040516306cde0f360e01b81526004016104cf91906119b6565b60208110610dbb5781518352610d9a602084611aa2565b9250610da7602083611aa2565b9150610db4602082611ab5565b9050610d83565b905182516020929092036101000a6000190180199091169116179052565b8251600090610de88385611aa2565b1115610df357600080fd5b5091016020012090565b6000610e0983836108c5565b60ff16610e17836001611aa2565b6107e39190611aa2565b6000610e3a8383848651610e359190611ab5565b610dd9565b610e4c8686878951610e359190611ab5565b1495945050505050565b60a081015160c08201516060916107e6916109e8908290611ab5565b6040805160808101825260008082526020820181905291810191909152606080820152610eaa610ea3600085611aa2565b859061089d565b61ffff168152610ec5610ebe600285611aa2565b85906108c5565b60ff166020820152610edb610ebe600385611aa2565b60ff166040820152610f04610ef1600485611aa2565b610efc600485611ab5565b869190610936565b60608201529392505050565b6000846020015160ff16600314610f295750600061092e565b826020015160ff16856040015160ff1614610f465750600061092e565b6000610f5185611191565b90508360c0015161ffff168161ffff1614610f7057600091505061092e565b855161010016600003610f8757600091505061092e565b60408087015160ff166000908152600260205220546001600160a01b031680610fb55760009250505061092e565b8351602085015160405163de8f50a160e01b81526001600160a01b0384169263de8f50a192610fea928b929190600401611b23565b602060405180830381865afa158015611007573d6000803e3d6000fd5b505050506040513d601f19601f8201168201806040525081019061102b9190611b5c565b979650505050505050565b60008061104283611191565b90505b8451516020860151101561116757600061105e866109d0565b905061106a8188611173565b61108b578681604051636b80573f60e11b81526004016104cf929190611ade565b60a086015160c08701516000916110b0916110a7908290611ab5565b89519190610e72565b90508261ffff16816000015161ffff16146110cc575050611159565b856040015160ff16816020015160ff16146110e8575050611159565b60408051808201909152606081526000602082015261111586518a5161110e9190611aa2565b82906113b4565b50611120818a61142b565b5061112b818761142b565b5061114382604001518260000151846060015161144c565b1561115557600194505050505061092e565b5050505b61116285610a6e565b611045565b50600095945050505050565b6000815183511480156107e357506107e38360008460008751610a4b565b6000612000825111156111e65760405162461bcd60e51b815260206004820152601760248201527f4c6f6e67206b657973206e6f74207065726d697474656400000000000000000060448201526064016104cf565b60008060005b8451601f0181101561125b57600081602087010151905085518260200111156112215785518290036008026101000390811c901b5b7eff00ff00ff00ff00ff00ff00ff00ff00ff00ff00ff00ff00ff00ff00ff00ff600882901c811694909401931691909101906020016111ec565b506010827fffff0000ffff0000ffff0000ffff0000ffff0000ffff0000ffff0000ffff000016901c827dffff0000ffff0000ffff0000ffff0000ffff0000ffff0000ffff0000ffff160191506010817fffff0000ffff0000ffff0000ffff0000ffff0000ffff0000ffff0000ffff000016901c817dffff0000ffff0000ffff0000ffff0000ffff0000ffff0000ffff0000ffff1601905080600883901b0191506020827fffffffff00000000ffffffff00000000ffffffff00000000ffffffff0000000016901c827bffffffff00000000ffffffff00000000ffffffff00000000ffffffff1601915060408277ffffffffffffffff0000000000000000ffffffffffffffff1916901c8277ffffffffffffffff0000000000000000ffffffffffffffff16019150608082901c826fffffffffffffffffffffffffffffffff16019150601082901c61ffff16820191508192505050919050565b6040805180820190915260608152600060208201526113d4602083611b7e565b156113fc576113e4602083611b7e565b6113ef906020611ab5565b6113f99083611aa2565b91505b60208084018390526040518085526000815290818401018181101561142057600080fd5b604052509192915050565b6040805180820190915260608152600060208201526107e3838384516114f8565b60ff83166000908152600360205260408120546001600160a01b031661147457506000610573565b60ff841660009081526003602052604090819020549051637bf41d7760e11b81526001600160a01b039091169063f7e83aee906114b79086908690600401611ade565b602060405180830381865afa1580156114d4573d6000803e3d6000fd5b505050506040513d601f19601f8201168201806040525081019061092e9190611b5c565b604080518082019091526060815260006020820152825182111561151b57600080fd5b835151600061152a8483611aa2565b9050856020015181111561154c5761154c86611547836002611ba0565b6115ce565b855180518382016020019160009180851115611566578482525b505050602086015b602086106115a65780518252611585602083611aa2565b9150611592602082611aa2565b905061159f602087611ab5565b955061156e565b51815160001960208890036101000a0190811690199190911617905250849150509392505050565b81516115da83836113b4565b506115e5838261142b565b50505050565b604080516101408101825260008082526020820181905291810182905260608082018390526080820183905260a0820183905260c082019290925260e08101829052610100810182905261012081019190915290565b6040518060e001604052806060815260200160008152602001600061ffff168152602001600061ffff168152602001600063ffffffff16815260200160008152602001600081525090565b803560ff8116811461169d57600080fd5b919050565b6001600160a01b03811681146116b757600080fd5b50565b600080604083850312156116cd57600080fd5b6116d68361168c565b915060208301356116e6816116a2565b809150509250929050565b60006020828403121561170357600080fd5b81356107e3816116a2565b634e487b7160e01b600052604160045260246000fd5b6040805190810167ffffffffffffffff811182821017156117475761174761170e565b60405290565b604051601f8201601f1916810167ffffffffffffffff811182821017156117765761177661170e565b604052919050565b600082601f83011261178f57600080fd5b813567ffffffffffffffff8111156117a9576117a961170e565b6117bc601f8201601f191660200161174d565b8181528460208386010111156117d157600080fd5b816020850160208301376000918101602001919091529392505050565b600082601f8301126117ff57600080fd5b8135602067ffffffffffffffff8083111561181c5761181c61170e565b8260051b61182b83820161174d565b938452858101830193838101908886111561184557600080fd5b84880192505b858310156118dc578235848111156118635760008081fd5b88016040818b03601f190181131561187b5760008081fd5b611883611724565b87830135878111156118955760008081fd5b6118a38d8a8387010161177e565b8252509082013590868211156118b95760008081fd5b6118c78c898486010161177e565b8189015284525050918401919084019061184b565b98975050505050505050565b600080604083850312156118fb57600080fd5b823567ffffffffffffffff81111561191257600080fd5b61191e858286016117ee565b95602094909401359450505050565b6000815180845260005b8181101561195357602081850181015186830182015201611937565b506000602082860101526020601f19601f83011685010191505092915050565b604081526000611986604083018561192d565b905063ffffffff831660208301529392505050565b6000602082840312156119ad57600080fd5b6107e38261168c565b6020815260006107e3602083018461192d565b6000602082840312156119db57600080fd5b813567ffffffffffffffff8111156119f257600080fd5b61092e848285016117ee565b600181811c90821680611a1257607f821691505b602082108103611a3257634e487b7160e01b600052602260045260246000fd5b50919050565b634e487b7160e01b600052603260045260246000fd5b634e487b7160e01b600052601160045260246000fd5b600060018201611a7657611a76611a4e565b5060010190565b604081526000611a90604083018561192d565b905060ff831660208301529392505050565b808201808211156107e6576107e6611a4e565b818103818111156107e6576107e6611a4e565b634e487b7160e01b600052600160045260246000fd5b604081526000611af1604083018561192d565b8281036020840152611b03818561192d565b95945050505050565b600081611b1b57611b1b611a4e565b506000190190565b606081526000611b36606083018661192d565b8281036020840152611b48818661192d565b90508281036040840152610ba9818561192d565b600060208284031215611b6e57600080fd5b815180151581146107e357600080fd5b600082611b9b57634e487b7160e01b600052601260045260246000fd5b500690565b80820281158282048414176107e6576107e6611a4e56fea2646970667358221220d9f840df995898bea655c762bec971127e4007415650db190c0beed62620368764736f6c63430008110033",
			"opcodes": "PUSH1 0x80 PUSH1 0x40 MSTORE CALLVALUE DUP1 ISZERO PUSH3 0x11 JUMPI PUSH1 0x0 DUP1 REVERT JUMPDEST POP PUSH1 0x40 MLOAD PUSH3 0x1E9F CODESIZE SUB DUP1 PUSH3 0x1E9F DUP4 CODECOPY DUP2 ADD PUSH1 0x40 DUP2 SWAP1 MSTORE PUSH3 0x34 SWAP2 PUSH3 0x72 JUMP JUMPDEST PUSH1 0x1 DUP1 SLOAD PUSH1 0x1 PUSH1 0x1 PUSH1 0xA0 SHL SUB NOT AND CALLER OR SWAP1 SSTORE PUSH1 0x0 PUSH3 0x54 DUP3 DUP3 PUSH3 0x1D6 JUMP JUMPDEST POP POP PUSH3 0x2A2 JUMP JUMPDEST PUSH4 0x4E487B71 PUSH1 0xE0 SHL PUSH1 0x0 MSTORE PUSH1 0x41 PUSH1 0x4 MSTORE PUSH1 0x24 PUSH1 0x0 REVERT JUMPDEST PUSH1 0x0 PUSH1 0x20 DUP1 DUP4 DUP6 SUB SLT ISZERO PUSH3 0x86 JUMPI PUSH1 0x0 DUP1 REVERT JUMPDEST DUP3 MLOAD PUSH1 0x1 PUSH1 0x1 PUSH1 0x40 SHL SUB DUP1 DUP3 GT ISZERO PUSH3 0x9E JUMPI PUSH1 0x0 DUP1 REVERT JUMPDEST DUP2 DUP6 ADD SWAP2 POP DUP6 PUSH1 0x1F DUP4 ADD SLT PUSH3 0xB3 JUMPI PUSH1 0x0 DUP1 REVERT JUMPDEST DUP2 MLOAD DUP2 DUP2 GT ISZERO PUSH3 0xC8 JUMPI PUSH3 0xC8 PUSH3 0x5C JUMP JUMPDEST PUSH1 0x40 MLOAD PUSH1 0x1F DUP3 ADD PUSH1 0x1F NOT SWAP1 DUP2 AND PUSH1 0x3F ADD AND DUP2 ADD SWAP1 DUP4 DUP3 GT DUP2 DUP4 LT OR ISZERO PUSH3 0xF3 JUMPI PUSH3 0xF3 PUSH3 0x5C JUMP JUMPDEST DUP2 PUSH1 0x40 MSTORE DUP3 DUP2 MSTORE DUP9 DUP7 DUP5 DUP8 ADD ADD GT ISZERO PUSH3 0x10C JUMPI PUSH1 0x0 DUP1 REVERT JUMPDEST PUSH1 0x0 SWAP4 POP JUMPDEST DUP3 DUP5 LT ISZERO PUSH3 0x130 JUMPI DUP5 DUP5 ADD DUP7 ADD MLOAD DUP2 DUP6 ADD DUP8 ADD MSTORE SWAP3 DUP6 ADD SWAP3 PUSH3 0x111 JUMP JUMPDEST PUSH1 0x0 DUP7 DUP5 DUP4 ADD ADD MSTORE DUP1 SWAP7 POP POP POP POP POP POP POP SWAP3 SWAP2 POP POP JUMP JUMPDEST PUSH1 0x1 DUP2 DUP2 SHR SWAP1 DUP3 AND DUP1 PUSH3 0x15C JUMPI PUSH1 0x7F DUP3 AND SWAP2 POP JUMPDEST PUSH1 0x20 DUP3 LT DUP2 SUB PUSH3 0x17D JUMPI PUSH4 0x4E487B71 PUSH1 0xE0 SHL PUSH1 0x0 MSTORE PUSH1 0x22 PUSH1 0x4 MSTORE PUSH1 0x24 PUSH1 0x0 REVERT JUMPDEST POP SWAP2 SWAP1 POP JUMP JUMPDEST PUSH1 0x1F DUP3 GT ISZERO PUSH3 0x1D1 JUMPI PUSH1 0x0 DUP2 DUP2 MSTORE PUSH1 0x20 DUP2 KECCAK256 PUSH1 0x1F DUP6 ADD PUSH1 0x5 SHR DUP2 ADD PUSH1 0x20 DUP7 LT ISZERO PUSH3 0x1AC JUMPI POP DUP1 JUMPDEST PUSH1 0x1F DUP6 ADD PUSH1 0x5 SHR DUP3 ADD SWAP2 POP JUMPDEST DUP2 DUP2 LT ISZERO PUSH3 0x1CD JUMPI DUP3 DUP2 SSTORE PUSH1 0x1 ADD PUSH3 0x1B8 JUMP JUMPDEST POP POP POP JUMPDEST POP POP POP JUMP JUMPDEST DUP2 MLOAD PUSH1 0x1 PUSH1 0x1 PUSH1 0x40 SHL SUB DUP2 GT ISZERO PUSH3 0x1F2 JUMPI PUSH3 0x1F2 PUSH3 0x5C JUMP JUMPDEST PUSH3 0x20A DUP2 PUSH3 0x203 DUP5 SLOAD PUSH3 0x147 JUMP JUMPDEST DUP5 PUSH3 0x183 JUMP JUMPDEST PUSH1 0x20 DUP1 PUSH1 0x1F DUP4 GT PUSH1 0x1 DUP2 EQ PUSH3 0x242 JUMPI PUSH1 0x0 DUP5 ISZERO PUSH3 0x229 JUMPI POP DUP6 DUP4 ADD MLOAD JUMPDEST PUSH1 0x0 NOT PUSH1 0x3 DUP7 SWAP1 SHL SHR NOT AND PUSH1 0x1 DUP6 SWAP1 SHL OR DUP6 SSTORE PUSH3 0x1CD JUMP JUMPDEST PUSH1 0x0 DUP6 DUP2 MSTORE PUSH1 0x20 DUP2 KECCAK256 PUSH1 0x1F NOT DUP7 AND SWAP2 JUMPDEST DUP3 DUP2 LT ISZERO PUSH3 0x273 JUMPI DUP9 DUP7 ADD MLOAD DUP3 SSTORE SWAP5 DUP5 ADD SWAP5 PUSH1 0x1 SWAP1 SWAP2 ADD SWAP1 DUP5 ADD PUSH3 0x252 JUMP JUMPDEST POP DUP6 DUP3 LT ISZERO PUSH3 0x292 JUMPI DUP8 DUP6 ADD MLOAD PUSH1 0x0 NOT PUSH1 0x3 DUP9 SWAP1 SHL PUSH1 0xF8 AND SHR NOT AND DUP2 SSTORE JUMPDEST POP POP POP POP POP PUSH1 0x1 SWAP1 DUP2 SHL ADD SWAP1 SSTORE POP JUMP JUMPDEST PUSH2 0x1BED DUP1 PUSH3 0x2B2 PUSH1 0x0 CODECOPY PUSH1 0x0 RETURN INVALID PUSH1 0x80 PUSH1 0x40 MSTORE CALLVALUE DUP1 ISZERO PUSH2 0x10 JUMPI PUSH1 0x0 DUP1 REVERT JUMPDEST POP PUSH1 0x4 CALLDATASIZE LT PUSH2 0x93 JUMPI PUSH1 0x0 CALLDATALOAD PUSH1 0xE0 SHR DUP1 PUSH4 0x73CC48A6 GT PUSH2 0x66 JUMPI DUP1 PUSH4 0x73CC48A6 EQ PUSH2 0xFD JUMPI DUP1 PUSH4 0x8DA5CB5B EQ PUSH2 0x13E JUMPI DUP1 PUSH4 0x98D35F20 EQ PUSH2 0x151 JUMPI DUP1 PUSH4 0xBDF95FEF EQ PUSH2 0x166 JUMPI DUP1 PUSH4 0xC327DEEF EQ PUSH2 0x179 JUMPI PUSH1 0x0 DUP1 REVERT JUMPDEST DUP1 PUSH4 0x20ED8D3 EQ PUSH2 0x98 JUMPI DUP1 PUSH4 0x13AF4035 EQ PUSH2 0xAD JUMPI DUP1 PUSH4 0x28E7677D EQ PUSH2 0xC0 JUMPI DUP1 PUSH4 0x440F3D42 EQ PUSH2 0xD3 JUMPI JUMPDEST PUSH1 0x0 DUP1 REVERT JUMPDEST PUSH2 0xAB PUSH2 0xA6 CALLDATASIZE PUSH1 0x4 PUSH2 0x16BA JUMP JUMPDEST PUSH2 0x1A2 JUMP JUMPDEST STOP JUMPDEST PUSH2 0xAB PUSH2 0xBB CALLDATASIZE PUSH1 0x4 PUSH2 0x16F1 JUMP JUMPDEST PUSH2 0x224 JUMP JUMPDEST PUSH2 0xAB PUSH2 0xCE CALLDATASIZE PUSH1 0x4 PUSH2 0x16BA JUMP JUMPDEST PUSH2 0x25D JUMP JUMPDEST PUSH2 0xE6 PUSH2 0xE1 CALLDATASIZE PUSH1 0x4 PUSH2 0x18E8 JUMP JUMPDEST PUSH2 0x2D7 JUMP JUMPDEST PUSH1 0x40 MLOAD PUSH2 0xF4 SWAP3 SWAP2 SWAP1 PUSH2 0x1973 JUMP JUMPDEST PUSH1 0x40 MLOAD DUP1 SWAP2 SUB SWAP1 RETURN JUMPDEST PUSH2 0x126 PUSH2 0x10B CALLDATASIZE PUSH1 0x4 PUSH2 0x199B JUMP JUMPDEST PUSH1 0x3 PUSH1 0x20 MSTORE PUSH1 0x0 SWAP1 DUP2 MSTORE PUSH1 0x40 SWAP1 KECCAK256 SLOAD PUSH1 0x1 PUSH1 0x1 PUSH1 0xA0 SHL SUB AND DUP2 JUMP JUMPDEST PUSH1 0x40 MLOAD PUSH1 0x1 PUSH1 0x1 PUSH1 0xA0 SHL SUB SWAP1 SWAP2 AND DUP2 MSTORE PUSH1 0x20 ADD PUSH2 0xF4 JUMP JUMPDEST PUSH1 0x1 SLOAD PUSH2 0x126 SWAP1 PUSH1 0x1 PUSH1 0x1 PUSH1 0xA0 SHL SUB AND DUP2 JUMP JUMPDEST PUSH2 0x159 PUSH2 0x3C9 JUMP JUMPDEST PUSH1 0x40 MLOAD PUSH2 0xF4 SWAP2 SWAP1 PUSH2 0x19B6 JUMP JUMPDEST PUSH2 0xE6 PUSH2 0x174 CALLDATASIZE PUSH1 0x4 PUSH2 0x19C9 JUMP JUMPDEST PUSH2 0x457 JUMP JUMPDEST PUSH2 0x126 PUSH2 0x187 CALLDATASIZE PUSH1 0x4 PUSH2 0x199B JUMP JUMPDEST PUSH1 0x2 PUSH1 0x20 MSTORE PUSH1 0x0 SWAP1 DUP2 MSTORE PUSH1 0x40 SWAP1 KECCAK256 SLOAD PUSH1 0x1 PUSH1 0x1 PUSH1 0xA0 SHL SUB AND DUP2 JUMP JUMPDEST PUSH1 0x1 SLOAD PUSH1 0x1 PUSH1 0x1 PUSH1 0xA0 SHL SUB AND CALLER EQ PUSH2 0x1B9 JUMPI PUSH1 0x0 DUP1 REVERT JUMPDEST PUSH1 0xFF DUP3 AND PUSH1 0x0 DUP2 DUP2 MSTORE PUSH1 0x2 PUSH1 0x20 SWAP1 DUP2 MSTORE PUSH1 0x40 SWAP2 DUP3 SWAP1 KECCAK256 DUP1 SLOAD PUSH1 0x1 PUSH1 0x1 PUSH1 0xA0 SHL SUB NOT AND PUSH1 0x1 PUSH1 0x1 PUSH1 0xA0 SHL SUB DUP7 AND SWAP1 DUP2 OR SWAP1 SWAP2 SSTORE DUP3 MLOAD SWAP4 DUP5 MSTORE SWAP1 DUP4 ADD MSTORE PUSH32 0xF73C3C226AF96B7F1BA666A21B3CEAF2BE3EE6A365E3178FD9CD1EAAE0075AA8 SWAP2 ADD JUMPDEST PUSH1 0x40 MLOAD DUP1 SWAP2 SUB SWAP1 LOG1 POP POP JUMP JUMPDEST PUSH1 0x1 SLOAD PUSH1 0x1 PUSH1 0x1 PUSH1 0xA0 SHL SUB AND CALLER EQ PUSH2 0x23B JUMPI PUSH1 0x0 DUP1 REVERT JUMPDEST PUSH1 0x1 DUP1 SLOAD PUSH1 0x1 PUSH1 0x1 PUSH1 0xA0 SHL SUB NOT AND PUSH1 0x1 PUSH1 0x1 PUSH1 0xA0 SHL SUB SWAP3 SWAP1 SWAP3 AND SWAP2 SWAP1 SWAP2 OR SWAP1 SSTORE JUMP JUMPDEST PUSH1 0x1 SLOAD PUSH1 0x1 PUSH1 0x1 PUSH1 0xA0 SHL SUB AND CALLER EQ PUSH2 0x274 JUMPI PUSH1 0x0 DUP1 REVERT JUMPDEST PUSH1 0xFF DUP3 AND PUSH1 0x0 DUP2 DUP2 MSTORE PUSH1 0x3 PUSH1 0x20 SWAP1 DUP2 MSTORE PUSH1 0x40 SWAP2 DUP3 SWAP1 KECCAK256 DUP1 SLOAD PUSH1 0x1 PUSH1 0x1 PUSH1 0xA0 SHL SUB NOT AND PUSH1 0x1 PUSH1 0x1 PUSH1 0xA0 SHL SUB DUP7 AND SWAP1 DUP2 OR SWAP1 SWAP2 SSTORE DUP3 MLOAD SWAP4 DUP5 MSTORE SWAP1 DUP4 ADD MSTORE PUSH32 0x2FCC274C3B72DD483AB201BFA87295E3817E8B9B10693219873B722CA1AF00C7 SWAP2 ADD PUSH2 0x218 JUMP JUMPDEST PUSH1 0x60 PUSH1 0x0 DUP1 PUSH1 0x0 DUP1 SLOAD PUSH2 0x2E9 SWAP1 PUSH2 0x19FE JUMP JUMPDEST DUP1 PUSH1 0x1F ADD PUSH1 0x20 DUP1 SWAP2 DIV MUL PUSH1 0x20 ADD PUSH1 0x40 MLOAD SWAP1 DUP2 ADD PUSH1 0x40 MSTORE DUP1 SWAP3 SWAP2 SWAP1 DUP2 DUP2 MSTORE PUSH1 0x20 ADD DUP3 DUP1 SLOAD PUSH2 0x315 SWAP1 PUSH2 0x19FE JUMP JUMPDEST DUP1 ISZERO PUSH2 0x362 JUMPI DUP1 PUSH1 0x1F LT PUSH2 0x337 JUMPI PUSH2 0x100 DUP1 DUP4 SLOAD DIV MUL DUP4 MSTORE SWAP2 PUSH1 0x20 ADD SWAP2 PUSH2 0x362 JUMP JUMPDEST DUP3 ADD SWAP2 SWAP1 PUSH1 0x0 MSTORE PUSH1 0x20 PUSH1 0x0 KECCAK256 SWAP1 JUMPDEST DUP2 SLOAD DUP2 MSTORE SWAP1 PUSH1 0x1 ADD SWAP1 PUSH1 0x20 ADD DUP1 DUP4 GT PUSH2 0x345 JUMPI DUP3 SWAP1 SUB PUSH1 0x1F AND DUP3 ADD SWAP2 JUMPDEST POP POP POP POP POP SWAP1 POP PUSH1 0x0 JUMPDEST DUP6 MLOAD DUP2 LT ISZERO PUSH2 0x3BF JUMPI PUSH1 0x0 PUSH2 0x39B DUP8 DUP4 DUP2 MLOAD DUP2 LT PUSH2 0x38C JUMPI PUSH2 0x38C PUSH2 0x1A38 JUMP JUMPDEST PUSH1 0x20 MUL PUSH1 0x20 ADD ADD MLOAD DUP5 DUP9 PUSH2 0x46E JUMP JUMPDEST PUSH2 0x100 DUP2 ADD MLOAD PUSH1 0xA0 SWAP1 SWAP2 ADD MLOAD SWAP5 POP SWAP3 POP DUP2 SWAP1 POP PUSH2 0x3B7 DUP2 PUSH2 0x1A64 JUMP JUMPDEST SWAP2 POP POP PUSH2 0x36C JUMP JUMPDEST POP SWAP2 POP SWAP3 POP SWAP3 SWAP1 POP JUMP JUMPDEST PUSH1 0x0 DUP1 SLOAD PUSH2 0x3D6 SWAP1 PUSH2 0x19FE JUMP JUMPDEST DUP1 PUSH1 0x1F ADD PUSH1 0x20 DUP1 SWAP2 DIV MUL PUSH1 0x20 ADD PUSH1 0x40 MLOAD SWAP1 DUP2 ADD PUSH1 0x40 MSTORE DUP1 SWAP3 SWAP2 SWAP1 DUP2 DUP2 MSTORE PUSH1 0x20 ADD DUP3 DUP1 SLOAD PUSH2 0x402 SWAP1 PUSH2 0x19FE JUMP JUMPDEST DUP1 ISZERO PUSH2 0x44F JUMPI DUP1 PUSH1 0x1F LT PUSH2 0x424 JUMPI PUSH2 0x100 DUP1 DUP4 SLOAD DIV MUL DUP4 MSTORE SWAP2 PUSH1 0x20 ADD SWAP2 PUSH2 0x44F JUMP JUMPDEST DUP3 ADD SWAP2 SWAP1 PUSH1 0x0 MSTORE PUSH1 0x20 PUSH1 0x0 KECCAK256 SWAP1 JUMPDEST DUP2 SLOAD DUP2 MSTORE SWAP1 PUSH1 0x1 ADD SWAP1 PUSH1 0x20 ADD DUP1 DUP4 GT PUSH2 0x432 JUMPI DUP3 SWAP1 SUB PUSH1 0x1F AND DUP3 ADD SWAP2 JUMPDEST POP POP POP POP POP DUP2 JUMP JUMPDEST PUSH1 0x60 PUSH1 0x0 PUSH2 0x465 DUP4 TIMESTAMP PUSH2 0x2D7 JUMP JUMPDEST SWAP2 POP SWAP2 POP SWAP2 POP SWAP2 JUMP JUMPDEST PUSH2 0x476 PUSH2 0x15EB JUMP JUMPDEST DUP4 MLOAD PUSH2 0x481 SWAP1 PUSH2 0x57A JUMP JUMPDEST SWAP1 POP PUSH1 0x0 PUSH2 0x493 DUP3 DUP4 PUSH1 0x0 ADD MLOAD PUSH2 0x674 JUMP JUMPDEST PUSH1 0x40 DUP4 ADD MLOAD SWAP1 SWAP2 POP PUSH1 0xFF AND PUSH2 0x4A9 DUP3 PUSH1 0x0 PUSH2 0x786 JUMP JUMPDEST EQ PUSH2 0x4D8 JUMPI DUP1 DUP3 PUSH1 0x40 ADD MLOAD PUSH1 0x40 MLOAD PUSH4 0xE861B2BD PUSH1 0xE0 SHL DUP2 MSTORE PUSH1 0x4 ADD PUSH2 0x4CF SWAP3 SWAP2 SWAP1 PUSH2 0x1A7D JUMP JUMPDEST PUSH1 0x40 MLOAD DUP1 SWAP2 SUB SWAP1 REVERT JUMPDEST PUSH2 0x120 DUP3 ADD DUP2 SWAP1 MSTORE PUSH1 0x80 DUP3 ADD MLOAD PUSH1 0x0 SWAP1 DUP5 SWAP1 SUB PUSH1 0x3 SIGNEXTEND SLT ISZERO PUSH2 0x523 JUMPI PUSH1 0x80 DUP3 ADD MLOAD PUSH1 0x40 MLOAD PUSH4 0x53C27C3F PUSH1 0xE1 SHL DUP2 MSTORE PUSH4 0xFFFFFFFF SWAP2 DUP3 AND PUSH1 0x4 DUP3 ADD MSTORE SWAP1 DUP5 AND PUSH1 0x24 DUP3 ADD MSTORE PUSH1 0x44 ADD PUSH2 0x4CF JUMP JUMPDEST PUSH1 0xA0 DUP3 ADD MLOAD PUSH1 0x0 SWAP1 DUP5 SUB PUSH1 0x3 SIGNEXTEND SLT ISZERO PUSH2 0x565 JUMPI PUSH1 0xA0 DUP3 ADD MLOAD PUSH1 0x40 MLOAD PUSH4 0x5EA081B5 PUSH1 0xE1 SHL DUP2 MSTORE PUSH4 0xFFFFFFFF SWAP2 DUP3 AND PUSH1 0x4 DUP3 ADD MSTORE SWAP1 DUP5 AND PUSH1 0x24 DUP3 ADD MSTORE PUSH1 0x44 ADD PUSH2 0x4CF JUMP JUMPDEST PUSH2 0x571 DUP2 DUP4 DUP8 DUP8 PUSH2 0x7EC JUMP JUMPDEST POP JUMPDEST SWAP4 SWAP3 POP POP POP JUMP JUMPDEST PUSH2 0x582 PUSH2 0x15EB JUMP JUMPDEST PUSH2 0x58D DUP3 PUSH1 0x0 PUSH2 0x89D JUMP JUMPDEST PUSH2 0xFFFF AND DUP2 MSTORE PUSH2 0x59E DUP3 PUSH1 0x2 PUSH2 0x8C5 JUMP JUMPDEST PUSH1 0xFF AND PUSH1 0x20 DUP3 ADD MSTORE PUSH2 0x5B1 DUP3 PUSH1 0x3 PUSH2 0x8C5 JUMP JUMPDEST PUSH1 0xFF AND PUSH1 0x40 DUP3 ADD MSTORE PUSH2 0x5C4 DUP3 PUSH1 0x4 PUSH2 0x8E9 JUMP JUMPDEST PUSH4 0xFFFFFFFF SWAP1 DUP2 AND PUSH1 0x60 DUP4 ADD MSTORE PUSH2 0x5E0 SWAP1 DUP4 SWAP1 PUSH1 0x8 SWAP1 PUSH2 0x8E9 AND JUMP JUMPDEST PUSH4 0xFFFFFFFF SWAP1 DUP2 AND PUSH1 0x80 DUP4 ADD MSTORE PUSH2 0x5FC SWAP1 DUP4 SWAP1 PUSH1 0xC SWAP1 PUSH2 0x8E9 AND JUMP JUMPDEST PUSH4 0xFFFFFFFF SWAP1 DUP2 AND PUSH1 0xA0 DUP4 ADD MSTORE PUSH2 0x618 SWAP1 DUP4 SWAP1 PUSH1 0x10 SWAP1 PUSH2 0x89D AND JUMP JUMPDEST PUSH2 0xFFFF AND PUSH1 0xC0 DUP3 ADD MSTORE PUSH2 0x62C DUP3 PUSH1 0x12 PUSH2 0x913 JUMP JUMPDEST PUSH1 0xE0 DUP3 ADD DUP2 SWAP1 MSTORE MLOAD PUSH2 0x669 SWAP1 PUSH2 0x643 SWAP1 PUSH1 0x12 PUSH2 0x1AA2 JUMP JUMPDEST DUP3 PUSH1 0xE0 ADD MLOAD MLOAD PUSH1 0x12 DUP6 MLOAD PUSH2 0x657 SWAP2 SWAP1 PUSH2 0x1AB5 JUMP JUMPDEST PUSH2 0x661 SWAP2 SWAP1 PUSH2 0x1AB5 JUMP JUMPDEST DUP5 SWAP2 SWAP1 PUSH2 0x936 JUMP JUMPDEST PUSH2 0x100 DUP3 ADD MSTORE SWAP2 SWAP1 POP JUMP JUMPDEST PUSH1 0x60 PUSH1 0x0 PUSH2 0x681 DUP5 PUSH2 0x9B8 JUMP JUMPDEST SWAP1 POP JUMPDEST DUP1 MLOAD MLOAD PUSH1 0x20 DUP3 ADD MLOAD LT ISZERO PUSH2 0x77F JUMPI PUSH1 0x60 DUP2 ADD MLOAD PUSH2 0xFFFF AND PUSH1 0x1 EQ PUSH2 0x6C7 JUMPI PUSH1 0x60 DUP2 ADD MLOAD PUSH1 0x40 MLOAD PUSH4 0x4C52F98D PUSH1 0xE1 SHL DUP2 MSTORE PUSH2 0xFFFF SWAP1 SWAP2 AND PUSH1 0x4 DUP3 ADD MSTORE PUSH1 0x24 ADD PUSH2 0x4CF JUMP JUMPDEST DUP2 MLOAD PUSH1 0x0 SUB PUSH2 0x6E0 JUMPI PUSH2 0x6D9 DUP2 PUSH2 0x9D0 JUMP JUMPDEST SWAP2 POP PUSH2 0x731 JUMP JUMPDEST PUSH1 0x20 DUP2 ADD MLOAD DUP2 MLOAD PUSH2 0x6F0 SWAP2 PUSH2 0x9F1 JUMP JUMPDEST DUP3 MLOAD EQ ISZERO DUP1 PUSH2 0x713 JUMPI POP DUP1 MLOAD PUSH1 0x20 DUP3 ADD MLOAD DUP4 MLOAD PUSH2 0x711 SWAP3 DUP6 SWAP3 PUSH1 0x0 SWAP3 PUSH2 0xA4B JUMP JUMPDEST ISZERO JUMPDEST ISZERO PUSH2 0x731 JUMPI PUSH1 0x40 MLOAD PUSH4 0xCBCEEE6F PUSH1 0xE0 SHL DUP2 MSTORE PUSH1 0x4 ADD PUSH1 0x40 MLOAD DUP1 SWAP2 SUB SWAP1 REVERT JUMPDEST DUP3 PUSH2 0xFFFF AND DUP2 PUSH1 0x40 ADD MLOAD PUSH2 0xFFFF AND EQ PUSH2 0x771 JUMPI PUSH1 0x40 DUP1 DUP3 ADD MLOAD SWAP1 MLOAD PUSH4 0x537FC545 PUSH1 0xE1 SHL DUP2 MSTORE PUSH2 0xFFFF SWAP2 DUP3 AND PUSH1 0x4 DUP3 ADD MSTORE SWAP1 DUP5 AND PUSH1 0x24 DUP3 ADD MSTORE PUSH1 0x44 ADD PUSH2 0x4CF JUMP JUMPDEST PUSH2 0x77A DUP2 PUSH2 0xA6E JUMP JUMPDEST PUSH2 0x684 JUMP JUMPDEST POP SWAP3 SWAP2 POP POP JUMP JUMPDEST PUSH1 0x0 DUP1 JUMPDEST DUP4 MLOAD DUP4 LT PUSH2 0x79A JUMPI PUSH2 0x79A PUSH2 0x1AC8 JUMP JUMPDEST PUSH1 0x0 PUSH2 0x7A6 DUP6 DUP6 PUSH2 0x8C5 JUMP JUMPDEST PUSH1 0xFF AND SWAP1 POP PUSH2 0x7B6 DUP2 PUSH1 0x1 PUSH2 0x1AA2 JUMP JUMPDEST PUSH2 0x7C0 SWAP1 DUP6 PUSH2 0x1AA2 JUMP JUMPDEST SWAP4 POP DUP1 PUSH1 0x0 SUB PUSH2 0x7D0 JUMPI POP PUSH2 0x7E3 JUMP JUMPDEST PUSH2 0x7DB PUSH1 0x1 DUP4 PUSH2 0x1AA2 JUMP JUMPDEST SWAP2 POP POP PUSH2 0x78A JUMP JUMPDEST SWAP1 POP JUMPDEST SWAP3 SWAP2 POP POP JUMP JUMPDEST PUSH1 0xE0 DUP4 ADD MLOAD PUSH2 0x7FC SWAP1 DUP6 SWAP1 PUSH2 0xB56 JUMP JUMPDEST PUSH2 0x820 JUMPI PUSH1 0xE0 DUP4 ADD MLOAD PUSH1 0x40 MLOAD PUSH4 0xEAAFC59B PUSH1 0xE0 SHL DUP2 MSTORE PUSH2 0x4CF SWAP2 DUP7 SWAP2 PUSH1 0x4 ADD PUSH2 0x1ADE JUMP JUMPDEST PUSH1 0x0 PUSH2 0x82C DUP3 DUP3 PUSH2 0xBB3 JUMP JUMPDEST SWAP1 POP PUSH1 0x2B PUSH2 0xFFFF AND DUP2 PUSH1 0x40 ADD MLOAD PUSH2 0xFFFF AND SUB PUSH2 0x852 JUMPI PUSH2 0x84D DUP5 DUP5 DUP4 PUSH2 0xBCE JUMP JUMPDEST PUSH2 0x896 JUMP JUMPDEST PUSH1 0x30 PUSH2 0xFFFF AND DUP2 PUSH1 0x40 ADD MLOAD PUSH2 0xFFFF AND SUB PUSH2 0x871 JUMPI PUSH2 0x84D DUP5 DUP5 DUP4 PUSH2 0xCBB JUMP JUMPDEST PUSH1 0x40 DUP1 DUP3 ADD MLOAD SWAP1 MLOAD PUSH4 0x61529E87 PUSH1 0xE0 SHL DUP2 MSTORE PUSH2 0xFFFF SWAP1 SWAP2 AND PUSH1 0x4 DUP3 ADD MSTORE PUSH1 0x24 ADD PUSH2 0x4CF JUMP JUMPDEST POP POP POP POP POP JUMP JUMPDEST DUP2 MLOAD PUSH1 0x0 SWAP1 PUSH2 0x8AD DUP4 PUSH1 0x2 PUSH2 0x1AA2 JUMP JUMPDEST GT ISZERO PUSH2 0x8B8 JUMPI PUSH1 0x0 DUP1 REVERT JUMPDEST POP ADD PUSH1 0x2 ADD MLOAD PUSH2 0xFFFF AND SWAP1 JUMP JUMPDEST PUSH1 0x0 DUP3 DUP3 DUP2 MLOAD DUP2 LT PUSH2 0x8D9 JUMPI PUSH2 0x8D9 PUSH2 0x1A38 JUMP JUMPDEST ADD PUSH1 0x20 ADD MLOAD PUSH1 0xF8 SHR SWAP1 POP SWAP3 SWAP2 POP POP JUMP JUMPDEST DUP2 MLOAD PUSH1 0x0 SWAP1 PUSH2 0x8F9 DUP4 PUSH1 0x4 PUSH2 0x1AA2 JUMP JUMPDEST GT ISZERO PUSH2 0x904 JUMPI PUSH1 0x0 DUP1 REVERT JUMPDEST POP ADD PUSH1 0x4 ADD MLOAD PUSH4 0xFFFFFFFF AND SWAP1 JUMP JUMPDEST PUSH1 0x60 PUSH1 0x0 PUSH2 0x921 DUP5 DUP5 PUSH2 0x9F1 JUMP JUMPDEST SWAP1 POP PUSH2 0x92E DUP5 DUP5 DUP4 PUSH2 0x936 JUMP JUMPDEST SWAP5 SWAP4 POP POP POP POP JUMP JUMPDEST DUP3 MLOAD PUSH1 0x60 SWAP1 PUSH2 0x945 DUP4 DUP6 PUSH2 0x1AA2 JUMP JUMPDEST GT ISZERO PUSH2 0x950 JUMPI PUSH1 0x0 DUP1 REVERT JUMPDEST PUSH1 0x0 DUP3 PUSH8 0xFFFFFFFFFFFFFFFF DUP2 GT ISZERO PUSH2 0x96B JUMPI PUSH2 0x96B PUSH2 0x170E JUMP JUMPDEST PUSH1 0x40 MLOAD SWAP1 DUP1 DUP3 MSTORE DUP1 PUSH1 0x1F ADD PUSH1 0x1F NOT AND PUSH1 0x20 ADD DUP3 ADD PUSH1 0x40 MSTORE DUP1 ISZERO PUSH2 0x995 JUMPI PUSH1 0x20 DUP3 ADD DUP2 DUP1 CALLDATASIZE DUP4 CALLDATACOPY ADD SWAP1 POP JUMPDEST POP SWAP1 POP PUSH1 0x20 DUP1 DUP3 ADD SWAP1 DUP7 DUP7 ADD ADD PUSH2 0x9AD DUP3 DUP3 DUP8 PUSH2 0xD83 JUMP JUMPDEST POP SWAP1 SWAP6 SWAP5 POP POP POP POP POP JUMP JUMPDEST PUSH2 0x9C0 PUSH2 0x1641 JUMP JUMPDEST PUSH2 0x7E6 DUP3 PUSH2 0x100 ADD MLOAD PUSH1 0x0 PUSH2 0xBB3 JUMP JUMPDEST PUSH1 0x20 DUP2 ADD MLOAD DUP2 MLOAD PUSH1 0x60 SWAP2 PUSH2 0x7E6 SWAP2 PUSH2 0x9E8 SWAP1 DUP3 PUSH2 0x9F1 JUMP JUMPDEST DUP5 MLOAD SWAP2 SWAP1 PUSH2 0x936 JUMP JUMPDEST PUSH1 0x0 DUP2 JUMPDEST DUP4 MLOAD DUP2 LT PUSH2 0xA05 JUMPI PUSH2 0xA05 PUSH2 0x1AC8 JUMP JUMPDEST PUSH1 0x0 PUSH2 0xA11 DUP6 DUP4 PUSH2 0x8C5 JUMP JUMPDEST PUSH1 0xFF AND SWAP1 POP PUSH2 0xA21 DUP2 PUSH1 0x1 PUSH2 0x1AA2 JUMP JUMPDEST PUSH2 0xA2B SWAP1 DUP4 PUSH2 0x1AA2 JUMP JUMPDEST SWAP2 POP DUP1 PUSH1 0x0 SUB PUSH2 0xA3B JUMPI POP PUSH2 0xA41 JUMP JUMPDEST POP PUSH2 0x9F5 JUMP JUMPDEST PUSH2 0x92E DUP4 DUP3 PUSH2 0x1AB5 JUMP JUMPDEST PUSH1 0x0 PUSH2 0xA58 DUP5 DUP5 DUP5 PUSH2 0xDD9 JUMP JUMPDEST PUSH2 0xA63 DUP8 DUP8 DUP6 PUSH2 0xDD9 JUMP JUMPDEST EQ SWAP7 SWAP6 POP POP POP POP POP POP JUMP JUMPDEST PUSH1 0xC0 DUP2 ADD MLOAD PUSH1 0x20 DUP3 ADD DUP2 SWAP1 MSTORE DUP2 MLOAD MLOAD GT PUSH2 0xA85 JUMPI POP JUMP JUMPDEST PUSH1 0x0 PUSH2 0xA99 DUP3 PUSH1 0x0 ADD MLOAD DUP4 PUSH1 0x20 ADD MLOAD PUSH2 0x9F1 JUMP JUMPDEST DUP3 PUSH1 0x20 ADD MLOAD PUSH2 0xAA8 SWAP2 SWAP1 PUSH2 0x1AA2 JUMP JUMPDEST DUP3 MLOAD SWAP1 SWAP2 POP PUSH2 0xAB7 SWAP1 DUP3 PUSH2 0x89D JUMP JUMPDEST PUSH2 0xFFFF AND PUSH1 0x40 DUP4 ADD MSTORE PUSH2 0xACB PUSH1 0x2 DUP3 PUSH2 0x1AA2 JUMP JUMPDEST DUP3 MLOAD SWAP1 SWAP2 POP PUSH2 0xADA SWAP1 DUP3 PUSH2 0x89D JUMP JUMPDEST PUSH2 0xFFFF AND PUSH1 0x60 DUP4 ADD MSTORE PUSH2 0xAEE PUSH1 0x2 DUP3 PUSH2 0x1AA2 JUMP JUMPDEST DUP3 MLOAD SWAP1 SWAP2 POP PUSH2 0xAFD SWAP1 DUP3 PUSH2 0x8E9 JUMP JUMPDEST PUSH4 0xFFFFFFFF AND PUSH1 0x80 DUP4 ADD MSTORE PUSH2 0xB13 PUSH1 0x4 DUP3 PUSH2 0x1AA2 JUMP JUMPDEST DUP3 MLOAD SWAP1 SWAP2 POP PUSH1 0x0 SWAP1 PUSH2 0xB25 SWAP1 DUP4 PUSH2 0x89D JUMP JUMPDEST PUSH2 0xFFFF AND SWAP1 POP PUSH2 0xB36 PUSH1 0x2 DUP4 PUSH2 0x1AA2 JUMP JUMPDEST PUSH1 0xA0 DUP5 ADD DUP2 SWAP1 MSTORE SWAP2 POP PUSH2 0xB49 DUP2 DUP4 PUSH2 0x1AA2 JUMP JUMPDEST PUSH1 0xC0 SWAP1 SWAP4 ADD SWAP3 SWAP1 SWAP3 MSTORE POP POP JUMP JUMPDEST PUSH1 0x0 DUP1 DUP1 PUSH2 0xB64 DUP6 DUP3 PUSH2 0x786 JUMP JUMPDEST SWAP1 POP PUSH1 0x0 PUSH2 0xB73 DUP6 PUSH1 0x0 PUSH2 0x786 JUMP JUMPDEST SWAP1 POP JUMPDEST DUP1 DUP3 GT ISZERO PUSH2 0xB9C JUMPI PUSH2 0xB88 DUP7 DUP5 PUSH2 0xDFD JUMP JUMPDEST SWAP3 POP DUP2 PUSH2 0xB94 DUP2 PUSH2 0x1B0C JUMP JUMPDEST SWAP3 POP POP PUSH2 0xB76 JUMP JUMPDEST PUSH2 0xBA9 DUP7 DUP5 DUP8 PUSH1 0x0 PUSH2 0xE21 JUMP JUMPDEST SWAP7 SWAP6 POP POP POP POP POP POP JUMP JUMPDEST PUSH2 0xBBB PUSH2 0x1641 JUMP JUMPDEST DUP3 DUP2 MSTORE PUSH1 0xC0 DUP2 ADD DUP3 SWAP1 MSTORE PUSH2 0x7E6 DUP2 PUSH2 0xA6E JUMP JUMPDEST PUSH1 0x20 DUP2 ADD MLOAD PUSH1 0x0 PUSH2 0xBDE DUP6 PUSH2 0x9B8 JUMP JUMPDEST SWAP1 POP JUMPDEST DUP1 MLOAD MLOAD PUSH1 0x20 DUP3 ADD MLOAD LT ISZERO PUSH2 0xC9B JUMPI PUSH1 0x40 DUP2 ADD MLOAD PUSH2 0xFFFF AND PUSH1 0x30 EQ PUSH2 0xC24 JUMPI PUSH1 0x40 DUP1 DUP3 ADD MLOAD SWAP1 MLOAD PUSH4 0x61529E87 PUSH1 0xE0 SHL DUP2 MSTORE PUSH2 0xFFFF SWAP1 SWAP2 AND PUSH1 0x4 DUP3 ADD MSTORE PUSH1 0x24 ADD PUSH2 0x4CF JUMP JUMPDEST PUSH1 0x0 PUSH2 0xC2F DUP3 PUSH2 0xE56 JUMP JUMPDEST SWAP1 POP PUSH1 0x0 PUSH2 0xC4A PUSH1 0x0 DUP4 MLOAD DUP5 PUSH2 0xE72 SWAP1 SWAP3 SWAP2 SWAP1 PUSH4 0xFFFFFFFF AND JUMP JUMPDEST SWAP1 POP PUSH2 0xC58 DUP2 DUP4 DUP10 DUP10 PUSH2 0xF10 JUMP JUMPDEST ISZERO PUSH2 0xC8B JUMPI PUSH2 0xC6D DUP8 PUSH1 0xE0 ADD MLOAD DUP7 DUP4 DUP6 PUSH2 0x1036 JUMP JUMPDEST ISZERO PUSH2 0xC7B JUMPI POP POP POP POP POP POP POP JUMP JUMPDEST PUSH1 0xC0 DUP6 ADD DUP5 SWAP1 MSTORE PUSH2 0xC8B DUP6 PUSH2 0xA6E JUMP JUMPDEST POP POP PUSH2 0xC96 DUP2 PUSH2 0xA6E JUMP JUMPDEST PUSH2 0xBE1 JUMP JUMPDEST POP DUP4 PUSH1 0xE0 ADD MLOAD PUSH1 0x40 MLOAD PUSH4 0x6CDE0F3 PUSH1 0xE0 SHL DUP2 MSTORE PUSH1 0x4 ADD PUSH2 0x4CF SWAP2 SWAP1 PUSH2 0x19B6 JUMP JUMPDEST DUP1 MLOAD MLOAD PUSH1 0x20 DUP3 ADD MLOAD LT ISZERO PUSH2 0xD64 JUMPI PUSH1 0x0 PUSH2 0xCD4 DUP3 PUSH2 0x9D0 JUMP JUMPDEST SWAP1 POP PUSH2 0xCED DUP5 PUSH1 0xE0 ADD MLOAD DUP3 PUSH2 0x1173 SWAP1 SWAP2 SWAP1 PUSH4 0xFFFFFFFF AND JUMP JUMPDEST PUSH2 0xD12 JUMPI DUP4 PUSH1 0xE0 ADD MLOAD DUP2 PUSH1 0x40 MLOAD PUSH4 0x6B80573F PUSH1 0xE1 SHL DUP2 MSTORE PUSH1 0x4 ADD PUSH2 0x4CF SWAP3 SWAP2 SWAP1 PUSH2 0x1ADE JUMP JUMPDEST PUSH1 0x0 PUSH2 0xD1D DUP4 PUSH2 0xE56 JUMP JUMPDEST SWAP1 POP PUSH1 0x0 PUSH2 0xD38 PUSH1 0x0 DUP4 MLOAD DUP5 PUSH2 0xE72 SWAP1 SWAP3 SWAP2 SWAP1 PUSH4 0xFFFFFFFF AND JUMP JUMPDEST SWAP1 POP PUSH2 0xD46 DUP2 DUP4 DUP9 DUP9 PUSH2 0xF10 JUMP JUMPDEST ISZERO PUSH2 0xD53 JUMPI POP POP POP POP POP POP JUMP JUMPDEST POP POP POP PUSH2 0xD5F DUP2 PUSH2 0xA6E JUMP JUMPDEST PUSH2 0xCBB JUMP JUMPDEST DUP3 PUSH1 0xE0 ADD MLOAD PUSH1 0x40 MLOAD PUSH4 0x6CDE0F3 PUSH1 0xE0 SHL DUP2 MSTORE PUSH1 0x4 ADD PUSH2 0x4CF SWAP2 SWAP1 PUSH2 0x19B6 JUMP JUMPDEST PUSH1 0x20 DUP2 LT PUSH2 0xDBB JUMPI DUP2 MLOAD DUP4 MSTORE PUSH2 0xD9A PUSH1 0x20 DUP5 PUSH2 0x1AA2 JUMP JUMPDEST SWAP3 POP PUSH2 0xDA7 PUSH1 0x20 DUP4 PUSH2 0x1AA2 JUMP JUMPDEST SWAP2 POP PUSH2 0xDB4 PUSH1 0x20 DUP3 PUSH2 0x1AB5 JUMP JUMPDEST SWAP1 POP PUSH2 0xD83 JUMP JUMPDEST SWAP1 MLOAD DUP3 MLOAD PUSH1 0x20 SWAP3 SWAP1 SWAP3 SUB PUSH2 0x100 EXP PUSH1 0x0 NOT ADD DUP1 NOT SWAP1 SWAP2 AND SWAP2 AND OR SWAP1 MSTORE JUMP JUMPDEST DUP3 MLOAD PUSH1 0x0 SWAP1 PUSH2 0xDE8 DUP4 DUP6 PUSH2 0x1AA2 JUMP JUMPDEST GT ISZERO PUSH2 0xDF3 JUMPI PUSH1 0x0 DUP1 REVERT JUMPDEST POP SWAP2 ADD PUSH1 0x20 ADD KECCAK256 SWAP1 JUMP JUMPDEST PUSH1 0x0 PUSH2 0xE09 DUP4 DUP4 PUSH2 0x8C5 JUMP JUMPDEST PUSH1 0xFF AND PUSH2 0xE17 DUP4 PUSH1 0x1 PUSH2 0x1AA2 JUMP JUMPDEST PUSH2 0x7E3 SWAP2 SWAP1 PUSH2 0x1AA2 JUMP JUMPDEST PUSH1 0x0 PUSH2 0xE3A DUP4 DUP4 DUP5 DUP7 MLOAD PUSH2 0xE35 SWAP2 SWAP1 PUSH2 0x1AB5 JUMP JUMPDEST PUSH2 0xDD9 JUMP JUMPDEST PUSH2 0xE4C DUP7 DUP7 DUP8 DUP10 MLOAD PUSH2 0xE35 SWAP2 SWAP1 PUSH2 0x1AB5 JUMP JUMPDEST EQ SWAP6 SWAP5 POP POP POP POP POP JUMP JUMPDEST PUSH1 0xA0 DUP2 ADD MLOAD PUSH1 0xC0 DUP3 ADD MLOAD PUSH1 0x60 SWAP2 PUSH2 0x7E6 SWAP2 PUSH2 0x9E8 SWAP1 DUP3 SWAP1 PUSH2 0x1AB5 JUMP JUMPDEST PUSH1 0x40 DUP1 MLOAD PUSH1 0x80 DUP2 ADD DUP3 MSTORE PUSH1 0x0 DUP1 DUP3 MSTORE PUSH1 0x20 DUP3 ADD DUP2 SWAP1 MSTORE SWAP2 DUP2 ADD SWAP2 SWAP1 SWAP2 MSTORE PUSH1 0x60 DUP1 DUP3 ADD MSTORE PUSH2 0xEAA PUSH2 0xEA3 PUSH1 0x0 DUP6 PUSH2 0x1AA2 JUMP JUMPDEST DUP6 SWAP1 PUSH2 0x89D JUMP JUMPDEST PUSH2 0xFFFF AND DUP2 MSTORE PUSH2 0xEC5 PUSH2 0xEBE PUSH1 0x2 DUP6 PUSH2 0x1AA2 JUMP JUMPDEST DUP6 SWAP1 PUSH2 0x8C5 JUMP JUMPDEST PUSH1 0xFF AND PUSH1 0x20 DUP3 ADD MSTORE PUSH2 0xEDB PUSH2 0xEBE PUSH1 0x3 DUP6 PUSH2 0x1AA2 JUMP JUMPDEST PUSH1 0xFF AND PUSH1 0x40 DUP3 ADD MSTORE PUSH2 0xF04 PUSH2 0xEF1 PUSH1 0x4 DUP6 PUSH2 0x1AA2 JUMP JUMPDEST PUSH2 0xEFC PUSH1 0x4 DUP6 PUSH2 0x1AB5 JUMP JUMPDEST DUP7 SWAP2 SWAP1 PUSH2 0x936 JUMP JUMPDEST PUSH1 0x60 DUP3 ADD MSTORE SWAP4 SWAP3 POP POP POP JUMP JUMPDEST PUSH1 0x0 DUP5 PUSH1 0x20 ADD MLOAD PUSH1 0xFF AND PUSH1 0x3 EQ PUSH2 0xF29 JUMPI POP PUSH1 0x0 PUSH2 0x92E JUMP JUMPDEST DUP3 PUSH1 0x20 ADD MLOAD PUSH1 0xFF AND DUP6 PUSH1 0x40 ADD MLOAD PUSH1 0xFF AND EQ PUSH2 0xF46 JUMPI POP PUSH1 0x0 PUSH2 0x92E JUMP JUMPDEST PUSH1 0x0 PUSH2 0xF51 DUP6 PUSH2 0x1191 JUMP JUMPDEST SWAP1 POP DUP4 PUSH1 0xC0 ADD MLOAD PUSH2 0xFFFF AND DUP2 PUSH2 0xFFFF AND EQ PUSH2 0xF70 JUMPI PUSH1 0x0 SWAP2 POP POP PUSH2 0x92E JUMP JUMPDEST DUP6 MLOAD PUSH2 0x100 AND PUSH1 0x0 SUB PUSH2 0xF87 JUMPI PUSH1 0x0 SWAP2 POP POP PUSH2 0x92E JUMP JUMPDEST PUSH1 0x40 DUP1 DUP8 ADD MLOAD PUSH1 0xFF AND PUSH1 0x0 SWAP1 DUP2 MSTORE PUSH1 0x2 PUSH1 0x20 MSTORE KECCAK256 SLOAD PUSH1 0x1 PUSH1 0x1 PUSH1 0xA0 SHL SUB AND DUP1 PUSH2 0xFB5 JUMPI PUSH1 0x0 SWAP3 POP POP POP PUSH2 0x92E JUMP JUMPDEST DUP4 MLOAD PUSH1 0x20 DUP6 ADD MLOAD PUSH1 0x40 MLOAD PUSH4 0xDE8F50A1 PUSH1 0xE0 SHL DUP2 MSTORE PUSH1 0x1 PUSH1 0x1 PUSH1 0xA0 SHL SUB DUP5 AND SWAP3 PUSH4 0xDE8F50A1 SWAP3 PUSH2 0xFEA SWAP3 DUP12 SWAP3 SWAP2 SWAP1 PUSH1 0x4 ADD PUSH2 0x1B23 JUMP JUMPDEST PUSH1 0x20 PUSH1 0x40 MLOAD DUP1 DUP4 SUB DUP2 DUP7 GAS STATICCALL ISZERO DUP1 ISZERO PUSH2 0x1007 JUMPI RETURNDATASIZE PUSH1 0x0 DUP1 RETURNDATACOPY RETURNDATASIZE PUSH1 0x0 REVERT JUMPDEST POP POP POP POP PUSH1 0x40 MLOAD RETURNDATASIZE PUSH1 0x1F NOT PUSH1 0x1F DUP3 ADD AND DUP3 ADD DUP1 PUSH1 0x40 MSTORE POP DUP2 ADD SWAP1 PUSH2 0x102B SWAP2 SWAP1 PUSH2 0x1B5C JUMP JUMPDEST SWAP8 SWAP7 POP POP POP POP POP POP POP JUMP JUMPDEST PUSH1 0x0 DUP1 PUSH2 0x1042 DUP4 PUSH2 0x1191 JUMP JUMPDEST SWAP1 POP JUMPDEST DUP5 MLOAD MLOAD PUSH1 0x20 DUP7 ADD MLOAD LT ISZERO PUSH2 0x1167 JUMPI PUSH1 0x0 PUSH2 0x105E DUP7 PUSH2 0x9D0 JUMP JUMPDEST SWAP1 POP PUSH2 0x106A DUP2 DUP9 PUSH2 0x1173 JUMP JUMPDEST PUSH2 0x108B JUMPI DUP7 DUP2 PUSH1 0x40 MLOAD PUSH4 0x6B80573F PUSH1 0xE1 SHL DUP2 MSTORE PUSH1 0x4 ADD PUSH2 0x4CF SWAP3 SWAP2 SWAP1 PUSH2 0x1ADE JUMP JUMPDEST PUSH1 0xA0 DUP7 ADD MLOAD PUSH1 0xC0 DUP8 ADD MLOAD PUSH1 0x0 SWAP2 PUSH2 0x10B0 SWAP2 PUSH2 0x10A7 SWAP1 DUP3 SWAP1 PUSH2 0x1AB5 JUMP JUMPDEST DUP10 MLOAD SWAP2 SWAP1 PUSH2 0xE72 JUMP JUMPDEST SWAP1 POP DUP3 PUSH2 0xFFFF AND DUP2 PUSH1 0x0 ADD MLOAD PUSH2 0xFFFF AND EQ PUSH2 0x10CC JUMPI POP POP PUSH2 0x1159 JUMP JUMPDEST DUP6 PUSH1 0x40 ADD MLOAD PUSH1 0xFF AND DUP2 PUSH1 0x20 ADD MLOAD PUSH1 0xFF AND EQ PUSH2 0x10E8 JUMPI POP POP PUSH2 0x1159 JUMP JUMPDEST PUSH1 0x40 DUP1 MLOAD DUP1 DUP3 ADD SWAP1 SWAP2 MSTORE PUSH1 0x60 DUP2 MSTORE PUSH1 0x0 PUSH1 0x20 DUP3 ADD MSTORE PUSH2 0x1115 DUP7 MLOAD DUP11 MLOAD PUSH2 0x110E SWAP2 SWAP1 PUSH2 0x1AA2 JUMP JUMPDEST DUP3 SWAP1 PUSH2 0x13B4 JUMP JUMPDEST POP PUSH2 0x1120 DUP2 DUP11 PUSH2 0x142B JUMP JUMPDEST POP PUSH2 0x112B DUP2 DUP8 PUSH2 0x142B JUMP JUMPDEST POP PUSH2 0x1143 DUP3 PUSH1 0x40 ADD MLOAD DUP3 PUSH1 0x0 ADD MLOAD DUP5 PUSH1 0x60 ADD MLOAD PUSH2 0x144C JUMP JUMPDEST ISZERO PUSH2 0x1155 JUMPI PUSH1 0x1 SWAP5 POP POP POP POP POP PUSH2 0x92E JUMP JUMPDEST POP POP POP JUMPDEST PUSH2 0x1162 DUP6 PUSH2 0xA6E JUMP JUMPDEST PUSH2 0x1045 JUMP JUMPDEST POP PUSH1 0x0 SWAP6 SWAP5 POP POP POP POP POP JUMP JUMPDEST PUSH1 0x0 DUP2 MLOAD DUP4 MLOAD EQ DUP1 ISZERO PUSH2 0x7E3 JUMPI POP PUSH2 0x7E3 DUP4 PUSH1 0x0 DUP5 PUSH1 0x0 DUP8 MLOAD PUSH2 0xA4B JUMP JUMPDEST PUSH1 0x0 PUSH2 0x2000 DUP3 MLOAD GT ISZERO PUSH2 0x11E6 JUMPI PUSH1 0x40 MLOAD PUSH3 0x461BCD PUSH1 0xE5 SHL DUP2 MSTORE PUSH1 0x20 PUSH1 0x4 DUP3 ADD MSTORE PUSH1 0x17 PUSH1 0x24 DUP3 ADD MSTORE PUSH32 0x4C6F6E67206B657973206E6F74207065726D6974746564000000000000000000 PUSH1 0x44 DUP3 ADD MSTORE PUSH1 0x64 ADD PUSH2 0x4CF JUMP JUMPDEST PUSH1 0x0 DUP1 PUSH1 0x0 JUMPDEST DUP5 MLOAD PUSH1 0x1F ADD DUP2 LT ISZERO PUSH2 0x125B JUMPI PUSH1 0x0 DUP2 PUSH1 0x20 DUP8 ADD ADD MLOAD SWAP1 POP DUP6 MLOAD DUP3 PUSH1 0x20 ADD GT ISZERO PUSH2 0x1221 JUMPI DUP6 MLOAD DUP3 SWAP1 SUB PUSH1 0x8 MUL PUSH2 0x100 SUB SWAP1 DUP2 SHR SWAP1 SHL JUMPDEST PUSH31 0xFF00FF00FF00FF00FF00FF00FF00FF00FF00FF00FF00FF00FF00FF00FF00FF PUSH1 0x8 DUP3 SWAP1 SHR DUP2 AND SWAP5 SWAP1 SWAP5 ADD SWAP4 AND SWAP2 SWAP1 SWAP2 ADD SWAP1 PUSH1 0x20 ADD PUSH2 0x11EC JUMP JUMPDEST POP PUSH1 0x10 DUP3 PUSH32 0xFFFF0000FFFF0000FFFF0000FFFF0000FFFF0000FFFF0000FFFF0000FFFF0000 AND SWAP1 SHR DUP3 PUSH30 0xFFFF0000FFFF0000FFFF0000FFFF0000FFFF0000FFFF0000FFFF0000FFFF AND ADD SWAP2 POP PUSH1 0x10 DUP2 PUSH32 0xFFFF0000FFFF0000FFFF0000FFFF0000FFFF0000FFFF0000FFFF0000FFFF0000 AND SWAP1 SHR DUP2 PUSH30 0xFFFF0000FFFF0000FFFF0000FFFF0000FFFF0000FFFF0000FFFF0000FFFF AND ADD SWAP1 POP DUP1 PUSH1 0x8 DUP4 SWAP1 SHL ADD SWAP2 POP PUSH1 0x20 DUP3 PUSH32 0xFFFFFFFF00000000FFFFFFFF00000000FFFFFFFF00000000FFFFFFFF00000000 AND SWAP1 SHR DUP3 PUSH28 0xFFFFFFFF00000000FFFFFFFF00000000FFFFFFFF00000000FFFFFFFF AND ADD SWAP2 POP PUSH1 0x40 DUP3 PUSH24 0xFFFFFFFFFFFFFFFF0000000000000000FFFFFFFFFFFFFFFF NOT AND SWAP1 SHR DUP3 PUSH24 0xFFFFFFFFFFFFFFFF0000000000000000FFFFFFFFFFFFFFFF AND ADD SWAP2 POP PUSH1 0x80 DUP3 SWAP1 SHR DUP3 PUSH16 0xFFFFFFFFFFFFFFFFFFFFFFFFFFFFFFFF AND ADD SWAP2 POP PUSH1 0x10 DUP3 SWAP1 SHR PUSH2 0xFFFF AND DUP3 ADD SWAP2 POP DUP2 SWAP3 POP POP POP SWAP2 SWAP1 POP JUMP JUMPDEST PUSH1 0x40 DUP1 MLOAD DUP1 DUP3 ADD SWAP1 SWAP2 MSTORE PUSH1 0x60 DUP2 MSTORE PUSH1 0x0 PUSH1 0x20 DUP3 ADD MSTORE PUSH2 0x13D4 PUSH1 0x20 DUP4 PUSH2 0x1B7E JUMP JUMPDEST ISZERO PUSH2 0x13FC JUMPI PUSH2 0x13E4 PUSH1 0x20 DUP4 PUSH2 0x1B7E JUMP JUMPDEST PUSH2 0x13EF SWAP1 PUSH1 0x20 PUSH2 0x1AB5 JUMP JUMPDEST PUSH2 0x13F9 SWAP1 DUP4 PUSH2 0x1AA2 JUMP JUMPDEST SWAP2 POP JUMPDEST PUSH1 0x20 DUP1 DUP5 ADD DUP4 SWAP1 MSTORE PUSH1 0x40 MLOAD DUP1 DUP6 MSTORE PUSH1 0x0 DUP2 MSTORE SWAP1 DUP2 DUP5 ADD ADD DUP2 DUP2 LT ISZERO PUSH2 0x1420 JUMPI PUSH1 0x0 DUP1 REVERT JUMPDEST PUSH1 0x40 MSTORE POP SWAP2 SWAP3 SWAP2 POP POP JUMP JUMPDEST PUSH1 0x40 DUP1 MLOAD DUP1 DUP3 ADD SWAP1 SWAP2 MSTORE PUSH1 0x60 DUP2 MSTORE PUSH1 0x0 PUSH1 0x20 DUP3 ADD MSTORE PUSH2 0x7E3 DUP4 DUP4 DUP5 MLOAD PUSH2 0x14F8 JUMP JUMPDEST PUSH1 0xFF DUP4 AND PUSH1 0x0 SWAP1 DUP2 MSTORE PUSH1 0x3 PUSH1 0x20 MSTORE PUSH1 0x40 DUP2 KECCAK256 SLOAD PUSH1 0x1 PUSH1 0x1 PUSH1 0xA0 SHL SUB AND PUSH2 0x1474 JUMPI POP PUSH1 0x0 PUSH2 0x573 JUMP JUMPDEST PUSH1 0xFF DUP5 AND PUSH1 0x0 SWAP1 DUP2 MSTORE PUSH1 0x3 PUSH1 0x20 MSTORE PUSH1 0x40 SWAP1 DUP2 SWAP1 KECCAK256 SLOAD SWAP1 MLOAD PUSH4 0x7BF41D77 PUSH1 0xE1 SHL DUP2 MSTORE PUSH1 0x1 PUSH1 0x1 PUSH1 0xA0 SHL SUB SWAP1 SWAP2 AND SWAP1 PUSH4 0xF7E83AEE SWAP1 PUSH2 0x14B7 SWAP1 DUP7 SWAP1 DUP7 SWAP1 PUSH1 0x4 ADD PUSH2 0x1ADE JUMP JUMPDEST PUSH1 0x20 PUSH1 0x40 MLOAD DUP1 DUP4 SUB DUP2 DUP7 GAS STATICCALL ISZERO DUP1 ISZERO PUSH2 0x14D4 JUMPI RETURNDATASIZE PUSH1 0x0 DUP1 RETURNDATACOPY RETURNDATASIZE PUSH1 0x0 REVERT JUMPDEST POP POP POP POP PUSH1 0x40 MLOAD RETURNDATASIZE PUSH1 0x1F NOT PUSH1 0x1F DUP3 ADD AND DUP3 ADD DUP1 PUSH1 0x40 MSTORE POP DUP2 ADD SWAP1 PUSH2 0x92E SWAP2 SWAP1 PUSH2 0x1B5C JUMP JUMPDEST PUSH1 0x40 DUP1 MLOAD DUP1 DUP3 ADD SWAP1 SWAP2 MSTORE PUSH1 0x60 DUP2 MSTORE PUSH1 0x0 PUSH1 0x20 DUP3 ADD MSTORE DUP3 MLOAD DUP3 GT ISZERO PUSH2 0x151B JUMPI PUSH1 0x0 DUP1 REVERT JUMPDEST DUP4 MLOAD MLOAD PUSH1 0x0 PUSH2 0x152A DUP5 DUP4 PUSH2 0x1AA2 JUMP JUMPDEST SWAP1 POP DUP6 PUSH1 0x20 ADD MLOAD DUP2 GT ISZERO PUSH2 0x154C JUMPI PUSH2 0x154C DUP7 PUSH2 0x1547 DUP4 PUSH1 0x2 PUSH2 0x1BA0 JUMP JUMPDEST PUSH2 0x15CE JUMP JUMPDEST DUP6 MLOAD DUP1 MLOAD DUP4 DUP3 ADD PUSH1 0x20 ADD SWAP2 PUSH1 0x0 SWAP2 DUP1 DUP6 GT ISZERO PUSH2 0x1566 JUMPI DUP5 DUP3 MSTORE JUMPDEST POP POP POP PUSH1 0x20 DUP7 ADD JUMPDEST PUSH1 0x20 DUP7 LT PUSH2 0x15A6 JUMPI DUP1 MLOAD DUP3 MSTORE PUSH2 0x1585 PUSH1 0x20 DUP4 PUSH2 0x1AA2 JUMP JUMPDEST SWAP2 POP PUSH2 0x1592 PUSH1 0x20 DUP3 PUSH2 0x1AA2 JUMP JUMPDEST SWAP1 POP PUSH2 0x159F PUSH1 0x20 DUP8 PUSH2 0x1AB5 JUMP JUMPDEST SWAP6 POP PUSH2 0x156E JUMP JUMPDEST MLOAD DUP2 MLOAD PUSH1 0x0 NOT PUSH1 0x20 DUP9 SWAP1 SUB PUSH2 0x100 EXP ADD SWAP1 DUP2 AND SWAP1 NOT SWAP2 SWAP1 SWAP2 AND OR SWAP1 MSTORE POP DUP5 SWAP2 POP POP SWAP4 SWAP3 POP POP POP JUMP JUMPDEST DUP2 MLOAD PUSH2 0x15DA DUP4 DUP4 PUSH2 0x13B4 JUMP JUMPDEST POP PUSH2 0x15E5 DUP4 DUP3 PUSH2 0x142B JUMP JUMPDEST POP POP POP POP JUMP JUMPDEST PUSH1 0x40 DUP1 MLOAD PUSH2 0x140 DUP2 ADD DUP3 MSTORE PUSH1 0x0 DUP1 DUP3 MSTORE PUSH1 0x20 DUP3 ADD DUP2 SWAP1 MSTORE SWAP2 DUP2 ADD DUP3 SWAP1 MSTORE PUSH1 0x60 DUP1 DUP3 ADD DUP4 SWAP1 MSTORE PUSH1 0x80 DUP3 ADD DUP4 SWAP1 MSTORE PUSH1 0xA0 DUP3 ADD DUP4 SWAP1 MSTORE PUSH1 0xC0 DUP3 ADD SWAP3 SWAP1 SWAP3 MSTORE PUSH1 0xE0 DUP2 ADD DUP3 SWAP1 MSTORE PUSH2 0x100 DUP2 ADD DUP3 SWAP1 MSTORE PUSH2 0x120 DUP2 ADD SWAP2 SWAP1 SWAP2 MSTORE SWAP1 JUMP JUMPDEST PUSH1 0x40 MLOAD DUP1 PUSH1 0xE0 ADD PUSH1 0x40 MSTORE DUP1 PUSH1 0x60 DUP2 MSTORE PUSH1 0x20 ADD PUSH1 0x0 DUP2 MSTORE PUSH1 0x20 ADD PUSH1 0x0 PUSH2 0xFFFF AND DUP2 MSTORE PUSH1 0x20 ADD PUSH1 0x0 PUSH2 0xFFFF AND DUP2 MSTORE PUSH1 0x20 ADD PUSH1 0x0 PUSH4 0xFFFFFFFF AND DUP2 MSTORE PUSH1 0x20 ADD PUSH1 0x0 DUP2 MSTORE PUSH1 0x20 ADD PUSH1 0x0 DUP2 MSTORE POP SWAP1 JUMP JUMPDEST DUP1 CALLDATALOAD PUSH1 0xFF DUP2 AND DUP2 EQ PUSH2 0x169D JUMPI PUSH1 0x0 DUP1 REVERT JUMPDEST SWAP2 SWAP1 POP JUMP JUMPDEST PUSH1 0x1 PUSH1 0x1 PUSH1 0xA0 SHL SUB DUP2 AND DUP2 EQ PUSH2 0x16B7 JUMPI PUSH1 0x0 DUP1 REVERT JUMPDEST POP JUMP JUMPDEST PUSH1 0x0 DUP1 PUSH1 0x40 DUP4 DUP6 SUB SLT ISZERO PUSH2 0x16CD JUMPI PUSH1 0x0 DUP1 REVERT JUMPDEST PUSH2 0x16D6 DUP4 PUSH2 0x168C JUMP JUMPDEST SWAP2 POP PUSH1 0x20 DUP4 ADD CALLDATALOAD PUSH2 0x16E6 DUP2 PUSH2 0x16A2 JUMP JUMPDEST DUP1 SWAP2 POP POP SWAP3 POP SWAP3 SWAP1 POP JUMP JUMPDEST PUSH1 0x0 PUSH1 0x20 DUP3 DUP5 SUB SLT ISZERO PUSH2 0x1703 JUMPI PUSH1 0x0 DUP1 REVERT JUMPDEST DUP2 CALLDATALOAD PUSH2 0x7E3 DUP2 PUSH2 0x16A2 JUMP JUMPDEST PUSH4 0x4E487B71 PUSH1 0xE0 SHL PUSH1 0x0 MSTORE PUSH1 0x41 PUSH1 0x4 MSTORE PUSH1 0x24 PUSH1 0x0 REVERT JUMPDEST PUSH1 0x40 DUP1 MLOAD SWAP1 DUP2 ADD PUSH8 0xFFFFFFFFFFFFFFFF DUP2 GT DUP3 DUP3 LT OR ISZERO PUSH2 0x1747 JUMPI PUSH2 0x1747 PUSH2 0x170E JUMP JUMPDEST PUSH1 0x40 MSTORE SWAP1 JUMP JUMPDEST PUSH1 0x40 MLOAD PUSH1 0x1F DUP3 ADD PUSH1 0x1F NOT AND DUP2 ADD PUSH8 0xFFFFFFFFFFFFFFFF DUP2 GT DUP3 DUP3 LT OR ISZERO PUSH2 0x1776 JUMPI PUSH2 0x1776 PUSH2 0x170E JUMP JUMPDEST PUSH1 0x40 MSTORE SWAP2 SWAP1 POP JUMP JUMPDEST PUSH1 0x0 DUP3 PUSH1 0x1F DUP4 ADD SLT PUSH2 0x178F JUMPI PUSH1 0x0 DUP1 REVERT JUMPDEST DUP2 CALLDATALOAD PUSH8 0xFFFFFFFFFFFFFFFF DUP2 GT ISZERO PUSH2 0x17A9 JUMPI PUSH2 0x17A9 PUSH2 0x170E JUMP JUMPDEST PUSH2 0x17BC PUSH1 0x1F DUP3 ADD PUSH1 0x1F NOT AND PUSH1 0x20 ADD PUSH2 0x174D JUMP JUMPDEST DUP2 DUP2 MSTORE DUP5 PUSH1 0x20 DUP4 DUP7 ADD ADD GT ISZERO PUSH2 0x17D1 JUMPI PUSH1 0x0 DUP1 REVERT JUMPDEST DUP2 PUSH1 0x20 DUP6 ADD PUSH1 0x20 DUP4 ADD CALLDATACOPY PUSH1 0x0 SWAP2 DUP2 ADD PUSH1 0x20 ADD SWAP2 SWAP1 SWAP2 MSTORE SWAP4 SWAP3 POP POP POP JUMP JUMPDEST PUSH1 0x0 DUP3 PUSH1 0x1F DUP4 ADD SLT PUSH2 0x17FF JUMPI PUSH1 0x0 DUP1 REVERT JUMPDEST DUP2 CALLDATALOAD PUSH1 0x20 PUSH8 0xFFFFFFFFFFFFFFFF DUP1 DUP4 GT ISZERO PUSH2 0x181C JUMPI PUSH2 0x181C PUSH2 0x170E JUMP JUMPDEST DUP3 PUSH1 0x5 SHL PUSH2 0x182B DUP4 DUP3 ADD PUSH2 0x174D JUMP JUMPDEST SWAP4 DUP5 MSTORE DUP6 DUP2 ADD DUP4 ADD SWAP4 DUP4 DUP2 ADD SWAP1 DUP9 DUP7 GT ISZERO PUSH2 0x1845 JUMPI PUSH1 0x0 DUP1 REVERT JUMPDEST DUP5 DUP9 ADD SWAP3 POP JUMPDEST DUP6 DUP4 LT ISZERO PUSH2 0x18DC JUMPI DUP3 CALLDATALOAD DUP5 DUP2 GT ISZERO PUSH2 0x1863 JUMPI PUSH1 0x0 DUP1 DUP2 REVERT JUMPDEST DUP9 ADD PUSH1 0x40 DUP2 DUP12 SUB PUSH1 0x1F NOT ADD DUP2 SGT ISZERO PUSH2 0x187B JUMPI PUSH1 0x0 DUP1 DUP2 REVERT JUMPDEST PUSH2 0x1883 PUSH2 0x1724 JUMP JUMPDEST DUP8 DUP4 ADD CALLDATALOAD DUP8 DUP2 GT ISZERO PUSH2 0x1895 JUMPI PUSH1 0x0 DUP1 DUP2 REVERT JUMPDEST PUSH2 0x18A3 DUP14 DUP11 DUP4 DUP8 ADD ADD PUSH2 0x177E JUMP JUMPDEST DUP3 MSTORE POP SWAP1 DUP3 ADD CALLDATALOAD SWAP1 DUP7 DUP3 GT ISZERO PUSH2 0x18B9 JUMPI PUSH1 0x0 DUP1 DUP2 REVERT JUMPDEST PUSH2 0x18C7 DUP13 DUP10 DUP5 DUP7 ADD ADD PUSH2 0x177E JUMP JUMPDEST DUP2 DUP10 ADD MSTORE DUP5 MSTORE POP POP SWAP2 DUP5 ADD SWAP2 SWAP1 DUP5 ADD SWAP1 PUSH2 0x184B JUMP JUMPDEST SWAP9 SWAP8 POP POP POP POP POP POP POP POP JUMP JUMPDEST PUSH1 0x0 DUP1 PUSH1 0x40 DUP4 DUP6 SUB SLT ISZERO PUSH2 0x18FB JUMPI PUSH1 0x0 DUP1 REVERT JUMPDEST DUP3 CALLDATALOAD PUSH8 0xFFFFFFFFFFFFFFFF DUP2 GT ISZERO PUSH2 0x1912 JUMPI PUSH1 0x0 DUP1 REVERT JUMPDEST PUSH2 0x191E DUP6 DUP3 DUP7 ADD PUSH2 0x17EE JUMP JUMPDEST SWAP6 PUSH1 0x20 SWAP5 SWAP1 SWAP5 ADD CALLDATALOAD SWAP5 POP POP POP POP JUMP JUMPDEST PUSH1 0x0 DUP2 MLOAD DUP1 DUP5 MSTORE PUSH1 0x0 JUMPDEST DUP2 DUP2 LT ISZERO PUSH2 0x1953 JUMPI PUSH1 0x20 DUP2 DUP6 ADD DUP2 ADD MLOAD DUP7 DUP4 ADD DUP3 ADD MSTORE ADD PUSH2 0x1937 JUMP JUMPDEST POP PUSH1 0x0 PUSH1 0x20 DUP3 DUP7 ADD ADD MSTORE PUSH1 0x20 PUSH1 0x1F NOT PUSH1 0x1F DUP4 ADD AND DUP6 ADD ADD SWAP2 POP POP SWAP3 SWAP2 POP POP JUMP JUMPDEST PUSH1 0x40 DUP2 MSTORE PUSH1 0x0 PUSH2 0x1986 PUSH1 0x40 DUP4 ADD DUP6 PUSH2 0x192D JUMP JUMPDEST SWAP1 POP PUSH4 0xFFFFFFFF DUP4 AND PUSH1 0x20 DUP4 ADD MSTORE SWAP4 SWAP3 POP POP POP JUMP JUMPDEST PUSH1 0x0 PUSH1 0x20 DUP3 DUP5 SUB SLT ISZERO PUSH2 0x19AD JUMPI PUSH1 0x0 DUP1 REVERT JUMPDEST PUSH2 0x7E3 DUP3 PUSH2 0x168C JUMP JUMPDEST PUSH1 0x20 DUP2 MSTORE PUSH1 0x0 PUSH2 0x7E3 PUSH1 0x20 DUP4 ADD DUP5 PUSH2 0x192D JUMP JUMPDEST PUSH1 0x0 PUSH1 0x20 DUP3 DUP5 SUB SLT ISZERO PUSH2 0x19DB JUMPI PUSH1 0x0 DUP1 REVERT JUMPDEST DUP2 CALLDATALOAD PUSH8 0xFFFFFFFFFFFFFFFF DUP2 GT ISZERO PUSH2 0x19F2 JUMPI PUSH1 0x0 DUP1 REVERT JUMPDEST PUSH2 0x92E DUP5 DUP3 DUP6 ADD PUSH2 0x17EE JUMP JUMPDEST PUSH1 0x1 DUP2 DUP2 SHR SWAP1 DUP3 AND DUP1 PUSH2 0x1A12 JUMPI PUSH1 0x7F DUP3 AND SWAP2 POP JUMPDEST PUSH1 0x20 DUP3 LT DUP2 SUB PUSH2 0x1A32 JUMPI PUSH4 0x4E487B71 PUSH1 0xE0 SHL PUSH1 0x0 MSTORE PUSH1 0x22 PUSH1 0x4 MSTORE PUSH1 0x24 PUSH1 0x0 REVERT JUMPDEST POP SWAP2 SWAP1 POP JUMP JUMPDEST PUSH4 0x4E487B71 PUSH1 0xE0 SHL PUSH1 0x0 MSTORE PUSH1 0x32 PUSH1 0x4 MSTORE PUSH1 0x24 PUSH1 0x0 REVERT JUMPDEST PUSH4 0x4E487B71 PUSH1 0xE0 SHL PUSH1 0x0 MSTORE PUSH1 0x11 PUSH1 0x4 MSTORE PUSH1 0x24 PUSH1 0x0 REVERT JUMPDEST PUSH1 0x0 PUSH1 0x1 DUP3 ADD PUSH2 0x1A76 JUMPI PUSH2 0x1A76 PUSH2 0x1A4E JUMP JUMPDEST POP PUSH1 0x1 ADD SWAP1 JUMP JUMPDEST PUSH1 0x40 DUP2 MSTORE PUSH1 0x0 PUSH2 0x1A90 PUSH1 0x40 DUP4 ADD DUP6 PUSH2 0x192D JUMP JUMPDEST SWAP1 POP PUSH1 0xFF DUP4 AND PUSH1 0x20 DUP4 ADD MSTORE SWAP4 SWAP3 POP POP POP JUMP JUMPDEST DUP1 DUP3 ADD DUP1 DUP3 GT ISZERO PUSH2 0x7E6 JUMPI PUSH2 0x7E6 PUSH2 0x1A4E JUMP JUMPDEST DUP2 DUP2 SUB DUP2 DUP2 GT ISZERO PUSH2 0x7E6 JUMPI PUSH2 0x7E6 PUSH2 0x1A4E JUMP JUMPDEST PUSH4 0x4E487B71 PUSH1 0xE0 SHL PUSH1 0x0 MSTORE PUSH1 0x1 PUSH1 0x4 MSTORE PUSH1 0x24 PUSH1 0x0 REVERT JUMPDEST PUSH1 0x40 DUP2 MSTORE PUSH1 0x0 PUSH2 0x1AF1 PUSH1 0x40 DUP4 ADD DUP6 PUSH2 0x192D JUMP JUMPDEST DUP3 DUP2 SUB PUSH1 0x20 DUP5 ADD MSTORE PUSH2 0x1B03 DUP2 DUP6 PUSH2 0x192D JUMP JUMPDEST SWAP6 SWAP5 POP POP POP POP POP JUMP JUMPDEST PUSH1 0x0 DUP2 PUSH2 0x1B1B JUMPI PUSH2 0x1B1B PUSH2 0x1A4E JUMP JUMPDEST POP PUSH1 0x0 NOT ADD SWAP1 JUMP JUMPDEST PUSH1 0x60 DUP2 MSTORE PUSH1 0x0 PUSH2 0x1B36 PUSH1 0x60 DUP4 ADD DUP7 PUSH2 0x192D JUMP JUMPDEST DUP3 DUP2 SUB PUSH1 0x20 DUP5 ADD MSTORE PUSH2 0x1B48 DUP2 DUP7 PUSH2 0x192D JUMP JUMPDEST SWAP1 POP DUP3 DUP2 SUB PUSH1 0x40 DUP5 ADD MSTORE PUSH2 0xBA9 DUP2 DUP6 PUSH2 0x192D JUMP JUMPDEST PUSH1 0x0 PUSH1 0x20 DUP3 DUP5 SUB SLT ISZERO PUSH2 0x1B6E JUMPI PUSH1 0x0 DUP1 REVERT JUMPDEST DUP2 MLOAD DUP1 ISZERO ISZERO DUP2 EQ PUSH2 0x7E3 JUMPI PUSH1 0x0 DUP1 REVERT JUMPDEST PUSH1 0x0 DUP3 PUSH2 0x1B9B JUMPI PUSH4 0x4E487B71 PUSH1 0xE0 SHL PUSH1 0x0 MSTORE PUSH1 0x12 PUSH1 0x4 MSTORE PUSH1 0x24 PUSH1 0x0 REVERT JUMPDEST POP MOD SWAP1 JUMP JUMPDEST DUP1 DUP3 MUL DUP2 ISZERO DUP3 DUP3 DIV DUP5 EQ OR PUSH2 0x7E6 JUMPI PUSH2 0x7E6 PUSH2 0x1A4E JUMP INVALID LOG2 PUSH5 0x6970667358 0x22 SLT KECCAK256 0xD9 0xF8 BLOCKHASH 0xDF SWAP10 PC SWAP9 0xBE 0xA6 SSTORE 0xC7 PUSH3 0xBEC971 SLT PUSH31 0x4007415650DB190C0BEED62620368764736F6C634300081100330000000000 "
		},
		"gasEstimates": {
			"creation": {
				"codeDepositCost": "1429800",
				"executionCost": "infinite",
				"totalCost": "infinite"
			},
			"external": {
				"algorithms(uint8)": "2638",
				"anchors()": "infinite",
				"digests(uint8)": "2550",
				"owner()": "2359",
				"setAlgorithm(uint8,address)": "28212",
				"setDigest(uint8,address)": "28267",
				"setOwner(address)": "26732",
				"verifyRRSet((bytes,bytes)[])": "infinite",
				"verifyRRSet((bytes,bytes)[],uint256)": "infinite"
			},
			"internal": {
				"validateRRs(struct RRUtils.SignedSet memory,uint16)": "infinite",
				"validateSignedSet(struct DNSSEC.RRSetWithSignature memory,bytes memory,uint256)": "infinite",
				"verifyDSHash(uint8,bytes memory,bytes memory)": "infinite",
				"verifyKeyWithDS(bytes memory,struct RRUtils.RRIterator memory,struct RRUtils.DNSKEY memory,bytes memory)": "infinite",
				"verifySignature(bytes memory,struct RRUtils.SignedSet memory,struct DNSSEC.RRSetWithSignature memory,bytes memory)": "infinite",
				"verifySignatureWithKey(struct RRUtils.DNSKEY memory,bytes memory,struct RRUtils.SignedSet memory,struct DNSSEC.RRSetWithSignature memory)": "infinite",
				"verifyWithDS(struct RRUtils.SignedSet memory,struct DNSSEC.RRSetWithSignature memory,struct RRUtils.RRIterator memory)": "infinite",
				"verifyWithKnownKey(struct RRUtils.SignedSet memory,struct DNSSEC.RRSetWithSignature memory,struct RRUtils.RRIterator memory)": "infinite"
			}
		},
		"methodIdentifiers": {
			"algorithms(uint8)": "c327deef",
			"anchors()": "98d35f20",
			"digests(uint8)": "73cc48a6",
			"owner()": "8da5cb5b",
			"setAlgorithm(uint8,address)": "020ed8d3",
			"setDigest(uint8,address)": "28e7677d",
			"setOwner(address)": "13af4035",
			"verifyRRSet((bytes,bytes)[])": "bdf95fef",
			"verifyRRSet((bytes,bytes)[],uint256)": "440f3d42"
		}
	},
	"abi": [
		{
			"inputs": [
				{
					"internalType": "bytes",
					"name": "_anchors",
					"type": "bytes"
				}
			],
			"stateMutability": "nonpayable",
			"type": "constructor"
		},
		{
			"inputs": [
				{
					"internalType": "uint16",
					"name": "class",
					"type": "uint16"
				}
			],
			"name": "InvalidClass",
			"type": "error"
		},
		{
			"inputs": [
				{
					"internalType": "bytes",
					"name": "name",
					"type": "bytes"
				},
				{
					"internalType": "uint256",
					"name": "labelsExpected",
					"type": "uint256"
				}
			],
			"name": "InvalidLabelCount",
			"type": "error"
		},
		{
			"inputs": [
				{
					"internalType": "uint16",
					"name": "proofType",
					"type": "uint16"
				}
			],
			"name": "InvalidProofType",
			"type": "error"
		},
		{
			"inputs": [],
			"name": "InvalidRRSet",
			"type": "error"
		},
		{
			"inputs": [
				{
					"internalType": "bytes",
					"name": "rrsetName",
					"type": "bytes"
				},
				{
					"internalType": "bytes",
					"name": "signerName",
					"type": "bytes"
				}
			],
			"name": "InvalidSignerName",
			"type": "error"
		},
		{
			"inputs": [
				{
					"internalType": "bytes",
					"name": "signerName",
					"type": "bytes"
				}
			],
			"name": "NoMatchingProof",
			"type": "error"
		},
		{
			"inputs": [
				{
					"internalType": "bytes",
					"name": "signerName",
					"type": "bytes"
				},
				{
					"internalType": "bytes",
					"name": "proofName",
					"type": "bytes"
				}
			],
			"name": "ProofNameMismatch",
			"type": "error"
		},
		{
			"inputs": [
				{
					"internalType": "uint32",
					"name": "expiration",
					"type": "uint32"
				},
				{
					"internalType": "uint32",
					"name": "now",
					"type": "uint32"
				}
			],
			"name": "SignatureExpired",
			"type": "error"
		},
		{
			"inputs": [
				{
					"internalType": "uint32",
					"name": "inception",
					"type": "uint32"
				},
				{
					"internalType": "uint32",
					"name": "now",
					"type": "uint32"
				}
			],
			"name": "SignatureNotValidYet",
			"type": "error"
		},
		{
			"inputs": [
				{
					"internalType": "uint16",
					"name": "rrsetType",
					"type": "uint16"
				},
				{
					"internalType": "uint16",
					"name": "sigType",
					"type": "uint16"
				}
			],
			"name": "SignatureTypeMismatch",
			"type": "error"
		},
		{
			"anonymous": false,
			"inputs": [
				{
					"indexed": false,
					"internalType": "uint8",
					"name": "id",
					"type": "uint8"
				},
				{
					"indexed": false,
					"internalType": "address",
					"name": "addr",
					"type": "address"
				}
			],
			"name": "AlgorithmUpdated",
			"type": "event"
		},
		{
			"anonymous": false,
			"inputs": [
				{
					"indexed": false,
					"internalType": "uint8",
					"name": "id",
					"type": "uint8"
				},
				{
					"indexed": false,
					"internalType": "address",
					"name": "addr",
					"type": "address"
				}
			],
			"name": "DigestUpdated",
			"type": "event"
		},
		{
			"inputs": [
				{
					"internalType": "uint8",
					"name": "",
					"type": "uint8"
				}
			],
			"name": "algorithms",
			"outputs": [
				{
					"internalType": "contract Algorithm",
					"name": "",
					"type": "address"
				}
			],
			"stateMutability": "view",
			"type": "function"
		},
		{
			"inputs": [],
			"name": "anchors",
			"outputs": [
				{
					"internalType": "bytes",
					"name": "",
					"type": "bytes"
				}
			],
			"stateMutability": "view",
			"type": "function"
		},
		{
			"inputs": [
				{
					"internalType": "uint8",
					"name": "",
					"type": "uint8"
				}
			],
			"name": "digests",
			"outputs": [
				{
					"internalType": "contract Digest",
					"name": "",
					"type": "address"
				}
			],
			"stateMutability": "view",
			"type": "function"
		},
		{
			"inputs": [],
			"name": "owner",
			"outputs": [
				{
					"internalType": "address",
					"name": "",
					"type": "address"
				}
			],
			"stateMutability": "view",
			"type": "function"
		},
		{
			"inputs": [
				{
					"internalType": "uint8",
					"name": "id",
					"type": "uint8"
				},
				{
					"internalType": "contract Algorithm",
					"name": "algo",
					"type": "address"
				}
			],
			"name": "setAlgorithm",
			"outputs": [],
			"stateMutability": "nonpayable",
			"type": "function"
		},
		{
			"inputs": [
				{
					"internalType": "uint8",
					"name": "id",
					"type": "uint8"
				},
				{
					"internalType": "contract Digest",
					"name": "digest",
					"type": "address"
				}
			],
			"name": "setDigest",
			"outputs": [],
			"stateMutability": "nonpayable",
			"type": "function"
		},
		{
			"inputs": [
				{
					"internalType": "address",
					"name": "newOwner",
					"type": "address"
				}
			],
			"name": "setOwner",
			"outputs": [],
			"stateMutability": "nonpayable",
			"type": "function"
		},
		{
			"inputs": [
				{
					"components": [
						{
							"internalType": "bytes",
							"name": "rrset",
							"type": "bytes"
						},
						{
							"internalType": "bytes",
							"name": "sig",
							"type": "bytes"
						}
					],
					"internalType": "struct DNSSEC.RRSetWithSignature[]",
					"name": "input",
					"type": "tuple[]"
				},
				{
					"internalType": "uint256",
					"name": "now",
					"type": "uint256"
				}
			],
			"name": "verifyRRSet",
			"outputs": [
				{
					"internalType": "bytes",
					"name": "rrs",
					"type": "bytes"
				},
				{
					"internalType": "uint32",
					"name": "inception",
					"type": "uint32"
				}
			],
			"stateMutability": "view",
			"type": "function"
		},
		{
			"inputs": [
				{
					"components": [
						{
							"internalType": "bytes",
							"name": "rrset",
							"type": "bytes"
						},
						{
							"internalType": "bytes",
							"name": "sig",
							"type": "bytes"
						}
					],
					"internalType": "struct DNSSEC.RRSetWithSignature[]",
					"name": "input",
					"type": "tuple[]"
				}
			],
			"name": "verifyRRSet",
			"outputs": [
				{
					"internalType": "bytes",
					"name": "rrs",
					"type": "bytes"
				},
				{
					"internalType": "uint32",
					"name": "inception",
					"type": "uint32"
				}
			],
			"stateMutability": "view",
			"type": "function"
		}
	]
}