{
	"packages/contracts/src/framework/dao/DAORegistry.sol": {
		"DAORegistry": {
			"abi": [
				{
					"inputs": [],
					"stateMutability": "nonpayable",
					"type": "constructor"
				},
				{
					"inputs": [
						{
							"internalType": "address",
							"name": "target",
							"type": "address"
						}
					],
					"name": "AddressEmptyCode",
					"type": "error"
				},
				{
					"inputs": [
						{
							"internalType": "address",
							"name": "registrant",
							"type": "address"
						}
					],
					"name": "ContractAlreadyRegistered",
					"type": "error"
				},
				{
					"inputs": [
						{
							"internalType": "address",
							"name": "registrant",
							"type": "address"
						}
					],
					"name": "ContractERC165SupportInvalid",
					"type": "error"
				},
				{
					"inputs": [
						{
							"internalType": "address",
							"name": "registrant",
							"type": "address"
						}
					],
					"name": "ContractInterfaceInvalid",
					"type": "error"
				},
				{
					"inputs": [
						{
							"internalType": "address",
							"name": "dao",
							"type": "address"
						},
						{
							"internalType": "address",
							"name": "where",
							"type": "address"
						},
						{
							"internalType": "address",
							"name": "who",
							"type": "address"
						},
						{
							"internalType": "bytes32",
							"name": "permissionId",
							"type": "bytes32"
						}
					],
					"name": "DaoUnauthorized",
					"type": "error"
				},
				{
					"inputs": [
						{
							"internalType": "address",
							"name": "implementation",
							"type": "address"
						}
					],
					"name": "ERC1967InvalidImplementation",
					"type": "error"
				},
				{
					"inputs": [],
					"name": "ERC1967NonPayable",
					"type": "error"
				},
				{
					"inputs": [],
					"name": "FailedInnerCall",
					"type": "error"
				},
				{
					"inputs": [
						{
							"internalType": "string",
							"name": "subdomain",
							"type": "string"
						}
					],
					"name": "InvalidDaoSubdomain",
					"type": "error"
				},
				{
					"inputs": [],
					"name": "InvalidInitialization",
					"type": "error"
				},
				{
					"inputs": [],
					"name": "NotInitializing",
					"type": "error"
				},
				{
					"inputs": [],
					"name": "UUPSUnauthorizedCallContext",
					"type": "error"
				},
				{
					"inputs": [
						{
							"internalType": "bytes32",
							"name": "slot",
							"type": "bytes32"
						}
					],
					"name": "UUPSUnsupportedProxiableUUID",
					"type": "error"
				},
				{
					"anonymous": false,
					"inputs": [
						{
							"indexed": true,
							"internalType": "address",
							"name": "dao",
							"type": "address"
						},
						{
							"indexed": true,
							"internalType": "address",
							"name": "creator",
							"type": "address"
						},
						{
							"indexed": false,
							"internalType": "string",
							"name": "subdomain",
							"type": "string"
						}
					],
					"name": "DAORegistered",
					"type": "event"
				},
				{
					"anonymous": false,
					"inputs": [
						{
							"indexed": false,
							"internalType": "uint64",
							"name": "version",
							"type": "uint64"
						}
					],
					"name": "Initialized",
					"type": "event"
				},
				{
					"anonymous": false,
					"inputs": [
						{
							"indexed": true,
							"internalType": "address",
							"name": "implementation",
							"type": "address"
						}
					],
					"name": "Upgraded",
					"type": "event"
				},
				{
					"inputs": [],
					"name": "REGISTER_DAO_PERMISSION_ID",
					"outputs": [
						{
							"internalType": "bytes32",
							"name": "",
							"type": "bytes32"
						}
					],
					"stateMutability": "view",
					"type": "function"
				},
				{
					"inputs": [],
					"name": "UPGRADE_INTERFACE_VERSION",
					"outputs": [
						{
							"internalType": "string",
							"name": "",
							"type": "string"
						}
					],
					"stateMutability": "view",
					"type": "function"
				},
				{
					"inputs": [],
					"name": "UPGRADE_REGISTRY_PERMISSION_ID",
					"outputs": [
						{
							"internalType": "bytes32",
							"name": "",
							"type": "bytes32"
						}
					],
					"stateMutability": "view",
					"type": "function"
				},
				{
					"inputs": [],
					"name": "dao",
					"outputs": [
						{
							"internalType": "contract IDAO",
							"name": "",
							"type": "address"
						}
					],
					"stateMutability": "view",
					"type": "function"
				},
				{
					"inputs": [
						{
							"internalType": "address",
							"name": "",
							"type": "address"
						}
					],
					"name": "entries",
					"outputs": [
						{
							"internalType": "bool",
							"name": "",
							"type": "bool"
						}
					],
					"stateMutability": "view",
					"type": "function"
				},
				{
					"inputs": [
						{
							"internalType": "contract IDAO",
							"name": "_managingDao",
							"type": "address"
						},
						{
							"internalType": "contract ENSSubdomainRegistrar",
							"name": "_subdomainRegistrar",
							"type": "address"
						}
					],
					"name": "initialize",
					"outputs": [],
					"stateMutability": "nonpayable",
					"type": "function"
				},
				{
					"inputs": [],
					"name": "protocolVersion",
					"outputs": [
						{
							"internalType": "uint8[3]",
							"name": "",
							"type": "uint8[3]"
						}
					],
					"stateMutability": "pure",
					"type": "function"
				},
				{
					"inputs": [],
					"name": "proxiableUUID",
					"outputs": [
						{
							"internalType": "bytes32",
							"name": "",
							"type": "bytes32"
						}
					],
					"stateMutability": "view",
					"type": "function"
				},
				{
					"inputs": [
						{
							"internalType": "contract IDAO",
							"name": "dao",
							"type": "address"
						},
						{
							"internalType": "address",
							"name": "creator",
							"type": "address"
						},
						{
							"internalType": "string",
							"name": "subdomain",
							"type": "string"
						}
					],
					"name": "register",
					"outputs": [],
					"stateMutability": "nonpayable",
					"type": "function"
				},
				{
					"inputs": [],
					"name": "subdomainRegistrar",
					"outputs": [
						{
							"internalType": "contract ENSSubdomainRegistrar",
							"name": "",
							"type": "address"
						}
					],
					"stateMutability": "view",
					"type": "function"
				},
				{
					"inputs": [],
					"name": "targetInterfaceId",
					"outputs": [
						{
							"internalType": "bytes4",
							"name": "",
							"type": "bytes4"
						}
					],
					"stateMutability": "view",
					"type": "function"
				},
				{
					"inputs": [
						{
							"internalType": "address",
							"name": "newImplementation",
							"type": "address"
						},
						{
							"internalType": "bytes",
							"name": "data",
							"type": "bytes"
						}
					],
					"name": "upgradeToAndCall",
					"outputs": [],
					"stateMutability": "payable",
					"type": "function"
				}
			],
			"devdoc": {
				"author": "Aragon Association - 2022-2023",
				"custom:security-contact": "sirt@aragon.org",
				"errors": {
					"AddressEmptyCode(address)": [
						{
							"details": "There's no code at `target` (it is not a contract)."
						}
					],
					"ContractAlreadyRegistered(address)": [
						{
							"params": {
								"registrant": "The address of the contract to be registered."
							}
						}
					],
					"ContractERC165SupportInvalid(address)": [
						{
							"params": {
								"registrant": "The address of the contract."
							}
						}
					],
					"ContractInterfaceInvalid(address)": [
						{
							"params": {
								"registrant": "The address of the contract to be registered."
							}
						}
					],
					"DaoUnauthorized(address,address,address,bytes32)": [
						{
							"params": {
								"dao": "The associated DAO.",
								"permissionId": "The permission identifier.",
								"where": "The context in which the authorization reverted.",
								"who": "The address (EOA or contract) missing the permission."
							}
						}
					],
					"ERC1967InvalidImplementation(address)": [
						{
							"details": "The `implementation` of the proxy is invalid."
						}
					],
					"ERC1967NonPayable()": [
						{
							"details": "An upgrade function sees `msg.value > 0` that may be lost."
						}
					],
					"FailedInnerCall()": [
						{
							"details": "A call to an address target failed. The target may have reverted."
						}
					],
					"InvalidInitialization()": [
						{
							"details": "The contract is already initialized."
						}
					],
					"NotInitializing()": [
						{
							"details": "The contract is not initializing."
						}
					],
					"UUPSUnauthorizedCallContext()": [
						{
							"details": "The call is from an unauthorized context."
						}
					],
					"UUPSUnsupportedProxiableUUID(bytes32)": [
						{
							"details": "The storage `slot` is unsupported as a UUID."
						}
					]
				},
				"events": {
					"DAORegistered(address,address,string)": {
						"params": {
							"creator": "The address of the creator.",
							"dao": "The address of the DAO contract.",
							"subdomain": "The DAO subdomain."
						}
					},
					"Initialized(uint64)": {
						"details": "Triggered when the contract has been initialized or reinitialized."
					},
					"Upgraded(address)": {
						"details": "Emitted when the implementation is upgraded."
					}
				},
				"kind": "dev",
				"methods": {
					"constructor": {
						"custom:oz-upgrades-unsafe-allow": "constructor",
						"details": "Used to disallow initializing the implementation contract by an attacker for extra safety."
					},
					"dao()": {
						"returns": {
							"_0": "The DAO contract."
						}
					},
					"initialize(address,address)": {
						"params": {
							"_managingDao": "the managing DAO address.",
							"_subdomainRegistrar": "The `ENSSubdomainRegistrar` where `ENS` subdomain will be registered."
						}
					},
					"protocolVersion()": {
						"details": "This version number is not to be confused with the `release` and `build` numbers found in the `Version.Tag` struct inside the `PluginRepo` contract being used to version plugin setup and associated plugin implementation contracts.",
						"returns": {
							"_0": "Returns the semantic Aragon OSx protocol version number."
						}
					},
					"proxiableUUID()": {
						"details": "Implementation of the ERC1822 {proxiableUUID} function. This returns the storage slot used by the implementation. It is used to validate the implementation's compatibility when performing an upgrade. IMPORTANT: A proxy pointing at a proxiable contract should not be considered proxiable itself, because this risks bricking a proxy that upgrades to it, by delegating to itself until out of gas. Thus it is critical that this function revert if invoked through a proxy. This is guaranteed by the `notDelegated` modifier."
					},
					"register(address,address,string)": {
						"details": "A subdomain is unique within the Aragon DAO framework and can get stored here.",
						"params": {
							"creator": "The address of the creator.",
							"dao": "The address of the DAO contract.",
							"subdomain": "The DAO subdomain."
						}
					},
					"upgradeToAndCall(address,bytes)": {
						"custom:oz-upgrades-unsafe-allow-reachable": "delegatecall",
						"details": "Upgrade the implementation of the proxy to `newImplementation`, and subsequently execute the function call encoded in `data`. Calls {_authorizeUpgrade}. Emits an {Upgraded} event."
					}
				},
				"title": "Register your unique DAO subdomain",
				"version": 1
			},
			"evm": {
				"assembly": "    /* \"packages/contracts/src/framework/dao/DAORegistry.sol\":626:3477  contract DAORegistry is InterfaceBasedRegistry, ProtocolVersion {... */\n  mstore(0x40, 0xa0)\n    /* \"@openzeppelin/contracts-upgradeable/proxy/utils/UUPSUpgradeable.sol\":1171:1175  this */\n  address\n    /* \"@openzeppelin/contracts-upgradeable/proxy/utils/UUPSUpgradeable.sol\":1128:1176  address private immutable __self = address(this) */\n  0x80\n  mstore\n    /* \"packages/contracts/src/framework/dao/DAORegistry.sol\":1602:1657  constructor() {... */\n  callvalue\n  dup1\n  iszero\n  tag_1\n  jumpi\n  0x00\n  dup1\n  revert\ntag_1:\n  pop\n    /* \"packages/contracts/src/framework/dao/DAORegistry.sol\":1627:1649  _disableInitializers() */\n  tag_4\n    /* \"packages/contracts/src/framework/dao/DAORegistry.sol\":1627:1647  _disableInitializers */\n  tag_5\n    /* \"packages/contracts/src/framework/dao/DAORegistry.sol\":1627:1649  _disableInitializers() */\n  jump\t// in\ntag_4:\n    /* \"packages/contracts/src/framework/dao/DAORegistry.sol\":626:3477  contract DAORegistry is InterfaceBasedRegistry, ProtocolVersion {... */\n  jump(tag_15)\n    /* \"@openzeppelin/contracts-upgradeable/proxy/utils/Initializable.sol\":7711:8133  function _disableInitializers() internal virtual {... */\ntag_5:\n    /* \"@openzeppelin/contracts-upgradeable/proxy/utils/Initializable.sol\":8870:8891  INITIALIZABLE_STORAGE */\n  0xf0c57e16840df040f15088dc2f81fe391c3923bec73e23a9662efc9c229c6a00\n    /* \"@openzeppelin/contracts-upgradeable/proxy/utils/Initializable.sol\":7900:7915  $._initializing */\n  dup1\n  sload\n  0x010000000000000000\n  swap1\n  div\n  0xff\n  and\n    /* \"@openzeppelin/contracts-upgradeable/proxy/utils/Initializable.sol\":7896:7972  if ($._initializing) {... */\n  iszero\n  tag_10\n  jumpi\n    /* \"@openzeppelin/contracts-upgradeable/proxy/utils/Initializable.sol\":7938:7961  InvalidInitialization() */\n  mload(0x40)\n  shl(0xe0, 0xf92ee8a9)\n  dup2\n  mstore\n  0x04\n  add\n  mload(0x40)\n  dup1\n  swap2\n  sub\n  swap1\n  revert\n    /* \"@openzeppelin/contracts-upgradeable/proxy/utils/Initializable.sol\":7896:7972  if ($._initializing) {... */\ntag_10:\n    /* \"@openzeppelin/contracts-upgradeable/proxy/utils/Initializable.sol\":7985:7999  $._initialized */\n  dup1\n  sload\n  sub(shl(0x40, 0x01), 0x01)\n  swap1\n  dup2\n  and\n    /* \"@openzeppelin/contracts-upgradeable/proxy/utils/Initializable.sol\":7985:8019  $._initialized != type(uint64).max */\n  eq\n    /* \"@openzeppelin/contracts-upgradeable/proxy/utils/Initializable.sol\":7981:8127  if ($._initialized != type(uint64).max) {... */\n  tag_11\n  jumpi\n    /* \"@openzeppelin/contracts-upgradeable/proxy/utils/Initializable.sol\":8035:8068  $._initialized = type(uint64).max */\n  dup1\n  sload\n  not(sub(shl(0x40, 0x01), 0x01))\n  and\n  sub(shl(0x40, 0x01), 0x01)\n  swap1\n  dup2\n  or\n  dup3\n  sstore\n    /* \"@openzeppelin/contracts-upgradeable/proxy/utils/Initializable.sol\":8087:8116  Initialized(type(uint64).max) */\n  mload(0x40)\n    /* \"#utility.yul\":158:208   */\n  swap1\n  dup2\n  mstore\n    /* \"@openzeppelin/contracts-upgradeable/proxy/utils/Initializable.sol\":8087:8116  Initialized(type(uint64).max) */\n  0xc7f505b2f371ae2175ee4913f4499e1f2633a7b5936321eed1cdaeb6115181d2\n  swap1\n    /* \"#utility.yul\":146:148   */\n  0x20\n    /* \"#utility.yul\":131:149   */\n  add\n    /* \"@openzeppelin/contracts-upgradeable/proxy/utils/Initializable.sol\":8087:8116  Initialized(type(uint64).max) */\n  mload(0x40)\n  dup1\n  swap2\n  sub\n  swap1\n  log1\n    /* \"@openzeppelin/contracts-upgradeable/proxy/utils/Initializable.sol\":7981:8127  if ($._initialized != type(uint64).max) {... */\ntag_11:\n    /* \"@openzeppelin/contracts-upgradeable/proxy/utils/Initializable.sol\":7760:8133  {... */\n  pop\n    /* \"@openzeppelin/contracts-upgradeable/proxy/utils/Initializable.sol\":7711:8133  function _disableInitializers() internal virtual {... */\n  jump\t// out\n    /* \"#utility.yul\":14:214   */\ntag_15:\n    /* \"packages/contracts/src/framework/dao/DAORegistry.sol\":626:3477  contract DAORegistry is InterfaceBasedRegistry, ProtocolVersion {... */\n  mload(0x80)\n  codecopy(0x00, dataOffset(sub_0), dataSize(sub_0))\n  0x00\n  assignImmutable(\"0xfd1753e5062fc84b796e3e4549282ff123bc8efd827793b2908817313a959dbe\")\n  return(0x00, dataSize(sub_0))\nstop\n\nsub_0: assembly {\n        /* \"packages/contracts/src/framework/dao/DAORegistry.sol\":626:3477  contract DAORegistry is InterfaceBasedRegistry, ProtocolVersion {... */\n      mstore(0x40, 0x80)\n      jumpi(tag_1, lt(calldatasize, 0x04))\n      shr(0xe0, calldataload(0x00))\n      dup1\n      0x52d1902d\n      gt\n      tag_14\n      jumpi\n      dup1\n      0x52d1902d\n      eq\n      tag_8\n      jumpi\n      dup1\n      0x74574eb7\n      eq\n      tag_9\n      jumpi\n      dup1\n      0xa2298b4b\n      eq\n      tag_10\n      jumpi\n      dup1\n      0xad3cb1cc\n      eq\n      tag_11\n      jumpi\n      dup1\n      0xede49739\n      eq\n      tag_12\n      jumpi\n      dup1\n      0xf29ee125\n      eq\n      tag_13\n      jumpi\n      0x00\n      dup1\n      revert\n    tag_14:\n      dup1\n      0x077393\n      eq\n      tag_2\n      jumpi\n      dup1\n      0x2ae9c600\n      eq\n      tag_3\n      jumpi\n      dup1\n      0x4162169f\n      eq\n      tag_4\n      jumpi\n      dup1\n      0x44162ef8\n      eq\n      tag_5\n      jumpi\n      dup1\n      0x485cc955\n      eq\n      tag_6\n      jumpi\n      dup1\n      0x4f1ef286\n      eq\n      tag_7\n      jumpi\n    tag_1:\n      0x00\n      dup1\n      revert\n        /* \"packages/contracts/src/framework/dao/DAORegistry.sol\":956:1003  ENSSubdomainRegistrar public subdomainRegistrar */\n    tag_2:\n      callvalue\n      dup1\n      iszero\n      tag_15\n      jumpi\n      0x00\n      dup1\n      revert\n    tag_15:\n      pop\n      sload(0x64)\n      tag_16\n      swap1\n      sub(shl(0xa0, 0x01), 0x01)\n      and\n      dup2\n      jump\n    tag_16:\n      mload(0x40)\n      sub(shl(0xa0, 0x01), 0x01)\n        /* \"#utility.yul\":208:240   */\n      swap1\n      swap2\n      and\n        /* \"#utility.yul\":190:241   */\n      dup2\n      mstore\n        /* \"#utility.yul\":178:180   */\n      0x20\n        /* \"#utility.yul\":163:181   */\n      add\n        /* \"packages/contracts/src/framework/dao/DAORegistry.sol\":956:1003  ENSSubdomainRegistrar public subdomainRegistrar */\n    tag_18:\n      mload(0x40)\n      dup1\n      swap2\n      sub\n      swap1\n      return\n        /* \"packages/contracts/src/utils/protocol/ProtocolVersion.sol\":656:756  function protocolVersion() public pure returns (uint8[3] memory) {... */\n    tag_3:\n      callvalue\n      dup1\n      iszero\n      tag_20\n      jumpi\n      0x00\n      dup1\n      revert\n    tag_20:\n      pop\n      tag_21\n      tag_22\n      jump\t// in\n    tag_21:\n      mload(0x40)\n      tag_18\n      swap2\n      swap1\n      tag_24\n      jump\t// in\n        /* \"packages/contracts/src/core/plugin/dao-authorizable/DaoAuthorizableUpgradeable.sol\":1193:1265  function dao() public view returns (IDAO) {... */\n    tag_4:\n      callvalue\n      dup1\n      iszero\n      tag_25\n      jumpi\n      0x00\n      dup1\n      revert\n    tag_25:\n      pop\n        /* \"packages/contracts/src/core/plugin/dao-authorizable/DaoAuthorizableUpgradeable.sol\":1229:1233  IDAO */\n      0x00\n        /* \"packages/contracts/src/core/plugin/dao-authorizable/DaoAuthorizableUpgradeable.sol\":1253:1257  dao_ */\n      sload\n      sub(shl(0xa0, 0x01), 0x01)\n      and\n        /* \"packages/contracts/src/core/plugin/dao-authorizable/DaoAuthorizableUpgradeable.sol\":1193:1265  function dao() public view returns (IDAO) {... */\n      jump(tag_16)\n        /* \"packages/contracts/src/framework/utils/InterfaceBasedRegistry.sol\":1184:1215  bytes4 public targetInterfaceId */\n    tag_5:\n      callvalue\n      dup1\n      iszero\n      tag_30\n      jumpi\n      0x00\n      dup1\n      revert\n    tag_30:\n      pop\n      sload(0x32)\n      tag_31\n      swap1\n      0xe0\n      shl\n      dup2\n      jump\n    tag_31:\n      mload(0x40)\n      not(sub(shl(0xe0, 0x01), 0x01))\n        /* \"#utility.yul\":1141:1174   */\n      swap1\n      swap2\n      and\n        /* \"#utility.yul\":1123:1175   */\n      dup2\n      mstore\n        /* \"#utility.yul\":1111:1113   */\n      0x20\n        /* \"#utility.yul\":1096:1114   */\n      add\n        /* \"packages/contracts/src/framework/utils/InterfaceBasedRegistry.sol\":1184:1215  bytes4 public targetInterfaceId */\n      tag_18\n        /* \"#utility.yul\":979:1181   */\n      jump\n        /* \"packages/contracts/src/framework/dao/DAORegistry.sol\":1869:2134  function initialize(... */\n    tag_6:\n      callvalue\n      dup1\n      iszero\n      tag_35\n      jumpi\n      0x00\n      dup1\n      revert\n    tag_35:\n      pop\n      tag_36\n      tag_37\n      calldatasize\n      0x04\n      tag_38\n      jump\t// in\n    tag_37:\n      tag_39\n      jump\t// in\n    tag_36:\n      stop\n        /* \"@openzeppelin/contracts-upgradeable/proxy/utils/UUPSUpgradeable.sol\":4158:4372  function upgradeToAndCall(address newImplementation, bytes memory data) public payable virtual onlyProxy {... */\n    tag_7:\n      tag_36\n      tag_41\n      calldatasize\n      0x04\n      tag_42\n      jump\t// in\n    tag_41:\n      tag_43\n      jump\t// in\n        /* \"@openzeppelin/contracts-upgradeable/proxy/utils/UUPSUpgradeable.sol\":3705:3839  function proxiableUUID() external view virtual notDelegated returns (bytes32) {... */\n    tag_8:\n      callvalue\n      dup1\n      iszero\n      tag_44\n      jumpi\n      0x00\n      dup1\n      revert\n    tag_44:\n      pop\n      tag_45\n      tag_46\n      jump\t// in\n    tag_45:\n      mload(0x40)\n        /* \"#utility.yul\":3121:3146   */\n      swap1\n      dup2\n      mstore\n        /* \"#utility.yul\":3109:3111   */\n      0x20\n        /* \"#utility.yul\":3094:3112   */\n      add\n        /* \"@openzeppelin/contracts-upgradeable/proxy/utils/UUPSUpgradeable.sol\":3705:3839  function proxiableUUID() external view virtual notDelegated returns (bytes32) {... */\n      tag_18\n        /* \"#utility.yul\":2975:3152   */\n      jump\n        /* \"packages/contracts/src/framework/utils/InterfaceBasedRegistry.sol\":928:1034  bytes32 public constant UPGRADE_REGISTRY_PERMISSION_ID =... */\n    tag_9:\n      callvalue\n      dup1\n      iszero\n      tag_49\n      jumpi\n      0x00\n      dup1\n      revert\n    tag_49:\n      pop\n      tag_45\n        /* \"packages/contracts/src/framework/utils/InterfaceBasedRegistry.sol\":994:1034  keccak256(\"UPGRADE_REGISTRY_PERMISSION\") */\n      0x60b96ff9fb5f29153c29c1747515b8be4ee523d686cc6f453ec294b0afa72932\n        /* \"packages/contracts/src/framework/utils/InterfaceBasedRegistry.sol\":928:1034  bytes32 public constant UPGRADE_REGISTRY_PERMISSION_ID =... */\n      dup2\n      jump\n        /* \"packages/contracts/src/framework/dao/DAORegistry.sol\":781:870  bytes32 public constant REGISTER_DAO_PERMISSION_ID = keccak256(\"REGISTER_DAO_PERMISSION\") */\n    tag_10:\n      callvalue\n      dup1\n      iszero\n      tag_53\n      jumpi\n      0x00\n      dup1\n      revert\n    tag_53:\n      pop\n      tag_45\n        /* \"packages/contracts/src/framework/dao/DAORegistry.sol\":834:870  keccak256(\"REGISTER_DAO_PERMISSION\") */\n      0xde5e253d6956bc5fb69cfa564733633f4e53b143e42859306cd13cdc54856215\n        /* \"packages/contracts/src/framework/dao/DAORegistry.sol\":781:870  bytes32 public constant REGISTER_DAO_PERMISSION_ID = keccak256(\"REGISTER_DAO_PERMISSION\") */\n      dup2\n      jump\n        /* \"@openzeppelin/contracts-upgradeable/proxy/utils/UUPSUpgradeable.sol\":1819:1877  string public constant UPGRADE_INTERFACE_VERSION = \"5.0.0\" */\n    tag_11:\n      callvalue\n      dup1\n      iszero\n      tag_57\n      jumpi\n      0x00\n      dup1\n      revert\n    tag_57:\n      pop\n      tag_58\n      mload(0x40)\n      dup1\n      0x40\n      add\n      0x40\n      mstore\n      dup1\n      0x05\n      dup2\n      mstore\n      0x20\n      add\n      shl(0xdc, 0x0352e302e3)\n      dup2\n      mstore\n      pop\n      dup2\n      jump\n    tag_58:\n      mload(0x40)\n      tag_18\n      swap2\n      swap1\n      tag_61\n      jump\t// in\n        /* \"packages/contracts/src/framework/dao/DAORegistry.sol\":2546:3161  function register(... */\n    tag_12:\n      callvalue\n      dup1\n      iszero\n      tag_62\n      jumpi\n      0x00\n      dup1\n      revert\n    tag_62:\n      pop\n      tag_36\n      tag_64\n      calldatasize\n      0x04\n      tag_65\n      jump\t// in\n    tag_64:\n      tag_66\n      jump\t// in\n        /* \"packages/contracts/src/framework/utils/InterfaceBasedRegistry.sol\":1335:1374  mapping(address => bool) public entries */\n    tag_13:\n      callvalue\n      dup1\n      iszero\n      tag_67\n      jumpi\n      0x00\n      dup1\n      revert\n    tag_67:\n      pop\n      tag_68\n      tag_69\n      calldatasize\n      0x04\n      tag_70\n      jump\t// in\n    tag_69:\n      mstore(0x20, 0x33)\n      0x00\n      swap1\n      dup2\n      mstore\n      0x40\n      swap1\n      keccak256\n      sload\n      0xff\n      and\n      dup2\n      jump\n    tag_68:\n      mload(0x40)\n        /* \"#utility.yul\":5134:5148   */\n      swap1\n      iszero\n        /* \"#utility.yul\":5127:5149   */\n      iszero\n        /* \"#utility.yul\":5109:5150   */\n      dup2\n      mstore\n        /* \"#utility.yul\":5097:5099   */\n      0x20\n        /* \"#utility.yul\":5082:5100   */\n      add\n        /* \"packages/contracts/src/framework/utils/InterfaceBasedRegistry.sol\":1335:1374  mapping(address => bool) public entries */\n      tag_18\n        /* \"#utility.yul\":4969:5156   */\n      jump\n        /* \"packages/contracts/src/utils/protocol/ProtocolVersion.sol\":656:756  function protocolVersion() public pure returns (uint8[3] memory) {... */\n    tag_22:\n        /* \"packages/contracts/src/utils/protocol/ProtocolVersion.sol\":704:719  uint8[3] memory */\n      tag_74\n      tag_75\n      jump\t// in\n    tag_74:\n      pop\n        /* \"packages/contracts/src/utils/protocol/ProtocolVersion.sol\":732:748  return [1, 4, 0] */\n      0x40\n      dup1\n      mload\n      0x60\n      dup2\n      add\n      dup3\n      mstore\n        /* \"packages/contracts/src/utils/protocol/ProtocolVersion.sol\":740:741  1 */\n      0x01\n        /* \"packages/contracts/src/utils/protocol/ProtocolVersion.sol\":732:748  return [1, 4, 0] */\n      dup2\n      mstore\n        /* \"packages/contracts/src/utils/protocol/ProtocolVersion.sol\":743:744  4 */\n      0x04\n        /* \"packages/contracts/src/utils/protocol/ProtocolVersion.sol\":732:748  return [1, 4, 0] */\n      0x20\n      dup3\n      add\n      mstore\n      0x00\n      swap2\n      dup2\n      add\n      swap2\n      swap1\n      swap2\n      mstore\n      swap1\n        /* \"packages/contracts/src/utils/protocol/ProtocolVersion.sol\":656:756  function protocolVersion() public pure returns (uint8[3] memory) {... */\n      jump\t// out\n        /* \"packages/contracts/src/framework/dao/DAORegistry.sol\":1869:2134  function initialize(... */\n    tag_39:\n        /* \"@openzeppelin/contracts-upgradeable/proxy/utils/Initializable.sol\":8870:8891  INITIALIZABLE_STORAGE */\n      0xf0c57e16840df040f15088dc2f81fe391c3923bec73e23a9662efc9c229c6a00\n        /* \"@openzeppelin/contracts-upgradeable/proxy/utils/Initializable.sol\":4302:4317  $._initializing */\n      dup1\n      sload\n      shl(0x40, 0x01)\n      dup2\n      div\n      0xff\n      and\n        /* \"@openzeppelin/contracts-upgradeable/proxy/utils/Initializable.sol\":4301:4317  !$._initializing */\n      iszero\n      swap1\n        /* \"@openzeppelin/contracts-upgradeable/proxy/utils/Initializable.sol\":4348:4362  $._initialized */\n      0xffffffffffffffff\n      and\n        /* \"@openzeppelin/contracts-upgradeable/proxy/utils/Initializable.sol\":4158:4188  InitializableStorage storage $ */\n      0x00\n        /* \"@openzeppelin/contracts-upgradeable/proxy/utils/Initializable.sol\":4726:4742  initialized == 0 */\n      dup2\n      iszero\n        /* \"@openzeppelin/contracts-upgradeable/proxy/utils/Initializable.sol\":4726:4760  initialized == 0 && isTopLevelCall */\n      dup1\n      iszero\n      tag_81\n      jumpi\n      pop\n        /* \"@openzeppelin/contracts-upgradeable/proxy/utils/Initializable.sol\":4746:4760  isTopLevelCall */\n      dup3\n        /* \"@openzeppelin/contracts-upgradeable/proxy/utils/Initializable.sol\":4726:4760  initialized == 0 && isTopLevelCall */\n    tag_81:\n        /* \"@openzeppelin/contracts-upgradeable/proxy/utils/Initializable.sol\":4706:4760  bool initialSetup = initialized == 0 && isTopLevelCall */\n      swap1\n      pop\n        /* \"@openzeppelin/contracts-upgradeable/proxy/utils/Initializable.sol\":4770:4787  bool construction */\n      0x00\n        /* \"@openzeppelin/contracts-upgradeable/proxy/utils/Initializable.sol\":4790:4801  initialized */\n      dup3\n        /* \"@openzeppelin/contracts-upgradeable/proxy/utils/Initializable.sol\":4790:4806  initialized == 1 */\n      0xffffffffffffffff\n      and\n        /* \"@openzeppelin/contracts-upgradeable/proxy/utils/Initializable.sol\":4805:4806  1 */\n      0x01\n        /* \"@openzeppelin/contracts-upgradeable/proxy/utils/Initializable.sol\":4790:4806  initialized == 1 */\n      eq\n        /* \"@openzeppelin/contracts-upgradeable/proxy/utils/Initializable.sol\":4790:4840  initialized == 1 && address(this).code.length == 0 */\n      dup1\n      iszero\n      tag_82\n      jumpi\n      pop\n        /* \"@openzeppelin/contracts-upgradeable/proxy/utils/Initializable.sol\":4818:4822  this */\n      address\n        /* \"@openzeppelin/contracts-upgradeable/proxy/utils/Initializable.sol\":4810:4835  address(this).code.length */\n      extcodesize\n        /* \"@openzeppelin/contracts-upgradeable/proxy/utils/Initializable.sol\":4810:4840  address(this).code.length == 0 */\n      iszero\n        /* \"@openzeppelin/contracts-upgradeable/proxy/utils/Initializable.sol\":4790:4840  initialized == 1 && address(this).code.length == 0 */\n    tag_82:\n        /* \"@openzeppelin/contracts-upgradeable/proxy/utils/Initializable.sol\":4770:4840  bool construction = initialized == 1 && address(this).code.length == 0 */\n      swap1\n      pop\n        /* \"@openzeppelin/contracts-upgradeable/proxy/utils/Initializable.sol\":4856:4868  initialSetup */\n      dup2\n        /* \"@openzeppelin/contracts-upgradeable/proxy/utils/Initializable.sol\":4855:4868  !initialSetup */\n      iszero\n        /* \"@openzeppelin/contracts-upgradeable/proxy/utils/Initializable.sol\":4855:4885  !initialSetup && !construction */\n      dup1\n      iszero\n      tag_83\n      jumpi\n      pop\n        /* \"@openzeppelin/contracts-upgradeable/proxy/utils/Initializable.sol\":4873:4885  construction */\n      dup1\n        /* \"@openzeppelin/contracts-upgradeable/proxy/utils/Initializable.sol\":4872:4885  !construction */\n      iszero\n        /* \"@openzeppelin/contracts-upgradeable/proxy/utils/Initializable.sol\":4855:4885  !initialSetup && !construction */\n    tag_83:\n        /* \"@openzeppelin/contracts-upgradeable/proxy/utils/Initializable.sol\":4851:4942  if (!initialSetup && !construction) {... */\n      iszero\n      tag_84\n      jumpi\n        /* \"@openzeppelin/contracts-upgradeable/proxy/utils/Initializable.sol\":4908:4931  InvalidInitialization() */\n      mload(0x40)\n      shl(0xe0, 0xf92ee8a9)\n      dup2\n      mstore\n      0x04\n      add\n      mload(0x40)\n      dup1\n      swap2\n      sub\n      swap1\n      revert\n        /* \"@openzeppelin/contracts-upgradeable/proxy/utils/Initializable.sol\":4851:4942  if (!initialSetup && !construction) {... */\n    tag_84:\n        /* \"@openzeppelin/contracts-upgradeable/proxy/utils/Initializable.sol\":4951:4969  $._initialized = 1 */\n      dup5\n      sload\n      not(0xffffffffffffffff)\n      and\n        /* \"@openzeppelin/contracts-upgradeable/proxy/utils/Initializable.sol\":4968:4969  1 */\n      0x01\n        /* \"@openzeppelin/contracts-upgradeable/proxy/utils/Initializable.sol\":4951:4969  $._initialized = 1 */\n      or\n      dup6\n      sstore\n        /* \"@openzeppelin/contracts-upgradeable/proxy/utils/Initializable.sol\":4979:5046  if (isTopLevelCall) {... */\n      dup4\n      iszero\n      tag_85\n      jumpi\n        /* \"@openzeppelin/contracts-upgradeable/proxy/utils/Initializable.sol\":5013:5035  $._initializing = true */\n      dup5\n      sload\n      not(shl(0x40, 0xff))\n      and\n      shl(0x40, 0x01)\n      or\n      dup6\n      sstore\n        /* \"@openzeppelin/contracts-upgradeable/proxy/utils/Initializable.sol\":4979:5046  if (isTopLevelCall) {... */\n    tag_85:\n        /* \"packages/contracts/src/framework/dao/DAORegistry.sol\":2008:2075  __InterfaceBasedRegistry_init(_managingDao, type(IDAO).interfaceId) */\n      tag_87\n        /* \"packages/contracts/src/framework/dao/DAORegistry.sol\":2038:2050  _managingDao */\n      dup8\n      shl(0xe1, 0x49c2aa3f)\n        /* \"packages/contracts/src/framework/dao/DAORegistry.sol\":2008:2037  __InterfaceBasedRegistry_init */\n      tag_88\n        /* \"packages/contracts/src/framework/dao/DAORegistry.sol\":2008:2075  __InterfaceBasedRegistry_init(_managingDao, type(IDAO).interfaceId) */\n      jump\t// in\n    tag_87:\n        /* \"packages/contracts/src/framework/dao/DAORegistry.sol\":2086:2104  subdomainRegistrar */\n      0x64\n        /* \"packages/contracts/src/framework/dao/DAORegistry.sol\":2086:2126  subdomainRegistrar = _subdomainRegistrar */\n      dup1\n      sload\n      not(sub(shl(0xa0, 0x01), 0x01))\n      and\n      sub(shl(0xa0, 0x01), 0x01)\n      dup9\n      and\n      or\n      swap1\n      sstore\n        /* \"@openzeppelin/contracts-upgradeable/proxy/utils/Initializable.sol\":5066:5167  if (isTopLevelCall) {... */\n      dup4\n      iszero\n      tag_89\n      jumpi\n        /* \"@openzeppelin/contracts-upgradeable/proxy/utils/Initializable.sol\":5100:5123  $._initializing = false */\n      dup5\n      sload\n      not(shl(0x40, 0xff))\n      and\n      dup6\n      sstore\n        /* \"@openzeppelin/contracts-upgradeable/proxy/utils/Initializable.sol\":5142:5156  Initialized(1) */\n      mload(0x40)\n      0x01\n        /* \"#utility.yul\":5314:5364   */\n      dup2\n      mstore\n        /* \"@openzeppelin/contracts-upgradeable/proxy/utils/Initializable.sol\":5142:5156  Initialized(1) */\n      0xc7f505b2f371ae2175ee4913f4499e1f2633a7b5936321eed1cdaeb6115181d2\n      swap1\n        /* \"#utility.yul\":5302:5304   */\n      0x20\n        /* \"#utility.yul\":5287:5305   */\n      add\n        /* \"@openzeppelin/contracts-upgradeable/proxy/utils/Initializable.sol\":5142:5156  Initialized(1) */\n      mload(0x40)\n      dup1\n      swap2\n      sub\n      swap1\n      log1\n        /* \"@openzeppelin/contracts-upgradeable/proxy/utils/Initializable.sol\":5066:5167  if (isTopLevelCall) {... */\n    tag_89:\n        /* \"@openzeppelin/contracts-upgradeable/proxy/utils/Initializable.sol\":4092:5173  {... */\n      pop\n      pop\n      pop\n      pop\n      pop\n        /* \"packages/contracts/src/framework/dao/DAORegistry.sol\":1869:2134  function initialize(... */\n      pop\n      pop\n      jump\t// out\n        /* \"@openzeppelin/contracts-upgradeable/proxy/utils/UUPSUpgradeable.sol\":4158:4372  function upgradeToAndCall(address newImplementation, bytes memory data) public payable virtual onlyProxy {... */\n    tag_43:\n        /* \"@openzeppelin/contracts-upgradeable/proxy/utils/UUPSUpgradeable.sol\":2653:2666  _checkProxy() */\n      tag_93\n        /* \"@openzeppelin/contracts-upgradeable/proxy/utils/UUPSUpgradeable.sol\":2653:2664  _checkProxy */\n      tag_94\n        /* \"@openzeppelin/contracts-upgradeable/proxy/utils/UUPSUpgradeable.sol\":2653:2666  _checkProxy() */\n      jump\t// in\n    tag_93:\n        /* \"@openzeppelin/contracts-upgradeable/proxy/utils/UUPSUpgradeable.sol\":4273:4309  _authorizeUpgrade(newImplementation) */\n      tag_96\n        /* \"@openzeppelin/contracts-upgradeable/proxy/utils/UUPSUpgradeable.sol\":4291:4308  newImplementation */\n      dup3\n        /* \"@openzeppelin/contracts-upgradeable/proxy/utils/UUPSUpgradeable.sol\":4273:4290  _authorizeUpgrade */\n      tag_97\n        /* \"@openzeppelin/contracts-upgradeable/proxy/utils/UUPSUpgradeable.sol\":4273:4309  _authorizeUpgrade(newImplementation) */\n      jump\t// in\n    tag_96:\n        /* \"@openzeppelin/contracts-upgradeable/proxy/utils/UUPSUpgradeable.sol\":4319:4365  _upgradeToAndCallUUPS(newImplementation, data) */\n      tag_98\n        /* \"@openzeppelin/contracts-upgradeable/proxy/utils/UUPSUpgradeable.sol\":4341:4358  newImplementation */\n      dup3\n        /* \"@openzeppelin/contracts-upgradeable/proxy/utils/UUPSUpgradeable.sol\":4360:4364  data */\n      dup3\n        /* \"@openzeppelin/contracts-upgradeable/proxy/utils/UUPSUpgradeable.sol\":4319:4340  _upgradeToAndCallUUPS */\n      tag_99\n        /* \"@openzeppelin/contracts-upgradeable/proxy/utils/UUPSUpgradeable.sol\":4319:4365  _upgradeToAndCallUUPS(newImplementation, data) */\n      jump\t// in\n    tag_98:\n        /* \"@openzeppelin/contracts-upgradeable/proxy/utils/UUPSUpgradeable.sol\":4158:4372  function upgradeToAndCall(address newImplementation, bytes memory data) public payable virtual onlyProxy {... */\n      pop\n      pop\n      jump\t// out\n        /* \"@openzeppelin/contracts-upgradeable/proxy/utils/UUPSUpgradeable.sol\":3705:3839  function proxiableUUID() external view virtual notDelegated returns (bytes32) {... */\n    tag_46:\n        /* \"@openzeppelin/contracts-upgradeable/proxy/utils/UUPSUpgradeable.sol\":3774:3781  bytes32 */\n      0x00\n        /* \"@openzeppelin/contracts-upgradeable/proxy/utils/UUPSUpgradeable.sol\":2924:2944  _checkNotDelegated() */\n      tag_101\n        /* \"@openzeppelin/contracts-upgradeable/proxy/utils/UUPSUpgradeable.sol\":2924:2942  _checkNotDelegated */\n      tag_102\n        /* \"@openzeppelin/contracts-upgradeable/proxy/utils/UUPSUpgradeable.sol\":2924:2944  _checkNotDelegated() */\n      jump\t// in\n    tag_101:\n      pop\n      0x00\n      dup1\n      mload\n      0x20\n      data_75b20eef8615de99c108b05f0dbda081c91897128caa336d75dffb97c4132b4d\n      dup4\n      codecopy\n      dup2\n      mload\n      swap2\n      mstore\n        /* \"@openzeppelin/contracts-upgradeable/proxy/utils/UUPSUpgradeable.sol\":3705:3839  function proxiableUUID() external view virtual notDelegated returns (bytes32) {... */\n      swap1\n      jump\t// out\n        /* \"packages/contracts/src/framework/dao/DAORegistry.sol\":2546:3161  function register(... */\n    tag_66:\n        /* \"packages/contracts/src/core/plugin/dao-authorizable/DaoAuthorizableUpgradeable.sol\":1616:1620  dao_ */\n      sload(0x00)\n        /* \"packages/contracts/src/framework/dao/DAORegistry.sol\":834:870  keccak256(\"REGISTER_DAO_PERMISSION\") */\n      0xde5e253d6956bc5fb69cfa564733633f4e53b143e42859306cd13cdc54856215\n      swap1\n        /* \"packages/contracts/src/core/plugin/dao-authorizable/DaoAuthorizableUpgradeable.sol\":1610:1677  _auth(dao_, address(this), _msgSender(), _permissionId, _msgData()) */\n      tag_105\n      swap1\n      sub(shl(0xa0, 0x01), 0x01)\n        /* \"packages/contracts/src/core/plugin/dao-authorizable/DaoAuthorizableUpgradeable.sol\":1616:1620  dao_ */\n      and\n        /* \"packages/contracts/src/core/plugin/dao-authorizable/DaoAuthorizableUpgradeable.sol\":1630:1634  this */\n      address\n        /* \"@openzeppelin/contracts-upgradeable/utils/ContextUpgradeable.sol\":966:976  msg.sender */\n      caller\n        /* \"packages/contracts/src/core/plugin/dao-authorizable/DaoAuthorizableUpgradeable.sol\":1637:1649  _msgSender() */\n    tag_106:\n        /* \"packages/contracts/src/core/plugin/dao-authorizable/DaoAuthorizableUpgradeable.sol\":1651:1664  _permissionId */\n      dup5\n        /* \"@openzeppelin/contracts-upgradeable/utils/ContextUpgradeable.sol\":1040:1054  bytes calldata */\n      0x00\n      calldatasize\n        /* \"packages/contracts/src/core/plugin/dao-authorizable/DaoAuthorizableUpgradeable.sol\":1610:1615  _auth */\n      tag_110\n        /* \"packages/contracts/src/core/plugin/dao-authorizable/DaoAuthorizableUpgradeable.sol\":1610:1677  _auth(dao_, address(this), _msgSender(), _permissionId, _msgData()) */\n      jump\t// in\n    tag_105:\n        /* \"packages/contracts/src/framework/dao/DAORegistry.sol\":2731:2734  dao */\n      dup5\n        /* \"packages/contracts/src/framework/dao/DAORegistry.sol\":2748:2766  _register(daoAddr) */\n      tag_112\n        /* \"packages/contracts/src/framework/dao/DAORegistry.sol\":2731:2734  dao */\n      dup2\n        /* \"packages/contracts/src/framework/dao/DAORegistry.sol\":2748:2757  _register */\n      tag_113\n        /* \"packages/contracts/src/framework/dao/DAORegistry.sol\":2748:2766  _register(daoAddr) */\n      jump\t// in\n    tag_112:\n        /* \"packages/contracts/src/framework/dao/DAORegistry.sol\":2784:2811  bytes(subdomain).length > 0 */\n      dup3\n      iszero\n        /* \"packages/contracts/src/framework/dao/DAORegistry.sol\":2779:3094  if ((bytes(subdomain).length > 0)) {... */\n      tag_114\n      jumpi\n        /* \"packages/contracts/src/framework/dao/DAORegistry.sol\":2834:2861  isSubdomainValid(subdomain) */\n      tag_115\n        /* \"packages/contracts/src/framework/dao/DAORegistry.sol\":2851:2860  subdomain */\n      dup5\n      dup5\n        /* \"packages/contracts/src/framework/dao/DAORegistry.sol\":2834:2850  isSubdomainValid */\n      tag_116\n        /* \"packages/contracts/src/framework/dao/DAORegistry.sol\":2834:2861  isSubdomainValid(subdomain) */\n      jump\t// in\n    tag_115:\n        /* \"packages/contracts/src/framework/dao/DAORegistry.sol\":2829:2948  if (!isSubdomainValid(subdomain)) {... */\n      tag_117\n      jumpi\n        /* \"packages/contracts/src/framework/dao/DAORegistry.sol\":2921:2930  subdomain */\n      dup4\n      dup4\n        /* \"packages/contracts/src/framework/dao/DAORegistry.sol\":2889:2932  InvalidDaoSubdomain({subdomain: subdomain}) */\n      mload(0x40)\n      shl(0xe0, 0x3a5bf49b)\n      dup2\n      mstore\n      0x04\n      add\n      tag_118\n      swap3\n      swap2\n      swap1\n      tag_119\n      jump\t// in\n    tag_118:\n      mload(0x40)\n      dup1\n      swap2\n      sub\n      swap1\n      revert\n        /* \"packages/contracts/src/framework/dao/DAORegistry.sol\":2829:2948  if (!isSubdomainValid(subdomain)) {... */\n    tag_117:\n        /* \"packages/contracts/src/framework/dao/DAORegistry.sol\":2964:2981  bytes32 labelhash */\n      0x00\n        /* \"packages/contracts/src/framework/dao/DAORegistry.sol\":3000:3009  subdomain */\n      dup5\n      dup5\n        /* \"packages/contracts/src/framework/dao/DAORegistry.sol\":2984:3011  keccak256(bytes(subdomain)) */\n      mload(0x40)\n      tag_120\n      swap3\n      swap2\n      swap1\n      tag_121\n      jump\t// in\n    tag_120:\n      mload(0x40)\n      swap1\n      dup2\n      swap1\n      sub\n      dup2\n      keccak256\n        /* \"packages/contracts/src/framework/dao/DAORegistry.sol\":3028:3046  subdomainRegistrar */\n      sload(0x64)\n      shl(0xe0, 0x89bb4145)\n        /* \"packages/contracts/src/framework/dao/DAORegistry.sol\":3028:3082  subdomainRegistrar.registerSubnode(labelhash, daoAddr) */\n      dup4\n      mstore\n      0x04\n      dup4\n      add\n        /* \"#utility.yul\":6349:6374   */\n      dup3\n      swap1\n      mstore\n      sub(shl(0xa0, 0x01), 0x01)\n        /* \"#utility.yul\":6410:6442   */\n      dup6\n      dup2\n      and\n        /* \"#utility.yul\":6390:6408   */\n      0x24\n      dup6\n      add\n        /* \"#utility.yul\":6383:6443   */\n      mstore\n        /* \"packages/contracts/src/framework/dao/DAORegistry.sol\":2984:3011  keccak256(bytes(subdomain)) */\n      swap2\n      swap4\n      pop\n        /* \"packages/contracts/src/framework/dao/DAORegistry.sol\":3028:3046  subdomainRegistrar */\n      and\n      swap1\n        /* \"packages/contracts/src/framework/dao/DAORegistry.sol\":3028:3062  subdomainRegistrar.registerSubnode */\n      0x89bb4145\n      swap1\n        /* \"#utility.yul\":6322:6340   */\n      0x44\n      add\n        /* \"packages/contracts/src/framework/dao/DAORegistry.sol\":3028:3082  subdomainRegistrar.registerSubnode(labelhash, daoAddr) */\n      0x00\n      mload(0x40)\n      dup1\n      dup4\n      sub\n      dup2\n      0x00\n      dup8\n      dup1\n      extcodesize\n      iszero\n      dup1\n      iszero\n      tag_124\n      jumpi\n      0x00\n      dup1\n      revert\n    tag_124:\n      pop\n      gas\n      call\n      iszero\n      dup1\n      iszero\n      tag_126\n      jumpi\n      returndatasize\n      0x00\n      dup1\n      returndatacopy\n      revert(0x00, returndatasize)\n    tag_126:\n      pop\n      pop\n      pop\n      pop\n        /* \"packages/contracts/src/framework/dao/DAORegistry.sol\":2814:3094  {... */\n      pop\n        /* \"packages/contracts/src/framework/dao/DAORegistry.sol\":2779:3094  if ((bytes(subdomain).length > 0)) {... */\n    tag_114:\n        /* \"packages/contracts/src/framework/dao/DAORegistry.sol\":3134:3141  creator */\n      dup5\n      sub(shl(0xa0, 0x01), 0x01)\n        /* \"packages/contracts/src/framework/dao/DAORegistry.sol\":3111:3153  DAORegistered(daoAddr, creator, subdomain) */\n      and\n        /* \"packages/contracts/src/framework/dao/DAORegistry.sol\":3125:3132  daoAddr */\n      dup2\n      sub(shl(0xa0, 0x01), 0x01)\n        /* \"packages/contracts/src/framework/dao/DAORegistry.sol\":3111:3153  DAORegistered(daoAddr, creator, subdomain) */\n      and\n      0xbc0b11fe649bb4d67c7fb40936163e5423f45c3ae83fbd8f8f8c75e1a3fa97af\n        /* \"packages/contracts/src/framework/dao/DAORegistry.sol\":3143:3152  subdomain */\n      dup7\n      dup7\n        /* \"packages/contracts/src/framework/dao/DAORegistry.sol\":3111:3153  DAORegistered(daoAddr, creator, subdomain) */\n      mload(0x40)\n      tag_127\n      swap3\n      swap2\n      swap1\n      tag_119\n      jump\t// in\n    tag_127:\n      mload(0x40)\n      dup1\n      swap2\n      sub\n      swap1\n      log3\n        /* \"packages/contracts/src/framework/dao/DAORegistry.sol\":2694:3161  {... */\n      pop\n        /* \"packages/contracts/src/framework/dao/DAORegistry.sol\":2546:3161  function register(... */\n      pop\n      pop\n      pop\n      pop\n      pop\n      jump\t// out\n        /* \"packages/contracts/src/framework/utils/InterfaceBasedRegistry.sol\":2315:2576  function __InterfaceBasedRegistry_init(... */\n    tag_88:\n        /* \"@openzeppelin/contracts-upgradeable/proxy/utils/Initializable.sol\":6931:6951  _checkInitializing() */\n      tag_130\n        /* \"@openzeppelin/contracts-upgradeable/proxy/utils/Initializable.sol\":6931:6949  _checkInitializing */\n      tag_131\n        /* \"@openzeppelin/contracts-upgradeable/proxy/utils/Initializable.sol\":6931:6951  _checkInitializing() */\n      jump\t// in\n    tag_130:\n        /* \"packages/contracts/src/framework/utils/InterfaceBasedRegistry.sol\":2470:2517  __DaoAuthorizableUpgradeable_init(_managingDao) */\n      tag_133\n        /* \"packages/contracts/src/framework/utils/InterfaceBasedRegistry.sol\":2504:2516  _managingDao */\n      dup3\n        /* \"packages/contracts/src/framework/utils/InterfaceBasedRegistry.sol\":2470:2503  __DaoAuthorizableUpgradeable_init */\n      tag_134\n        /* \"packages/contracts/src/framework/utils/InterfaceBasedRegistry.sol\":2470:2517  __DaoAuthorizableUpgradeable_init(_managingDao) */\n      jump\t// in\n    tag_133:\n        /* \"packages/contracts/src/framework/utils/InterfaceBasedRegistry.sol\":2530:2547  targetInterfaceId */\n      0x32\n        /* \"packages/contracts/src/framework/utils/InterfaceBasedRegistry.sol\":2530:2568  targetInterfaceId = _targetInterfaceId */\n      dup1\n      sload\n      not(0xffffffff)\n      and\n      0xe0\n      swap3\n      swap1\n      swap3\n      shr\n      swap2\n      swap1\n      swap2\n      or\n      swap1\n      sstore\n      pop\n        /* \"packages/contracts/src/framework/utils/InterfaceBasedRegistry.sol\":2315:2576  function __InterfaceBasedRegistry_init(... */\n      jump\t// out\n        /* \"@openzeppelin/contracts-upgradeable/proxy/utils/UUPSUpgradeable.sol\":4599:4911  function _checkProxy() internal view virtual {... */\n    tag_94:\n        /* \"@openzeppelin/contracts-upgradeable/proxy/utils/UUPSUpgradeable.sol\":4679:4683  this */\n      address\n      sub(shl(0xa0, 0x01), 0x01)\n        /* \"@openzeppelin/contracts-upgradeable/proxy/utils/UUPSUpgradeable.sol\":4688:4694  __self */\n      immutable(\"0xfd1753e5062fc84b796e3e4549282ff123bc8efd827793b2908817313a959dbe\")\n        /* \"@openzeppelin/contracts-upgradeable/proxy/utils/UUPSUpgradeable.sol\":4671:4694  address(this) == __self */\n      and\n      eq\n      dup1\n        /* \"@openzeppelin/contracts-upgradeable/proxy/utils/UUPSUpgradeable.sol\":4671:4791  address(this) == __self || // Must be called through delegatecall... */\n      tag_136\n      jumpi\n      pop\n        /* \"@openzeppelin/contracts-upgradeable/proxy/utils/UUPSUpgradeable.sol\":4785:4791  __self */\n      immutable(\"0xfd1753e5062fc84b796e3e4549282ff123bc8efd827793b2908817313a959dbe\")\n      sub(shl(0xa0, 0x01), 0x01)\n        /* \"@openzeppelin/contracts-upgradeable/proxy/utils/UUPSUpgradeable.sol\":4749:4791  ERC1967Utils.getImplementation() != __self */\n      and\n        /* \"@openzeppelin/contracts-upgradeable/proxy/utils/UUPSUpgradeable.sol\":4749:4781  ERC1967Utils.getImplementation() */\n      tag_137\n      0x00\n      dup1\n      mload\n      0x20\n      data_75b20eef8615de99c108b05f0dbda081c91897128caa336d75dffb97c4132b4d\n      dup4\n      codecopy\n      dup2\n      mload\n      swap2\n      mstore\n        /* \"@openzeppelin/contracts/proxy/ERC1967/ERC1967Utils.sol\":2035:2088  StorageSlot.getAddressSlot(IMPLEMENTATION_SLOT).value */\n      sload\n      sub(shl(0xa0, 0x01), 0x01)\n      and\n      swap1\n        /* \"@openzeppelin/contracts/proxy/ERC1967/ERC1967Utils.sol\":1957:2095  function getImplementation() internal view returns (address) {... */\n      jump\n        /* \"@openzeppelin/contracts-upgradeable/proxy/utils/UUPSUpgradeable.sol\":4749:4781  ERC1967Utils.getImplementation() */\n    tag_137:\n      sub(shl(0xa0, 0x01), 0x01)\n        /* \"@openzeppelin/contracts-upgradeable/proxy/utils/UUPSUpgradeable.sol\":4749:4791  ERC1967Utils.getImplementation() != __self */\n      and\n      eq\n      iszero\n        /* \"@openzeppelin/contracts-upgradeable/proxy/utils/UUPSUpgradeable.sol\":4671:4791  address(this) == __self || // Must be called through delegatecall... */\n    tag_136:\n        /* \"@openzeppelin/contracts-upgradeable/proxy/utils/UUPSUpgradeable.sol\":4654:4905  if (... */\n      iszero\n      tag_139\n      jumpi\n        /* \"@openzeppelin/contracts-upgradeable/proxy/utils/UUPSUpgradeable.sol\":4865:4894  UUPSUnauthorizedCallContext() */\n      mload(0x40)\n      shl(0xe1, 0x703e46dd)\n      dup2\n      mstore\n      0x04\n      add\n      mload(0x40)\n      dup1\n      swap2\n      sub\n      swap1\n      revert\n        /* \"@openzeppelin/contracts-upgradeable/proxy/utils/UUPSUpgradeable.sol\":4654:4905  if (... */\n    tag_139:\n        /* \"@openzeppelin/contracts-upgradeable/proxy/utils/UUPSUpgradeable.sol\":4599:4911  function _checkProxy() internal view virtual {... */\n      jump\t// out\n        /* \"packages/contracts/src/framework/utils/InterfaceBasedRegistry.sol\":2923:3040  function _authorizeUpgrade(... */\n    tag_97:\n        /* \"packages/contracts/src/core/plugin/dao-authorizable/DaoAuthorizableUpgradeable.sol\":1616:1620  dao_ */\n      sload(0x00)\n        /* \"packages/contracts/src/framework/utils/InterfaceBasedRegistry.sol\":994:1034  keccak256(\"UPGRADE_REGISTRY_PERMISSION\") */\n      0x60b96ff9fb5f29153c29c1747515b8be4ee523d686cc6f453ec294b0afa72932\n      swap1\n        /* \"packages/contracts/src/core/plugin/dao-authorizable/DaoAuthorizableUpgradeable.sol\":1610:1677  _auth(dao_, address(this), _msgSender(), _permissionId, _msgData()) */\n      tag_98\n      swap1\n      sub(shl(0xa0, 0x01), 0x01)\n        /* \"packages/contracts/src/core/plugin/dao-authorizable/DaoAuthorizableUpgradeable.sol\":1616:1620  dao_ */\n      and\n        /* \"packages/contracts/src/core/plugin/dao-authorizable/DaoAuthorizableUpgradeable.sol\":1630:1634  this */\n      address\n        /* \"@openzeppelin/contracts-upgradeable/utils/ContextUpgradeable.sol\":966:976  msg.sender */\n      caller\n        /* \"packages/contracts/src/core/plugin/dao-authorizable/DaoAuthorizableUpgradeable.sol\":1637:1649  _msgSender() */\n      tag_106\n        /* \"@openzeppelin/contracts-upgradeable/utils/ContextUpgradeable.sol\":887:983  function _msgSender() internal view virtual returns (address) {... */\n      jump\n        /* \"@openzeppelin/contracts-upgradeable/proxy/utils/UUPSUpgradeable.sol\":6052:6590  function _upgradeToAndCallUUPS(address newImplementation, bytes memory data) private {... */\n    tag_99:\n        /* \"@openzeppelin/contracts-upgradeable/proxy/utils/UUPSUpgradeable.sol\":6169:6186  newImplementation */\n      dup2\n      sub(shl(0xa0, 0x01), 0x01)\n        /* \"@openzeppelin/contracts-upgradeable/proxy/utils/UUPSUpgradeable.sol\":6151:6201  IERC1822Proxiable(newImplementation).proxiableUUID */\n      and\n      0x52d1902d\n        /* \"@openzeppelin/contracts-upgradeable/proxy/utils/UUPSUpgradeable.sol\":6151:6203  IERC1822Proxiable(newImplementation).proxiableUUID() */\n      mload(0x40)\n      dup2\n      0xffffffff\n      and\n      0xe0\n      shl\n      dup2\n      mstore\n      0x04\n      add\n      0x20\n      mload(0x40)\n      dup1\n      dup4\n      sub\n      dup2\n      dup7\n      gas\n      staticcall\n      swap3\n      pop\n      pop\n      pop\n      dup1\n      iszero\n      tag_146\n      jumpi\n      pop\n      0x40\n      dup1\n      mload\n      0x1f\n      returndatasize\n      swap1\n      dup2\n      add\n      not(0x1f)\n      and\n      dup3\n      add\n      swap1\n      swap3\n      mstore\n      tag_147\n      swap2\n      dup2\n      add\n      swap1\n      tag_148\n      jump\t// in\n    tag_147:\n      0x01\n    tag_146:\n        /* \"@openzeppelin/contracts-upgradeable/proxy/utils/UUPSUpgradeable.sol\":6147:6584  try IERC1822Proxiable(newImplementation).proxiableUUID() returns (bytes32 slot) {... */\n      tag_149\n      jumpi\n        /* \"@openzeppelin/contracts-upgradeable/proxy/utils/UUPSUpgradeable.sol\":6513:6573  ERC1967Utils.ERC1967InvalidImplementation(newImplementation) */\n      mload(0x40)\n      shl(0xe0, 0x4c9c8ce3)\n      dup2\n      mstore\n      sub(shl(0xa0, 0x01), 0x01)\n        /* \"#utility.yul\":208:240   */\n      dup4\n      and\n        /* \"@openzeppelin/contracts-upgradeable/proxy/utils/UUPSUpgradeable.sol\":6513:6573  ERC1967Utils.ERC1967InvalidImplementation(newImplementation) */\n      0x04\n      dup3\n      add\n        /* \"#utility.yul\":190:241   */\n      mstore\n        /* \"#utility.yul\":163:181   */\n      0x24\n      add\n        /* \"@openzeppelin/contracts-upgradeable/proxy/utils/UUPSUpgradeable.sol\":6513:6573  ERC1967Utils.ERC1967InvalidImplementation(newImplementation) */\n      tag_118\n        /* \"#utility.yul\":14:247   */\n      jump\n        /* \"@openzeppelin/contracts-upgradeable/proxy/utils/UUPSUpgradeable.sol\":6147:6584  try IERC1822Proxiable(newImplementation).proxiableUUID() returns (bytes32 slot) {... */\n    tag_149:\n      0x00\n      dup1\n      mload\n      0x20\n      data_75b20eef8615de99c108b05f0dbda081c91897128caa336d75dffb97c4132b4d\n      dup4\n      codecopy\n      dup2\n      mload\n      swap2\n      mstore\n        /* \"@openzeppelin/contracts-upgradeable/proxy/utils/UUPSUpgradeable.sol\":6245:6285  slot != ERC1967Utils.IMPLEMENTATION_SLOT */\n      dup2\n      eq\n        /* \"@openzeppelin/contracts-upgradeable/proxy/utils/UUPSUpgradeable.sol\":6241:6361  if (slot != ERC1967Utils.IMPLEMENTATION_SLOT) {... */\n      tag_156\n      jumpi\n        /* \"@openzeppelin/contracts-upgradeable/proxy/utils/UUPSUpgradeable.sol\":6312:6346  UUPSUnsupportedProxiableUUID(slot) */\n      mload(0x40)\n      shl(0xe2, 0x2a875269)\n      dup2\n      mstore\n      0x04\n      dup2\n      add\n        /* \"#utility.yul\":3121:3146   */\n      dup3\n      swap1\n      mstore\n        /* \"#utility.yul\":3094:3112   */\n      0x24\n      add\n        /* \"@openzeppelin/contracts-upgradeable/proxy/utils/UUPSUpgradeable.sol\":6312:6346  UUPSUnsupportedProxiableUUID(slot) */\n      tag_118\n        /* \"#utility.yul\":2975:3152   */\n      jump\n        /* \"@openzeppelin/contracts-upgradeable/proxy/utils/UUPSUpgradeable.sol\":6241:6361  if (slot != ERC1967Utils.IMPLEMENTATION_SLOT) {... */\n    tag_156:\n        /* \"@openzeppelin/contracts-upgradeable/proxy/utils/UUPSUpgradeable.sol\":6374:6428  ERC1967Utils.upgradeToAndCall(newImplementation, data) */\n      tag_158\n        /* \"@openzeppelin/contracts-upgradeable/proxy/utils/UUPSUpgradeable.sol\":6404:6421  newImplementation */\n      dup4\n        /* \"@openzeppelin/contracts-upgradeable/proxy/utils/UUPSUpgradeable.sol\":6423:6427  data */\n      dup4\n        /* \"@openzeppelin/contracts-upgradeable/proxy/utils/UUPSUpgradeable.sol\":6374:6403  ERC1967Utils.upgradeToAndCall */\n      tag_159\n        /* \"@openzeppelin/contracts-upgradeable/proxy/utils/UUPSUpgradeable.sol\":6374:6428  ERC1967Utils.upgradeToAndCall(newImplementation, data) */\n      jump\t// in\n    tag_158:\n        /* \"@openzeppelin/contracts-upgradeable/proxy/utils/UUPSUpgradeable.sol\":6204:6439  returns (bytes32 slot) {... */\n      pop\n        /* \"@openzeppelin/contracts-upgradeable/proxy/utils/UUPSUpgradeable.sol\":6052:6590  function _upgradeToAndCallUUPS(address newImplementation, bytes memory data) private {... */\n      pop\n      pop\n      jump\t// out\n        /* \"@openzeppelin/contracts-upgradeable/proxy/utils/UUPSUpgradeable.sol\":5028:5241  function _checkNotDelegated() internal view virtual {... */\n    tag_102:\n        /* \"@openzeppelin/contracts-upgradeable/proxy/utils/UUPSUpgradeable.sol\":5102:5106  this */\n      address\n      sub(shl(0xa0, 0x01), 0x01)\n        /* \"@openzeppelin/contracts-upgradeable/proxy/utils/UUPSUpgradeable.sol\":5111:5117  __self */\n      immutable(\"0xfd1753e5062fc84b796e3e4549282ff123bc8efd827793b2908817313a959dbe\")\n        /* \"@openzeppelin/contracts-upgradeable/proxy/utils/UUPSUpgradeable.sol\":5094:5117  address(this) != __self */\n      and\n      eq\n        /* \"@openzeppelin/contracts-upgradeable/proxy/utils/UUPSUpgradeable.sol\":5090:5235  if (address(this) != __self) {... */\n      tag_139\n      jumpi\n        /* \"@openzeppelin/contracts-upgradeable/proxy/utils/UUPSUpgradeable.sol\":5195:5224  UUPSUnauthorizedCallContext() */\n      mload(0x40)\n      shl(0xe1, 0x703e46dd)\n      dup2\n      mstore\n      0x04\n      add\n      mload(0x40)\n      dup1\n      swap2\n      sub\n      swap1\n      revert\n        /* \"packages/contracts/src/core/utils/auth.sol\":1057:1434  function _auth(... */\n    tag_110:\n        /* \"packages/contracts/src/core/utils/auth.sol\":1203:1257  _dao.hasPermission(_where, _who, _permissionId, _data) */\n      mload(0x40)\n      shl(0xe1, 0x7ef7c883)\n      dup2\n      mstore\n      sub(shl(0xa0, 0x01), 0x01)\n        /* \"packages/contracts/src/core/utils/auth.sol\":1203:1221  _dao.hasPermission */\n      dup8\n      and\n      swap1\n      0xfdef9106\n      swap1\n        /* \"packages/contracts/src/core/utils/auth.sol\":1203:1257  _dao.hasPermission(_where, _who, _permissionId, _data) */\n      tag_165\n      swap1\n        /* \"packages/contracts/src/core/utils/auth.sol\":1222:1228  _where */\n      dup9\n      swap1\n        /* \"packages/contracts/src/core/utils/auth.sol\":1230:1234  _who */\n      dup9\n      swap1\n        /* \"packages/contracts/src/core/utils/auth.sol\":1236:1249  _permissionId */\n      dup9\n      swap1\n        /* \"packages/contracts/src/core/utils/auth.sol\":1251:1256  _data */\n      dup9\n      swap1\n      dup9\n      swap1\n        /* \"packages/contracts/src/core/utils/auth.sol\":1203:1257  _dao.hasPermission(_where, _who, _permissionId, _data) */\n      0x04\n      add\n      tag_166\n      jump\t// in\n    tag_165:\n      0x20\n      mload(0x40)\n      dup1\n      dup4\n      sub\n      dup2\n      dup7\n      gas\n      staticcall\n      iszero\n      dup1\n      iszero\n      tag_168\n      jumpi\n      returndatasize\n      0x00\n      dup1\n      returndatacopy\n      revert(0x00, returndatasize)\n    tag_168:\n      pop\n      pop\n      pop\n      pop\n      mload(0x40)\n      returndatasize\n      not(0x1f)\n      0x1f\n      dup3\n      add\n      and\n      dup3\n      add\n      dup1\n      0x40\n      mstore\n      pop\n      dup2\n      add\n      swap1\n      tag_169\n      swap2\n      swap1\n      tag_170\n      jump\t// in\n    tag_169:\n        /* \"packages/contracts/src/core/utils/auth.sol\":1198:1430  if (!_dao.hasPermission(_where, _who, _permissionId, _data))... */\n      tag_171\n      jumpi\n        /* \"packages/contracts/src/core/utils/auth.sol\":1275:1430  DaoUnauthorized({... */\n      mload(0x40)\n      shl(0xe2, 0x0cb6f8ed)\n      dup2\n      mstore\n      sub(shl(0xa0, 0x01), 0x01)\n        /* \"#utility.yul\":7941:7956   */\n      dup1\n      dup9\n      and\n        /* \"packages/contracts/src/core/utils/auth.sol\":1275:1430  DaoUnauthorized({... */\n      0x04\n      dup4\n      add\n        /* \"#utility.yul\":7923:7957   */\n      mstore\n        /* \"#utility.yul\":7993:8008   */\n      dup1\n      dup8\n      and\n        /* \"#utility.yul\":7973:7991   */\n      0x24\n      dup4\n      add\n        /* \"#utility.yul\":7966:8009   */\n      mstore\n        /* \"#utility.yul\":8045:8060   */\n      dup6\n      and\n        /* \"#utility.yul\":8025:8043   */\n      0x44\n      dup3\n      add\n        /* \"#utility.yul\":8018:8061   */\n      mstore\n        /* \"#utility.yul\":8077:8095   */\n      0x64\n      dup2\n      add\n        /* \"#utility.yul\":8070:8104   */\n      dup5\n      swap1\n      mstore\n        /* \"#utility.yul\":7857:7876   */\n      0x84\n      add\n        /* \"packages/contracts/src/core/utils/auth.sol\":1275:1430  DaoUnauthorized({... */\n      tag_118\n        /* \"#utility.yul\":7654:8110   */\n      jump\n        /* \"packages/contracts/src/core/utils/auth.sol\":1198:1430  if (!_dao.hasPermission(_where, _who, _permissionId, _data))... */\n    tag_171:\n        /* \"packages/contracts/src/core/utils/auth.sol\":1057:1434  function _auth(... */\n      pop\n      pop\n      pop\n      pop\n      pop\n      pop\n      jump\t// out\n        /* \"packages/contracts/src/framework/utils/InterfaceBasedRegistry.sol\":3334:3797  function _register(address _registrant) internal {... */\n    tag_113:\n      sub(shl(0xa0, 0x01), 0x01)\n        /* \"packages/contracts/src/framework/utils/InterfaceBasedRegistry.sol\":3398:3418  entries[_registrant] */\n      dup2\n      and\n      0x00\n      swap1\n      dup2\n      mstore\n        /* \"packages/contracts/src/framework/utils/InterfaceBasedRegistry.sol\":3398:3405  entries */\n      0x33\n        /* \"packages/contracts/src/framework/utils/InterfaceBasedRegistry.sol\":3398:3418  entries[_registrant] */\n      0x20\n      mstore\n      0x40\n      swap1\n      keccak256\n      sload\n      0xff\n      and\n        /* \"packages/contracts/src/framework/utils/InterfaceBasedRegistry.sol\":3394:3506  if (entries[_registrant]) {... */\n      iszero\n      tag_175\n      jumpi\n        /* \"packages/contracts/src/framework/utils/InterfaceBasedRegistry.sol\":3442:3494  ContractAlreadyRegistered({registrant: _registrant}) */\n      mload(0x40)\n      shl(0xe0, 0xfdcce17f)\n      dup2\n      mstore\n      sub(shl(0xa0, 0x01), 0x01)\n        /* \"#utility.yul\":208:240   */\n      dup3\n      and\n        /* \"packages/contracts/src/framework/utils/InterfaceBasedRegistry.sol\":3442:3494  ContractAlreadyRegistered({registrant: _registrant}) */\n      0x04\n      dup3\n      add\n        /* \"#utility.yul\":190:241   */\n      mstore\n        /* \"#utility.yul\":163:181   */\n      0x24\n      add\n        /* \"packages/contracts/src/framework/utils/InterfaceBasedRegistry.sol\":3442:3494  ContractAlreadyRegistered({registrant: _registrant}) */\n      tag_118\n        /* \"#utility.yul\":14:247   */\n      jump\n        /* \"packages/contracts/src/framework/utils/InterfaceBasedRegistry.sol\":3394:3506  if (entries[_registrant]) {... */\n    tag_175:\n        /* \"packages/contracts/src/framework/utils/InterfaceBasedRegistry.sol\":3659:3676  targetInterfaceId */\n      sload(0x32)\n        /* \"packages/contracts/src/framework/utils/InterfaceBasedRegistry.sol\":3629:3677  _registrant.supportsInterface(targetInterfaceId) */\n      tag_177\n      swap1\n      sub(shl(0xa0, 0x01), 0x01)\n        /* \"packages/contracts/src/framework/utils/InterfaceBasedRegistry.sol\":3629:3658  _registrant.supportsInterface */\n      dup4\n      and\n      swap1\n        /* \"packages/contracts/src/framework/utils/InterfaceBasedRegistry.sol\":3659:3676  targetInterfaceId */\n      0xe0\n      shl\n        /* \"packages/contracts/src/framework/utils/InterfaceBasedRegistry.sol\":3629:3658  _registrant.supportsInterface */\n      tag_178\n        /* \"packages/contracts/src/framework/utils/InterfaceBasedRegistry.sol\":3629:3677  _registrant.supportsInterface(targetInterfaceId) */\n      jump\t// in\n    tag_177:\n        /* \"packages/contracts/src/framework/utils/InterfaceBasedRegistry.sol\":3624:3750  if (!_registrant.supportsInterface(targetInterfaceId)) {... */\n      tag_179\n      jumpi\n        /* \"packages/contracts/src/framework/utils/InterfaceBasedRegistry.sol\":3701:3738  ContractInterfaceInvalid(_registrant) */\n      mload(0x40)\n      shl(0xe1, 0x38811e45)\n      dup2\n      mstore\n      sub(shl(0xa0, 0x01), 0x01)\n        /* \"#utility.yul\":208:240   */\n      dup3\n      and\n        /* \"packages/contracts/src/framework/utils/InterfaceBasedRegistry.sol\":3701:3738  ContractInterfaceInvalid(_registrant) */\n      0x04\n      dup3\n      add\n        /* \"#utility.yul\":190:241   */\n      mstore\n        /* \"#utility.yul\":163:181   */\n      0x24\n      add\n        /* \"packages/contracts/src/framework/utils/InterfaceBasedRegistry.sol\":3701:3738  ContractInterfaceInvalid(_registrant) */\n      tag_118\n        /* \"#utility.yul\":14:247   */\n      jump\n        /* \"packages/contracts/src/framework/utils/InterfaceBasedRegistry.sol\":3624:3750  if (!_registrant.supportsInterface(targetInterfaceId)) {... */\n    tag_179:\n      sub(shl(0xa0, 0x01), 0x01)\n        /* \"packages/contracts/src/framework/utils/InterfaceBasedRegistry.sol\":3762:3782  entries[_registrant] */\n      and\n      0x00\n      swap1\n      dup2\n      mstore\n        /* \"packages/contracts/src/framework/utils/InterfaceBasedRegistry.sol\":3762:3769  entries */\n      0x33\n        /* \"packages/contracts/src/framework/utils/InterfaceBasedRegistry.sol\":3762:3782  entries[_registrant] */\n      0x20\n      mstore\n      0x40\n      swap1\n      keccak256\n        /* \"packages/contracts/src/framework/utils/InterfaceBasedRegistry.sol\":3762:3789  entries[_registrant] = true */\n      dup1\n      sload\n      not(0xff)\n      and\n        /* \"packages/contracts/src/framework/utils/InterfaceBasedRegistry.sol\":3785:3789  true */\n      0x01\n        /* \"packages/contracts/src/framework/utils/InterfaceBasedRegistry.sol\":3762:3789  entries[_registrant] = true */\n      or\n      swap1\n      sstore\n        /* \"packages/contracts/src/framework/utils/InterfaceBasedRegistry.sol\":3334:3797  function _register(address _registrant) internal {... */\n      jump\t// out\n        /* \"packages/contracts/src/framework/utils/RegistryUtils.sol\":658:1341  function isSubdomainValid(string calldata subDomain) pure returns (bool) {... */\n    tag_116:\n        /* \"packages/contracts/src/framework/utils/RegistryUtils.sol\":725:729  bool */\n      0x00\n        /* \"packages/contracts/src/framework/utils/RegistryUtils.sol\":771:780  subDomain */\n      dup3\n      dup3\n      dup1\n        /* \"packages/contracts/src/framework/utils/RegistryUtils.sol\":725:729  bool */\n      dup4\n        /* \"packages/contracts/src/framework/utils/RegistryUtils.sol\":832:1320  for (uint256 i; i < nameLength; i++) {... */\n    tag_182:\n        /* \"packages/contracts/src/framework/utils/RegistryUtils.sol\":852:862  nameLength */\n      dup2\n        /* \"packages/contracts/src/framework/utils/RegistryUtils.sol\":848:849  i */\n      dup2\n        /* \"packages/contracts/src/framework/utils/RegistryUtils.sol\":848:862  i < nameLength */\n      lt\n        /* \"packages/contracts/src/framework/utils/RegistryUtils.sol\":832:1320  for (uint256 i; i < nameLength; i++) {... */\n      iszero\n      tag_183\n      jumpi\n        /* \"packages/contracts/src/framework/utils/RegistryUtils.sol\":880:890  uint8 char */\n      0x00\n        /* \"packages/contracts/src/framework/utils/RegistryUtils.sol\":899:908  nameBytes */\n      dup5\n      dup5\n        /* \"packages/contracts/src/framework/utils/RegistryUtils.sol\":909:910  i */\n      dup4\n        /* \"packages/contracts/src/framework/utils/RegistryUtils.sol\":899:911  nameBytes[i] */\n      dup2\n      dup2\n      lt\n      tag_186\n      jumpi\n      tag_186\n      tag_187\n      jump\t// in\n    tag_186:\n      swap2\n      swap1\n      swap2\n      add\n      calldataload\n      0xf8\n      shr\n      swap2\n      pop\n      pop\n        /* \"packages/contracts/src/framework/utils/RegistryUtils.sol\":971:973  96 */\n      0x60\n        /* \"packages/contracts/src/framework/utils/RegistryUtils.sol\":964:973  char > 96 */\n      dup2\n      gt\n        /* \"packages/contracts/src/framework/utils/RegistryUtils.sol\":964:987  char > 96 && char < 123 */\n      dup1\n      iszero\n      tag_188\n      jumpi\n      pop\n        /* \"packages/contracts/src/framework/utils/RegistryUtils.sol\":984:987  123 */\n      0x7b\n        /* \"packages/contracts/src/framework/utils/RegistryUtils.sol\":977:981  char */\n      dup2\n        /* \"packages/contracts/src/framework/utils/RegistryUtils.sol\":977:987  char < 123 */\n      0xff\n      and\n      lt\n        /* \"packages/contracts/src/framework/utils/RegistryUtils.sol\":964:987  char > 96 && char < 123 */\n    tag_188:\n        /* \"packages/contracts/src/framework/utils/RegistryUtils.sol\":960:1024  if (char > 96 && char < 123) {... */\n      iszero\n      tag_189\n      jumpi\n        /* \"packages/contracts/src/framework/utils/RegistryUtils.sol\":1004:1012  continue */\n      pop\n      jump(tag_184)\n        /* \"packages/contracts/src/framework/utils/RegistryUtils.sol\":960:1024  if (char > 96 && char < 123) {... */\n    tag_189:\n        /* \"packages/contracts/src/framework/utils/RegistryUtils.sol\":1082:1084  47 */\n      0x2f\n        /* \"packages/contracts/src/framework/utils/RegistryUtils.sol\":1075:1079  char */\n      dup2\n        /* \"packages/contracts/src/framework/utils/RegistryUtils.sol\":1075:1084  char > 47 */\n      0xff\n      and\n      gt\n        /* \"packages/contracts/src/framework/utils/RegistryUtils.sol\":1075:1097  char > 47 && char < 58 */\n      dup1\n      iszero\n      tag_190\n      jumpi\n      pop\n        /* \"packages/contracts/src/framework/utils/RegistryUtils.sol\":1095:1097  58 */\n      0x3a\n        /* \"packages/contracts/src/framework/utils/RegistryUtils.sol\":1088:1092  char */\n      dup2\n        /* \"packages/contracts/src/framework/utils/RegistryUtils.sol\":1088:1097  char < 58 */\n      0xff\n      and\n      lt\n        /* \"packages/contracts/src/framework/utils/RegistryUtils.sol\":1075:1097  char > 47 && char < 58 */\n    tag_190:\n        /* \"packages/contracts/src/framework/utils/RegistryUtils.sol\":1071:1134  if (char > 47 && char < 58) {... */\n      iszero\n      tag_191\n      jumpi\n        /* \"packages/contracts/src/framework/utils/RegistryUtils.sol\":1114:1122  continue */\n      pop\n      jump(tag_184)\n        /* \"packages/contracts/src/framework/utils/RegistryUtils.sol\":1071:1134  if (char > 47 && char < 58) {... */\n    tag_191:\n        /* \"packages/contracts/src/framework/utils/RegistryUtils.sol\":1175:1179  char */\n      dup1\n        /* \"packages/contracts/src/framework/utils/RegistryUtils.sol\":1175:1185  char == 45 */\n      0xff\n      and\n        /* \"packages/contracts/src/framework/utils/RegistryUtils.sol\":1183:1185  45 */\n      0x2d\n        /* \"packages/contracts/src/framework/utils/RegistryUtils.sol\":1175:1185  char == 45 */\n      sub\n        /* \"packages/contracts/src/framework/utils/RegistryUtils.sol\":1171:1222  if (char == 45) {... */\n      tag_192\n      jumpi\n        /* \"packages/contracts/src/framework/utils/RegistryUtils.sol\":1202:1210  continue */\n      pop\n      jump(tag_184)\n        /* \"packages/contracts/src/framework/utils/RegistryUtils.sol\":1171:1222  if (char == 45) {... */\n    tag_192:\n        /* \"packages/contracts/src/framework/utils/RegistryUtils.sol\":1307:1312  false */\n      0x00\n        /* \"packages/contracts/src/framework/utils/RegistryUtils.sol\":1300:1312  return false */\n      swap6\n      pop\n      pop\n      pop\n      pop\n      pop\n      pop\n      jump(tag_181)\n        /* \"packages/contracts/src/framework/utils/RegistryUtils.sol\":832:1320  for (uint256 i; i < nameLength; i++) {... */\n    tag_184:\n        /* \"packages/contracts/src/framework/utils/RegistryUtils.sol\":864:867  i++ */\n      dup1\n      tag_193\n      dup2\n      tag_194\n      jump\t// in\n    tag_193:\n      swap2\n      pop\n      pop\n        /* \"packages/contracts/src/framework/utils/RegistryUtils.sol\":832:1320  for (uint256 i; i < nameLength; i++) {... */\n      jump(tag_182)\n    tag_183:\n      pop\n        /* \"packages/contracts/src/framework/utils/RegistryUtils.sol\":1333:1337  true */\n      0x01\n        /* \"packages/contracts/src/framework/utils/RegistryUtils.sol\":1326:1337  return true */\n      swap4\n      pop\n      pop\n      pop\n      pop\n        /* \"packages/contracts/src/framework/utils/RegistryUtils.sol\":658:1341  function isSubdomainValid(string calldata subDomain) pure returns (bool) {... */\n    tag_181:\n      swap3\n      swap2\n      pop\n      pop\n      jump\t// out\n        /* \"@openzeppelin/contracts-upgradeable/proxy/utils/Initializable.sol\":7084:7225  function _checkInitializing() internal view virtual {... */\n    tag_131:\n        /* \"@openzeppelin/contracts-upgradeable/proxy/utils/Initializable.sol\":8870:8891  INITIALIZABLE_STORAGE */\n      0xf0c57e16840df040f15088dc2f81fe391c3923bec73e23a9662efc9c229c6a00\n        /* \"@openzeppelin/contracts-upgradeable/proxy/utils/Initializable.sol\":8560:8600  _getInitializableStorage()._initializing */\n      sload\n      shl(0x40, 0x01)\n      swap1\n      div\n      0xff\n      and\n        /* \"@openzeppelin/contracts-upgradeable/proxy/utils/Initializable.sol\":7146:7219  if (!_isInitializing()) {... */\n      tag_139\n      jumpi\n        /* \"@openzeppelin/contracts-upgradeable/proxy/utils/Initializable.sol\":7191:7208  NotInitializing() */\n      mload(0x40)\n      shl(0xe3, 0x1afcd79f)\n      dup2\n      mstore\n      0x04\n      add\n      mload(0x40)\n      dup1\n      swap2\n      sub\n      swap1\n      revert\n        /* \"packages/contracts/src/core/plugin/dao-authorizable/DaoAuthorizableUpgradeable.sol\":997:1107  function __DaoAuthorizableUpgradeable_init(IDAO _dao) internal onlyInitializing {... */\n    tag_134:\n        /* \"@openzeppelin/contracts-upgradeable/proxy/utils/Initializable.sol\":6931:6951  _checkInitializing() */\n      tag_200\n        /* \"@openzeppelin/contracts-upgradeable/proxy/utils/Initializable.sol\":6931:6949  _checkInitializing */\n      tag_131\n        /* \"@openzeppelin/contracts-upgradeable/proxy/utils/Initializable.sol\":6931:6951  _checkInitializing() */\n      jump\t// in\n    tag_200:\n        /* \"packages/contracts/src/core/plugin/dao-authorizable/DaoAuthorizableUpgradeable.sol\":1088:1092  dao_ */\n      0x00\n        /* \"packages/contracts/src/core/plugin/dao-authorizable/DaoAuthorizableUpgradeable.sol\":1088:1099  dao_ = _dao */\n      dup1\n      sload\n      not(sub(shl(0xa0, 0x01), 0x01))\n      and\n      sub(shl(0xa0, 0x01), 0x01)\n      swap3\n      swap1\n      swap3\n      and\n      swap2\n      swap1\n      swap2\n      or\n      swap1\n      sstore\n        /* \"packages/contracts/src/core/plugin/dao-authorizable/DaoAuthorizableUpgradeable.sol\":997:1107  function __DaoAuthorizableUpgradeable_init(IDAO _dao) internal onlyInitializing {... */\n      jump\t// out\n        /* \"@openzeppelin/contracts/proxy/ERC1967/ERC1967Utils.sol\":2779:3114  function upgradeToAndCall(address newImplementation, bytes memory data) internal {... */\n    tag_159:\n        /* \"@openzeppelin/contracts/proxy/ERC1967/ERC1967Utils.sol\":2870:2907  _setImplementation(newImplementation) */\n      tag_206\n        /* \"@openzeppelin/contracts/proxy/ERC1967/ERC1967Utils.sol\":2889:2906  newImplementation */\n      dup3\n        /* \"@openzeppelin/contracts/proxy/ERC1967/ERC1967Utils.sol\":2870:2888  _setImplementation */\n      tag_207\n        /* \"@openzeppelin/contracts/proxy/ERC1967/ERC1967Utils.sol\":2870:2907  _setImplementation(newImplementation) */\n      jump\t// in\n    tag_206:\n        /* \"@openzeppelin/contracts/proxy/ERC1967/ERC1967Utils.sol\":2922:2949  Upgraded(newImplementation) */\n      mload(0x40)\n      sub(shl(0xa0, 0x01), 0x01)\n      dup4\n      and\n      swap1\n      0xbc7cd75a20ee27fd9adebab32041f755214dbc6bffa90cc0225b39da2e5c2d3b\n      swap1\n      0x00\n      swap1\n      log2\n        /* \"@openzeppelin/contracts/proxy/ERC1967/ERC1967Utils.sol\":2964:2975  data.length */\n      dup1\n      mload\n        /* \"@openzeppelin/contracts/proxy/ERC1967/ERC1967Utils.sol\":2964:2979  data.length > 0 */\n      iszero\n        /* \"@openzeppelin/contracts/proxy/ERC1967/ERC1967Utils.sol\":2960:3108  if (data.length > 0) {... */\n      tag_208\n      jumpi\n        /* \"@openzeppelin/contracts/proxy/ERC1967/ERC1967Utils.sol\":2995:3048  Address.functionDelegateCall(newImplementation, data) */\n      tag_158\n        /* \"@openzeppelin/contracts/proxy/ERC1967/ERC1967Utils.sol\":3024:3041  newImplementation */\n      dup3\n        /* \"@openzeppelin/contracts/proxy/ERC1967/ERC1967Utils.sol\":3043:3047  data */\n      dup3\n        /* \"@openzeppelin/contracts/proxy/ERC1967/ERC1967Utils.sol\":2995:3023  Address.functionDelegateCall */\n      tag_210\n        /* \"@openzeppelin/contracts/proxy/ERC1967/ERC1967Utils.sol\":2995:3048  Address.functionDelegateCall(newImplementation, data) */\n      jump\t// in\n        /* \"@openzeppelin/contracts/proxy/ERC1967/ERC1967Utils.sol\":2960:3108  if (data.length > 0) {... */\n    tag_208:\n        /* \"@openzeppelin/contracts/proxy/ERC1967/ERC1967Utils.sol\":3079:3097  _checkNonPayable() */\n      tag_98\n        /* \"@openzeppelin/contracts/proxy/ERC1967/ERC1967Utils.sol\":3079:3095  _checkNonPayable */\n      tag_213\n        /* \"@openzeppelin/contracts/proxy/ERC1967/ERC1967Utils.sol\":3079:3097  _checkNonPayable() */\n      jump\t// in\n        /* \"@openzeppelin/contracts-upgradeable/utils/introspection/ERC165CheckerUpgradeable.sol\":1382:1664  function supportsInterface(address account, bytes4 interfaceId) internal view returns (bool) {... */\n    tag_178:\n        /* \"@openzeppelin/contracts-upgradeable/utils/introspection/ERC165CheckerUpgradeable.sol\":1469:1473  bool */\n      0x00\n        /* \"@openzeppelin/contracts-upgradeable/utils/introspection/ERC165CheckerUpgradeable.sol\":1576:1599  supportsERC165(account) */\n      tag_215\n        /* \"@openzeppelin/contracts-upgradeable/utils/introspection/ERC165CheckerUpgradeable.sol\":1591:1598  account */\n      dup4\n        /* \"@openzeppelin/contracts-upgradeable/utils/introspection/ERC165CheckerUpgradeable.sol\":1576:1590  supportsERC165 */\n      tag_216\n        /* \"@openzeppelin/contracts-upgradeable/utils/introspection/ERC165CheckerUpgradeable.sol\":1576:1599  supportsERC165(account) */\n      jump\t// in\n    tag_215:\n        /* \"@openzeppelin/contracts-upgradeable/utils/introspection/ERC165CheckerUpgradeable.sol\":1576:1657  supportsERC165(account) && supportsERC165InterfaceUnchecked(account, interfaceId) */\n      dup1\n      iszero\n      tag_218\n      jumpi\n      pop\n        /* \"@openzeppelin/contracts-upgradeable/utils/introspection/ERC165CheckerUpgradeable.sol\":1603:1657  supportsERC165InterfaceUnchecked(account, interfaceId) */\n      tag_218\n        /* \"@openzeppelin/contracts-upgradeable/utils/introspection/ERC165CheckerUpgradeable.sol\":1636:1643  account */\n      dup4\n        /* \"@openzeppelin/contracts-upgradeable/utils/introspection/ERC165CheckerUpgradeable.sol\":1645:1656  interfaceId */\n      dup4\n        /* \"@openzeppelin/contracts-upgradeable/utils/introspection/ERC165CheckerUpgradeable.sol\":1603:1635  supportsERC165InterfaceUnchecked */\n      tag_219\n        /* \"@openzeppelin/contracts-upgradeable/utils/introspection/ERC165CheckerUpgradeable.sol\":1603:1657  supportsERC165InterfaceUnchecked(account, interfaceId) */\n      jump\t// in\n    tag_218:\n        /* \"@openzeppelin/contracts-upgradeable/utils/introspection/ERC165CheckerUpgradeable.sol\":1569:1657  return supportsERC165(account) && supportsERC165InterfaceUnchecked(account, interfaceId) */\n      swap4\n        /* \"@openzeppelin/contracts-upgradeable/utils/introspection/ERC165CheckerUpgradeable.sol\":1382:1664  function supportsInterface(address account, bytes4 interfaceId) internal view returns (bool) {... */\n      swap3\n      pop\n      pop\n      pop\n      jump\t// out\n        /* \"@openzeppelin/contracts/proxy/ERC1967/ERC1967Utils.sol\":2186:2467  function _setImplementation(address newImplementation) private {... */\n    tag_207:\n        /* \"@openzeppelin/contracts/proxy/ERC1967/ERC1967Utils.sol\":2263:2280  newImplementation */\n      dup1\n      sub(shl(0xa0, 0x01), 0x01)\n        /* \"@openzeppelin/contracts/proxy/ERC1967/ERC1967Utils.sol\":2263:2292  newImplementation.code.length */\n      and\n      extcodesize\n        /* \"@openzeppelin/contracts/proxy/ERC1967/ERC1967Utils.sol\":2296:2297  0 */\n      0x00\n        /* \"@openzeppelin/contracts/proxy/ERC1967/ERC1967Utils.sol\":2263:2297  newImplementation.code.length == 0 */\n      sub\n        /* \"@openzeppelin/contracts/proxy/ERC1967/ERC1967Utils.sol\":2259:2378  if (newImplementation.code.length == 0) {... */\n      tag_224\n      jumpi\n        /* \"@openzeppelin/contracts/proxy/ERC1967/ERC1967Utils.sol\":2320:2367  ERC1967InvalidImplementation(newImplementation) */\n      mload(0x40)\n      shl(0xe0, 0x4c9c8ce3)\n      dup2\n      mstore\n      sub(shl(0xa0, 0x01), 0x01)\n        /* \"#utility.yul\":208:240   */\n      dup3\n      and\n        /* \"@openzeppelin/contracts/proxy/ERC1967/ERC1967Utils.sol\":2320:2367  ERC1967InvalidImplementation(newImplementation) */\n      0x04\n      dup3\n      add\n        /* \"#utility.yul\":190:241   */\n      mstore\n        /* \"#utility.yul\":163:181   */\n      0x24\n      add\n        /* \"@openzeppelin/contracts/proxy/ERC1967/ERC1967Utils.sol\":2320:2367  ERC1967InvalidImplementation(newImplementation) */\n      tag_118\n        /* \"#utility.yul\":14:247   */\n      jump\n        /* \"@openzeppelin/contracts/proxy/ERC1967/ERC1967Utils.sol\":2259:2378  if (newImplementation.code.length == 0) {... */\n    tag_224:\n      0x00\n      dup1\n      mload\n      0x20\n      data_75b20eef8615de99c108b05f0dbda081c91897128caa336d75dffb97c4132b4d\n      dup4\n      codecopy\n      dup2\n      mload\n      swap2\n      mstore\n        /* \"@openzeppelin/contracts/proxy/ERC1967/ERC1967Utils.sol\":2387:2460  StorageSlot.getAddressSlot(IMPLEMENTATION_SLOT).value = newImplementation */\n      dup1\n      sload\n      not(sub(shl(0xa0, 0x01), 0x01))\n      and\n      sub(shl(0xa0, 0x01), 0x01)\n      swap3\n      swap1\n      swap3\n      and\n      swap2\n      swap1\n      swap2\n      or\n      swap1\n      sstore\n        /* \"@openzeppelin/contracts/proxy/ERC1967/ERC1967Utils.sol\":2186:2467  function _setImplementation(address newImplementation) private {... */\n      jump\t// out\n        /* \"@openzeppelin/contracts/utils/Address.sol\":4106:4359  function functionDelegateCall(address target, bytes memory data) internal returns (bytes memory) {... */\n    tag_210:\n        /* \"@openzeppelin/contracts/utils/Address.sol\":4189:4201  bytes memory */\n      0x60\n        /* \"@openzeppelin/contracts/utils/Address.sol\":4214:4226  bool success */\n      0x00\n        /* \"@openzeppelin/contracts/utils/Address.sol\":4228:4251  bytes memory returndata */\n      dup1\n        /* \"@openzeppelin/contracts/utils/Address.sol\":4255:4261  target */\n      dup5\n      sub(shl(0xa0, 0x01), 0x01)\n        /* \"@openzeppelin/contracts/utils/Address.sol\":4255:4274  target.delegatecall */\n      and\n        /* \"@openzeppelin/contracts/utils/Address.sol\":4275:4279  data */\n      dup5\n        /* \"@openzeppelin/contracts/utils/Address.sol\":4255:4280  target.delegatecall(data) */\n      mload(0x40)\n      tag_228\n      swap2\n      swap1\n      tag_229\n      jump\t// in\n    tag_228:\n      0x00\n      mload(0x40)\n      dup1\n      dup4\n      sub\n      dup2\n      dup6\n      gas\n      delegatecall\n      swap2\n      pop\n      pop\n      returndatasize\n      dup1\n      0x00\n      dup2\n      eq\n      tag_232\n      jumpi\n      mload(0x40)\n      swap2\n      pop\n      and(add(returndatasize, 0x3f), not(0x1f))\n      dup3\n      add\n      0x40\n      mstore\n      returndatasize\n      dup3\n      mstore\n      returndatasize\n      0x00\n      0x20\n      dup5\n      add\n      returndatacopy\n      jump(tag_231)\n    tag_232:\n      0x60\n      swap2\n      pop\n    tag_231:\n      pop\n        /* \"@openzeppelin/contracts/utils/Address.sol\":4213:4280  (bool success, bytes memory returndata) = target.delegatecall(data) */\n      swap2\n      pop\n      swap2\n      pop\n        /* \"@openzeppelin/contracts/utils/Address.sol\":4297:4352  verifyCallResultFromTarget(target, success, returndata) */\n      tag_233\n        /* \"@openzeppelin/contracts/utils/Address.sol\":4324:4330  target */\n      dup6\n        /* \"@openzeppelin/contracts/utils/Address.sol\":4332:4339  success */\n      dup4\n        /* \"@openzeppelin/contracts/utils/Address.sol\":4341:4351  returndata */\n      dup4\n        /* \"@openzeppelin/contracts/utils/Address.sol\":4297:4323  verifyCallResultFromTarget */\n      tag_234\n        /* \"@openzeppelin/contracts/utils/Address.sol\":4297:4352  verifyCallResultFromTarget(target, success, returndata) */\n      jump\t// in\n    tag_233:\n        /* \"@openzeppelin/contracts/utils/Address.sol\":4290:4352  return verifyCallResultFromTarget(target, success, returndata) */\n      swap6\n        /* \"@openzeppelin/contracts/utils/Address.sol\":4106:4359  function functionDelegateCall(address target, bytes memory data) internal returns (bytes memory) {... */\n      swap5\n      pop\n      pop\n      pop\n      pop\n      pop\n      jump\t// out\n        /* \"@openzeppelin/contracts/proxy/ERC1967/ERC1967Utils.sol\":6598:6720  function _checkNonPayable() private {... */\n    tag_213:\n        /* \"@openzeppelin/contracts/proxy/ERC1967/ERC1967Utils.sol\":6648:6657  msg.value */\n      callvalue\n        /* \"@openzeppelin/contracts/proxy/ERC1967/ERC1967Utils.sol\":6648:6661  msg.value > 0 */\n      iszero\n        /* \"@openzeppelin/contracts/proxy/ERC1967/ERC1967Utils.sol\":6644:6714  if (msg.value > 0) {... */\n      tag_139\n      jumpi\n        /* \"@openzeppelin/contracts/proxy/ERC1967/ERC1967Utils.sol\":6684:6703  ERC1967NonPayable() */\n      mload(0x40)\n      shl(0xe0, 0xb398979f)\n      dup2\n      mstore\n      0x04\n      add\n      mload(0x40)\n      dup1\n      swap2\n      sub\n      swap1\n      revert\n        /* \"@openzeppelin/contracts-upgradeable/utils/introspection/ERC165CheckerUpgradeable.sol\":726:1164  function supportsERC165(address account) internal view returns (bool) {... */\n    tag_216:\n        /* \"@openzeppelin/contracts-upgradeable/utils/introspection/ERC165CheckerUpgradeable.sol\":790:794  bool */\n      0x00\n        /* \"@openzeppelin/contracts-upgradeable/utils/introspection/ERC165CheckerUpgradeable.sol\":997:1076  supportsERC165InterfaceUnchecked(account, type(IERC165Upgradeable).interfaceId) */\n      tag_238\n        /* \"@openzeppelin/contracts-upgradeable/utils/introspection/ERC165CheckerUpgradeable.sol\":1030:1037  account */\n      dup3\n      shl(0xe0, 0x01ffc9a7)\n        /* \"@openzeppelin/contracts-upgradeable/utils/introspection/ERC165CheckerUpgradeable.sol\":997:1029  supportsERC165InterfaceUnchecked */\n      tag_219\n        /* \"@openzeppelin/contracts-upgradeable/utils/introspection/ERC165CheckerUpgradeable.sol\":997:1076  supportsERC165InterfaceUnchecked(account, type(IERC165Upgradeable).interfaceId) */\n      jump\t// in\n    tag_238:\n        /* \"@openzeppelin/contracts-upgradeable/utils/introspection/ERC165CheckerUpgradeable.sol\":997:1157  supportsERC165InterfaceUnchecked(account, type(IERC165Upgradeable).interfaceId) &&... */\n      dup1\n      iszero\n      tag_181\n      jumpi\n      pop\n        /* \"@openzeppelin/contracts-upgradeable/utils/introspection/ERC165CheckerUpgradeable.sol\":1093:1157  supportsERC165InterfaceUnchecked(account, _INTERFACE_ID_INVALID) */\n      tag_240\n        /* \"@openzeppelin/contracts-upgradeable/utils/introspection/ERC165CheckerUpgradeable.sol\":1126:1133  account */\n      dup3\n      not(sub(shl(0xe0, 0x01), 0x01))\n        /* \"@openzeppelin/contracts-upgradeable/utils/introspection/ERC165CheckerUpgradeable.sol\":1093:1125  supportsERC165InterfaceUnchecked */\n      tag_219\n        /* \"@openzeppelin/contracts-upgradeable/utils/introspection/ERC165CheckerUpgradeable.sol\":1093:1157  supportsERC165InterfaceUnchecked(account, _INTERFACE_ID_INVALID) */\n      jump\t// in\n    tag_240:\n        /* \"@openzeppelin/contracts-upgradeable/utils/introspection/ERC165CheckerUpgradeable.sol\":1092:1157  !supportsERC165InterfaceUnchecked(account, _INTERFACE_ID_INVALID) */\n      iszero\n        /* \"@openzeppelin/contracts-upgradeable/utils/introspection/ERC165CheckerUpgradeable.sol\":978:1157  return... */\n      swap3\n        /* \"@openzeppelin/contracts-upgradeable/utils/introspection/ERC165CheckerUpgradeable.sol\":726:1164  function supportsERC165(address account) internal view returns (bool) {... */\n      swap2\n      pop\n      pop\n      jump\t// out\n        /* \"@openzeppelin/contracts-upgradeable/utils/introspection/ERC165CheckerUpgradeable.sol\":4454:5112  function supportsERC165InterfaceUnchecked(address account, bytes4 interfaceId) internal view returns (bool) {... */\n    tag_219:\n        /* \"@openzeppelin/contracts-upgradeable/utils/introspection/ERC165CheckerUpgradeable.sol\":4625:4707  abi.encodeWithSelector(IERC165Upgradeable.supportsInterface.selector, interfaceId) */\n      0x40\n      dup1\n      mload\n      not(sub(shl(0xe0, 0x01), 0x01))\n        /* \"#utility.yul\":1141:1174   */\n      dup4\n      and\n        /* \"@openzeppelin/contracts-upgradeable/utils/introspection/ERC165CheckerUpgradeable.sol\":4625:4707  abi.encodeWithSelector(IERC165Upgradeable.supportsInterface.selector, interfaceId) */\n      0x24\n      dup1\n      dup4\n      add\n        /* \"#utility.yul\":1123:1175   */\n      swap2\n      swap1\n      swap2\n      mstore\n        /* \"@openzeppelin/contracts-upgradeable/utils/introspection/ERC165CheckerUpgradeable.sol\":4625:4707  abi.encodeWithSelector(IERC165Upgradeable.supportsInterface.selector, interfaceId) */\n      dup3\n      mload\n      dup1\n      dup4\n      sub\n      swap1\n      swap2\n      add\n      dup2\n      mstore\n        /* \"#utility.yul\":1096:1114   */\n      0x44\n      swap1\n      swap2\n      add\n        /* \"@openzeppelin/contracts-upgradeable/utils/introspection/ERC165CheckerUpgradeable.sol\":4625:4707  abi.encodeWithSelector(IERC165Upgradeable.supportsInterface.selector, interfaceId) */\n      swap1\n      swap2\n      mstore\n      0x20\n      dup1\n      dup3\n      add\n      dup1\n      mload\n      sub(shl(0xe0, 0x01), 0x01)\n      and\n      shl(0xe0, 0x01ffc9a7)\n      or\n      dup2\n      mstore\n        /* \"@openzeppelin/contracts-upgradeable/utils/introspection/ERC165CheckerUpgradeable.sol\":4915:4935  mload(encodedParams) */\n      dup3\n      mload\n        /* \"@openzeppelin/contracts-upgradeable/utils/introspection/ERC165CheckerUpgradeable.sol\":4556:4560  bool */\n      0x00\n      swap4\n        /* \"@openzeppelin/contracts-upgradeable/utils/introspection/ERC165CheckerUpgradeable.sol\":4625:4707  abi.encodeWithSelector(IERC165Upgradeable.supportsInterface.selector, interfaceId) */\n      swap3\n        /* \"@openzeppelin/contracts-upgradeable/utils/introspection/ERC165CheckerUpgradeable.sol\":4556:4560  bool */\n      dup5\n      swap3\n      dup4\n      swap3\n      dup4\n      swap3\n        /* \"@openzeppelin/contracts-upgradeable/utils/introspection/ERC165CheckerUpgradeable.sol\":4625:4707  abi.encodeWithSelector(IERC165Upgradeable.supportsInterface.selector, interfaceId) */\n      swap2\n        /* \"@openzeppelin/contracts-upgradeable/utils/introspection/ERC165CheckerUpgradeable.sol\":4556:4560  bool */\n      dup4\n      swap2\n        /* \"@openzeppelin/contracts-upgradeable/utils/introspection/ERC165CheckerUpgradeable.sol\":4915:4935  mload(encodedParams) */\n      swap1\n        /* \"@openzeppelin/contracts-upgradeable/utils/introspection/ERC165CheckerUpgradeable.sol\":4880:4887  account */\n      dup11\n        /* \"@openzeppelin/contracts-upgradeable/utils/introspection/ERC165CheckerUpgradeable.sol\":4873:4878  30000 */\n      0x7530\n        /* \"@openzeppelin/contracts-upgradeable/utils/introspection/ERC165CheckerUpgradeable.sol\":4862:4948  staticcall(30000, account, add(encodedParams, 0x20), mload(encodedParams), 0x00, 0x20) */\n      staticcall\n        /* \"@openzeppelin/contracts-upgradeable/utils/introspection/ERC165CheckerUpgradeable.sol\":4851:4948  success := staticcall(30000, account, add(encodedParams, 0x20), mload(encodedParams), 0x00, 0x20) */\n      swap3\n      pop\n        /* \"@openzeppelin/contracts-upgradeable/utils/introspection/ERC165CheckerUpgradeable.sol\":4975:4991  returndatasize() */\n      returndatasize\n        /* \"@openzeppelin/contracts-upgradeable/utils/introspection/ERC165CheckerUpgradeable.sol\":4961:4991  returnSize := returndatasize() */\n      swap2\n      pop\n        /* \"@openzeppelin/contracts-upgradeable/utils/introspection/ERC165CheckerUpgradeable.sol\":5025:5029  0x00 */\n      0x00\n        /* \"@openzeppelin/contracts-upgradeable/utils/introspection/ERC165CheckerUpgradeable.sol\":5019:5030  mload(0x00) */\n      mload\n        /* \"@openzeppelin/contracts-upgradeable/utils/introspection/ERC165CheckerUpgradeable.sol\":5004:5030  returnValue := mload(0x00) */\n      swap1\n      pop\n        /* \"@openzeppelin/contracts-upgradeable/utils/introspection/ERC165CheckerUpgradeable.sol\":5057:5064  success */\n      dup3\n        /* \"@openzeppelin/contracts-upgradeable/utils/introspection/ERC165CheckerUpgradeable.sol\":5057:5086  success && returnSize >= 0x20 */\n      dup1\n      iszero\n      tag_243\n      jumpi\n      pop\n        /* \"@openzeppelin/contracts-upgradeable/utils/introspection/ERC165CheckerUpgradeable.sol\":5082:5086  0x20 */\n      0x20\n        /* \"@openzeppelin/contracts-upgradeable/utils/introspection/ERC165CheckerUpgradeable.sol\":5068:5078  returnSize */\n      dup3\n        /* \"@openzeppelin/contracts-upgradeable/utils/introspection/ERC165CheckerUpgradeable.sol\":5068:5086  returnSize >= 0x20 */\n      lt\n      iszero\n        /* \"@openzeppelin/contracts-upgradeable/utils/introspection/ERC165CheckerUpgradeable.sol\":5057:5086  success && returnSize >= 0x20 */\n    tag_243:\n        /* \"@openzeppelin/contracts-upgradeable/utils/introspection/ERC165CheckerUpgradeable.sol\":5057:5105  success && returnSize >= 0x20 && returnValue > 0 */\n      dup1\n      iszero\n      tag_244\n      jumpi\n      pop\n        /* \"@openzeppelin/contracts-upgradeable/utils/introspection/ERC165CheckerUpgradeable.sol\":5104:5105  0 */\n      0x00\n        /* \"@openzeppelin/contracts-upgradeable/utils/introspection/ERC165CheckerUpgradeable.sol\":5090:5101  returnValue */\n      dup2\n        /* \"@openzeppelin/contracts-upgradeable/utils/introspection/ERC165CheckerUpgradeable.sol\":5090:5105  returnValue > 0 */\n      gt\n        /* \"@openzeppelin/contracts-upgradeable/utils/introspection/ERC165CheckerUpgradeable.sol\":5057:5105  success && returnSize >= 0x20 && returnValue > 0 */\n    tag_244:\n        /* \"@openzeppelin/contracts-upgradeable/utils/introspection/ERC165CheckerUpgradeable.sol\":5050:5105  return success && returnSize >= 0x20 && returnValue > 0 */\n      swap8\n        /* \"@openzeppelin/contracts-upgradeable/utils/introspection/ERC165CheckerUpgradeable.sol\":4454:5112  function supportsERC165InterfaceUnchecked(address account, bytes4 interfaceId) internal view returns (bool) {... */\n      swap7\n      pop\n      pop\n      pop\n      pop\n      pop\n      pop\n      pop\n      jump\t// out\n        /* \"@openzeppelin/contracts/utils/Address.sol\":4625:5207  function verifyCallResultFromTarget(... */\n    tag_234:\n        /* \"@openzeppelin/contracts/utils/Address.sol\":4769:4781  bytes memory */\n      0x60\n        /* \"@openzeppelin/contracts/utils/Address.sol\":4798:4805  success */\n      dup3\n        /* \"@openzeppelin/contracts/utils/Address.sol\":4793:5201  if (!success) {... */\n      tag_246\n      jumpi\n        /* \"@openzeppelin/contracts/utils/Address.sol\":4821:4840  _revert(returndata) */\n      tag_247\n        /* \"@openzeppelin/contracts/utils/Address.sol\":4829:4839  returndata */\n      dup3\n        /* \"@openzeppelin/contracts/utils/Address.sol\":4821:4828  _revert */\n      tag_248\n        /* \"@openzeppelin/contracts/utils/Address.sol\":4821:4840  _revert(returndata) */\n      jump\t// in\n    tag_247:\n        /* \"@openzeppelin/contracts/utils/Address.sol\":4793:5201  if (!success) {... */\n      jump(tag_218)\n    tag_246:\n        /* \"@openzeppelin/contracts/utils/Address.sol\":5045:5062  returndata.length */\n      dup2\n      mload\n        /* \"@openzeppelin/contracts/utils/Address.sol\":5045:5067  returndata.length == 0 */\n      iszero\n        /* \"@openzeppelin/contracts/utils/Address.sol\":5045:5094  returndata.length == 0 && target.code.length == 0 */\n      dup1\n      iszero\n      tag_250\n      jumpi\n      pop\n      sub(shl(0xa0, 0x01), 0x01)\n        /* \"@openzeppelin/contracts/utils/Address.sol\":5071:5089  target.code.length */\n      dup5\n      and\n      extcodesize\n        /* \"@openzeppelin/contracts/utils/Address.sol\":5071:5094  target.code.length == 0 */\n      iszero\n        /* \"@openzeppelin/contracts/utils/Address.sol\":5045:5094  returndata.length == 0 && target.code.length == 0 */\n    tag_250:\n        /* \"@openzeppelin/contracts/utils/Address.sol\":5041:5160  if (returndata.length == 0 && target.code.length == 0) {... */\n      iszero\n      tag_251\n      jumpi\n        /* \"@openzeppelin/contracts/utils/Address.sol\":5121:5145  AddressEmptyCode(target) */\n      mload(0x40)\n      shl(0xe0, 0x9996b315)\n      dup2\n      mstore\n      sub(shl(0xa0, 0x01), 0x01)\n        /* \"#utility.yul\":208:240   */\n      dup6\n      and\n        /* \"@openzeppelin/contracts/utils/Address.sol\":5121:5145  AddressEmptyCode(target) */\n      0x04\n      dup3\n      add\n        /* \"#utility.yul\":190:241   */\n      mstore\n        /* \"#utility.yul\":163:181   */\n      0x24\n      add\n        /* \"@openzeppelin/contracts/utils/Address.sol\":5121:5145  AddressEmptyCode(target) */\n      tag_118\n        /* \"#utility.yul\":14:247   */\n      jump\n        /* \"@openzeppelin/contracts/utils/Address.sol\":5041:5160  if (returndata.length == 0 && target.code.length == 0) {... */\n    tag_251:\n      pop\n        /* \"@openzeppelin/contracts/utils/Address.sol\":5180:5190  returndata */\n      swap3\n        /* \"@openzeppelin/contracts/utils/Address.sol\":4625:5207  function verifyCallResultFromTarget(... */\n      swap2\n      pop\n      pop\n      jump\t// out\n        /* \"@openzeppelin/contracts/utils/Address.sol\":5743:6259  function _revert(bytes memory returndata) private pure {... */\n    tag_248:\n        /* \"@openzeppelin/contracts/utils/Address.sol\":5874:5891  returndata.length */\n      dup1\n      mload\n        /* \"@openzeppelin/contracts/utils/Address.sol\":5874:5895  returndata.length > 0 */\n      iszero\n        /* \"@openzeppelin/contracts/utils/Address.sol\":5870:6253  if (returndata.length > 0) {... */\n      tag_254\n      jumpi\n        /* \"@openzeppelin/contracts/utils/Address.sol\":6102:6112  returndata */\n      dup1\n        /* \"@openzeppelin/contracts/utils/Address.sol\":6096:6113  mload(returndata) */\n      mload\n        /* \"@openzeppelin/contracts/utils/Address.sol\":6158:6173  returndata_size */\n      dup1\n        /* \"@openzeppelin/contracts/utils/Address.sol\":6145:6155  returndata */\n      dup3\n        /* \"@openzeppelin/contracts/utils/Address.sol\":6141:6143  32 */\n      0x20\n        /* \"@openzeppelin/contracts/utils/Address.sol\":6137:6156  add(32, returndata) */\n      add\n        /* \"@openzeppelin/contracts/utils/Address.sol\":6130:6174  revert(add(32, returndata), returndata_size) */\n      revert\n        /* \"@openzeppelin/contracts/utils/Address.sol\":5870:6253  if (returndata.length > 0) {... */\n    tag_254:\n        /* \"@openzeppelin/contracts/utils/Address.sol\":6225:6242  FailedInnerCall() */\n      mload(0x40)\n      shl(0xe1, 0x0a12f521)\n      dup2\n      mstore\n      0x04\n      add\n      mload(0x40)\n      dup1\n      swap2\n      sub\n      swap1\n      revert\n        /* \"@openzeppelin/contracts/utils/Address.sol\":5870:6253  if (returndata.length > 0) {... */\n    tag_255:\n        /* \"@openzeppelin/contracts/utils/Address.sol\":5743:6259  function _revert(bytes memory returndata) private pure {... */\n      pop\n      jump\t// out\n    tag_75:\n      mload(0x40)\n      dup1\n      0x60\n      add\n      0x40\n      mstore\n      dup1\n      0x03\n      swap1\n      0x20\n      dup3\n      mul\n      dup1\n      calldatasize\n      dup4\n      calldatacopy\n      pop\n      swap2\n      swap3\n      swap2\n      pop\n      pop\n      jump\t// out\n        /* \"#utility.yul\":252:753   */\n    tag_24:\n        /* \"#utility.yul\":428:430   */\n      0x60\n        /* \"#utility.yul\":413:431   */\n      dup2\n      add\n        /* \"#utility.yul\":417:426   */\n      dup2\n        /* \"#utility.yul\":508:514   */\n      dup4\n        /* \"#utility.yul\":386:390   */\n      0x00\n        /* \"#utility.yul\":542:747   */\n    tag_263:\n        /* \"#utility.yul\":556:560   */\n      0x03\n        /* \"#utility.yul\":553:554   */\n      dup2\n        /* \"#utility.yul\":550:561   */\n      lt\n        /* \"#utility.yul\":542:747   */\n      iszero\n      tag_265\n      jumpi\n        /* \"#utility.yul\":619:632   */\n      dup2\n      mload\n        /* \"#utility.yul\":634:638   */\n      0xff\n        /* \"#utility.yul\":615:639   */\n      and\n        /* \"#utility.yul\":603:640   */\n      dup4\n      mstore\n        /* \"#utility.yul\":663:667   */\n      0x20\n        /* \"#utility.yul\":687:699   */\n      swap3\n      dup4\n      add\n      swap3\n        /* \"#utility.yul\":722:737   */\n      swap1\n      swap2\n      add\n      swap1\n        /* \"#utility.yul\":576:577   */\n      0x01\n        /* \"#utility.yul\":569:578   */\n      add\n        /* \"#utility.yul\":542:747   */\n      jump(tag_263)\n    tag_265:\n        /* \"#utility.yul\":546:549   */\n      pop\n      pop\n      pop\n        /* \"#utility.yul\":252:753   */\n      swap3\n      swap2\n      pop\n      pop\n      jump\t// out\n        /* \"#utility.yul\":1186:1323   */\n    tag_256:\n      sub(shl(0xa0, 0x01), 0x01)\n        /* \"#utility.yul\":1267:1298   */\n      dup2\n      and\n        /* \"#utility.yul\":1257:1299   */\n      dup2\n      eq\n        /* \"#utility.yul\":1247:1317   */\n      tag_255\n      jumpi\n        /* \"#utility.yul\":1313:1314   */\n      0x00\n        /* \"#utility.yul\":1310:1311   */\n      dup1\n        /* \"#utility.yul\":1303:1315   */\n      revert\n        /* \"#utility.yul\":1328:1771   */\n    tag_38:\n        /* \"#utility.yul\":1439:1445   */\n      0x00\n        /* \"#utility.yul\":1447:1453   */\n      dup1\n        /* \"#utility.yul\":1500:1502   */\n      0x40\n        /* \"#utility.yul\":1488:1497   */\n      dup4\n        /* \"#utility.yul\":1479:1486   */\n      dup6\n        /* \"#utility.yul\":1475:1498   */\n      sub\n        /* \"#utility.yul\":1471:1503   */\n      slt\n        /* \"#utility.yul\":1468:1520   */\n      iszero\n      tag_271\n      jumpi\n        /* \"#utility.yul\":1516:1517   */\n      0x00\n        /* \"#utility.yul\":1513:1514   */\n      dup1\n        /* \"#utility.yul\":1506:1518   */\n      revert\n        /* \"#utility.yul\":1468:1520   */\n    tag_271:\n        /* \"#utility.yul\":1555:1564   */\n      dup3\n        /* \"#utility.yul\":1542:1565   */\n      calldataload\n        /* \"#utility.yul\":1574:1611   */\n      tag_272\n        /* \"#utility.yul\":1605:1610   */\n      dup2\n        /* \"#utility.yul\":1574:1611   */\n      tag_256\n      jump\t// in\n    tag_272:\n        /* \"#utility.yul\":1630:1635   */\n      swap2\n      pop\n        /* \"#utility.yul\":1687:1689   */\n      0x20\n        /* \"#utility.yul\":1672:1690   */\n      dup4\n      add\n        /* \"#utility.yul\":1659:1691   */\n      calldataload\n        /* \"#utility.yul\":1700:1739   */\n      tag_273\n        /* \"#utility.yul\":1659:1691   */\n      dup2\n        /* \"#utility.yul\":1700:1739   */\n      tag_256\n      jump\t// in\n    tag_273:\n        /* \"#utility.yul\":1758:1765   */\n      dup1\n        /* \"#utility.yul\":1748:1765   */\n      swap2\n      pop\n      pop\n        /* \"#utility.yul\":1328:1771   */\n      swap3\n      pop\n      swap3\n      swap1\n      pop\n      jump\t// out\n        /* \"#utility.yul\":1776:1903   */\n    tag_257:\n        /* \"#utility.yul\":1837:1847   */\n      0x4e487b71\n        /* \"#utility.yul\":1832:1835   */\n      0xe0\n        /* \"#utility.yul\":1828:1848   */\n      shl\n        /* \"#utility.yul\":1825:1826   */\n      0x00\n        /* \"#utility.yul\":1818:1849   */\n      mstore\n        /* \"#utility.yul\":1868:1872   */\n      0x41\n        /* \"#utility.yul\":1865:1866   */\n      0x04\n        /* \"#utility.yul\":1858:1873   */\n      mstore\n        /* \"#utility.yul\":1892:1896   */\n      0x24\n        /* \"#utility.yul\":1889:1890   */\n      0x00\n        /* \"#utility.yul\":1882:1897   */\n      revert\n        /* \"#utility.yul\":1908:2970   */\n    tag_42:\n        /* \"#utility.yul\":1985:1991   */\n      0x00\n        /* \"#utility.yul\":1993:1999   */\n      dup1\n        /* \"#utility.yul\":2046:2048   */\n      0x40\n        /* \"#utility.yul\":2034:2043   */\n      dup4\n        /* \"#utility.yul\":2025:2032   */\n      dup6\n        /* \"#utility.yul\":2021:2044   */\n      sub\n        /* \"#utility.yul\":2017:2049   */\n      slt\n        /* \"#utility.yul\":2014:2066   */\n      iszero\n      tag_276\n      jumpi\n        /* \"#utility.yul\":2062:2063   */\n      0x00\n        /* \"#utility.yul\":2059:2060   */\n      dup1\n        /* \"#utility.yul\":2052:2064   */\n      revert\n        /* \"#utility.yul\":2014:2066   */\n    tag_276:\n        /* \"#utility.yul\":2101:2110   */\n      dup3\n        /* \"#utility.yul\":2088:2111   */\n      calldataload\n        /* \"#utility.yul\":2120:2157   */\n      tag_277\n        /* \"#utility.yul\":2151:2156   */\n      dup2\n        /* \"#utility.yul\":2120:2157   */\n      tag_256\n      jump\t// in\n    tag_277:\n        /* \"#utility.yul\":2176:2181   */\n      swap2\n      pop\n        /* \"#utility.yul\":2232:2234   */\n      0x20\n        /* \"#utility.yul\":2217:2235   */\n      dup4\n      add\n        /* \"#utility.yul\":2204:2236   */\n      calldataload\n        /* \"#utility.yul\":2255:2273   */\n      0xffffffffffffffff\n        /* \"#utility.yul\":2285:2299   */\n      dup1\n      dup3\n      gt\n        /* \"#utility.yul\":2282:2316   */\n      iszero\n      tag_278\n      jumpi\n        /* \"#utility.yul\":2312:2313   */\n      0x00\n        /* \"#utility.yul\":2309:2310   */\n      dup1\n        /* \"#utility.yul\":2302:2314   */\n      revert\n        /* \"#utility.yul\":2282:2316   */\n    tag_278:\n        /* \"#utility.yul\":2350:2356   */\n      dup2\n        /* \"#utility.yul\":2339:2348   */\n      dup6\n        /* \"#utility.yul\":2335:2357   */\n      add\n        /* \"#utility.yul\":2325:2357   */\n      swap2\n      pop\n        /* \"#utility.yul\":2395:2402   */\n      dup6\n        /* \"#utility.yul\":2388:2392   */\n      0x1f\n        /* \"#utility.yul\":2384:2386   */\n      dup4\n        /* \"#utility.yul\":2380:2393   */\n      add\n        /* \"#utility.yul\":2376:2403   */\n      slt\n        /* \"#utility.yul\":2366:2421   */\n      tag_279\n      jumpi\n        /* \"#utility.yul\":2417:2418   */\n      0x00\n        /* \"#utility.yul\":2414:2415   */\n      dup1\n        /* \"#utility.yul\":2407:2419   */\n      revert\n        /* \"#utility.yul\":2366:2421   */\n    tag_279:\n        /* \"#utility.yul\":2453:2455   */\n      dup2\n        /* \"#utility.yul\":2440:2456   */\n      calldataload\n        /* \"#utility.yul\":2475:2477   */\n      dup2\n        /* \"#utility.yul\":2471:2473   */\n      dup2\n        /* \"#utility.yul\":2468:2478   */\n      gt\n        /* \"#utility.yul\":2465:2501   */\n      iszero\n      tag_281\n      jumpi\n        /* \"#utility.yul\":2481:2499   */\n      tag_281\n      tag_257\n      jump\t// in\n    tag_281:\n        /* \"#utility.yul\":2556:2558   */\n      0x40\n        /* \"#utility.yul\":2550:2559   */\n      mload\n        /* \"#utility.yul\":2524:2526   */\n      0x1f\n        /* \"#utility.yul\":2610:2623   */\n      dup3\n      add\n      not(0x1f)\n        /* \"#utility.yul\":2606:2628   */\n      swap1\n      dup2\n      and\n        /* \"#utility.yul\":2630:2632   */\n      0x3f\n        /* \"#utility.yul\":2602:2633   */\n      add\n        /* \"#utility.yul\":2598:2638   */\n      and\n        /* \"#utility.yul\":2586:2639   */\n      dup2\n      add\n      swap1\n        /* \"#utility.yul\":2654:2672   */\n      dup4\n      dup3\n      gt\n        /* \"#utility.yul\":2674:2696   */\n      dup2\n      dup4\n      lt\n        /* \"#utility.yul\":2651:2697   */\n      or\n        /* \"#utility.yul\":2648:2720   */\n      iszero\n      tag_283\n      jumpi\n        /* \"#utility.yul\":2700:2718   */\n      tag_283\n      tag_257\n      jump\t// in\n    tag_283:\n        /* \"#utility.yul\":2740:2750   */\n      dup2\n        /* \"#utility.yul\":2736:2738   */\n      0x40\n        /* \"#utility.yul\":2729:2751   */\n      mstore\n        /* \"#utility.yul\":2775:2777   */\n      dup3\n        /* \"#utility.yul\":2767:2773   */\n      dup2\n        /* \"#utility.yul\":2760:2778   */\n      mstore\n        /* \"#utility.yul\":2815:2822   */\n      dup9\n        /* \"#utility.yul\":2810:2812   */\n      0x20\n        /* \"#utility.yul\":2805:2807   */\n      dup5\n        /* \"#utility.yul\":2801:2803   */\n      dup8\n        /* \"#utility.yul\":2797:2808   */\n      add\n        /* \"#utility.yul\":2793:2813   */\n      add\n        /* \"#utility.yul\":2790:2823   */\n      gt\n        /* \"#utility.yul\":2787:2840   */\n      iszero\n      tag_284\n      jumpi\n        /* \"#utility.yul\":2836:2837   */\n      0x00\n        /* \"#utility.yul\":2833:2834   */\n      dup1\n        /* \"#utility.yul\":2826:2838   */\n      revert\n        /* \"#utility.yul\":2787:2840   */\n    tag_284:\n        /* \"#utility.yul\":2892:2894   */\n      dup3\n        /* \"#utility.yul\":2887:2889   */\n      0x20\n        /* \"#utility.yul\":2883:2885   */\n      dup7\n        /* \"#utility.yul\":2879:2890   */\n      add\n        /* \"#utility.yul\":2874:2876   */\n      0x20\n        /* \"#utility.yul\":2866:2872   */\n      dup4\n        /* \"#utility.yul\":2862:2877   */\n      add\n        /* \"#utility.yul\":2849:2895   */\n      calldatacopy\n        /* \"#utility.yul\":2937:2938   */\n      0x00\n        /* \"#utility.yul\":2932:2934   */\n      0x20\n        /* \"#utility.yul\":2927:2929   */\n      dup5\n        /* \"#utility.yul\":2919:2925   */\n      dup4\n        /* \"#utility.yul\":2915:2930   */\n      add\n        /* \"#utility.yul\":2911:2935   */\n      add\n        /* \"#utility.yul\":2904:2939   */\n      mstore\n        /* \"#utility.yul\":2958:2964   */\n      dup1\n        /* \"#utility.yul\":2948:2964   */\n      swap6\n      pop\n      pop\n      pop\n      pop\n      pop\n      pop\n        /* \"#utility.yul\":1908:2970   */\n      swap3\n      pop\n      swap3\n      swap1\n      pop\n      jump\t// out\n        /* \"#utility.yul\":3157:3407   */\n    tag_258:\n        /* \"#utility.yul\":3242:3243   */\n      0x00\n        /* \"#utility.yul\":3252:3365   */\n    tag_287:\n        /* \"#utility.yul\":3266:3272   */\n      dup4\n        /* \"#utility.yul\":3263:3264   */\n      dup2\n        /* \"#utility.yul\":3260:3273   */\n      lt\n        /* \"#utility.yul\":3252:3365   */\n      iszero\n      tag_289\n      jumpi\n        /* \"#utility.yul\":3342:3353   */\n      dup2\n      dup2\n      add\n        /* \"#utility.yul\":3336:3354   */\n      mload\n        /* \"#utility.yul\":3323:3334   */\n      dup4\n      dup3\n      add\n        /* \"#utility.yul\":3316:3355   */\n      mstore\n        /* \"#utility.yul\":3288:3290   */\n      0x20\n        /* \"#utility.yul\":3281:3291   */\n      add\n        /* \"#utility.yul\":3252:3365   */\n      jump(tag_287)\n    tag_289:\n      pop\n      pop\n        /* \"#utility.yul\":3399:3400   */\n      0x00\n        /* \"#utility.yul\":3381:3397   */\n      swap2\n      add\n        /* \"#utility.yul\":3374:3401   */\n      mstore\n        /* \"#utility.yul\":3157:3407   */\n      jump\t// out\n        /* \"#utility.yul\":3412:3808   */\n    tag_61:\n        /* \"#utility.yul\":3561:3563   */\n      0x20\n        /* \"#utility.yul\":3550:3559   */\n      dup2\n        /* \"#utility.yul\":3543:3564   */\n      mstore\n        /* \"#utility.yul\":3524:3528   */\n      0x00\n        /* \"#utility.yul\":3593:3599   */\n      dup3\n        /* \"#utility.yul\":3587:3600   */\n      mload\n        /* \"#utility.yul\":3636:3642   */\n      dup1\n        /* \"#utility.yul\":3631:3633   */\n      0x20\n        /* \"#utility.yul\":3620:3629   */\n      dup5\n        /* \"#utility.yul\":3616:3634   */\n      add\n        /* \"#utility.yul\":3609:3643   */\n      mstore\n        /* \"#utility.yul\":3652:3731   */\n      tag_291\n        /* \"#utility.yul\":3724:3730   */\n      dup2\n        /* \"#utility.yul\":3719:3721   */\n      0x40\n        /* \"#utility.yul\":3708:3717   */\n      dup6\n        /* \"#utility.yul\":3704:3722   */\n      add\n        /* \"#utility.yul\":3699:3701   */\n      0x20\n        /* \"#utility.yul\":3691:3697   */\n      dup8\n        /* \"#utility.yul\":3687:3702   */\n      add\n        /* \"#utility.yul\":3652:3731   */\n      tag_258\n      jump\t// in\n    tag_291:\n        /* \"#utility.yul\":3792:3794   */\n      0x1f\n        /* \"#utility.yul\":3771:3786   */\n      add\n      not(0x1f)\n        /* \"#utility.yul\":3767:3796   */\n      and\n        /* \"#utility.yul\":3752:3797   */\n      swap2\n      swap1\n      swap2\n      add\n        /* \"#utility.yul\":3799:3801   */\n      0x40\n        /* \"#utility.yul\":3748:3802   */\n      add\n      swap3\n        /* \"#utility.yul\":3412:3808   */\n      swap2\n      pop\n      pop\n      jump\t// out\n        /* \"#utility.yul\":3813:4706   */\n    tag_65:\n        /* \"#utility.yul\":3915:3921   */\n      0x00\n        /* \"#utility.yul\":3923:3929   */\n      dup1\n        /* \"#utility.yul\":3931:3937   */\n      0x00\n        /* \"#utility.yul\":3939:3945   */\n      dup1\n        /* \"#utility.yul\":3992:3994   */\n      0x60\n        /* \"#utility.yul\":3980:3989   */\n      dup6\n        /* \"#utility.yul\":3971:3978   */\n      dup8\n        /* \"#utility.yul\":3967:3990   */\n      sub\n        /* \"#utility.yul\":3963:3995   */\n      slt\n        /* \"#utility.yul\":3960:4012   */\n      iszero\n      tag_293\n      jumpi\n        /* \"#utility.yul\":4008:4009   */\n      0x00\n        /* \"#utility.yul\":4005:4006   */\n      dup1\n        /* \"#utility.yul\":3998:4010   */\n      revert\n        /* \"#utility.yul\":3960:4012   */\n    tag_293:\n        /* \"#utility.yul\":4047:4056   */\n      dup5\n        /* \"#utility.yul\":4034:4057   */\n      calldataload\n        /* \"#utility.yul\":4066:4103   */\n      tag_294\n        /* \"#utility.yul\":4097:4102   */\n      dup2\n        /* \"#utility.yul\":4066:4103   */\n      tag_256\n      jump\t// in\n    tag_294:\n        /* \"#utility.yul\":4122:4127   */\n      swap4\n      pop\n        /* \"#utility.yul\":4179:4181   */\n      0x20\n        /* \"#utility.yul\":4164:4182   */\n      dup6\n      add\n        /* \"#utility.yul\":4151:4183   */\n      calldataload\n        /* \"#utility.yul\":4192:4231   */\n      tag_295\n        /* \"#utility.yul\":4151:4183   */\n      dup2\n        /* \"#utility.yul\":4192:4231   */\n      tag_256\n      jump\t// in\n    tag_295:\n        /* \"#utility.yul\":4250:4257   */\n      swap3\n      pop\n        /* \"#utility.yul\":4308:4310   */\n      0x40\n        /* \"#utility.yul\":4293:4311   */\n      dup6\n      add\n        /* \"#utility.yul\":4280:4312   */\n      calldataload\n        /* \"#utility.yul\":4331:4349   */\n      0xffffffffffffffff\n        /* \"#utility.yul\":4361:4375   */\n      dup1\n      dup3\n      gt\n        /* \"#utility.yul\":4358:4392   */\n      iszero\n      tag_296\n      jumpi\n        /* \"#utility.yul\":4388:4389   */\n      0x00\n        /* \"#utility.yul\":4385:4386   */\n      dup1\n        /* \"#utility.yul\":4378:4390   */\n      revert\n        /* \"#utility.yul\":4358:4392   */\n    tag_296:\n        /* \"#utility.yul\":4426:4432   */\n      dup2\n        /* \"#utility.yul\":4415:4424   */\n      dup8\n        /* \"#utility.yul\":4411:4433   */\n      add\n        /* \"#utility.yul\":4401:4433   */\n      swap2\n      pop\n        /* \"#utility.yul\":4471:4478   */\n      dup8\n        /* \"#utility.yul\":4464:4468   */\n      0x1f\n        /* \"#utility.yul\":4460:4462   */\n      dup4\n        /* \"#utility.yul\":4456:4469   */\n      add\n        /* \"#utility.yul\":4452:4479   */\n      slt\n        /* \"#utility.yul\":4442:4497   */\n      tag_297\n      jumpi\n        /* \"#utility.yul\":4493:4494   */\n      0x00\n        /* \"#utility.yul\":4490:4491   */\n      dup1\n        /* \"#utility.yul\":4483:4495   */\n      revert\n        /* \"#utility.yul\":4442:4497   */\n    tag_297:\n        /* \"#utility.yul\":4533:4535   */\n      dup2\n        /* \"#utility.yul\":4520:4536   */\n      calldataload\n        /* \"#utility.yul\":4559:4561   */\n      dup2\n        /* \"#utility.yul\":4551:4557   */\n      dup2\n        /* \"#utility.yul\":4548:4562   */\n      gt\n        /* \"#utility.yul\":4545:4579   */\n      iszero\n      tag_298\n      jumpi\n        /* \"#utility.yul\":4575:4576   */\n      0x00\n        /* \"#utility.yul\":4572:4573   */\n      dup1\n        /* \"#utility.yul\":4565:4577   */\n      revert\n        /* \"#utility.yul\":4545:4579   */\n    tag_298:\n        /* \"#utility.yul\":4620:4627   */\n      dup9\n        /* \"#utility.yul\":4615:4617   */\n      0x20\n        /* \"#utility.yul\":4606:4612   */\n      dup3\n        /* \"#utility.yul\":4602:4604   */\n      dup6\n        /* \"#utility.yul\":4598:4613   */\n      add\n        /* \"#utility.yul\":4594:4618   */\n      add\n        /* \"#utility.yul\":4591:4628   */\n      gt\n        /* \"#utility.yul\":4588:4645   */\n      iszero\n      tag_299\n      jumpi\n        /* \"#utility.yul\":4641:4642   */\n      0x00\n        /* \"#utility.yul\":4638:4639   */\n      dup1\n        /* \"#utility.yul\":4631:4643   */\n      revert\n        /* \"#utility.yul\":4588:4645   */\n    tag_299:\n        /* \"#utility.yul\":3813:4706   */\n      swap6\n      swap9\n      swap5\n      swap8\n      pop\n      pop\n        /* \"#utility.yul\":4672:4674   */\n      0x20\n        /* \"#utility.yul\":4664:4675   */\n      add\n      swap5\n      pop\n      pop\n      pop\n        /* \"#utility.yul\":3813:4706   */\n      jump\t// out\n        /* \"#utility.yul\":4711:4964   */\n    tag_70:\n        /* \"#utility.yul\":4770:4776   */\n      0x00\n        /* \"#utility.yul\":4823:4825   */\n      0x20\n        /* \"#utility.yul\":4811:4820   */\n      dup3\n        /* \"#utility.yul\":4802:4809   */\n      dup5\n        /* \"#utility.yul\":4798:4821   */\n      sub\n        /* \"#utility.yul\":4794:4826   */\n      slt\n        /* \"#utility.yul\":4791:4843   */\n      iszero\n      tag_301\n      jumpi\n        /* \"#utility.yul\":4839:4840   */\n      0x00\n        /* \"#utility.yul\":4836:4837   */\n      dup1\n        /* \"#utility.yul\":4829:4841   */\n      revert\n        /* \"#utility.yul\":4791:4843   */\n    tag_301:\n        /* \"#utility.yul\":4878:4887   */\n      dup2\n        /* \"#utility.yul\":4865:4888   */\n      calldataload\n        /* \"#utility.yul\":4897:4934   */\n      tag_218\n        /* \"#utility.yul\":4928:4933   */\n      dup2\n        /* \"#utility.yul\":4897:4934   */\n      tag_256\n      jump\t// in\n        /* \"#utility.yul\":5375:5642   */\n    tag_259:\n        /* \"#utility.yul\":5464:5470   */\n      dup2\n        /* \"#utility.yul\":5459:5462   */\n      dup4\n        /* \"#utility.yul\":5452:5471   */\n      mstore\n        /* \"#utility.yul\":5516:5522   */\n      dup2\n        /* \"#utility.yul\":5509:5514   */\n      dup2\n        /* \"#utility.yul\":5502:5506   */\n      0x20\n        /* \"#utility.yul\":5497:5500   */\n      dup6\n        /* \"#utility.yul\":5493:5507   */\n      add\n        /* \"#utility.yul\":5480:5523   */\n      calldatacopy\n      pop\n        /* \"#utility.yul\":5568:5569   */\n      0x00\n        /* \"#utility.yul\":5543:5559   */\n      dup3\n      dup3\n      add\n        /* \"#utility.yul\":5561:5565   */\n      0x20\n        /* \"#utility.yul\":5539:5566   */\n      swap1\n      dup2\n      add\n        /* \"#utility.yul\":5532:5570   */\n      swap2\n      swap1\n      swap2\n      mstore\n        /* \"#utility.yul\":5624:5626   */\n      0x1f\n        /* \"#utility.yul\":5603:5618   */\n      swap1\n      swap2\n      add\n      not(0x1f)\n        /* \"#utility.yul\":5599:5628   */\n      and\n        /* \"#utility.yul\":5590:5629   */\n      swap1\n      swap2\n      add\n        /* \"#utility.yul\":5586:5636   */\n      add\n      swap1\n        /* \"#utility.yul\":5375:5642   */\n      jump\t// out\n        /* \"#utility.yul\":5647:5894   */\n    tag_119:\n        /* \"#utility.yul\":5806:5808   */\n      0x20\n        /* \"#utility.yul\":5795:5804   */\n      dup2\n        /* \"#utility.yul\":5788:5809   */\n      mstore\n        /* \"#utility.yul\":5769:5773   */\n      0x00\n        /* \"#utility.yul\":5826:5888   */\n      tag_307\n        /* \"#utility.yul\":5884:5886   */\n      0x20\n        /* \"#utility.yul\":5873:5882   */\n      dup4\n        /* \"#utility.yul\":5869:5887   */\n      add\n        /* \"#utility.yul\":5861:5867   */\n      dup5\n        /* \"#utility.yul\":5853:5859   */\n      dup7\n        /* \"#utility.yul\":5826:5888   */\n      tag_259\n      jump\t// in\n    tag_307:\n        /* \"#utility.yul\":5818:5888   */\n      swap5\n        /* \"#utility.yul\":5647:5894   */\n      swap4\n      pop\n      pop\n      pop\n      pop\n      jump\t// out\n        /* \"#utility.yul\":5899:6170   */\n    tag_121:\n        /* \"#utility.yul\":6082:6088   */\n      dup2\n        /* \"#utility.yul\":6074:6080   */\n      dup4\n        /* \"#utility.yul\":6069:6072   */\n      dup3\n        /* \"#utility.yul\":6056:6089   */\n      calldatacopy\n        /* \"#utility.yul\":6038:6041   */\n      0x00\n        /* \"#utility.yul\":6108:6124   */\n      swap2\n      add\n        /* \"#utility.yul\":6133:6146   */\n      swap1\n      dup2\n      mstore\n        /* \"#utility.yul\":6108:6124   */\n      swap2\n        /* \"#utility.yul\":5899:6170   */\n      swap1\n      pop\n      jump\t// out\n        /* \"#utility.yul\":6454:6638   */\n    tag_148:\n        /* \"#utility.yul\":6524:6530   */\n      0x00\n        /* \"#utility.yul\":6577:6579   */\n      0x20\n        /* \"#utility.yul\":6565:6574   */\n      dup3\n        /* \"#utility.yul\":6556:6563   */\n      dup5\n        /* \"#utility.yul\":6552:6575   */\n      sub\n        /* \"#utility.yul\":6548:6580   */\n      slt\n        /* \"#utility.yul\":6545:6597   */\n      iszero\n      tag_311\n      jumpi\n        /* \"#utility.yul\":6593:6594   */\n      0x00\n        /* \"#utility.yul\":6590:6591   */\n      dup1\n        /* \"#utility.yul\":6583:6595   */\n      revert\n        /* \"#utility.yul\":6545:6597   */\n    tag_311:\n      pop\n        /* \"#utility.yul\":6616:6632   */\n      mload\n      swap2\n        /* \"#utility.yul\":6454:6638   */\n      swap1\n      pop\n      jump\t// out\n        /* \"#utility.yul\":6851:7367   */\n    tag_166:\n      sub(shl(0xa0, 0x01), 0x01)\n        /* \"#utility.yul\":7130:7145   */\n      dup7\n      dup2\n      and\n        /* \"#utility.yul\":7112:7146   */\n      dup3\n      mstore\n        /* \"#utility.yul\":7182:7197   */\n      dup6\n      and\n        /* \"#utility.yul\":7177:7179   */\n      0x20\n        /* \"#utility.yul\":7162:7180   */\n      dup3\n      add\n        /* \"#utility.yul\":7155:7198   */\n      mstore\n        /* \"#utility.yul\":7229:7231   */\n      0x40\n        /* \"#utility.yul\":7214:7232   */\n      dup2\n      add\n        /* \"#utility.yul\":7207:7241   */\n      dup5\n      swap1\n      mstore\n        /* \"#utility.yul\":7277:7280   */\n      0x80\n        /* \"#utility.yul\":7272:7274   */\n      0x60\n        /* \"#utility.yul\":7257:7275   */\n      dup3\n      add\n        /* \"#utility.yul\":7250:7281   */\n      dup2\n      swap1\n      mstore\n        /* \"#utility.yul\":7055:7059   */\n      0x00\n      swap1\n        /* \"#utility.yul\":7298:7361   */\n      tag_244\n      swap1\n        /* \"#utility.yul\":7341:7360   */\n      dup4\n      add\n        /* \"#utility.yul\":7333:7339   */\n      dup5\n        /* \"#utility.yul\":7325:7331   */\n      dup7\n        /* \"#utility.yul\":7298:7361   */\n      tag_259\n      jump\t// in\n        /* \"#utility.yul\":7372:7649   */\n    tag_170:\n        /* \"#utility.yul\":7439:7445   */\n      0x00\n        /* \"#utility.yul\":7492:7494   */\n      0x20\n        /* \"#utility.yul\":7480:7489   */\n      dup3\n        /* \"#utility.yul\":7471:7478   */\n      dup5\n        /* \"#utility.yul\":7467:7490   */\n      sub\n        /* \"#utility.yul\":7463:7495   */\n      slt\n        /* \"#utility.yul\":7460:7512   */\n      iszero\n      tag_316\n      jumpi\n        /* \"#utility.yul\":7508:7509   */\n      0x00\n        /* \"#utility.yul\":7505:7506   */\n      dup1\n        /* \"#utility.yul\":7498:7510   */\n      revert\n        /* \"#utility.yul\":7460:7512   */\n    tag_316:\n        /* \"#utility.yul\":7540:7549   */\n      dup2\n        /* \"#utility.yul\":7534:7550   */\n      mload\n        /* \"#utility.yul\":7593:7598   */\n      dup1\n        /* \"#utility.yul\":7586:7599   */\n      iszero\n        /* \"#utility.yul\":7579:7600   */\n      iszero\n        /* \"#utility.yul\":7572:7577   */\n      dup2\n        /* \"#utility.yul\":7569:7601   */\n      eq\n        /* \"#utility.yul\":7559:7619   */\n      tag_218\n      jumpi\n        /* \"#utility.yul\":7615:7616   */\n      0x00\n        /* \"#utility.yul\":7612:7613   */\n      dup1\n        /* \"#utility.yul\":7605:7617   */\n      revert\n        /* \"#utility.yul\":8115:8242   */\n    tag_187:\n        /* \"#utility.yul\":8176:8186   */\n      0x4e487b71\n        /* \"#utility.yul\":8171:8174   */\n      0xe0\n        /* \"#utility.yul\":8167:8187   */\n      shl\n        /* \"#utility.yul\":8164:8165   */\n      0x00\n        /* \"#utility.yul\":8157:8188   */\n      mstore\n        /* \"#utility.yul\":8207:8211   */\n      0x32\n        /* \"#utility.yul\":8204:8205   */\n      0x04\n        /* \"#utility.yul\":8197:8212   */\n      mstore\n        /* \"#utility.yul\":8231:8235   */\n      0x24\n        /* \"#utility.yul\":8228:8229   */\n      0x00\n        /* \"#utility.yul\":8221:8236   */\n      revert\n        /* \"#utility.yul\":8247:8479   */\n    tag_194:\n        /* \"#utility.yul\":8286:8289   */\n      0x00\n        /* \"#utility.yul\":8307:8324   */\n      0x01\n      dup3\n      add\n        /* \"#utility.yul\":8304:8444   */\n      tag_321\n      jumpi\n        /* \"#utility.yul\":8366:8376   */\n      0x4e487b71\n        /* \"#utility.yul\":8361:8364   */\n      0xe0\n        /* \"#utility.yul\":8357:8377   */\n      shl\n        /* \"#utility.yul\":8354:8355   */\n      0x00\n        /* \"#utility.yul\":8347:8378   */\n      mstore\n        /* \"#utility.yul\":8401:8405   */\n      0x11\n        /* \"#utility.yul\":8398:8399   */\n      0x04\n        /* \"#utility.yul\":8391:8406   */\n      mstore\n        /* \"#utility.yul\":8429:8433   */\n      0x24\n        /* \"#utility.yul\":8426:8427   */\n      0x00\n        /* \"#utility.yul\":8419:8434   */\n      revert\n        /* \"#utility.yul\":8304:8444   */\n    tag_321:\n      pop\n        /* \"#utility.yul\":8471:8472   */\n      0x01\n        /* \"#utility.yul\":8460:8473   */\n      add\n      swap1\n        /* \"#utility.yul\":8247:8479   */\n      jump\t// out\n        /* \"#utility.yul\":8484:8771   */\n    tag_229:\n        /* \"#utility.yul\":8613:8616   */\n      0x00\n        /* \"#utility.yul\":8651:8657   */\n      dup3\n        /* \"#utility.yul\":8645:8658   */\n      mload\n        /* \"#utility.yul\":8667:8733   */\n      tag_323\n        /* \"#utility.yul\":8726:8732   */\n      dup2\n        /* \"#utility.yul\":8721:8724   */\n      dup5\n        /* \"#utility.yul\":8714:8718   */\n      0x20\n        /* \"#utility.yul\":8706:8712   */\n      dup8\n        /* \"#utility.yul\":8702:8719   */\n      add\n        /* \"#utility.yul\":8667:8733   */\n      tag_258\n      jump\t// in\n    tag_323:\n        /* \"#utility.yul\":8749:8765   */\n      swap2\n      swap1\n      swap2\n      add\n      swap3\n        /* \"#utility.yul\":8484:8771   */\n      swap2\n      pop\n      pop\n      jump\t// out\n    stop\n    data_75b20eef8615de99c108b05f0dbda081c91897128caa336d75dffb97c4132b4d 360894a13ba1a3210667c828492db98dca3e2076cc3735a920a3ca505d382bbc\n\n    auxdata: 0xa2646970667358221220511c52b1c1e0d9fbfc990d22ad5a6696056ca5c76ba22cf8a92a924aeae32e8864736f6c63430008140033\n}\n",
				"bytecode": {
					"linkReferences": {},
					"object": "60a060405230608052348015610013575f80fd5b5061001c610021565b6100d3565b7ff0c57e16840df040f15088dc2f81fe391c3923bec73e23a9662efc9c229c6a00805468010000000000000000900460ff16156100715760405163f92ee8a960e01b815260040160405180910390fd5b80546001600160401b03908116146100d05780546001600160401b0319166001600160401b0390811782556040519081527fc7f505b2f371ae2175ee4913f4499e1f2633a7b5936321eed1cdaeb6115181d29060200160405180910390a15b50565b6080516110976100f95f395f81816105c4015281816105ed015261076301526110975ff3fe6080604052600436106100a4575f3560e01c806352d1902d1161006257806352d1902d1461018757806374574eb7146101a9578063a2298b4b146101dc578063ad3cb1cc1461020f578063ede497391461024c578063f29ee1251461026b575f80fd5b8062077393146100a85780632ae9c600146100e45780634162169f1461010557806344162ef814610121578063485cc955146101535780634f1ef28614610174575b5f80fd5b3480156100b3575f80fd5b506064546100c7906001600160a01b031681565b6040516001600160a01b0390911681526020015b60405180910390f35b3480156100ef575f80fd5b506100f86102a9565b6040516100db9190610ce9565b348015610110575f80fd5b505f546001600160a01b03166100c7565b34801561012c575f80fd5b5060325461013a9060e01b81565b6040516001600160e01b031990911681526020016100db565b34801561015e575f80fd5b5061017261016d366004610d30565b6102d2565b005b610172610182366004610d7b565b610404565b348015610192575f80fd5b5061019b610423565b6040519081526020016100db565b3480156101b4575f80fd5b5061019b7f60b96ff9fb5f29153c29c1747515b8be4ee523d686cc6f453ec294b0afa7293281565b3480156101e7575f80fd5b5061019b7fde5e253d6956bc5fb69cfa564733633f4e53b143e42859306cd13cdc5485621581565b34801561021a575f80fd5b5061023f604051806040016040528060058152602001640352e302e360dc1b81525081565b6040516100db9190610e5b565b348015610257575f80fd5b50610172610266366004610e8d565b61043e565b348015610276575f80fd5b50610299610285366004610f18565b60336020525f908152604090205460ff1681565b60405190151581526020016100db565b6102b1610ccb565b506040805160608101825260018152600460208201525f9181019190915290565b7ff0c57e16840df040f15088dc2f81fe391c3923bec73e23a9662efc9c229c6a008054600160401b810460ff16159067ffffffffffffffff165f811580156103175750825b90505f8267ffffffffffffffff1660011480156103335750303b155b905081158015610341575080155b1561035f5760405163f92ee8a960e01b815260040160405180910390fd5b845467ffffffffffffffff19166001178555831561038957845460ff60401b1916600160401b1785555b61039a876349c2aa3f60e11b61058e565b606480546001600160a01b0319166001600160a01b03881617905583156103fb57845460ff60401b19168555604051600181527fc7f505b2f371ae2175ee4913f4499e1f2633a7b5936321eed1cdaeb6115181d29060200160405180910390a15b50505050505050565b61040c6105b9565b6104158261065f565b61041f8282610697565b5050565b5f61042c610758565b505f8051602061104283398151915290565b5f547fde5e253d6956bc5fb69cfa564733633f4e53b143e42859306cd13cdc548562159061047a906001600160a01b031630335b845f366107a1565b846104848161085b565b8215610539576104948484610904565b6104be578383604051633a5bf49b60e01b81526004016104b5929190610f5b565b60405180910390fd5b5f84846040516104cf929190610f76565b6040519081900381206064546389bb414560e01b8352600483018290526001600160a01b03858116602485015291935016906389bb4145906044015f604051808303815f87803b158015610521575f80fd5b505af1158015610533573d5f803e3d5ffd5b50505050505b846001600160a01b0316816001600160a01b03167fbc0b11fe649bb4d67c7fb40936163e5423f45c3ae83fbd8f8f8c75e1a3fa97af868660405161057e929190610f5b565b60405180910390a3505050505050565b6105966109ae565b61059f826109f7565b6032805463ffffffff191660e09290921c91909117905550565b306001600160a01b037f000000000000000000000000000000000000000000000000000000000000000016148061063f57507f00000000000000000000000000000000000000000000000000000000000000006001600160a01b03166106335f80516020611042833981519152546001600160a01b031690565b6001600160a01b031614155b1561065d5760405163703e46dd60e11b815260040160405180910390fd5b565b5f547f60b96ff9fb5f29153c29c1747515b8be4ee523d686cc6f453ec294b0afa729329061041f906001600160a01b03163033610472565b816001600160a01b03166352d1902d6040518163ffffffff1660e01b8152600401602060405180830381865afa9250505080156106f1575060408051601f3d908101601f191682019092526106ee91810190610f85565b60015b61071957604051634c9c8ce360e01b81526001600160a01b03831660048201526024016104b5565b5f80516020611042833981519152811461074957604051632a87526960e21b8152600481018290526024016104b5565b6107538383610a20565b505050565b306001600160a01b037f0000000000000000000000000000000000000000000000000000000000000000161461065d5760405163703e46dd60e11b815260040160405180910390fd5b604051637ef7c88360e11b81526001600160a01b0387169063fdef9106906107d59088908890889088908890600401610f9c565b602060405180830381865afa1580156107f0573d5f803e3d5ffd5b505050506040513d601f19601f820116820180604052508101906108149190610fcf565b61085357604051630cb6f8ed60e21b81526001600160a01b038088166004830152808716602483015285166044820152606481018490526084016104b5565b505050505050565b6001600160a01b0381165f9081526033602052604090205460ff161561089f5760405163fdcce17f60e01b81526001600160a01b03821660048201526024016104b5565b6032546108b9906001600160a01b0383169060e01b610a75565b6108e1576040516338811e4560e11b81526001600160a01b03821660048201526024016104b5565b6001600160a01b03165f908152603360205260409020805460ff19166001179055565b5f828280835b8181101561099f575f84848381811061092557610925610fee565b919091013560f81c9150506060811180156109435750607b8160ff16105b1561094e575061098d565b602f8160ff161180156109645750603a8160ff16105b1561096f575061098d565b8060ff16602d03610980575061098d565b5f955050505050506109a8565b8061099781611002565b91505061090a565b50600193505050505b92915050565b7ff0c57e16840df040f15088dc2f81fe391c3923bec73e23a9662efc9c229c6a0054600160401b900460ff1661065d57604051631afcd79f60e31b815260040160405180910390fd5b6109ff6109ae565b5f80546001600160a01b0319166001600160a01b0392909216919091179055565b610a2982610a97565b6040516001600160a01b038316907fbc7cd75a20ee27fd9adebab32041f755214dbc6bffa90cc0225b39da2e5c2d3b905f90a2805115610a6d576107538282610afa565b61041f610b6c565b5f610a7f83610b8b565b8015610a905750610a908383610bbd565b9392505050565b806001600160a01b03163b5f03610acc57604051634c9c8ce360e01b81526001600160a01b03821660048201526024016104b5565b5f8051602061104283398151915280546001600160a01b0319166001600160a01b0392909216919091179055565b60605f80846001600160a01b031684604051610b169190611026565b5f60405180830381855af49150503d805f8114610b4e576040519150601f19603f3d011682016040523d82523d5f602084013e610b53565b606091505b5091509150610b63858383610c43565b95945050505050565b341561065d5760405163b398979f60e01b815260040160405180910390fd5b5f610b9d826301ffc9a760e01b610bbd565b80156109a85750610bb6826001600160e01b0319610bbd565b1592915050565b604080516001600160e01b03198316602480830191909152825180830390910181526044909101909152602080820180516001600160e01b03166301ffc9a760e01b17815282515f9392849283928392918391908a617530fa92503d91505f519050828015610c2d575060208210155b8015610c3857505f81115b979650505050505050565b606082610c5857610c5382610c9f565b610a90565b8151158015610c6f57506001600160a01b0384163b155b15610c9857604051639996b31560e01b81526001600160a01b03851660048201526024016104b5565b5092915050565b805115610caf5780518082602001fd5b604051630a12f52160e11b815260040160405180910390fd5b50565b60405180606001604052806003906020820280368337509192915050565b6060810181835f5b6003811015610d1357815160ff16835260209283019290910190600101610cf1565b50505092915050565b6001600160a01b0381168114610cc8575f80fd5b5f8060408385031215610d41575f80fd5b8235610d4c81610d1c565b91506020830135610d5c81610d1c565b809150509250929050565b634e487b7160e01b5f52604160045260245ffd5b5f8060408385031215610d8c575f80fd5b8235610d9781610d1c565b9150602083013567ffffffffffffffff80821115610db3575f80fd5b818501915085601f830112610dc6575f80fd5b813581811115610dd857610dd8610d67565b604051601f8201601f19908116603f01168101908382118183101715610e0057610e00610d67565b81604052828152886020848701011115610e18575f80fd5b826020860160208301375f6020848301015280955050505050509250929050565b5f5b83811015610e53578181015183820152602001610e3b565b50505f910152565b602081525f8251806020840152610e79816040850160208701610e39565b601f01601f19169190910160400192915050565b5f805f8060608587031215610ea0575f80fd5b8435610eab81610d1c565b93506020850135610ebb81610d1c565b9250604085013567ffffffffffffffff80821115610ed7575f80fd5b818701915087601f830112610eea575f80fd5b813581811115610ef8575f80fd5b886020828501011115610f09575f80fd5b95989497505060200194505050565b5f60208284031215610f28575f80fd5b8135610a9081610d1c565b81835281816020850137505f828201602090810191909152601f909101601f19169091010190565b602081525f610f6e602083018486610f33565b949350505050565b818382375f9101908152919050565b5f60208284031215610f95575f80fd5b5051919050565b6001600160a01b03868116825285166020820152604081018490526080606082018190525f90610c389083018486610f33565b5f60208284031215610fdf575f80fd5b81518015158114610a90575f80fd5b634e487b7160e01b5f52603260045260245ffd5b5f6001820161101f57634e487b7160e01b5f52601160045260245ffd5b5060010190565b5f8251611037818460208701610e39565b919091019291505056fe360894a13ba1a3210667c828492db98dca3e2076cc3735a920a3ca505d382bbca2646970667358221220511c52b1c1e0d9fbfc990d22ad5a6696056ca5c76ba22cf8a92a924aeae32e8864736f6c63430008140033",
					"opcodes": "PUSH1 0xA0 PUSH1 0x40 MSTORE ADDRESS PUSH1 0x80 MSTORE CALLVALUE DUP1 ISZERO PUSH2 0x13 JUMPI PUSH0 DUP1 REVERT JUMPDEST POP PUSH2 0x1C PUSH2 0x21 JUMP JUMPDEST PUSH2 0xD3 JUMP JUMPDEST PUSH32 0xF0C57E16840DF040F15088DC2F81FE391C3923BEC73E23A9662EFC9C229C6A00 DUP1 SLOAD PUSH9 0x10000000000000000 SWAP1 DIV PUSH1 0xFF AND ISZERO PUSH2 0x71 JUMPI PUSH1 0x40 MLOAD PUSH4 0xF92EE8A9 PUSH1 0xE0 SHL DUP2 MSTORE PUSH1 0x4 ADD PUSH1 0x40 MLOAD DUP1 SWAP2 SUB SWAP1 REVERT JUMPDEST DUP1 SLOAD PUSH1 0x1 PUSH1 0x1 PUSH1 0x40 SHL SUB SWAP1 DUP2 AND EQ PUSH2 0xD0 JUMPI DUP1 SLOAD PUSH1 0x1 PUSH1 0x1 PUSH1 0x40 SHL SUB NOT AND PUSH1 0x1 PUSH1 0x1 PUSH1 0x40 SHL SUB SWAP1 DUP2 OR DUP3 SSTORE PUSH1 0x40 MLOAD SWAP1 DUP2 MSTORE PUSH32 0xC7F505B2F371AE2175EE4913F4499E1F2633A7B5936321EED1CDAEB6115181D2 SWAP1 PUSH1 0x20 ADD PUSH1 0x40 MLOAD DUP1 SWAP2 SUB SWAP1 LOG1 JUMPDEST POP JUMP JUMPDEST PUSH1 0x80 MLOAD PUSH2 0x1097 PUSH2 0xF9 PUSH0 CODECOPY PUSH0 DUP2 DUP2 PUSH2 0x5C4 ADD MSTORE DUP2 DUP2 PUSH2 0x5ED ADD MSTORE PUSH2 0x763 ADD MSTORE PUSH2 0x1097 PUSH0 RETURN INVALID PUSH1 0x80 PUSH1 0x40 MSTORE PUSH1 0x4 CALLDATASIZE LT PUSH2 0xA4 JUMPI PUSH0 CALLDATALOAD PUSH1 0xE0 SHR DUP1 PUSH4 0x52D1902D GT PUSH2 0x62 JUMPI DUP1 PUSH4 0x52D1902D EQ PUSH2 0x187 JUMPI DUP1 PUSH4 0x74574EB7 EQ PUSH2 0x1A9 JUMPI DUP1 PUSH4 0xA2298B4B EQ PUSH2 0x1DC JUMPI DUP1 PUSH4 0xAD3CB1CC EQ PUSH2 0x20F JUMPI DUP1 PUSH4 0xEDE49739 EQ PUSH2 0x24C JUMPI DUP1 PUSH4 0xF29EE125 EQ PUSH2 0x26B JUMPI PUSH0 DUP1 REVERT JUMPDEST DUP1 PUSH3 0x77393 EQ PUSH2 0xA8 JUMPI DUP1 PUSH4 0x2AE9C600 EQ PUSH2 0xE4 JUMPI DUP1 PUSH4 0x4162169F EQ PUSH2 0x105 JUMPI DUP1 PUSH4 0x44162EF8 EQ PUSH2 0x121 JUMPI DUP1 PUSH4 0x485CC955 EQ PUSH2 0x153 JUMPI DUP1 PUSH4 0x4F1EF286 EQ PUSH2 0x174 JUMPI JUMPDEST PUSH0 DUP1 REVERT JUMPDEST CALLVALUE DUP1 ISZERO PUSH2 0xB3 JUMPI PUSH0 DUP1 REVERT JUMPDEST POP PUSH1 0x64 SLOAD PUSH2 0xC7 SWAP1 PUSH1 0x1 PUSH1 0x1 PUSH1 0xA0 SHL SUB AND DUP2 JUMP JUMPDEST PUSH1 0x40 MLOAD PUSH1 0x1 PUSH1 0x1 PUSH1 0xA0 SHL SUB SWAP1 SWAP2 AND DUP2 MSTORE PUSH1 0x20 ADD JUMPDEST PUSH1 0x40 MLOAD DUP1 SWAP2 SUB SWAP1 RETURN JUMPDEST CALLVALUE DUP1 ISZERO PUSH2 0xEF JUMPI PUSH0 DUP1 REVERT JUMPDEST POP PUSH2 0xF8 PUSH2 0x2A9 JUMP JUMPDEST PUSH1 0x40 MLOAD PUSH2 0xDB SWAP2 SWAP1 PUSH2 0xCE9 JUMP JUMPDEST CALLVALUE DUP1 ISZERO PUSH2 0x110 JUMPI PUSH0 DUP1 REVERT JUMPDEST POP PUSH0 SLOAD PUSH1 0x1 PUSH1 0x1 PUSH1 0xA0 SHL SUB AND PUSH2 0xC7 JUMP JUMPDEST CALLVALUE DUP1 ISZERO PUSH2 0x12C JUMPI PUSH0 DUP1 REVERT JUMPDEST POP PUSH1 0x32 SLOAD PUSH2 0x13A SWAP1 PUSH1 0xE0 SHL DUP2 JUMP JUMPDEST PUSH1 0x40 MLOAD PUSH1 0x1 PUSH1 0x1 PUSH1 0xE0 SHL SUB NOT SWAP1 SWAP2 AND DUP2 MSTORE PUSH1 0x20 ADD PUSH2 0xDB JUMP JUMPDEST CALLVALUE DUP1 ISZERO PUSH2 0x15E JUMPI PUSH0 DUP1 REVERT JUMPDEST POP PUSH2 0x172 PUSH2 0x16D CALLDATASIZE PUSH1 0x4 PUSH2 0xD30 JUMP JUMPDEST PUSH2 0x2D2 JUMP JUMPDEST STOP JUMPDEST PUSH2 0x172 PUSH2 0x182 CALLDATASIZE PUSH1 0x4 PUSH2 0xD7B JUMP JUMPDEST PUSH2 0x404 JUMP JUMPDEST CALLVALUE DUP1 ISZERO PUSH2 0x192 JUMPI PUSH0 DUP1 REVERT JUMPDEST POP PUSH2 0x19B PUSH2 0x423 JUMP JUMPDEST PUSH1 0x40 MLOAD SWAP1 DUP2 MSTORE PUSH1 0x20 ADD PUSH2 0xDB JUMP JUMPDEST CALLVALUE DUP1 ISZERO PUSH2 0x1B4 JUMPI PUSH0 DUP1 REVERT JUMPDEST POP PUSH2 0x19B PUSH32 0x60B96FF9FB5F29153C29C1747515B8BE4EE523D686CC6F453EC294B0AFA72932 DUP2 JUMP JUMPDEST CALLVALUE DUP1 ISZERO PUSH2 0x1E7 JUMPI PUSH0 DUP1 REVERT JUMPDEST POP PUSH2 0x19B PUSH32 0xDE5E253D6956BC5FB69CFA564733633F4E53B143E42859306CD13CDC54856215 DUP2 JUMP JUMPDEST CALLVALUE DUP1 ISZERO PUSH2 0x21A JUMPI PUSH0 DUP1 REVERT JUMPDEST POP PUSH2 0x23F PUSH1 0x40 MLOAD DUP1 PUSH1 0x40 ADD PUSH1 0x40 MSTORE DUP1 PUSH1 0x5 DUP2 MSTORE PUSH1 0x20 ADD PUSH5 0x352E302E3 PUSH1 0xDC SHL DUP2 MSTORE POP DUP2 JUMP JUMPDEST PUSH1 0x40 MLOAD PUSH2 0xDB SWAP2 SWAP1 PUSH2 0xE5B JUMP JUMPDEST CALLVALUE DUP1 ISZERO PUSH2 0x257 JUMPI PUSH0 DUP1 REVERT JUMPDEST POP PUSH2 0x172 PUSH2 0x266 CALLDATASIZE PUSH1 0x4 PUSH2 0xE8D JUMP JUMPDEST PUSH2 0x43E JUMP JUMPDEST CALLVALUE DUP1 ISZERO PUSH2 0x276 JUMPI PUSH0 DUP1 REVERT JUMPDEST POP PUSH2 0x299 PUSH2 0x285 CALLDATASIZE PUSH1 0x4 PUSH2 0xF18 JUMP JUMPDEST PUSH1 0x33 PUSH1 0x20 MSTORE PUSH0 SWAP1 DUP2 MSTORE PUSH1 0x40 SWAP1 KECCAK256 SLOAD PUSH1 0xFF AND DUP2 JUMP JUMPDEST PUSH1 0x40 MLOAD SWAP1 ISZERO ISZERO DUP2 MSTORE PUSH1 0x20 ADD PUSH2 0xDB JUMP JUMPDEST PUSH2 0x2B1 PUSH2 0xCCB JUMP JUMPDEST POP PUSH1 0x40 DUP1 MLOAD PUSH1 0x60 DUP2 ADD DUP3 MSTORE PUSH1 0x1 DUP2 MSTORE PUSH1 0x4 PUSH1 0x20 DUP3 ADD MSTORE PUSH0 SWAP2 DUP2 ADD SWAP2 SWAP1 SWAP2 MSTORE SWAP1 JUMP JUMPDEST PUSH32 0xF0C57E16840DF040F15088DC2F81FE391C3923BEC73E23A9662EFC9C229C6A00 DUP1 SLOAD PUSH1 0x1 PUSH1 0x40 SHL DUP2 DIV PUSH1 0xFF AND ISZERO SWAP1 PUSH8 0xFFFFFFFFFFFFFFFF AND PUSH0 DUP2 ISZERO DUP1 ISZERO PUSH2 0x317 JUMPI POP DUP3 JUMPDEST SWAP1 POP PUSH0 DUP3 PUSH8 0xFFFFFFFFFFFFFFFF AND PUSH1 0x1 EQ DUP1 ISZERO PUSH2 0x333 JUMPI POP ADDRESS EXTCODESIZE ISZERO JUMPDEST SWAP1 POP DUP2 ISZERO DUP1 ISZERO PUSH2 0x341 JUMPI POP DUP1 ISZERO JUMPDEST ISZERO PUSH2 0x35F JUMPI PUSH1 0x40 MLOAD PUSH4 0xF92EE8A9 PUSH1 0xE0 SHL DUP2 MSTORE PUSH1 0x4 ADD PUSH1 0x40 MLOAD DUP1 SWAP2 SUB SWAP1 REVERT JUMPDEST DUP5 SLOAD PUSH8 0xFFFFFFFFFFFFFFFF NOT AND PUSH1 0x1 OR DUP6 SSTORE DUP4 ISZERO PUSH2 0x389 JUMPI DUP5 SLOAD PUSH1 0xFF PUSH1 0x40 SHL NOT AND PUSH1 0x1 PUSH1 0x40 SHL OR DUP6 SSTORE JUMPDEST PUSH2 0x39A DUP8 PUSH4 0x49C2AA3F PUSH1 0xE1 SHL PUSH2 0x58E JUMP JUMPDEST PUSH1 0x64 DUP1 SLOAD PUSH1 0x1 PUSH1 0x1 PUSH1 0xA0 SHL SUB NOT AND PUSH1 0x1 PUSH1 0x1 PUSH1 0xA0 SHL SUB DUP9 AND OR SWAP1 SSTORE DUP4 ISZERO PUSH2 0x3FB JUMPI DUP5 SLOAD PUSH1 0xFF PUSH1 0x40 SHL NOT AND DUP6 SSTORE PUSH1 0x40 MLOAD PUSH1 0x1 DUP2 MSTORE PUSH32 0xC7F505B2F371AE2175EE4913F4499E1F2633A7B5936321EED1CDAEB6115181D2 SWAP1 PUSH1 0x20 ADD PUSH1 0x40 MLOAD DUP1 SWAP2 SUB SWAP1 LOG1 JUMPDEST POP POP POP POP POP POP POP JUMP JUMPDEST PUSH2 0x40C PUSH2 0x5B9 JUMP JUMPDEST PUSH2 0x415 DUP3 PUSH2 0x65F JUMP JUMPDEST PUSH2 0x41F DUP3 DUP3 PUSH2 0x697 JUMP JUMPDEST POP POP JUMP JUMPDEST PUSH0 PUSH2 0x42C PUSH2 0x758 JUMP JUMPDEST POP PUSH0 DUP1 MLOAD PUSH1 0x20 PUSH2 0x1042 DUP4 CODECOPY DUP2 MLOAD SWAP2 MSTORE SWAP1 JUMP JUMPDEST PUSH0 SLOAD PUSH32 0xDE5E253D6956BC5FB69CFA564733633F4E53B143E42859306CD13CDC54856215 SWAP1 PUSH2 0x47A SWAP1 PUSH1 0x1 PUSH1 0x1 PUSH1 0xA0 SHL SUB AND ADDRESS CALLER JUMPDEST DUP5 PUSH0 CALLDATASIZE PUSH2 0x7A1 JUMP JUMPDEST DUP5 PUSH2 0x484 DUP2 PUSH2 0x85B JUMP JUMPDEST DUP3 ISZERO PUSH2 0x539 JUMPI PUSH2 0x494 DUP5 DUP5 PUSH2 0x904 JUMP JUMPDEST PUSH2 0x4BE JUMPI DUP4 DUP4 PUSH1 0x40 MLOAD PUSH4 0x3A5BF49B PUSH1 0xE0 SHL DUP2 MSTORE PUSH1 0x4 ADD PUSH2 0x4B5 SWAP3 SWAP2 SWAP1 PUSH2 0xF5B JUMP JUMPDEST PUSH1 0x40 MLOAD DUP1 SWAP2 SUB SWAP1 REVERT JUMPDEST PUSH0 DUP5 DUP5 PUSH1 0x40 MLOAD PUSH2 0x4CF SWAP3 SWAP2 SWAP1 PUSH2 0xF76 JUMP JUMPDEST PUSH1 0x40 MLOAD SWAP1 DUP2 SWAP1 SUB DUP2 KECCAK256 PUSH1 0x64 SLOAD PUSH4 0x89BB4145 PUSH1 0xE0 SHL DUP4 MSTORE PUSH1 0x4 DUP4 ADD DUP3 SWAP1 MSTORE PUSH1 0x1 PUSH1 0x1 PUSH1 0xA0 SHL SUB DUP6 DUP2 AND PUSH1 0x24 DUP6 ADD MSTORE SWAP2 SWAP4 POP AND SWAP1 PUSH4 0x89BB4145 SWAP1 PUSH1 0x44 ADD PUSH0 PUSH1 0x40 MLOAD DUP1 DUP4 SUB DUP2 PUSH0 DUP8 DUP1 EXTCODESIZE ISZERO DUP1 ISZERO PUSH2 0x521 JUMPI PUSH0 DUP1 REVERT JUMPDEST POP GAS CALL ISZERO DUP1 ISZERO PUSH2 0x533 JUMPI RETURNDATASIZE PUSH0 DUP1 RETURNDATACOPY RETURNDATASIZE PUSH0 REVERT JUMPDEST POP POP POP POP POP JUMPDEST DUP5 PUSH1 0x1 PUSH1 0x1 PUSH1 0xA0 SHL SUB AND DUP2 PUSH1 0x1 PUSH1 0x1 PUSH1 0xA0 SHL SUB AND PUSH32 0xBC0B11FE649BB4D67C7FB40936163E5423F45C3AE83FBD8F8F8C75E1A3FA97AF DUP7 DUP7 PUSH1 0x40 MLOAD PUSH2 0x57E SWAP3 SWAP2 SWAP1 PUSH2 0xF5B JUMP JUMPDEST PUSH1 0x40 MLOAD DUP1 SWAP2 SUB SWAP1 LOG3 POP POP POP POP POP POP JUMP JUMPDEST PUSH2 0x596 PUSH2 0x9AE JUMP JUMPDEST PUSH2 0x59F DUP3 PUSH2 0x9F7 JUMP JUMPDEST PUSH1 0x32 DUP1 SLOAD PUSH4 0xFFFFFFFF NOT AND PUSH1 0xE0 SWAP3 SWAP1 SWAP3 SHR SWAP2 SWAP1 SWAP2 OR SWAP1 SSTORE POP JUMP JUMPDEST ADDRESS PUSH1 0x1 PUSH1 0x1 PUSH1 0xA0 SHL SUB PUSH32 0x0 AND EQ DUP1 PUSH2 0x63F JUMPI POP PUSH32 0x0 PUSH1 0x1 PUSH1 0x1 PUSH1 0xA0 SHL SUB AND PUSH2 0x633 PUSH0 DUP1 MLOAD PUSH1 0x20 PUSH2 0x1042 DUP4 CODECOPY DUP2 MLOAD SWAP2 MSTORE SLOAD PUSH1 0x1 PUSH1 0x1 PUSH1 0xA0 SHL SUB AND SWAP1 JUMP JUMPDEST PUSH1 0x1 PUSH1 0x1 PUSH1 0xA0 SHL SUB AND EQ ISZERO JUMPDEST ISZERO PUSH2 0x65D JUMPI PUSH1 0x40 MLOAD PUSH4 0x703E46DD PUSH1 0xE1 SHL DUP2 MSTORE PUSH1 0x4 ADD PUSH1 0x40 MLOAD DUP1 SWAP2 SUB SWAP1 REVERT JUMPDEST JUMP JUMPDEST PUSH0 SLOAD PUSH32 0x60B96FF9FB5F29153C29C1747515B8BE4EE523D686CC6F453EC294B0AFA72932 SWAP1 PUSH2 0x41F SWAP1 PUSH1 0x1 PUSH1 0x1 PUSH1 0xA0 SHL SUB AND ADDRESS CALLER PUSH2 0x472 JUMP JUMPDEST DUP2 PUSH1 0x1 PUSH1 0x1 PUSH1 0xA0 SHL SUB AND PUSH4 0x52D1902D PUSH1 0x40 MLOAD DUP2 PUSH4 0xFFFFFFFF AND PUSH1 0xE0 SHL DUP2 MSTORE PUSH1 0x4 ADD PUSH1 0x20 PUSH1 0x40 MLOAD DUP1 DUP4 SUB DUP2 DUP7 GAS STATICCALL SWAP3 POP POP POP DUP1 ISZERO PUSH2 0x6F1 JUMPI POP PUSH1 0x40 DUP1 MLOAD PUSH1 0x1F RETURNDATASIZE SWAP1 DUP2 ADD PUSH1 0x1F NOT AND DUP3 ADD SWAP1 SWAP3 MSTORE PUSH2 0x6EE SWAP2 DUP2 ADD SWAP1 PUSH2 0xF85 JUMP JUMPDEST PUSH1 0x1 JUMPDEST PUSH2 0x719 JUMPI PUSH1 0x40 MLOAD PUSH4 0x4C9C8CE3 PUSH1 0xE0 SHL DUP2 MSTORE PUSH1 0x1 PUSH1 0x1 PUSH1 0xA0 SHL SUB DUP4 AND PUSH1 0x4 DUP3 ADD MSTORE PUSH1 0x24 ADD PUSH2 0x4B5 JUMP JUMPDEST PUSH0 DUP1 MLOAD PUSH1 0x20 PUSH2 0x1042 DUP4 CODECOPY DUP2 MLOAD SWAP2 MSTORE DUP2 EQ PUSH2 0x749 JUMPI PUSH1 0x40 MLOAD PUSH4 0x2A875269 PUSH1 0xE2 SHL DUP2 MSTORE PUSH1 0x4 DUP2 ADD DUP3 SWAP1 MSTORE PUSH1 0x24 ADD PUSH2 0x4B5 JUMP JUMPDEST PUSH2 0x753 DUP4 DUP4 PUSH2 0xA20 JUMP JUMPDEST POP POP POP JUMP JUMPDEST ADDRESS PUSH1 0x1 PUSH1 0x1 PUSH1 0xA0 SHL SUB PUSH32 0x0 AND EQ PUSH2 0x65D JUMPI PUSH1 0x40 MLOAD PUSH4 0x703E46DD PUSH1 0xE1 SHL DUP2 MSTORE PUSH1 0x4 ADD PUSH1 0x40 MLOAD DUP1 SWAP2 SUB SWAP1 REVERT JUMPDEST PUSH1 0x40 MLOAD PUSH4 0x7EF7C883 PUSH1 0xE1 SHL DUP2 MSTORE PUSH1 0x1 PUSH1 0x1 PUSH1 0xA0 SHL SUB DUP8 AND SWAP1 PUSH4 0xFDEF9106 SWAP1 PUSH2 0x7D5 SWAP1 DUP9 SWAP1 DUP9 SWAP1 DUP9 SWAP1 DUP9 SWAP1 DUP9 SWAP1 PUSH1 0x4 ADD PUSH2 0xF9C JUMP JUMPDEST PUSH1 0x20 PUSH1 0x40 MLOAD DUP1 DUP4 SUB DUP2 DUP7 GAS STATICCALL ISZERO DUP1 ISZERO PUSH2 0x7F0 JUMPI RETURNDATASIZE PUSH0 DUP1 RETURNDATACOPY RETURNDATASIZE PUSH0 REVERT JUMPDEST POP POP POP POP PUSH1 0x40 MLOAD RETURNDATASIZE PUSH1 0x1F NOT PUSH1 0x1F DUP3 ADD AND DUP3 ADD DUP1 PUSH1 0x40 MSTORE POP DUP2 ADD SWAP1 PUSH2 0x814 SWAP2 SWAP1 PUSH2 0xFCF JUMP JUMPDEST PUSH2 0x853 JUMPI PUSH1 0x40 MLOAD PUSH4 0xCB6F8ED PUSH1 0xE2 SHL DUP2 MSTORE PUSH1 0x1 PUSH1 0x1 PUSH1 0xA0 SHL SUB DUP1 DUP9 AND PUSH1 0x4 DUP4 ADD MSTORE DUP1 DUP8 AND PUSH1 0x24 DUP4 ADD MSTORE DUP6 AND PUSH1 0x44 DUP3 ADD MSTORE PUSH1 0x64 DUP2 ADD DUP5 SWAP1 MSTORE PUSH1 0x84 ADD PUSH2 0x4B5 JUMP JUMPDEST POP POP POP POP POP POP JUMP JUMPDEST PUSH1 0x1 PUSH1 0x1 PUSH1 0xA0 SHL SUB DUP2 AND PUSH0 SWAP1 DUP2 MSTORE PUSH1 0x33 PUSH1 0x20 MSTORE PUSH1 0x40 SWAP1 KECCAK256 SLOAD PUSH1 0xFF AND ISZERO PUSH2 0x89F JUMPI PUSH1 0x40 MLOAD PUSH4 0xFDCCE17F PUSH1 0xE0 SHL DUP2 MSTORE PUSH1 0x1 PUSH1 0x1 PUSH1 0xA0 SHL SUB DUP3 AND PUSH1 0x4 DUP3 ADD MSTORE PUSH1 0x24 ADD PUSH2 0x4B5 JUMP JUMPDEST PUSH1 0x32 SLOAD PUSH2 0x8B9 SWAP1 PUSH1 0x1 PUSH1 0x1 PUSH1 0xA0 SHL SUB DUP4 AND SWAP1 PUSH1 0xE0 SHL PUSH2 0xA75 JUMP JUMPDEST PUSH2 0x8E1 JUMPI PUSH1 0x40 MLOAD PUSH4 0x38811E45 PUSH1 0xE1 SHL DUP2 MSTORE PUSH1 0x1 PUSH1 0x1 PUSH1 0xA0 SHL SUB DUP3 AND PUSH1 0x4 DUP3 ADD MSTORE PUSH1 0x24 ADD PUSH2 0x4B5 JUMP JUMPDEST PUSH1 0x1 PUSH1 0x1 PUSH1 0xA0 SHL SUB AND PUSH0 SWAP1 DUP2 MSTORE PUSH1 0x33 PUSH1 0x20 MSTORE PUSH1 0x40 SWAP1 KECCAK256 DUP1 SLOAD PUSH1 0xFF NOT AND PUSH1 0x1 OR SWAP1 SSTORE JUMP JUMPDEST PUSH0 DUP3 DUP3 DUP1 DUP4 JUMPDEST DUP2 DUP2 LT ISZERO PUSH2 0x99F JUMPI PUSH0 DUP5 DUP5 DUP4 DUP2 DUP2 LT PUSH2 0x925 JUMPI PUSH2 0x925 PUSH2 0xFEE JUMP JUMPDEST SWAP2 SWAP1 SWAP2 ADD CALLDATALOAD PUSH1 0xF8 SHR SWAP2 POP POP PUSH1 0x60 DUP2 GT DUP1 ISZERO PUSH2 0x943 JUMPI POP PUSH1 0x7B DUP2 PUSH1 0xFF AND LT JUMPDEST ISZERO PUSH2 0x94E JUMPI POP PUSH2 0x98D JUMP JUMPDEST PUSH1 0x2F DUP2 PUSH1 0xFF AND GT DUP1 ISZERO PUSH2 0x964 JUMPI POP PUSH1 0x3A DUP2 PUSH1 0xFF AND LT JUMPDEST ISZERO PUSH2 0x96F JUMPI POP PUSH2 0x98D JUMP JUMPDEST DUP1 PUSH1 0xFF AND PUSH1 0x2D SUB PUSH2 0x980 JUMPI POP PUSH2 0x98D JUMP JUMPDEST PUSH0 SWAP6 POP POP POP POP POP POP PUSH2 0x9A8 JUMP JUMPDEST DUP1 PUSH2 0x997 DUP2 PUSH2 0x1002 JUMP JUMPDEST SWAP2 POP POP PUSH2 0x90A JUMP JUMPDEST POP PUSH1 0x1 SWAP4 POP POP POP POP JUMPDEST SWAP3 SWAP2 POP POP JUMP JUMPDEST PUSH32 0xF0C57E16840DF040F15088DC2F81FE391C3923BEC73E23A9662EFC9C229C6A00 SLOAD PUSH1 0x1 PUSH1 0x40 SHL SWAP1 DIV PUSH1 0xFF AND PUSH2 0x65D JUMPI PUSH1 0x40 MLOAD PUSH4 0x1AFCD79F PUSH1 0xE3 SHL DUP2 MSTORE PUSH1 0x4 ADD PUSH1 0x40 MLOAD DUP1 SWAP2 SUB SWAP1 REVERT JUMPDEST PUSH2 0x9FF PUSH2 0x9AE JUMP JUMPDEST PUSH0 DUP1 SLOAD PUSH1 0x1 PUSH1 0x1 PUSH1 0xA0 SHL SUB NOT AND PUSH1 0x1 PUSH1 0x1 PUSH1 0xA0 SHL SUB SWAP3 SWAP1 SWAP3 AND SWAP2 SWAP1 SWAP2 OR SWAP1 SSTORE JUMP JUMPDEST PUSH2 0xA29 DUP3 PUSH2 0xA97 JUMP JUMPDEST PUSH1 0x40 MLOAD PUSH1 0x1 PUSH1 0x1 PUSH1 0xA0 SHL SUB DUP4 AND SWAP1 PUSH32 0xBC7CD75A20EE27FD9ADEBAB32041F755214DBC6BFFA90CC0225B39DA2E5C2D3B SWAP1 PUSH0 SWAP1 LOG2 DUP1 MLOAD ISZERO PUSH2 0xA6D JUMPI PUSH2 0x753 DUP3 DUP3 PUSH2 0xAFA JUMP JUMPDEST PUSH2 0x41F PUSH2 0xB6C JUMP JUMPDEST PUSH0 PUSH2 0xA7F DUP4 PUSH2 0xB8B JUMP JUMPDEST DUP1 ISZERO PUSH2 0xA90 JUMPI POP PUSH2 0xA90 DUP4 DUP4 PUSH2 0xBBD JUMP JUMPDEST SWAP4 SWAP3 POP POP POP JUMP JUMPDEST DUP1 PUSH1 0x1 PUSH1 0x1 PUSH1 0xA0 SHL SUB AND EXTCODESIZE PUSH0 SUB PUSH2 0xACC JUMPI PUSH1 0x40 MLOAD PUSH4 0x4C9C8CE3 PUSH1 0xE0 SHL DUP2 MSTORE PUSH1 0x1 PUSH1 0x1 PUSH1 0xA0 SHL SUB DUP3 AND PUSH1 0x4 DUP3 ADD MSTORE PUSH1 0x24 ADD PUSH2 0x4B5 JUMP JUMPDEST PUSH0 DUP1 MLOAD PUSH1 0x20 PUSH2 0x1042 DUP4 CODECOPY DUP2 MLOAD SWAP2 MSTORE DUP1 SLOAD PUSH1 0x1 PUSH1 0x1 PUSH1 0xA0 SHL SUB NOT AND PUSH1 0x1 PUSH1 0x1 PUSH1 0xA0 SHL SUB SWAP3 SWAP1 SWAP3 AND SWAP2 SWAP1 SWAP2 OR SWAP1 SSTORE JUMP JUMPDEST PUSH1 0x60 PUSH0 DUP1 DUP5 PUSH1 0x1 PUSH1 0x1 PUSH1 0xA0 SHL SUB AND DUP5 PUSH1 0x40 MLOAD PUSH2 0xB16 SWAP2 SWAP1 PUSH2 0x1026 JUMP JUMPDEST PUSH0 PUSH1 0x40 MLOAD DUP1 DUP4 SUB DUP2 DUP6 GAS DELEGATECALL SWAP2 POP POP RETURNDATASIZE DUP1 PUSH0 DUP2 EQ PUSH2 0xB4E JUMPI PUSH1 0x40 MLOAD SWAP2 POP PUSH1 0x1F NOT PUSH1 0x3F RETURNDATASIZE ADD AND DUP3 ADD PUSH1 0x40 MSTORE RETURNDATASIZE DUP3 MSTORE RETURNDATASIZE PUSH0 PUSH1 0x20 DUP5 ADD RETURNDATACOPY PUSH2 0xB53 JUMP JUMPDEST PUSH1 0x60 SWAP2 POP JUMPDEST POP SWAP2 POP SWAP2 POP PUSH2 0xB63 DUP6 DUP4 DUP4 PUSH2 0xC43 JUMP JUMPDEST SWAP6 SWAP5 POP POP POP POP POP JUMP JUMPDEST CALLVALUE ISZERO PUSH2 0x65D JUMPI PUSH1 0x40 MLOAD PUSH4 0xB398979F PUSH1 0xE0 SHL DUP2 MSTORE PUSH1 0x4 ADD PUSH1 0x40 MLOAD DUP1 SWAP2 SUB SWAP1 REVERT JUMPDEST PUSH0 PUSH2 0xB9D DUP3 PUSH4 0x1FFC9A7 PUSH1 0xE0 SHL PUSH2 0xBBD JUMP JUMPDEST DUP1 ISZERO PUSH2 0x9A8 JUMPI POP PUSH2 0xBB6 DUP3 PUSH1 0x1 PUSH1 0x1 PUSH1 0xE0 SHL SUB NOT PUSH2 0xBBD JUMP JUMPDEST ISZERO SWAP3 SWAP2 POP POP JUMP JUMPDEST PUSH1 0x40 DUP1 MLOAD PUSH1 0x1 PUSH1 0x1 PUSH1 0xE0 SHL SUB NOT DUP4 AND PUSH1 0x24 DUP1 DUP4 ADD SWAP2 SWAP1 SWAP2 MSTORE DUP3 MLOAD DUP1 DUP4 SUB SWAP1 SWAP2 ADD DUP2 MSTORE PUSH1 0x44 SWAP1 SWAP2 ADD SWAP1 SWAP2 MSTORE PUSH1 0x20 DUP1 DUP3 ADD DUP1 MLOAD PUSH1 0x1 PUSH1 0x1 PUSH1 0xE0 SHL SUB AND PUSH4 0x1FFC9A7 PUSH1 0xE0 SHL OR DUP2 MSTORE DUP3 MLOAD PUSH0 SWAP4 SWAP3 DUP5 SWAP3 DUP4 SWAP3 DUP4 SWAP3 SWAP2 DUP4 SWAP2 SWAP1 DUP11 PUSH2 0x7530 STATICCALL SWAP3 POP RETURNDATASIZE SWAP2 POP PUSH0 MLOAD SWAP1 POP DUP3 DUP1 ISZERO PUSH2 0xC2D JUMPI POP PUSH1 0x20 DUP3 LT ISZERO JUMPDEST DUP1 ISZERO PUSH2 0xC38 JUMPI POP PUSH0 DUP2 GT JUMPDEST SWAP8 SWAP7 POP POP POP POP POP POP POP JUMP JUMPDEST PUSH1 0x60 DUP3 PUSH2 0xC58 JUMPI PUSH2 0xC53 DUP3 PUSH2 0xC9F JUMP JUMPDEST PUSH2 0xA90 JUMP JUMPDEST DUP2 MLOAD ISZERO DUP1 ISZERO PUSH2 0xC6F JUMPI POP PUSH1 0x1 PUSH1 0x1 PUSH1 0xA0 SHL SUB DUP5 AND EXTCODESIZE ISZERO JUMPDEST ISZERO PUSH2 0xC98 JUMPI PUSH1 0x40 MLOAD PUSH4 0x9996B315 PUSH1 0xE0 SHL DUP2 MSTORE PUSH1 0x1 PUSH1 0x1 PUSH1 0xA0 SHL SUB DUP6 AND PUSH1 0x4 DUP3 ADD MSTORE PUSH1 0x24 ADD PUSH2 0x4B5 JUMP JUMPDEST POP SWAP3 SWAP2 POP POP JUMP JUMPDEST DUP1 MLOAD ISZERO PUSH2 0xCAF JUMPI DUP1 MLOAD DUP1 DUP3 PUSH1 0x20 ADD REVERT JUMPDEST PUSH1 0x40 MLOAD PUSH4 0xA12F521 PUSH1 0xE1 SHL DUP2 MSTORE PUSH1 0x4 ADD PUSH1 0x40 MLOAD DUP1 SWAP2 SUB SWAP1 REVERT JUMPDEST POP JUMP JUMPDEST PUSH1 0x40 MLOAD DUP1 PUSH1 0x60 ADD PUSH1 0x40 MSTORE DUP1 PUSH1 0x3 SWAP1 PUSH1 0x20 DUP3 MUL DUP1 CALLDATASIZE DUP4 CALLDATACOPY POP SWAP2 SWAP3 SWAP2 POP POP JUMP JUMPDEST PUSH1 0x60 DUP2 ADD DUP2 DUP4 PUSH0 JUMPDEST PUSH1 0x3 DUP2 LT ISZERO PUSH2 0xD13 JUMPI DUP2 MLOAD PUSH1 0xFF AND DUP4 MSTORE PUSH1 0x20 SWAP3 DUP4 ADD SWAP3 SWAP1 SWAP2 ADD SWAP1 PUSH1 0x1 ADD PUSH2 0xCF1 JUMP JUMPDEST POP POP POP SWAP3 SWAP2 POP POP JUMP JUMPDEST PUSH1 0x1 PUSH1 0x1 PUSH1 0xA0 SHL SUB DUP2 AND DUP2 EQ PUSH2 0xCC8 JUMPI PUSH0 DUP1 REVERT JUMPDEST PUSH0 DUP1 PUSH1 0x40 DUP4 DUP6 SUB SLT ISZERO PUSH2 0xD41 JUMPI PUSH0 DUP1 REVERT JUMPDEST DUP3 CALLDATALOAD PUSH2 0xD4C DUP2 PUSH2 0xD1C JUMP JUMPDEST SWAP2 POP PUSH1 0x20 DUP4 ADD CALLDATALOAD PUSH2 0xD5C DUP2 PUSH2 0xD1C JUMP JUMPDEST DUP1 SWAP2 POP POP SWAP3 POP SWAP3 SWAP1 POP JUMP JUMPDEST PUSH4 0x4E487B71 PUSH1 0xE0 SHL PUSH0 MSTORE PUSH1 0x41 PUSH1 0x4 MSTORE PUSH1 0x24 PUSH0 REVERT JUMPDEST PUSH0 DUP1 PUSH1 0x40 DUP4 DUP6 SUB SLT ISZERO PUSH2 0xD8C JUMPI PUSH0 DUP1 REVERT JUMPDEST DUP3 CALLDATALOAD PUSH2 0xD97 DUP2 PUSH2 0xD1C JUMP JUMPDEST SWAP2 POP PUSH1 0x20 DUP4 ADD CALLDATALOAD PUSH8 0xFFFFFFFFFFFFFFFF DUP1 DUP3 GT ISZERO PUSH2 0xDB3 JUMPI PUSH0 DUP1 REVERT JUMPDEST DUP2 DUP6 ADD SWAP2 POP DUP6 PUSH1 0x1F DUP4 ADD SLT PUSH2 0xDC6 JUMPI PUSH0 DUP1 REVERT JUMPDEST DUP2 CALLDATALOAD DUP2 DUP2 GT ISZERO PUSH2 0xDD8 JUMPI PUSH2 0xDD8 PUSH2 0xD67 JUMP JUMPDEST PUSH1 0x40 MLOAD PUSH1 0x1F DUP3 ADD PUSH1 0x1F NOT SWAP1 DUP2 AND PUSH1 0x3F ADD AND DUP2 ADD SWAP1 DUP4 DUP3 GT DUP2 DUP4 LT OR ISZERO PUSH2 0xE00 JUMPI PUSH2 0xE00 PUSH2 0xD67 JUMP JUMPDEST DUP2 PUSH1 0x40 MSTORE DUP3 DUP2 MSTORE DUP9 PUSH1 0x20 DUP5 DUP8 ADD ADD GT ISZERO PUSH2 0xE18 JUMPI PUSH0 DUP1 REVERT JUMPDEST DUP3 PUSH1 0x20 DUP7 ADD PUSH1 0x20 DUP4 ADD CALLDATACOPY PUSH0 PUSH1 0x20 DUP5 DUP4 ADD ADD MSTORE DUP1 SWAP6 POP POP POP POP POP POP SWAP3 POP SWAP3 SWAP1 POP JUMP JUMPDEST PUSH0 JUMPDEST DUP4 DUP2 LT ISZERO PUSH2 0xE53 JUMPI DUP2 DUP2 ADD MLOAD DUP4 DUP3 ADD MSTORE PUSH1 0x20 ADD PUSH2 0xE3B JUMP JUMPDEST POP POP PUSH0 SWAP2 ADD MSTORE JUMP JUMPDEST PUSH1 0x20 DUP2 MSTORE PUSH0 DUP3 MLOAD DUP1 PUSH1 0x20 DUP5 ADD MSTORE PUSH2 0xE79 DUP2 PUSH1 0x40 DUP6 ADD PUSH1 0x20 DUP8 ADD PUSH2 0xE39 JUMP JUMPDEST PUSH1 0x1F ADD PUSH1 0x1F NOT AND SWAP2 SWAP1 SWAP2 ADD PUSH1 0x40 ADD SWAP3 SWAP2 POP POP JUMP JUMPDEST PUSH0 DUP1 PUSH0 DUP1 PUSH1 0x60 DUP6 DUP8 SUB SLT ISZERO PUSH2 0xEA0 JUMPI PUSH0 DUP1 REVERT JUMPDEST DUP5 CALLDATALOAD PUSH2 0xEAB DUP2 PUSH2 0xD1C JUMP JUMPDEST SWAP4 POP PUSH1 0x20 DUP6 ADD CALLDATALOAD PUSH2 0xEBB DUP2 PUSH2 0xD1C JUMP JUMPDEST SWAP3 POP PUSH1 0x40 DUP6 ADD CALLDATALOAD PUSH8 0xFFFFFFFFFFFFFFFF DUP1 DUP3 GT ISZERO PUSH2 0xED7 JUMPI PUSH0 DUP1 REVERT JUMPDEST DUP2 DUP8 ADD SWAP2 POP DUP8 PUSH1 0x1F DUP4 ADD SLT PUSH2 0xEEA JUMPI PUSH0 DUP1 REVERT JUMPDEST DUP2 CALLDATALOAD DUP2 DUP2 GT ISZERO PUSH2 0xEF8 JUMPI PUSH0 DUP1 REVERT JUMPDEST DUP9 PUSH1 0x20 DUP3 DUP6 ADD ADD GT ISZERO PUSH2 0xF09 JUMPI PUSH0 DUP1 REVERT JUMPDEST SWAP6 SWAP9 SWAP5 SWAP8 POP POP PUSH1 0x20 ADD SWAP5 POP POP POP JUMP JUMPDEST PUSH0 PUSH1 0x20 DUP3 DUP5 SUB SLT ISZERO PUSH2 0xF28 JUMPI PUSH0 DUP1 REVERT JUMPDEST DUP2 CALLDATALOAD PUSH2 0xA90 DUP2 PUSH2 0xD1C JUMP JUMPDEST DUP2 DUP4 MSTORE DUP2 DUP2 PUSH1 0x20 DUP6 ADD CALLDATACOPY POP PUSH0 DUP3 DUP3 ADD PUSH1 0x20 SWAP1 DUP2 ADD SWAP2 SWAP1 SWAP2 MSTORE PUSH1 0x1F SWAP1 SWAP2 ADD PUSH1 0x1F NOT AND SWAP1 SWAP2 ADD ADD SWAP1 JUMP JUMPDEST PUSH1 0x20 DUP2 MSTORE PUSH0 PUSH2 0xF6E PUSH1 0x20 DUP4 ADD DUP5 DUP7 PUSH2 0xF33 JUMP JUMPDEST SWAP5 SWAP4 POP POP POP POP JUMP JUMPDEST DUP2 DUP4 DUP3 CALLDATACOPY PUSH0 SWAP2 ADD SWAP1 DUP2 MSTORE SWAP2 SWAP1 POP JUMP JUMPDEST PUSH0 PUSH1 0x20 DUP3 DUP5 SUB SLT ISZERO PUSH2 0xF95 JUMPI PUSH0 DUP1 REVERT JUMPDEST POP MLOAD SWAP2 SWAP1 POP JUMP JUMPDEST PUSH1 0x1 PUSH1 0x1 PUSH1 0xA0 SHL SUB DUP7 DUP2 AND DUP3 MSTORE DUP6 AND PUSH1 0x20 DUP3 ADD MSTORE PUSH1 0x40 DUP2 ADD DUP5 SWAP1 MSTORE PUSH1 0x80 PUSH1 0x60 DUP3 ADD DUP2 SWAP1 MSTORE PUSH0 SWAP1 PUSH2 0xC38 SWAP1 DUP4 ADD DUP5 DUP7 PUSH2 0xF33 JUMP JUMPDEST PUSH0 PUSH1 0x20 DUP3 DUP5 SUB SLT ISZERO PUSH2 0xFDF JUMPI PUSH0 DUP1 REVERT JUMPDEST DUP2 MLOAD DUP1 ISZERO ISZERO DUP2 EQ PUSH2 0xA90 JUMPI PUSH0 DUP1 REVERT JUMPDEST PUSH4 0x4E487B71 PUSH1 0xE0 SHL PUSH0 MSTORE PUSH1 0x32 PUSH1 0x4 MSTORE PUSH1 0x24 PUSH0 REVERT JUMPDEST PUSH0 PUSH1 0x1 DUP3 ADD PUSH2 0x101F JUMPI PUSH4 0x4E487B71 PUSH1 0xE0 SHL PUSH0 MSTORE PUSH1 0x11 PUSH1 0x4 MSTORE PUSH1 0x24 PUSH0 REVERT JUMPDEST POP PUSH1 0x1 ADD SWAP1 JUMP JUMPDEST PUSH0 DUP3 MLOAD PUSH2 0x1037 DUP2 DUP5 PUSH1 0x20 DUP8 ADD PUSH2 0xE39 JUMP JUMPDEST SWAP2 SWAP1 SWAP2 ADD SWAP3 SWAP2 POP POP JUMP INVALID CALLDATASIZE ADDMOD SWAP5 LOG1 EXTCODESIZE LOG1 LOG3 0x21 MOD PUSH8 0xC828492DB98DCA3E KECCAK256 PUSH23 0xCC3735A920A3CA505D382BBCA264697066735822122051 SHR MSTORE 0xB1 0xC1 0xE0 0xD9 0xFB 0xFC SWAP10 0xD 0x22 0xAD GAS PUSH7 0x96056CA5C76BA2 0x2C 0xF8 0xA9 0x2A SWAP3 0x4A 0xEA 0xE3 0x2E DUP9 PUSH5 0x736F6C6343 STOP ADDMOD EQ STOP CALLER "
				},
				"gasEstimates": {
					"creation": {
						"codeDepositCost": "849400",
						"executionCost": "infinite",
						"totalCost": "infinite"
					},
					"external": {
						"REGISTER_DAO_PERMISSION_ID()": "238",
						"UPGRADE_INTERFACE_VERSION()": "infinite",
						"UPGRADE_REGISTRY_PERMISSION_ID()": "216",
						"dao()": "2363",
						"entries(address)": "2632",
						"initialize(address,address)": "infinite",
						"protocolVersion()": "infinite",
						"proxiableUUID()": "infinite",
						"register(address,address,string)": "infinite",
						"subdomainRegistrar()": "2326",
						"targetInterfaceId()": "2394",
						"upgradeToAndCall(address,bytes)": "infinite"
					}
				},
				"methodIdentifiers": {
					"REGISTER_DAO_PERMISSION_ID()": "a2298b4b",
					"UPGRADE_INTERFACE_VERSION()": "ad3cb1cc",
					"UPGRADE_REGISTRY_PERMISSION_ID()": "74574eb7",
					"dao()": "4162169f",
					"entries(address)": "f29ee125",
					"initialize(address,address)": "485cc955",
					"protocolVersion()": "2ae9c600",
					"proxiableUUID()": "52d1902d",
					"register(address,address,string)": "ede49739",
					"subdomainRegistrar()": "00077393",
					"targetInterfaceId()": "44162ef8",
					"upgradeToAndCall(address,bytes)": "4f1ef286"
				}
			},
			"storageLayout": {
				"storage": [
					{
						"astId": 2103,
						"contract": "packages/contracts/src/framework/dao/DAORegistry.sol:DAORegistry",
						"label": "dao_",
						"offset": 0,
						"slot": "0",
						"type": "t_contract(IDAO)2088"
					},
					{
						"astId": 2152,
						"contract": "packages/contracts/src/framework/dao/DAORegistry.sol:DAORegistry",
						"label": "__gap",
						"offset": 0,
						"slot": "1",
						"type": "t_array(t_uint256)49_storage"
					},
					{
						"astId": 2378,
						"contract": "packages/contracts/src/framework/dao/DAORegistry.sol:DAORegistry",
						"label": "targetInterfaceId",
						"offset": 0,
						"slot": "50",
						"type": "t_bytes4"
					},
					{
						"astId": 2383,
						"contract": "packages/contracts/src/framework/dao/DAORegistry.sol:DAORegistry",
						"label": "entries",
						"offset": 0,
						"slot": "51",
						"type": "t_mapping(t_address,t_bool)"
					},
					{
						"astId": 2467,
						"contract": "packages/contracts/src/framework/dao/DAORegistry.sol:DAORegistry",
						"label": "__gap",
						"offset": 0,
						"slot": "52",
						"type": "t_array(t_uint256)48_storage"
					},
					{
						"astId": 2230,
						"contract": "packages/contracts/src/framework/dao/DAORegistry.sol:DAORegistry",
						"label": "subdomainRegistrar",
						"offset": 0,
						"slot": "100",
						"type": "t_contract(ENSSubdomainRegistrar)2767"
					},
					{
						"astId": 2350,
						"contract": "packages/contracts/src/framework/dao/DAORegistry.sol:DAORegistry",
						"label": "__gap",
						"offset": 0,
						"slot": "101",
						"type": "t_array(t_uint256)49_storage"
					}
				],
				"types": {
					"t_address": {
						"encoding": "inplace",
						"label": "address",
						"numberOfBytes": "20"
					},
					"t_array(t_uint256)48_storage": {
						"base": "t_uint256",
						"encoding": "inplace",
						"label": "uint256[48]",
						"numberOfBytes": "1536"
					},
					"t_array(t_uint256)49_storage": {
						"base": "t_uint256",
						"encoding": "inplace",
						"label": "uint256[49]",
						"numberOfBytes": "1568"
					},
					"t_bool": {
						"encoding": "inplace",
						"label": "bool",
						"numberOfBytes": "1"
					},
					"t_bytes4": {
						"encoding": "inplace",
						"label": "bytes4",
						"numberOfBytes": "4"
					},
					"t_contract(ENSSubdomainRegistrar)2767": {
						"encoding": "inplace",
						"label": "contract ENSSubdomainRegistrar",
						"numberOfBytes": "20"
					},
					"t_contract(IDAO)2088": {
						"encoding": "inplace",
						"label": "contract IDAO",
						"numberOfBytes": "20"
					},
					"t_mapping(t_address,t_bool)": {
						"encoding": "mapping",
						"key": "t_address",
						"label": "mapping(address => bool)",
						"numberOfBytes": "32",
						"value": "t_bool"
					},
					"t_uint256": {
						"encoding": "inplace",
						"label": "uint256",
						"numberOfBytes": "32"
					}
				}
			},
			"userdoc": {
				"errors": {
					"ContractAlreadyRegistered(address)": [
						{
							"notice": "Thrown if the contract is already registered."
						}
					],
					"ContractERC165SupportInvalid(address)": [
						{
							"notice": "Thrown if the contract does not support ERC165."
						}
					],
					"ContractInterfaceInvalid(address)": [
						{
							"notice": "Thrown if the contract does not support the required interface."
						}
					],
					"DaoUnauthorized(address,address,address,bytes32)": [
						{
							"notice": "Thrown if a call is unauthorized in the associated DAO."
						}
					],
					"InvalidDaoSubdomain(string)": [
						{
							"notice": "Thrown if the DAO subdomain doesn't match the regex `[0-9a-z\\-]`"
						}
					]
				},
				"events": {
					"DAORegistered(address,address,string)": {
						"notice": "Emitted when a new DAO is registered."
					}
				},
				"kind": "user",
				"methods": {
					"REGISTER_DAO_PERMISSION_ID()": {
						"notice": "The ID of the permission required to call the `register` function."
					},
					"UPGRADE_REGISTRY_PERMISSION_ID()": {
						"notice": "The ID of the permission required to call the `_authorizeUpgrade` function."
					},
					"dao()": {
						"notice": "Returns the DAO contract."
					},
					"entries(address)": {
						"notice": "The mapping containing the registry entries returning true for registered contract addresses."
					},
					"initialize(address,address)": {
						"notice": "Initializes the contract."
					},
					"protocolVersion()": {
						"notice": "Returns the semantic Aragon OSx protocol version number that the implementing contract is associated with."
					},
					"register(address,address,string)": {
						"notice": "Registers a DAO by its address. If a non-empty subdomain name is provided that is not taken already, the DAO becomes the owner of the ENS name."
					},
					"subdomainRegistrar()": {
						"notice": "The ENS subdomain registrar registering the DAO subdomains."
					},
					"targetInterfaceId()": {
						"notice": "The [ERC-165](https://eips.ethereum.org/EIPS/eip-165) interface ID that the target contracts being registered must support."
					}
				},
				"notice": "This contract provides the possibility to register a DAO.",
				"version": 1
			}
		}
	}
}