{
	"packages/contracts/src/framework/utils/ens/ENSSubdomainRegistrar.sol": {
		"ENSSubdomainRegistrar": {
			"abi": [
				{
					"inputs": [],
					"stateMutability": "nonpayable",
					"type": "constructor"
				},
				{
					"inputs": [
						{
							"internalType": "bytes32",
							"name": "subnode",
							"type": "bytes32"
						},
						{
							"internalType": "address",
							"name": "nodeOwner",
							"type": "address"
						}
					],
					"name": "AlreadyRegistered",
					"type": "error"
				},
				{
					"inputs": [
						{
							"internalType": "address",
							"name": "dao",
							"type": "address"
						},
						{
							"internalType": "address",
							"name": "where",
							"type": "address"
						},
						{
							"internalType": "address",
							"name": "who",
							"type": "address"
						},
						{
							"internalType": "bytes32",
							"name": "permissionId",
							"type": "bytes32"
						}
					],
					"name": "DaoUnauthorized",
					"type": "error"
				},
				{
					"inputs": [
						{
							"internalType": "bytes32",
							"name": "node",
							"type": "bytes32"
						},
						{
							"internalType": "address",
							"name": "resolver",
							"type": "address"
						}
					],
					"name": "InvalidResolver",
					"type": "error"
				},
				{
					"anonymous": false,
					"inputs": [
						{
							"indexed": false,
							"internalType": "address",
							"name": "previousAdmin",
							"type": "address"
						},
						{
							"indexed": false,
							"internalType": "address",
							"name": "newAdmin",
							"type": "address"
						}
					],
					"name": "AdminChanged",
					"type": "event"
				},
				{
					"anonymous": false,
					"inputs": [
						{
							"indexed": true,
							"internalType": "address",
							"name": "beacon",
							"type": "address"
						}
					],
					"name": "BeaconUpgraded",
					"type": "event"
				},
				{
					"anonymous": false,
					"inputs": [
						{
							"indexed": false,
							"internalType": "uint8",
							"name": "version",
							"type": "uint8"
						}
					],
					"name": "Initialized",
					"type": "event"
				},
				{
					"anonymous": false,
					"inputs": [
						{
							"indexed": true,
							"internalType": "address",
							"name": "implementation",
							"type": "address"
						}
					],
					"name": "Upgraded",
					"type": "event"
				},
				{
					"inputs": [],
					"name": "REGISTER_ENS_SUBDOMAIN_PERMISSION_ID",
					"outputs": [
						{
							"internalType": "bytes32",
							"name": "",
							"type": "bytes32"
						}
					],
					"stateMutability": "view",
					"type": "function"
				},
				{
					"inputs": [],
					"name": "UPGRADE_REGISTRAR_PERMISSION_ID",
					"outputs": [
						{
							"internalType": "bytes32",
							"name": "",
							"type": "bytes32"
						}
					],
					"stateMutability": "view",
					"type": "function"
				},
				{
					"inputs": [],
					"name": "dao",
					"outputs": [
						{
							"internalType": "contract IDAO",
							"name": "",
							"type": "address"
						}
					],
					"stateMutability": "view",
					"type": "function"
				},
				{
					"inputs": [],
					"name": "ens",
					"outputs": [
						{
							"internalType": "contract ENS",
							"name": "",
							"type": "address"
						}
					],
					"stateMutability": "view",
					"type": "function"
				},
				{
					"inputs": [
						{
							"internalType": "contract IDAO",
							"name": "_managingDao",
							"type": "address"
						},
						{
							"internalType": "contract ENS",
							"name": "_ens",
							"type": "address"
						},
						{
							"internalType": "bytes32",
							"name": "_node",
							"type": "bytes32"
						}
					],
					"name": "initialize",
					"outputs": [],
					"stateMutability": "nonpayable",
					"type": "function"
				},
				{
					"inputs": [],
					"name": "node",
					"outputs": [
						{
							"internalType": "bytes32",
							"name": "",
							"type": "bytes32"
						}
					],
					"stateMutability": "view",
					"type": "function"
				},
				{
					"inputs": [],
					"name": "protocolVersion",
					"outputs": [
						{
							"internalType": "uint8[3]",
							"name": "",
							"type": "uint8[3]"
						}
					],
					"stateMutability": "pure",
					"type": "function"
				},
				{
					"inputs": [],
					"name": "proxiableUUID",
					"outputs": [
						{
							"internalType": "bytes32",
							"name": "",
							"type": "bytes32"
						}
					],
					"stateMutability": "view",
					"type": "function"
				},
				{
					"inputs": [
						{
							"internalType": "bytes32",
							"name": "_label",
							"type": "bytes32"
						},
						{
							"internalType": "address",
							"name": "_targetAddress",
							"type": "address"
						}
					],
					"name": "registerSubnode",
					"outputs": [],
					"stateMutability": "nonpayable",
					"type": "function"
				},
				{
					"inputs": [],
					"name": "resolver",
					"outputs": [
						{
							"internalType": "address",
							"name": "",
							"type": "address"
						}
					],
					"stateMutability": "view",
					"type": "function"
				},
				{
					"inputs": [
						{
							"internalType": "address",
							"name": "_resolver",
							"type": "address"
						}
					],
					"name": "setDefaultResolver",
					"outputs": [],
					"stateMutability": "nonpayable",
					"type": "function"
				},
				{
					"inputs": [
						{
							"internalType": "address",
							"name": "newImplementation",
							"type": "address"
						}
					],
					"name": "upgradeTo",
					"outputs": [],
					"stateMutability": "nonpayable",
					"type": "function"
				},
				{
					"inputs": [
						{
							"internalType": "address",
							"name": "newImplementation",
							"type": "address"
						},
						{
							"internalType": "bytes",
							"name": "data",
							"type": "bytes"
						}
					],
					"name": "upgradeToAndCall",
					"outputs": [],
					"stateMutability": "payable",
					"type": "function"
				}
			],
			"devdoc": {
				"author": "Aragon Association - 2022-2023",
				"custom:security-contact": "sirt@aragon.org",
				"errors": {
					"AlreadyRegistered(bytes32,address)": [
						{
							"params": {
								"nodeOwner": "The node owner address.",
								"subnode": "The subnode namehash."
							}
						}
					],
					"DaoUnauthorized(address,address,address,bytes32)": [
						{
							"params": {
								"dao": "The associated DAO.",
								"permissionId": "The permission identifier.",
								"where": "The context in which the authorization reverted.",
								"who": "The address (EOA or contract) missing the permission."
							}
						}
					],
					"InvalidResolver(bytes32,address)": [
						{
							"params": {
								"node": "The node namehash.",
								"resolver": "The node resolver address."
							}
						}
					]
				},
				"kind": "dev",
				"methods": {
					"constructor": {
						"custom:oz-upgrades-unsafe-allow": "constructor",
						"details": "Used to disallow initializing the implementation contract by an attacker for extra safety."
					},
					"dao()": {
						"returns": {
							"_0": "The DAO contract."
						}
					},
					"initialize(address,address,bytes32)": {
						"params": {
							"_ens": "The interface of the ENS registry to be used.",
							"_managingDao": "The interface of the DAO managing the components permissions.",
							"_node": "The ENS parent domain node under which the subdomains are to be registered."
						}
					},
					"protocolVersion()": {
						"details": "This version number is not to be confused with the `release` and `build` numbers found in the `Version.Tag` struct inside the `PluginRepo` contract being used to version plugin setup and associated plugin implementation contracts.",
						"returns": {
							"_0": "Returns the semantic Aragon OSx protocol version number."
						}
					},
					"proxiableUUID()": {
						"details": "Implementation of the ERC1822 {proxiableUUID} function. This returns the storage slot used by the implementation. It is used to validate the implementation's compatibility when performing an upgrade. IMPORTANT: A proxy pointing at a proxiable contract should not be considered proxiable itself, because this risks bricking a proxy that upgrades to it, by delegating to itself until out of gas. Thus it is critical that this function revert if invoked through a proxy. This is guaranteed by the `notDelegated` modifier."
					},
					"registerSubnode(bytes32,address)": {
						"details": "It reverts with no message if this contract isn't the owner nor an approved operator for the given node.",
						"params": {
							"_label": "The labelhash of the subdomain name.",
							"_targetAddress": "The address to which the subdomain resolves."
						}
					},
					"setDefaultResolver(address)": {
						"params": {
							"_resolver": "The resolver contract to be used."
						}
					},
					"upgradeTo(address)": {
						"custom:oz-upgrades-unsafe-allow-reachable": "delegatecall",
						"details": "Upgrade the implementation of the proxy to `newImplementation`. Calls {_authorizeUpgrade}. Emits an {Upgraded} event."
					},
					"upgradeToAndCall(address,bytes)": {
						"custom:oz-upgrades-unsafe-allow-reachable": "delegatecall",
						"details": "Upgrade the implementation of the proxy to `newImplementation`, and subsequently execute the function call encoded in `data`. Calls {_authorizeUpgrade}. Emits an {Upgraded} event."
					}
				},
				"title": "ENSSubdomainRegistrar",
				"version": 1
			},
			"evm": {
				"assembly": "    /* \"packages/contracts/src/framework/utils/ens/ENSSubdomainRegistrar.sol\":1173:5873  contract ENSSubdomainRegistrar is UUPSUpgradeable, DaoAuthorizableUpgradeable, ProtocolVersion {... */\n  mstore(0x40, 0xa0)\n    /* \"https://raw.githubusercontent.com/mzfshark/openzeppelin-contracts/v4.9.3/contracts/proxy/utils/UUPSUpgradeable.sol\":1088:1092  this */\n  address\n    /* \"https://raw.githubusercontent.com/mzfshark/openzeppelin-contracts/v4.9.3/contracts/proxy/utils/UUPSUpgradeable.sol\":1045:1093  address private immutable __self = address(this) */\n  0x80\n  mstore\n    /* \"packages/contracts/src/framework/utils/ens/ENSSubdomainRegistrar.sol\":2612:2667  constructor() {... */\n  callvalue\n  dup1\n  iszero\n  tag_1\n  jumpi\n  0x00\n  dup1\n  revert\ntag_1:\n  pop\n    /* \"packages/contracts/src/framework/utils/ens/ENSSubdomainRegistrar.sol\":2637:2659  _disableInitializers() */\n  tag_4\n    /* \"packages/contracts/src/framework/utils/ens/ENSSubdomainRegistrar.sol\":2637:2657  _disableInitializers */\n  tag_5\n    /* \"packages/contracts/src/framework/utils/ens/ENSSubdomainRegistrar.sol\":2637:2659  _disableInitializers() */\n  jump\t// in\ntag_4:\n    /* \"packages/contracts/src/framework/utils/ens/ENSSubdomainRegistrar.sol\":1173:5873  contract ENSSubdomainRegistrar is UUPSUpgradeable, DaoAuthorizableUpgradeable, ProtocolVersion {... */\n  jump(tag_14)\n    /* \"https://raw.githubusercontent.com/mzfshark/contracts-upgradeable/v4.9.3/contracts/proxy/utils/Initializable.sol\":5939:6219  function _disableInitializers() internal virtual {... */\ntag_5:\n    /* \"https://raw.githubusercontent.com/mzfshark/contracts-upgradeable/v4.9.3/contracts/proxy/utils/Initializable.sol\":6007:6020  _initializing */\n  sload(0x00)\n  0x0100\n  swap1\n  div\n  0xff\n  and\n    /* \"https://raw.githubusercontent.com/mzfshark/contracts-upgradeable/v4.9.3/contracts/proxy/utils/Initializable.sol\":6006:6020  !_initializing */\n  iszero\n    /* \"https://raw.githubusercontent.com/mzfshark/contracts-upgradeable/v4.9.3/contracts/proxy/utils/Initializable.sol\":5998:6064  require(!_initializing, \"Initializable: contract is initializing\") */\n  tag_8\n  jumpi\n  mload(0x40)\n  shl(0xe5, 0x461bcd)\n  dup2\n  mstore\n    /* \"#utility.yul\":216:218   */\n  0x20\n    /* \"https://raw.githubusercontent.com/mzfshark/contracts-upgradeable/v4.9.3/contracts/proxy/utils/Initializable.sol\":5998:6064  require(!_initializing, \"Initializable: contract is initializing\") */\n  0x04\n  dup3\n  add\n    /* \"#utility.yul\":198:219   */\n  mstore\n    /* \"#utility.yul\":255:257   */\n  0x27\n    /* \"#utility.yul\":235:253   */\n  0x24\n  dup3\n  add\n    /* \"#utility.yul\":228:258   */\n  mstore\n    /* \"#utility.yul\":294:328   */\n  0x496e697469616c697a61626c653a20636f6e747261637420697320696e697469\n    /* \"#utility.yul\":274:292   */\n  0x44\n  dup3\n  add\n    /* \"#utility.yul\":267:329   */\n  mstore\n  shl(0xc8, 0x616c697a696e67)\n    /* \"#utility.yul\":345:363   */\n  0x64\n  dup3\n  add\n    /* \"#utility.yul\":338:375   */\n  mstore\n    /* \"#utility.yul\":392:411   */\n  0x84\n  add\n    /* \"https://raw.githubusercontent.com/mzfshark/contracts-upgradeable/v4.9.3/contracts/proxy/utils/Initializable.sol\":5998:6064  require(!_initializing, \"Initializable: contract is initializing\") */\n  mload(0x40)\n  dup1\n  swap2\n  sub\n  swap1\n  revert\ntag_8:\n    /* \"https://raw.githubusercontent.com/mzfshark/contracts-upgradeable/v4.9.3/contracts/proxy/utils/Initializable.sol\":6078:6090  _initialized */\n  sload(0x00)\n    /* \"https://raw.githubusercontent.com/mzfshark/contracts-upgradeable/v4.9.3/contracts/proxy/utils/Initializable.sol\":6094:6109  type(uint8).max */\n  0xff\n    /* \"https://raw.githubusercontent.com/mzfshark/contracts-upgradeable/v4.9.3/contracts/proxy/utils/Initializable.sol\":6078:6090  _initialized */\n  swap1\n  dup2\n  and\n    /* \"https://raw.githubusercontent.com/mzfshark/contracts-upgradeable/v4.9.3/contracts/proxy/utils/Initializable.sol\":6078:6109  _initialized != type(uint8).max */\n  eq\n    /* \"https://raw.githubusercontent.com/mzfshark/contracts-upgradeable/v4.9.3/contracts/proxy/utils/Initializable.sol\":6074:6213  if (_initialized != type(uint8).max) {... */\n  tag_11\n  jumpi\n    /* \"https://raw.githubusercontent.com/mzfshark/contracts-upgradeable/v4.9.3/contracts/proxy/utils/Initializable.sol\":6125:6137  _initialized */\n  0x00\n    /* \"https://raw.githubusercontent.com/mzfshark/contracts-upgradeable/v4.9.3/contracts/proxy/utils/Initializable.sol\":6125:6155  _initialized = type(uint8).max */\n  dup1\n  sload\n  not(0xff)\n  and\n    /* \"https://raw.githubusercontent.com/mzfshark/contracts-upgradeable/v4.9.3/contracts/proxy/utils/Initializable.sol\":6140:6155  type(uint8).max */\n  0xff\n    /* \"https://raw.githubusercontent.com/mzfshark/contracts-upgradeable/v4.9.3/contracts/proxy/utils/Initializable.sol\":6125:6155  _initialized = type(uint8).max */\n  swap1\n  dup2\n  or\n  swap1\n  swap2\n  sstore\n    /* \"https://raw.githubusercontent.com/mzfshark/contracts-upgradeable/v4.9.3/contracts/proxy/utils/Initializable.sol\":6174:6202  Initialized(type(uint8).max) */\n  mload(0x40)\n    /* \"#utility.yul\":564:600   */\n  swap1\n  dup2\n  mstore\n    /* \"https://raw.githubusercontent.com/mzfshark/contracts-upgradeable/v4.9.3/contracts/proxy/utils/Initializable.sol\":6174:6202  Initialized(type(uint8).max) */\n  0x7f26b83ff96e1f2b6a682f133852f6798a09c465da95921460cefb3847402498\n  swap1\n    /* \"#utility.yul\":552:554   */\n  0x20\n    /* \"#utility.yul\":537:555   */\n  add\n    /* \"https://raw.githubusercontent.com/mzfshark/contracts-upgradeable/v4.9.3/contracts/proxy/utils/Initializable.sol\":6174:6202  Initialized(type(uint8).max) */\n  mload(0x40)\n  dup1\n  swap2\n  sub\n  swap1\n  log1\n    /* \"https://raw.githubusercontent.com/mzfshark/contracts-upgradeable/v4.9.3/contracts/proxy/utils/Initializable.sol\":6074:6213  if (_initialized != type(uint8).max) {... */\ntag_11:\n    /* \"https://raw.githubusercontent.com/mzfshark/contracts-upgradeable/v4.9.3/contracts/proxy/utils/Initializable.sol\":5939:6219  function _disableInitializers() internal virtual {... */\n  jump\t// out\n    /* \"#utility.yul\":422:606   */\ntag_14:\n    /* \"packages/contracts/src/framework/utils/ens/ENSSubdomainRegistrar.sol\":1173:5873  contract ENSSubdomainRegistrar is UUPSUpgradeable, DaoAuthorizableUpgradeable, ProtocolVersion {... */\n  mload(0x80)\n  codecopy(0x00, dataOffset(sub_0), dataSize(sub_0))\n  0x00\n  assignImmutable(\"0x4da997d206bb2f0037763b1c2f093b76c8f62bf3113924d5c1a5ef58577f01c9\")\n  return(0x00, dataSize(sub_0))\nstop\n\nsub_0: assembly {\n        /* \"packages/contracts/src/framework/utils/ens/ENSSubdomainRegistrar.sol\":1173:5873  contract ENSSubdomainRegistrar is UUPSUpgradeable, DaoAuthorizableUpgradeable, ProtocolVersion {... */\n      mstore(0x40, 0x80)\n      jumpi(tag_1, lt(calldatasize, 0x04))\n      shr(0xe0, calldataload(0x00))\n      dup1\n      0x52d1902d\n      gt\n      tag_15\n      jumpi\n      dup1\n      0x9848ba51\n      gt\n      tag_16\n      jumpi\n      dup1\n      0x9848ba51\n      eq\n      tag_11\n      jumpi\n      dup1\n      0xaf7b2fed\n      eq\n      tag_12\n      jumpi\n      dup1\n      0xc66485b2\n      eq\n      tag_13\n      jumpi\n      dup1\n      0xd70754ec\n      eq\n      tag_14\n      jumpi\n      0x00\n      dup1\n      revert\n    tag_16:\n      dup1\n      0x52d1902d\n      eq\n      tag_8\n      jumpi\n      dup1\n      0x6133f985\n      eq\n      tag_9\n      jumpi\n      dup1\n      0x89bb4145\n      eq\n      tag_10\n      jumpi\n      0x00\n      dup1\n      revert\n    tag_15:\n      dup1\n      0x04f3bcec\n      eq\n      tag_2\n      jumpi\n      dup1\n      0x2ae9c600\n      eq\n      tag_3\n      jumpi\n      dup1\n      0x3659cfe6\n      eq\n      tag_4\n      jumpi\n      dup1\n      0x3f15457f\n      eq\n      tag_5\n      jumpi\n      dup1\n      0x4162169f\n      eq\n      tag_6\n      jumpi\n      dup1\n      0x4f1ef286\n      eq\n      tag_7\n      jumpi\n    tag_1:\n      0x00\n      dup1\n      revert\n        /* \"packages/contracts/src/framework/utils/ens/ENSSubdomainRegistrar.sol\":1986:2009  address public resolver */\n    tag_2:\n      callvalue\n      dup1\n      iszero\n      tag_17\n      jumpi\n      0x00\n      dup1\n      revert\n    tag_17:\n      pop\n      sload(0x67)\n      tag_18\n      swap1\n      sub(shl(0xa0, 0x01), 0x01)\n      and\n      dup2\n      jump\n    tag_18:\n      mload(0x40)\n      sub(shl(0xa0, 0x01), 0x01)\n        /* \"#utility.yul\":178:210   */\n      swap1\n      swap2\n      and\n        /* \"#utility.yul\":160:211   */\n      dup2\n      mstore\n        /* \"#utility.yul\":148:150   */\n      0x20\n        /* \"#utility.yul\":133:151   */\n      add\n        /* \"packages/contracts/src/framework/utils/ens/ENSSubdomainRegistrar.sol\":1986:2009  address public resolver */\n    tag_20:\n      mload(0x40)\n      dup1\n      swap2\n      sub\n      swap1\n      return\n        /* \"packages/contracts/src/utils/protocol/ProtocolVersion.sol\":656:756  function protocolVersion() public pure returns (uint8[3] memory) {... */\n    tag_3:\n      callvalue\n      dup1\n      iszero\n      tag_22\n      jumpi\n      0x00\n      dup1\n      revert\n    tag_22:\n      pop\n      tag_23\n      tag_24\n      jump\t// in\n    tag_23:\n      mload(0x40)\n      tag_20\n      swap2\n      swap1\n      tag_26\n      jump\t// in\n        /* \"https://raw.githubusercontent.com/mzfshark/openzeppelin-contracts/v4.9.3/contracts/proxy/utils/UUPSUpgradeable.sol\":3143:3338  function upgradeTo(address newImplementation) public virtual onlyProxy {... */\n    tag_4:\n      callvalue\n      dup1\n      iszero\n      tag_27\n      jumpi\n      0x00\n      dup1\n      revert\n    tag_27:\n      pop\n      tag_28\n      tag_29\n      calldatasize\n      0x04\n      tag_30\n      jump\t// in\n    tag_29:\n      tag_31\n      jump\t// in\n    tag_28:\n      stop\n        /* \"packages/contracts/src/framework/utils/ens/ENSSubdomainRegistrar.sol\":1771:1785  ENS public ens */\n    tag_5:\n      callvalue\n      dup1\n      iszero\n      tag_32\n      jumpi\n      0x00\n      dup1\n      revert\n    tag_32:\n      pop\n      sload(0x65)\n      tag_18\n      swap1\n      sub(shl(0xa0, 0x01), 0x01)\n      and\n      dup2\n      jump\n        /* \"packages/contracts/src/core/plugin/dao-authorizable/DaoAuthorizableUpgradeable.sol\":1239:1311  function dao() public view returns (IDAO) {... */\n    tag_6:\n      callvalue\n      dup1\n      iszero\n      tag_37\n      jumpi\n      0x00\n      dup1\n      revert\n    tag_37:\n      pop\n        /* \"packages/contracts/src/core/plugin/dao-authorizable/DaoAuthorizableUpgradeable.sol\":1299:1303  dao_ */\n      and(sub(shl(0xa0, 0x01), 0x01), sload(0x33))\n        /* \"packages/contracts/src/core/plugin/dao-authorizable/DaoAuthorizableUpgradeable.sol\":1239:1311  function dao() public view returns (IDAO) {... */\n      jump(tag_18)\n        /* \"https://raw.githubusercontent.com/mzfshark/openzeppelin-contracts/v4.9.3/contracts/proxy/utils/UUPSUpgradeable.sol\":3657:3877  function upgradeToAndCall(address newImplementation, bytes memory data) public payable virtual onlyProxy {... */\n    tag_7:\n      tag_28\n      tag_43\n      calldatasize\n      0x04\n      tag_44\n      jump\t// in\n    tag_43:\n      tag_45\n      jump\t// in\n        /* \"https://raw.githubusercontent.com/mzfshark/openzeppelin-contracts/v4.9.3/contracts/proxy/utils/UUPSUpgradeable.sol\":2762:2893  function proxiableUUID() external view virtual override notDelegated returns (bytes32) {... */\n    tag_8:\n      callvalue\n      dup1\n      iszero\n      tag_46\n      jumpi\n      0x00\n      dup1\n      revert\n    tag_46:\n      pop\n      tag_47\n      tag_48\n      jump\t// in\n    tag_47:\n      mload(0x40)\n        /* \"#utility.yul\":2895:2920   */\n      swap1\n      dup2\n      mstore\n        /* \"#utility.yul\":2883:2885   */\n      0x20\n        /* \"#utility.yul\":2868:2886   */\n      add\n        /* \"https://raw.githubusercontent.com/mzfshark/openzeppelin-contracts/v4.9.3/contracts/proxy/utils/UUPSUpgradeable.sol\":2762:2893  function proxiableUUID() external view virtual override notDelegated returns (bytes32) {... */\n      tag_20\n        /* \"#utility.yul\":2749:2926   */\n      jump\n        /* \"packages/contracts/src/framework/utils/ens/ENSSubdomainRegistrar.sol\":3276:3696  function initialize(IDAO _managingDao, ENS _ens, bytes32 _node) external initializer {... */\n    tag_9:\n      callvalue\n      dup1\n      iszero\n      tag_51\n      jumpi\n      0x00\n      dup1\n      revert\n    tag_51:\n      pop\n      tag_28\n      tag_53\n      calldatasize\n      0x04\n      tag_54\n      jump\t// in\n    tag_53:\n      tag_55\n      jump\t// in\n        /* \"packages/contracts/src/framework/utils/ens/ENSSubdomainRegistrar.sol\":4545:5103  function registerSubnode(... */\n    tag_10:\n      callvalue\n      dup1\n      iszero\n      tag_56\n      jumpi\n      0x00\n      dup1\n      revert\n    tag_56:\n      pop\n      tag_28\n      tag_58\n      calldatasize\n      0x04\n      tag_59\n      jump\t// in\n    tag_58:\n      tag_60\n      jump\t// in\n        /* \"packages/contracts/src/framework/utils/ens/ENSSubdomainRegistrar.sol\":1601:1719  bytes32 public constant REGISTER_ENS_SUBDOMAIN_PERMISSION_ID =... */\n    tag_11:\n      callvalue\n      dup1\n      iszero\n      tag_61\n      jumpi\n      0x00\n      dup1\n      revert\n    tag_61:\n      pop\n      tag_47\n        /* \"packages/contracts/src/framework/utils/ens/ENSSubdomainRegistrar.sol\":1673:1719  keccak256(\"REGISTER_ENS_SUBDOMAIN_PERMISSION\") */\n      0xbbdfd23f099d7ed9f535e0f97d2123efb1332b16e023b8359b3b879eaecd3c14\n        /* \"packages/contracts/src/framework/utils/ens/ENSSubdomainRegistrar.sol\":1601:1719  bytes32 public constant REGISTER_ENS_SUBDOMAIN_PERMISSION_ID =... */\n      dup2\n      jump\n        /* \"packages/contracts/src/framework/utils/ens/ENSSubdomainRegistrar.sol\":1368:1476  bytes32 public constant UPGRADE_REGISTRAR_PERMISSION_ID =... */\n    tag_12:\n      callvalue\n      dup1\n      iszero\n      tag_65\n      jumpi\n      0x00\n      dup1\n      revert\n    tag_65:\n      pop\n      tag_47\n        /* \"packages/contracts/src/framework/utils/ens/ENSSubdomainRegistrar.sol\":1435:1476  keccak256(\"UPGRADE_REGISTRAR_PERMISSION\") */\n      0xa1fcba4efb1e94b7648f5e0504bfd39734aead5f17965d12705915d771c859ff\n        /* \"packages/contracts/src/framework/utils/ens/ENSSubdomainRegistrar.sol\":1368:1476  bytes32 public constant UPGRADE_REGISTRAR_PERMISSION_ID =... */\n      dup2\n      jump\n        /* \"packages/contracts/src/framework/utils/ens/ENSSubdomainRegistrar.sol\":5278:5557  function setDefaultResolver(... */\n    tag_13:\n      callvalue\n      dup1\n      iszero\n      tag_69\n      jumpi\n      0x00\n      dup1\n      revert\n    tag_69:\n      pop\n      tag_28\n      tag_71\n      calldatasize\n      0x04\n      tag_30\n      jump\t// in\n    tag_71:\n      tag_72\n      jump\t// in\n        /* \"packages/contracts/src/framework/utils/ens/ENSSubdomainRegistrar.sol\":1874:1893  bytes32 public node */\n    tag_14:\n      callvalue\n      dup1\n      iszero\n      tag_73\n      jumpi\n      0x00\n      dup1\n      revert\n    tag_73:\n      pop\n      tag_47\n      sload(0x66)\n      dup2\n      jump\n        /* \"packages/contracts/src/utils/protocol/ProtocolVersion.sol\":656:756  function protocolVersion() public pure returns (uint8[3] memory) {... */\n    tag_24:\n        /* \"packages/contracts/src/utils/protocol/ProtocolVersion.sol\":704:719  uint8[3] memory */\n      tag_77\n      tag_78\n      jump\t// in\n    tag_77:\n      pop\n        /* \"packages/contracts/src/utils/protocol/ProtocolVersion.sol\":732:748  return [1, 4, 0] */\n      0x40\n      dup1\n      mload\n      0x60\n      dup2\n      add\n      dup3\n      mstore\n        /* \"packages/contracts/src/utils/protocol/ProtocolVersion.sol\":740:741  1 */\n      0x01\n        /* \"packages/contracts/src/utils/protocol/ProtocolVersion.sol\":732:748  return [1, 4, 0] */\n      dup2\n      mstore\n        /* \"packages/contracts/src/utils/protocol/ProtocolVersion.sol\":743:744  4 */\n      0x04\n        /* \"packages/contracts/src/utils/protocol/ProtocolVersion.sol\":732:748  return [1, 4, 0] */\n      0x20\n      dup3\n      add\n      mstore\n      0x00\n      swap2\n      dup2\n      add\n      swap2\n      swap1\n      swap2\n      mstore\n      swap1\n        /* \"packages/contracts/src/utils/protocol/ProtocolVersion.sol\":656:756  function protocolVersion() public pure returns (uint8[3] memory) {... */\n      jump\t// out\n        /* \"https://raw.githubusercontent.com/mzfshark/openzeppelin-contracts/v4.9.3/contracts/proxy/utils/UUPSUpgradeable.sol\":3143:3338  function upgradeTo(address newImplementation) public virtual onlyProxy {... */\n    tag_31:\n      sub(shl(0xa0, 0x01), 0x01)\n        /* \"https://raw.githubusercontent.com/mzfshark/openzeppelin-contracts/v4.9.3/contracts/proxy/utils/UUPSUpgradeable.sol\":1654:1660  __self */\n      immutable(\"0x4da997d206bb2f0037763b1c2f093b76c8f62bf3113924d5c1a5ef58577f01c9\")\n        /* \"https://raw.githubusercontent.com/mzfshark/openzeppelin-contracts/v4.9.3/contracts/proxy/utils/UUPSUpgradeable.sol\":1637:1660  address(this) != __self */\n      and\n        /* \"https://raw.githubusercontent.com/mzfshark/openzeppelin-contracts/v4.9.3/contracts/proxy/utils/UUPSUpgradeable.sol\":1645:1649  this */\n      address\n        /* \"https://raw.githubusercontent.com/mzfshark/openzeppelin-contracts/v4.9.3/contracts/proxy/utils/UUPSUpgradeable.sol\":1637:1660  address(this) != __self */\n      sub\n        /* \"https://raw.githubusercontent.com/mzfshark/openzeppelin-contracts/v4.9.3/contracts/proxy/utils/UUPSUpgradeable.sol\":1629:1709  require(address(this) != __self, \"Function must be called through delegatecall\") */\n      tag_81\n      jumpi\n      mload(0x40)\n      shl(0xe5, 0x461bcd)\n      dup2\n      mstore\n      0x04\n      add\n      tag_82\n      swap1\n      tag_83\n      jump\t// in\n    tag_82:\n      mload(0x40)\n      dup1\n      swap2\n      sub\n      swap1\n      revert\n    tag_81:\n        /* \"https://raw.githubusercontent.com/mzfshark/openzeppelin-contracts/v4.9.3/contracts/proxy/utils/UUPSUpgradeable.sol\":1751:1757  __self */\n      immutable(\"0x4da997d206bb2f0037763b1c2f093b76c8f62bf3113924d5c1a5ef58577f01c9\")\n      sub(shl(0xa0, 0x01), 0x01)\n        /* \"https://raw.githubusercontent.com/mzfshark/openzeppelin-contracts/v4.9.3/contracts/proxy/utils/UUPSUpgradeable.sol\":1727:1757  _getImplementation() == __self */\n      and\n        /* \"https://raw.githubusercontent.com/mzfshark/openzeppelin-contracts/v4.9.3/contracts/proxy/utils/UUPSUpgradeable.sol\":1727:1747  _getImplementation() */\n      tag_84\n      0x00\n      dup1\n      mload\n      0x20\n      data_75b20eef8615de99c108b05f0dbda081c91897128caa336d75dffb97c4132b4d\n      dup4\n      codecopy\n      dup2\n      mload\n      swap2\n      mstore\n        /* \"https://raw.githubusercontent.com/mzfshark/openzeppelin-contracts/v4.9.3/contracts/proxy/ERC1967/ERC1967Upgrade.sol\":1254:1308  StorageSlot.getAddressSlot(_IMPLEMENTATION_SLOT).value */\n      sload\n      sub(shl(0xa0, 0x01), 0x01)\n      and\n      swap1\n        /* \"https://raw.githubusercontent.com/mzfshark/openzeppelin-contracts/v4.9.3/contracts/proxy/ERC1967/ERC1967Upgrade.sol\":1175:1315  function _getImplementation() internal view returns (address) {... */\n      jump\n        /* \"https://raw.githubusercontent.com/mzfshark/openzeppelin-contracts/v4.9.3/contracts/proxy/utils/UUPSUpgradeable.sol\":1727:1747  _getImplementation() */\n    tag_84:\n      sub(shl(0xa0, 0x01), 0x01)\n        /* \"https://raw.githubusercontent.com/mzfshark/openzeppelin-contracts/v4.9.3/contracts/proxy/utils/UUPSUpgradeable.sol\":1727:1757  _getImplementation() == __self */\n      and\n      eq\n        /* \"https://raw.githubusercontent.com/mzfshark/openzeppelin-contracts/v4.9.3/contracts/proxy/utils/UUPSUpgradeable.sol\":1719:1806  require(_getImplementation() == __self, \"Function must be called through active proxy\") */\n      tag_86\n      jumpi\n      mload(0x40)\n      shl(0xe5, 0x461bcd)\n      dup2\n      mstore\n      0x04\n      add\n      tag_82\n      swap1\n      tag_88\n      jump\t// in\n    tag_86:\n        /* \"https://raw.githubusercontent.com/mzfshark/openzeppelin-contracts/v4.9.3/contracts/proxy/utils/UUPSUpgradeable.sol\":3224:3260  _authorizeUpgrade(newImplementation) */\n      tag_90\n        /* \"https://raw.githubusercontent.com/mzfshark/openzeppelin-contracts/v4.9.3/contracts/proxy/utils/UUPSUpgradeable.sol\":3242:3259  newImplementation */\n      dup2\n        /* \"https://raw.githubusercontent.com/mzfshark/openzeppelin-contracts/v4.9.3/contracts/proxy/utils/UUPSUpgradeable.sol\":3224:3241  _authorizeUpgrade */\n      tag_91\n        /* \"https://raw.githubusercontent.com/mzfshark/openzeppelin-contracts/v4.9.3/contracts/proxy/utils/UUPSUpgradeable.sol\":3224:3260  _authorizeUpgrade(newImplementation) */\n      jump\t// in\n    tag_90:\n        /* \"https://raw.githubusercontent.com/mzfshark/openzeppelin-contracts/v4.9.3/contracts/proxy/utils/UUPSUpgradeable.sol\":3311:3323  new bytes(0) */\n      0x40\n      dup1\n      mload\n        /* \"https://raw.githubusercontent.com/mzfshark/openzeppelin-contracts/v4.9.3/contracts/proxy/utils/UUPSUpgradeable.sol\":3321:3322  0 */\n      0x00\n        /* \"https://raw.githubusercontent.com/mzfshark/openzeppelin-contracts/v4.9.3/contracts/proxy/utils/UUPSUpgradeable.sol\":3311:3323  new bytes(0) */\n      dup1\n      dup3\n      mstore\n      0x20\n      dup3\n      add\n      swap1\n      swap3\n      mstore\n        /* \"https://raw.githubusercontent.com/mzfshark/openzeppelin-contracts/v4.9.3/contracts/proxy/utils/UUPSUpgradeable.sol\":3270:3331  _upgradeToAndCallUUPS(newImplementation, new bytes(0), false) */\n      tag_92\n      swap2\n        /* \"https://raw.githubusercontent.com/mzfshark/openzeppelin-contracts/v4.9.3/contracts/proxy/utils/UUPSUpgradeable.sol\":3292:3309  newImplementation */\n      dup4\n      swap2\n        /* \"https://raw.githubusercontent.com/mzfshark/openzeppelin-contracts/v4.9.3/contracts/proxy/utils/UUPSUpgradeable.sol\":3311:3323  new bytes(0) */\n      swap1\n        /* \"https://raw.githubusercontent.com/mzfshark/openzeppelin-contracts/v4.9.3/contracts/proxy/utils/UUPSUpgradeable.sol\":3270:3291  _upgradeToAndCallUUPS */\n      tag_97\n        /* \"https://raw.githubusercontent.com/mzfshark/openzeppelin-contracts/v4.9.3/contracts/proxy/utils/UUPSUpgradeable.sol\":3270:3331  _upgradeToAndCallUUPS(newImplementation, new bytes(0), false) */\n      jump\t// in\n    tag_92:\n        /* \"https://raw.githubusercontent.com/mzfshark/openzeppelin-contracts/v4.9.3/contracts/proxy/utils/UUPSUpgradeable.sol\":3143:3338  function upgradeTo(address newImplementation) public virtual onlyProxy {... */\n      pop\n      jump\t// out\n        /* \"https://raw.githubusercontent.com/mzfshark/openzeppelin-contracts/v4.9.3/contracts/proxy/utils/UUPSUpgradeable.sol\":3657:3877  function upgradeToAndCall(address newImplementation, bytes memory data) public payable virtual onlyProxy {... */\n    tag_45:\n      sub(shl(0xa0, 0x01), 0x01)\n        /* \"https://raw.githubusercontent.com/mzfshark/openzeppelin-contracts/v4.9.3/contracts/proxy/utils/UUPSUpgradeable.sol\":1654:1660  __self */\n      immutable(\"0x4da997d206bb2f0037763b1c2f093b76c8f62bf3113924d5c1a5ef58577f01c9\")\n        /* \"https://raw.githubusercontent.com/mzfshark/openzeppelin-contracts/v4.9.3/contracts/proxy/utils/UUPSUpgradeable.sol\":1637:1660  address(this) != __self */\n      and\n        /* \"https://raw.githubusercontent.com/mzfshark/openzeppelin-contracts/v4.9.3/contracts/proxy/utils/UUPSUpgradeable.sol\":1645:1649  this */\n      address\n        /* \"https://raw.githubusercontent.com/mzfshark/openzeppelin-contracts/v4.9.3/contracts/proxy/utils/UUPSUpgradeable.sol\":1637:1660  address(this) != __self */\n      sub\n        /* \"https://raw.githubusercontent.com/mzfshark/openzeppelin-contracts/v4.9.3/contracts/proxy/utils/UUPSUpgradeable.sol\":1629:1709  require(address(this) != __self, \"Function must be called through delegatecall\") */\n      tag_100\n      jumpi\n      mload(0x40)\n      shl(0xe5, 0x461bcd)\n      dup2\n      mstore\n      0x04\n      add\n      tag_82\n      swap1\n      tag_83\n      jump\t// in\n    tag_100:\n        /* \"https://raw.githubusercontent.com/mzfshark/openzeppelin-contracts/v4.9.3/contracts/proxy/utils/UUPSUpgradeable.sol\":1751:1757  __self */\n      immutable(\"0x4da997d206bb2f0037763b1c2f093b76c8f62bf3113924d5c1a5ef58577f01c9\")\n      sub(shl(0xa0, 0x01), 0x01)\n        /* \"https://raw.githubusercontent.com/mzfshark/openzeppelin-contracts/v4.9.3/contracts/proxy/utils/UUPSUpgradeable.sol\":1727:1757  _getImplementation() == __self */\n      and\n        /* \"https://raw.githubusercontent.com/mzfshark/openzeppelin-contracts/v4.9.3/contracts/proxy/utils/UUPSUpgradeable.sol\":1727:1747  _getImplementation() */\n      tag_102\n      0x00\n      dup1\n      mload\n      0x20\n      data_75b20eef8615de99c108b05f0dbda081c91897128caa336d75dffb97c4132b4d\n      dup4\n      codecopy\n      dup2\n      mload\n      swap2\n      mstore\n        /* \"https://raw.githubusercontent.com/mzfshark/openzeppelin-contracts/v4.9.3/contracts/proxy/ERC1967/ERC1967Upgrade.sol\":1254:1308  StorageSlot.getAddressSlot(_IMPLEMENTATION_SLOT).value */\n      sload\n      sub(shl(0xa0, 0x01), 0x01)\n      and\n      swap1\n        /* \"https://raw.githubusercontent.com/mzfshark/openzeppelin-contracts/v4.9.3/contracts/proxy/ERC1967/ERC1967Upgrade.sol\":1175:1315  function _getImplementation() internal view returns (address) {... */\n      jump\n        /* \"https://raw.githubusercontent.com/mzfshark/openzeppelin-contracts/v4.9.3/contracts/proxy/utils/UUPSUpgradeable.sol\":1727:1747  _getImplementation() */\n    tag_102:\n      sub(shl(0xa0, 0x01), 0x01)\n        /* \"https://raw.githubusercontent.com/mzfshark/openzeppelin-contracts/v4.9.3/contracts/proxy/utils/UUPSUpgradeable.sol\":1727:1757  _getImplementation() == __self */\n      and\n      eq\n        /* \"https://raw.githubusercontent.com/mzfshark/openzeppelin-contracts/v4.9.3/contracts/proxy/utils/UUPSUpgradeable.sol\":1719:1806  require(_getImplementation() == __self, \"Function must be called through active proxy\") */\n      tag_103\n      jumpi\n      mload(0x40)\n      shl(0xe5, 0x461bcd)\n      dup2\n      mstore\n      0x04\n      add\n      tag_82\n      swap1\n      tag_88\n      jump\t// in\n    tag_103:\n        /* \"https://raw.githubusercontent.com/mzfshark/openzeppelin-contracts/v4.9.3/contracts/proxy/utils/UUPSUpgradeable.sol\":3772:3808  _authorizeUpgrade(newImplementation) */\n      tag_106\n        /* \"https://raw.githubusercontent.com/mzfshark/openzeppelin-contracts/v4.9.3/contracts/proxy/utils/UUPSUpgradeable.sol\":3790:3807  newImplementation */\n      dup3\n        /* \"https://raw.githubusercontent.com/mzfshark/openzeppelin-contracts/v4.9.3/contracts/proxy/utils/UUPSUpgradeable.sol\":3772:3789  _authorizeUpgrade */\n      tag_91\n        /* \"https://raw.githubusercontent.com/mzfshark/openzeppelin-contracts/v4.9.3/contracts/proxy/utils/UUPSUpgradeable.sol\":3772:3808  _authorizeUpgrade(newImplementation) */\n      jump\t// in\n    tag_106:\n        /* \"https://raw.githubusercontent.com/mzfshark/openzeppelin-contracts/v4.9.3/contracts/proxy/utils/UUPSUpgradeable.sol\":3818:3870  _upgradeToAndCallUUPS(newImplementation, data, true) */\n      tag_107\n        /* \"https://raw.githubusercontent.com/mzfshark/openzeppelin-contracts/v4.9.3/contracts/proxy/utils/UUPSUpgradeable.sol\":3840:3857  newImplementation */\n      dup3\n        /* \"https://raw.githubusercontent.com/mzfshark/openzeppelin-contracts/v4.9.3/contracts/proxy/utils/UUPSUpgradeable.sol\":3859:3863  data */\n      dup3\n        /* \"https://raw.githubusercontent.com/mzfshark/openzeppelin-contracts/v4.9.3/contracts/proxy/utils/UUPSUpgradeable.sol\":3865:3869  true */\n      0x01\n        /* \"https://raw.githubusercontent.com/mzfshark/openzeppelin-contracts/v4.9.3/contracts/proxy/utils/UUPSUpgradeable.sol\":3818:3839  _upgradeToAndCallUUPS */\n      tag_97\n        /* \"https://raw.githubusercontent.com/mzfshark/openzeppelin-contracts/v4.9.3/contracts/proxy/utils/UUPSUpgradeable.sol\":3818:3870  _upgradeToAndCallUUPS(newImplementation, data, true) */\n      jump\t// in\n    tag_107:\n        /* \"https://raw.githubusercontent.com/mzfshark/openzeppelin-contracts/v4.9.3/contracts/proxy/utils/UUPSUpgradeable.sol\":3657:3877  function upgradeToAndCall(address newImplementation, bytes memory data) public payable virtual onlyProxy {... */\n      pop\n      pop\n      jump\t// out\n        /* \"https://raw.githubusercontent.com/mzfshark/openzeppelin-contracts/v4.9.3/contracts/proxy/utils/UUPSUpgradeable.sol\":2762:2893  function proxiableUUID() external view virtual override notDelegated returns (bytes32) {... */\n    tag_48:\n        /* \"https://raw.githubusercontent.com/mzfshark/openzeppelin-contracts/v4.9.3/contracts/proxy/utils/UUPSUpgradeable.sol\":2840:2847  bytes32 */\n      0x00\n        /* \"https://raw.githubusercontent.com/mzfshark/openzeppelin-contracts/v4.9.3/contracts/proxy/utils/UUPSUpgradeable.sol\":2080:2084  this */\n      address\n      sub(shl(0xa0, 0x01), 0x01)\n        /* \"https://raw.githubusercontent.com/mzfshark/openzeppelin-contracts/v4.9.3/contracts/proxy/utils/UUPSUpgradeable.sol\":2089:2095  __self */\n      immutable(\"0x4da997d206bb2f0037763b1c2f093b76c8f62bf3113924d5c1a5ef58577f01c9\")\n        /* \"https://raw.githubusercontent.com/mzfshark/openzeppelin-contracts/v4.9.3/contracts/proxy/utils/UUPSUpgradeable.sol\":2072:2095  address(this) == __self */\n      and\n      eq\n        /* \"https://raw.githubusercontent.com/mzfshark/openzeppelin-contracts/v4.9.3/contracts/proxy/utils/UUPSUpgradeable.sol\":2064:2156  require(address(this) == __self, \"UUPSUpgradeable: must not be called through delegatecall\") */\n      tag_109\n      jumpi\n      mload(0x40)\n      shl(0xe5, 0x461bcd)\n      dup2\n      mstore\n        /* \"#utility.yul\":4764:4766   */\n      0x20\n        /* \"https://raw.githubusercontent.com/mzfshark/openzeppelin-contracts/v4.9.3/contracts/proxy/utils/UUPSUpgradeable.sol\":2064:2156  require(address(this) == __self, \"UUPSUpgradeable: must not be called through delegatecall\") */\n      0x04\n      dup3\n      add\n        /* \"#utility.yul\":4746:4767   */\n      mstore\n        /* \"#utility.yul\":4803:4805   */\n      0x38\n        /* \"#utility.yul\":4783:4801   */\n      0x24\n      dup3\n      add\n        /* \"#utility.yul\":4776:4806   */\n      mstore\n        /* \"#utility.yul\":4842:4876   */\n      0x555550535570677261646561626c653a206d757374206e6f742062652063616c\n        /* \"#utility.yul\":4822:4840   */\n      0x44\n      dup3\n      add\n        /* \"#utility.yul\":4815:4877   */\n      mstore\n        /* \"#utility.yul\":4913:4939   */\n      0x6c6564207468726f7567682064656c656761746563616c6c0000000000000000\n        /* \"#utility.yul\":4893:4911   */\n      0x64\n      dup3\n      add\n        /* \"#utility.yul\":4886:4940   */\n      mstore\n        /* \"#utility.yul\":4957:4976   */\n      0x84\n      add\n        /* \"https://raw.githubusercontent.com/mzfshark/openzeppelin-contracts/v4.9.3/contracts/proxy/utils/UUPSUpgradeable.sol\":2064:2156  require(address(this) == __self, \"UUPSUpgradeable: must not be called through delegatecall\") */\n      tag_82\n        /* \"#utility.yul\":4562:4982   */\n      jump\n        /* \"https://raw.githubusercontent.com/mzfshark/openzeppelin-contracts/v4.9.3/contracts/proxy/utils/UUPSUpgradeable.sol\":2064:2156  require(address(this) == __self, \"UUPSUpgradeable: must not be called through delegatecall\") */\n    tag_109:\n      pop\n      0x00\n      dup1\n      mload\n      0x20\n      data_75b20eef8615de99c108b05f0dbda081c91897128caa336d75dffb97c4132b4d\n      dup4\n      codecopy\n      dup2\n      mload\n      swap2\n      mstore\n        /* \"https://raw.githubusercontent.com/mzfshark/openzeppelin-contracts/v4.9.3/contracts/proxy/utils/UUPSUpgradeable.sol\":2762:2893  function proxiableUUID() external view virtual override notDelegated returns (bytes32) {... */\n      swap1\n      jump\t// out\n        /* \"packages/contracts/src/framework/utils/ens/ENSSubdomainRegistrar.sol\":3276:3696  function initialize(IDAO _managingDao, ENS _ens, bytes32 _node) external initializer {... */\n    tag_55:\n        /* \"https://raw.githubusercontent.com/mzfshark/contracts-upgradeable/v4.9.3/contracts/proxy/utils/Initializable.sol\":3279:3298  bool isTopLevelCall */\n      0x00\n        /* \"https://raw.githubusercontent.com/mzfshark/contracts-upgradeable/v4.9.3/contracts/proxy/utils/Initializable.sol\":3302:3315  _initializing */\n      sload\n      0x0100\n      swap1\n      div\n      0xff\n      and\n        /* \"https://raw.githubusercontent.com/mzfshark/contracts-upgradeable/v4.9.3/contracts/proxy/utils/Initializable.sol\":3301:3315  !_initializing */\n      iszero\n      dup1\n        /* \"https://raw.githubusercontent.com/mzfshark/contracts-upgradeable/v4.9.3/contracts/proxy/utils/Initializable.sol\":3347:3381  isTopLevelCall && _initialized < 1 */\n      dup1\n      iszero\n      tag_114\n      jumpi\n      pop\n        /* \"https://raw.githubusercontent.com/mzfshark/contracts-upgradeable/v4.9.3/contracts/proxy/utils/Initializable.sol\":3365:3377  _initialized */\n      sload(0x00)\n        /* \"https://raw.githubusercontent.com/mzfshark/contracts-upgradeable/v4.9.3/contracts/proxy/utils/Initializable.sol\":3380:3381  1 */\n      0x01\n        /* \"https://raw.githubusercontent.com/mzfshark/contracts-upgradeable/v4.9.3/contracts/proxy/utils/Initializable.sol\":3365:3377  _initialized */\n      0xff\n      swap1\n      swap2\n      and\n        /* \"https://raw.githubusercontent.com/mzfshark/contracts-upgradeable/v4.9.3/contracts/proxy/utils/Initializable.sol\":3365:3381  _initialized < 1 */\n      lt\n        /* \"https://raw.githubusercontent.com/mzfshark/contracts-upgradeable/v4.9.3/contracts/proxy/utils/Initializable.sol\":3347:3381  isTopLevelCall && _initialized < 1 */\n    tag_114:\n        /* \"https://raw.githubusercontent.com/mzfshark/contracts-upgradeable/v4.9.3/contracts/proxy/utils/Initializable.sol\":3346:3454  (isTopLevelCall && _initialized < 1) || (!AddressUpgradeable.isContract(address(this)) && _initialized == 1) */\n      dup1\n      tag_118\n      jumpi\n      pop\n        /* \"https://raw.githubusercontent.com/mzfshark/contracts-upgradeable/v4.9.3/contracts/proxy/utils/Initializable.sol\":3426:3430  this */\n      address\n        /* \"https://raw.githubusercontent.com/mzfshark/contracts-upgradeable/v4.9.3/contracts/utils/AddressUpgradeable.sol\":1713:1732  account.code.length */\n      extcodesize\n        /* \"https://raw.githubusercontent.com/mzfshark/contracts-upgradeable/v4.9.3/contracts/utils/AddressUpgradeable.sol\":1713:1736  account.code.length > 0 */\n      iszero\n      dup1\n      iszero\n        /* \"https://raw.githubusercontent.com/mzfshark/contracts-upgradeable/v4.9.3/contracts/proxy/utils/Initializable.sol\":3387:3453  !AddressUpgradeable.isContract(address(this)) && _initialized == 1 */\n      tag_118\n      jumpi\n      pop\n        /* \"https://raw.githubusercontent.com/mzfshark/contracts-upgradeable/v4.9.3/contracts/proxy/utils/Initializable.sol\":3436:3448  _initialized */\n      and(0xff, sload(0x00))\n      0x01\n        /* \"https://raw.githubusercontent.com/mzfshark/contracts-upgradeable/v4.9.3/contracts/proxy/utils/Initializable.sol\":3436:3453  _initialized == 1 */\n      eq\n        /* \"https://raw.githubusercontent.com/mzfshark/contracts-upgradeable/v4.9.3/contracts/proxy/utils/Initializable.sol\":3387:3453  !AddressUpgradeable.isContract(address(this)) && _initialized == 1 */\n    tag_118:\n        /* \"https://raw.githubusercontent.com/mzfshark/contracts-upgradeable/v4.9.3/contracts/proxy/utils/Initializable.sol\":3325:3526  require(... */\n      tag_119\n      jumpi\n      mload(0x40)\n      shl(0xe5, 0x461bcd)\n      dup2\n      mstore\n        /* \"#utility.yul\":5189:5191   */\n      0x20\n        /* \"https://raw.githubusercontent.com/mzfshark/contracts-upgradeable/v4.9.3/contracts/proxy/utils/Initializable.sol\":3325:3526  require(... */\n      0x04\n      dup3\n      add\n        /* \"#utility.yul\":5171:5192   */\n      mstore\n        /* \"#utility.yul\":5228:5230   */\n      0x2e\n        /* \"#utility.yul\":5208:5226   */\n      0x24\n      dup3\n      add\n        /* \"#utility.yul\":5201:5231   */\n      mstore\n        /* \"#utility.yul\":5267:5301   */\n      0x496e697469616c697a61626c653a20636f6e747261637420697320616c726561\n        /* \"#utility.yul\":5247:5265   */\n      0x44\n      dup3\n      add\n        /* \"#utility.yul\":5240:5302   */\n      mstore\n      shl(0x92, 0x191e481a5b9a5d1a585b1a5e9959)\n        /* \"#utility.yul\":5318:5336   */\n      0x64\n      dup3\n      add\n        /* \"#utility.yul\":5311:5355   */\n      mstore\n        /* \"#utility.yul\":5372:5391   */\n      0x84\n      add\n        /* \"https://raw.githubusercontent.com/mzfshark/contracts-upgradeable/v4.9.3/contracts/proxy/utils/Initializable.sol\":3325:3526  require(... */\n      tag_82\n        /* \"#utility.yul\":4987:5397   */\n      jump\n        /* \"https://raw.githubusercontent.com/mzfshark/contracts-upgradeable/v4.9.3/contracts/proxy/utils/Initializable.sol\":3325:3526  require(... */\n    tag_119:\n        /* \"https://raw.githubusercontent.com/mzfshark/contracts-upgradeable/v4.9.3/contracts/proxy/utils/Initializable.sol\":3536:3548  _initialized */\n      0x00\n        /* \"https://raw.githubusercontent.com/mzfshark/contracts-upgradeable/v4.9.3/contracts/proxy/utils/Initializable.sol\":3536:3552  _initialized = 1 */\n      dup1\n      sload\n      not(0xff)\n      and\n        /* \"https://raw.githubusercontent.com/mzfshark/contracts-upgradeable/v4.9.3/contracts/proxy/utils/Initializable.sol\":3551:3552  1 */\n      0x01\n        /* \"https://raw.githubusercontent.com/mzfshark/contracts-upgradeable/v4.9.3/contracts/proxy/utils/Initializable.sol\":3536:3552  _initialized = 1 */\n      or\n      swap1\n      sstore\n        /* \"https://raw.githubusercontent.com/mzfshark/contracts-upgradeable/v4.9.3/contracts/proxy/utils/Initializable.sol\":3562:3627  if (isTopLevelCall) {... */\n      dup1\n      iszero\n      tag_122\n      jumpi\n        /* \"https://raw.githubusercontent.com/mzfshark/contracts-upgradeable/v4.9.3/contracts/proxy/utils/Initializable.sol\":3596:3609  _initializing */\n      0x00\n        /* \"https://raw.githubusercontent.com/mzfshark/contracts-upgradeable/v4.9.3/contracts/proxy/utils/Initializable.sol\":3596:3616  _initializing = true */\n      dup1\n      sload\n      not(0xff00)\n      and\n      0x0100\n      or\n      swap1\n      sstore\n        /* \"https://raw.githubusercontent.com/mzfshark/contracts-upgradeable/v4.9.3/contracts/proxy/utils/Initializable.sol\":3562:3627  if (isTopLevelCall) {... */\n    tag_122:\n        /* \"packages/contracts/src/framework/utils/ens/ENSSubdomainRegistrar.sol\":3372:3419  __DaoAuthorizableUpgradeable_init(_managingDao) */\n      tag_124\n        /* \"packages/contracts/src/framework/utils/ens/ENSSubdomainRegistrar.sol\":3406:3418  _managingDao */\n      dup5\n        /* \"packages/contracts/src/framework/utils/ens/ENSSubdomainRegistrar.sol\":3372:3405  __DaoAuthorizableUpgradeable_init */\n      tag_125\n        /* \"packages/contracts/src/framework/utils/ens/ENSSubdomainRegistrar.sol\":3372:3419  __DaoAuthorizableUpgradeable_init(_managingDao) */\n      jump\t// in\n    tag_124:\n        /* \"packages/contracts/src/framework/utils/ens/ENSSubdomainRegistrar.sol\":3432:3435  ens */\n      0x65\n        /* \"packages/contracts/src/framework/utils/ens/ENSSubdomainRegistrar.sol\":3432:3442  ens = _ens */\n      dup1\n      sload\n      not(sub(shl(0xa0, 0x01), 0x01))\n      and\n      sub(shl(0xa0, 0x01), 0x01)\n      dup6\n      and\n      swap1\n      dup2\n      or\n      swap1\n      swap2\n      sstore\n        /* \"packages/contracts/src/framework/utils/ens/ENSSubdomainRegistrar.sol\":3453:3457  node */\n      0x66\n        /* \"packages/contracts/src/framework/utils/ens/ENSSubdomainRegistrar.sol\":3453:3465  node = _node */\n      dup4\n      swap1\n      sstore\n        /* \"packages/contracts/src/framework/utils/ens/ENSSubdomainRegistrar.sol\":3501:3520  ens.resolver(_node) */\n      mload(0x40)\n      shl(0xe0, 0x0178b8bf)\n      dup2\n      mstore\n      0x04\n      dup2\n      add\n        /* \"#utility.yul\":2895:2920   */\n      dup5\n      swap1\n      mstore\n      0x00\n      swap2\n        /* \"packages/contracts/src/framework/utils/ens/ENSSubdomainRegistrar.sol\":3432:3442  ens = _ens */\n      swap1\n        /* \"packages/contracts/src/framework/utils/ens/ENSSubdomainRegistrar.sol\":3501:3513  ens.resolver */\n      0x0178b8bf\n      swap1\n        /* \"#utility.yul\":2868:2886   */\n      0x24\n      add\n        /* \"packages/contracts/src/framework/utils/ens/ENSSubdomainRegistrar.sol\":3501:3520  ens.resolver(_node) */\n      0x20\n      mload(0x40)\n      dup1\n      dup4\n      sub\n      dup2\n      dup7\n      gas\n      staticcall\n      iszero\n      dup1\n      iszero\n      tag_128\n      jumpi\n      returndatasize\n      0x00\n      dup1\n      returndatacopy\n      revert(0x00, returndatasize)\n    tag_128:\n      pop\n      pop\n      pop\n      pop\n      mload(0x40)\n      returndatasize\n      not(0x1f)\n      0x1f\n      dup3\n      add\n      and\n      dup3\n      add\n      dup1\n      0x40\n      mstore\n      pop\n      dup2\n      add\n      swap1\n      tag_129\n      swap2\n      swap1\n      tag_130\n      jump\t// in\n    tag_129:\n        /* \"packages/contracts/src/framework/utils/ens/ENSSubdomainRegistrar.sol\":3478:3520  address nodeResolver = ens.resolver(_node) */\n      swap1\n      pop\n      sub(shl(0xa0, 0x01), 0x01)\n        /* \"packages/contracts/src/framework/utils/ens/ENSSubdomainRegistrar.sol\":3537:3563  nodeResolver == address(0) */\n      dup2\n      and\n        /* \"packages/contracts/src/framework/utils/ens/ENSSubdomainRegistrar.sol\":3533:3653  if (nodeResolver == address(0)) {... */\n      tag_131\n      jumpi\n        /* \"packages/contracts/src/framework/utils/ens/ENSSubdomainRegistrar.sol\":3587:3641  InvalidResolver({node: _node, resolver: nodeResolver}) */\n      mload(0x40)\n      shl(0xe1, 0x0d7097c5)\n      dup2\n      mstore\n      0x04\n      dup2\n      add\n        /* \"#utility.yul\":5832:5857   */\n      dup5\n      swap1\n      mstore\n      sub(shl(0xa0, 0x01), 0x01)\n        /* \"#utility.yul\":5893:5925   */\n      dup3\n      and\n        /* \"#utility.yul\":5873:5891   */\n      0x24\n      dup3\n      add\n        /* \"#utility.yul\":5866:5926   */\n      mstore\n        /* \"#utility.yul\":5805:5823   */\n      0x44\n      add\n        /* \"packages/contracts/src/framework/utils/ens/ENSSubdomainRegistrar.sol\":3587:3641  InvalidResolver({node: _node, resolver: nodeResolver}) */\n      tag_82\n        /* \"#utility.yul\":5658:5932   */\n      jump\n        /* \"packages/contracts/src/framework/utils/ens/ENSSubdomainRegistrar.sol\":3533:3653  if (nodeResolver == address(0)) {... */\n    tag_131:\n        /* \"packages/contracts/src/framework/utils/ens/ENSSubdomainRegistrar.sol\":3665:3673  resolver */\n      0x67\n        /* \"packages/contracts/src/framework/utils/ens/ENSSubdomainRegistrar.sol\":3665:3688  resolver = nodeResolver */\n      dup1\n      sload\n      not(sub(shl(0xa0, 0x01), 0x01))\n      and\n      sub(shl(0xa0, 0x01), 0x01)\n      swap3\n      swap1\n      swap3\n      and\n      swap2\n      swap1\n      swap2\n      or\n      swap1\n      sstore\n        /* \"https://raw.githubusercontent.com/mzfshark/contracts-upgradeable/v4.9.3/contracts/proxy/utils/Initializable.sol\":3647:3746  if (isTopLevelCall) {... */\n      dup1\n      iszero\n      tag_134\n      jumpi\n        /* \"https://raw.githubusercontent.com/mzfshark/contracts-upgradeable/v4.9.3/contracts/proxy/utils/Initializable.sol\":3697:3702  false */\n      0x00\n        /* \"https://raw.githubusercontent.com/mzfshark/contracts-upgradeable/v4.9.3/contracts/proxy/utils/Initializable.sol\":3681:3702  _initializing = false */\n      dup1\n      sload\n      not(0xff00)\n      and\n      swap1\n      sstore\n        /* \"https://raw.githubusercontent.com/mzfshark/contracts-upgradeable/v4.9.3/contracts/proxy/utils/Initializable.sol\":3721:3735  Initialized(1) */\n      mload(0x40)\n      0x01\n        /* \"#utility.yul\":6089:6125   */\n      dup2\n      mstore\n        /* \"https://raw.githubusercontent.com/mzfshark/contracts-upgradeable/v4.9.3/contracts/proxy/utils/Initializable.sol\":3721:3735  Initialized(1) */\n      0x7f26b83ff96e1f2b6a682f133852f6798a09c465da95921460cefb3847402498\n      swap1\n        /* \"#utility.yul\":6077:6079   */\n      0x20\n        /* \"#utility.yul\":6062:6080   */\n      add\n        /* \"https://raw.githubusercontent.com/mzfshark/contracts-upgradeable/v4.9.3/contracts/proxy/utils/Initializable.sol\":3721:3735  Initialized(1) */\n      mload(0x40)\n      dup1\n      swap2\n      sub\n      swap1\n      log1\n        /* \"https://raw.githubusercontent.com/mzfshark/contracts-upgradeable/v4.9.3/contracts/proxy/utils/Initializable.sol\":3647:3746  if (isTopLevelCall) {... */\n    tag_134:\n        /* \"https://raw.githubusercontent.com/mzfshark/contracts-upgradeable/v4.9.3/contracts/proxy/utils/Initializable.sol\":3269:3752  {... */\n      pop\n        /* \"packages/contracts/src/framework/utils/ens/ENSSubdomainRegistrar.sol\":3276:3696  function initialize(IDAO _managingDao, ENS _ens, bytes32 _node) external initializer {... */\n      pop\n      pop\n      pop\n      jump\t// out\n        /* \"packages/contracts/src/framework/utils/ens/ENSSubdomainRegistrar.sol\":4545:5103  function registerSubnode(... */\n    tag_60:\n        /* \"packages/contracts/src/core/plugin/dao-authorizable/DaoAuthorizableUpgradeable.sol\":1662:1666  dao_ */\n      sload(0x33)\n        /* \"packages/contracts/src/framework/utils/ens/ENSSubdomainRegistrar.sol\":1673:1719  keccak256(\"REGISTER_ENS_SUBDOMAIN_PERMISSION\") */\n      0xbbdfd23f099d7ed9f535e0f97d2123efb1332b16e023b8359b3b879eaecd3c14\n      swap1\n        /* \"packages/contracts/src/core/plugin/dao-authorizable/DaoAuthorizableUpgradeable.sol\":1656:1723  _auth(dao_, address(this), _msgSender(), _permissionId, _msgData()) */\n      tag_138\n      swap1\n      sub(shl(0xa0, 0x01), 0x01)\n        /* \"packages/contracts/src/core/plugin/dao-authorizable/DaoAuthorizableUpgradeable.sol\":1662:1666  dao_ */\n      and\n        /* \"packages/contracts/src/core/plugin/dao-authorizable/DaoAuthorizableUpgradeable.sol\":1676:1680  this */\n      address\n        /* \"https://raw.githubusercontent.com/mzfshark/contracts-upgradeable/v4.9.3/contracts/utils/ContextUpgradeable.sol\":929:939  msg.sender */\n      caller\n        /* \"packages/contracts/src/core/plugin/dao-authorizable/DaoAuthorizableUpgradeable.sol\":1683:1695  _msgSender() */\n    tag_139:\n        /* \"packages/contracts/src/core/plugin/dao-authorizable/DaoAuthorizableUpgradeable.sol\":1697:1710  _permissionId */\n      dup5\n        /* \"https://raw.githubusercontent.com/mzfshark/contracts-upgradeable/v4.9.3/contracts/utils/ContextUpgradeable.sol\":1003:1017  bytes calldata */\n      0x00\n      calldatasize\n        /* \"packages/contracts/src/core/plugin/dao-authorizable/DaoAuthorizableUpgradeable.sol\":1656:1661  _auth */\n      tag_143\n        /* \"packages/contracts/src/core/plugin/dao-authorizable/DaoAuthorizableUpgradeable.sol\":1656:1723  _auth(dao_, address(this), _msgSender(), _permissionId, _msgData()) */\n      jump\t// in\n    tag_138:\n        /* \"packages/contracts/src/framework/utils/ens/ENSSubdomainRegistrar.sol\":4698:4713  bytes32 subnode */\n      0x00\n        /* \"packages/contracts/src/framework/utils/ens/ENSSubdomainRegistrar.sol\":4743:4747  node */\n      sload(0x66)\n        /* \"packages/contracts/src/framework/utils/ens/ENSSubdomainRegistrar.sol\":4749:4755  _label */\n      dup5\n        /* \"packages/contracts/src/framework/utils/ens/ENSSubdomainRegistrar.sol\":4726:4756  abi.encodePacked(node, _label) */\n      add(0x20, mload(0x40))\n      tag_145\n      swap3\n      swap2\n      swap1\n        /* \"#utility.yul\":6293:6312   */\n      swap2\n      dup3\n      mstore\n        /* \"#utility.yul\":6337:6339   */\n      0x20\n        /* \"#utility.yul\":6328:6340   */\n      dup3\n      add\n        /* \"#utility.yul\":6321:6349   */\n      mstore\n        /* \"#utility.yul\":6374:6376   */\n      0x40\n        /* \"#utility.yul\":6365:6377   */\n      add\n      swap1\n        /* \"#utility.yul\":6136:6383   */\n      jump\n        /* \"packages/contracts/src/framework/utils/ens/ENSSubdomainRegistrar.sol\":4726:4756  abi.encodePacked(node, _label) */\n    tag_145:\n      0x40\n      dup1\n      mload\n      dup1\n      dup4\n      sub\n      not(0x1f)\n      add\n      dup2\n      mstore\n      swap1\n      dup3\n      swap1\n      mstore\n        /* \"packages/contracts/src/framework/utils/ens/ENSSubdomainRegistrar.sol\":4716:4757  keccak256(abi.encodePacked(node, _label)) */\n      dup1\n      mload\n        /* \"packages/contracts/src/framework/utils/ens/ENSSubdomainRegistrar.sol\":4726:4756  abi.encodePacked(node, _label) */\n      0x20\n        /* \"packages/contracts/src/framework/utils/ens/ENSSubdomainRegistrar.sol\":4716:4757  keccak256(abi.encodePacked(node, _label)) */\n      swap1\n      swap2\n      add\n      keccak256\n        /* \"packages/contracts/src/framework/utils/ens/ENSSubdomainRegistrar.sol\":4791:4794  ens */\n      sload(0x65)\n      shl(0xe0, 0x02571be3)\n        /* \"packages/contracts/src/framework/utils/ens/ENSSubdomainRegistrar.sol\":4791:4809  ens.owner(subnode) */\n      dup4\n      mstore\n      0x04\n      dup4\n      add\n        /* \"#utility.yul\":2895:2920   */\n      dup3\n      swap1\n      mstore\n        /* \"packages/contracts/src/framework/utils/ens/ENSSubdomainRegistrar.sol\":4716:4757  keccak256(abi.encodePacked(node, _label)) */\n      swap1\n      swap3\n      pop\n        /* \"packages/contracts/src/framework/utils/ens/ENSSubdomainRegistrar.sol\":4768:4788  address currentOwner */\n      0x00\n      swap2\n      sub(shl(0xa0, 0x01), 0x01)\n        /* \"packages/contracts/src/framework/utils/ens/ENSSubdomainRegistrar.sol\":4791:4794  ens */\n      swap1\n      swap2\n      and\n      swap1\n        /* \"packages/contracts/src/framework/utils/ens/ENSSubdomainRegistrar.sol\":4791:4800  ens.owner */\n      0x02571be3\n      swap1\n        /* \"#utility.yul\":2868:2886   */\n      0x24\n      add\n        /* \"packages/contracts/src/framework/utils/ens/ENSSubdomainRegistrar.sol\":4791:4809  ens.owner(subnode) */\n      0x20\n      mload(0x40)\n      dup1\n      dup4\n      sub\n      dup2\n      dup7\n      gas\n      staticcall\n      iszero\n      dup1\n      iszero\n      tag_149\n      jumpi\n      returndatasize\n      0x00\n      dup1\n      returndatacopy\n      revert(0x00, returndatasize)\n    tag_149:\n      pop\n      pop\n      pop\n      pop\n      mload(0x40)\n      returndatasize\n      not(0x1f)\n      0x1f\n      dup3\n      add\n      and\n      dup3\n      add\n      dup1\n      0x40\n      mstore\n      pop\n      dup2\n      add\n      swap1\n      tag_150\n      swap2\n      swap1\n      tag_130\n      jump\t// in\n    tag_150:\n        /* \"packages/contracts/src/framework/utils/ens/ENSSubdomainRegistrar.sol\":4768:4809  address currentOwner = ens.owner(subnode) */\n      swap1\n      pop\n      sub(shl(0xa0, 0x01), 0x01)\n        /* \"packages/contracts/src/framework/utils/ens/ENSSubdomainRegistrar.sol\":4826:4852  currentOwner != address(0) */\n      dup2\n      and\n      iszero\n        /* \"packages/contracts/src/framework/utils/ens/ENSSubdomainRegistrar.sol\":4822:4928  if (currentOwner != address(0)) {... */\n      tag_151\n      jumpi\n        /* \"packages/contracts/src/framework/utils/ens/ENSSubdomainRegistrar.sol\":4876:4916  AlreadyRegistered(subnode, currentOwner) */\n      mload(0x40)\n      shl(0xe1, 0xfcad5d)\n      dup2\n      mstore\n      0x04\n      dup2\n      add\n        /* \"#utility.yul\":5832:5857   */\n      dup4\n      swap1\n      mstore\n      sub(shl(0xa0, 0x01), 0x01)\n        /* \"#utility.yul\":5893:5925   */\n      dup3\n      and\n        /* \"#utility.yul\":5873:5891   */\n      0x24\n      dup3\n      add\n        /* \"#utility.yul\":5866:5926   */\n      mstore\n        /* \"#utility.yul\":5805:5823   */\n      0x44\n      add\n        /* \"packages/contracts/src/framework/utils/ens/ENSSubdomainRegistrar.sol\":4876:4916  AlreadyRegistered(subnode, currentOwner) */\n      tag_82\n        /* \"#utility.yul\":5658:5932   */\n      jump\n        /* \"packages/contracts/src/framework/utils/ens/ENSSubdomainRegistrar.sol\":4822:4928  if (currentOwner != address(0)) {... */\n    tag_151:\n        /* \"packages/contracts/src/framework/utils/ens/ENSSubdomainRegistrar.sol\":4940:4943  ens */\n      sload(0x65)\n        /* \"packages/contracts/src/framework/utils/ens/ENSSubdomainRegistrar.sol\":4960:4964  node */\n      sload(0x66)\n        /* \"packages/contracts/src/framework/utils/ens/ENSSubdomainRegistrar.sol\":4940:4988  ens.setSubnodeOwner(node, _label, address(this)) */\n      mload(0x40)\n      shl(0xe0, 0x06ab5923)\n      dup2\n      mstore\n      0x04\n      dup2\n      add\n        /* \"#utility.yul\":6590:6615   */\n      swap2\n      swap1\n      swap2\n      mstore\n        /* \"#utility.yul\":6631:6649   */\n      0x24\n      dup2\n      add\n        /* \"#utility.yul\":6624:6658   */\n      dup8\n      swap1\n      mstore\n        /* \"packages/contracts/src/framework/utils/ens/ENSSubdomainRegistrar.sol\":4982:4986  this */\n      address\n        /* \"#utility.yul\":6674:6692   */\n      0x44\n      dup3\n      add\n        /* \"#utility.yul\":6667:6727   */\n      mstore\n      sub(shl(0xa0, 0x01), 0x01)\n        /* \"packages/contracts/src/framework/utils/ens/ENSSubdomainRegistrar.sol\":4940:4943  ens */\n      swap1\n      swap2\n      and\n      swap1\n        /* \"packages/contracts/src/framework/utils/ens/ENSSubdomainRegistrar.sol\":4940:4959  ens.setSubnodeOwner */\n      0x06ab5923\n      swap1\n        /* \"#utility.yul\":6563:6581   */\n      0x64\n      add\n        /* \"packages/contracts/src/framework/utils/ens/ENSSubdomainRegistrar.sol\":4940:4988  ens.setSubnodeOwner(node, _label, address(this)) */\n      0x20\n      mload(0x40)\n      dup1\n      dup4\n      sub\n      dup2\n      0x00\n      dup8\n      gas\n      call\n      iszero\n      dup1\n      iszero\n      tag_156\n      jumpi\n      returndatasize\n      0x00\n      dup1\n      returndatacopy\n      revert(0x00, returndatasize)\n    tag_156:\n      pop\n      pop\n      pop\n      pop\n      mload(0x40)\n      returndatasize\n      not(0x1f)\n      0x1f\n      dup3\n      add\n      and\n      dup3\n      add\n      dup1\n      0x40\n      mstore\n      pop\n      dup2\n      add\n      swap1\n      tag_157\n      swap2\n      swap1\n      tag_158\n      jump\t// in\n    tag_157:\n      pop\n        /* \"packages/contracts/src/framework/utils/ens/ENSSubdomainRegistrar.sol\":4999:5002  ens */\n      sload(0x65)\n        /* \"packages/contracts/src/framework/utils/ens/ENSSubdomainRegistrar.sol\":5024:5032  resolver */\n      sload(0x67)\n        /* \"packages/contracts/src/framework/utils/ens/ENSSubdomainRegistrar.sol\":4999:5033  ens.setResolver(subnode, resolver) */\n      mload(0x40)\n      shl(0xe1, 0x0c4b7b85)\n      dup2\n      mstore\n      0x04\n      dup2\n      add\n        /* \"#utility.yul\":5832:5857   */\n      dup6\n      swap1\n      mstore\n      sub(shl(0xa0, 0x01), 0x01)\n        /* \"packages/contracts/src/framework/utils/ens/ENSSubdomainRegistrar.sol\":5024:5032  resolver */\n      swap2\n      dup3\n      and\n        /* \"#utility.yul\":5873:5891   */\n      0x24\n      dup3\n      add\n        /* \"#utility.yul\":5866:5926   */\n      mstore\n        /* \"packages/contracts/src/framework/utils/ens/ENSSubdomainRegistrar.sol\":4999:5002  ens */\n      swap2\n      and\n      swap1\n        /* \"packages/contracts/src/framework/utils/ens/ENSSubdomainRegistrar.sol\":4999:5014  ens.setResolver */\n      0x1896f70a\n      swap1\n        /* \"#utility.yul\":5805:5823   */\n      0x44\n      add\n        /* \"packages/contracts/src/framework/utils/ens/ENSSubdomainRegistrar.sol\":4999:5033  ens.setResolver(subnode, resolver) */\n      0x00\n      mload(0x40)\n      dup1\n      dup4\n      sub\n      dup2\n      0x00\n      dup8\n      dup1\n      extcodesize\n      iszero\n      dup1\n      iszero\n      tag_160\n      jumpi\n      0x00\n      dup1\n      revert\n    tag_160:\n      pop\n      gas\n      call\n      iszero\n      dup1\n      iszero\n      tag_162\n      jumpi\n      returndatasize\n      0x00\n      dup1\n      returndatacopy\n      revert(0x00, returndatasize)\n    tag_162:\n      pop\n      pop\n        /* \"packages/contracts/src/framework/utils/ens/ENSSubdomainRegistrar.sol\":5053:5061  resolver */\n      sload(0x67)\n        /* \"packages/contracts/src/framework/utils/ens/ENSSubdomainRegistrar.sol\":5044:5095  Resolver(resolver).setAddr(subnode, _targetAddress) */\n      mload(0x40)\n      shl(0xe8, 0xd5fa2b)\n      dup2\n      mstore\n      0x04\n      dup2\n      add\n        /* \"#utility.yul\":5832:5857   */\n      dup7\n      swap1\n      mstore\n      sub(shl(0xa0, 0x01), 0x01)\n        /* \"#utility.yul\":5893:5925   */\n      dup9\n      dup2\n      and\n        /* \"#utility.yul\":5873:5891   */\n      0x24\n      dup4\n      add\n        /* \"#utility.yul\":5866:5926   */\n      mstore\n        /* \"packages/contracts/src/framework/utils/ens/ENSSubdomainRegistrar.sol\":5053:5061  resolver */\n      swap1\n      swap2\n      and\n      swap3\n      pop\n        /* \"packages/contracts/src/framework/utils/ens/ENSSubdomainRegistrar.sol\":5044:5070  Resolver(resolver).setAddr */\n      0xd5fa2b00\n      swap2\n      pop\n        /* \"#utility.yul\":5805:5823   */\n      0x44\n      add\n        /* \"packages/contracts/src/framework/utils/ens/ENSSubdomainRegistrar.sol\":5044:5095  Resolver(resolver).setAddr(subnode, _targetAddress) */\n      0x00\n      mload(0x40)\n      dup1\n      dup4\n      sub\n      dup2\n      0x00\n      dup8\n      dup1\n      extcodesize\n      iszero\n      dup1\n      iszero\n      tag_164\n      jumpi\n      0x00\n      dup1\n      revert\n    tag_164:\n      pop\n      gas\n      call\n      iszero\n      dup1\n      iszero\n      tag_166\n      jumpi\n      returndatasize\n      0x00\n      dup1\n      returndatacopy\n      revert(0x00, returndatasize)\n    tag_166:\n      pop\n      pop\n      pop\n      pop\n        /* \"packages/contracts/src/framework/utils/ens/ENSSubdomainRegistrar.sol\":4687:5103  {... */\n      pop\n      pop\n        /* \"packages/contracts/src/framework/utils/ens/ENSSubdomainRegistrar.sol\":4545:5103  function registerSubnode(... */\n      pop\n      pop\n      pop\n      jump\t// out\n        /* \"packages/contracts/src/framework/utils/ens/ENSSubdomainRegistrar.sol\":5278:5557  function setDefaultResolver(... */\n    tag_72:\n        /* \"packages/contracts/src/core/plugin/dao-authorizable/DaoAuthorizableUpgradeable.sol\":1662:1666  dao_ */\n      sload(0x33)\n        /* \"packages/contracts/src/framework/utils/ens/ENSSubdomainRegistrar.sol\":1673:1719  keccak256(\"REGISTER_ENS_SUBDOMAIN_PERMISSION\") */\n      0xbbdfd23f099d7ed9f535e0f97d2123efb1332b16e023b8359b3b879eaecd3c14\n      swap1\n        /* \"packages/contracts/src/core/plugin/dao-authorizable/DaoAuthorizableUpgradeable.sol\":1656:1723  _auth(dao_, address(this), _msgSender(), _permissionId, _msgData()) */\n      tag_168\n      swap1\n      sub(shl(0xa0, 0x01), 0x01)\n        /* \"packages/contracts/src/core/plugin/dao-authorizable/DaoAuthorizableUpgradeable.sol\":1662:1666  dao_ */\n      and\n        /* \"packages/contracts/src/core/plugin/dao-authorizable/DaoAuthorizableUpgradeable.sol\":1676:1680  this */\n      address\n        /* \"https://raw.githubusercontent.com/mzfshark/contracts-upgradeable/v4.9.3/contracts/utils/ContextUpgradeable.sol\":929:939  msg.sender */\n      caller\n        /* \"packages/contracts/src/core/plugin/dao-authorizable/DaoAuthorizableUpgradeable.sol\":1683:1695  _msgSender() */\n      tag_139\n        /* \"https://raw.githubusercontent.com/mzfshark/contracts-upgradeable/v4.9.3/contracts/utils/ContextUpgradeable.sol\":850:946  function _msgSender() internal view virtual returns (address) {... */\n      jump\n        /* \"packages/contracts/src/core/plugin/dao-authorizable/DaoAuthorizableUpgradeable.sol\":1656:1723  _auth(dao_, address(this), _msgSender(), _permissionId, _msgData()) */\n    tag_168:\n      sub(shl(0xa0, 0x01), 0x01)\n        /* \"packages/contracts/src/framework/utils/ens/ENSSubdomainRegistrar.sol\":5408:5431  _resolver == address(0) */\n      dup3\n      and\n        /* \"packages/contracts/src/framework/utils/ens/ENSSubdomainRegistrar.sol\":5404:5517  if (_resolver == address(0)) {... */\n      tag_172\n      jumpi\n        /* \"packages/contracts/src/framework/utils/ens/ENSSubdomainRegistrar.sol\":5478:5482  node */\n      sload(0x66)\n        /* \"packages/contracts/src/framework/utils/ens/ENSSubdomainRegistrar.sol\":5455:5505  InvalidResolver({node: node, resolver: _resolver}) */\n      mload(0x40)\n      shl(0xe1, 0x0d7097c5)\n      dup2\n      mstore\n      0x04\n      dup2\n      add\n        /* \"#utility.yul\":5832:5857   */\n      swap2\n      swap1\n      swap2\n      mstore\n      sub(shl(0xa0, 0x01), 0x01)\n        /* \"#utility.yul\":5893:5925   */\n      dup4\n      and\n        /* \"#utility.yul\":5873:5891   */\n      0x24\n      dup3\n      add\n        /* \"#utility.yul\":5866:5926   */\n      mstore\n        /* \"#utility.yul\":5805:5823   */\n      0x44\n      add\n        /* \"packages/contracts/src/framework/utils/ens/ENSSubdomainRegistrar.sol\":5455:5505  InvalidResolver({node: node, resolver: _resolver}) */\n      tag_82\n        /* \"#utility.yul\":5658:5932   */\n      jump\n        /* \"packages/contracts/src/framework/utils/ens/ENSSubdomainRegistrar.sol\":5404:5517  if (_resolver == address(0)) {... */\n    tag_172:\n      pop\n        /* \"packages/contracts/src/framework/utils/ens/ENSSubdomainRegistrar.sol\":5529:5537  resolver */\n      0x67\n        /* \"packages/contracts/src/framework/utils/ens/ENSSubdomainRegistrar.sol\":5529:5549  resolver = _resolver */\n      dup1\n      sload\n      not(sub(shl(0xa0, 0x01), 0x01))\n      and\n      sub(shl(0xa0, 0x01), 0x01)\n      swap3\n      swap1\n      swap3\n      and\n      swap2\n      swap1\n      swap2\n      or\n      swap1\n      sstore\n        /* \"packages/contracts/src/framework/utils/ens/ENSSubdomainRegistrar.sol\":5278:5557  function setDefaultResolver(... */\n      jump\t// out\n        /* \"packages/contracts/src/framework/utils/ens/ENSSubdomainRegistrar.sol\":4044:4162  function _authorizeUpgrade(... */\n    tag_91:\n        /* \"packages/contracts/src/core/plugin/dao-authorizable/DaoAuthorizableUpgradeable.sol\":1662:1666  dao_ */\n      sload(0x33)\n        /* \"packages/contracts/src/framework/utils/ens/ENSSubdomainRegistrar.sol\":1435:1476  keccak256(\"UPGRADE_REGISTRAR_PERMISSION\") */\n      0xa1fcba4efb1e94b7648f5e0504bfd39734aead5f17965d12705915d771c859ff\n      swap1\n        /* \"packages/contracts/src/core/plugin/dao-authorizable/DaoAuthorizableUpgradeable.sol\":1656:1723  _auth(dao_, address(this), _msgSender(), _permissionId, _msgData()) */\n      tag_107\n      swap1\n      sub(shl(0xa0, 0x01), 0x01)\n        /* \"packages/contracts/src/core/plugin/dao-authorizable/DaoAuthorizableUpgradeable.sol\":1662:1666  dao_ */\n      and\n        /* \"packages/contracts/src/core/plugin/dao-authorizable/DaoAuthorizableUpgradeable.sol\":1676:1680  this */\n      address\n        /* \"https://raw.githubusercontent.com/mzfshark/contracts-upgradeable/v4.9.3/contracts/utils/ContextUpgradeable.sol\":929:939  msg.sender */\n      caller\n        /* \"packages/contracts/src/core/plugin/dao-authorizable/DaoAuthorizableUpgradeable.sol\":1683:1695  _msgSender() */\n      tag_139\n        /* \"https://raw.githubusercontent.com/mzfshark/contracts-upgradeable/v4.9.3/contracts/utils/ContextUpgradeable.sol\":850:946  function _msgSender() internal view virtual returns (address) {... */\n      jump\n        /* \"https://raw.githubusercontent.com/mzfshark/openzeppelin-contracts/v4.9.3/contracts/proxy/ERC1967/ERC1967Upgrade.sol\":2494:3416  function _upgradeToAndCallUUPS(address newImplementation, bytes memory data, bool forceCall) internal {... */\n    tag_97:\n        /* \"https://raw.githubusercontent.com/mzfshark/openzeppelin-contracts/v4.9.3/contracts/proxy/ERC1967/ERC1967Upgrade.sol\":689:755  0x4910fdfa16fed3260ed0e7147f7cc6da11a60208b5b9406d12a635614ffd9143 */\n      0x4910fdfa16fed3260ed0e7147f7cc6da11a60208b5b9406d12a635614ffd9143\n        /* \"https://raw.githubusercontent.com/mzfshark/openzeppelin-contracts/v4.9.3/contracts/proxy/ERC1967/ERC1967Upgrade.sol\":2910:2958  StorageSlot.getBooleanSlot(_ROLLBACK_SLOT).value */\n      sload\n      0xff\n      and\n        /* \"https://raw.githubusercontent.com/mzfshark/openzeppelin-contracts/v4.9.3/contracts/proxy/ERC1967/ERC1967Upgrade.sol\":2906:3410  if (StorageSlot.getBooleanSlot(_ROLLBACK_SLOT).value) {... */\n      iszero\n      tag_185\n      jumpi\n        /* \"https://raw.githubusercontent.com/mzfshark/openzeppelin-contracts/v4.9.3/contracts/proxy/ERC1967/ERC1967Upgrade.sol\":2974:3011  _setImplementation(newImplementation) */\n      tag_186\n        /* \"https://raw.githubusercontent.com/mzfshark/openzeppelin-contracts/v4.9.3/contracts/proxy/ERC1967/ERC1967Upgrade.sol\":2993:3010  newImplementation */\n      dup4\n        /* \"https://raw.githubusercontent.com/mzfshark/openzeppelin-contracts/v4.9.3/contracts/proxy/ERC1967/ERC1967Upgrade.sol\":2974:2992  _setImplementation */\n      tag_187\n        /* \"https://raw.githubusercontent.com/mzfshark/openzeppelin-contracts/v4.9.3/contracts/proxy/ERC1967/ERC1967Upgrade.sol\":2974:3011  _setImplementation(newImplementation) */\n      jump\t// in\n    tag_186:\n        /* \"https://raw.githubusercontent.com/mzfshark/openzeppelin-contracts/v4.9.3/contracts/proxy/ERC1967/ERC1967Upgrade.sol\":2494:3416  function _upgradeToAndCallUUPS(address newImplementation, bytes memory data, bool forceCall) internal {... */\n      pop\n      pop\n      pop\n      jump\t// out\n        /* \"https://raw.githubusercontent.com/mzfshark/openzeppelin-contracts/v4.9.3/contracts/proxy/ERC1967/ERC1967Upgrade.sol\":2906:3410  if (StorageSlot.getBooleanSlot(_ROLLBACK_SLOT).value) {... */\n    tag_185:\n        /* \"https://raw.githubusercontent.com/mzfshark/openzeppelin-contracts/v4.9.3/contracts/proxy/ERC1967/ERC1967Upgrade.sol\":3064:3081  newImplementation */\n      dup3\n      sub(shl(0xa0, 0x01), 0x01)\n        /* \"https://raw.githubusercontent.com/mzfshark/openzeppelin-contracts/v4.9.3/contracts/proxy/ERC1967/ERC1967Upgrade.sol\":3046:3096  IERC1822Proxiable(newImplementation).proxiableUUID */\n      and\n      0x52d1902d\n        /* \"https://raw.githubusercontent.com/mzfshark/openzeppelin-contracts/v4.9.3/contracts/proxy/ERC1967/ERC1967Upgrade.sol\":3046:3098  IERC1822Proxiable(newImplementation).proxiableUUID() */\n      mload(0x40)\n      dup2\n      0xffffffff\n      and\n      0xe0\n      shl\n      dup2\n      mstore\n      0x04\n      add\n      0x20\n      mload(0x40)\n      dup1\n      dup4\n      sub\n      dup2\n      dup7\n      gas\n      staticcall\n      swap3\n      pop\n      pop\n      pop\n      dup1\n      iszero\n      tag_189\n      jumpi\n      pop\n      0x40\n      dup1\n      mload\n      0x1f\n      returndatasize\n      swap1\n      dup2\n      add\n      not(0x1f)\n      and\n      dup3\n      add\n      swap1\n      swap3\n      mstore\n      tag_190\n      swap2\n      dup2\n      add\n      swap1\n      tag_158\n      jump\t// in\n    tag_190:\n      0x01\n    tag_189:\n        /* \"https://raw.githubusercontent.com/mzfshark/openzeppelin-contracts/v4.9.3/contracts/proxy/ERC1967/ERC1967Upgrade.sol\":3042:3333  try IERC1822Proxiable(newImplementation).proxiableUUID() returns (bytes32 slot) {... */\n      tag_191\n      jumpi\n        /* \"https://raw.githubusercontent.com/mzfshark/openzeppelin-contracts/v4.9.3/contracts/proxy/ERC1967/ERC1967Upgrade.sol\":3262:3318  revert(\"ERC1967Upgrade: new implementation is not UUPS\") */\n      mload(0x40)\n      shl(0xe5, 0x461bcd)\n      dup2\n      mstore\n        /* \"#utility.yul\":7129:7131   */\n      0x20\n        /* \"https://raw.githubusercontent.com/mzfshark/openzeppelin-contracts/v4.9.3/contracts/proxy/ERC1967/ERC1967Upgrade.sol\":3262:3318  revert(\"ERC1967Upgrade: new implementation is not UUPS\") */\n      0x04\n      dup3\n      add\n        /* \"#utility.yul\":7111:7132   */\n      mstore\n        /* \"#utility.yul\":7168:7170   */\n      0x2e\n        /* \"#utility.yul\":7148:7166   */\n      0x24\n      dup3\n      add\n        /* \"#utility.yul\":7141:7171   */\n      mstore\n        /* \"#utility.yul\":7207:7241   */\n      0x45524331393637557067726164653a206e657720696d706c656d656e74617469\n        /* \"#utility.yul\":7187:7205   */\n      0x44\n      dup3\n      add\n        /* \"#utility.yul\":7180:7242   */\n      mstore\n      shl(0x90, 0x6f6e206973206e6f742055555053)\n        /* \"#utility.yul\":7258:7276   */\n      0x64\n      dup3\n      add\n        /* \"#utility.yul\":7251:7295   */\n      mstore\n        /* \"#utility.yul\":7312:7331   */\n      0x84\n      add\n        /* \"https://raw.githubusercontent.com/mzfshark/openzeppelin-contracts/v4.9.3/contracts/proxy/ERC1967/ERC1967Upgrade.sol\":3262:3318  revert(\"ERC1967Upgrade: new implementation is not UUPS\") */\n      tag_82\n        /* \"#utility.yul\":6927:7337   */\n      jump\n        /* \"https://raw.githubusercontent.com/mzfshark/openzeppelin-contracts/v4.9.3/contracts/proxy/ERC1967/ERC1967Upgrade.sol\":3042:3333  try IERC1822Proxiable(newImplementation).proxiableUUID() returns (bytes32 slot) {... */\n    tag_191:\n      0x00\n      dup1\n      mload\n      0x20\n      data_75b20eef8615de99c108b05f0dbda081c91897128caa336d75dffb97c4132b4d\n      dup4\n      codecopy\n      dup2\n      mload\n      swap2\n      mstore\n        /* \"https://raw.githubusercontent.com/mzfshark/openzeppelin-contracts/v4.9.3/contracts/proxy/ERC1967/ERC1967Upgrade.sol\":3148:3176  slot == _IMPLEMENTATION_SLOT */\n      dup2\n      eq\n        /* \"https://raw.githubusercontent.com/mzfshark/openzeppelin-contracts/v4.9.3/contracts/proxy/ERC1967/ERC1967Upgrade.sol\":3140:3222  require(slot == _IMPLEMENTATION_SLOT, \"ERC1967Upgrade: unsupported proxiableUUID\") */\n      tag_198\n      jumpi\n      mload(0x40)\n      shl(0xe5, 0x461bcd)\n      dup2\n      mstore\n        /* \"#utility.yul\":7544:7546   */\n      0x20\n        /* \"https://raw.githubusercontent.com/mzfshark/openzeppelin-contracts/v4.9.3/contracts/proxy/ERC1967/ERC1967Upgrade.sol\":3140:3222  require(slot == _IMPLEMENTATION_SLOT, \"ERC1967Upgrade: unsupported proxiableUUID\") */\n      0x04\n      dup3\n      add\n        /* \"#utility.yul\":7526:7547   */\n      mstore\n        /* \"#utility.yul\":7583:7585   */\n      0x29\n        /* \"#utility.yul\":7563:7581   */\n      0x24\n      dup3\n      add\n        /* \"#utility.yul\":7556:7586   */\n      mstore\n        /* \"#utility.yul\":7622:7656   */\n      0x45524331393637557067726164653a20756e737570706f727465642070726f78\n        /* \"#utility.yul\":7602:7620   */\n      0x44\n      dup3\n      add\n        /* \"#utility.yul\":7595:7657   */\n      mstore\n      shl(0xba, 0x1a58589b1955555251)\n        /* \"#utility.yul\":7673:7691   */\n      0x64\n      dup3\n      add\n        /* \"#utility.yul\":7666:7705   */\n      mstore\n        /* \"#utility.yul\":7722:7741   */\n      0x84\n      add\n        /* \"https://raw.githubusercontent.com/mzfshark/openzeppelin-contracts/v4.9.3/contracts/proxy/ERC1967/ERC1967Upgrade.sol\":3140:3222  require(slot == _IMPLEMENTATION_SLOT, \"ERC1967Upgrade: unsupported proxiableUUID\") */\n      tag_82\n        /* \"#utility.yul\":7342:7747   */\n      jump\n        /* \"https://raw.githubusercontent.com/mzfshark/openzeppelin-contracts/v4.9.3/contracts/proxy/ERC1967/ERC1967Upgrade.sol\":3140:3222  require(slot == _IMPLEMENTATION_SLOT, \"ERC1967Upgrade: unsupported proxiableUUID\") */\n    tag_198:\n        /* \"https://raw.githubusercontent.com/mzfshark/openzeppelin-contracts/v4.9.3/contracts/proxy/ERC1967/ERC1967Upgrade.sol\":3099:3237  returns (bytes32 slot) {... */\n      pop\n        /* \"https://raw.githubusercontent.com/mzfshark/openzeppelin-contracts/v4.9.3/contracts/proxy/ERC1967/ERC1967Upgrade.sol\":3346:3399  _upgradeToAndCall(newImplementation, data, forceCall) */\n      tag_186\n        /* \"https://raw.githubusercontent.com/mzfshark/openzeppelin-contracts/v4.9.3/contracts/proxy/ERC1967/ERC1967Upgrade.sol\":3364:3381  newImplementation */\n      dup4\n        /* \"https://raw.githubusercontent.com/mzfshark/openzeppelin-contracts/v4.9.3/contracts/proxy/ERC1967/ERC1967Upgrade.sol\":3383:3387  data */\n      dup4\n        /* \"https://raw.githubusercontent.com/mzfshark/openzeppelin-contracts/v4.9.3/contracts/proxy/ERC1967/ERC1967Upgrade.sol\":3389:3398  forceCall */\n      dup4\n        /* \"https://raw.githubusercontent.com/mzfshark/openzeppelin-contracts/v4.9.3/contracts/proxy/ERC1967/ERC1967Upgrade.sol\":3346:3363  _upgradeToAndCall */\n      tag_202\n        /* \"https://raw.githubusercontent.com/mzfshark/openzeppelin-contracts/v4.9.3/contracts/proxy/ERC1967/ERC1967Upgrade.sol\":3346:3399  _upgradeToAndCall(newImplementation, data, forceCall) */\n      jump\t// in\n        /* \"packages/contracts/src/core/plugin/dao-authorizable/DaoAuthorizableUpgradeable.sol\":1043:1153  function __DaoAuthorizableUpgradeable_init(IDAO _dao) internal onlyInitializing {... */\n    tag_125:\n        /* \"https://raw.githubusercontent.com/mzfshark/contracts-upgradeable/v4.9.3/contracts/proxy/utils/Initializable.sol\":5374:5387  _initializing */\n      sload(0x00)\n      0x0100\n      swap1\n      div\n      0xff\n      and\n        /* \"https://raw.githubusercontent.com/mzfshark/contracts-upgradeable/v4.9.3/contracts/proxy/utils/Initializable.sol\":5366:5435  require(_initializing, \"Initializable: contract is not initializing\") */\n      tag_205\n      jumpi\n      mload(0x40)\n      shl(0xe5, 0x461bcd)\n      dup2\n      mstore\n        /* \"#utility.yul\":7954:7956   */\n      0x20\n        /* \"https://raw.githubusercontent.com/mzfshark/contracts-upgradeable/v4.9.3/contracts/proxy/utils/Initializable.sol\":5366:5435  require(_initializing, \"Initializable: contract is not initializing\") */\n      0x04\n      dup3\n      add\n        /* \"#utility.yul\":7936:7957   */\n      mstore\n        /* \"#utility.yul\":7993:7995   */\n      0x2b\n        /* \"#utility.yul\":7973:7991   */\n      0x24\n      dup3\n      add\n        /* \"#utility.yul\":7966:7996   */\n      mstore\n        /* \"#utility.yul\":8032:8066   */\n      0x496e697469616c697a61626c653a20636f6e7472616374206973206e6f742069\n        /* \"#utility.yul\":8012:8030   */\n      0x44\n      dup3\n      add\n        /* \"#utility.yul\":8005:8067   */\n      mstore\n      shl(0xa8, 0x6e697469616c697a696e67)\n        /* \"#utility.yul\":8083:8101   */\n      0x64\n      dup3\n      add\n        /* \"#utility.yul\":8076:8117   */\n      mstore\n        /* \"#utility.yul\":8134:8153   */\n      0x84\n      add\n        /* \"https://raw.githubusercontent.com/mzfshark/contracts-upgradeable/v4.9.3/contracts/proxy/utils/Initializable.sol\":5366:5435  require(_initializing, \"Initializable: contract is not initializing\") */\n      tag_82\n        /* \"#utility.yul\":7752:8159   */\n      jump\n        /* \"https://raw.githubusercontent.com/mzfshark/contracts-upgradeable/v4.9.3/contracts/proxy/utils/Initializable.sol\":5366:5435  require(_initializing, \"Initializable: contract is not initializing\") */\n    tag_205:\n        /* \"packages/contracts/src/core/plugin/dao-authorizable/DaoAuthorizableUpgradeable.sol\":1134:1138  dao_ */\n      0x33\n        /* \"packages/contracts/src/core/plugin/dao-authorizable/DaoAuthorizableUpgradeable.sol\":1134:1145  dao_ = _dao */\n      dup1\n      sload\n      not(sub(shl(0xa0, 0x01), 0x01))\n      and\n      sub(shl(0xa0, 0x01), 0x01)\n      swap3\n      swap1\n      swap3\n      and\n      swap2\n      swap1\n      swap2\n      or\n      swap1\n      sstore\n        /* \"packages/contracts/src/core/plugin/dao-authorizable/DaoAuthorizableUpgradeable.sol\":1043:1153  function __DaoAuthorizableUpgradeable_init(IDAO _dao) internal onlyInitializing {... */\n      jump\t// out\n        /* \"packages/contracts/src/core/utils/auth.sol\":1057:1434  function _auth(... */\n    tag_143:\n        /* \"packages/contracts/src/core/utils/auth.sol\":1203:1257  _dao.hasPermission(_where, _who, _permissionId, _data) */\n      mload(0x40)\n      shl(0xe1, 0x7ef7c883)\n      dup2\n      mstore\n      sub(shl(0xa0, 0x01), 0x01)\n        /* \"packages/contracts/src/core/utils/auth.sol\":1203:1221  _dao.hasPermission */\n      dup8\n      and\n      swap1\n      0xfdef9106\n      swap1\n        /* \"packages/contracts/src/core/utils/auth.sol\":1203:1257  _dao.hasPermission(_where, _who, _permissionId, _data) */\n      tag_212\n      swap1\n        /* \"packages/contracts/src/core/utils/auth.sol\":1222:1228  _where */\n      dup9\n      swap1\n        /* \"packages/contracts/src/core/utils/auth.sol\":1230:1234  _who */\n      dup9\n      swap1\n        /* \"packages/contracts/src/core/utils/auth.sol\":1236:1249  _permissionId */\n      dup9\n      swap1\n        /* \"packages/contracts/src/core/utils/auth.sol\":1251:1256  _data */\n      dup9\n      swap1\n      dup9\n      swap1\n        /* \"packages/contracts/src/core/utils/auth.sol\":1203:1257  _dao.hasPermission(_where, _who, _permissionId, _data) */\n      0x04\n      add\n      tag_213\n      jump\t// in\n    tag_212:\n      0x20\n      mload(0x40)\n      dup1\n      dup4\n      sub\n      dup2\n      dup7\n      gas\n      staticcall\n      iszero\n      dup1\n      iszero\n      tag_215\n      jumpi\n      returndatasize\n      0x00\n      dup1\n      returndatacopy\n      revert(0x00, returndatasize)\n    tag_215:\n      pop\n      pop\n      pop\n      pop\n      mload(0x40)\n      returndatasize\n      not(0x1f)\n      0x1f\n      dup3\n      add\n      and\n      dup3\n      add\n      dup1\n      0x40\n      mstore\n      pop\n      dup2\n      add\n      swap1\n      tag_216\n      swap2\n      swap1\n      tag_217\n      jump\t// in\n    tag_216:\n        /* \"packages/contracts/src/core/utils/auth.sol\":1198:1430  if (!_dao.hasPermission(_where, _who, _permissionId, _data))... */\n      tag_218\n      jumpi\n        /* \"packages/contracts/src/core/utils/auth.sol\":1275:1430  DaoUnauthorized({... */\n      mload(0x40)\n      shl(0xe2, 0x0cb6f8ed)\n      dup2\n      mstore\n      sub(shl(0xa0, 0x01), 0x01)\n        /* \"#utility.yul\":9400:9415   */\n      dup1\n      dup9\n      and\n        /* \"packages/contracts/src/core/utils/auth.sol\":1275:1430  DaoUnauthorized({... */\n      0x04\n      dup4\n      add\n        /* \"#utility.yul\":9382:9416   */\n      mstore\n        /* \"#utility.yul\":9452:9467   */\n      dup1\n      dup8\n      and\n        /* \"#utility.yul\":9432:9450   */\n      0x24\n      dup4\n      add\n        /* \"#utility.yul\":9425:9468   */\n      mstore\n        /* \"#utility.yul\":9504:9519   */\n      dup6\n      and\n        /* \"#utility.yul\":9484:9502   */\n      0x44\n      dup3\n      add\n        /* \"#utility.yul\":9477:9520   */\n      mstore\n        /* \"#utility.yul\":9536:9554   */\n      0x64\n      dup2\n      add\n        /* \"#utility.yul\":9529:9563   */\n      dup5\n      swap1\n      mstore\n        /* \"#utility.yul\":9316:9335   */\n      0x84\n      add\n        /* \"packages/contracts/src/core/utils/auth.sol\":1275:1430  DaoUnauthorized({... */\n      tag_82\n        /* \"#utility.yul\":9113:9569   */\n      jump\n        /* \"packages/contracts/src/core/utils/auth.sol\":1198:1430  if (!_dao.hasPermission(_where, _who, _permissionId, _data))... */\n    tag_218:\n        /* \"packages/contracts/src/core/utils/auth.sol\":1057:1434  function _auth(... */\n      pop\n      pop\n      pop\n      pop\n      pop\n      pop\n      jump\t// out\n        /* \"https://raw.githubusercontent.com/mzfshark/openzeppelin-contracts/v4.9.3/contracts/proxy/ERC1967/ERC1967Upgrade.sol\":1406:1665  function _setImplementation(address newImplementation) private {... */\n    tag_187:\n      sub(shl(0xa0, 0x01), 0x01)\n        /* \"https://raw.githubusercontent.com/mzfshark/contracts-upgradeable/v4.9.3/contracts/utils/AddressUpgradeable.sol\":1713:1732  account.code.length */\n      dup2\n      and\n      extcodesize\n        /* \"https://raw.githubusercontent.com/mzfshark/openzeppelin-contracts/v4.9.3/contracts/proxy/ERC1967/ERC1967Upgrade.sol\":1479:1574  require(Address.isContract(newImplementation), \"ERC1967: new implementation is not a contract\") */\n      tag_226\n      jumpi\n      mload(0x40)\n      shl(0xe5, 0x461bcd)\n      dup2\n      mstore\n        /* \"#utility.yul\":9776:9778   */\n      0x20\n        /* \"https://raw.githubusercontent.com/mzfshark/openzeppelin-contracts/v4.9.3/contracts/proxy/ERC1967/ERC1967Upgrade.sol\":1479:1574  require(Address.isContract(newImplementation), \"ERC1967: new implementation is not a contract\") */\n      0x04\n      dup3\n      add\n        /* \"#utility.yul\":9758:9779   */\n      mstore\n        /* \"#utility.yul\":9815:9817   */\n      0x2d\n        /* \"#utility.yul\":9795:9813   */\n      0x24\n      dup3\n      add\n        /* \"#utility.yul\":9788:9818   */\n      mstore\n        /* \"#utility.yul\":9854:9888   */\n      0x455243313936373a206e657720696d706c656d656e746174696f6e206973206e\n        /* \"#utility.yul\":9834:9852   */\n      0x44\n      dup3\n      add\n        /* \"#utility.yul\":9827:9889   */\n      mstore\n      shl(0x9a, 0x1bdd08184818dbdb9d1c9858dd)\n        /* \"#utility.yul\":9905:9923   */\n      0x64\n      dup3\n      add\n        /* \"#utility.yul\":9898:9941   */\n      mstore\n        /* \"#utility.yul\":9958:9977   */\n      0x84\n      add\n        /* \"https://raw.githubusercontent.com/mzfshark/openzeppelin-contracts/v4.9.3/contracts/proxy/ERC1967/ERC1967Upgrade.sol\":1479:1574  require(Address.isContract(newImplementation), \"ERC1967: new implementation is not a contract\") */\n      tag_82\n        /* \"#utility.yul\":9574:9983   */\n      jump\n        /* \"https://raw.githubusercontent.com/mzfshark/openzeppelin-contracts/v4.9.3/contracts/proxy/ERC1967/ERC1967Upgrade.sol\":1479:1574  require(Address.isContract(newImplementation), \"ERC1967: new implementation is not a contract\") */\n    tag_226:\n      0x00\n      dup1\n      mload\n      0x20\n      data_75b20eef8615de99c108b05f0dbda081c91897128caa336d75dffb97c4132b4d\n      dup4\n      codecopy\n      dup2\n      mload\n      swap2\n      mstore\n        /* \"https://raw.githubusercontent.com/mzfshark/openzeppelin-contracts/v4.9.3/contracts/proxy/ERC1967/ERC1967Upgrade.sol\":1584:1658  StorageSlot.getAddressSlot(_IMPLEMENTATION_SLOT).value = newImplementation */\n      dup1\n      sload\n      not(sub(shl(0xa0, 0x01), 0x01))\n      and\n      sub(shl(0xa0, 0x01), 0x01)\n      swap3\n      swap1\n      swap3\n      and\n      swap2\n      swap1\n      swap2\n      or\n      swap1\n      sstore\n        /* \"https://raw.githubusercontent.com/mzfshark/openzeppelin-contracts/v4.9.3/contracts/proxy/ERC1967/ERC1967Upgrade.sol\":1406:1665  function _setImplementation(address newImplementation) private {... */\n      jump\t// out\n        /* \"https://raw.githubusercontent.com/mzfshark/openzeppelin-contracts/v4.9.3/contracts/proxy/ERC1967/ERC1967Upgrade.sol\":2057:2322  function _upgradeToAndCall(address newImplementation, bytes memory data, bool forceCall) internal {... */\n    tag_202:\n        /* \"https://raw.githubusercontent.com/mzfshark/openzeppelin-contracts/v4.9.3/contracts/proxy/ERC1967/ERC1967Upgrade.sol\":2165:2194  _upgradeTo(newImplementation) */\n      tag_231\n        /* \"https://raw.githubusercontent.com/mzfshark/openzeppelin-contracts/v4.9.3/contracts/proxy/ERC1967/ERC1967Upgrade.sol\":2176:2193  newImplementation */\n      dup4\n        /* \"https://raw.githubusercontent.com/mzfshark/openzeppelin-contracts/v4.9.3/contracts/proxy/ERC1967/ERC1967Upgrade.sol\":2165:2175  _upgradeTo */\n      tag_232\n        /* \"https://raw.githubusercontent.com/mzfshark/openzeppelin-contracts/v4.9.3/contracts/proxy/ERC1967/ERC1967Upgrade.sol\":2165:2194  _upgradeTo(newImplementation) */\n      jump\t// in\n    tag_231:\n        /* \"https://raw.githubusercontent.com/mzfshark/openzeppelin-contracts/v4.9.3/contracts/proxy/ERC1967/ERC1967Upgrade.sol\":2222:2223  0 */\n      0x00\n        /* \"https://raw.githubusercontent.com/mzfshark/openzeppelin-contracts/v4.9.3/contracts/proxy/ERC1967/ERC1967Upgrade.sol\":2208:2212  data */\n      dup3\n        /* \"https://raw.githubusercontent.com/mzfshark/openzeppelin-contracts/v4.9.3/contracts/proxy/ERC1967/ERC1967Upgrade.sol\":2208:2219  data.length */\n      mload\n        /* \"https://raw.githubusercontent.com/mzfshark/openzeppelin-contracts/v4.9.3/contracts/proxy/ERC1967/ERC1967Upgrade.sol\":2208:2223  data.length > 0 */\n      gt\n        /* \"https://raw.githubusercontent.com/mzfshark/openzeppelin-contracts/v4.9.3/contracts/proxy/ERC1967/ERC1967Upgrade.sol\":2208:2236  data.length > 0 || forceCall */\n      dup1\n      tag_233\n      jumpi\n      pop\n        /* \"https://raw.githubusercontent.com/mzfshark/openzeppelin-contracts/v4.9.3/contracts/proxy/ERC1967/ERC1967Upgrade.sol\":2227:2236  forceCall */\n      dup1\n        /* \"https://raw.githubusercontent.com/mzfshark/openzeppelin-contracts/v4.9.3/contracts/proxy/ERC1967/ERC1967Upgrade.sol\":2208:2236  data.length > 0 || forceCall */\n    tag_233:\n        /* \"https://raw.githubusercontent.com/mzfshark/openzeppelin-contracts/v4.9.3/contracts/proxy/ERC1967/ERC1967Upgrade.sol\":2204:2316  if (data.length > 0 || forceCall) {... */\n      iszero\n      tag_186\n      jumpi\n        /* \"https://raw.githubusercontent.com/mzfshark/openzeppelin-contracts/v4.9.3/contracts/proxy/ERC1967/ERC1967Upgrade.sol\":2252:2305  Address.functionDelegateCall(newImplementation, data) */\n      tag_134\n        /* \"https://raw.githubusercontent.com/mzfshark/openzeppelin-contracts/v4.9.3/contracts/proxy/ERC1967/ERC1967Upgrade.sol\":2281:2298  newImplementation */\n      dup4\n        /* \"https://raw.githubusercontent.com/mzfshark/openzeppelin-contracts/v4.9.3/contracts/proxy/ERC1967/ERC1967Upgrade.sol\":2300:2304  data */\n      dup4\n        /* \"https://raw.githubusercontent.com/mzfshark/openzeppelin-contracts/v4.9.3/contracts/proxy/ERC1967/ERC1967Upgrade.sol\":2252:2280  Address.functionDelegateCall */\n      tag_236\n        /* \"https://raw.githubusercontent.com/mzfshark/openzeppelin-contracts/v4.9.3/contracts/proxy/ERC1967/ERC1967Upgrade.sol\":2252:2305  Address.functionDelegateCall(newImplementation, data) */\n      jump\t// in\n        /* \"https://raw.githubusercontent.com/mzfshark/openzeppelin-contracts/v4.9.3/contracts/proxy/ERC1967/ERC1967Upgrade.sol\":1771:1923  function _upgradeTo(address newImplementation) internal {... */\n    tag_232:\n        /* \"https://raw.githubusercontent.com/mzfshark/openzeppelin-contracts/v4.9.3/contracts/proxy/ERC1967/ERC1967Upgrade.sol\":1837:1874  _setImplementation(newImplementation) */\n      tag_239\n        /* \"https://raw.githubusercontent.com/mzfshark/openzeppelin-contracts/v4.9.3/contracts/proxy/ERC1967/ERC1967Upgrade.sol\":1856:1873  newImplementation */\n      dup2\n        /* \"https://raw.githubusercontent.com/mzfshark/openzeppelin-contracts/v4.9.3/contracts/proxy/ERC1967/ERC1967Upgrade.sol\":1837:1855  _setImplementation */\n      tag_187\n        /* \"https://raw.githubusercontent.com/mzfshark/openzeppelin-contracts/v4.9.3/contracts/proxy/ERC1967/ERC1967Upgrade.sol\":1837:1874  _setImplementation(newImplementation) */\n      jump\t// in\n    tag_239:\n        /* \"https://raw.githubusercontent.com/mzfshark/openzeppelin-contracts/v4.9.3/contracts/proxy/ERC1967/ERC1967Upgrade.sol\":1889:1916  Upgraded(newImplementation) */\n      mload(0x40)\n      sub(shl(0xa0, 0x01), 0x01)\n      dup3\n      and\n      swap1\n      0xbc7cd75a20ee27fd9adebab32041f755214dbc6bffa90cc0225b39da2e5c2d3b\n      swap1\n      0x00\n      swap1\n      log2\n        /* \"https://raw.githubusercontent.com/mzfshark/openzeppelin-contracts/v4.9.3/contracts/proxy/ERC1967/ERC1967Upgrade.sol\":1771:1923  function _upgradeTo(address newImplementation) internal {... */\n      pop\n      jump\t// out\n        /* \"https://raw.githubusercontent.com/mzfshark/openzeppelin-contracts/v4.9.3/contracts/utils/Address.sol\":6674:6872  function functionDelegateCall(address target, bytes memory data) internal returns (bytes memory) {... */\n    tag_236:\n        /* \"https://raw.githubusercontent.com/mzfshark/openzeppelin-contracts/v4.9.3/contracts/utils/Address.sol\":6757:6769  bytes memory */\n      0x60\n        /* \"https://raw.githubusercontent.com/mzfshark/openzeppelin-contracts/v4.9.3/contracts/utils/Address.sol\":6788:6865  functionDelegateCall(target, data, \"Address: low-level delegate call failed\") */\n      tag_241\n        /* \"https://raw.githubusercontent.com/mzfshark/openzeppelin-contracts/v4.9.3/contracts/utils/Address.sol\":6809:6815  target */\n      dup4\n        /* \"https://raw.githubusercontent.com/mzfshark/openzeppelin-contracts/v4.9.3/contracts/utils/Address.sol\":6817:6821  data */\n      dup4\n        /* \"https://raw.githubusercontent.com/mzfshark/openzeppelin-contracts/v4.9.3/contracts/utils/Address.sol\":6788:6865  functionDelegateCall(target, data, \"Address: low-level delegate call failed\") */\n      mload(0x40)\n      dup1\n      0x60\n      add\n      0x40\n      mstore\n      dup1\n      0x27\n      dup2\n      mstore\n      0x20\n      add\n      data_9fdcd12e4b726339b32a442b0a448365d5d85c96b2d2cff917b4f66c63110398\n      0x27\n      swap2\n      codecopy\n        /* \"https://raw.githubusercontent.com/mzfshark/openzeppelin-contracts/v4.9.3/contracts/utils/Address.sol\":6788:6808  functionDelegateCall */\n      tag_242\n        /* \"https://raw.githubusercontent.com/mzfshark/openzeppelin-contracts/v4.9.3/contracts/utils/Address.sol\":6788:6865  functionDelegateCall(target, data, \"Address: low-level delegate call failed\") */\n      jump\t// in\n    tag_241:\n        /* \"https://raw.githubusercontent.com/mzfshark/openzeppelin-contracts/v4.9.3/contracts/utils/Address.sol\":6781:6865  return functionDelegateCall(target, data, \"Address: low-level delegate call failed\") */\n      swap4\n        /* \"https://raw.githubusercontent.com/mzfshark/openzeppelin-contracts/v4.9.3/contracts/utils/Address.sol\":6674:6872  function functionDelegateCall(address target, bytes memory data) internal returns (bytes memory) {... */\n      swap3\n      pop\n      pop\n      pop\n      jump\t// out\n        /* \"https://raw.githubusercontent.com/mzfshark/openzeppelin-contracts/v4.9.3/contracts/utils/Address.sol\":7058:7383  function functionDelegateCall(... */\n    tag_242:\n        /* \"https://raw.githubusercontent.com/mzfshark/openzeppelin-contracts/v4.9.3/contracts/utils/Address.sol\":7199:7211  bytes memory */\n      0x60\n        /* \"https://raw.githubusercontent.com/mzfshark/openzeppelin-contracts/v4.9.3/contracts/utils/Address.sol\":7224:7236  bool success */\n      0x00\n        /* \"https://raw.githubusercontent.com/mzfshark/openzeppelin-contracts/v4.9.3/contracts/utils/Address.sol\":7238:7261  bytes memory returndata */\n      dup1\n        /* \"https://raw.githubusercontent.com/mzfshark/openzeppelin-contracts/v4.9.3/contracts/utils/Address.sol\":7265:7271  target */\n      dup6\n      sub(shl(0xa0, 0x01), 0x01)\n        /* \"https://raw.githubusercontent.com/mzfshark/openzeppelin-contracts/v4.9.3/contracts/utils/Address.sol\":7265:7284  target.delegatecall */\n      and\n        /* \"https://raw.githubusercontent.com/mzfshark/openzeppelin-contracts/v4.9.3/contracts/utils/Address.sol\":7285:7289  data */\n      dup6\n        /* \"https://raw.githubusercontent.com/mzfshark/openzeppelin-contracts/v4.9.3/contracts/utils/Address.sol\":7265:7290  target.delegatecall(data) */\n      mload(0x40)\n      tag_244\n      swap2\n      swap1\n      tag_245\n      jump\t// in\n    tag_244:\n      0x00\n      mload(0x40)\n      dup1\n      dup4\n      sub\n      dup2\n      dup6\n      gas\n      delegatecall\n      swap2\n      pop\n      pop\n      returndatasize\n      dup1\n      0x00\n      dup2\n      eq\n      tag_248\n      jumpi\n      mload(0x40)\n      swap2\n      pop\n      and(add(returndatasize, 0x3f), not(0x1f))\n      dup3\n      add\n      0x40\n      mstore\n      returndatasize\n      dup3\n      mstore\n      returndatasize\n      0x00\n      0x20\n      dup5\n      add\n      returndatacopy\n      jump(tag_247)\n    tag_248:\n      0x60\n      swap2\n      pop\n    tag_247:\n      pop\n        /* \"https://raw.githubusercontent.com/mzfshark/openzeppelin-contracts/v4.9.3/contracts/utils/Address.sol\":7223:7290  (bool success, bytes memory returndata) = target.delegatecall(data) */\n      swap2\n      pop\n      swap2\n      pop\n        /* \"https://raw.githubusercontent.com/mzfshark/openzeppelin-contracts/v4.9.3/contracts/utils/Address.sol\":7307:7376  verifyCallResultFromTarget(target, success, returndata, errorMessage) */\n      tag_249\n        /* \"https://raw.githubusercontent.com/mzfshark/openzeppelin-contracts/v4.9.3/contracts/utils/Address.sol\":7334:7340  target */\n      dup7\n        /* \"https://raw.githubusercontent.com/mzfshark/openzeppelin-contracts/v4.9.3/contracts/utils/Address.sol\":7342:7349  success */\n      dup4\n        /* \"https://raw.githubusercontent.com/mzfshark/openzeppelin-contracts/v4.9.3/contracts/utils/Address.sol\":7351:7361  returndata */\n      dup4\n        /* \"https://raw.githubusercontent.com/mzfshark/openzeppelin-contracts/v4.9.3/contracts/utils/Address.sol\":7363:7375  errorMessage */\n      dup8\n        /* \"https://raw.githubusercontent.com/mzfshark/openzeppelin-contracts/v4.9.3/contracts/utils/Address.sol\":7307:7333  verifyCallResultFromTarget */\n      tag_250\n        /* \"https://raw.githubusercontent.com/mzfshark/openzeppelin-contracts/v4.9.3/contracts/utils/Address.sol\":7307:7376  verifyCallResultFromTarget(target, success, returndata, errorMessage) */\n      jump\t// in\n    tag_249:\n        /* \"https://raw.githubusercontent.com/mzfshark/openzeppelin-contracts/v4.9.3/contracts/utils/Address.sol\":7300:7376  return verifyCallResultFromTarget(target, success, returndata, errorMessage) */\n      swap7\n        /* \"https://raw.githubusercontent.com/mzfshark/openzeppelin-contracts/v4.9.3/contracts/utils/Address.sol\":7058:7383  function functionDelegateCall(... */\n      swap6\n      pop\n      pop\n      pop\n      pop\n      pop\n      pop\n      jump\t// out\n        /* \"https://raw.githubusercontent.com/mzfshark/openzeppelin-contracts/v4.9.3/contracts/utils/Address.sol\":7671:8299  function verifyCallResultFromTarget(... */\n    tag_250:\n        /* \"https://raw.githubusercontent.com/mzfshark/openzeppelin-contracts/v4.9.3/contracts/utils/Address.sol\":7851:7863  bytes memory */\n      0x60\n        /* \"https://raw.githubusercontent.com/mzfshark/openzeppelin-contracts/v4.9.3/contracts/utils/Address.sol\":7879:7886  success */\n      dup4\n        /* \"https://raw.githubusercontent.com/mzfshark/openzeppelin-contracts/v4.9.3/contracts/utils/Address.sol\":7875:8293  if (success) {... */\n      iszero\n      tag_252\n      jumpi\n        /* \"https://raw.githubusercontent.com/mzfshark/openzeppelin-contracts/v4.9.3/contracts/utils/Address.sol\":7906:7916  returndata */\n      dup3\n        /* \"https://raw.githubusercontent.com/mzfshark/openzeppelin-contracts/v4.9.3/contracts/utils/Address.sol\":7906:7923  returndata.length */\n      mload\n        /* \"https://raw.githubusercontent.com/mzfshark/openzeppelin-contracts/v4.9.3/contracts/utils/Address.sol\":7927:7928  0 */\n      0x00\n        /* \"https://raw.githubusercontent.com/mzfshark/openzeppelin-contracts/v4.9.3/contracts/utils/Address.sol\":7906:7928  returndata.length == 0 */\n      sub\n        /* \"https://raw.githubusercontent.com/mzfshark/openzeppelin-contracts/v4.9.3/contracts/utils/Address.sol\":7902:8188  if (returndata.length == 0) {... */\n      tag_255\n      jumpi\n      sub(shl(0xa0, 0x01), 0x01)\n        /* \"https://raw.githubusercontent.com/mzfshark/contracts-upgradeable/v4.9.3/contracts/utils/AddressUpgradeable.sol\":1713:1732  account.code.length */\n      dup6\n      and\n      extcodesize\n        /* \"https://raw.githubusercontent.com/mzfshark/openzeppelin-contracts/v4.9.3/contracts/utils/Address.sol\":8113:8173  require(isContract(target), \"Address: call to non-contract\") */\n      tag_255\n      jumpi\n      mload(0x40)\n      shl(0xe5, 0x461bcd)\n      dup2\n      mstore\n        /* \"#utility.yul\":10737:10739   */\n      0x20\n        /* \"https://raw.githubusercontent.com/mzfshark/openzeppelin-contracts/v4.9.3/contracts/utils/Address.sol\":8113:8173  require(isContract(target), \"Address: call to non-contract\") */\n      0x04\n      dup3\n      add\n        /* \"#utility.yul\":10719:10740   */\n      mstore\n        /* \"#utility.yul\":10776:10778   */\n      0x1d\n        /* \"#utility.yul\":10756:10774   */\n      0x24\n      dup3\n      add\n        /* \"#utility.yul\":10749:10779   */\n      mstore\n        /* \"#utility.yul\":10815:10846   */\n      0x416464726573733a2063616c6c20746f206e6f6e2d636f6e7472616374000000\n        /* \"#utility.yul\":10795:10813   */\n      0x44\n      dup3\n      add\n        /* \"#utility.yul\":10788:10847   */\n      mstore\n        /* \"#utility.yul\":10864:10882   */\n      0x64\n      add\n        /* \"https://raw.githubusercontent.com/mzfshark/openzeppelin-contracts/v4.9.3/contracts/utils/Address.sol\":8113:8173  require(isContract(target), \"Address: call to non-contract\") */\n      tag_82\n        /* \"#utility.yul\":10535:10888   */\n      jump\n        /* \"https://raw.githubusercontent.com/mzfshark/openzeppelin-contracts/v4.9.3/contracts/utils/Address.sol\":8113:8173  require(isContract(target), \"Address: call to non-contract\") */\n    tag_255:\n      pop\n        /* \"https://raw.githubusercontent.com/mzfshark/openzeppelin-contracts/v4.9.3/contracts/utils/Address.sol\":8208:8218  returndata */\n      dup2\n        /* \"https://raw.githubusercontent.com/mzfshark/openzeppelin-contracts/v4.9.3/contracts/utils/Address.sol\":8201:8218  return returndata */\n      jump(tag_259)\n        /* \"https://raw.githubusercontent.com/mzfshark/openzeppelin-contracts/v4.9.3/contracts/utils/Address.sol\":7875:8293  if (success) {... */\n    tag_252:\n        /* \"https://raw.githubusercontent.com/mzfshark/openzeppelin-contracts/v4.9.3/contracts/utils/Address.sol\":8249:8282  _revert(returndata, errorMessage) */\n      tag_259\n        /* \"https://raw.githubusercontent.com/mzfshark/openzeppelin-contracts/v4.9.3/contracts/utils/Address.sol\":8257:8267  returndata */\n      dup4\n        /* \"https://raw.githubusercontent.com/mzfshark/openzeppelin-contracts/v4.9.3/contracts/utils/Address.sol\":8269:8281  errorMessage */\n      dup4\n        /* \"https://raw.githubusercontent.com/mzfshark/openzeppelin-contracts/v4.9.3/contracts/utils/Address.sol\":8249:8256  _revert */\n      tag_260\n        /* \"https://raw.githubusercontent.com/mzfshark/openzeppelin-contracts/v4.9.3/contracts/utils/Address.sol\":8249:8282  _revert(returndata, errorMessage) */\n      jump\t// in\n    tag_259:\n        /* \"https://raw.githubusercontent.com/mzfshark/openzeppelin-contracts/v4.9.3/contracts/utils/Address.sol\":7671:8299  function verifyCallResultFromTarget(... */\n      swap5\n      swap4\n      pop\n      pop\n      pop\n      pop\n      jump\t// out\n        /* \"https://raw.githubusercontent.com/mzfshark/openzeppelin-contracts/v4.9.3/contracts/utils/Address.sol\":8821:9361  function _revert(bytes memory returndata, string memory errorMessage) private pure {... */\n    tag_260:\n        /* \"https://raw.githubusercontent.com/mzfshark/openzeppelin-contracts/v4.9.3/contracts/utils/Address.sol\":8980:8997  returndata.length */\n      dup2\n      mload\n        /* \"https://raw.githubusercontent.com/mzfshark/openzeppelin-contracts/v4.9.3/contracts/utils/Address.sol\":8980:9001  returndata.length > 0 */\n      iszero\n        /* \"https://raw.githubusercontent.com/mzfshark/openzeppelin-contracts/v4.9.3/contracts/utils/Address.sol\":8976:9355  if (returndata.length > 0) {... */\n      tag_262\n      jumpi\n        /* \"https://raw.githubusercontent.com/mzfshark/openzeppelin-contracts/v4.9.3/contracts/utils/Address.sol\":9208:9218  returndata */\n      dup2\n        /* \"https://raw.githubusercontent.com/mzfshark/openzeppelin-contracts/v4.9.3/contracts/utils/Address.sol\":9202:9219  mload(returndata) */\n      mload\n        /* \"https://raw.githubusercontent.com/mzfshark/openzeppelin-contracts/v4.9.3/contracts/utils/Address.sol\":9264:9279  returndata_size */\n      dup1\n        /* \"https://raw.githubusercontent.com/mzfshark/openzeppelin-contracts/v4.9.3/contracts/utils/Address.sol\":9251:9261  returndata */\n      dup4\n        /* \"https://raw.githubusercontent.com/mzfshark/openzeppelin-contracts/v4.9.3/contracts/utils/Address.sol\":9247:9249  32 */\n      0x20\n        /* \"https://raw.githubusercontent.com/mzfshark/openzeppelin-contracts/v4.9.3/contracts/utils/Address.sol\":9243:9262  add(32, returndata) */\n      add\n        /* \"https://raw.githubusercontent.com/mzfshark/openzeppelin-contracts/v4.9.3/contracts/utils/Address.sol\":9236:9280  revert(add(32, returndata), returndata_size) */\n      revert\n        /* \"https://raw.githubusercontent.com/mzfshark/openzeppelin-contracts/v4.9.3/contracts/utils/Address.sol\":8976:9355  if (returndata.length > 0) {... */\n    tag_262:\n        /* \"https://raw.githubusercontent.com/mzfshark/openzeppelin-contracts/v4.9.3/contracts/utils/Address.sol\":9331:9343  errorMessage */\n      dup1\n        /* \"https://raw.githubusercontent.com/mzfshark/openzeppelin-contracts/v4.9.3/contracts/utils/Address.sol\":9324:9344  revert(errorMessage) */\n      mload(0x40)\n      shl(0xe5, 0x461bcd)\n      dup2\n      mstore\n      0x04\n      add\n      tag_82\n      swap2\n      swap1\n      tag_265\n      jump\t// in\n    tag_78:\n      mload(0x40)\n      dup1\n      0x60\n      add\n      0x40\n      mstore\n      dup1\n      0x03\n      swap1\n      0x20\n      dup3\n      mul\n      dup1\n      calldatasize\n      dup4\n      calldatacopy\n      pop\n      swap2\n      swap3\n      swap2\n      pop\n      pop\n      jump\t// out\n        /* \"#utility.yul\":222:723   */\n    tag_26:\n        /* \"#utility.yul\":398:400   */\n      0x60\n        /* \"#utility.yul\":383:401   */\n      dup2\n      add\n        /* \"#utility.yul\":387:396   */\n      dup2\n        /* \"#utility.yul\":478:484   */\n      dup4\n        /* \"#utility.yul\":356:360   */\n      0x00\n        /* \"#utility.yul\":512:717   */\n    tag_271:\n        /* \"#utility.yul\":526:530   */\n      0x03\n        /* \"#utility.yul\":523:524   */\n      dup2\n        /* \"#utility.yul\":520:531   */\n      lt\n        /* \"#utility.yul\":512:717   */\n      iszero\n      tag_273\n      jumpi\n        /* \"#utility.yul\":589:602   */\n      dup2\n      mload\n        /* \"#utility.yul\":604:608   */\n      0xff\n        /* \"#utility.yul\":585:609   */\n      and\n        /* \"#utility.yul\":573:610   */\n      dup4\n      mstore\n        /* \"#utility.yul\":633:637   */\n      0x20\n        /* \"#utility.yul\":657:669   */\n      swap3\n      dup4\n      add\n      swap3\n        /* \"#utility.yul\":692:707   */\n      swap1\n      swap2\n      add\n      swap1\n        /* \"#utility.yul\":546:547   */\n      0x01\n        /* \"#utility.yul\":539:548   */\n      add\n        /* \"#utility.yul\":512:717   */\n      jump(tag_271)\n    tag_273:\n        /* \"#utility.yul\":516:519   */\n      pop\n      pop\n      pop\n        /* \"#utility.yul\":222:723   */\n      swap3\n      swap2\n      pop\n      pop\n      jump\t// out\n        /* \"#utility.yul\":728:859   */\n    tag_266:\n      sub(shl(0xa0, 0x01), 0x01)\n        /* \"#utility.yul\":803:834   */\n      dup2\n      and\n        /* \"#utility.yul\":793:835   */\n      dup2\n      eq\n        /* \"#utility.yul\":783:853   */\n      tag_92\n      jumpi\n        /* \"#utility.yul\":849:850   */\n      0x00\n        /* \"#utility.yul\":846:847   */\n      dup1\n        /* \"#utility.yul\":839:851   */\n      revert\n        /* \"#utility.yul\":864:1111   */\n    tag_30:\n        /* \"#utility.yul\":923:929   */\n      0x00\n        /* \"#utility.yul\":976:978   */\n      0x20\n        /* \"#utility.yul\":964:973   */\n      dup3\n        /* \"#utility.yul\":955:962   */\n      dup5\n        /* \"#utility.yul\":951:974   */\n      sub\n        /* \"#utility.yul\":947:979   */\n      slt\n        /* \"#utility.yul\":944:996   */\n      iszero\n      tag_277\n      jumpi\n        /* \"#utility.yul\":992:993   */\n      0x00\n        /* \"#utility.yul\":989:990   */\n      dup1\n        /* \"#utility.yul\":982:994   */\n      revert\n        /* \"#utility.yul\":944:996   */\n    tag_277:\n        /* \"#utility.yul\":1031:1040   */\n      dup2\n        /* \"#utility.yul\":1018:1041   */\n      calldataload\n        /* \"#utility.yul\":1050:1081   */\n      tag_241\n        /* \"#utility.yul\":1075:1080   */\n      dup2\n        /* \"#utility.yul\":1050:1081   */\n      tag_266\n      jump\t// in\n        /* \"#utility.yul\":1556:1683   */\n    tag_95:\n        /* \"#utility.yul\":1617:1627   */\n      0x4e487b71\n        /* \"#utility.yul\":1612:1615   */\n      0xe0\n        /* \"#utility.yul\":1608:1628   */\n      shl\n        /* \"#utility.yul\":1605:1606   */\n      0x00\n        /* \"#utility.yul\":1598:1629   */\n      mstore\n        /* \"#utility.yul\":1648:1652   */\n      0x41\n        /* \"#utility.yul\":1645:1646   */\n      0x04\n        /* \"#utility.yul\":1638:1653   */\n      mstore\n        /* \"#utility.yul\":1672:1676   */\n      0x24\n        /* \"#utility.yul\":1669:1670   */\n      0x00\n        /* \"#utility.yul\":1662:1677   */\n      revert\n        /* \"#utility.yul\":1688:2744   */\n    tag_44:\n        /* \"#utility.yul\":1765:1771   */\n      0x00\n        /* \"#utility.yul\":1773:1779   */\n      dup1\n        /* \"#utility.yul\":1826:1828   */\n      0x40\n        /* \"#utility.yul\":1814:1823   */\n      dup4\n        /* \"#utility.yul\":1805:1812   */\n      dup6\n        /* \"#utility.yul\":1801:1824   */\n      sub\n        /* \"#utility.yul\":1797:1829   */\n      slt\n        /* \"#utility.yul\":1794:1846   */\n      iszero\n      tag_283\n      jumpi\n        /* \"#utility.yul\":1842:1843   */\n      0x00\n        /* \"#utility.yul\":1839:1840   */\n      dup1\n        /* \"#utility.yul\":1832:1844   */\n      revert\n        /* \"#utility.yul\":1794:1846   */\n    tag_283:\n        /* \"#utility.yul\":1881:1890   */\n      dup3\n        /* \"#utility.yul\":1868:1891   */\n      calldataload\n        /* \"#utility.yul\":1900:1931   */\n      tag_284\n        /* \"#utility.yul\":1925:1930   */\n      dup2\n        /* \"#utility.yul\":1900:1931   */\n      tag_266\n      jump\t// in\n    tag_284:\n        /* \"#utility.yul\":1950:1955   */\n      swap2\n      pop\n        /* \"#utility.yul\":2006:2008   */\n      0x20\n        /* \"#utility.yul\":1991:2009   */\n      dup4\n      add\n        /* \"#utility.yul\":1978:2010   */\n      calldataload\n        /* \"#utility.yul\":2029:2047   */\n      0xffffffffffffffff\n        /* \"#utility.yul\":2059:2073   */\n      dup1\n      dup3\n      gt\n        /* \"#utility.yul\":2056:2090   */\n      iszero\n      tag_285\n      jumpi\n        /* \"#utility.yul\":2086:2087   */\n      0x00\n        /* \"#utility.yul\":2083:2084   */\n      dup1\n        /* \"#utility.yul\":2076:2088   */\n      revert\n        /* \"#utility.yul\":2056:2090   */\n    tag_285:\n        /* \"#utility.yul\":2124:2130   */\n      dup2\n        /* \"#utility.yul\":2113:2122   */\n      dup6\n        /* \"#utility.yul\":2109:2131   */\n      add\n        /* \"#utility.yul\":2099:2131   */\n      swap2\n      pop\n        /* \"#utility.yul\":2169:2176   */\n      dup6\n        /* \"#utility.yul\":2162:2166   */\n      0x1f\n        /* \"#utility.yul\":2158:2160   */\n      dup4\n        /* \"#utility.yul\":2154:2167   */\n      add\n        /* \"#utility.yul\":2150:2177   */\n      slt\n        /* \"#utility.yul\":2140:2195   */\n      tag_286\n      jumpi\n        /* \"#utility.yul\":2191:2192   */\n      0x00\n        /* \"#utility.yul\":2188:2189   */\n      dup1\n        /* \"#utility.yul\":2181:2193   */\n      revert\n        /* \"#utility.yul\":2140:2195   */\n    tag_286:\n        /* \"#utility.yul\":2227:2229   */\n      dup2\n        /* \"#utility.yul\":2214:2230   */\n      calldataload\n        /* \"#utility.yul\":2249:2251   */\n      dup2\n        /* \"#utility.yul\":2245:2247   */\n      dup2\n        /* \"#utility.yul\":2242:2252   */\n      gt\n        /* \"#utility.yul\":2239:2275   */\n      iszero\n      tag_288\n      jumpi\n        /* \"#utility.yul\":2255:2273   */\n      tag_288\n      tag_95\n      jump\t// in\n    tag_288:\n        /* \"#utility.yul\":2330:2332   */\n      0x40\n        /* \"#utility.yul\":2324:2333   */\n      mload\n        /* \"#utility.yul\":2298:2300   */\n      0x1f\n        /* \"#utility.yul\":2384:2397   */\n      dup3\n      add\n      not(0x1f)\n        /* \"#utility.yul\":2380:2402   */\n      swap1\n      dup2\n      and\n        /* \"#utility.yul\":2404:2406   */\n      0x3f\n        /* \"#utility.yul\":2376:2407   */\n      add\n        /* \"#utility.yul\":2372:2412   */\n      and\n        /* \"#utility.yul\":2360:2413   */\n      dup2\n      add\n      swap1\n        /* \"#utility.yul\":2428:2446   */\n      dup4\n      dup3\n      gt\n        /* \"#utility.yul\":2448:2470   */\n      dup2\n      dup4\n      lt\n        /* \"#utility.yul\":2425:2471   */\n      or\n        /* \"#utility.yul\":2422:2494   */\n      iszero\n      tag_290\n      jumpi\n        /* \"#utility.yul\":2474:2492   */\n      tag_290\n      tag_95\n      jump\t// in\n    tag_290:\n        /* \"#utility.yul\":2514:2524   */\n      dup2\n        /* \"#utility.yul\":2510:2512   */\n      0x40\n        /* \"#utility.yul\":2503:2525   */\n      mstore\n        /* \"#utility.yul\":2549:2551   */\n      dup3\n        /* \"#utility.yul\":2541:2547   */\n      dup2\n        /* \"#utility.yul\":2534:2552   */\n      mstore\n        /* \"#utility.yul\":2589:2596   */\n      dup9\n        /* \"#utility.yul\":2584:2586   */\n      0x20\n        /* \"#utility.yul\":2579:2581   */\n      dup5\n        /* \"#utility.yul\":2575:2577   */\n      dup8\n        /* \"#utility.yul\":2571:2582   */\n      add\n        /* \"#utility.yul\":2567:2587   */\n      add\n        /* \"#utility.yul\":2564:2597   */\n      gt\n        /* \"#utility.yul\":2561:2614   */\n      iszero\n      tag_291\n      jumpi\n        /* \"#utility.yul\":2610:2611   */\n      0x00\n        /* \"#utility.yul\":2607:2608   */\n      dup1\n        /* \"#utility.yul\":2600:2612   */\n      revert\n        /* \"#utility.yul\":2561:2614   */\n    tag_291:\n        /* \"#utility.yul\":2666:2668   */\n      dup3\n        /* \"#utility.yul\":2661:2663   */\n      0x20\n        /* \"#utility.yul\":2657:2659   */\n      dup7\n        /* \"#utility.yul\":2653:2664   */\n      add\n        /* \"#utility.yul\":2648:2650   */\n      0x20\n        /* \"#utility.yul\":2640:2646   */\n      dup4\n        /* \"#utility.yul\":2636:2651   */\n      add\n        /* \"#utility.yul\":2623:2669   */\n      calldatacopy\n        /* \"#utility.yul\":2711:2712   */\n      0x00\n        /* \"#utility.yul\":2706:2708   */\n      0x20\n        /* \"#utility.yul\":2701:2703   */\n      dup5\n        /* \"#utility.yul\":2693:2699   */\n      dup4\n        /* \"#utility.yul\":2689:2704   */\n      add\n        /* \"#utility.yul\":2685:2709   */\n      add\n        /* \"#utility.yul\":2678:2713   */\n      mstore\n        /* \"#utility.yul\":2732:2738   */\n      dup1\n        /* \"#utility.yul\":2722:2738   */\n      swap6\n      pop\n      pop\n      pop\n      pop\n      pop\n      pop\n        /* \"#utility.yul\":1688:2744   */\n      swap3\n      pop\n      swap3\n      swap1\n      pop\n      jump\t// out\n        /* \"#utility.yul\":2931:3411   */\n    tag_54:\n        /* \"#utility.yul\":3032:3038   */\n      0x00\n        /* \"#utility.yul\":3040:3046   */\n      dup1\n        /* \"#utility.yul\":3048:3054   */\n      0x00\n        /* \"#utility.yul\":3101:3103   */\n      0x60\n        /* \"#utility.yul\":3089:3098   */\n      dup5\n        /* \"#utility.yul\":3080:3087   */\n      dup7\n        /* \"#utility.yul\":3076:3099   */\n      sub\n        /* \"#utility.yul\":3072:3104   */\n      slt\n        /* \"#utility.yul\":3069:3121   */\n      iszero\n      tag_294\n      jumpi\n        /* \"#utility.yul\":3117:3118   */\n      0x00\n        /* \"#utility.yul\":3114:3115   */\n      dup1\n        /* \"#utility.yul\":3107:3119   */\n      revert\n        /* \"#utility.yul\":3069:3121   */\n    tag_294:\n        /* \"#utility.yul\":3156:3165   */\n      dup4\n        /* \"#utility.yul\":3143:3166   */\n      calldataload\n        /* \"#utility.yul\":3175:3206   */\n      tag_295\n        /* \"#utility.yul\":3200:3205   */\n      dup2\n        /* \"#utility.yul\":3175:3206   */\n      tag_266\n      jump\t// in\n    tag_295:\n        /* \"#utility.yul\":3225:3230   */\n      swap3\n      pop\n        /* \"#utility.yul\":3282:3284   */\n      0x20\n        /* \"#utility.yul\":3267:3285   */\n      dup5\n      add\n        /* \"#utility.yul\":3254:3286   */\n      calldataload\n        /* \"#utility.yul\":3295:3328   */\n      tag_296\n        /* \"#utility.yul\":3254:3286   */\n      dup2\n        /* \"#utility.yul\":3295:3328   */\n      tag_266\n      jump\t// in\n    tag_296:\n        /* \"#utility.yul\":2931:3411   */\n      swap3\n      swap6\n        /* \"#utility.yul\":3347:3354   */\n      swap3\n      swap5\n      pop\n      pop\n      pop\n        /* \"#utility.yul\":3401:3403   */\n      0x40\n        /* \"#utility.yul\":3386:3404   */\n      swap2\n      swap1\n      swap2\n      add\n        /* \"#utility.yul\":3373:3405   */\n      calldataload\n      swap1\n        /* \"#utility.yul\":2931:3411   */\n      jump\t// out\n        /* \"#utility.yul\":3416:3731   */\n    tag_59:\n        /* \"#utility.yul\":3484:3490   */\n      0x00\n        /* \"#utility.yul\":3492:3498   */\n      dup1\n        /* \"#utility.yul\":3545:3547   */\n      0x40\n        /* \"#utility.yul\":3533:3542   */\n      dup4\n        /* \"#utility.yul\":3524:3531   */\n      dup6\n        /* \"#utility.yul\":3520:3543   */\n      sub\n        /* \"#utility.yul\":3516:3548   */\n      slt\n        /* \"#utility.yul\":3513:3565   */\n      iszero\n      tag_298\n      jumpi\n        /* \"#utility.yul\":3561:3562   */\n      0x00\n        /* \"#utility.yul\":3558:3559   */\n      dup1\n        /* \"#utility.yul\":3551:3563   */\n      revert\n        /* \"#utility.yul\":3513:3565   */\n    tag_298:\n        /* \"#utility.yul\":3597:3606   */\n      dup3\n        /* \"#utility.yul\":3584:3607   */\n      calldataload\n        /* \"#utility.yul\":3574:3607   */\n      swap2\n      pop\n        /* \"#utility.yul\":3657:3659   */\n      0x20\n        /* \"#utility.yul\":3646:3655   */\n      dup4\n        /* \"#utility.yul\":3642:3660   */\n      add\n        /* \"#utility.yul\":3629:3661   */\n      calldataload\n        /* \"#utility.yul\":3670:3701   */\n      tag_299\n        /* \"#utility.yul\":3695:3700   */\n      dup2\n        /* \"#utility.yul\":3670:3701   */\n      tag_266\n      jump\t// in\n    tag_299:\n        /* \"#utility.yul\":3720:3725   */\n      dup1\n        /* \"#utility.yul\":3710:3725   */\n      swap2\n      pop\n      pop\n        /* \"#utility.yul\":3416:3731   */\n      swap3\n      pop\n      swap3\n      swap1\n      pop\n      jump\t// out\n        /* \"#utility.yul\":3736:4144   */\n    tag_83:\n        /* \"#utility.yul\":3938:3940   */\n      0x20\n        /* \"#utility.yul\":3920:3941   */\n      dup1\n      dup3\n      mstore\n        /* \"#utility.yul\":3977:3979   */\n      0x2c\n        /* \"#utility.yul\":3957:3975   */\n      swap1\n      dup3\n      add\n        /* \"#utility.yul\":3950:3980   */\n      mstore\n        /* \"#utility.yul\":4016:4050   */\n      0x46756e6374696f6e206d7573742062652063616c6c6564207468726f75676820\n        /* \"#utility.yul\":4011:4013   */\n      0x40\n        /* \"#utility.yul\":3996:4014   */\n      dup3\n      add\n        /* \"#utility.yul\":3989:4051   */\n      mstore\n      shl(0xa2, 0x19195b1959d85d1958d85b1b)\n        /* \"#utility.yul\":4082:4084   */\n      0x60\n        /* \"#utility.yul\":4067:4085   */\n      dup3\n      add\n        /* \"#utility.yul\":4060:4102   */\n      mstore\n        /* \"#utility.yul\":4134:4137   */\n      0x80\n        /* \"#utility.yul\":4119:4138   */\n      add\n      swap1\n        /* \"#utility.yul\":3736:4144   */\n      jump\t// out\n        /* \"#utility.yul\":4149:4557   */\n    tag_88:\n        /* \"#utility.yul\":4351:4353   */\n      0x20\n        /* \"#utility.yul\":4333:4354   */\n      dup1\n      dup3\n      mstore\n        /* \"#utility.yul\":4390:4392   */\n      0x2c\n        /* \"#utility.yul\":4370:4388   */\n      swap1\n      dup3\n      add\n        /* \"#utility.yul\":4363:4393   */\n      mstore\n        /* \"#utility.yul\":4429:4463   */\n      0x46756e6374696f6e206d7573742062652063616c6c6564207468726f75676820\n        /* \"#utility.yul\":4424:4426   */\n      0x40\n        /* \"#utility.yul\":4409:4427   */\n      dup3\n      add\n        /* \"#utility.yul\":4402:4464   */\n      mstore\n      shl(0xa0, 0x6163746976652070726f7879)\n        /* \"#utility.yul\":4495:4497   */\n      0x60\n        /* \"#utility.yul\":4480:4498   */\n      dup3\n      add\n        /* \"#utility.yul\":4473:4515   */\n      mstore\n        /* \"#utility.yul\":4547:4550   */\n      0x80\n        /* \"#utility.yul\":4532:4551   */\n      add\n      swap1\n        /* \"#utility.yul\":4149:4557   */\n      jump\t// out\n        /* \"#utility.yul\":5402:5653   */\n    tag_130:\n        /* \"#utility.yul\":5472:5478   */\n      0x00\n        /* \"#utility.yul\":5525:5527   */\n      0x20\n        /* \"#utility.yul\":5513:5522   */\n      dup3\n        /* \"#utility.yul\":5504:5511   */\n      dup5\n        /* \"#utility.yul\":5500:5523   */\n      sub\n        /* \"#utility.yul\":5496:5528   */\n      slt\n        /* \"#utility.yul\":5493:5545   */\n      iszero\n      tag_305\n      jumpi\n        /* \"#utility.yul\":5541:5542   */\n      0x00\n        /* \"#utility.yul\":5538:5539   */\n      dup1\n        /* \"#utility.yul\":5531:5543   */\n      revert\n        /* \"#utility.yul\":5493:5545   */\n    tag_305:\n        /* \"#utility.yul\":5573:5582   */\n      dup2\n        /* \"#utility.yul\":5567:5583   */\n      mload\n        /* \"#utility.yul\":5592:5623   */\n      tag_241\n        /* \"#utility.yul\":5617:5622   */\n      dup2\n        /* \"#utility.yul\":5592:5623   */\n      tag_266\n      jump\t// in\n        /* \"#utility.yul\":6738:6922   */\n    tag_158:\n        /* \"#utility.yul\":6808:6814   */\n      0x00\n        /* \"#utility.yul\":6861:6863   */\n      0x20\n        /* \"#utility.yul\":6849:6858   */\n      dup3\n        /* \"#utility.yul\":6840:6847   */\n      dup5\n        /* \"#utility.yul\":6836:6859   */\n      sub\n        /* \"#utility.yul\":6832:6864   */\n      slt\n        /* \"#utility.yul\":6829:6881   */\n      iszero\n      tag_312\n      jumpi\n        /* \"#utility.yul\":6877:6878   */\n      0x00\n        /* \"#utility.yul\":6874:6875   */\n      dup1\n        /* \"#utility.yul\":6867:6879   */\n      revert\n        /* \"#utility.yul\":6829:6881   */\n    tag_312:\n      pop\n        /* \"#utility.yul\":6900:6916   */\n      mload\n      swap2\n        /* \"#utility.yul\":6738:6922   */\n      swap1\n      pop\n      jump\t// out\n        /* \"#utility.yul\":8164:8826   */\n    tag_213:\n      sub(shl(0xa0, 0x01), 0x01)\n        /* \"#utility.yul\":8443:8458   */\n      dup7\n      dup2\n      and\n        /* \"#utility.yul\":8425:8459   */\n      dup3\n      mstore\n        /* \"#utility.yul\":8495:8510   */\n      dup6\n      and\n        /* \"#utility.yul\":8490:8492   */\n      0x20\n        /* \"#utility.yul\":8475:8493   */\n      dup3\n      add\n        /* \"#utility.yul\":8468:8511   */\n      mstore\n        /* \"#utility.yul\":8542:8544   */\n      0x40\n        /* \"#utility.yul\":8527:8545   */\n      dup2\n      add\n        /* \"#utility.yul\":8520:8554   */\n      dup5\n      swap1\n      mstore\n        /* \"#utility.yul\":8590:8593   */\n      0x80\n        /* \"#utility.yul\":8585:8587   */\n      0x60\n        /* \"#utility.yul\":8570:8588   */\n      dup3\n      add\n        /* \"#utility.yul\":8563:8594   */\n      dup2\n      swap1\n      mstore\n        /* \"#utility.yul\":8610:8629   */\n      dup2\n      add\n        /* \"#utility.yul\":8603:8638   */\n      dup3\n      swap1\n      mstore\n        /* \"#utility.yul\":8368:8372   */\n      0x00\n        /* \"#utility.yul\":8631:8637   */\n      dup3\n        /* \"#utility.yul\":8681:8687   */\n      dup5\n        /* \"#utility.yul\":8405:8408   */\n      0xa0\n        /* \"#utility.yul\":8660:8679   */\n      dup5\n      add\n        /* \"#utility.yul\":8647:8696   */\n      calldatacopy\n        /* \"#utility.yul\":8746:8747   */\n      0x00\n        /* \"#utility.yul\":8740:8743   */\n      0xa0\n        /* \"#utility.yul\":8731:8737   */\n      dup5\n        /* \"#utility.yul\":8720:8729   */\n      dup5\n        /* \"#utility.yul\":8716:8738   */\n      add\n        /* \"#utility.yul\":8712:8744   */\n      add\n        /* \"#utility.yul\":8705:8748   */\n      mstore\n        /* \"#utility.yul\":8816:8819   */\n      0xa0\n        /* \"#utility.yul\":8809:8811   */\n      0x1f\n        /* \"#utility.yul\":8805:8812   */\n      not\n        /* \"#utility.yul\":8800:8802   */\n      0x1f\n        /* \"#utility.yul\":8792:8798   */\n      dup6\n        /* \"#utility.yul\":8788:8803   */\n      add\n        /* \"#utility.yul\":8784:8813   */\n      and\n        /* \"#utility.yul\":8773:8782   */\n      dup4\n        /* \"#utility.yul\":8769:8814   */\n      add\n        /* \"#utility.yul\":8765:8820   */\n      add\n        /* \"#utility.yul\":8757:8820   */\n      swap1\n      pop\n        /* \"#utility.yul\":8164:8826   */\n      swap7\n      swap6\n      pop\n      pop\n      pop\n      pop\n      pop\n      pop\n      jump\t// out\n        /* \"#utility.yul\":8831:9108   */\n    tag_217:\n        /* \"#utility.yul\":8898:8904   */\n      0x00\n        /* \"#utility.yul\":8951:8953   */\n      0x20\n        /* \"#utility.yul\":8939:8948   */\n      dup3\n        /* \"#utility.yul\":8930:8937   */\n      dup5\n        /* \"#utility.yul\":8926:8949   */\n      sub\n        /* \"#utility.yul\":8922:8954   */\n      slt\n        /* \"#utility.yul\":8919:8971   */\n      iszero\n      tag_318\n      jumpi\n        /* \"#utility.yul\":8967:8968   */\n      0x00\n        /* \"#utility.yul\":8964:8965   */\n      dup1\n        /* \"#utility.yul\":8957:8969   */\n      revert\n        /* \"#utility.yul\":8919:8971   */\n    tag_318:\n        /* \"#utility.yul\":8999:9008   */\n      dup2\n        /* \"#utility.yul\":8993:9009   */\n      mload\n        /* \"#utility.yul\":9052:9057   */\n      dup1\n        /* \"#utility.yul\":9045:9058   */\n      iszero\n        /* \"#utility.yul\":9038:9059   */\n      iszero\n        /* \"#utility.yul\":9031:9036   */\n      dup2\n        /* \"#utility.yul\":9028:9060   */\n      eq\n        /* \"#utility.yul\":9018:9078   */\n      tag_241\n      jumpi\n        /* \"#utility.yul\":9074:9075   */\n      0x00\n        /* \"#utility.yul\":9071:9072   */\n      dup1\n        /* \"#utility.yul\":9064:9076   */\n      revert\n        /* \"#utility.yul\":9988:10238   */\n    tag_267:\n        /* \"#utility.yul\":10073:10074   */\n      0x00\n        /* \"#utility.yul\":10083:10196   */\n    tag_323:\n        /* \"#utility.yul\":10097:10103   */\n      dup4\n        /* \"#utility.yul\":10094:10095   */\n      dup2\n        /* \"#utility.yul\":10091:10104   */\n      lt\n        /* \"#utility.yul\":10083:10196   */\n      iszero\n      tag_325\n      jumpi\n        /* \"#utility.yul\":10173:10184   */\n      dup2\n      dup2\n      add\n        /* \"#utility.yul\":10167:10185   */\n      mload\n        /* \"#utility.yul\":10154:10165   */\n      dup4\n      dup3\n      add\n        /* \"#utility.yul\":10147:10186   */\n      mstore\n        /* \"#utility.yul\":10119:10121   */\n      0x20\n        /* \"#utility.yul\":10112:10122   */\n      add\n        /* \"#utility.yul\":10083:10196   */\n      jump(tag_323)\n    tag_325:\n      pop\n      pop\n        /* \"#utility.yul\":10230:10231   */\n      0x00\n        /* \"#utility.yul\":10212:10228   */\n      swap2\n      add\n        /* \"#utility.yul\":10205:10232   */\n      mstore\n        /* \"#utility.yul\":9988:10238   */\n      jump\t// out\n        /* \"#utility.yul\":10243:10530   */\n    tag_245:\n        /* \"#utility.yul\":10372:10375   */\n      0x00\n        /* \"#utility.yul\":10410:10416   */\n      dup3\n        /* \"#utility.yul\":10404:10417   */\n      mload\n        /* \"#utility.yul\":10426:10492   */\n      tag_327\n        /* \"#utility.yul\":10485:10491   */\n      dup2\n        /* \"#utility.yul\":10480:10483   */\n      dup5\n        /* \"#utility.yul\":10473:10477   */\n      0x20\n        /* \"#utility.yul\":10465:10471   */\n      dup8\n        /* \"#utility.yul\":10461:10478   */\n      add\n        /* \"#utility.yul\":10426:10492   */\n      tag_267\n      jump\t// in\n    tag_327:\n        /* \"#utility.yul\":10508:10524   */\n      swap2\n      swap1\n      swap2\n      add\n      swap3\n        /* \"#utility.yul\":10243:10530   */\n      swap2\n      pop\n      pop\n      jump\t// out\n        /* \"#utility.yul\":10893:11289   */\n    tag_265:\n        /* \"#utility.yul\":11042:11044   */\n      0x20\n        /* \"#utility.yul\":11031:11040   */\n      dup2\n        /* \"#utility.yul\":11024:11045   */\n      mstore\n        /* \"#utility.yul\":11005:11009   */\n      0x00\n        /* \"#utility.yul\":11074:11080   */\n      dup3\n        /* \"#utility.yul\":11068:11081   */\n      mload\n        /* \"#utility.yul\":11117:11123   */\n      dup1\n        /* \"#utility.yul\":11112:11114   */\n      0x20\n        /* \"#utility.yul\":11101:11110   */\n      dup5\n        /* \"#utility.yul\":11097:11115   */\n      add\n        /* \"#utility.yul\":11090:11124   */\n      mstore\n        /* \"#utility.yul\":11133:11212   */\n      tag_330\n        /* \"#utility.yul\":11205:11211   */\n      dup2\n        /* \"#utility.yul\":11200:11202   */\n      0x40\n        /* \"#utility.yul\":11189:11198   */\n      dup6\n        /* \"#utility.yul\":11185:11203   */\n      add\n        /* \"#utility.yul\":11180:11182   */\n      0x20\n        /* \"#utility.yul\":11172:11178   */\n      dup8\n        /* \"#utility.yul\":11168:11183   */\n      add\n        /* \"#utility.yul\":11133:11212   */\n      tag_267\n      jump\t// in\n    tag_330:\n        /* \"#utility.yul\":11273:11275   */\n      0x1f\n        /* \"#utility.yul\":11252:11267   */\n      add\n      not(0x1f)\n        /* \"#utility.yul\":11248:11277   */\n      and\n        /* \"#utility.yul\":11233:11278   */\n      swap2\n      swap1\n      swap2\n      add\n        /* \"#utility.yul\":11280:11282   */\n      0x40\n        /* \"#utility.yul\":11229:11283   */\n      add\n      swap3\n        /* \"#utility.yul\":10893:11289   */\n      swap2\n      pop\n      pop\n      jump\t// out\n    stop\n    data_75b20eef8615de99c108b05f0dbda081c91897128caa336d75dffb97c4132b4d 360894a13ba1a3210667c828492db98dca3e2076cc3735a920a3ca505d382bbc\n    data_9fdcd12e4b726339b32a442b0a448365d5d85c96b2d2cff917b4f66c63110398 416464726573733a206c6f772d6c6576656c2064656c65676174652063616c6c206661696c6564\n\n    auxdata: 0xa264697066735822122020cfd720c4bde774e8f09bf9367e906cb1b55d660ae8952018d7ffe52c36f9dc64736f6c63430008110033\n}\n",
				"bytecode": {
					"linkReferences": {},
					"object": "60a06040523060805234801561001457600080fd5b5061001d610022565b6100e1565b600054610100900460ff161561008e5760405162461bcd60e51b815260206004820152602760248201527f496e697469616c697a61626c653a20636f6e747261637420697320696e697469604482015266616c697a696e6760c81b606482015260840160405180910390fd5b60005460ff908116146100df576000805460ff191660ff9081179091556040519081527f7f26b83ff96e1f2b6a682f133852f6798a09c465da95921460cefb38474024989060200160405180910390a15b565b608051611379610118600039600081816102ce01528181610317015281816103b6015281816103f6015261048901526113796000f3fe6080604052600436106100c25760003560e01c806352d1902d1161007f5780639848ba51116100595780639848ba51146101fc578063af7b2fed14610230578063c66485b214610264578063d70754ec1461028457600080fd5b806352d1902d146101995780636133f985146101bc57806389bb4145146101dc57600080fd5b806304f3bcec146100c75780632ae9c600146101045780633659cfe6146101265780633f15457f146101485780634162169f146101685780634f1ef28614610186575b600080fd5b3480156100d357600080fd5b506067546100e7906001600160a01b031681565b6040516001600160a01b0390911681526020015b60405180910390f35b34801561011057600080fd5b5061011961029a565b6040516100fb9190610f94565b34801561013257600080fd5b50610146610141366004610fdd565b6102c4565b005b34801561015457600080fd5b506065546100e7906001600160a01b031681565b34801561017457600080fd5b506033546001600160a01b03166100e7565b610146610194366004611010565b6103ac565b3480156101a557600080fd5b506101ae61047c565b6040519081526020016100fb565b3480156101c857600080fd5b506101466101d73660046110d4565b61052f565b3480156101e857600080fd5b506101466101f7366004611115565b610724565b34801561020857600080fd5b506101ae7fbbdfd23f099d7ed9f535e0f97d2123efb1332b16e023b8359b3b879eaecd3c1481565b34801561023c57600080fd5b506101ae7fa1fcba4efb1e94b7648f5e0504bfd39734aead5f17965d12705915d771c859ff81565b34801561027057600080fd5b5061014661027f366004610fdd565b61099b565b34801561029057600080fd5b506101ae60665481565b6102a2610f76565b5060408051606081018252600181526004602082015260009181019190915290565b6001600160a01b037f00000000000000000000000000000000000000000000000000000000000000001630036103155760405162461bcd60e51b815260040161030c90611145565b60405180910390fd5b7f00000000000000000000000000000000000000000000000000000000000000006001600160a01b031661035e6000805160206112fd833981519152546001600160a01b031690565b6001600160a01b0316146103845760405162461bcd60e51b815260040161030c90611191565b61038d81610a34565b604080516000808252602082019092526103a991839190610a6d565b50565b6001600160a01b037f00000000000000000000000000000000000000000000000000000000000000001630036103f45760405162461bcd60e51b815260040161030c90611145565b7f00000000000000000000000000000000000000000000000000000000000000006001600160a01b031661043d6000805160206112fd833981519152546001600160a01b031690565b6001600160a01b0316146104635760405162461bcd60e51b815260040161030c90611191565b61046c82610a34565b61047882826001610a6d565b5050565b6000306001600160a01b037f0000000000000000000000000000000000000000000000000000000000000000161461051c5760405162461bcd60e51b815260206004820152603860248201527f555550535570677261646561626c653a206d757374206e6f742062652063616c60448201527f6c6564207468726f7567682064656c656761746563616c6c0000000000000000606482015260840161030c565b506000805160206112fd83398151915290565b600054610100900460ff161580801561054f5750600054600160ff909116105b806105695750303b158015610569575060005460ff166001145b6105cc5760405162461bcd60e51b815260206004820152602e60248201527f496e697469616c697a61626c653a20636f6e747261637420697320616c72656160448201526d191e481a5b9a5d1a585b1a5e995960921b606482015260840161030c565b6000805460ff1916600117905580156105ef576000805461ff0019166101001790555b6105f884610bdd565b606580546001600160a01b0319166001600160a01b0385169081179091556066839055604051630178b8bf60e01b81526004810184905260009190630178b8bf90602401602060405180830381865afa158015610659573d6000803e3d6000fd5b505050506040513d601f19601f8201168201806040525081019061067d91906111dd565b90506001600160a01b0381166106b857604051630d7097c560e11b8152600481018490526001600160a01b038216602482015260440161030c565b606780546001600160a01b0319166001600160a01b0392909216919091179055801561071e576000805461ff0019169055604051600181527f7f26b83ff96e1f2b6a682f133852f6798a09c465da95921460cefb38474024989060200160405180910390a15b50505050565b6033547fbbdfd23f099d7ed9f535e0f97d2123efb1332b16e023b8359b3b879eaecd3c1490610762906001600160a01b031630335b84600036610c6a565b600060665484604051602001610782929190918252602082015260400190565b60408051808303601f190181529082905280516020909101206065546302571be360e01b8352600483018290529092506000916001600160a01b03909116906302571be390602401602060405180830381865afa1580156107e7573d6000803e3d6000fd5b505050506040513d601f19601f8201168201806040525081019061080b91906111dd565b90506001600160a01b038116156108465760405162fcad5d60e11b8152600481018390526001600160a01b038216602482015260440161030c565b6065546066546040516306ab592360e01b81526004810191909152602481018790523060448201526001600160a01b03909116906306ab5923906064016020604051808303816000875af11580156108a2573d6000803e3d6000fd5b505050506040513d601f19601f820116820180604052508101906108c691906111fa565b50606554606754604051630c4b7b8560e11b8152600481018590526001600160a01b039182166024820152911690631896f70a90604401600060405180830381600087803b15801561091757600080fd5b505af115801561092b573d6000803e3d6000fd5b505060675460405162d5fa2b60e81b8152600481018690526001600160a01b038881166024830152909116925063d5fa2b009150604401600060405180830381600087803b15801561097c57600080fd5b505af1158015610990573d6000803e3d6000fd5b505050505050505050565b6033547fbbdfd23f099d7ed9f535e0f97d2123efb1332b16e023b8359b3b879eaecd3c14906109d4906001600160a01b03163033610759565b6001600160a01b038216610a1157606654604051630d7097c560e11b815260048101919091526001600160a01b038316602482015260440161030c565b50606780546001600160a01b0319166001600160a01b0392909216919091179055565b6033547fa1fcba4efb1e94b7648f5e0504bfd39734aead5f17965d12705915d771c859ff90610478906001600160a01b03163033610759565b7f4910fdfa16fed3260ed0e7147f7cc6da11a60208b5b9406d12a635614ffd91435460ff1615610aa557610aa083610d26565b505050565b826001600160a01b03166352d1902d6040518163ffffffff1660e01b8152600401602060405180830381865afa925050508015610aff575060408051601f3d908101601f19168201909252610afc918101906111fa565b60015b610b625760405162461bcd60e51b815260206004820152602e60248201527f45524331393637557067726164653a206e657720696d706c656d656e7461746960448201526d6f6e206973206e6f74205555505360901b606482015260840161030c565b6000805160206112fd8339815191528114610bd15760405162461bcd60e51b815260206004820152602960248201527f45524331393637557067726164653a20756e737570706f727465642070726f786044820152681a58589b195555525160ba1b606482015260840161030c565b50610aa0838383610dc2565b600054610100900460ff16610c485760405162461bcd60e51b815260206004820152602b60248201527f496e697469616c697a61626c653a20636f6e7472616374206973206e6f74206960448201526a6e697469616c697a696e6760a81b606482015260840161030c565b603380546001600160a01b0319166001600160a01b0392909216919091179055565b604051637ef7c88360e11b81526001600160a01b0387169063fdef910690610c9e9088908890889088908890600401611213565b602060405180830381865afa158015610cbb573d6000803e3d6000fd5b505050506040513d601f19601f82011682018060405250810190610cdf9190611267565b610d1e57604051630cb6f8ed60e21b81526001600160a01b0380881660048301528087166024830152851660448201526064810184905260840161030c565b505050505050565b6001600160a01b0381163b610d935760405162461bcd60e51b815260206004820152602d60248201527f455243313936373a206e657720696d706c656d656e746174696f6e206973206e60448201526c1bdd08184818dbdb9d1c9858dd609a1b606482015260840161030c565b6000805160206112fd83398151915280546001600160a01b0319166001600160a01b0392909216919091179055565b610dcb83610de7565b600082511180610dd85750805b15610aa05761071e8383610e27565b610df081610d26565b6040516001600160a01b038216907fbc7cd75a20ee27fd9adebab32041f755214dbc6bffa90cc0225b39da2e5c2d3b90600090a250565b6060610e4c838360405180606001604052806027815260200161131d60279139610e53565b9392505050565b6060600080856001600160a01b031685604051610e7091906112ad565b600060405180830381855af49150503d8060008114610eab576040519150601f19603f3d011682016040523d82523d6000602084013e610eb0565b606091505b5091509150610ec186838387610ecb565b9695505050505050565b60608315610f3a578251600003610f33576001600160a01b0385163b610f335760405162461bcd60e51b815260206004820152601d60248201527f416464726573733a2063616c6c20746f206e6f6e2d636f6e7472616374000000604482015260640161030c565b5081610f44565b610f448383610f4c565b949350505050565b815115610f5c5781518083602001fd5b8060405162461bcd60e51b815260040161030c91906112c9565b60405180606001604052806003906020820280368337509192915050565b60608101818360005b6003811015610fbf57815160ff16835260209283019290910190600101610f9d565b50505092915050565b6001600160a01b03811681146103a957600080fd5b600060208284031215610fef57600080fd5b8135610e4c81610fc8565b634e487b7160e01b600052604160045260246000fd5b6000806040838503121561102357600080fd5b823561102e81610fc8565b9150602083013567ffffffffffffffff8082111561104b57600080fd5b818501915085601f83011261105f57600080fd5b81358181111561107157611071610ffa565b604051601f8201601f19908116603f0116810190838211818310171561109957611099610ffa565b816040528281528860208487010111156110b257600080fd5b8260208601602083013760006020848301015280955050505050509250929050565b6000806000606084860312156110e957600080fd5b83356110f481610fc8565b9250602084013561110481610fc8565b929592945050506040919091013590565b6000806040838503121561112857600080fd5b82359150602083013561113a81610fc8565b809150509250929050565b6020808252602c908201527f46756e6374696f6e206d7573742062652063616c6c6564207468726f7567682060408201526b19195b1959d85d1958d85b1b60a21b606082015260800190565b6020808252602c908201527f46756e6374696f6e206d7573742062652063616c6c6564207468726f7567682060408201526b6163746976652070726f787960a01b606082015260800190565b6000602082840312156111ef57600080fd5b8151610e4c81610fc8565b60006020828403121561120c57600080fd5b5051919050565b6001600160a01b038681168252851660208201526040810184905260806060820181905281018290526000828460a0840137600060a0848401015260a0601f19601f85011683010190509695505050505050565b60006020828403121561127957600080fd5b81518015158114610e4c57600080fd5b60005b838110156112a457818101518382015260200161128c565b50506000910152565b600082516112bf818460208701611289565b9190910192915050565b60208152600082518060208401526112e8816040850160208701611289565b601f01601f1916919091016040019291505056fe360894a13ba1a3210667c828492db98dca3e2076cc3735a920a3ca505d382bbc416464726573733a206c6f772d6c6576656c2064656c65676174652063616c6c206661696c6564a264697066735822122020cfd720c4bde774e8f09bf9367e906cb1b55d660ae8952018d7ffe52c36f9dc64736f6c63430008110033",
					"opcodes": "PUSH1 0xA0 PUSH1 0x40 MSTORE ADDRESS PUSH1 0x80 MSTORE CALLVALUE DUP1 ISZERO PUSH2 0x14 JUMPI PUSH1 0x0 DUP1 REVERT JUMPDEST POP PUSH2 0x1D PUSH2 0x22 JUMP JUMPDEST PUSH2 0xE1 JUMP JUMPDEST PUSH1 0x0 SLOAD PUSH2 0x100 SWAP1 DIV PUSH1 0xFF AND ISZERO PUSH2 0x8E JUMPI PUSH1 0x40 MLOAD PUSH3 0x461BCD PUSH1 0xE5 SHL DUP2 MSTORE PUSH1 0x20 PUSH1 0x4 DUP3 ADD MSTORE PUSH1 0x27 PUSH1 0x24 DUP3 ADD MSTORE PUSH32 0x496E697469616C697A61626C653A20636F6E747261637420697320696E697469 PUSH1 0x44 DUP3 ADD MSTORE PUSH7 0x616C697A696E67 PUSH1 0xC8 SHL PUSH1 0x64 DUP3 ADD MSTORE PUSH1 0x84 ADD PUSH1 0x40 MLOAD DUP1 SWAP2 SUB SWAP1 REVERT JUMPDEST PUSH1 0x0 SLOAD PUSH1 0xFF SWAP1 DUP2 AND EQ PUSH2 0xDF JUMPI PUSH1 0x0 DUP1 SLOAD PUSH1 0xFF NOT AND PUSH1 0xFF SWAP1 DUP2 OR SWAP1 SWAP2 SSTORE PUSH1 0x40 MLOAD SWAP1 DUP2 MSTORE PUSH32 0x7F26B83FF96E1F2B6A682F133852F6798A09C465DA95921460CEFB3847402498 SWAP1 PUSH1 0x20 ADD PUSH1 0x40 MLOAD DUP1 SWAP2 SUB SWAP1 LOG1 JUMPDEST JUMP JUMPDEST PUSH1 0x80 MLOAD PUSH2 0x1379 PUSH2 0x118 PUSH1 0x0 CODECOPY PUSH1 0x0 DUP2 DUP2 PUSH2 0x2CE ADD MSTORE DUP2 DUP2 PUSH2 0x317 ADD MSTORE DUP2 DUP2 PUSH2 0x3B6 ADD MSTORE DUP2 DUP2 PUSH2 0x3F6 ADD MSTORE PUSH2 0x489 ADD MSTORE PUSH2 0x1379 PUSH1 0x0 RETURN INVALID PUSH1 0x80 PUSH1 0x40 MSTORE PUSH1 0x4 CALLDATASIZE LT PUSH2 0xC2 JUMPI PUSH1 0x0 CALLDATALOAD PUSH1 0xE0 SHR DUP1 PUSH4 0x52D1902D GT PUSH2 0x7F JUMPI DUP1 PUSH4 0x9848BA51 GT PUSH2 0x59 JUMPI DUP1 PUSH4 0x9848BA51 EQ PUSH2 0x1FC JUMPI DUP1 PUSH4 0xAF7B2FED EQ PUSH2 0x230 JUMPI DUP1 PUSH4 0xC66485B2 EQ PUSH2 0x264 JUMPI DUP1 PUSH4 0xD70754EC EQ PUSH2 0x284 JUMPI PUSH1 0x0 DUP1 REVERT JUMPDEST DUP1 PUSH4 0x52D1902D EQ PUSH2 0x199 JUMPI DUP1 PUSH4 0x6133F985 EQ PUSH2 0x1BC JUMPI DUP1 PUSH4 0x89BB4145 EQ PUSH2 0x1DC JUMPI PUSH1 0x0 DUP1 REVERT JUMPDEST DUP1 PUSH4 0x4F3BCEC EQ PUSH2 0xC7 JUMPI DUP1 PUSH4 0x2AE9C600 EQ PUSH2 0x104 JUMPI DUP1 PUSH4 0x3659CFE6 EQ PUSH2 0x126 JUMPI DUP1 PUSH4 0x3F15457F EQ PUSH2 0x148 JUMPI DUP1 PUSH4 0x4162169F EQ PUSH2 0x168 JUMPI DUP1 PUSH4 0x4F1EF286 EQ PUSH2 0x186 JUMPI JUMPDEST PUSH1 0x0 DUP1 REVERT JUMPDEST CALLVALUE DUP1 ISZERO PUSH2 0xD3 JUMPI PUSH1 0x0 DUP1 REVERT JUMPDEST POP PUSH1 0x67 SLOAD PUSH2 0xE7 SWAP1 PUSH1 0x1 PUSH1 0x1 PUSH1 0xA0 SHL SUB AND DUP2 JUMP JUMPDEST PUSH1 0x40 MLOAD PUSH1 0x1 PUSH1 0x1 PUSH1 0xA0 SHL SUB SWAP1 SWAP2 AND DUP2 MSTORE PUSH1 0x20 ADD JUMPDEST PUSH1 0x40 MLOAD DUP1 SWAP2 SUB SWAP1 RETURN JUMPDEST CALLVALUE DUP1 ISZERO PUSH2 0x110 JUMPI PUSH1 0x0 DUP1 REVERT JUMPDEST POP PUSH2 0x119 PUSH2 0x29A JUMP JUMPDEST PUSH1 0x40 MLOAD PUSH2 0xFB SWAP2 SWAP1 PUSH2 0xF94 JUMP JUMPDEST CALLVALUE DUP1 ISZERO PUSH2 0x132 JUMPI PUSH1 0x0 DUP1 REVERT JUMPDEST POP PUSH2 0x146 PUSH2 0x141 CALLDATASIZE PUSH1 0x4 PUSH2 0xFDD JUMP JUMPDEST PUSH2 0x2C4 JUMP JUMPDEST STOP JUMPDEST CALLVALUE DUP1 ISZERO PUSH2 0x154 JUMPI PUSH1 0x0 DUP1 REVERT JUMPDEST POP PUSH1 0x65 SLOAD PUSH2 0xE7 SWAP1 PUSH1 0x1 PUSH1 0x1 PUSH1 0xA0 SHL SUB AND DUP2 JUMP JUMPDEST CALLVALUE DUP1 ISZERO PUSH2 0x174 JUMPI PUSH1 0x0 DUP1 REVERT JUMPDEST POP PUSH1 0x33 SLOAD PUSH1 0x1 PUSH1 0x1 PUSH1 0xA0 SHL SUB AND PUSH2 0xE7 JUMP JUMPDEST PUSH2 0x146 PUSH2 0x194 CALLDATASIZE PUSH1 0x4 PUSH2 0x1010 JUMP JUMPDEST PUSH2 0x3AC JUMP JUMPDEST CALLVALUE DUP1 ISZERO PUSH2 0x1A5 JUMPI PUSH1 0x0 DUP1 REVERT JUMPDEST POP PUSH2 0x1AE PUSH2 0x47C JUMP JUMPDEST PUSH1 0x40 MLOAD SWAP1 DUP2 MSTORE PUSH1 0x20 ADD PUSH2 0xFB JUMP JUMPDEST CALLVALUE DUP1 ISZERO PUSH2 0x1C8 JUMPI PUSH1 0x0 DUP1 REVERT JUMPDEST POP PUSH2 0x146 PUSH2 0x1D7 CALLDATASIZE PUSH1 0x4 PUSH2 0x10D4 JUMP JUMPDEST PUSH2 0x52F JUMP JUMPDEST CALLVALUE DUP1 ISZERO PUSH2 0x1E8 JUMPI PUSH1 0x0 DUP1 REVERT JUMPDEST POP PUSH2 0x146 PUSH2 0x1F7 CALLDATASIZE PUSH1 0x4 PUSH2 0x1115 JUMP JUMPDEST PUSH2 0x724 JUMP JUMPDEST CALLVALUE DUP1 ISZERO PUSH2 0x208 JUMPI PUSH1 0x0 DUP1 REVERT JUMPDEST POP PUSH2 0x1AE PUSH32 0xBBDFD23F099D7ED9F535E0F97D2123EFB1332B16E023B8359B3B879EAECD3C14 DUP2 JUMP JUMPDEST CALLVALUE DUP1 ISZERO PUSH2 0x23C JUMPI PUSH1 0x0 DUP1 REVERT JUMPDEST POP PUSH2 0x1AE PUSH32 0xA1FCBA4EFB1E94B7648F5E0504BFD39734AEAD5F17965D12705915D771C859FF DUP2 JUMP JUMPDEST CALLVALUE DUP1 ISZERO PUSH2 0x270 JUMPI PUSH1 0x0 DUP1 REVERT JUMPDEST POP PUSH2 0x146 PUSH2 0x27F CALLDATASIZE PUSH1 0x4 PUSH2 0xFDD JUMP JUMPDEST PUSH2 0x99B JUMP JUMPDEST CALLVALUE DUP1 ISZERO PUSH2 0x290 JUMPI PUSH1 0x0 DUP1 REVERT JUMPDEST POP PUSH2 0x1AE PUSH1 0x66 SLOAD DUP2 JUMP JUMPDEST PUSH2 0x2A2 PUSH2 0xF76 JUMP JUMPDEST POP PUSH1 0x40 DUP1 MLOAD PUSH1 0x60 DUP2 ADD DUP3 MSTORE PUSH1 0x1 DUP2 MSTORE PUSH1 0x4 PUSH1 0x20 DUP3 ADD MSTORE PUSH1 0x0 SWAP2 DUP2 ADD SWAP2 SWAP1 SWAP2 MSTORE SWAP1 JUMP JUMPDEST PUSH1 0x1 PUSH1 0x1 PUSH1 0xA0 SHL SUB PUSH32 0x0 AND ADDRESS SUB PUSH2 0x315 JUMPI PUSH1 0x40 MLOAD PUSH3 0x461BCD PUSH1 0xE5 SHL DUP2 MSTORE PUSH1 0x4 ADD PUSH2 0x30C SWAP1 PUSH2 0x1145 JUMP JUMPDEST PUSH1 0x40 MLOAD DUP1 SWAP2 SUB SWAP1 REVERT JUMPDEST PUSH32 0x0 PUSH1 0x1 PUSH1 0x1 PUSH1 0xA0 SHL SUB AND PUSH2 0x35E PUSH1 0x0 DUP1 MLOAD PUSH1 0x20 PUSH2 0x12FD DUP4 CODECOPY DUP2 MLOAD SWAP2 MSTORE SLOAD PUSH1 0x1 PUSH1 0x1 PUSH1 0xA0 SHL SUB AND SWAP1 JUMP JUMPDEST PUSH1 0x1 PUSH1 0x1 PUSH1 0xA0 SHL SUB AND EQ PUSH2 0x384 JUMPI PUSH1 0x40 MLOAD PUSH3 0x461BCD PUSH1 0xE5 SHL DUP2 MSTORE PUSH1 0x4 ADD PUSH2 0x30C SWAP1 PUSH2 0x1191 JUMP JUMPDEST PUSH2 0x38D DUP2 PUSH2 0xA34 JUMP JUMPDEST PUSH1 0x40 DUP1 MLOAD PUSH1 0x0 DUP1 DUP3 MSTORE PUSH1 0x20 DUP3 ADD SWAP1 SWAP3 MSTORE PUSH2 0x3A9 SWAP2 DUP4 SWAP2 SWAP1 PUSH2 0xA6D JUMP JUMPDEST POP JUMP JUMPDEST PUSH1 0x1 PUSH1 0x1 PUSH1 0xA0 SHL SUB PUSH32 0x0 AND ADDRESS SUB PUSH2 0x3F4 JUMPI PUSH1 0x40 MLOAD PUSH3 0x461BCD PUSH1 0xE5 SHL DUP2 MSTORE PUSH1 0x4 ADD PUSH2 0x30C SWAP1 PUSH2 0x1145 JUMP JUMPDEST PUSH32 0x0 PUSH1 0x1 PUSH1 0x1 PUSH1 0xA0 SHL SUB AND PUSH2 0x43D PUSH1 0x0 DUP1 MLOAD PUSH1 0x20 PUSH2 0x12FD DUP4 CODECOPY DUP2 MLOAD SWAP2 MSTORE SLOAD PUSH1 0x1 PUSH1 0x1 PUSH1 0xA0 SHL SUB AND SWAP1 JUMP JUMPDEST PUSH1 0x1 PUSH1 0x1 PUSH1 0xA0 SHL SUB AND EQ PUSH2 0x463 JUMPI PUSH1 0x40 MLOAD PUSH3 0x461BCD PUSH1 0xE5 SHL DUP2 MSTORE PUSH1 0x4 ADD PUSH2 0x30C SWAP1 PUSH2 0x1191 JUMP JUMPDEST PUSH2 0x46C DUP3 PUSH2 0xA34 JUMP JUMPDEST PUSH2 0x478 DUP3 DUP3 PUSH1 0x1 PUSH2 0xA6D JUMP JUMPDEST POP POP JUMP JUMPDEST PUSH1 0x0 ADDRESS PUSH1 0x1 PUSH1 0x1 PUSH1 0xA0 SHL SUB PUSH32 0x0 AND EQ PUSH2 0x51C JUMPI PUSH1 0x40 MLOAD PUSH3 0x461BCD PUSH1 0xE5 SHL DUP2 MSTORE PUSH1 0x20 PUSH1 0x4 DUP3 ADD MSTORE PUSH1 0x38 PUSH1 0x24 DUP3 ADD MSTORE PUSH32 0x555550535570677261646561626C653A206D757374206E6F742062652063616C PUSH1 0x44 DUP3 ADD MSTORE PUSH32 0x6C6564207468726F7567682064656C656761746563616C6C0000000000000000 PUSH1 0x64 DUP3 ADD MSTORE PUSH1 0x84 ADD PUSH2 0x30C JUMP JUMPDEST POP PUSH1 0x0 DUP1 MLOAD PUSH1 0x20 PUSH2 0x12FD DUP4 CODECOPY DUP2 MLOAD SWAP2 MSTORE SWAP1 JUMP JUMPDEST PUSH1 0x0 SLOAD PUSH2 0x100 SWAP1 DIV PUSH1 0xFF AND ISZERO DUP1 DUP1 ISZERO PUSH2 0x54F JUMPI POP PUSH1 0x0 SLOAD PUSH1 0x1 PUSH1 0xFF SWAP1 SWAP2 AND LT JUMPDEST DUP1 PUSH2 0x569 JUMPI POP ADDRESS EXTCODESIZE ISZERO DUP1 ISZERO PUSH2 0x569 JUMPI POP PUSH1 0x0 SLOAD PUSH1 0xFF AND PUSH1 0x1 EQ JUMPDEST PUSH2 0x5CC JUMPI PUSH1 0x40 MLOAD PUSH3 0x461BCD PUSH1 0xE5 SHL DUP2 MSTORE PUSH1 0x20 PUSH1 0x4 DUP3 ADD MSTORE PUSH1 0x2E PUSH1 0x24 DUP3 ADD MSTORE PUSH32 0x496E697469616C697A61626C653A20636F6E747261637420697320616C726561 PUSH1 0x44 DUP3 ADD MSTORE PUSH14 0x191E481A5B9A5D1A585B1A5E9959 PUSH1 0x92 SHL PUSH1 0x64 DUP3 ADD MSTORE PUSH1 0x84 ADD PUSH2 0x30C JUMP JUMPDEST PUSH1 0x0 DUP1 SLOAD PUSH1 0xFF NOT AND PUSH1 0x1 OR SWAP1 SSTORE DUP1 ISZERO PUSH2 0x5EF JUMPI PUSH1 0x0 DUP1 SLOAD PUSH2 0xFF00 NOT AND PUSH2 0x100 OR SWAP1 SSTORE JUMPDEST PUSH2 0x5F8 DUP5 PUSH2 0xBDD JUMP JUMPDEST PUSH1 0x65 DUP1 SLOAD PUSH1 0x1 PUSH1 0x1 PUSH1 0xA0 SHL SUB NOT AND PUSH1 0x1 PUSH1 0x1 PUSH1 0xA0 SHL SUB DUP6 AND SWAP1 DUP2 OR SWAP1 SWAP2 SSTORE PUSH1 0x66 DUP4 SWAP1 SSTORE PUSH1 0x40 MLOAD PUSH4 0x178B8BF PUSH1 0xE0 SHL DUP2 MSTORE PUSH1 0x4 DUP2 ADD DUP5 SWAP1 MSTORE PUSH1 0x0 SWAP2 SWAP1 PUSH4 0x178B8BF SWAP1 PUSH1 0x24 ADD PUSH1 0x20 PUSH1 0x40 MLOAD DUP1 DUP4 SUB DUP2 DUP7 GAS STATICCALL ISZERO DUP1 ISZERO PUSH2 0x659 JUMPI RETURNDATASIZE PUSH1 0x0 DUP1 RETURNDATACOPY RETURNDATASIZE PUSH1 0x0 REVERT JUMPDEST POP POP POP POP PUSH1 0x40 MLOAD RETURNDATASIZE PUSH1 0x1F NOT PUSH1 0x1F DUP3 ADD AND DUP3 ADD DUP1 PUSH1 0x40 MSTORE POP DUP2 ADD SWAP1 PUSH2 0x67D SWAP2 SWAP1 PUSH2 0x11DD JUMP JUMPDEST SWAP1 POP PUSH1 0x1 PUSH1 0x1 PUSH1 0xA0 SHL SUB DUP2 AND PUSH2 0x6B8 JUMPI PUSH1 0x40 MLOAD PUSH4 0xD7097C5 PUSH1 0xE1 SHL DUP2 MSTORE PUSH1 0x4 DUP2 ADD DUP5 SWAP1 MSTORE PUSH1 0x1 PUSH1 0x1 PUSH1 0xA0 SHL SUB DUP3 AND PUSH1 0x24 DUP3 ADD MSTORE PUSH1 0x44 ADD PUSH2 0x30C JUMP JUMPDEST PUSH1 0x67 DUP1 SLOAD PUSH1 0x1 PUSH1 0x1 PUSH1 0xA0 SHL SUB NOT AND PUSH1 0x1 PUSH1 0x1 PUSH1 0xA0 SHL SUB SWAP3 SWAP1 SWAP3 AND SWAP2 SWAP1 SWAP2 OR SWAP1 SSTORE DUP1 ISZERO PUSH2 0x71E JUMPI PUSH1 0x0 DUP1 SLOAD PUSH2 0xFF00 NOT AND SWAP1 SSTORE PUSH1 0x40 MLOAD PUSH1 0x1 DUP2 MSTORE PUSH32 0x7F26B83FF96E1F2B6A682F133852F6798A09C465DA95921460CEFB3847402498 SWAP1 PUSH1 0x20 ADD PUSH1 0x40 MLOAD DUP1 SWAP2 SUB SWAP1 LOG1 JUMPDEST POP POP POP POP JUMP JUMPDEST PUSH1 0x33 SLOAD PUSH32 0xBBDFD23F099D7ED9F535E0F97D2123EFB1332B16E023B8359B3B879EAECD3C14 SWAP1 PUSH2 0x762 SWAP1 PUSH1 0x1 PUSH1 0x1 PUSH1 0xA0 SHL SUB AND ADDRESS CALLER JUMPDEST DUP5 PUSH1 0x0 CALLDATASIZE PUSH2 0xC6A JUMP JUMPDEST PUSH1 0x0 PUSH1 0x66 SLOAD DUP5 PUSH1 0x40 MLOAD PUSH1 0x20 ADD PUSH2 0x782 SWAP3 SWAP2 SWAP1 SWAP2 DUP3 MSTORE PUSH1 0x20 DUP3 ADD MSTORE PUSH1 0x40 ADD SWAP1 JUMP JUMPDEST PUSH1 0x40 DUP1 MLOAD DUP1 DUP4 SUB PUSH1 0x1F NOT ADD DUP2 MSTORE SWAP1 DUP3 SWAP1 MSTORE DUP1 MLOAD PUSH1 0x20 SWAP1 SWAP2 ADD KECCAK256 PUSH1 0x65 SLOAD PUSH4 0x2571BE3 PUSH1 0xE0 SHL DUP4 MSTORE PUSH1 0x4 DUP4 ADD DUP3 SWAP1 MSTORE SWAP1 SWAP3 POP PUSH1 0x0 SWAP2 PUSH1 0x1 PUSH1 0x1 PUSH1 0xA0 SHL SUB SWAP1 SWAP2 AND SWAP1 PUSH4 0x2571BE3 SWAP1 PUSH1 0x24 ADD PUSH1 0x20 PUSH1 0x40 MLOAD DUP1 DUP4 SUB DUP2 DUP7 GAS STATICCALL ISZERO DUP1 ISZERO PUSH2 0x7E7 JUMPI RETURNDATASIZE PUSH1 0x0 DUP1 RETURNDATACOPY RETURNDATASIZE PUSH1 0x0 REVERT JUMPDEST POP POP POP POP PUSH1 0x40 MLOAD RETURNDATASIZE PUSH1 0x1F NOT PUSH1 0x1F DUP3 ADD AND DUP3 ADD DUP1 PUSH1 0x40 MSTORE POP DUP2 ADD SWAP1 PUSH2 0x80B SWAP2 SWAP1 PUSH2 0x11DD JUMP JUMPDEST SWAP1 POP PUSH1 0x1 PUSH1 0x1 PUSH1 0xA0 SHL SUB DUP2 AND ISZERO PUSH2 0x846 JUMPI PUSH1 0x40 MLOAD PUSH3 0xFCAD5D PUSH1 0xE1 SHL DUP2 MSTORE PUSH1 0x4 DUP2 ADD DUP4 SWAP1 MSTORE PUSH1 0x1 PUSH1 0x1 PUSH1 0xA0 SHL SUB DUP3 AND PUSH1 0x24 DUP3 ADD MSTORE PUSH1 0x44 ADD PUSH2 0x30C JUMP JUMPDEST PUSH1 0x65 SLOAD PUSH1 0x66 SLOAD PUSH1 0x40 MLOAD PUSH4 0x6AB5923 PUSH1 0xE0 SHL DUP2 MSTORE PUSH1 0x4 DUP2 ADD SWAP2 SWAP1 SWAP2 MSTORE PUSH1 0x24 DUP2 ADD DUP8 SWAP1 MSTORE ADDRESS PUSH1 0x44 DUP3 ADD MSTORE PUSH1 0x1 PUSH1 0x1 PUSH1 0xA0 SHL SUB SWAP1 SWAP2 AND SWAP1 PUSH4 0x6AB5923 SWAP1 PUSH1 0x64 ADD PUSH1 0x20 PUSH1 0x40 MLOAD DUP1 DUP4 SUB DUP2 PUSH1 0x0 DUP8 GAS CALL ISZERO DUP1 ISZERO PUSH2 0x8A2 JUMPI RETURNDATASIZE PUSH1 0x0 DUP1 RETURNDATACOPY RETURNDATASIZE PUSH1 0x0 REVERT JUMPDEST POP POP POP POP PUSH1 0x40 MLOAD RETURNDATASIZE PUSH1 0x1F NOT PUSH1 0x1F DUP3 ADD AND DUP3 ADD DUP1 PUSH1 0x40 MSTORE POP DUP2 ADD SWAP1 PUSH2 0x8C6 SWAP2 SWAP1 PUSH2 0x11FA JUMP JUMPDEST POP PUSH1 0x65 SLOAD PUSH1 0x67 SLOAD PUSH1 0x40 MLOAD PUSH4 0xC4B7B85 PUSH1 0xE1 SHL DUP2 MSTORE PUSH1 0x4 DUP2 ADD DUP6 SWAP1 MSTORE PUSH1 0x1 PUSH1 0x1 PUSH1 0xA0 SHL SUB SWAP2 DUP3 AND PUSH1 0x24 DUP3 ADD MSTORE SWAP2 AND SWAP1 PUSH4 0x1896F70A SWAP1 PUSH1 0x44 ADD PUSH1 0x0 PUSH1 0x40 MLOAD DUP1 DUP4 SUB DUP2 PUSH1 0x0 DUP8 DUP1 EXTCODESIZE ISZERO DUP1 ISZERO PUSH2 0x917 JUMPI PUSH1 0x0 DUP1 REVERT JUMPDEST POP GAS CALL ISZERO DUP1 ISZERO PUSH2 0x92B JUMPI RETURNDATASIZE PUSH1 0x0 DUP1 RETURNDATACOPY RETURNDATASIZE PUSH1 0x0 REVERT JUMPDEST POP POP PUSH1 0x67 SLOAD PUSH1 0x40 MLOAD PUSH3 0xD5FA2B PUSH1 0xE8 SHL DUP2 MSTORE PUSH1 0x4 DUP2 ADD DUP7 SWAP1 MSTORE PUSH1 0x1 PUSH1 0x1 PUSH1 0xA0 SHL SUB DUP9 DUP2 AND PUSH1 0x24 DUP4 ADD MSTORE SWAP1 SWAP2 AND SWAP3 POP PUSH4 0xD5FA2B00 SWAP2 POP PUSH1 0x44 ADD PUSH1 0x0 PUSH1 0x40 MLOAD DUP1 DUP4 SUB DUP2 PUSH1 0x0 DUP8 DUP1 EXTCODESIZE ISZERO DUP1 ISZERO PUSH2 0x97C JUMPI PUSH1 0x0 DUP1 REVERT JUMPDEST POP GAS CALL ISZERO DUP1 ISZERO PUSH2 0x990 JUMPI RETURNDATASIZE PUSH1 0x0 DUP1 RETURNDATACOPY RETURNDATASIZE PUSH1 0x0 REVERT JUMPDEST POP POP POP POP POP POP POP POP POP JUMP JUMPDEST PUSH1 0x33 SLOAD PUSH32 0xBBDFD23F099D7ED9F535E0F97D2123EFB1332B16E023B8359B3B879EAECD3C14 SWAP1 PUSH2 0x9D4 SWAP1 PUSH1 0x1 PUSH1 0x1 PUSH1 0xA0 SHL SUB AND ADDRESS CALLER PUSH2 0x759 JUMP JUMPDEST PUSH1 0x1 PUSH1 0x1 PUSH1 0xA0 SHL SUB DUP3 AND PUSH2 0xA11 JUMPI PUSH1 0x66 SLOAD PUSH1 0x40 MLOAD PUSH4 0xD7097C5 PUSH1 0xE1 SHL DUP2 MSTORE PUSH1 0x4 DUP2 ADD SWAP2 SWAP1 SWAP2 MSTORE PUSH1 0x1 PUSH1 0x1 PUSH1 0xA0 SHL SUB DUP4 AND PUSH1 0x24 DUP3 ADD MSTORE PUSH1 0x44 ADD PUSH2 0x30C JUMP JUMPDEST POP PUSH1 0x67 DUP1 SLOAD PUSH1 0x1 PUSH1 0x1 PUSH1 0xA0 SHL SUB NOT AND PUSH1 0x1 PUSH1 0x1 PUSH1 0xA0 SHL SUB SWAP3 SWAP1 SWAP3 AND SWAP2 SWAP1 SWAP2 OR SWAP1 SSTORE JUMP JUMPDEST PUSH1 0x33 SLOAD PUSH32 0xA1FCBA4EFB1E94B7648F5E0504BFD39734AEAD5F17965D12705915D771C859FF SWAP1 PUSH2 0x478 SWAP1 PUSH1 0x1 PUSH1 0x1 PUSH1 0xA0 SHL SUB AND ADDRESS CALLER PUSH2 0x759 JUMP JUMPDEST PUSH32 0x4910FDFA16FED3260ED0E7147F7CC6DA11A60208B5B9406D12A635614FFD9143 SLOAD PUSH1 0xFF AND ISZERO PUSH2 0xAA5 JUMPI PUSH2 0xAA0 DUP4 PUSH2 0xD26 JUMP JUMPDEST POP POP POP JUMP JUMPDEST DUP3 PUSH1 0x1 PUSH1 0x1 PUSH1 0xA0 SHL SUB AND PUSH4 0x52D1902D PUSH1 0x40 MLOAD DUP2 PUSH4 0xFFFFFFFF AND PUSH1 0xE0 SHL DUP2 MSTORE PUSH1 0x4 ADD PUSH1 0x20 PUSH1 0x40 MLOAD DUP1 DUP4 SUB DUP2 DUP7 GAS STATICCALL SWAP3 POP POP POP DUP1 ISZERO PUSH2 0xAFF JUMPI POP PUSH1 0x40 DUP1 MLOAD PUSH1 0x1F RETURNDATASIZE SWAP1 DUP2 ADD PUSH1 0x1F NOT AND DUP3 ADD SWAP1 SWAP3 MSTORE PUSH2 0xAFC SWAP2 DUP2 ADD SWAP1 PUSH2 0x11FA JUMP JUMPDEST PUSH1 0x1 JUMPDEST PUSH2 0xB62 JUMPI PUSH1 0x40 MLOAD PUSH3 0x461BCD PUSH1 0xE5 SHL DUP2 MSTORE PUSH1 0x20 PUSH1 0x4 DUP3 ADD MSTORE PUSH1 0x2E PUSH1 0x24 DUP3 ADD MSTORE PUSH32 0x45524331393637557067726164653A206E657720696D706C656D656E74617469 PUSH1 0x44 DUP3 ADD MSTORE PUSH14 0x6F6E206973206E6F742055555053 PUSH1 0x90 SHL PUSH1 0x64 DUP3 ADD MSTORE PUSH1 0x84 ADD PUSH2 0x30C JUMP JUMPDEST PUSH1 0x0 DUP1 MLOAD PUSH1 0x20 PUSH2 0x12FD DUP4 CODECOPY DUP2 MLOAD SWAP2 MSTORE DUP2 EQ PUSH2 0xBD1 JUMPI PUSH1 0x40 MLOAD PUSH3 0x461BCD PUSH1 0xE5 SHL DUP2 MSTORE PUSH1 0x20 PUSH1 0x4 DUP3 ADD MSTORE PUSH1 0x29 PUSH1 0x24 DUP3 ADD MSTORE PUSH32 0x45524331393637557067726164653A20756E737570706F727465642070726F78 PUSH1 0x44 DUP3 ADD MSTORE PUSH9 0x1A58589B1955555251 PUSH1 0xBA SHL PUSH1 0x64 DUP3 ADD MSTORE PUSH1 0x84 ADD PUSH2 0x30C JUMP JUMPDEST POP PUSH2 0xAA0 DUP4 DUP4 DUP4 PUSH2 0xDC2 JUMP JUMPDEST PUSH1 0x0 SLOAD PUSH2 0x100 SWAP1 DIV PUSH1 0xFF AND PUSH2 0xC48 JUMPI PUSH1 0x40 MLOAD PUSH3 0x461BCD PUSH1 0xE5 SHL DUP2 MSTORE PUSH1 0x20 PUSH1 0x4 DUP3 ADD MSTORE PUSH1 0x2B PUSH1 0x24 DUP3 ADD MSTORE PUSH32 0x496E697469616C697A61626C653A20636F6E7472616374206973206E6F742069 PUSH1 0x44 DUP3 ADD MSTORE PUSH11 0x6E697469616C697A696E67 PUSH1 0xA8 SHL PUSH1 0x64 DUP3 ADD MSTORE PUSH1 0x84 ADD PUSH2 0x30C JUMP JUMPDEST PUSH1 0x33 DUP1 SLOAD PUSH1 0x1 PUSH1 0x1 PUSH1 0xA0 SHL SUB NOT AND PUSH1 0x1 PUSH1 0x1 PUSH1 0xA0 SHL SUB SWAP3 SWAP1 SWAP3 AND SWAP2 SWAP1 SWAP2 OR SWAP1 SSTORE JUMP JUMPDEST PUSH1 0x40 MLOAD PUSH4 0x7EF7C883 PUSH1 0xE1 SHL DUP2 MSTORE PUSH1 0x1 PUSH1 0x1 PUSH1 0xA0 SHL SUB DUP8 AND SWAP1 PUSH4 0xFDEF9106 SWAP1 PUSH2 0xC9E SWAP1 DUP9 SWAP1 DUP9 SWAP1 DUP9 SWAP1 DUP9 SWAP1 DUP9 SWAP1 PUSH1 0x4 ADD PUSH2 0x1213 JUMP JUMPDEST PUSH1 0x20 PUSH1 0x40 MLOAD DUP1 DUP4 SUB DUP2 DUP7 GAS STATICCALL ISZERO DUP1 ISZERO PUSH2 0xCBB JUMPI RETURNDATASIZE PUSH1 0x0 DUP1 RETURNDATACOPY RETURNDATASIZE PUSH1 0x0 REVERT JUMPDEST POP POP POP POP PUSH1 0x40 MLOAD RETURNDATASIZE PUSH1 0x1F NOT PUSH1 0x1F DUP3 ADD AND DUP3 ADD DUP1 PUSH1 0x40 MSTORE POP DUP2 ADD SWAP1 PUSH2 0xCDF SWAP2 SWAP1 PUSH2 0x1267 JUMP JUMPDEST PUSH2 0xD1E JUMPI PUSH1 0x40 MLOAD PUSH4 0xCB6F8ED PUSH1 0xE2 SHL DUP2 MSTORE PUSH1 0x1 PUSH1 0x1 PUSH1 0xA0 SHL SUB DUP1 DUP9 AND PUSH1 0x4 DUP4 ADD MSTORE DUP1 DUP8 AND PUSH1 0x24 DUP4 ADD MSTORE DUP6 AND PUSH1 0x44 DUP3 ADD MSTORE PUSH1 0x64 DUP2 ADD DUP5 SWAP1 MSTORE PUSH1 0x84 ADD PUSH2 0x30C JUMP JUMPDEST POP POP POP POP POP POP JUMP JUMPDEST PUSH1 0x1 PUSH1 0x1 PUSH1 0xA0 SHL SUB DUP2 AND EXTCODESIZE PUSH2 0xD93 JUMPI PUSH1 0x40 MLOAD PUSH3 0x461BCD PUSH1 0xE5 SHL DUP2 MSTORE PUSH1 0x20 PUSH1 0x4 DUP3 ADD MSTORE PUSH1 0x2D PUSH1 0x24 DUP3 ADD MSTORE PUSH32 0x455243313936373A206E657720696D706C656D656E746174696F6E206973206E PUSH1 0x44 DUP3 ADD MSTORE PUSH13 0x1BDD08184818DBDB9D1C9858DD PUSH1 0x9A SHL PUSH1 0x64 DUP3 ADD MSTORE PUSH1 0x84 ADD PUSH2 0x30C JUMP JUMPDEST PUSH1 0x0 DUP1 MLOAD PUSH1 0x20 PUSH2 0x12FD DUP4 CODECOPY DUP2 MLOAD SWAP2 MSTORE DUP1 SLOAD PUSH1 0x1 PUSH1 0x1 PUSH1 0xA0 SHL SUB NOT AND PUSH1 0x1 PUSH1 0x1 PUSH1 0xA0 SHL SUB SWAP3 SWAP1 SWAP3 AND SWAP2 SWAP1 SWAP2 OR SWAP1 SSTORE JUMP JUMPDEST PUSH2 0xDCB DUP4 PUSH2 0xDE7 JUMP JUMPDEST PUSH1 0x0 DUP3 MLOAD GT DUP1 PUSH2 0xDD8 JUMPI POP DUP1 JUMPDEST ISZERO PUSH2 0xAA0 JUMPI PUSH2 0x71E DUP4 DUP4 PUSH2 0xE27 JUMP JUMPDEST PUSH2 0xDF0 DUP2 PUSH2 0xD26 JUMP JUMPDEST PUSH1 0x40 MLOAD PUSH1 0x1 PUSH1 0x1 PUSH1 0xA0 SHL SUB DUP3 AND SWAP1 PUSH32 0xBC7CD75A20EE27FD9ADEBAB32041F755214DBC6BFFA90CC0225B39DA2E5C2D3B SWAP1 PUSH1 0x0 SWAP1 LOG2 POP JUMP JUMPDEST PUSH1 0x60 PUSH2 0xE4C DUP4 DUP4 PUSH1 0x40 MLOAD DUP1 PUSH1 0x60 ADD PUSH1 0x40 MSTORE DUP1 PUSH1 0x27 DUP2 MSTORE PUSH1 0x20 ADD PUSH2 0x131D PUSH1 0x27 SWAP2 CODECOPY PUSH2 0xE53 JUMP JUMPDEST SWAP4 SWAP3 POP POP POP JUMP JUMPDEST PUSH1 0x60 PUSH1 0x0 DUP1 DUP6 PUSH1 0x1 PUSH1 0x1 PUSH1 0xA0 SHL SUB AND DUP6 PUSH1 0x40 MLOAD PUSH2 0xE70 SWAP2 SWAP1 PUSH2 0x12AD JUMP JUMPDEST PUSH1 0x0 PUSH1 0x40 MLOAD DUP1 DUP4 SUB DUP2 DUP6 GAS DELEGATECALL SWAP2 POP POP RETURNDATASIZE DUP1 PUSH1 0x0 DUP2 EQ PUSH2 0xEAB JUMPI PUSH1 0x40 MLOAD SWAP2 POP PUSH1 0x1F NOT PUSH1 0x3F RETURNDATASIZE ADD AND DUP3 ADD PUSH1 0x40 MSTORE RETURNDATASIZE DUP3 MSTORE RETURNDATASIZE PUSH1 0x0 PUSH1 0x20 DUP5 ADD RETURNDATACOPY PUSH2 0xEB0 JUMP JUMPDEST PUSH1 0x60 SWAP2 POP JUMPDEST POP SWAP2 POP SWAP2 POP PUSH2 0xEC1 DUP7 DUP4 DUP4 DUP8 PUSH2 0xECB JUMP JUMPDEST SWAP7 SWAP6 POP POP POP POP POP POP JUMP JUMPDEST PUSH1 0x60 DUP4 ISZERO PUSH2 0xF3A JUMPI DUP3 MLOAD PUSH1 0x0 SUB PUSH2 0xF33 JUMPI PUSH1 0x1 PUSH1 0x1 PUSH1 0xA0 SHL SUB DUP6 AND EXTCODESIZE PUSH2 0xF33 JUMPI PUSH1 0x40 MLOAD PUSH3 0x461BCD PUSH1 0xE5 SHL DUP2 MSTORE PUSH1 0x20 PUSH1 0x4 DUP3 ADD MSTORE PUSH1 0x1D PUSH1 0x24 DUP3 ADD MSTORE PUSH32 0x416464726573733A2063616C6C20746F206E6F6E2D636F6E7472616374000000 PUSH1 0x44 DUP3 ADD MSTORE PUSH1 0x64 ADD PUSH2 0x30C JUMP JUMPDEST POP DUP2 PUSH2 0xF44 JUMP JUMPDEST PUSH2 0xF44 DUP4 DUP4 PUSH2 0xF4C JUMP JUMPDEST SWAP5 SWAP4 POP POP POP POP JUMP JUMPDEST DUP2 MLOAD ISZERO PUSH2 0xF5C JUMPI DUP2 MLOAD DUP1 DUP4 PUSH1 0x20 ADD REVERT JUMPDEST DUP1 PUSH1 0x40 MLOAD PUSH3 0x461BCD PUSH1 0xE5 SHL DUP2 MSTORE PUSH1 0x4 ADD PUSH2 0x30C SWAP2 SWAP1 PUSH2 0x12C9 JUMP JUMPDEST PUSH1 0x40 MLOAD DUP1 PUSH1 0x60 ADD PUSH1 0x40 MSTORE DUP1 PUSH1 0x3 SWAP1 PUSH1 0x20 DUP3 MUL DUP1 CALLDATASIZE DUP4 CALLDATACOPY POP SWAP2 SWAP3 SWAP2 POP POP JUMP JUMPDEST PUSH1 0x60 DUP2 ADD DUP2 DUP4 PUSH1 0x0 JUMPDEST PUSH1 0x3 DUP2 LT ISZERO PUSH2 0xFBF JUMPI DUP2 MLOAD PUSH1 0xFF AND DUP4 MSTORE PUSH1 0x20 SWAP3 DUP4 ADD SWAP3 SWAP1 SWAP2 ADD SWAP1 PUSH1 0x1 ADD PUSH2 0xF9D JUMP JUMPDEST POP POP POP SWAP3 SWAP2 POP POP JUMP JUMPDEST PUSH1 0x1 PUSH1 0x1 PUSH1 0xA0 SHL SUB DUP2 AND DUP2 EQ PUSH2 0x3A9 JUMPI PUSH1 0x0 DUP1 REVERT JUMPDEST PUSH1 0x0 PUSH1 0x20 DUP3 DUP5 SUB SLT ISZERO PUSH2 0xFEF JUMPI PUSH1 0x0 DUP1 REVERT JUMPDEST DUP2 CALLDATALOAD PUSH2 0xE4C DUP2 PUSH2 0xFC8 JUMP JUMPDEST PUSH4 0x4E487B71 PUSH1 0xE0 SHL PUSH1 0x0 MSTORE PUSH1 0x41 PUSH1 0x4 MSTORE PUSH1 0x24 PUSH1 0x0 REVERT JUMPDEST PUSH1 0x0 DUP1 PUSH1 0x40 DUP4 DUP6 SUB SLT ISZERO PUSH2 0x1023 JUMPI PUSH1 0x0 DUP1 REVERT JUMPDEST DUP3 CALLDATALOAD PUSH2 0x102E DUP2 PUSH2 0xFC8 JUMP JUMPDEST SWAP2 POP PUSH1 0x20 DUP4 ADD CALLDATALOAD PUSH8 0xFFFFFFFFFFFFFFFF DUP1 DUP3 GT ISZERO PUSH2 0x104B JUMPI PUSH1 0x0 DUP1 REVERT JUMPDEST DUP2 DUP6 ADD SWAP2 POP DUP6 PUSH1 0x1F DUP4 ADD SLT PUSH2 0x105F JUMPI PUSH1 0x0 DUP1 REVERT JUMPDEST DUP2 CALLDATALOAD DUP2 DUP2 GT ISZERO PUSH2 0x1071 JUMPI PUSH2 0x1071 PUSH2 0xFFA JUMP JUMPDEST PUSH1 0x40 MLOAD PUSH1 0x1F DUP3 ADD PUSH1 0x1F NOT SWAP1 DUP2 AND PUSH1 0x3F ADD AND DUP2 ADD SWAP1 DUP4 DUP3 GT DUP2 DUP4 LT OR ISZERO PUSH2 0x1099 JUMPI PUSH2 0x1099 PUSH2 0xFFA JUMP JUMPDEST DUP2 PUSH1 0x40 MSTORE DUP3 DUP2 MSTORE DUP9 PUSH1 0x20 DUP5 DUP8 ADD ADD GT ISZERO PUSH2 0x10B2 JUMPI PUSH1 0x0 DUP1 REVERT JUMPDEST DUP3 PUSH1 0x20 DUP7 ADD PUSH1 0x20 DUP4 ADD CALLDATACOPY PUSH1 0x0 PUSH1 0x20 DUP5 DUP4 ADD ADD MSTORE DUP1 SWAP6 POP POP POP POP POP POP SWAP3 POP SWAP3 SWAP1 POP JUMP JUMPDEST PUSH1 0x0 DUP1 PUSH1 0x0 PUSH1 0x60 DUP5 DUP7 SUB SLT ISZERO PUSH2 0x10E9 JUMPI PUSH1 0x0 DUP1 REVERT JUMPDEST DUP4 CALLDATALOAD PUSH2 0x10F4 DUP2 PUSH2 0xFC8 JUMP JUMPDEST SWAP3 POP PUSH1 0x20 DUP5 ADD CALLDATALOAD PUSH2 0x1104 DUP2 PUSH2 0xFC8 JUMP JUMPDEST SWAP3 SWAP6 SWAP3 SWAP5 POP POP POP PUSH1 0x40 SWAP2 SWAP1 SWAP2 ADD CALLDATALOAD SWAP1 JUMP JUMPDEST PUSH1 0x0 DUP1 PUSH1 0x40 DUP4 DUP6 SUB SLT ISZERO PUSH2 0x1128 JUMPI PUSH1 0x0 DUP1 REVERT JUMPDEST DUP3 CALLDATALOAD SWAP2 POP PUSH1 0x20 DUP4 ADD CALLDATALOAD PUSH2 0x113A DUP2 PUSH2 0xFC8 JUMP JUMPDEST DUP1 SWAP2 POP POP SWAP3 POP SWAP3 SWAP1 POP JUMP JUMPDEST PUSH1 0x20 DUP1 DUP3 MSTORE PUSH1 0x2C SWAP1 DUP3 ADD MSTORE PUSH32 0x46756E6374696F6E206D7573742062652063616C6C6564207468726F75676820 PUSH1 0x40 DUP3 ADD MSTORE PUSH12 0x19195B1959D85D1958D85B1B PUSH1 0xA2 SHL PUSH1 0x60 DUP3 ADD MSTORE PUSH1 0x80 ADD SWAP1 JUMP JUMPDEST PUSH1 0x20 DUP1 DUP3 MSTORE PUSH1 0x2C SWAP1 DUP3 ADD MSTORE PUSH32 0x46756E6374696F6E206D7573742062652063616C6C6564207468726F75676820 PUSH1 0x40 DUP3 ADD MSTORE PUSH12 0x6163746976652070726F7879 PUSH1 0xA0 SHL PUSH1 0x60 DUP3 ADD MSTORE PUSH1 0x80 ADD SWAP1 JUMP JUMPDEST PUSH1 0x0 PUSH1 0x20 DUP3 DUP5 SUB SLT ISZERO PUSH2 0x11EF JUMPI PUSH1 0x0 DUP1 REVERT JUMPDEST DUP2 MLOAD PUSH2 0xE4C DUP2 PUSH2 0xFC8 JUMP JUMPDEST PUSH1 0x0 PUSH1 0x20 DUP3 DUP5 SUB SLT ISZERO PUSH2 0x120C JUMPI PUSH1 0x0 DUP1 REVERT JUMPDEST POP MLOAD SWAP2 SWAP1 POP JUMP JUMPDEST PUSH1 0x1 PUSH1 0x1 PUSH1 0xA0 SHL SUB DUP7 DUP2 AND DUP3 MSTORE DUP6 AND PUSH1 0x20 DUP3 ADD MSTORE PUSH1 0x40 DUP2 ADD DUP5 SWAP1 MSTORE PUSH1 0x80 PUSH1 0x60 DUP3 ADD DUP2 SWAP1 MSTORE DUP2 ADD DUP3 SWAP1 MSTORE PUSH1 0x0 DUP3 DUP5 PUSH1 0xA0 DUP5 ADD CALLDATACOPY PUSH1 0x0 PUSH1 0xA0 DUP5 DUP5 ADD ADD MSTORE PUSH1 0xA0 PUSH1 0x1F NOT PUSH1 0x1F DUP6 ADD AND DUP4 ADD ADD SWAP1 POP SWAP7 SWAP6 POP POP POP POP POP POP JUMP JUMPDEST PUSH1 0x0 PUSH1 0x20 DUP3 DUP5 SUB SLT ISZERO PUSH2 0x1279 JUMPI PUSH1 0x0 DUP1 REVERT JUMPDEST DUP2 MLOAD DUP1 ISZERO ISZERO DUP2 EQ PUSH2 0xE4C JUMPI PUSH1 0x0 DUP1 REVERT JUMPDEST PUSH1 0x0 JUMPDEST DUP4 DUP2 LT ISZERO PUSH2 0x12A4 JUMPI DUP2 DUP2 ADD MLOAD DUP4 DUP3 ADD MSTORE PUSH1 0x20 ADD PUSH2 0x128C JUMP JUMPDEST POP POP PUSH1 0x0 SWAP2 ADD MSTORE JUMP JUMPDEST PUSH1 0x0 DUP3 MLOAD PUSH2 0x12BF DUP2 DUP5 PUSH1 0x20 DUP8 ADD PUSH2 0x1289 JUMP JUMPDEST SWAP2 SWAP1 SWAP2 ADD SWAP3 SWAP2 POP POP JUMP JUMPDEST PUSH1 0x20 DUP2 MSTORE PUSH1 0x0 DUP3 MLOAD DUP1 PUSH1 0x20 DUP5 ADD MSTORE PUSH2 0x12E8 DUP2 PUSH1 0x40 DUP6 ADD PUSH1 0x20 DUP8 ADD PUSH2 0x1289 JUMP JUMPDEST PUSH1 0x1F ADD PUSH1 0x1F NOT AND SWAP2 SWAP1 SWAP2 ADD PUSH1 0x40 ADD SWAP3 SWAP2 POP POP JUMP INVALID CALLDATASIZE ADDMOD SWAP5 LOG1 EXTCODESIZE LOG1 LOG3 0x21 MOD PUSH8 0xC828492DB98DCA3E KECCAK256 PUSH23 0xCC3735A920A3CA505D382BBC416464726573733A206C6F PUSH24 0x2D6C6576656C2064656C65676174652063616C6C20666169 PUSH13 0x6564A264697066735822122020 0xCF 0xD7 KECCAK256 0xC4 0xBD 0xE7 PUSH21 0xE8F09BF9367E906CB1B55D660AE8952018D7FFE52C CALLDATASIZE 0xF9 0xDC PUSH5 0x736F6C6343 STOP ADDMOD GT STOP CALLER "
				},
				"gasEstimates": {
					"creation": {
						"codeDepositCost": "997000",
						"executionCost": "infinite",
						"totalCost": "infinite"
					},
					"external": {
						"REGISTER_ENS_SUBDOMAIN_PERMISSION_ID()": "217",
						"UPGRADE_REGISTRAR_PERMISSION_ID()": "239",
						"dao()": "2409",
						"ens()": "2393",
						"initialize(address,address,bytes32)": "infinite",
						"node()": "2383",
						"protocolVersion()": "infinite",
						"proxiableUUID()": "infinite",
						"registerSubnode(bytes32,address)": "infinite",
						"resolver()": "2327",
						"setDefaultResolver(address)": "infinite",
						"upgradeTo(address)": "infinite",
						"upgradeToAndCall(address,bytes)": "infinite"
					},
					"internal": {
						"_authorizeUpgrade(address)": "infinite"
					}
				},
				"methodIdentifiers": {
					"REGISTER_ENS_SUBDOMAIN_PERMISSION_ID()": "9848ba51",
					"UPGRADE_REGISTRAR_PERMISSION_ID()": "af7b2fed",
					"dao()": "4162169f",
					"ens()": "3f15457f",
					"initialize(address,address,bytes32)": "6133f985",
					"node()": "d70754ec",
					"protocolVersion()": "2ae9c600",
					"proxiableUUID()": "52d1902d",
					"registerSubnode(bytes32,address)": "89bb4145",
					"resolver()": "04f3bcec",
					"setDefaultResolver(address)": "c66485b2",
					"upgradeTo(address)": "3659cfe6",
					"upgradeToAndCall(address,bytes)": "4f1ef286"
				}
			},
			"storageLayout": {
				"storage": [
					{
						"astId": 520,
						"contract": "packages/contracts/src/framework/utils/ens/ENSSubdomainRegistrar.sol:ENSSubdomainRegistrar",
						"label": "_initialized",
						"offset": 0,
						"slot": "0",
						"type": "t_uint8"
					},
					{
						"astId": 523,
						"contract": "packages/contracts/src/framework/utils/ens/ENSSubdomainRegistrar.sol:ENSSubdomainRegistrar",
						"label": "_initializing",
						"offset": 1,
						"slot": "0",
						"type": "t_bool"
					},
					{
						"astId": 1189,
						"contract": "packages/contracts/src/framework/utils/ens/ENSSubdomainRegistrar.sol:ENSSubdomainRegistrar",
						"label": "__gap",
						"offset": 0,
						"slot": "1",
						"type": "t_array(t_uint256)50_storage"
					},
					{
						"astId": 2995,
						"contract": "packages/contracts/src/framework/utils/ens/ENSSubdomainRegistrar.sol:ENSSubdomainRegistrar",
						"label": "dao_",
						"offset": 0,
						"slot": "51",
						"type": "t_contract(IDAO)2980"
					},
					{
						"astId": 3044,
						"contract": "packages/contracts/src/framework/utils/ens/ENSSubdomainRegistrar.sol:ENSSubdomainRegistrar",
						"label": "__gap",
						"offset": 0,
						"slot": "52",
						"type": "t_array(t_uint256)49_storage"
					},
					{
						"astId": 3468,
						"contract": "packages/contracts/src/framework/utils/ens/ENSSubdomainRegistrar.sol:ENSSubdomainRegistrar",
						"label": "ens",
						"offset": 0,
						"slot": "101",
						"type": "t_contract(ENS)148"
					},
					{
						"astId": 3471,
						"contract": "packages/contracts/src/framework/utils/ens/ENSSubdomainRegistrar.sol:ENSSubdomainRegistrar",
						"label": "node",
						"offset": 0,
						"slot": "102",
						"type": "t_bytes32"
					},
					{
						"astId": 3474,
						"contract": "packages/contracts/src/framework/utils/ens/ENSSubdomainRegistrar.sol:ENSSubdomainRegistrar",
						"label": "resolver",
						"offset": 0,
						"slot": "103",
						"type": "t_address"
					},
					{
						"astId": 3658,
						"contract": "packages/contracts/src/framework/utils/ens/ENSSubdomainRegistrar.sol:ENSSubdomainRegistrar",
						"label": "__gap",
						"offset": 0,
						"slot": "104",
						"type": "t_array(t_uint256)47_storage"
					}
				],
				"types": {
					"t_address": {
						"encoding": "inplace",
						"label": "address",
						"numberOfBytes": "20"
					},
					"t_array(t_uint256)47_storage": {
						"base": "t_uint256",
						"encoding": "inplace",
						"label": "uint256[47]",
						"numberOfBytes": "1504"
					},
					"t_array(t_uint256)49_storage": {
						"base": "t_uint256",
						"encoding": "inplace",
						"label": "uint256[49]",
						"numberOfBytes": "1568"
					},
					"t_array(t_uint256)50_storage": {
						"base": "t_uint256",
						"encoding": "inplace",
						"label": "uint256[50]",
						"numberOfBytes": "1600"
					},
					"t_bool": {
						"encoding": "inplace",
						"label": "bool",
						"numberOfBytes": "1"
					},
					"t_bytes32": {
						"encoding": "inplace",
						"label": "bytes32",
						"numberOfBytes": "32"
					},
					"t_contract(ENS)148": {
						"encoding": "inplace",
						"label": "contract ENS",
						"numberOfBytes": "20"
					},
					"t_contract(IDAO)2980": {
						"encoding": "inplace",
						"label": "contract IDAO",
						"numberOfBytes": "20"
					},
					"t_uint256": {
						"encoding": "inplace",
						"label": "uint256",
						"numberOfBytes": "32"
					},
					"t_uint8": {
						"encoding": "inplace",
						"label": "uint8",
						"numberOfBytes": "1"
					}
				}
			},
			"userdoc": {
				"errors": {
					"AlreadyRegistered(bytes32,address)": [
						{
							"notice": "Thrown if the subnode is already registered."
						}
					],
					"DaoUnauthorized(address,address,address,bytes32)": [
						{
							"notice": "Thrown if a call is unauthorized in the associated DAO."
						}
					],
					"InvalidResolver(bytes32,address)": [
						{
							"notice": "Thrown if node's resolver is invalid."
						}
					]
				},
				"kind": "user",
				"methods": {
					"REGISTER_ENS_SUBDOMAIN_PERMISSION_ID()": {
						"notice": "The ID of the permission required to call the `registerSubnode` and `setDefaultResolver` function."
					},
					"UPGRADE_REGISTRAR_PERMISSION_ID()": {
						"notice": "The ID of the permission required to call the `_authorizeUpgrade` function."
					},
					"dao()": {
						"notice": "Returns the DAO contract."
					},
					"ens()": {
						"notice": "The ENS registry contract"
					},
					"initialize(address,address,bytes32)": {
						"notice": "Initializes the component by - checking that the contract is the domain node owner or an approved operator - initializing the underlying component - registering the [ERC-165](https://eips.ethereum.org/EIPS/eip-165) interface ID - setting the ENS contract, the domain node hash, and resolver."
					},
					"node()": {
						"notice": "The namehash of the domain on which subdomains are registered."
					},
					"protocolVersion()": {
						"notice": "Returns the semantic Aragon OSx protocol version number that the implementing contract is associated with."
					},
					"registerSubnode(bytes32,address)": {
						"notice": "Registers a new subdomain with this registrar as the owner and set the target address in the resolver."
					},
					"resolver()": {
						"notice": "The address of the ENS resolver resolving the names to an address."
					},
					"setDefaultResolver(address)": {
						"notice": "Sets the default resolver contract address that the subdomains being registered will use."
					}
				},
				"notice": "This contract registers ENS subdomains under a parent domain specified in the initialization process and maintains ownership of the subdomain since only the resolver address is set. This contract must either be the domain node owner or an approved operator of the node owner. The default resolver being used is the one specified in the parent domain.",
				"version": 1
			}
		}
	}
}