{
	"packages/contracts/src/framework/dao/DAORegistry_flattened.sol": {
		"ENSSubdomainRegistrar": {
			"abi": [
				{
					"inputs": [],
					"stateMutability": "nonpayable",
					"type": "constructor"
				},
				{
					"inputs": [
						{
							"internalType": "address",
							"name": "target",
							"type": "address"
						}
					],
					"name": "AddressEmptyCode",
					"type": "error"
				},
				{
					"inputs": [
						{
							"internalType": "bytes32",
							"name": "subnode",
							"type": "bytes32"
						},
						{
							"internalType": "address",
							"name": "nodeOwner",
							"type": "address"
						}
					],
					"name": "AlreadyRegistered",
					"type": "error"
				},
				{
					"inputs": [
						{
							"internalType": "address",
							"name": "dao",
							"type": "address"
						},
						{
							"internalType": "address",
							"name": "where",
							"type": "address"
						},
						{
							"internalType": "address",
							"name": "who",
							"type": "address"
						},
						{
							"internalType": "bytes32",
							"name": "permissionId",
							"type": "bytes32"
						}
					],
					"name": "DaoUnauthorized",
					"type": "error"
				},
				{
					"inputs": [
						{
							"internalType": "address",
							"name": "implementation",
							"type": "address"
						}
					],
					"name": "ERC1967InvalidImplementation",
					"type": "error"
				},
				{
					"inputs": [],
					"name": "ERC1967NonPayable",
					"type": "error"
				},
				{
					"inputs": [],
					"name": "FailedInnerCall",
					"type": "error"
				},
				{
					"inputs": [],
					"name": "InvalidInitialization",
					"type": "error"
				},
				{
					"inputs": [
						{
							"internalType": "bytes32",
							"name": "node",
							"type": "bytes32"
						},
						{
							"internalType": "address",
							"name": "resolver",
							"type": "address"
						}
					],
					"name": "InvalidResolver",
					"type": "error"
				},
				{
					"inputs": [],
					"name": "NotInitializing",
					"type": "error"
				},
				{
					"inputs": [],
					"name": "UUPSUnauthorizedCallContext",
					"type": "error"
				},
				{
					"inputs": [
						{
							"internalType": "bytes32",
							"name": "slot",
							"type": "bytes32"
						}
					],
					"name": "UUPSUnsupportedProxiableUUID",
					"type": "error"
				},
				{
					"anonymous": false,
					"inputs": [
						{
							"indexed": false,
							"internalType": "uint64",
							"name": "version",
							"type": "uint64"
						}
					],
					"name": "Initialized",
					"type": "event"
				},
				{
					"anonymous": false,
					"inputs": [
						{
							"indexed": true,
							"internalType": "address",
							"name": "implementation",
							"type": "address"
						}
					],
					"name": "Upgraded",
					"type": "event"
				},
				{
					"inputs": [],
					"name": "REGISTER_ENS_SUBDOMAIN_PERMISSION_ID",
					"outputs": [
						{
							"internalType": "bytes32",
							"name": "",
							"type": "bytes32"
						}
					],
					"stateMutability": "view",
					"type": "function"
				},
				{
					"inputs": [],
					"name": "UPGRADE_INTERFACE_VERSION",
					"outputs": [
						{
							"internalType": "string",
							"name": "",
							"type": "string"
						}
					],
					"stateMutability": "view",
					"type": "function"
				},
				{
					"inputs": [],
					"name": "UPGRADE_REGISTRAR_PERMISSION_ID",
					"outputs": [
						{
							"internalType": "bytes32",
							"name": "",
							"type": "bytes32"
						}
					],
					"stateMutability": "view",
					"type": "function"
				},
				{
					"inputs": [],
					"name": "dao",
					"outputs": [
						{
							"internalType": "contract IDAO",
							"name": "",
							"type": "address"
						}
					],
					"stateMutability": "view",
					"type": "function"
				},
				{
					"inputs": [],
					"name": "ens",
					"outputs": [
						{
							"internalType": "contract ENS",
							"name": "",
							"type": "address"
						}
					],
					"stateMutability": "view",
					"type": "function"
				},
				{
					"inputs": [
						{
							"internalType": "contract IDAO",
							"name": "_managingDao",
							"type": "address"
						},
						{
							"internalType": "contract ENS",
							"name": "_ens",
							"type": "address"
						},
						{
							"internalType": "bytes32",
							"name": "_node",
							"type": "bytes32"
						}
					],
					"name": "initialize",
					"outputs": [],
					"stateMutability": "nonpayable",
					"type": "function"
				},
				{
					"inputs": [],
					"name": "node",
					"outputs": [
						{
							"internalType": "bytes32",
							"name": "",
							"type": "bytes32"
						}
					],
					"stateMutability": "view",
					"type": "function"
				},
				{
					"inputs": [],
					"name": "protocolVersion",
					"outputs": [
						{
							"internalType": "uint8[3]",
							"name": "",
							"type": "uint8[3]"
						}
					],
					"stateMutability": "pure",
					"type": "function"
				},
				{
					"inputs": [],
					"name": "proxiableUUID",
					"outputs": [
						{
							"internalType": "bytes32",
							"name": "",
							"type": "bytes32"
						}
					],
					"stateMutability": "view",
					"type": "function"
				},
				{
					"inputs": [
						{
							"internalType": "bytes32",
							"name": "_label",
							"type": "bytes32"
						},
						{
							"internalType": "address",
							"name": "_targetAddress",
							"type": "address"
						}
					],
					"name": "registerSubnode",
					"outputs": [],
					"stateMutability": "nonpayable",
					"type": "function"
				},
				{
					"inputs": [],
					"name": "resolver",
					"outputs": [
						{
							"internalType": "address",
							"name": "",
							"type": "address"
						}
					],
					"stateMutability": "view",
					"type": "function"
				},
				{
					"inputs": [
						{
							"internalType": "address",
							"name": "_resolver",
							"type": "address"
						}
					],
					"name": "setDefaultResolver",
					"outputs": [],
					"stateMutability": "nonpayable",
					"type": "function"
				},
				{
					"inputs": [
						{
							"internalType": "address",
							"name": "newImplementation",
							"type": "address"
						},
						{
							"internalType": "bytes",
							"name": "data",
							"type": "bytes"
						}
					],
					"name": "upgradeToAndCall",
					"outputs": [],
					"stateMutability": "payable",
					"type": "function"
				}
			],
			"devdoc": {
				"author": "Aragon Association - 2022-2023",
				"custom:security-contact": "sirt@aragon.org",
				"errors": {
					"AddressEmptyCode(address)": [
						{
							"details": "There's no code at `target` (it is not a contract)."
						}
					],
					"AlreadyRegistered(bytes32,address)": [
						{
							"params": {
								"nodeOwner": "The node owner address.",
								"subnode": "The subnode namehash."
							}
						}
					],
					"DaoUnauthorized(address,address,address,bytes32)": [
						{
							"params": {
								"dao": "The associated DAO.",
								"permissionId": "The permission identifier.",
								"where": "The context in which the authorization reverted.",
								"who": "The address (EOA or contract) missing the permission."
							}
						}
					],
					"ERC1967InvalidImplementation(address)": [
						{
							"details": "The `implementation` of the proxy is invalid."
						}
					],
					"ERC1967NonPayable()": [
						{
							"details": "An upgrade function sees `msg.value > 0` that may be lost."
						}
					],
					"FailedInnerCall()": [
						{
							"details": "A call to an address target failed. The target may have reverted."
						}
					],
					"InvalidInitialization()": [
						{
							"details": "The contract is already initialized."
						}
					],
					"InvalidResolver(bytes32,address)": [
						{
							"params": {
								"node": "The node namehash.",
								"resolver": "The node resolver address."
							}
						}
					],
					"NotInitializing()": [
						{
							"details": "The contract is not initializing."
						}
					],
					"UUPSUnauthorizedCallContext()": [
						{
							"details": "The call is from an unauthorized context."
						}
					],
					"UUPSUnsupportedProxiableUUID(bytes32)": [
						{
							"details": "The storage `slot` is unsupported as a UUID."
						}
					]
				},
				"events": {
					"Initialized(uint64)": {
						"details": "Triggered when the contract has been initialized or reinitialized."
					},
					"Upgraded(address)": {
						"details": "Emitted when the implementation is upgraded."
					}
				},
				"kind": "dev",
				"methods": {
					"constructor": {
						"custom:oz-upgrades-unsafe-allow": "constructor",
						"details": "Used to disallow initializing the implementation contract by an attacker for extra safety."
					},
					"dao()": {
						"returns": {
							"_0": "The DAO contract."
						}
					},
					"initialize(address,address,bytes32)": {
						"params": {
							"_ens": "The interface of the ENS registry to be used.",
							"_managingDao": "The interface of the DAO managing the components permissions.",
							"_node": "The ENS parent domain node under which the subdomains are to be registered."
						}
					},
					"protocolVersion()": {
						"details": "This version number is not to be confused with the `release` and `build` numbers found in the `Version.Tag` struct inside the `PluginRepo` contract being used to version plugin setup and associated plugin implementation contracts.",
						"returns": {
							"_0": "Returns the semantic Aragon OSx protocol version number."
						}
					},
					"proxiableUUID()": {
						"details": "Implementation of the ERC1822 {proxiableUUID} function. This returns the storage slot used by the implementation. It is used to validate the implementation's compatibility when performing an upgrade. IMPORTANT: A proxy pointing at a proxiable contract should not be considered proxiable itself, because this risks bricking a proxy that upgrades to it, by delegating to itself until out of gas. Thus it is critical that this function revert if invoked through a proxy. This is guaranteed by the `notDelegated` modifier."
					},
					"registerSubnode(bytes32,address)": {
						"details": "It reverts with no message if this contract isn't the owner nor an approved operator for the given node.",
						"params": {
							"_label": "The labelhash of the subdomain name.",
							"_targetAddress": "The address to which the subdomain resolves."
						}
					},
					"setDefaultResolver(address)": {
						"params": {
							"_resolver": "The resolver contract to be used."
						}
					},
					"upgradeToAndCall(address,bytes)": {
						"custom:oz-upgrades-unsafe-allow-reachable": "delegatecall",
						"details": "Upgrade the implementation of the proxy to `newImplementation`, and subsequently execute the function call encoded in `data`. Calls {_authorizeUpgrade}. Emits an {Upgraded} event."
					}
				},
				"title": "ENSSubdomainRegistrar",
				"version": 1
			},
			"evm": {
				"assembly": "    /* \"packages/contracts/src/framework/dao/DAORegistry_flattened.sol\":69932:74535  contract ENSSubdomainRegistrar is UUPSUpgradeable, DaoAuthorizableUpgradeable, ProtocolVersion {... */\n  mstore(0x40, 0xa0)\n    /* \"packages/contracts/src/framework/dao/DAORegistry_flattened.sol\":36683:36687  this */\n  address\n    /* \"packages/contracts/src/framework/dao/DAORegistry_flattened.sol\":36640:36688  address private immutable __self = address(this) */\n  0x80\n  mstore\n    /* \"packages/contracts/src/framework/dao/DAORegistry_flattened.sol\":71341:71394  constructor() {... */\n  callvalue\n  dup1\n  iszero\n  tag_1\n  jumpi\n  0x00\n  dup1\n  revert\ntag_1:\n  pop\n    /* \"packages/contracts/src/framework/dao/DAORegistry_flattened.sol\":71365:71387  _disableInitializers() */\n  tag_4\n    /* \"packages/contracts/src/framework/dao/DAORegistry_flattened.sol\":71365:71385  _disableInitializers */\n  tag_5\n    /* \"packages/contracts/src/framework/dao/DAORegistry_flattened.sol\":71365:71387  _disableInitializers() */\n  jump\t// in\ntag_4:\n    /* \"packages/contracts/src/framework/dao/DAORegistry_flattened.sol\":69932:74535  contract ENSSubdomainRegistrar is UUPSUpgradeable, DaoAuthorizableUpgradeable, ProtocolVersion {... */\n  jump(tag_15)\n    /* \"packages/contracts/src/framework/dao/DAORegistry_flattened.sol\":15152:15574  function _disableInitializers() internal virtual {... */\ntag_5:\n    /* \"packages/contracts/src/framework/dao/DAORegistry_flattened.sol\":16311:16332  INITIALIZABLE_STORAGE */\n  0xf0c57e16840df040f15088dc2f81fe391c3923bec73e23a9662efc9c229c6a00\n    /* \"packages/contracts/src/framework/dao/DAORegistry_flattened.sol\":15341:15356  $._initializing */\n  dup1\n  sload\n  0x010000000000000000\n  swap1\n  div\n  0xff\n  and\n    /* \"packages/contracts/src/framework/dao/DAORegistry_flattened.sol\":15337:15413  if ($._initializing) {... */\n  iszero\n  tag_10\n  jumpi\n    /* \"packages/contracts/src/framework/dao/DAORegistry_flattened.sol\":15379:15402  InvalidInitialization() */\n  mload(0x40)\n  shl(0xe0, 0xf92ee8a9)\n  dup2\n  mstore\n  0x04\n  add\n  mload(0x40)\n  dup1\n  swap2\n  sub\n  swap1\n  revert\n    /* \"packages/contracts/src/framework/dao/DAORegistry_flattened.sol\":15337:15413  if ($._initializing) {... */\ntag_10:\n    /* \"packages/contracts/src/framework/dao/DAORegistry_flattened.sol\":15426:15440  $._initialized */\n  dup1\n  sload\n  sub(shl(0x40, 0x01), 0x01)\n  swap1\n  dup2\n  and\n    /* \"packages/contracts/src/framework/dao/DAORegistry_flattened.sol\":15426:15460  $._initialized != type(uint64).max */\n  eq\n    /* \"packages/contracts/src/framework/dao/DAORegistry_flattened.sol\":15422:15568  if ($._initialized != type(uint64).max) {... */\n  tag_11\n  jumpi\n    /* \"packages/contracts/src/framework/dao/DAORegistry_flattened.sol\":15476:15509  $._initialized = type(uint64).max */\n  dup1\n  sload\n  not(sub(shl(0x40, 0x01), 0x01))\n  and\n  sub(shl(0x40, 0x01), 0x01)\n  swap1\n  dup2\n  or\n  dup3\n  sstore\n    /* \"packages/contracts/src/framework/dao/DAORegistry_flattened.sol\":15528:15557  Initialized(type(uint64).max) */\n  mload(0x40)\n    /* \"#utility.yul\":158:208   */\n  swap1\n  dup2\n  mstore\n    /* \"packages/contracts/src/framework/dao/DAORegistry_flattened.sol\":15528:15557  Initialized(type(uint64).max) */\n  0xc7f505b2f371ae2175ee4913f4499e1f2633a7b5936321eed1cdaeb6115181d2\n  swap1\n    /* \"#utility.yul\":146:148   */\n  0x20\n    /* \"#utility.yul\":131:149   */\n  add\n    /* \"packages/contracts/src/framework/dao/DAORegistry_flattened.sol\":15528:15557  Initialized(type(uint64).max) */\n  mload(0x40)\n  dup1\n  swap2\n  sub\n  swap1\n  log1\n    /* \"packages/contracts/src/framework/dao/DAORegistry_flattened.sol\":15422:15568  if ($._initialized != type(uint64).max) {... */\ntag_11:\n    /* \"packages/contracts/src/framework/dao/DAORegistry_flattened.sol\":15201:15574  {... */\n  pop\n    /* \"packages/contracts/src/framework/dao/DAORegistry_flattened.sol\":15152:15574  function _disableInitializers() internal virtual {... */\n  jump\t// out\n    /* \"#utility.yul\":14:214   */\ntag_15:\n    /* \"packages/contracts/src/framework/dao/DAORegistry_flattened.sol\":69932:74535  contract ENSSubdomainRegistrar is UUPSUpgradeable, DaoAuthorizableUpgradeable, ProtocolVersion {... */\n  mload(0x80)\n  codecopy(0x00, dataOffset(sub_0), dataSize(sub_0))\n  0x00\n  assignImmutable(\"0x2fce2f62d6f46468ed5b062b6cc3dadc7ef967582d813b597a7719ed541e91d0\")\n  return(0x00, dataSize(sub_0))\nstop\n\nsub_0: assembly {\n        /* \"packages/contracts/src/framework/dao/DAORegistry_flattened.sol\":69932:74535  contract ENSSubdomainRegistrar is UUPSUpgradeable, DaoAuthorizableUpgradeable, ProtocolVersion {... */\n      mstore(0x40, 0x80)\n      jumpi(tag_1, lt(calldatasize, 0x04))\n      shr(0xe0, calldataload(0x00))\n      dup1\n      0x6133f985\n      gt\n      tag_15\n      jumpi\n      dup1\n      0xad3cb1cc\n      gt\n      tag_16\n      jumpi\n      dup1\n      0xad3cb1cc\n      eq\n      tag_11\n      jumpi\n      dup1\n      0xaf7b2fed\n      eq\n      tag_12\n      jumpi\n      dup1\n      0xc66485b2\n      eq\n      tag_13\n      jumpi\n      dup1\n      0xd70754ec\n      eq\n      tag_14\n      jumpi\n      0x00\n      dup1\n      revert\n    tag_16:\n      dup1\n      0x6133f985\n      eq\n      tag_8\n      jumpi\n      dup1\n      0x89bb4145\n      eq\n      tag_9\n      jumpi\n      dup1\n      0x9848ba51\n      eq\n      tag_10\n      jumpi\n      0x00\n      dup1\n      revert\n    tag_15:\n      dup1\n      0x04f3bcec\n      eq\n      tag_2\n      jumpi\n      dup1\n      0x2ae9c600\n      eq\n      tag_3\n      jumpi\n      dup1\n      0x3f15457f\n      eq\n      tag_4\n      jumpi\n      dup1\n      0x4162169f\n      eq\n      tag_5\n      jumpi\n      dup1\n      0x4f1ef286\n      eq\n      tag_6\n      jumpi\n      dup1\n      0x52d1902d\n      eq\n      tag_7\n      jumpi\n    tag_1:\n      0x00\n      dup1\n      revert\n        /* \"packages/contracts/src/framework/dao/DAORegistry_flattened.sol\":70729:70752  address public resolver */\n    tag_2:\n      callvalue\n      dup1\n      iszero\n      tag_17\n      jumpi\n      0x00\n      dup1\n      revert\n    tag_17:\n      pop\n      sload(0x34)\n      tag_18\n      swap1\n      sub(shl(0xa0, 0x01), 0x01)\n      and\n      dup2\n      jump\n    tag_18:\n      mload(0x40)\n      sub(shl(0xa0, 0x01), 0x01)\n        /* \"#utility.yul\":178:210   */\n      swap1\n      swap2\n      and\n        /* \"#utility.yul\":160:211   */\n      dup2\n      mstore\n        /* \"#utility.yul\":148:150   */\n      0x20\n        /* \"#utility.yul\":133:151   */\n      add\n        /* \"packages/contracts/src/framework/dao/DAORegistry_flattened.sol\":70729:70752  address public resolver */\n    tag_20:\n      mload(0x40)\n      dup1\n      swap2\n      sub\n      swap1\n      return\n        /* \"packages/contracts/src/framework/dao/DAORegistry_flattened.sol\":69234:69332  function protocolVersion() public pure returns (uint8[3] memory) {... */\n    tag_3:\n      callvalue\n      dup1\n      iszero\n      tag_22\n      jumpi\n      0x00\n      dup1\n      revert\n    tag_22:\n      pop\n      tag_23\n      tag_24\n      jump\t// in\n    tag_23:\n      mload(0x40)\n      tag_20\n      swap2\n      swap1\n      tag_26\n      jump\t// in\n        /* \"packages/contracts/src/framework/dao/DAORegistry_flattened.sol\":70520:70534  ENS public ens */\n    tag_4:\n      callvalue\n      dup1\n      iszero\n      tag_27\n      jumpi\n      0x00\n      dup1\n      revert\n    tag_27:\n      pop\n      sload(0x32)\n      tag_18\n      swap1\n      sub(shl(0xa0, 0x01), 0x01)\n      and\n      dup2\n      jump\n        /* \"packages/contracts/src/framework/dao/DAORegistry_flattened.sol\":63273:63343  function dao() public view returns (IDAO) {... */\n    tag_5:\n      callvalue\n      dup1\n      iszero\n      tag_32\n      jumpi\n      0x00\n      dup1\n      revert\n    tag_32:\n      pop\n        /* \"packages/contracts/src/framework/dao/DAORegistry_flattened.sol\":63309:63313  IDAO */\n      0x00\n        /* \"packages/contracts/src/framework/dao/DAORegistry_flattened.sol\":63332:63336  dao_ */\n      sload\n      sub(shl(0xa0, 0x01), 0x01)\n      and\n        /* \"packages/contracts/src/framework/dao/DAORegistry_flattened.sol\":63273:63343  function dao() public view returns (IDAO) {... */\n      jump(tag_18)\n        /* \"packages/contracts/src/framework/dao/DAORegistry_flattened.sol\":39670:39884  function upgradeToAndCall(address newImplementation, bytes memory data) public payable virtual onlyProxy {... */\n    tag_6:\n      tag_37\n      tag_38\n      calldatasize\n      0x04\n      tag_39\n      jump\t// in\n    tag_38:\n      tag_40\n      jump\t// in\n    tag_37:\n      stop\n        /* \"packages/contracts/src/framework/dao/DAORegistry_flattened.sol\":39217:39351  function proxiableUUID() external view virtual notDelegated returns (bytes32) {... */\n    tag_7:\n      callvalue\n      dup1\n      iszero\n      tag_41\n      jumpi\n      0x00\n      dup1\n      revert\n    tag_41:\n      pop\n      tag_42\n      tag_43\n      jump\t// in\n    tag_42:\n      mload(0x40)\n        /* \"#utility.yul\":2644:2669   */\n      swap1\n      dup2\n      mstore\n        /* \"#utility.yul\":2632:2634   */\n      0x20\n        /* \"#utility.yul\":2617:2635   */\n      add\n        /* \"packages/contracts/src/framework/dao/DAORegistry_flattened.sol\":39217:39351  function proxiableUUID() external view virtual notDelegated returns (bytes32) {... */\n      tag_20\n        /* \"#utility.yul\":2498:2675   */\n      jump\n        /* \"packages/contracts/src/framework/dao/DAORegistry_flattened.sol\":71993:72400  function initialize(IDAO _managingDao, ENS _ens, bytes32 _node) external initializer {... */\n    tag_8:\n      callvalue\n      dup1\n      iszero\n      tag_46\n      jumpi\n      0x00\n      dup1\n      revert\n    tag_46:\n      pop\n      tag_37\n      tag_48\n      calldatasize\n      0x04\n      tag_49\n      jump\t// in\n    tag_48:\n      tag_50\n      jump\t// in\n        /* \"packages/contracts/src/framework/dao/DAORegistry_flattened.sol\":73237:73781  function registerSubnode(... */\n    tag_9:\n      callvalue\n      dup1\n      iszero\n      tag_51\n      jumpi\n      0x00\n      dup1\n      revert\n    tag_51:\n      pop\n      tag_37\n      tag_53\n      calldatasize\n      0x04\n      tag_54\n      jump\t// in\n    tag_53:\n      tag_55\n      jump\t// in\n        /* \"packages/contracts/src/framework/dao/DAORegistry_flattened.sol\":70354:70471  bytes32 public constant REGISTER_ENS_SUBDOMAIN_PERMISSION_ID =... */\n    tag_10:\n      callvalue\n      dup1\n      iszero\n      tag_56\n      jumpi\n      0x00\n      dup1\n      revert\n    tag_56:\n      pop\n      tag_42\n        /* \"packages/contracts/src/framework/dao/DAORegistry_flattened.sol\":70425:70471  keccak256(\"REGISTER_ENS_SUBDOMAIN_PERMISSION\") */\n      0xbbdfd23f099d7ed9f535e0f97d2123efb1332b16e023b8359b3b879eaecd3c14\n        /* \"packages/contracts/src/framework/dao/DAORegistry_flattened.sol\":70354:70471  bytes32 public constant REGISTER_ENS_SUBDOMAIN_PERMISSION_ID =... */\n      dup2\n      jump\n        /* \"packages/contracts/src/framework/dao/DAORegistry_flattened.sol\":37331:37389  string public constant UPGRADE_INTERFACE_VERSION = \"5.0.0\" */\n    tag_11:\n      callvalue\n      dup1\n      iszero\n      tag_60\n      jumpi\n      0x00\n      dup1\n      revert\n    tag_60:\n      pop\n      tag_61\n      mload(0x40)\n      dup1\n      0x40\n      add\n      0x40\n      mstore\n      dup1\n      0x05\n      dup2\n      mstore\n      0x20\n      add\n      shl(0xdc, 0x0352e302e3)\n      dup2\n      mstore\n      pop\n      dup2\n      jump\n    tag_61:\n      mload(0x40)\n      tag_20\n      swap2\n      swap1\n      tag_64\n      jump\t// in\n        /* \"packages/contracts/src/framework/dao/DAORegistry_flattened.sol\":70125:70232  bytes32 public constant UPGRADE_REGISTRAR_PERMISSION_ID =... */\n    tag_12:\n      callvalue\n      dup1\n      iszero\n      tag_65\n      jumpi\n      0x00\n      dup1\n      revert\n    tag_65:\n      pop\n      tag_42\n        /* \"packages/contracts/src/framework/dao/DAORegistry_flattened.sol\":70191:70232  keccak256(\"UPGRADE_REGISTRAR_PERMISSION\") */\n      0xa1fcba4efb1e94b7648f5e0504bfd39734aead5f17965d12705915d771c859ff\n        /* \"packages/contracts/src/framework/dao/DAORegistry_flattened.sol\":70125:70232  bytes32 public constant UPGRADE_REGISTRAR_PERMISSION_ID =... */\n      dup2\n      jump\n        /* \"packages/contracts/src/framework/dao/DAORegistry_flattened.sol\":73952:74223  function setDefaultResolver(... */\n    tag_13:\n      callvalue\n      dup1\n      iszero\n      tag_69\n      jumpi\n      0x00\n      dup1\n      revert\n    tag_69:\n      pop\n      tag_37\n      tag_71\n      calldatasize\n      0x04\n      tag_72\n      jump\t// in\n    tag_71:\n      tag_73\n      jump\t// in\n        /* \"packages/contracts/src/framework/dao/DAORegistry_flattened.sol\":70620:70639  bytes32 public node */\n    tag_14:\n      callvalue\n      dup1\n      iszero\n      tag_74\n      jumpi\n      0x00\n      dup1\n      revert\n    tag_74:\n      pop\n      tag_42\n      sload(0x33)\n      dup2\n      jump\n        /* \"packages/contracts/src/framework/dao/DAORegistry_flattened.sol\":69234:69332  function protocolVersion() public pure returns (uint8[3] memory) {... */\n    tag_24:\n        /* \"packages/contracts/src/framework/dao/DAORegistry_flattened.sol\":69282:69297  uint8[3] memory */\n      tag_78\n      tag_79\n      jump\t// in\n    tag_78:\n      pop\n        /* \"packages/contracts/src/framework/dao/DAORegistry_flattened.sol\":69309:69325  return [1, 4, 0] */\n      0x40\n      dup1\n      mload\n      0x60\n      dup2\n      add\n      dup3\n      mstore\n        /* \"packages/contracts/src/framework/dao/DAORegistry_flattened.sol\":69317:69318  1 */\n      0x01\n        /* \"packages/contracts/src/framework/dao/DAORegistry_flattened.sol\":69309:69325  return [1, 4, 0] */\n      dup2\n      mstore\n        /* \"packages/contracts/src/framework/dao/DAORegistry_flattened.sol\":69320:69321  4 */\n      0x04\n        /* \"packages/contracts/src/framework/dao/DAORegistry_flattened.sol\":69309:69325  return [1, 4, 0] */\n      0x20\n      dup3\n      add\n      mstore\n      0x00\n      swap2\n      dup2\n      add\n      swap2\n      swap1\n      swap2\n      mstore\n      swap1\n        /* \"packages/contracts/src/framework/dao/DAORegistry_flattened.sol\":69234:69332  function protocolVersion() public pure returns (uint8[3] memory) {... */\n      jump\t// out\n        /* \"packages/contracts/src/framework/dao/DAORegistry_flattened.sol\":39670:39884  function upgradeToAndCall(address newImplementation, bytes memory data) public payable virtual onlyProxy {... */\n    tag_40:\n        /* \"packages/contracts/src/framework/dao/DAORegistry_flattened.sol\":38165:38178  _checkProxy() */\n      tag_83\n        /* \"packages/contracts/src/framework/dao/DAORegistry_flattened.sol\":38165:38176  _checkProxy */\n      tag_84\n        /* \"packages/contracts/src/framework/dao/DAORegistry_flattened.sol\":38165:38178  _checkProxy() */\n      jump\t// in\n    tag_83:\n        /* \"packages/contracts/src/framework/dao/DAORegistry_flattened.sol\":39785:39821  _authorizeUpgrade(newImplementation) */\n      tag_86\n        /* \"packages/contracts/src/framework/dao/DAORegistry_flattened.sol\":39803:39820  newImplementation */\n      dup3\n        /* \"packages/contracts/src/framework/dao/DAORegistry_flattened.sol\":39785:39802  _authorizeUpgrade */\n      tag_87\n        /* \"packages/contracts/src/framework/dao/DAORegistry_flattened.sol\":39785:39821  _authorizeUpgrade(newImplementation) */\n      jump\t// in\n    tag_86:\n        /* \"packages/contracts/src/framework/dao/DAORegistry_flattened.sol\":39831:39877  _upgradeToAndCallUUPS(newImplementation, data) */\n      tag_88\n        /* \"packages/contracts/src/framework/dao/DAORegistry_flattened.sol\":39853:39870  newImplementation */\n      dup3\n        /* \"packages/contracts/src/framework/dao/DAORegistry_flattened.sol\":39872:39876  data */\n      dup3\n        /* \"packages/contracts/src/framework/dao/DAORegistry_flattened.sol\":39831:39852  _upgradeToAndCallUUPS */\n      tag_89\n        /* \"packages/contracts/src/framework/dao/DAORegistry_flattened.sol\":39831:39877  _upgradeToAndCallUUPS(newImplementation, data) */\n      jump\t// in\n    tag_88:\n        /* \"packages/contracts/src/framework/dao/DAORegistry_flattened.sol\":39670:39884  function upgradeToAndCall(address newImplementation, bytes memory data) public payable virtual onlyProxy {... */\n      pop\n      pop\n      jump\t// out\n        /* \"packages/contracts/src/framework/dao/DAORegistry_flattened.sol\":39217:39351  function proxiableUUID() external view virtual notDelegated returns (bytes32) {... */\n    tag_43:\n        /* \"packages/contracts/src/framework/dao/DAORegistry_flattened.sol\":39286:39293  bytes32 */\n      0x00\n        /* \"packages/contracts/src/framework/dao/DAORegistry_flattened.sol\":38436:38456  _checkNotDelegated() */\n      tag_91\n        /* \"packages/contracts/src/framework/dao/DAORegistry_flattened.sol\":38436:38454  _checkNotDelegated */\n      tag_92\n        /* \"packages/contracts/src/framework/dao/DAORegistry_flattened.sol\":38436:38456  _checkNotDelegated() */\n      jump\t// in\n    tag_91:\n      pop\n      0x00\n      dup1\n      mload\n      0x20\n      data_75b20eef8615de99c108b05f0dbda081c91897128caa336d75dffb97c4132b4d\n      dup4\n      codecopy\n      dup2\n      mload\n      swap2\n      mstore\n        /* \"packages/contracts/src/framework/dao/DAORegistry_flattened.sol\":39217:39351  function proxiableUUID() external view virtual notDelegated returns (bytes32) {... */\n      swap1\n      jump\t// out\n        /* \"packages/contracts/src/framework/dao/DAORegistry_flattened.sol\":71993:72400  function initialize(IDAO _managingDao, ENS _ens, bytes32 _node) external initializer {... */\n    tag_50:\n        /* \"packages/contracts/src/framework/dao/DAORegistry_flattened.sol\":16311:16332  INITIALIZABLE_STORAGE */\n      0xf0c57e16840df040f15088dc2f81fe391c3923bec73e23a9662efc9c229c6a00\n        /* \"packages/contracts/src/framework/dao/DAORegistry_flattened.sol\":11743:11758  $._initializing */\n      dup1\n      sload\n      shl(0x40, 0x01)\n      dup2\n      div\n      0xff\n      and\n        /* \"packages/contracts/src/framework/dao/DAORegistry_flattened.sol\":11742:11758  !$._initializing */\n      iszero\n      swap1\n        /* \"packages/contracts/src/framework/dao/DAORegistry_flattened.sol\":11789:11803  $._initialized */\n      0xffffffffffffffff\n      and\n        /* \"packages/contracts/src/framework/dao/DAORegistry_flattened.sol\":11599:11629  InitializableStorage storage $ */\n      0x00\n        /* \"packages/contracts/src/framework/dao/DAORegistry_flattened.sol\":12167:12183  initialized == 0 */\n      dup2\n      iszero\n        /* \"packages/contracts/src/framework/dao/DAORegistry_flattened.sol\":12167:12201  initialized == 0 && isTopLevelCall */\n      dup1\n      iszero\n      tag_97\n      jumpi\n      pop\n        /* \"packages/contracts/src/framework/dao/DAORegistry_flattened.sol\":12187:12201  isTopLevelCall */\n      dup3\n        /* \"packages/contracts/src/framework/dao/DAORegistry_flattened.sol\":12167:12201  initialized == 0 && isTopLevelCall */\n    tag_97:\n        /* \"packages/contracts/src/framework/dao/DAORegistry_flattened.sol\":12147:12201  bool initialSetup = initialized == 0 && isTopLevelCall */\n      swap1\n      pop\n        /* \"packages/contracts/src/framework/dao/DAORegistry_flattened.sol\":12211:12228  bool construction */\n      0x00\n        /* \"packages/contracts/src/framework/dao/DAORegistry_flattened.sol\":12231:12242  initialized */\n      dup3\n        /* \"packages/contracts/src/framework/dao/DAORegistry_flattened.sol\":12231:12247  initialized == 1 */\n      0xffffffffffffffff\n      and\n        /* \"packages/contracts/src/framework/dao/DAORegistry_flattened.sol\":12246:12247  1 */\n      0x01\n        /* \"packages/contracts/src/framework/dao/DAORegistry_flattened.sol\":12231:12247  initialized == 1 */\n      eq\n        /* \"packages/contracts/src/framework/dao/DAORegistry_flattened.sol\":12231:12281  initialized == 1 && address(this).code.length == 0 */\n      dup1\n      iszero\n      tag_98\n      jumpi\n      pop\n        /* \"packages/contracts/src/framework/dao/DAORegistry_flattened.sol\":12259:12263  this */\n      address\n        /* \"packages/contracts/src/framework/dao/DAORegistry_flattened.sol\":12251:12276  address(this).code.length */\n      extcodesize\n        /* \"packages/contracts/src/framework/dao/DAORegistry_flattened.sol\":12251:12281  address(this).code.length == 0 */\n      iszero\n        /* \"packages/contracts/src/framework/dao/DAORegistry_flattened.sol\":12231:12281  initialized == 1 && address(this).code.length == 0 */\n    tag_98:\n        /* \"packages/contracts/src/framework/dao/DAORegistry_flattened.sol\":12211:12281  bool construction = initialized == 1 && address(this).code.length == 0 */\n      swap1\n      pop\n        /* \"packages/contracts/src/framework/dao/DAORegistry_flattened.sol\":12297:12309  initialSetup */\n      dup2\n        /* \"packages/contracts/src/framework/dao/DAORegistry_flattened.sol\":12296:12309  !initialSetup */\n      iszero\n        /* \"packages/contracts/src/framework/dao/DAORegistry_flattened.sol\":12296:12326  !initialSetup && !construction */\n      dup1\n      iszero\n      tag_99\n      jumpi\n      pop\n        /* \"packages/contracts/src/framework/dao/DAORegistry_flattened.sol\":12314:12326  construction */\n      dup1\n        /* \"packages/contracts/src/framework/dao/DAORegistry_flattened.sol\":12313:12326  !construction */\n      iszero\n        /* \"packages/contracts/src/framework/dao/DAORegistry_flattened.sol\":12296:12326  !initialSetup && !construction */\n    tag_99:\n        /* \"packages/contracts/src/framework/dao/DAORegistry_flattened.sol\":12292:12383  if (!initialSetup && !construction) {... */\n      iszero\n      tag_100\n      jumpi\n        /* \"packages/contracts/src/framework/dao/DAORegistry_flattened.sol\":12349:12372  InvalidInitialization() */\n      mload(0x40)\n      shl(0xe0, 0xf92ee8a9)\n      dup2\n      mstore\n      0x04\n      add\n      mload(0x40)\n      dup1\n      swap2\n      sub\n      swap1\n      revert\n        /* \"packages/contracts/src/framework/dao/DAORegistry_flattened.sol\":12292:12383  if (!initialSetup && !construction) {... */\n    tag_100:\n        /* \"packages/contracts/src/framework/dao/DAORegistry_flattened.sol\":12392:12410  $._initialized = 1 */\n      dup5\n      sload\n      not(0xffffffffffffffff)\n      and\n        /* \"packages/contracts/src/framework/dao/DAORegistry_flattened.sol\":12409:12410  1 */\n      0x01\n        /* \"packages/contracts/src/framework/dao/DAORegistry_flattened.sol\":12392:12410  $._initialized = 1 */\n      or\n      dup6\n      sstore\n        /* \"packages/contracts/src/framework/dao/DAORegistry_flattened.sol\":12420:12487  if (isTopLevelCall) {... */\n      dup4\n      iszero\n      tag_101\n      jumpi\n        /* \"packages/contracts/src/framework/dao/DAORegistry_flattened.sol\":12454:12476  $._initializing = true */\n      dup5\n      sload\n      not(shl(0x40, 0xff))\n      and\n      shl(0x40, 0x01)\n      or\n      dup6\n      sstore\n        /* \"packages/contracts/src/framework/dao/DAORegistry_flattened.sol\":12420:12487  if (isTopLevelCall) {... */\n    tag_101:\n        /* \"packages/contracts/src/framework/dao/DAORegistry_flattened.sol\":72088:72135  __DaoAuthorizableUpgradeable_init(_managingDao) */\n      tag_103\n        /* \"packages/contracts/src/framework/dao/DAORegistry_flattened.sol\":72122:72134  _managingDao */\n      dup9\n        /* \"packages/contracts/src/framework/dao/DAORegistry_flattened.sol\":72088:72121  __DaoAuthorizableUpgradeable_init */\n      tag_104\n        /* \"packages/contracts/src/framework/dao/DAORegistry_flattened.sol\":72088:72135  __DaoAuthorizableUpgradeable_init(_managingDao) */\n      jump\t// in\n    tag_103:\n        /* \"packages/contracts/src/framework/dao/DAORegistry_flattened.sol\":72146:72149  ens */\n      0x32\n        /* \"packages/contracts/src/framework/dao/DAORegistry_flattened.sol\":72146:72156  ens = _ens */\n      dup1\n      sload\n      not(sub(shl(0xa0, 0x01), 0x01))\n      and\n      sub(shl(0xa0, 0x01), 0x01)\n      dup10\n      and\n      swap1\n      dup2\n      or\n      swap1\n      swap2\n      sstore\n        /* \"packages/contracts/src/framework/dao/DAORegistry_flattened.sol\":72166:72170  node */\n      0x33\n        /* \"packages/contracts/src/framework/dao/DAORegistry_flattened.sol\":72166:72178  node = _node */\n      dup8\n      swap1\n      sstore\n        /* \"packages/contracts/src/framework/dao/DAORegistry_flattened.sol\":72212:72231  ens.resolver(_node) */\n      mload(0x40)\n      shl(0xe0, 0x0178b8bf)\n      dup2\n      mstore\n      0x04\n      dup2\n      add\n        /* \"#utility.yul\":2644:2669   */\n      dup9\n      swap1\n      mstore\n      0x00\n      swap2\n        /* \"packages/contracts/src/framework/dao/DAORegistry_flattened.sol\":72146:72156  ens = _ens */\n      swap1\n        /* \"packages/contracts/src/framework/dao/DAORegistry_flattened.sol\":72212:72224  ens.resolver */\n      0x0178b8bf\n      swap1\n        /* \"#utility.yul\":2617:2635   */\n      0x24\n      add\n        /* \"packages/contracts/src/framework/dao/DAORegistry_flattened.sol\":72212:72231  ens.resolver(_node) */\n      0x20\n      mload(0x40)\n      dup1\n      dup4\n      sub\n      dup2\n      dup7\n      gas\n      staticcall\n      iszero\n      dup1\n      iszero\n      tag_107\n      jumpi\n      returndatasize\n      0x00\n      dup1\n      returndatacopy\n      revert(0x00, returndatasize)\n    tag_107:\n      pop\n      pop\n      pop\n      pop\n      mload(0x40)\n      returndatasize\n      not(0x1f)\n      0x1f\n      dup3\n      add\n      and\n      dup3\n      add\n      dup1\n      0x40\n      mstore\n      pop\n      dup2\n      add\n      swap1\n      tag_108\n      swap2\n      swap1\n      tag_109\n      jump\t// in\n    tag_108:\n        /* \"packages/contracts/src/framework/dao/DAORegistry_flattened.sol\":72189:72231  address nodeResolver = ens.resolver(_node) */\n      swap1\n      pop\n      sub(shl(0xa0, 0x01), 0x01)\n        /* \"packages/contracts/src/framework/dao/DAORegistry_flattened.sol\":72246:72272  nodeResolver == address(0) */\n      dup2\n      and\n        /* \"packages/contracts/src/framework/dao/DAORegistry_flattened.sol\":72242:72360  if (nodeResolver == address(0)) {... */\n      tag_110\n      jumpi\n        /* \"packages/contracts/src/framework/dao/DAORegistry_flattened.sol\":72295:72349  InvalidResolver({node: _node, resolver: nodeResolver}) */\n      mload(0x40)\n      shl(0xe1, 0x0d7097c5)\n      dup2\n      mstore\n      0x04\n      dup2\n      add\n        /* \"#utility.yul\":4824:4849   */\n      dup9\n      swap1\n      mstore\n      sub(shl(0xa0, 0x01), 0x01)\n        /* \"#utility.yul\":4885:4917   */\n      dup3\n      and\n        /* \"#utility.yul\":4865:4883   */\n      0x24\n      dup3\n      add\n        /* \"#utility.yul\":4858:4918   */\n      mstore\n        /* \"#utility.yul\":4797:4815   */\n      0x44\n      add\n        /* \"packages/contracts/src/framework/dao/DAORegistry_flattened.sol\":72295:72349  InvalidResolver({node: _node, resolver: nodeResolver}) */\n    tag_111:\n      mload(0x40)\n      dup1\n      swap2\n      sub\n      swap1\n      revert\n        /* \"packages/contracts/src/framework/dao/DAORegistry_flattened.sol\":72242:72360  if (nodeResolver == address(0)) {... */\n    tag_110:\n        /* \"packages/contracts/src/framework/dao/DAORegistry_flattened.sol\":72370:72378  resolver */\n      0x34\n        /* \"packages/contracts/src/framework/dao/DAORegistry_flattened.sol\":72370:72393  resolver = nodeResolver */\n      dup1\n      sload\n      not(sub(shl(0xa0, 0x01), 0x01))\n      and\n      sub(shl(0xa0, 0x01), 0x01)\n      swap3\n      swap1\n      swap3\n      and\n      swap2\n      swap1\n      swap2\n      or\n      swap1\n      sstore\n        /* \"packages/contracts/src/framework/dao/DAORegistry_flattened.sol\":12507:12608  if (isTopLevelCall) {... */\n      dup4\n      iszero\n      tag_113\n      jumpi\n        /* \"packages/contracts/src/framework/dao/DAORegistry_flattened.sol\":12541:12564  $._initializing = false */\n      dup5\n      sload\n      not(shl(0x40, 0xff))\n      and\n      dup6\n      sstore\n        /* \"packages/contracts/src/framework/dao/DAORegistry_flattened.sol\":12583:12597  Initialized(1) */\n      mload(0x40)\n      0x01\n        /* \"#utility.yul\":5082:5132   */\n      dup2\n      mstore\n        /* \"packages/contracts/src/framework/dao/DAORegistry_flattened.sol\":12583:12597  Initialized(1) */\n      0xc7f505b2f371ae2175ee4913f4499e1f2633a7b5936321eed1cdaeb6115181d2\n      swap1\n        /* \"#utility.yul\":5070:5072   */\n      0x20\n        /* \"#utility.yul\":5055:5073   */\n      add\n        /* \"packages/contracts/src/framework/dao/DAORegistry_flattened.sol\":12583:12597  Initialized(1) */\n      mload(0x40)\n      dup1\n      swap2\n      sub\n      swap1\n      log1\n        /* \"packages/contracts/src/framework/dao/DAORegistry_flattened.sol\":12507:12608  if (isTopLevelCall) {... */\n    tag_113:\n        /* \"packages/contracts/src/framework/dao/DAORegistry_flattened.sol\":11533:12614  {... */\n      pop\n      pop\n      pop\n      pop\n      pop\n        /* \"packages/contracts/src/framework/dao/DAORegistry_flattened.sol\":71993:72400  function initialize(IDAO _managingDao, ENS _ens, bytes32 _node) external initializer {... */\n      pop\n      pop\n      pop\n      jump\t// out\n        /* \"packages/contracts/src/framework/dao/DAORegistry_flattened.sol\":73237:73781  function registerSubnode(... */\n    tag_55:\n        /* \"packages/contracts/src/framework/dao/DAORegistry_flattened.sol\":63689:63693  dao_ */\n      sload(0x00)\n        /* \"packages/contracts/src/framework/dao/DAORegistry_flattened.sol\":70425:70471  keccak256(\"REGISTER_ENS_SUBDOMAIN_PERMISSION\") */\n      0xbbdfd23f099d7ed9f535e0f97d2123efb1332b16e023b8359b3b879eaecd3c14\n      swap1\n        /* \"packages/contracts/src/framework/dao/DAORegistry_flattened.sol\":63683:63750  _auth(dao_, address(this), _msgSender(), _permissionId, _msgData()) */\n      tag_117\n      swap1\n      sub(shl(0xa0, 0x01), 0x01)\n        /* \"packages/contracts/src/framework/dao/DAORegistry_flattened.sol\":63689:63693  dao_ */\n      and\n        /* \"packages/contracts/src/framework/dao/DAORegistry_flattened.sol\":63703:63707  this */\n      address\n        /* \"packages/contracts/src/framework/dao/DAORegistry_flattened.sol\":17299:17309  msg.sender */\n      caller\n        /* \"packages/contracts/src/framework/dao/DAORegistry_flattened.sol\":63710:63722  _msgSender() */\n    tag_118:\n        /* \"packages/contracts/src/framework/dao/DAORegistry_flattened.sol\":63724:63737  _permissionId */\n      dup5\n        /* \"packages/contracts/src/framework/dao/DAORegistry_flattened.sol\":17373:17387  bytes calldata */\n      0x00\n      calldatasize\n        /* \"packages/contracts/src/framework/dao/DAORegistry_flattened.sol\":63683:63688  _auth */\n      tag_122\n        /* \"packages/contracts/src/framework/dao/DAORegistry_flattened.sol\":63683:63750  _auth(dao_, address(this), _msgSender(), _permissionId, _msgData()) */\n      jump\t// in\n    tag_117:\n        /* \"packages/contracts/src/framework/dao/DAORegistry_flattened.sol\":73386:73401  bytes32 subnode */\n      0x00\n        /* \"packages/contracts/src/framework/dao/DAORegistry_flattened.sol\":73431:73435  node */\n      sload(0x33)\n        /* \"packages/contracts/src/framework/dao/DAORegistry_flattened.sol\":73437:73443  _label */\n      dup5\n        /* \"packages/contracts/src/framework/dao/DAORegistry_flattened.sol\":73414:73444  abi.encodePacked(node, _label) */\n      add(0x20, mload(0x40))\n      tag_124\n      swap3\n      swap2\n      swap1\n        /* \"#utility.yul\":5300:5319   */\n      swap2\n      dup3\n      mstore\n        /* \"#utility.yul\":5344:5346   */\n      0x20\n        /* \"#utility.yul\":5335:5347   */\n      dup3\n      add\n        /* \"#utility.yul\":5328:5356   */\n      mstore\n        /* \"#utility.yul\":5381:5383   */\n      0x40\n        /* \"#utility.yul\":5372:5384   */\n      add\n      swap1\n        /* \"#utility.yul\":5143:5390   */\n      jump\n        /* \"packages/contracts/src/framework/dao/DAORegistry_flattened.sol\":73414:73444  abi.encodePacked(node, _label) */\n    tag_124:\n      0x40\n      dup1\n      mload\n      dup1\n      dup4\n      sub\n      not(0x1f)\n      add\n      dup2\n      mstore\n      swap1\n      dup3\n      swap1\n      mstore\n        /* \"packages/contracts/src/framework/dao/DAORegistry_flattened.sol\":73404:73445  keccak256(abi.encodePacked(node, _label)) */\n      dup1\n      mload\n        /* \"packages/contracts/src/framework/dao/DAORegistry_flattened.sol\":73414:73444  abi.encodePacked(node, _label) */\n      0x20\n        /* \"packages/contracts/src/framework/dao/DAORegistry_flattened.sol\":73404:73445  keccak256(abi.encodePacked(node, _label)) */\n      swap1\n      swap2\n      add\n      keccak256\n        /* \"packages/contracts/src/framework/dao/DAORegistry_flattened.sol\":73478:73481  ens */\n      sload(0x32)\n      shl(0xe0, 0x02571be3)\n        /* \"packages/contracts/src/framework/dao/DAORegistry_flattened.sol\":73478:73496  ens.owner(subnode) */\n      dup4\n      mstore\n      0x04\n      dup4\n      add\n        /* \"#utility.yul\":2644:2669   */\n      dup3\n      swap1\n      mstore\n        /* \"packages/contracts/src/framework/dao/DAORegistry_flattened.sol\":73404:73445  keccak256(abi.encodePacked(node, _label)) */\n      swap1\n      swap3\n      pop\n        /* \"packages/contracts/src/framework/dao/DAORegistry_flattened.sol\":73455:73475  address currentOwner */\n      0x00\n      swap2\n      sub(shl(0xa0, 0x01), 0x01)\n        /* \"packages/contracts/src/framework/dao/DAORegistry_flattened.sol\":73478:73481  ens */\n      swap1\n      swap2\n      and\n      swap1\n        /* \"packages/contracts/src/framework/dao/DAORegistry_flattened.sol\":73478:73487  ens.owner */\n      0x02571be3\n      swap1\n        /* \"#utility.yul\":2617:2635   */\n      0x24\n      add\n        /* \"packages/contracts/src/framework/dao/DAORegistry_flattened.sol\":73478:73496  ens.owner(subnode) */\n      0x20\n      mload(0x40)\n      dup1\n      dup4\n      sub\n      dup2\n      dup7\n      gas\n      staticcall\n      iszero\n      dup1\n      iszero\n      tag_128\n      jumpi\n      returndatasize\n      0x00\n      dup1\n      returndatacopy\n      revert(0x00, returndatasize)\n    tag_128:\n      pop\n      pop\n      pop\n      pop\n      mload(0x40)\n      returndatasize\n      not(0x1f)\n      0x1f\n      dup3\n      add\n      and\n      dup3\n      add\n      dup1\n      0x40\n      mstore\n      pop\n      dup2\n      add\n      swap1\n      tag_129\n      swap2\n      swap1\n      tag_109\n      jump\t// in\n    tag_129:\n        /* \"packages/contracts/src/framework/dao/DAORegistry_flattened.sol\":73455:73496  address currentOwner = ens.owner(subnode) */\n      swap1\n      pop\n      sub(shl(0xa0, 0x01), 0x01)\n        /* \"packages/contracts/src/framework/dao/DAORegistry_flattened.sol\":73511:73537  currentOwner != address(0) */\n      dup2\n      and\n      iszero\n        /* \"packages/contracts/src/framework/dao/DAORegistry_flattened.sol\":73507:73611  if (currentOwner != address(0)) {... */\n      tag_130\n      jumpi\n        /* \"packages/contracts/src/framework/dao/DAORegistry_flattened.sol\":73560:73600  AlreadyRegistered(subnode, currentOwner) */\n      mload(0x40)\n      shl(0xe1, 0xfcad5d)\n      dup2\n      mstore\n      0x04\n      dup2\n      add\n        /* \"#utility.yul\":4824:4849   */\n      dup4\n      swap1\n      mstore\n      sub(shl(0xa0, 0x01), 0x01)\n        /* \"#utility.yul\":4885:4917   */\n      dup3\n      and\n        /* \"#utility.yul\":4865:4883   */\n      0x24\n      dup3\n      add\n        /* \"#utility.yul\":4858:4918   */\n      mstore\n        /* \"#utility.yul\":4797:4815   */\n      0x44\n      add\n        /* \"packages/contracts/src/framework/dao/DAORegistry_flattened.sol\":73560:73600  AlreadyRegistered(subnode, currentOwner) */\n      tag_111\n        /* \"#utility.yul\":4650:4924   */\n      jump\n        /* \"packages/contracts/src/framework/dao/DAORegistry_flattened.sol\":73507:73611  if (currentOwner != address(0)) {... */\n    tag_130:\n        /* \"packages/contracts/src/framework/dao/DAORegistry_flattened.sol\":73621:73624  ens */\n      sload(0x32)\n        /* \"packages/contracts/src/framework/dao/DAORegistry_flattened.sol\":73641:73645  node */\n      sload(0x33)\n        /* \"packages/contracts/src/framework/dao/DAORegistry_flattened.sol\":73621:73669  ens.setSubnodeOwner(node, _label, address(this)) */\n      mload(0x40)\n      shl(0xe0, 0x06ab5923)\n      dup2\n      mstore\n      0x04\n      dup2\n      add\n        /* \"#utility.yul\":5597:5622   */\n      swap2\n      swap1\n      swap2\n      mstore\n        /* \"#utility.yul\":5638:5656   */\n      0x24\n      dup2\n      add\n        /* \"#utility.yul\":5631:5665   */\n      dup8\n      swap1\n      mstore\n        /* \"packages/contracts/src/framework/dao/DAORegistry_flattened.sol\":73663:73667  this */\n      address\n        /* \"#utility.yul\":5681:5699   */\n      0x44\n      dup3\n      add\n        /* \"#utility.yul\":5674:5734   */\n      mstore\n      sub(shl(0xa0, 0x01), 0x01)\n        /* \"packages/contracts/src/framework/dao/DAORegistry_flattened.sol\":73621:73624  ens */\n      swap1\n      swap2\n      and\n      swap1\n        /* \"packages/contracts/src/framework/dao/DAORegistry_flattened.sol\":73621:73640  ens.setSubnodeOwner */\n      0x06ab5923\n      swap1\n        /* \"#utility.yul\":5570:5588   */\n      0x64\n      add\n        /* \"packages/contracts/src/framework/dao/DAORegistry_flattened.sol\":73621:73669  ens.setSubnodeOwner(node, _label, address(this)) */\n      0x20\n      mload(0x40)\n      dup1\n      dup4\n      sub\n      dup2\n      0x00\n      dup8\n      gas\n      call\n      iszero\n      dup1\n      iszero\n      tag_135\n      jumpi\n      returndatasize\n      0x00\n      dup1\n      returndatacopy\n      revert(0x00, returndatasize)\n    tag_135:\n      pop\n      pop\n      pop\n      pop\n      mload(0x40)\n      returndatasize\n      not(0x1f)\n      0x1f\n      dup3\n      add\n      and\n      dup3\n      add\n      dup1\n      0x40\n      mstore\n      pop\n      dup2\n      add\n      swap1\n      tag_136\n      swap2\n      swap1\n      tag_137\n      jump\t// in\n    tag_136:\n      pop\n        /* \"packages/contracts/src/framework/dao/DAORegistry_flattened.sol\":73679:73682  ens */\n      sload(0x32)\n        /* \"packages/contracts/src/framework/dao/DAORegistry_flattened.sol\":73704:73712  resolver */\n      sload(0x34)\n        /* \"packages/contracts/src/framework/dao/DAORegistry_flattened.sol\":73679:73713  ens.setResolver(subnode, resolver) */\n      mload(0x40)\n      shl(0xe1, 0x0c4b7b85)\n      dup2\n      mstore\n      0x04\n      dup2\n      add\n        /* \"#utility.yul\":4824:4849   */\n      dup6\n      swap1\n      mstore\n      sub(shl(0xa0, 0x01), 0x01)\n        /* \"packages/contracts/src/framework/dao/DAORegistry_flattened.sol\":73704:73712  resolver */\n      swap2\n      dup3\n      and\n        /* \"#utility.yul\":4865:4883   */\n      0x24\n      dup3\n      add\n        /* \"#utility.yul\":4858:4918   */\n      mstore\n        /* \"packages/contracts/src/framework/dao/DAORegistry_flattened.sol\":73679:73682  ens */\n      swap2\n      and\n      swap1\n        /* \"packages/contracts/src/framework/dao/DAORegistry_flattened.sol\":73679:73694  ens.setResolver */\n      0x1896f70a\n      swap1\n        /* \"#utility.yul\":4797:4815   */\n      0x44\n      add\n        /* \"packages/contracts/src/framework/dao/DAORegistry_flattened.sol\":73679:73713  ens.setResolver(subnode, resolver) */\n      0x00\n      mload(0x40)\n      dup1\n      dup4\n      sub\n      dup2\n      0x00\n      dup8\n      dup1\n      extcodesize\n      iszero\n      dup1\n      iszero\n      tag_139\n      jumpi\n      0x00\n      dup1\n      revert\n    tag_139:\n      pop\n      gas\n      call\n      iszero\n      dup1\n      iszero\n      tag_141\n      jumpi\n      returndatasize\n      0x00\n      dup1\n      returndatacopy\n      revert(0x00, returndatasize)\n    tag_141:\n      pop\n      pop\n        /* \"packages/contracts/src/framework/dao/DAORegistry_flattened.sol\":73732:73740  resolver */\n      sload(0x34)\n        /* \"packages/contracts/src/framework/dao/DAORegistry_flattened.sol\":73723:73774  Resolver(resolver).setAddr(subnode, _targetAddress) */\n      mload(0x40)\n      shl(0xe8, 0xd5fa2b)\n      dup2\n      mstore\n      0x04\n      dup2\n      add\n        /* \"#utility.yul\":4824:4849   */\n      dup7\n      swap1\n      mstore\n      sub(shl(0xa0, 0x01), 0x01)\n        /* \"#utility.yul\":4885:4917   */\n      dup9\n      dup2\n      and\n        /* \"#utility.yul\":4865:4883   */\n      0x24\n      dup4\n      add\n        /* \"#utility.yul\":4858:4918   */\n      mstore\n        /* \"packages/contracts/src/framework/dao/DAORegistry_flattened.sol\":73732:73740  resolver */\n      swap1\n      swap2\n      and\n      swap3\n      pop\n        /* \"packages/contracts/src/framework/dao/DAORegistry_flattened.sol\":73723:73749  Resolver(resolver).setAddr */\n      0xd5fa2b00\n      swap2\n      pop\n        /* \"#utility.yul\":4797:4815   */\n      0x44\n      add\n        /* \"packages/contracts/src/framework/dao/DAORegistry_flattened.sol\":73723:73774  Resolver(resolver).setAddr(subnode, _targetAddress) */\n      0x00\n      mload(0x40)\n      dup1\n      dup4\n      sub\n      dup2\n      0x00\n      dup8\n      dup1\n      extcodesize\n      iszero\n      dup1\n      iszero\n      tag_143\n      jumpi\n      0x00\n      dup1\n      revert\n    tag_143:\n      pop\n      gas\n      call\n      iszero\n      dup1\n      iszero\n      tag_145\n      jumpi\n      returndatasize\n      0x00\n      dup1\n      returndatacopy\n      revert(0x00, returndatasize)\n    tag_145:\n      pop\n      pop\n      pop\n      pop\n        /* \"packages/contracts/src/framework/dao/DAORegistry_flattened.sol\":73376:73781  {... */\n      pop\n      pop\n        /* \"packages/contracts/src/framework/dao/DAORegistry_flattened.sol\":73237:73781  function registerSubnode(... */\n      pop\n      pop\n      pop\n      jump\t// out\n        /* \"packages/contracts/src/framework/dao/DAORegistry_flattened.sol\":73952:74223  function setDefaultResolver(... */\n    tag_73:\n        /* \"packages/contracts/src/framework/dao/DAORegistry_flattened.sol\":63689:63693  dao_ */\n      sload(0x00)\n        /* \"packages/contracts/src/framework/dao/DAORegistry_flattened.sol\":70425:70471  keccak256(\"REGISTER_ENS_SUBDOMAIN_PERMISSION\") */\n      0xbbdfd23f099d7ed9f535e0f97d2123efb1332b16e023b8359b3b879eaecd3c14\n      swap1\n        /* \"packages/contracts/src/framework/dao/DAORegistry_flattened.sol\":63683:63750  _auth(dao_, address(this), _msgSender(), _permissionId, _msgData()) */\n      tag_147\n      swap1\n      sub(shl(0xa0, 0x01), 0x01)\n        /* \"packages/contracts/src/framework/dao/DAORegistry_flattened.sol\":63689:63693  dao_ */\n      and\n        /* \"packages/contracts/src/framework/dao/DAORegistry_flattened.sol\":63703:63707  this */\n      address\n        /* \"packages/contracts/src/framework/dao/DAORegistry_flattened.sol\":17299:17309  msg.sender */\n      caller\n        /* \"packages/contracts/src/framework/dao/DAORegistry_flattened.sol\":63710:63722  _msgSender() */\n      tag_118\n        /* \"packages/contracts/src/framework/dao/DAORegistry_flattened.sol\":17220:17316  function _msgSender() internal view virtual returns (address) {... */\n      jump\n        /* \"packages/contracts/src/framework/dao/DAORegistry_flattened.sol\":63683:63750  _auth(dao_, address(this), _msgSender(), _permissionId, _msgData()) */\n    tag_147:\n      sub(shl(0xa0, 0x01), 0x01)\n        /* \"packages/contracts/src/framework/dao/DAORegistry_flattened.sol\":74079:74102  _resolver == address(0) */\n      dup3\n      and\n        /* \"packages/contracts/src/framework/dao/DAORegistry_flattened.sol\":74075:74186  if (_resolver == address(0)) {... */\n      tag_151\n      jumpi\n        /* \"packages/contracts/src/framework/dao/DAORegistry_flattened.sol\":74148:74152  node */\n      sload(0x33)\n        /* \"packages/contracts/src/framework/dao/DAORegistry_flattened.sol\":74125:74175  InvalidResolver({node: node, resolver: _resolver}) */\n      mload(0x40)\n      shl(0xe1, 0x0d7097c5)\n      dup2\n      mstore\n      0x04\n      dup2\n      add\n        /* \"#utility.yul\":4824:4849   */\n      swap2\n      swap1\n      swap2\n      mstore\n      sub(shl(0xa0, 0x01), 0x01)\n        /* \"#utility.yul\":4885:4917   */\n      dup4\n      and\n        /* \"#utility.yul\":4865:4883   */\n      0x24\n      dup3\n      add\n        /* \"#utility.yul\":4858:4918   */\n      mstore\n        /* \"#utility.yul\":4797:4815   */\n      0x44\n      add\n        /* \"packages/contracts/src/framework/dao/DAORegistry_flattened.sol\":74125:74175  InvalidResolver({node: node, resolver: _resolver}) */\n      tag_111\n        /* \"#utility.yul\":4650:4924   */\n      jump\n        /* \"packages/contracts/src/framework/dao/DAORegistry_flattened.sol\":74075:74186  if (_resolver == address(0)) {... */\n    tag_151:\n      pop\n        /* \"packages/contracts/src/framework/dao/DAORegistry_flattened.sol\":74196:74204  resolver */\n      0x34\n        /* \"packages/contracts/src/framework/dao/DAORegistry_flattened.sol\":74196:74216  resolver = _resolver */\n      dup1\n      sload\n      not(sub(shl(0xa0, 0x01), 0x01))\n      and\n      sub(shl(0xa0, 0x01), 0x01)\n      swap3\n      swap1\n      swap3\n      and\n      swap2\n      swap1\n      swap2\n      or\n      swap1\n      sstore\n        /* \"packages/contracts/src/framework/dao/DAORegistry_flattened.sol\":73952:74223  function setDefaultResolver(... */\n      jump\t// out\n        /* \"packages/contracts/src/framework/dao/DAORegistry_flattened.sol\":40111:40423  function _checkProxy() internal view virtual {... */\n    tag_84:\n        /* \"packages/contracts/src/framework/dao/DAORegistry_flattened.sol\":40191:40195  this */\n      address\n      sub(shl(0xa0, 0x01), 0x01)\n        /* \"packages/contracts/src/framework/dao/DAORegistry_flattened.sol\":40200:40206  __self */\n      immutable(\"0x2fce2f62d6f46468ed5b062b6cc3dadc7ef967582d813b597a7719ed541e91d0\")\n        /* \"packages/contracts/src/framework/dao/DAORegistry_flattened.sol\":40183:40206  address(this) == __self */\n      and\n      eq\n      dup1\n        /* \"packages/contracts/src/framework/dao/DAORegistry_flattened.sol\":40183:40303  address(this) == __self || // Must be called through delegatecall... */\n      tag_154\n      jumpi\n      pop\n        /* \"packages/contracts/src/framework/dao/DAORegistry_flattened.sol\":40297:40303  __self */\n      immutable(\"0x2fce2f62d6f46468ed5b062b6cc3dadc7ef967582d813b597a7719ed541e91d0\")\n      sub(shl(0xa0, 0x01), 0x01)\n        /* \"packages/contracts/src/framework/dao/DAORegistry_flattened.sol\":40261:40303  ERC1967Utils.getImplementation() != __self */\n      and\n        /* \"packages/contracts/src/framework/dao/DAORegistry_flattened.sol\":40261:40293  ERC1967Utils.getImplementation() */\n      tag_155\n      0x00\n      dup1\n      mload\n      0x20\n      data_75b20eef8615de99c108b05f0dbda081c91897128caa336d75dffb97c4132b4d\n      dup4\n      codecopy\n      dup2\n      mload\n      swap2\n      mstore\n        /* \"packages/contracts/src/framework/dao/DAORegistry_flattened.sol\":30085:30138  StorageSlot.getAddressSlot(IMPLEMENTATION_SLOT).value */\n      sload\n      sub(shl(0xa0, 0x01), 0x01)\n      and\n      swap1\n        /* \"packages/contracts/src/framework/dao/DAORegistry_flattened.sol\":30007:30145  function getImplementation() internal view returns (address) {... */\n      jump\n        /* \"packages/contracts/src/framework/dao/DAORegistry_flattened.sol\":40261:40293  ERC1967Utils.getImplementation() */\n    tag_155:\n      sub(shl(0xa0, 0x01), 0x01)\n        /* \"packages/contracts/src/framework/dao/DAORegistry_flattened.sol\":40261:40303  ERC1967Utils.getImplementation() != __self */\n      and\n      eq\n      iszero\n        /* \"packages/contracts/src/framework/dao/DAORegistry_flattened.sol\":40183:40303  address(this) == __self || // Must be called through delegatecall... */\n    tag_154:\n        /* \"packages/contracts/src/framework/dao/DAORegistry_flattened.sol\":40166:40417  if (... */\n      iszero\n      tag_157\n      jumpi\n        /* \"packages/contracts/src/framework/dao/DAORegistry_flattened.sol\":40377:40406  UUPSUnauthorizedCallContext() */\n      mload(0x40)\n      shl(0xe1, 0x703e46dd)\n      dup2\n      mstore\n      0x04\n      add\n      mload(0x40)\n      dup1\n      swap2\n      sub\n      swap1\n      revert\n        /* \"packages/contracts/src/framework/dao/DAORegistry_flattened.sol\":40166:40417  if (... */\n    tag_157:\n        /* \"packages/contracts/src/framework/dao/DAORegistry_flattened.sol\":40111:40423  function _checkProxy() internal view virtual {... */\n      jump\t// out\n        /* \"packages/contracts/src/framework/dao/DAORegistry_flattened.sol\":72744:72860  function _authorizeUpgrade(... */\n    tag_87:\n        /* \"packages/contracts/src/framework/dao/DAORegistry_flattened.sol\":63689:63693  dao_ */\n      sload(0x00)\n        /* \"packages/contracts/src/framework/dao/DAORegistry_flattened.sol\":70191:70232  keccak256(\"UPGRADE_REGISTRAR_PERMISSION\") */\n      0xa1fcba4efb1e94b7648f5e0504bfd39734aead5f17965d12705915d771c859ff\n      swap1\n        /* \"packages/contracts/src/framework/dao/DAORegistry_flattened.sol\":63683:63750  _auth(dao_, address(this), _msgSender(), _permissionId, _msgData()) */\n      tag_88\n      swap1\n      sub(shl(0xa0, 0x01), 0x01)\n        /* \"packages/contracts/src/framework/dao/DAORegistry_flattened.sol\":63689:63693  dao_ */\n      and\n        /* \"packages/contracts/src/framework/dao/DAORegistry_flattened.sol\":63703:63707  this */\n      address\n        /* \"packages/contracts/src/framework/dao/DAORegistry_flattened.sol\":17299:17309  msg.sender */\n      caller\n        /* \"packages/contracts/src/framework/dao/DAORegistry_flattened.sol\":63710:63722  _msgSender() */\n      tag_118\n        /* \"packages/contracts/src/framework/dao/DAORegistry_flattened.sol\":17220:17316  function _msgSender() internal view virtual returns (address) {... */\n      jump\n        /* \"packages/contracts/src/framework/dao/DAORegistry_flattened.sol\":41564:42102  function _upgradeToAndCallUUPS(address newImplementation, bytes memory data) private {... */\n    tag_89:\n        /* \"packages/contracts/src/framework/dao/DAORegistry_flattened.sol\":41681:41698  newImplementation */\n      dup2\n      sub(shl(0xa0, 0x01), 0x01)\n        /* \"packages/contracts/src/framework/dao/DAORegistry_flattened.sol\":41663:41713  IERC1822Proxiable(newImplementation).proxiableUUID */\n      and\n      0x52d1902d\n        /* \"packages/contracts/src/framework/dao/DAORegistry_flattened.sol\":41663:41715  IERC1822Proxiable(newImplementation).proxiableUUID() */\n      mload(0x40)\n      dup2\n      0xffffffff\n      and\n      0xe0\n      shl\n      dup2\n      mstore\n      0x04\n      add\n      0x20\n      mload(0x40)\n      dup1\n      dup4\n      sub\n      dup2\n      dup7\n      gas\n      staticcall\n      swap3\n      pop\n      pop\n      pop\n      dup1\n      iszero\n      tag_164\n      jumpi\n      pop\n      0x40\n      dup1\n      mload\n      0x1f\n      returndatasize\n      swap1\n      dup2\n      add\n      not(0x1f)\n      and\n      dup3\n      add\n      swap1\n      swap3\n      mstore\n      tag_165\n      swap2\n      dup2\n      add\n      swap1\n      tag_137\n      jump\t// in\n    tag_165:\n      0x01\n    tag_164:\n        /* \"packages/contracts/src/framework/dao/DAORegistry_flattened.sol\":41659:42096  try IERC1822Proxiable(newImplementation).proxiableUUID() returns (bytes32 slot) {... */\n      tag_166\n      jumpi\n        /* \"packages/contracts/src/framework/dao/DAORegistry_flattened.sol\":42025:42085  ERC1967Utils.ERC1967InvalidImplementation(newImplementation) */\n      mload(0x40)\n      shl(0xe0, 0x4c9c8ce3)\n      dup2\n      mstore\n      sub(shl(0xa0, 0x01), 0x01)\n        /* \"#utility.yul\":178:210   */\n      dup4\n      and\n        /* \"packages/contracts/src/framework/dao/DAORegistry_flattened.sol\":42025:42085  ERC1967Utils.ERC1967InvalidImplementation(newImplementation) */\n      0x04\n      dup3\n      add\n        /* \"#utility.yul\":160:211   */\n      mstore\n        /* \"#utility.yul\":133:151   */\n      0x24\n      add\n        /* \"packages/contracts/src/framework/dao/DAORegistry_flattened.sol\":42025:42085  ERC1967Utils.ERC1967InvalidImplementation(newImplementation) */\n      tag_111\n        /* \"#utility.yul\":14:217   */\n      jump\n        /* \"packages/contracts/src/framework/dao/DAORegistry_flattened.sol\":41659:42096  try IERC1822Proxiable(newImplementation).proxiableUUID() returns (bytes32 slot) {... */\n    tag_166:\n      0x00\n      dup1\n      mload\n      0x20\n      data_75b20eef8615de99c108b05f0dbda081c91897128caa336d75dffb97c4132b4d\n      dup4\n      codecopy\n      dup2\n      mload\n      swap2\n      mstore\n        /* \"packages/contracts/src/framework/dao/DAORegistry_flattened.sol\":41757:41797  slot != ERC1967Utils.IMPLEMENTATION_SLOT */\n      dup2\n      eq\n        /* \"packages/contracts/src/framework/dao/DAORegistry_flattened.sol\":41753:41873  if (slot != ERC1967Utils.IMPLEMENTATION_SLOT) {... */\n      tag_172\n      jumpi\n        /* \"packages/contracts/src/framework/dao/DAORegistry_flattened.sol\":41824:41858  UUPSUnsupportedProxiableUUID(slot) */\n      mload(0x40)\n      shl(0xe2, 0x2a875269)\n      dup2\n      mstore\n      0x04\n      dup2\n      add\n        /* \"#utility.yul\":2644:2669   */\n      dup3\n      swap1\n      mstore\n        /* \"#utility.yul\":2617:2635   */\n      0x24\n      add\n        /* \"packages/contracts/src/framework/dao/DAORegistry_flattened.sol\":41824:41858  UUPSUnsupportedProxiableUUID(slot) */\n      tag_111\n        /* \"#utility.yul\":2498:2675   */\n      jump\n        /* \"packages/contracts/src/framework/dao/DAORegistry_flattened.sol\":41753:41873  if (slot != ERC1967Utils.IMPLEMENTATION_SLOT) {... */\n    tag_172:\n        /* \"packages/contracts/src/framework/dao/DAORegistry_flattened.sol\":41886:41940  ERC1967Utils.upgradeToAndCall(newImplementation, data) */\n      tag_174\n        /* \"packages/contracts/src/framework/dao/DAORegistry_flattened.sol\":41916:41933  newImplementation */\n      dup4\n        /* \"packages/contracts/src/framework/dao/DAORegistry_flattened.sol\":41935:41939  data */\n      dup4\n        /* \"packages/contracts/src/framework/dao/DAORegistry_flattened.sol\":41886:41915  ERC1967Utils.upgradeToAndCall */\n      tag_175\n        /* \"packages/contracts/src/framework/dao/DAORegistry_flattened.sol\":41886:41940  ERC1967Utils.upgradeToAndCall(newImplementation, data) */\n      jump\t// in\n    tag_174:\n        /* \"packages/contracts/src/framework/dao/DAORegistry_flattened.sol\":41716:41951  returns (bytes32 slot) {... */\n      pop\n        /* \"packages/contracts/src/framework/dao/DAORegistry_flattened.sol\":41564:42102  function _upgradeToAndCallUUPS(address newImplementation, bytes memory data) private {... */\n      pop\n      pop\n      jump\t// out\n        /* \"packages/contracts/src/framework/dao/DAORegistry_flattened.sol\":40540:40753  function _checkNotDelegated() internal view virtual {... */\n    tag_92:\n        /* \"packages/contracts/src/framework/dao/DAORegistry_flattened.sol\":40614:40618  this */\n      address\n      sub(shl(0xa0, 0x01), 0x01)\n        /* \"packages/contracts/src/framework/dao/DAORegistry_flattened.sol\":40623:40629  __self */\n      immutable(\"0x2fce2f62d6f46468ed5b062b6cc3dadc7ef967582d813b597a7719ed541e91d0\")\n        /* \"packages/contracts/src/framework/dao/DAORegistry_flattened.sol\":40606:40629  address(this) != __self */\n      and\n      eq\n        /* \"packages/contracts/src/framework/dao/DAORegistry_flattened.sol\":40602:40747  if (address(this) != __self) {... */\n      tag_157\n      jumpi\n        /* \"packages/contracts/src/framework/dao/DAORegistry_flattened.sol\":40707:40736  UUPSUnauthorizedCallContext() */\n      mload(0x40)\n      shl(0xe1, 0x703e46dd)\n      dup2\n      mstore\n      0x04\n      add\n      mload(0x40)\n      dup1\n      swap2\n      sub\n      swap1\n      revert\n        /* \"packages/contracts/src/framework/dao/DAORegistry_flattened.sol\":63083:63191  function __DaoAuthorizableUpgradeable_init(IDAO _dao) internal onlyInitializing {... */\n    tag_104:\n        /* \"packages/contracts/src/framework/dao/DAORegistry_flattened.sol\":14372:14392  _checkInitializing() */\n      tag_180\n        /* \"packages/contracts/src/framework/dao/DAORegistry_flattened.sol\":14372:14390  _checkInitializing */\n      tag_181\n        /* \"packages/contracts/src/framework/dao/DAORegistry_flattened.sol\":14372:14392  _checkInitializing() */\n      jump\t// in\n    tag_180:\n        /* \"packages/contracts/src/framework/dao/DAORegistry_flattened.sol\":63173:63177  dao_ */\n      0x00\n        /* \"packages/contracts/src/framework/dao/DAORegistry_flattened.sol\":63173:63184  dao_ = _dao */\n      dup1\n      sload\n      not(sub(shl(0xa0, 0x01), 0x01))\n      and\n      sub(shl(0xa0, 0x01), 0x01)\n      swap3\n      swap1\n      swap3\n      and\n      swap2\n      swap1\n      swap2\n      or\n      swap1\n      sstore\n        /* \"packages/contracts/src/framework/dao/DAORegistry_flattened.sol\":63083:63191  function __DaoAuthorizableUpgradeable_init(IDAO _dao) internal onlyInitializing {... */\n      jump\t// out\n        /* \"packages/contracts/src/framework/dao/DAORegistry_flattened.sol\":61878:62241  function _auth(... */\n    tag_122:\n        /* \"packages/contracts/src/framework/dao/DAORegistry_flattened.sol\":62017:62071  _dao.hasPermission(_where, _who, _permissionId, _data) */\n      mload(0x40)\n      shl(0xe1, 0x7ef7c883)\n      dup2\n      mstore\n      sub(shl(0xa0, 0x01), 0x01)\n        /* \"packages/contracts/src/framework/dao/DAORegistry_flattened.sol\":62017:62035  _dao.hasPermission */\n      dup8\n      and\n      swap1\n      0xfdef9106\n      swap1\n        /* \"packages/contracts/src/framework/dao/DAORegistry_flattened.sol\":62017:62071  _dao.hasPermission(_where, _who, _permissionId, _data) */\n      tag_186\n      swap1\n        /* \"packages/contracts/src/framework/dao/DAORegistry_flattened.sol\":62036:62042  _where */\n      dup9\n      swap1\n        /* \"packages/contracts/src/framework/dao/DAORegistry_flattened.sol\":62044:62048  _who */\n      dup9\n      swap1\n        /* \"packages/contracts/src/framework/dao/DAORegistry_flattened.sol\":62050:62063  _permissionId */\n      dup9\n      swap1\n        /* \"packages/contracts/src/framework/dao/DAORegistry_flattened.sol\":62065:62070  _data */\n      dup9\n      swap1\n      dup9\n      swap1\n        /* \"packages/contracts/src/framework/dao/DAORegistry_flattened.sol\":62017:62071  _dao.hasPermission(_where, _who, _permissionId, _data) */\n      0x04\n      add\n      tag_187\n      jump\t// in\n    tag_186:\n      0x20\n      mload(0x40)\n      dup1\n      dup4\n      sub\n      dup2\n      dup7\n      gas\n      staticcall\n      iszero\n      dup1\n      iszero\n      tag_189\n      jumpi\n      returndatasize\n      0x00\n      dup1\n      returndatacopy\n      revert(0x00, returndatasize)\n    tag_189:\n      pop\n      pop\n      pop\n      pop\n      mload(0x40)\n      returndatasize\n      not(0x1f)\n      0x1f\n      dup3\n      add\n      and\n      dup3\n      add\n      dup1\n      0x40\n      mstore\n      pop\n      dup2\n      add\n      swap1\n      tag_190\n      swap2\n      swap1\n      tag_191\n      jump\t// in\n    tag_190:\n        /* \"packages/contracts/src/framework/dao/DAORegistry_flattened.sol\":62012:62238  if (!_dao.hasPermission(_where, _who, _permissionId, _data))... */\n      tag_192\n      jumpi\n        /* \"packages/contracts/src/framework/dao/DAORegistry_flattened.sol\":62088:62238  DaoUnauthorized({... */\n      mload(0x40)\n      shl(0xe2, 0x0cb6f8ed)\n      dup2\n      mstore\n      sub(shl(0xa0, 0x01), 0x01)\n        /* \"#utility.yul\":7170:7185   */\n      dup1\n      dup9\n      and\n        /* \"packages/contracts/src/framework/dao/DAORegistry_flattened.sol\":62088:62238  DaoUnauthorized({... */\n      0x04\n      dup4\n      add\n        /* \"#utility.yul\":7152:7186   */\n      mstore\n        /* \"#utility.yul\":7222:7237   */\n      dup1\n      dup8\n      and\n        /* \"#utility.yul\":7202:7220   */\n      0x24\n      dup4\n      add\n        /* \"#utility.yul\":7195:7238   */\n      mstore\n        /* \"#utility.yul\":7274:7289   */\n      dup6\n      and\n        /* \"#utility.yul\":7254:7272   */\n      0x44\n      dup3\n      add\n        /* \"#utility.yul\":7247:7290   */\n      mstore\n        /* \"#utility.yul\":7306:7324   */\n      0x64\n      dup2\n      add\n        /* \"#utility.yul\":7299:7333   */\n      dup5\n      swap1\n      mstore\n        /* \"#utility.yul\":7086:7105   */\n      0x84\n      add\n        /* \"packages/contracts/src/framework/dao/DAORegistry_flattened.sol\":62088:62238  DaoUnauthorized({... */\n      tag_111\n        /* \"#utility.yul\":6883:7339   */\n      jump\n        /* \"packages/contracts/src/framework/dao/DAORegistry_flattened.sol\":62012:62238  if (!_dao.hasPermission(_where, _who, _permissionId, _data))... */\n    tag_192:\n        /* \"packages/contracts/src/framework/dao/DAORegistry_flattened.sol\":61878:62241  function _auth(... */\n      pop\n      pop\n      pop\n      pop\n      pop\n      pop\n      jump\t// out\n        /* \"packages/contracts/src/framework/dao/DAORegistry_flattened.sol\":30829:31164  function upgradeToAndCall(address newImplementation, bytes memory data) internal {... */\n    tag_175:\n        /* \"packages/contracts/src/framework/dao/DAORegistry_flattened.sol\":30920:30957  _setImplementation(newImplementation) */\n      tag_199\n        /* \"packages/contracts/src/framework/dao/DAORegistry_flattened.sol\":30939:30956  newImplementation */\n      dup3\n        /* \"packages/contracts/src/framework/dao/DAORegistry_flattened.sol\":30920:30938  _setImplementation */\n      tag_200\n        /* \"packages/contracts/src/framework/dao/DAORegistry_flattened.sol\":30920:30957  _setImplementation(newImplementation) */\n      jump\t// in\n    tag_199:\n        /* \"packages/contracts/src/framework/dao/DAORegistry_flattened.sol\":30972:30999  Upgraded(newImplementation) */\n      mload(0x40)\n      sub(shl(0xa0, 0x01), 0x01)\n      dup4\n      and\n      swap1\n      0xbc7cd75a20ee27fd9adebab32041f755214dbc6bffa90cc0225b39da2e5c2d3b\n      swap1\n      0x00\n      swap1\n      log2\n        /* \"packages/contracts/src/framework/dao/DAORegistry_flattened.sol\":31014:31025  data.length */\n      dup1\n      mload\n        /* \"packages/contracts/src/framework/dao/DAORegistry_flattened.sol\":31014:31029  data.length > 0 */\n      iszero\n        /* \"packages/contracts/src/framework/dao/DAORegistry_flattened.sol\":31010:31158  if (data.length > 0) {... */\n      tag_201\n      jumpi\n        /* \"packages/contracts/src/framework/dao/DAORegistry_flattened.sol\":31045:31098  Address.functionDelegateCall(newImplementation, data) */\n      tag_174\n        /* \"packages/contracts/src/framework/dao/DAORegistry_flattened.sol\":31074:31091  newImplementation */\n      dup3\n        /* \"packages/contracts/src/framework/dao/DAORegistry_flattened.sol\":31093:31097  data */\n      dup3\n        /* \"packages/contracts/src/framework/dao/DAORegistry_flattened.sol\":31045:31073  Address.functionDelegateCall */\n      tag_203\n        /* \"packages/contracts/src/framework/dao/DAORegistry_flattened.sol\":31045:31098  Address.functionDelegateCall(newImplementation, data) */\n      jump\t// in\n        /* \"packages/contracts/src/framework/dao/DAORegistry_flattened.sol\":31010:31158  if (data.length > 0) {... */\n    tag_201:\n        /* \"packages/contracts/src/framework/dao/DAORegistry_flattened.sol\":31129:31147  _checkNonPayable() */\n      tag_88\n        /* \"packages/contracts/src/framework/dao/DAORegistry_flattened.sol\":31129:31145  _checkNonPayable */\n      tag_206\n        /* \"packages/contracts/src/framework/dao/DAORegistry_flattened.sol\":31129:31147  _checkNonPayable() */\n      jump\t// in\n        /* \"packages/contracts/src/framework/dao/DAORegistry_flattened.sol\":14525:14666  function _checkInitializing() internal view virtual {... */\n    tag_181:\n        /* \"packages/contracts/src/framework/dao/DAORegistry_flattened.sol\":16311:16332  INITIALIZABLE_STORAGE */\n      0xf0c57e16840df040f15088dc2f81fe391c3923bec73e23a9662efc9c229c6a00\n        /* \"packages/contracts/src/framework/dao/DAORegistry_flattened.sol\":16001:16041  _getInitializableStorage()._initializing */\n      sload\n      shl(0x40, 0x01)\n      swap1\n      div\n      0xff\n      and\n        /* \"packages/contracts/src/framework/dao/DAORegistry_flattened.sol\":14587:14660  if (!_isInitializing()) {... */\n      tag_157\n      jumpi\n        /* \"packages/contracts/src/framework/dao/DAORegistry_flattened.sol\":14632:14649  NotInitializing() */\n      mload(0x40)\n      shl(0xe3, 0x1afcd79f)\n      dup2\n      mstore\n      0x04\n      add\n      mload(0x40)\n      dup1\n      swap2\n      sub\n      swap1\n      revert\n        /* \"packages/contracts/src/framework/dao/DAORegistry_flattened.sol\":30236:30517  function _setImplementation(address newImplementation) private {... */\n    tag_200:\n        /* \"packages/contracts/src/framework/dao/DAORegistry_flattened.sol\":30313:30330  newImplementation */\n      dup1\n      sub(shl(0xa0, 0x01), 0x01)\n        /* \"packages/contracts/src/framework/dao/DAORegistry_flattened.sol\":30313:30342  newImplementation.code.length */\n      and\n      extcodesize\n        /* \"packages/contracts/src/framework/dao/DAORegistry_flattened.sol\":30346:30347  0 */\n      0x00\n        /* \"packages/contracts/src/framework/dao/DAORegistry_flattened.sol\":30313:30347  newImplementation.code.length == 0 */\n      sub\n        /* \"packages/contracts/src/framework/dao/DAORegistry_flattened.sol\":30309:30428  if (newImplementation.code.length == 0) {... */\n      tag_213\n      jumpi\n        /* \"packages/contracts/src/framework/dao/DAORegistry_flattened.sol\":30370:30417  ERC1967InvalidImplementation(newImplementation) */\n      mload(0x40)\n      shl(0xe0, 0x4c9c8ce3)\n      dup2\n      mstore\n      sub(shl(0xa0, 0x01), 0x01)\n        /* \"#utility.yul\":178:210   */\n      dup3\n      and\n        /* \"packages/contracts/src/framework/dao/DAORegistry_flattened.sol\":30370:30417  ERC1967InvalidImplementation(newImplementation) */\n      0x04\n      dup3\n      add\n        /* \"#utility.yul\":160:211   */\n      mstore\n        /* \"#utility.yul\":133:151   */\n      0x24\n      add\n        /* \"packages/contracts/src/framework/dao/DAORegistry_flattened.sol\":30370:30417  ERC1967InvalidImplementation(newImplementation) */\n      tag_111\n        /* \"#utility.yul\":14:217   */\n      jump\n        /* \"packages/contracts/src/framework/dao/DAORegistry_flattened.sol\":30309:30428  if (newImplementation.code.length == 0) {... */\n    tag_213:\n      0x00\n      dup1\n      mload\n      0x20\n      data_75b20eef8615de99c108b05f0dbda081c91897128caa336d75dffb97c4132b4d\n      dup4\n      codecopy\n      dup2\n      mload\n      swap2\n      mstore\n        /* \"packages/contracts/src/framework/dao/DAORegistry_flattened.sol\":30437:30510  StorageSlot.getAddressSlot(IMPLEMENTATION_SLOT).value = newImplementation */\n      dup1\n      sload\n      not(sub(shl(0xa0, 0x01), 0x01))\n      and\n      sub(shl(0xa0, 0x01), 0x01)\n      swap3\n      swap1\n      swap3\n      and\n      swap2\n      swap1\n      swap2\n      or\n      swap1\n      sstore\n        /* \"packages/contracts/src/framework/dao/DAORegistry_flattened.sol\":30236:30517  function _setImplementation(address newImplementation) private {... */\n      jump\t// out\n        /* \"packages/contracts/src/framework/dao/DAORegistry_flattened.sol\":25509:25762  function functionDelegateCall(address target, bytes memory data) internal returns (bytes memory) {... */\n    tag_203:\n        /* \"packages/contracts/src/framework/dao/DAORegistry_flattened.sol\":25592:25604  bytes memory */\n      0x60\n        /* \"packages/contracts/src/framework/dao/DAORegistry_flattened.sol\":25617:25629  bool success */\n      0x00\n        /* \"packages/contracts/src/framework/dao/DAORegistry_flattened.sol\":25631:25654  bytes memory returndata */\n      dup1\n        /* \"packages/contracts/src/framework/dao/DAORegistry_flattened.sol\":25658:25664  target */\n      dup5\n      sub(shl(0xa0, 0x01), 0x01)\n        /* \"packages/contracts/src/framework/dao/DAORegistry_flattened.sol\":25658:25677  target.delegatecall */\n      and\n        /* \"packages/contracts/src/framework/dao/DAORegistry_flattened.sol\":25678:25682  data */\n      dup5\n        /* \"packages/contracts/src/framework/dao/DAORegistry_flattened.sol\":25658:25683  target.delegatecall(data) */\n      mload(0x40)\n      tag_217\n      swap2\n      swap1\n      tag_218\n      jump\t// in\n    tag_217:\n      0x00\n      mload(0x40)\n      dup1\n      dup4\n      sub\n      dup2\n      dup6\n      gas\n      delegatecall\n      swap2\n      pop\n      pop\n      returndatasize\n      dup1\n      0x00\n      dup2\n      eq\n      tag_221\n      jumpi\n      mload(0x40)\n      swap2\n      pop\n      and(add(returndatasize, 0x3f), not(0x1f))\n      dup3\n      add\n      0x40\n      mstore\n      returndatasize\n      dup3\n      mstore\n      returndatasize\n      0x00\n      0x20\n      dup5\n      add\n      returndatacopy\n      jump(tag_220)\n    tag_221:\n      0x60\n      swap2\n      pop\n    tag_220:\n      pop\n        /* \"packages/contracts/src/framework/dao/DAORegistry_flattened.sol\":25616:25683  (bool success, bytes memory returndata) = target.delegatecall(data) */\n      swap2\n      pop\n      swap2\n      pop\n        /* \"packages/contracts/src/framework/dao/DAORegistry_flattened.sol\":25700:25755  verifyCallResultFromTarget(target, success, returndata) */\n      tag_222\n        /* \"packages/contracts/src/framework/dao/DAORegistry_flattened.sol\":25727:25733  target */\n      dup6\n        /* \"packages/contracts/src/framework/dao/DAORegistry_flattened.sol\":25735:25742  success */\n      dup4\n        /* \"packages/contracts/src/framework/dao/DAORegistry_flattened.sol\":25744:25754  returndata */\n      dup4\n        /* \"packages/contracts/src/framework/dao/DAORegistry_flattened.sol\":25700:25726  verifyCallResultFromTarget */\n      tag_223\n        /* \"packages/contracts/src/framework/dao/DAORegistry_flattened.sol\":25700:25755  verifyCallResultFromTarget(target, success, returndata) */\n      jump\t// in\n    tag_222:\n        /* \"packages/contracts/src/framework/dao/DAORegistry_flattened.sol\":25693:25755  return verifyCallResultFromTarget(target, success, returndata) */\n      swap6\n        /* \"packages/contracts/src/framework/dao/DAORegistry_flattened.sol\":25509:25762  function functionDelegateCall(address target, bytes memory data) internal returns (bytes memory) {... */\n      swap5\n      pop\n      pop\n      pop\n      pop\n      pop\n      jump\t// out\n        /* \"packages/contracts/src/framework/dao/DAORegistry_flattened.sol\":34648:34770  function _checkNonPayable() private {... */\n    tag_206:\n        /* \"packages/contracts/src/framework/dao/DAORegistry_flattened.sol\":34698:34707  msg.value */\n      callvalue\n        /* \"packages/contracts/src/framework/dao/DAORegistry_flattened.sol\":34698:34711  msg.value > 0 */\n      iszero\n        /* \"packages/contracts/src/framework/dao/DAORegistry_flattened.sol\":34694:34764  if (msg.value > 0) {... */\n      tag_157\n      jumpi\n        /* \"packages/contracts/src/framework/dao/DAORegistry_flattened.sol\":34734:34753  ERC1967NonPayable() */\n      mload(0x40)\n      shl(0xe0, 0xb398979f)\n      dup2\n      mstore\n      0x04\n      add\n      mload(0x40)\n      dup1\n      swap2\n      sub\n      swap1\n      revert\n        /* \"packages/contracts/src/framework/dao/DAORegistry_flattened.sol\":26028:26610  function verifyCallResultFromTarget(... */\n    tag_223:\n        /* \"packages/contracts/src/framework/dao/DAORegistry_flattened.sol\":26172:26184  bytes memory */\n      0x60\n        /* \"packages/contracts/src/framework/dao/DAORegistry_flattened.sol\":26201:26208  success */\n      dup3\n        /* \"packages/contracts/src/framework/dao/DAORegistry_flattened.sol\":26196:26604  if (!success) {... */\n      tag_229\n      jumpi\n        /* \"packages/contracts/src/framework/dao/DAORegistry_flattened.sol\":26224:26243  _revert(returndata) */\n      tag_230\n        /* \"packages/contracts/src/framework/dao/DAORegistry_flattened.sol\":26232:26242  returndata */\n      dup3\n        /* \"packages/contracts/src/framework/dao/DAORegistry_flattened.sol\":26224:26231  _revert */\n      tag_231\n        /* \"packages/contracts/src/framework/dao/DAORegistry_flattened.sol\":26224:26243  _revert(returndata) */\n      jump\t// in\n    tag_230:\n        /* \"packages/contracts/src/framework/dao/DAORegistry_flattened.sol\":26196:26604  if (!success) {... */\n      jump(tag_232)\n    tag_229:\n        /* \"packages/contracts/src/framework/dao/DAORegistry_flattened.sol\":26448:26465  returndata.length */\n      dup2\n      mload\n        /* \"packages/contracts/src/framework/dao/DAORegistry_flattened.sol\":26448:26470  returndata.length == 0 */\n      iszero\n        /* \"packages/contracts/src/framework/dao/DAORegistry_flattened.sol\":26448:26497  returndata.length == 0 && target.code.length == 0 */\n      dup1\n      iszero\n      tag_233\n      jumpi\n      pop\n      sub(shl(0xa0, 0x01), 0x01)\n        /* \"packages/contracts/src/framework/dao/DAORegistry_flattened.sol\":26474:26492  target.code.length */\n      dup5\n      and\n      extcodesize\n        /* \"packages/contracts/src/framework/dao/DAORegistry_flattened.sol\":26474:26497  target.code.length == 0 */\n      iszero\n        /* \"packages/contracts/src/framework/dao/DAORegistry_flattened.sol\":26448:26497  returndata.length == 0 && target.code.length == 0 */\n    tag_233:\n        /* \"packages/contracts/src/framework/dao/DAORegistry_flattened.sol\":26444:26563  if (returndata.length == 0 && target.code.length == 0) {... */\n      iszero\n      tag_234\n      jumpi\n        /* \"packages/contracts/src/framework/dao/DAORegistry_flattened.sol\":26524:26548  AddressEmptyCode(target) */\n      mload(0x40)\n      shl(0xe0, 0x9996b315)\n      dup2\n      mstore\n      sub(shl(0xa0, 0x01), 0x01)\n        /* \"#utility.yul\":178:210   */\n      dup6\n      and\n        /* \"packages/contracts/src/framework/dao/DAORegistry_flattened.sol\":26524:26548  AddressEmptyCode(target) */\n      0x04\n      dup3\n      add\n        /* \"#utility.yul\":160:211   */\n      mstore\n        /* \"#utility.yul\":133:151   */\n      0x24\n      add\n        /* \"packages/contracts/src/framework/dao/DAORegistry_flattened.sol\":26524:26548  AddressEmptyCode(target) */\n      tag_111\n        /* \"#utility.yul\":14:217   */\n      jump\n        /* \"packages/contracts/src/framework/dao/DAORegistry_flattened.sol\":26444:26563  if (returndata.length == 0 && target.code.length == 0) {... */\n    tag_234:\n      pop\n        /* \"packages/contracts/src/framework/dao/DAORegistry_flattened.sol\":26583:26593  returndata */\n      dup1\n        /* \"packages/contracts/src/framework/dao/DAORegistry_flattened.sol\":26196:26604  if (!success) {... */\n    tag_232:\n        /* \"packages/contracts/src/framework/dao/DAORegistry_flattened.sol\":26028:26610  function verifyCallResultFromTarget(... */\n      swap4\n      swap3\n      pop\n      pop\n      pop\n      jump\t// out\n        /* \"packages/contracts/src/framework/dao/DAORegistry_flattened.sol\":27146:27662  function _revert(bytes memory returndata) private pure {... */\n    tag_231:\n        /* \"packages/contracts/src/framework/dao/DAORegistry_flattened.sol\":27277:27294  returndata.length */\n      dup1\n      mload\n        /* \"packages/contracts/src/framework/dao/DAORegistry_flattened.sol\":27277:27298  returndata.length > 0 */\n      iszero\n        /* \"packages/contracts/src/framework/dao/DAORegistry_flattened.sol\":27273:27656  if (returndata.length > 0) {... */\n      tag_237\n      jumpi\n        /* \"packages/contracts/src/framework/dao/DAORegistry_flattened.sol\":27505:27515  returndata */\n      dup1\n        /* \"packages/contracts/src/framework/dao/DAORegistry_flattened.sol\":27499:27516  mload(returndata) */\n      mload\n        /* \"packages/contracts/src/framework/dao/DAORegistry_flattened.sol\":27561:27576  returndata_size */\n      dup1\n        /* \"packages/contracts/src/framework/dao/DAORegistry_flattened.sol\":27548:27558  returndata */\n      dup3\n        /* \"packages/contracts/src/framework/dao/DAORegistry_flattened.sol\":27544:27546  32 */\n      0x20\n        /* \"packages/contracts/src/framework/dao/DAORegistry_flattened.sol\":27540:27559  add(32, returndata) */\n      add\n        /* \"packages/contracts/src/framework/dao/DAORegistry_flattened.sol\":27533:27577  revert(add(32, returndata), returndata_size) */\n      revert\n        /* \"packages/contracts/src/framework/dao/DAORegistry_flattened.sol\":27273:27656  if (returndata.length > 0) {... */\n    tag_237:\n        /* \"packages/contracts/src/framework/dao/DAORegistry_flattened.sol\":27628:27645  FailedInnerCall() */\n      mload(0x40)\n      shl(0xe1, 0x0a12f521)\n      dup2\n      mstore\n      0x04\n      add\n      mload(0x40)\n      dup1\n      swap2\n      sub\n      swap1\n      revert\n        /* \"packages/contracts/src/framework/dao/DAORegistry_flattened.sol\":27273:27656  if (returndata.length > 0) {... */\n    tag_238:\n        /* \"packages/contracts/src/framework/dao/DAORegistry_flattened.sol\":27146:27662  function _revert(bytes memory returndata) private pure {... */\n      pop\n      jump\t// out\n    tag_79:\n      mload(0x40)\n      dup1\n      0x60\n      add\n      0x40\n      mstore\n      dup1\n      0x03\n      swap1\n      0x20\n      dup3\n      mul\n      dup1\n      calldatasize\n      dup4\n      calldatacopy\n      pop\n      swap2\n      swap3\n      swap2\n      pop\n      pop\n      jump\t// out\n        /* \"#utility.yul\":222:723   */\n    tag_26:\n        /* \"#utility.yul\":398:400   */\n      0x60\n        /* \"#utility.yul\":383:401   */\n      dup2\n      add\n        /* \"#utility.yul\":387:396   */\n      dup2\n        /* \"#utility.yul\":478:484   */\n      dup4\n        /* \"#utility.yul\":356:360   */\n      0x00\n        /* \"#utility.yul\":512:717   */\n    tag_245:\n        /* \"#utility.yul\":526:530   */\n      0x03\n        /* \"#utility.yul\":523:524   */\n      dup2\n        /* \"#utility.yul\":520:531   */\n      lt\n        /* \"#utility.yul\":512:717   */\n      iszero\n      tag_247\n      jumpi\n        /* \"#utility.yul\":589:602   */\n      dup2\n      mload\n        /* \"#utility.yul\":604:608   */\n      0xff\n        /* \"#utility.yul\":585:609   */\n      and\n        /* \"#utility.yul\":573:610   */\n      dup4\n      mstore\n        /* \"#utility.yul\":633:637   */\n      0x20\n        /* \"#utility.yul\":657:669   */\n      swap3\n      dup4\n      add\n      swap3\n        /* \"#utility.yul\":692:707   */\n      swap1\n      swap2\n      add\n      swap1\n        /* \"#utility.yul\":546:547   */\n      0x01\n        /* \"#utility.yul\":539:548   */\n      add\n        /* \"#utility.yul\":512:717   */\n      jump(tag_245)\n    tag_247:\n        /* \"#utility.yul\":516:519   */\n      pop\n      pop\n      pop\n        /* \"#utility.yul\":222:723   */\n      swap3\n      swap2\n      pop\n      pop\n      jump\t// out\n        /* \"#utility.yul\":1169:1300   */\n    tag_239:\n      sub(shl(0xa0, 0x01), 0x01)\n        /* \"#utility.yul\":1244:1275   */\n      dup2\n      and\n        /* \"#utility.yul\":1234:1276   */\n      dup2\n      eq\n        /* \"#utility.yul\":1224:1294   */\n      tag_238\n      jumpi\n        /* \"#utility.yul\":1290:1291   */\n      0x00\n        /* \"#utility.yul\":1287:1288   */\n      dup1\n        /* \"#utility.yul\":1280:1292   */\n      revert\n        /* \"#utility.yul\":1305:1432   */\n    tag_240:\n        /* \"#utility.yul\":1366:1376   */\n      0x4e487b71\n        /* \"#utility.yul\":1361:1364   */\n      0xe0\n        /* \"#utility.yul\":1357:1377   */\n      shl\n        /* \"#utility.yul\":1354:1355   */\n      0x00\n        /* \"#utility.yul\":1347:1378   */\n      mstore\n        /* \"#utility.yul\":1397:1401   */\n      0x41\n        /* \"#utility.yul\":1394:1395   */\n      0x04\n        /* \"#utility.yul\":1387:1402   */\n      mstore\n        /* \"#utility.yul\":1421:1425   */\n      0x24\n        /* \"#utility.yul\":1418:1419   */\n      0x00\n        /* \"#utility.yul\":1411:1426   */\n      revert\n        /* \"#utility.yul\":1437:2493   */\n    tag_39:\n        /* \"#utility.yul\":1514:1520   */\n      0x00\n        /* \"#utility.yul\":1522:1528   */\n      dup1\n        /* \"#utility.yul\":1575:1577   */\n      0x40\n        /* \"#utility.yul\":1563:1572   */\n      dup4\n        /* \"#utility.yul\":1554:1561   */\n      dup6\n        /* \"#utility.yul\":1550:1573   */\n      sub\n        /* \"#utility.yul\":1546:1578   */\n      slt\n        /* \"#utility.yul\":1543:1595   */\n      iszero\n      tag_254\n      jumpi\n        /* \"#utility.yul\":1591:1592   */\n      0x00\n        /* \"#utility.yul\":1588:1589   */\n      dup1\n        /* \"#utility.yul\":1581:1593   */\n      revert\n        /* \"#utility.yul\":1543:1595   */\n    tag_254:\n        /* \"#utility.yul\":1630:1639   */\n      dup3\n        /* \"#utility.yul\":1617:1640   */\n      calldataload\n        /* \"#utility.yul\":1649:1680   */\n      tag_255\n        /* \"#utility.yul\":1674:1679   */\n      dup2\n        /* \"#utility.yul\":1649:1680   */\n      tag_239\n      jump\t// in\n    tag_255:\n        /* \"#utility.yul\":1699:1704   */\n      swap2\n      pop\n        /* \"#utility.yul\":1755:1757   */\n      0x20\n        /* \"#utility.yul\":1740:1758   */\n      dup4\n      add\n        /* \"#utility.yul\":1727:1759   */\n      calldataload\n        /* \"#utility.yul\":1778:1796   */\n      0xffffffffffffffff\n        /* \"#utility.yul\":1808:1822   */\n      dup1\n      dup3\n      gt\n        /* \"#utility.yul\":1805:1839   */\n      iszero\n      tag_256\n      jumpi\n        /* \"#utility.yul\":1835:1836   */\n      0x00\n        /* \"#utility.yul\":1832:1833   */\n      dup1\n        /* \"#utility.yul\":1825:1837   */\n      revert\n        /* \"#utility.yul\":1805:1839   */\n    tag_256:\n        /* \"#utility.yul\":1873:1879   */\n      dup2\n        /* \"#utility.yul\":1862:1871   */\n      dup6\n        /* \"#utility.yul\":1858:1880   */\n      add\n        /* \"#utility.yul\":1848:1880   */\n      swap2\n      pop\n        /* \"#utility.yul\":1918:1925   */\n      dup6\n        /* \"#utility.yul\":1911:1915   */\n      0x1f\n        /* \"#utility.yul\":1907:1909   */\n      dup4\n        /* \"#utility.yul\":1903:1916   */\n      add\n        /* \"#utility.yul\":1899:1926   */\n      slt\n        /* \"#utility.yul\":1889:1944   */\n      tag_257\n      jumpi\n        /* \"#utility.yul\":1940:1941   */\n      0x00\n        /* \"#utility.yul\":1937:1938   */\n      dup1\n        /* \"#utility.yul\":1930:1942   */\n      revert\n        /* \"#utility.yul\":1889:1944   */\n    tag_257:\n        /* \"#utility.yul\":1976:1978   */\n      dup2\n        /* \"#utility.yul\":1963:1979   */\n      calldataload\n        /* \"#utility.yul\":1998:2000   */\n      dup2\n        /* \"#utility.yul\":1994:1996   */\n      dup2\n        /* \"#utility.yul\":1991:2001   */\n      gt\n        /* \"#utility.yul\":1988:2024   */\n      iszero\n      tag_259\n      jumpi\n        /* \"#utility.yul\":2004:2022   */\n      tag_259\n      tag_240\n      jump\t// in\n    tag_259:\n        /* \"#utility.yul\":2079:2081   */\n      0x40\n        /* \"#utility.yul\":2073:2082   */\n      mload\n        /* \"#utility.yul\":2047:2049   */\n      0x1f\n        /* \"#utility.yul\":2133:2146   */\n      dup3\n      add\n      not(0x1f)\n        /* \"#utility.yul\":2129:2151   */\n      swap1\n      dup2\n      and\n        /* \"#utility.yul\":2153:2155   */\n      0x3f\n        /* \"#utility.yul\":2125:2156   */\n      add\n        /* \"#utility.yul\":2121:2161   */\n      and\n        /* \"#utility.yul\":2109:2162   */\n      dup2\n      add\n      swap1\n        /* \"#utility.yul\":2177:2195   */\n      dup4\n      dup3\n      gt\n        /* \"#utility.yul\":2197:2219   */\n      dup2\n      dup4\n      lt\n        /* \"#utility.yul\":2174:2220   */\n      or\n        /* \"#utility.yul\":2171:2243   */\n      iszero\n      tag_261\n      jumpi\n        /* \"#utility.yul\":2223:2241   */\n      tag_261\n      tag_240\n      jump\t// in\n    tag_261:\n        /* \"#utility.yul\":2263:2273   */\n      dup2\n        /* \"#utility.yul\":2259:2261   */\n      0x40\n        /* \"#utility.yul\":2252:2274   */\n      mstore\n        /* \"#utility.yul\":2298:2300   */\n      dup3\n        /* \"#utility.yul\":2290:2296   */\n      dup2\n        /* \"#utility.yul\":2283:2301   */\n      mstore\n        /* \"#utility.yul\":2338:2345   */\n      dup9\n        /* \"#utility.yul\":2333:2335   */\n      0x20\n        /* \"#utility.yul\":2328:2330   */\n      dup5\n        /* \"#utility.yul\":2324:2326   */\n      dup8\n        /* \"#utility.yul\":2320:2331   */\n      add\n        /* \"#utility.yul\":2316:2336   */\n      add\n        /* \"#utility.yul\":2313:2346   */\n      gt\n        /* \"#utility.yul\":2310:2363   */\n      iszero\n      tag_262\n      jumpi\n        /* \"#utility.yul\":2359:2360   */\n      0x00\n        /* \"#utility.yul\":2356:2357   */\n      dup1\n        /* \"#utility.yul\":2349:2361   */\n      revert\n        /* \"#utility.yul\":2310:2363   */\n    tag_262:\n        /* \"#utility.yul\":2415:2417   */\n      dup3\n        /* \"#utility.yul\":2410:2412   */\n      0x20\n        /* \"#utility.yul\":2406:2408   */\n      dup7\n        /* \"#utility.yul\":2402:2413   */\n      add\n        /* \"#utility.yul\":2397:2399   */\n      0x20\n        /* \"#utility.yul\":2389:2395   */\n      dup4\n        /* \"#utility.yul\":2385:2400   */\n      add\n        /* \"#utility.yul\":2372:2418   */\n      calldatacopy\n        /* \"#utility.yul\":2460:2461   */\n      0x00\n        /* \"#utility.yul\":2455:2457   */\n      0x20\n        /* \"#utility.yul\":2450:2452   */\n      dup5\n        /* \"#utility.yul\":2442:2448   */\n      dup4\n        /* \"#utility.yul\":2438:2453   */\n      add\n        /* \"#utility.yul\":2434:2458   */\n      add\n        /* \"#utility.yul\":2427:2462   */\n      mstore\n        /* \"#utility.yul\":2481:2487   */\n      dup1\n        /* \"#utility.yul\":2471:2487   */\n      swap6\n      pop\n      pop\n      pop\n      pop\n      pop\n      pop\n        /* \"#utility.yul\":1437:2493   */\n      swap3\n      pop\n      swap3\n      swap1\n      pop\n      jump\t// out\n        /* \"#utility.yul\":2680:3161   */\n    tag_49:\n        /* \"#utility.yul\":2782:2788   */\n      0x00\n        /* \"#utility.yul\":2790:2796   */\n      dup1\n        /* \"#utility.yul\":2798:2804   */\n      0x00\n        /* \"#utility.yul\":2851:2853   */\n      0x60\n        /* \"#utility.yul\":2839:2848   */\n      dup5\n        /* \"#utility.yul\":2830:2837   */\n      dup7\n        /* \"#utility.yul\":2826:2849   */\n      sub\n        /* \"#utility.yul\":2822:2854   */\n      slt\n        /* \"#utility.yul\":2819:2871   */\n      iszero\n      tag_265\n      jumpi\n        /* \"#utility.yul\":2867:2868   */\n      0x00\n        /* \"#utility.yul\":2864:2865   */\n      dup1\n        /* \"#utility.yul\":2857:2869   */\n      revert\n        /* \"#utility.yul\":2819:2871   */\n    tag_265:\n        /* \"#utility.yul\":2906:2915   */\n      dup4\n        /* \"#utility.yul\":2893:2916   */\n      calldataload\n        /* \"#utility.yul\":2925:2956   */\n      tag_266\n        /* \"#utility.yul\":2950:2955   */\n      dup2\n        /* \"#utility.yul\":2925:2956   */\n      tag_239\n      jump\t// in\n    tag_266:\n        /* \"#utility.yul\":2975:2980   */\n      swap3\n      pop\n        /* \"#utility.yul\":3032:3034   */\n      0x20\n        /* \"#utility.yul\":3017:3035   */\n      dup5\n      add\n        /* \"#utility.yul\":3004:3036   */\n      calldataload\n        /* \"#utility.yul\":3045:3078   */\n      tag_267\n        /* \"#utility.yul\":3004:3036   */\n      dup2\n        /* \"#utility.yul\":3045:3078   */\n      tag_239\n      jump\t// in\n    tag_267:\n        /* \"#utility.yul\":2680:3161   */\n      swap3\n      swap6\n        /* \"#utility.yul\":3097:3104   */\n      swap3\n      swap5\n      pop\n      pop\n      pop\n        /* \"#utility.yul\":3151:3153   */\n      0x40\n        /* \"#utility.yul\":3136:3154   */\n      swap2\n      swap1\n      swap2\n      add\n        /* \"#utility.yul\":3123:3155   */\n      calldataload\n      swap1\n        /* \"#utility.yul\":2680:3161   */\n      jump\t// out\n        /* \"#utility.yul\":3166:3481   */\n    tag_54:\n        /* \"#utility.yul\":3234:3240   */\n      0x00\n        /* \"#utility.yul\":3242:3248   */\n      dup1\n        /* \"#utility.yul\":3295:3297   */\n      0x40\n        /* \"#utility.yul\":3283:3292   */\n      dup4\n        /* \"#utility.yul\":3274:3281   */\n      dup6\n        /* \"#utility.yul\":3270:3293   */\n      sub\n        /* \"#utility.yul\":3266:3298   */\n      slt\n        /* \"#utility.yul\":3263:3315   */\n      iszero\n      tag_269\n      jumpi\n        /* \"#utility.yul\":3311:3312   */\n      0x00\n        /* \"#utility.yul\":3308:3309   */\n      dup1\n        /* \"#utility.yul\":3301:3313   */\n      revert\n        /* \"#utility.yul\":3263:3315   */\n    tag_269:\n        /* \"#utility.yul\":3347:3356   */\n      dup3\n        /* \"#utility.yul\":3334:3357   */\n      calldataload\n        /* \"#utility.yul\":3324:3357   */\n      swap2\n      pop\n        /* \"#utility.yul\":3407:3409   */\n      0x20\n        /* \"#utility.yul\":3396:3405   */\n      dup4\n        /* \"#utility.yul\":3392:3410   */\n      add\n        /* \"#utility.yul\":3379:3411   */\n      calldataload\n        /* \"#utility.yul\":3420:3451   */\n      tag_270\n        /* \"#utility.yul\":3445:3450   */\n      dup2\n        /* \"#utility.yul\":3420:3451   */\n      tag_239\n      jump\t// in\n    tag_270:\n        /* \"#utility.yul\":3470:3475   */\n      dup1\n        /* \"#utility.yul\":3460:3475   */\n      swap2\n      pop\n      pop\n        /* \"#utility.yul\":3166:3481   */\n      swap3\n      pop\n      swap3\n      swap1\n      pop\n      jump\t// out\n        /* \"#utility.yul\":3486:3736   */\n    tag_241:\n        /* \"#utility.yul\":3571:3572   */\n      0x00\n        /* \"#utility.yul\":3581:3694   */\n    tag_272:\n        /* \"#utility.yul\":3595:3601   */\n      dup4\n        /* \"#utility.yul\":3592:3593   */\n      dup2\n        /* \"#utility.yul\":3589:3602   */\n      lt\n        /* \"#utility.yul\":3581:3694   */\n      iszero\n      tag_274\n      jumpi\n        /* \"#utility.yul\":3671:3682   */\n      dup2\n      dup2\n      add\n        /* \"#utility.yul\":3665:3683   */\n      mload\n        /* \"#utility.yul\":3652:3663   */\n      dup4\n      dup3\n      add\n        /* \"#utility.yul\":3645:3684   */\n      mstore\n        /* \"#utility.yul\":3617:3619   */\n      0x20\n        /* \"#utility.yul\":3610:3620   */\n      add\n        /* \"#utility.yul\":3581:3694   */\n      jump(tag_272)\n    tag_274:\n      pop\n      pop\n        /* \"#utility.yul\":3728:3729   */\n      0x00\n        /* \"#utility.yul\":3710:3726   */\n      swap2\n      add\n        /* \"#utility.yul\":3703:3730   */\n      mstore\n        /* \"#utility.yul\":3486:3736   */\n      jump\t// out\n        /* \"#utility.yul\":3741:4137   */\n    tag_64:\n        /* \"#utility.yul\":3890:3892   */\n      0x20\n        /* \"#utility.yul\":3879:3888   */\n      dup2\n        /* \"#utility.yul\":3872:3893   */\n      mstore\n        /* \"#utility.yul\":3853:3857   */\n      0x00\n        /* \"#utility.yul\":3922:3928   */\n      dup3\n        /* \"#utility.yul\":3916:3929   */\n      mload\n        /* \"#utility.yul\":3965:3971   */\n      dup1\n        /* \"#utility.yul\":3960:3962   */\n      0x20\n        /* \"#utility.yul\":3949:3958   */\n      dup5\n        /* \"#utility.yul\":3945:3963   */\n      add\n        /* \"#utility.yul\":3938:3972   */\n      mstore\n        /* \"#utility.yul\":3981:4060   */\n      tag_276\n        /* \"#utility.yul\":4053:4059   */\n      dup2\n        /* \"#utility.yul\":4048:4050   */\n      0x40\n        /* \"#utility.yul\":4037:4046   */\n      dup6\n        /* \"#utility.yul\":4033:4051   */\n      add\n        /* \"#utility.yul\":4028:4030   */\n      0x20\n        /* \"#utility.yul\":4020:4026   */\n      dup8\n        /* \"#utility.yul\":4016:4031   */\n      add\n        /* \"#utility.yul\":3981:4060   */\n      tag_241\n      jump\t// in\n    tag_276:\n        /* \"#utility.yul\":4121:4123   */\n      0x1f\n        /* \"#utility.yul\":4100:4115   */\n      add\n      not(0x1f)\n        /* \"#utility.yul\":4096:4125   */\n      and\n        /* \"#utility.yul\":4081:4126   */\n      swap2\n      swap1\n      swap2\n      add\n        /* \"#utility.yul\":4128:4130   */\n      0x40\n        /* \"#utility.yul\":4077:4131   */\n      add\n      swap3\n        /* \"#utility.yul\":3741:4137   */\n      swap2\n      pop\n      pop\n      jump\t// out\n        /* \"#utility.yul\":4142:4389   */\n    tag_72:\n        /* \"#utility.yul\":4201:4207   */\n      0x00\n        /* \"#utility.yul\":4254:4256   */\n      0x20\n        /* \"#utility.yul\":4242:4251   */\n      dup3\n        /* \"#utility.yul\":4233:4240   */\n      dup5\n        /* \"#utility.yul\":4229:4252   */\n      sub\n        /* \"#utility.yul\":4225:4257   */\n      slt\n        /* \"#utility.yul\":4222:4274   */\n      iszero\n      tag_278\n      jumpi\n        /* \"#utility.yul\":4270:4271   */\n      0x00\n        /* \"#utility.yul\":4267:4268   */\n      dup1\n        /* \"#utility.yul\":4260:4272   */\n      revert\n        /* \"#utility.yul\":4222:4274   */\n    tag_278:\n        /* \"#utility.yul\":4309:4318   */\n      dup2\n        /* \"#utility.yul\":4296:4319   */\n      calldataload\n        /* \"#utility.yul\":4328:4359   */\n      tag_232\n        /* \"#utility.yul\":4353:4358   */\n      dup2\n        /* \"#utility.yul\":4328:4359   */\n      tag_239\n      jump\t// in\n        /* \"#utility.yul\":4394:4645   */\n    tag_109:\n        /* \"#utility.yul\":4464:4470   */\n      0x00\n        /* \"#utility.yul\":4517:4519   */\n      0x20\n        /* \"#utility.yul\":4505:4514   */\n      dup3\n        /* \"#utility.yul\":4496:4503   */\n      dup5\n        /* \"#utility.yul\":4492:4515   */\n      sub\n        /* \"#utility.yul\":4488:4520   */\n      slt\n        /* \"#utility.yul\":4485:4537   */\n      iszero\n      tag_281\n      jumpi\n        /* \"#utility.yul\":4533:4534   */\n      0x00\n        /* \"#utility.yul\":4530:4531   */\n      dup1\n        /* \"#utility.yul\":4523:4535   */\n      revert\n        /* \"#utility.yul\":4485:4537   */\n    tag_281:\n        /* \"#utility.yul\":4565:4574   */\n      dup2\n        /* \"#utility.yul\":4559:4575   */\n      mload\n        /* \"#utility.yul\":4584:4615   */\n      tag_232\n        /* \"#utility.yul\":4609:4614   */\n      dup2\n        /* \"#utility.yul\":4584:4615   */\n      tag_239\n      jump\t// in\n        /* \"#utility.yul\":5745:5929   */\n    tag_137:\n        /* \"#utility.yul\":5815:5821   */\n      0x00\n        /* \"#utility.yul\":5868:5870   */\n      0x20\n        /* \"#utility.yul\":5856:5865   */\n      dup3\n        /* \"#utility.yul\":5847:5854   */\n      dup5\n        /* \"#utility.yul\":5843:5866   */\n      sub\n        /* \"#utility.yul\":5839:5871   */\n      slt\n        /* \"#utility.yul\":5836:5888   */\n      iszero\n      tag_288\n      jumpi\n        /* \"#utility.yul\":5884:5885   */\n      0x00\n        /* \"#utility.yul\":5881:5882   */\n      dup1\n        /* \"#utility.yul\":5874:5886   */\n      revert\n        /* \"#utility.yul\":5836:5888   */\n    tag_288:\n      pop\n        /* \"#utility.yul\":5907:5923   */\n      mload\n      swap2\n        /* \"#utility.yul\":5745:5929   */\n      swap1\n      pop\n      jump\t// out\n        /* \"#utility.yul\":5934:6596   */\n    tag_187:\n      sub(shl(0xa0, 0x01), 0x01)\n        /* \"#utility.yul\":6213:6228   */\n      dup7\n      dup2\n      and\n        /* \"#utility.yul\":6195:6229   */\n      dup3\n      mstore\n        /* \"#utility.yul\":6265:6280   */\n      dup6\n      and\n        /* \"#utility.yul\":6260:6262   */\n      0x20\n        /* \"#utility.yul\":6245:6263   */\n      dup3\n      add\n        /* \"#utility.yul\":6238:6281   */\n      mstore\n        /* \"#utility.yul\":6312:6314   */\n      0x40\n        /* \"#utility.yul\":6297:6315   */\n      dup2\n      add\n        /* \"#utility.yul\":6290:6324   */\n      dup5\n      swap1\n      mstore\n        /* \"#utility.yul\":6360:6363   */\n      0x80\n        /* \"#utility.yul\":6355:6357   */\n      0x60\n        /* \"#utility.yul\":6340:6358   */\n      dup3\n      add\n        /* \"#utility.yul\":6333:6364   */\n      dup2\n      swap1\n      mstore\n        /* \"#utility.yul\":6380:6399   */\n      dup2\n      add\n        /* \"#utility.yul\":6373:6408   */\n      dup3\n      swap1\n      mstore\n        /* \"#utility.yul\":6138:6142   */\n      0x00\n        /* \"#utility.yul\":6401:6407   */\n      dup3\n        /* \"#utility.yul\":6451:6457   */\n      dup5\n        /* \"#utility.yul\":6175:6178   */\n      0xa0\n        /* \"#utility.yul\":6430:6449   */\n      dup5\n      add\n        /* \"#utility.yul\":6417:6466   */\n      calldatacopy\n        /* \"#utility.yul\":6516:6517   */\n      0x00\n        /* \"#utility.yul\":6510:6513   */\n      0xa0\n        /* \"#utility.yul\":6501:6507   */\n      dup5\n        /* \"#utility.yul\":6490:6499   */\n      dup5\n        /* \"#utility.yul\":6486:6508   */\n      add\n        /* \"#utility.yul\":6482:6514   */\n      add\n        /* \"#utility.yul\":6475:6518   */\n      mstore\n        /* \"#utility.yul\":6586:6589   */\n      0xa0\n        /* \"#utility.yul\":6579:6581   */\n      0x1f\n        /* \"#utility.yul\":6575:6582   */\n      not\n        /* \"#utility.yul\":6570:6572   */\n      0x1f\n        /* \"#utility.yul\":6562:6568   */\n      dup6\n        /* \"#utility.yul\":6558:6573   */\n      add\n        /* \"#utility.yul\":6554:6583   */\n      and\n        /* \"#utility.yul\":6543:6552   */\n      dup4\n        /* \"#utility.yul\":6539:6584   */\n      add\n        /* \"#utility.yul\":6535:6590   */\n      add\n        /* \"#utility.yul\":6527:6590   */\n      swap1\n      pop\n        /* \"#utility.yul\":5934:6596   */\n      swap7\n      swap6\n      pop\n      pop\n      pop\n      pop\n      pop\n      pop\n      jump\t// out\n        /* \"#utility.yul\":6601:6878   */\n    tag_191:\n        /* \"#utility.yul\":6668:6674   */\n      0x00\n        /* \"#utility.yul\":6721:6723   */\n      0x20\n        /* \"#utility.yul\":6709:6718   */\n      dup3\n        /* \"#utility.yul\":6700:6707   */\n      dup5\n        /* \"#utility.yul\":6696:6719   */\n      sub\n        /* \"#utility.yul\":6692:6724   */\n      slt\n        /* \"#utility.yul\":6689:6741   */\n      iszero\n      tag_291\n      jumpi\n        /* \"#utility.yul\":6737:6738   */\n      0x00\n        /* \"#utility.yul\":6734:6735   */\n      dup1\n        /* \"#utility.yul\":6727:6739   */\n      revert\n        /* \"#utility.yul\":6689:6741   */\n    tag_291:\n        /* \"#utility.yul\":6769:6778   */\n      dup2\n        /* \"#utility.yul\":6763:6779   */\n      mload\n        /* \"#utility.yul\":6822:6827   */\n      dup1\n        /* \"#utility.yul\":6815:6828   */\n      iszero\n        /* \"#utility.yul\":6808:6829   */\n      iszero\n        /* \"#utility.yul\":6801:6806   */\n      dup2\n        /* \"#utility.yul\":6798:6830   */\n      eq\n        /* \"#utility.yul\":6788:6848   */\n      tag_232\n      jumpi\n        /* \"#utility.yul\":6844:6845   */\n      0x00\n        /* \"#utility.yul\":6841:6842   */\n      dup1\n        /* \"#utility.yul\":6834:6846   */\n      revert\n        /* \"#utility.yul\":7344:7631   */\n    tag_218:\n        /* \"#utility.yul\":7473:7476   */\n      0x00\n        /* \"#utility.yul\":7511:7517   */\n      dup3\n        /* \"#utility.yul\":7505:7518   */\n      mload\n        /* \"#utility.yul\":7527:7593   */\n      tag_295\n        /* \"#utility.yul\":7586:7592   */\n      dup2\n        /* \"#utility.yul\":7581:7584   */\n      dup5\n        /* \"#utility.yul\":7574:7578   */\n      0x20\n        /* \"#utility.yul\":7566:7572   */\n      dup8\n        /* \"#utility.yul\":7562:7579   */\n      add\n        /* \"#utility.yul\":7527:7593   */\n      tag_241\n      jump\t// in\n    tag_295:\n        /* \"#utility.yul\":7609:7625   */\n      swap2\n      swap1\n      swap2\n      add\n      swap3\n        /* \"#utility.yul\":7344:7631   */\n      swap2\n      pop\n      pop\n      jump\t// out\n    stop\n    data_75b20eef8615de99c108b05f0dbda081c91897128caa336d75dffb97c4132b4d 360894a13ba1a3210667c828492db98dca3e2076cc3735a920a3ca505d382bbc\n\n    auxdata: 0xa2646970667358221220aaa51592f2942098e4c5225912d81c30bce75ab284a06aaee11392d2be918f4564736f6c63430008160033\n}\n",
				"bytecode": {
					"linkReferences": {},
					"object": "60a060405230608052348015610013575f80fd5b5061001c610021565b6100d3565b7ff0c57e16840df040f15088dc2f81fe391c3923bec73e23a9662efc9c229c6a00805468010000000000000000900460ff16156100715760405163f92ee8a960e01b815260040160405180910390fd5b80546001600160401b03908116146100d05780546001600160401b0319166001600160401b0390811782556040519081527fc7f505b2f371ae2175ee4913f4499e1f2633a7b5936321eed1cdaeb6115181d29060200160405180910390a15b50565b6080516110066100f95f395f81816108030152818161082c01526109a201526110065ff3fe6080604052600436106100bf575f3560e01c80636133f9851161007c578063ad3cb1cc11610057578063ad3cb1cc14610203578063af7b2fed14610240578063c66485b214610273578063d70754ec14610292575f80fd5b80636133f9851461019257806389bb4145146101b15780639848ba51146101d0575f80fd5b806304f3bcec146100c35780632ae9c600146100ff5780633f15457f146101205780634162169f1461013f5780634f1ef2861461015b57806352d1902d14610170575b5f80fd5b3480156100ce575f80fd5b506034546100e2906001600160a01b031681565b6040516001600160a01b0390911681526020015b60405180910390f35b34801561010a575f80fd5b506101136102a7565b6040516100f69190610cfe565b34801561012b575f80fd5b506032546100e2906001600160a01b031681565b34801561014a575f80fd5b505f546001600160a01b03166100e2565b61016e610169366004610d59565b6102d0565b005b34801561017b575f80fd5b506101846102ef565b6040519081526020016100f6565b34801561019d575f80fd5b5061016e6101ac366004610e17565b61030a565b3480156101bc575f80fd5b5061016e6101cb366004610e55565b6104fc565b3480156101db575f80fd5b506101847fbbdfd23f099d7ed9f535e0f97d2123efb1332b16e023b8359b3b879eaecd3c1481565b34801561020e575f80fd5b50610233604051806040016040528060058152602001640352e302e360dc1b81525081565b6040516100f69190610ea5565b34801561024b575f80fd5b506101847fa1fcba4efb1e94b7648f5e0504bfd39734aead5f17965d12705915d771c859ff81565b34801561027e575f80fd5b5061016e61028d366004610ed7565b610760565b34801561029d575f80fd5b5061018460335481565b6102af610ce0565b506040805160608101825260018152600460208201525f9181019190915290565b6102d86107f8565b6102e18261089e565b6102eb82826108d6565b5050565b5f6102f8610997565b505f80516020610fb183398151915290565b7ff0c57e16840df040f15088dc2f81fe391c3923bec73e23a9662efc9c229c6a008054600160401b810460ff16159067ffffffffffffffff165f8115801561034f5750825b90505f8267ffffffffffffffff16600114801561036b5750303b155b905081158015610379575080155b156103975760405163f92ee8a960e01b815260040160405180910390fd5b845467ffffffffffffffff1916600117855583156103c157845460ff60401b1916600160401b1785555b6103ca886109e0565b603280546001600160a01b0319166001600160a01b0389169081179091556033879055604051630178b8bf60e01b8152600481018890525f9190630178b8bf90602401602060405180830381865afa158015610428573d5f803e3d5ffd5b505050506040513d601f19601f8201168201806040525081019061044c9190610ef2565b90506001600160a01b03811661048c57604051630d7097c560e11b8152600481018890526001600160a01b03821660248201526044015b60405180910390fd5b603480546001600160a01b0319166001600160a01b039290921691909117905583156104f257845460ff60401b19168555604051600181527fc7f505b2f371ae2175ee4913f4499e1f2633a7b5936321eed1cdaeb6115181d29060200160405180910390a15b5050505050505050565b5f547fbbdfd23f099d7ed9f535e0f97d2123efb1332b16e023b8359b3b879eaecd3c1490610538906001600160a01b031630335b845f36610a09565b5f60335484604051602001610557929190918252602082015260400190565b60408051808303601f190181529082905280516020909101206032546302571be360e01b8352600483018290529092505f916001600160a01b03909116906302571be390602401602060405180830381865afa1580156105b9573d5f803e3d5ffd5b505050506040513d601f19601f820116820180604052508101906105dd9190610ef2565b90506001600160a01b038116156106185760405162fcad5d60e11b8152600481018390526001600160a01b0382166024820152604401610483565b6032546033546040516306ab592360e01b81526004810191909152602481018790523060448201526001600160a01b03909116906306ab5923906064016020604051808303815f875af1158015610671573d5f803e3d5ffd5b505050506040513d601f19601f820116820180604052508101906106959190610f0d565b50603254603454604051630c4b7b8560e11b8152600481018590526001600160a01b039182166024820152911690631896f70a906044015f604051808303815f87803b1580156106e3575f80fd5b505af11580156106f5573d5f803e3d5ffd5b505060345460405162d5fa2b60e81b8152600481018690526001600160a01b038881166024830152909116925063d5fa2b0091506044015f604051808303815f87803b158015610743575f80fd5b505af1158015610755573d5f803e3d5ffd5b505050505050505050565b5f547fbbdfd23f099d7ed9f535e0f97d2123efb1332b16e023b8359b3b879eaecd3c1490610798906001600160a01b03163033610530565b6001600160a01b0382166107d557603354604051630d7097c560e11b815260048101919091526001600160a01b0383166024820152604401610483565b50603480546001600160a01b0319166001600160a01b0392909216919091179055565b306001600160a01b037f000000000000000000000000000000000000000000000000000000000000000016148061087e57507f00000000000000000000000000000000000000000000000000000000000000006001600160a01b03166108725f80516020610fb1833981519152546001600160a01b031690565b6001600160a01b031614155b1561089c5760405163703e46dd60e11b815260040160405180910390fd5b565b5f547fa1fcba4efb1e94b7648f5e0504bfd39734aead5f17965d12705915d771c859ff906102eb906001600160a01b03163033610530565b816001600160a01b03166352d1902d6040518163ffffffff1660e01b8152600401602060405180830381865afa925050508015610930575060408051601f3d908101601f1916820190925261092d91810190610f0d565b60015b61095857604051634c9c8ce360e01b81526001600160a01b0383166004820152602401610483565b5f80516020610fb1833981519152811461098857604051632a87526960e21b815260048101829052602401610483565b6109928383610ac3565b505050565b306001600160a01b037f0000000000000000000000000000000000000000000000000000000000000000161461089c5760405163703e46dd60e11b815260040160405180910390fd5b6109e8610b18565b5f80546001600160a01b0319166001600160a01b0392909216919091179055565b604051637ef7c88360e11b81526001600160a01b0387169063fdef910690610a3d9088908890889088908890600401610f24565b602060405180830381865afa158015610a58573d5f803e3d5ffd5b505050506040513d601f19601f82011682018060405250810190610a7c9190610f76565b610abb57604051630cb6f8ed60e21b81526001600160a01b03808816600483015280871660248301528516604482015260648101849052608401610483565b505050505050565b610acc82610b61565b6040516001600160a01b038316907fbc7cd75a20ee27fd9adebab32041f755214dbc6bffa90cc0225b39da2e5c2d3b905f90a2805115610b10576109928282610bc4565b6102eb610c36565b7ff0c57e16840df040f15088dc2f81fe391c3923bec73e23a9662efc9c229c6a0054600160401b900460ff1661089c57604051631afcd79f60e31b815260040160405180910390fd5b806001600160a01b03163b5f03610b9657604051634c9c8ce360e01b81526001600160a01b0382166004820152602401610483565b5f80516020610fb183398151915280546001600160a01b0319166001600160a01b0392909216919091179055565b60605f80846001600160a01b031684604051610be09190610f95565b5f60405180830381855af49150503d805f8114610c18576040519150601f19603f3d011682016040523d82523d5f602084013e610c1d565b606091505b5091509150610c2d858383610c55565b95945050505050565b341561089c5760405163b398979f60e01b815260040160405180910390fd5b606082610c6a57610c6582610cb4565b610cad565b8151158015610c8157506001600160a01b0384163b155b15610caa57604051639996b31560e01b81526001600160a01b0385166004820152602401610483565b50805b9392505050565b805115610cc45780518082602001fd5b604051630a12f52160e11b815260040160405180910390fd5b50565b60405180606001604052806003906020820280368337509192915050565b6060810181835f5b6003811015610d2857815160ff16835260209283019290910190600101610d06565b50505092915050565b6001600160a01b0381168114610cdd575f80fd5b634e487b7160e01b5f52604160045260245ffd5b5f8060408385031215610d6a575f80fd5b8235610d7581610d31565b9150602083013567ffffffffffffffff80821115610d91575f80fd5b818501915085601f830112610da4575f80fd5b813581811115610db657610db6610d45565b604051601f8201601f19908116603f01168101908382118183101715610dde57610dde610d45565b81604052828152886020848701011115610df6575f80fd5b826020860160208301375f6020848301015280955050505050509250929050565b5f805f60608486031215610e29575f80fd5b8335610e3481610d31565b92506020840135610e4481610d31565b929592945050506040919091013590565b5f8060408385031215610e66575f80fd5b823591506020830135610e7881610d31565b809150509250929050565b5f5b83811015610e9d578181015183820152602001610e85565b50505f910152565b602081525f8251806020840152610ec3816040850160208701610e83565b601f01601f19169190910160400192915050565b5f60208284031215610ee7575f80fd5b8135610cad81610d31565b5f60208284031215610f02575f80fd5b8151610cad81610d31565b5f60208284031215610f1d575f80fd5b5051919050565b6001600160a01b038681168252851660208201526040810184905260806060820181905281018290525f828460a08401375f60a0848401015260a0601f19601f85011683010190509695505050505050565b5f60208284031215610f86575f80fd5b81518015158114610cad575f80fd5b5f8251610fa6818460208701610e83565b919091019291505056fe360894a13ba1a3210667c828492db98dca3e2076cc3735a920a3ca505d382bbca2646970667358221220aaa51592f2942098e4c5225912d81c30bce75ab284a06aaee11392d2be918f4564736f6c63430008160033",
					"opcodes": "PUSH1 0xA0 PUSH1 0x40 MSTORE ADDRESS PUSH1 0x80 MSTORE CALLVALUE DUP1 ISZERO PUSH2 0x13 JUMPI PUSH0 DUP1 REVERT JUMPDEST POP PUSH2 0x1C PUSH2 0x21 JUMP JUMPDEST PUSH2 0xD3 JUMP JUMPDEST PUSH32 0xF0C57E16840DF040F15088DC2F81FE391C3923BEC73E23A9662EFC9C229C6A00 DUP1 SLOAD PUSH9 0x10000000000000000 SWAP1 DIV PUSH1 0xFF AND ISZERO PUSH2 0x71 JUMPI PUSH1 0x40 MLOAD PUSH4 0xF92EE8A9 PUSH1 0xE0 SHL DUP2 MSTORE PUSH1 0x4 ADD PUSH1 0x40 MLOAD DUP1 SWAP2 SUB SWAP1 REVERT JUMPDEST DUP1 SLOAD PUSH1 0x1 PUSH1 0x1 PUSH1 0x40 SHL SUB SWAP1 DUP2 AND EQ PUSH2 0xD0 JUMPI DUP1 SLOAD PUSH1 0x1 PUSH1 0x1 PUSH1 0x40 SHL SUB NOT AND PUSH1 0x1 PUSH1 0x1 PUSH1 0x40 SHL SUB SWAP1 DUP2 OR DUP3 SSTORE PUSH1 0x40 MLOAD SWAP1 DUP2 MSTORE PUSH32 0xC7F505B2F371AE2175EE4913F4499E1F2633A7B5936321EED1CDAEB6115181D2 SWAP1 PUSH1 0x20 ADD PUSH1 0x40 MLOAD DUP1 SWAP2 SUB SWAP1 LOG1 JUMPDEST POP JUMP JUMPDEST PUSH1 0x80 MLOAD PUSH2 0x1006 PUSH2 0xF9 PUSH0 CODECOPY PUSH0 DUP2 DUP2 PUSH2 0x803 ADD MSTORE DUP2 DUP2 PUSH2 0x82C ADD MSTORE PUSH2 0x9A2 ADD MSTORE PUSH2 0x1006 PUSH0 RETURN INVALID PUSH1 0x80 PUSH1 0x40 MSTORE PUSH1 0x4 CALLDATASIZE LT PUSH2 0xBF JUMPI PUSH0 CALLDATALOAD PUSH1 0xE0 SHR DUP1 PUSH4 0x6133F985 GT PUSH2 0x7C JUMPI DUP1 PUSH4 0xAD3CB1CC GT PUSH2 0x57 JUMPI DUP1 PUSH4 0xAD3CB1CC EQ PUSH2 0x203 JUMPI DUP1 PUSH4 0xAF7B2FED EQ PUSH2 0x240 JUMPI DUP1 PUSH4 0xC66485B2 EQ PUSH2 0x273 JUMPI DUP1 PUSH4 0xD70754EC EQ PUSH2 0x292 JUMPI PUSH0 DUP1 REVERT JUMPDEST DUP1 PUSH4 0x6133F985 EQ PUSH2 0x192 JUMPI DUP1 PUSH4 0x89BB4145 EQ PUSH2 0x1B1 JUMPI DUP1 PUSH4 0x9848BA51 EQ PUSH2 0x1D0 JUMPI PUSH0 DUP1 REVERT JUMPDEST DUP1 PUSH4 0x4F3BCEC EQ PUSH2 0xC3 JUMPI DUP1 PUSH4 0x2AE9C600 EQ PUSH2 0xFF JUMPI DUP1 PUSH4 0x3F15457F EQ PUSH2 0x120 JUMPI DUP1 PUSH4 0x4162169F EQ PUSH2 0x13F JUMPI DUP1 PUSH4 0x4F1EF286 EQ PUSH2 0x15B JUMPI DUP1 PUSH4 0x52D1902D EQ PUSH2 0x170 JUMPI JUMPDEST PUSH0 DUP1 REVERT JUMPDEST CALLVALUE DUP1 ISZERO PUSH2 0xCE JUMPI PUSH0 DUP1 REVERT JUMPDEST POP PUSH1 0x34 SLOAD PUSH2 0xE2 SWAP1 PUSH1 0x1 PUSH1 0x1 PUSH1 0xA0 SHL SUB AND DUP2 JUMP JUMPDEST PUSH1 0x40 MLOAD PUSH1 0x1 PUSH1 0x1 PUSH1 0xA0 SHL SUB SWAP1 SWAP2 AND DUP2 MSTORE PUSH1 0x20 ADD JUMPDEST PUSH1 0x40 MLOAD DUP1 SWAP2 SUB SWAP1 RETURN JUMPDEST CALLVALUE DUP1 ISZERO PUSH2 0x10A JUMPI PUSH0 DUP1 REVERT JUMPDEST POP PUSH2 0x113 PUSH2 0x2A7 JUMP JUMPDEST PUSH1 0x40 MLOAD PUSH2 0xF6 SWAP2 SWAP1 PUSH2 0xCFE JUMP JUMPDEST CALLVALUE DUP1 ISZERO PUSH2 0x12B JUMPI PUSH0 DUP1 REVERT JUMPDEST POP PUSH1 0x32 SLOAD PUSH2 0xE2 SWAP1 PUSH1 0x1 PUSH1 0x1 PUSH1 0xA0 SHL SUB AND DUP2 JUMP JUMPDEST CALLVALUE DUP1 ISZERO PUSH2 0x14A JUMPI PUSH0 DUP1 REVERT JUMPDEST POP PUSH0 SLOAD PUSH1 0x1 PUSH1 0x1 PUSH1 0xA0 SHL SUB AND PUSH2 0xE2 JUMP JUMPDEST PUSH2 0x16E PUSH2 0x169 CALLDATASIZE PUSH1 0x4 PUSH2 0xD59 JUMP JUMPDEST PUSH2 0x2D0 JUMP JUMPDEST STOP JUMPDEST CALLVALUE DUP1 ISZERO PUSH2 0x17B JUMPI PUSH0 DUP1 REVERT JUMPDEST POP PUSH2 0x184 PUSH2 0x2EF JUMP JUMPDEST PUSH1 0x40 MLOAD SWAP1 DUP2 MSTORE PUSH1 0x20 ADD PUSH2 0xF6 JUMP JUMPDEST CALLVALUE DUP1 ISZERO PUSH2 0x19D JUMPI PUSH0 DUP1 REVERT JUMPDEST POP PUSH2 0x16E PUSH2 0x1AC CALLDATASIZE PUSH1 0x4 PUSH2 0xE17 JUMP JUMPDEST PUSH2 0x30A JUMP JUMPDEST CALLVALUE DUP1 ISZERO PUSH2 0x1BC JUMPI PUSH0 DUP1 REVERT JUMPDEST POP PUSH2 0x16E PUSH2 0x1CB CALLDATASIZE PUSH1 0x4 PUSH2 0xE55 JUMP JUMPDEST PUSH2 0x4FC JUMP JUMPDEST CALLVALUE DUP1 ISZERO PUSH2 0x1DB JUMPI PUSH0 DUP1 REVERT JUMPDEST POP PUSH2 0x184 PUSH32 0xBBDFD23F099D7ED9F535E0F97D2123EFB1332B16E023B8359B3B879EAECD3C14 DUP2 JUMP JUMPDEST CALLVALUE DUP1 ISZERO PUSH2 0x20E JUMPI PUSH0 DUP1 REVERT JUMPDEST POP PUSH2 0x233 PUSH1 0x40 MLOAD DUP1 PUSH1 0x40 ADD PUSH1 0x40 MSTORE DUP1 PUSH1 0x5 DUP2 MSTORE PUSH1 0x20 ADD PUSH5 0x352E302E3 PUSH1 0xDC SHL DUP2 MSTORE POP DUP2 JUMP JUMPDEST PUSH1 0x40 MLOAD PUSH2 0xF6 SWAP2 SWAP1 PUSH2 0xEA5 JUMP JUMPDEST CALLVALUE DUP1 ISZERO PUSH2 0x24B JUMPI PUSH0 DUP1 REVERT JUMPDEST POP PUSH2 0x184 PUSH32 0xA1FCBA4EFB1E94B7648F5E0504BFD39734AEAD5F17965D12705915D771C859FF DUP2 JUMP JUMPDEST CALLVALUE DUP1 ISZERO PUSH2 0x27E JUMPI PUSH0 DUP1 REVERT JUMPDEST POP PUSH2 0x16E PUSH2 0x28D CALLDATASIZE PUSH1 0x4 PUSH2 0xED7 JUMP JUMPDEST PUSH2 0x760 JUMP JUMPDEST CALLVALUE DUP1 ISZERO PUSH2 0x29D JUMPI PUSH0 DUP1 REVERT JUMPDEST POP PUSH2 0x184 PUSH1 0x33 SLOAD DUP2 JUMP JUMPDEST PUSH2 0x2AF PUSH2 0xCE0 JUMP JUMPDEST POP PUSH1 0x40 DUP1 MLOAD PUSH1 0x60 DUP2 ADD DUP3 MSTORE PUSH1 0x1 DUP2 MSTORE PUSH1 0x4 PUSH1 0x20 DUP3 ADD MSTORE PUSH0 SWAP2 DUP2 ADD SWAP2 SWAP1 SWAP2 MSTORE SWAP1 JUMP JUMPDEST PUSH2 0x2D8 PUSH2 0x7F8 JUMP JUMPDEST PUSH2 0x2E1 DUP3 PUSH2 0x89E JUMP JUMPDEST PUSH2 0x2EB DUP3 DUP3 PUSH2 0x8D6 JUMP JUMPDEST POP POP JUMP JUMPDEST PUSH0 PUSH2 0x2F8 PUSH2 0x997 JUMP JUMPDEST POP PUSH0 DUP1 MLOAD PUSH1 0x20 PUSH2 0xFB1 DUP4 CODECOPY DUP2 MLOAD SWAP2 MSTORE SWAP1 JUMP JUMPDEST PUSH32 0xF0C57E16840DF040F15088DC2F81FE391C3923BEC73E23A9662EFC9C229C6A00 DUP1 SLOAD PUSH1 0x1 PUSH1 0x40 SHL DUP2 DIV PUSH1 0xFF AND ISZERO SWAP1 PUSH8 0xFFFFFFFFFFFFFFFF AND PUSH0 DUP2 ISZERO DUP1 ISZERO PUSH2 0x34F JUMPI POP DUP3 JUMPDEST SWAP1 POP PUSH0 DUP3 PUSH8 0xFFFFFFFFFFFFFFFF AND PUSH1 0x1 EQ DUP1 ISZERO PUSH2 0x36B JUMPI POP ADDRESS EXTCODESIZE ISZERO JUMPDEST SWAP1 POP DUP2 ISZERO DUP1 ISZERO PUSH2 0x379 JUMPI POP DUP1 ISZERO JUMPDEST ISZERO PUSH2 0x397 JUMPI PUSH1 0x40 MLOAD PUSH4 0xF92EE8A9 PUSH1 0xE0 SHL DUP2 MSTORE PUSH1 0x4 ADD PUSH1 0x40 MLOAD DUP1 SWAP2 SUB SWAP1 REVERT JUMPDEST DUP5 SLOAD PUSH8 0xFFFFFFFFFFFFFFFF NOT AND PUSH1 0x1 OR DUP6 SSTORE DUP4 ISZERO PUSH2 0x3C1 JUMPI DUP5 SLOAD PUSH1 0xFF PUSH1 0x40 SHL NOT AND PUSH1 0x1 PUSH1 0x40 SHL OR DUP6 SSTORE JUMPDEST PUSH2 0x3CA DUP9 PUSH2 0x9E0 JUMP JUMPDEST PUSH1 0x32 DUP1 SLOAD PUSH1 0x1 PUSH1 0x1 PUSH1 0xA0 SHL SUB NOT AND PUSH1 0x1 PUSH1 0x1 PUSH1 0xA0 SHL SUB DUP10 AND SWAP1 DUP2 OR SWAP1 SWAP2 SSTORE PUSH1 0x33 DUP8 SWAP1 SSTORE PUSH1 0x40 MLOAD PUSH4 0x178B8BF PUSH1 0xE0 SHL DUP2 MSTORE PUSH1 0x4 DUP2 ADD DUP9 SWAP1 MSTORE PUSH0 SWAP2 SWAP1 PUSH4 0x178B8BF SWAP1 PUSH1 0x24 ADD PUSH1 0x20 PUSH1 0x40 MLOAD DUP1 DUP4 SUB DUP2 DUP7 GAS STATICCALL ISZERO DUP1 ISZERO PUSH2 0x428 JUMPI RETURNDATASIZE PUSH0 DUP1 RETURNDATACOPY RETURNDATASIZE PUSH0 REVERT JUMPDEST POP POP POP POP PUSH1 0x40 MLOAD RETURNDATASIZE PUSH1 0x1F NOT PUSH1 0x1F DUP3 ADD AND DUP3 ADD DUP1 PUSH1 0x40 MSTORE POP DUP2 ADD SWAP1 PUSH2 0x44C SWAP2 SWAP1 PUSH2 0xEF2 JUMP JUMPDEST SWAP1 POP PUSH1 0x1 PUSH1 0x1 PUSH1 0xA0 SHL SUB DUP2 AND PUSH2 0x48C JUMPI PUSH1 0x40 MLOAD PUSH4 0xD7097C5 PUSH1 0xE1 SHL DUP2 MSTORE PUSH1 0x4 DUP2 ADD DUP9 SWAP1 MSTORE PUSH1 0x1 PUSH1 0x1 PUSH1 0xA0 SHL SUB DUP3 AND PUSH1 0x24 DUP3 ADD MSTORE PUSH1 0x44 ADD JUMPDEST PUSH1 0x40 MLOAD DUP1 SWAP2 SUB SWAP1 REVERT JUMPDEST PUSH1 0x34 DUP1 SLOAD PUSH1 0x1 PUSH1 0x1 PUSH1 0xA0 SHL SUB NOT AND PUSH1 0x1 PUSH1 0x1 PUSH1 0xA0 SHL SUB SWAP3 SWAP1 SWAP3 AND SWAP2 SWAP1 SWAP2 OR SWAP1 SSTORE DUP4 ISZERO PUSH2 0x4F2 JUMPI DUP5 SLOAD PUSH1 0xFF PUSH1 0x40 SHL NOT AND DUP6 SSTORE PUSH1 0x40 MLOAD PUSH1 0x1 DUP2 MSTORE PUSH32 0xC7F505B2F371AE2175EE4913F4499E1F2633A7B5936321EED1CDAEB6115181D2 SWAP1 PUSH1 0x20 ADD PUSH1 0x40 MLOAD DUP1 SWAP2 SUB SWAP1 LOG1 JUMPDEST POP POP POP POP POP POP POP POP JUMP JUMPDEST PUSH0 SLOAD PUSH32 0xBBDFD23F099D7ED9F535E0F97D2123EFB1332B16E023B8359B3B879EAECD3C14 SWAP1 PUSH2 0x538 SWAP1 PUSH1 0x1 PUSH1 0x1 PUSH1 0xA0 SHL SUB AND ADDRESS CALLER JUMPDEST DUP5 PUSH0 CALLDATASIZE PUSH2 0xA09 JUMP JUMPDEST PUSH0 PUSH1 0x33 SLOAD DUP5 PUSH1 0x40 MLOAD PUSH1 0x20 ADD PUSH2 0x557 SWAP3 SWAP2 SWAP1 SWAP2 DUP3 MSTORE PUSH1 0x20 DUP3 ADD MSTORE PUSH1 0x40 ADD SWAP1 JUMP JUMPDEST PUSH1 0x40 DUP1 MLOAD DUP1 DUP4 SUB PUSH1 0x1F NOT ADD DUP2 MSTORE SWAP1 DUP3 SWAP1 MSTORE DUP1 MLOAD PUSH1 0x20 SWAP1 SWAP2 ADD KECCAK256 PUSH1 0x32 SLOAD PUSH4 0x2571BE3 PUSH1 0xE0 SHL DUP4 MSTORE PUSH1 0x4 DUP4 ADD DUP3 SWAP1 MSTORE SWAP1 SWAP3 POP PUSH0 SWAP2 PUSH1 0x1 PUSH1 0x1 PUSH1 0xA0 SHL SUB SWAP1 SWAP2 AND SWAP1 PUSH4 0x2571BE3 SWAP1 PUSH1 0x24 ADD PUSH1 0x20 PUSH1 0x40 MLOAD DUP1 DUP4 SUB DUP2 DUP7 GAS STATICCALL ISZERO DUP1 ISZERO PUSH2 0x5B9 JUMPI RETURNDATASIZE PUSH0 DUP1 RETURNDATACOPY RETURNDATASIZE PUSH0 REVERT JUMPDEST POP POP POP POP PUSH1 0x40 MLOAD RETURNDATASIZE PUSH1 0x1F NOT PUSH1 0x1F DUP3 ADD AND DUP3 ADD DUP1 PUSH1 0x40 MSTORE POP DUP2 ADD SWAP1 PUSH2 0x5DD SWAP2 SWAP1 PUSH2 0xEF2 JUMP JUMPDEST SWAP1 POP PUSH1 0x1 PUSH1 0x1 PUSH1 0xA0 SHL SUB DUP2 AND ISZERO PUSH2 0x618 JUMPI PUSH1 0x40 MLOAD PUSH3 0xFCAD5D PUSH1 0xE1 SHL DUP2 MSTORE PUSH1 0x4 DUP2 ADD DUP4 SWAP1 MSTORE PUSH1 0x1 PUSH1 0x1 PUSH1 0xA0 SHL SUB DUP3 AND PUSH1 0x24 DUP3 ADD MSTORE PUSH1 0x44 ADD PUSH2 0x483 JUMP JUMPDEST PUSH1 0x32 SLOAD PUSH1 0x33 SLOAD PUSH1 0x40 MLOAD PUSH4 0x6AB5923 PUSH1 0xE0 SHL DUP2 MSTORE PUSH1 0x4 DUP2 ADD SWAP2 SWAP1 SWAP2 MSTORE PUSH1 0x24 DUP2 ADD DUP8 SWAP1 MSTORE ADDRESS PUSH1 0x44 DUP3 ADD MSTORE PUSH1 0x1 PUSH1 0x1 PUSH1 0xA0 SHL SUB SWAP1 SWAP2 AND SWAP1 PUSH4 0x6AB5923 SWAP1 PUSH1 0x64 ADD PUSH1 0x20 PUSH1 0x40 MLOAD DUP1 DUP4 SUB DUP2 PUSH0 DUP8 GAS CALL ISZERO DUP1 ISZERO PUSH2 0x671 JUMPI RETURNDATASIZE PUSH0 DUP1 RETURNDATACOPY RETURNDATASIZE PUSH0 REVERT JUMPDEST POP POP POP POP PUSH1 0x40 MLOAD RETURNDATASIZE PUSH1 0x1F NOT PUSH1 0x1F DUP3 ADD AND DUP3 ADD DUP1 PUSH1 0x40 MSTORE POP DUP2 ADD SWAP1 PUSH2 0x695 SWAP2 SWAP1 PUSH2 0xF0D JUMP JUMPDEST POP PUSH1 0x32 SLOAD PUSH1 0x34 SLOAD PUSH1 0x40 MLOAD PUSH4 0xC4B7B85 PUSH1 0xE1 SHL DUP2 MSTORE PUSH1 0x4 DUP2 ADD DUP6 SWAP1 MSTORE PUSH1 0x1 PUSH1 0x1 PUSH1 0xA0 SHL SUB SWAP2 DUP3 AND PUSH1 0x24 DUP3 ADD MSTORE SWAP2 AND SWAP1 PUSH4 0x1896F70A SWAP1 PUSH1 0x44 ADD PUSH0 PUSH1 0x40 MLOAD DUP1 DUP4 SUB DUP2 PUSH0 DUP8 DUP1 EXTCODESIZE ISZERO DUP1 ISZERO PUSH2 0x6E3 JUMPI PUSH0 DUP1 REVERT JUMPDEST POP GAS CALL ISZERO DUP1 ISZERO PUSH2 0x6F5 JUMPI RETURNDATASIZE PUSH0 DUP1 RETURNDATACOPY RETURNDATASIZE PUSH0 REVERT JUMPDEST POP POP PUSH1 0x34 SLOAD PUSH1 0x40 MLOAD PUSH3 0xD5FA2B PUSH1 0xE8 SHL DUP2 MSTORE PUSH1 0x4 DUP2 ADD DUP7 SWAP1 MSTORE PUSH1 0x1 PUSH1 0x1 PUSH1 0xA0 SHL SUB DUP9 DUP2 AND PUSH1 0x24 DUP4 ADD MSTORE SWAP1 SWAP2 AND SWAP3 POP PUSH4 0xD5FA2B00 SWAP2 POP PUSH1 0x44 ADD PUSH0 PUSH1 0x40 MLOAD DUP1 DUP4 SUB DUP2 PUSH0 DUP8 DUP1 EXTCODESIZE ISZERO DUP1 ISZERO PUSH2 0x743 JUMPI PUSH0 DUP1 REVERT JUMPDEST POP GAS CALL ISZERO DUP1 ISZERO PUSH2 0x755 JUMPI RETURNDATASIZE PUSH0 DUP1 RETURNDATACOPY RETURNDATASIZE PUSH0 REVERT JUMPDEST POP POP POP POP POP POP POP POP POP JUMP JUMPDEST PUSH0 SLOAD PUSH32 0xBBDFD23F099D7ED9F535E0F97D2123EFB1332B16E023B8359B3B879EAECD3C14 SWAP1 PUSH2 0x798 SWAP1 PUSH1 0x1 PUSH1 0x1 PUSH1 0xA0 SHL SUB AND ADDRESS CALLER PUSH2 0x530 JUMP JUMPDEST PUSH1 0x1 PUSH1 0x1 PUSH1 0xA0 SHL SUB DUP3 AND PUSH2 0x7D5 JUMPI PUSH1 0x33 SLOAD PUSH1 0x40 MLOAD PUSH4 0xD7097C5 PUSH1 0xE1 SHL DUP2 MSTORE PUSH1 0x4 DUP2 ADD SWAP2 SWAP1 SWAP2 MSTORE PUSH1 0x1 PUSH1 0x1 PUSH1 0xA0 SHL SUB DUP4 AND PUSH1 0x24 DUP3 ADD MSTORE PUSH1 0x44 ADD PUSH2 0x483 JUMP JUMPDEST POP PUSH1 0x34 DUP1 SLOAD PUSH1 0x1 PUSH1 0x1 PUSH1 0xA0 SHL SUB NOT AND PUSH1 0x1 PUSH1 0x1 PUSH1 0xA0 SHL SUB SWAP3 SWAP1 SWAP3 AND SWAP2 SWAP1 SWAP2 OR SWAP1 SSTORE JUMP JUMPDEST ADDRESS PUSH1 0x1 PUSH1 0x1 PUSH1 0xA0 SHL SUB PUSH32 0x0 AND EQ DUP1 PUSH2 0x87E JUMPI POP PUSH32 0x0 PUSH1 0x1 PUSH1 0x1 PUSH1 0xA0 SHL SUB AND PUSH2 0x872 PUSH0 DUP1 MLOAD PUSH1 0x20 PUSH2 0xFB1 DUP4 CODECOPY DUP2 MLOAD SWAP2 MSTORE SLOAD PUSH1 0x1 PUSH1 0x1 PUSH1 0xA0 SHL SUB AND SWAP1 JUMP JUMPDEST PUSH1 0x1 PUSH1 0x1 PUSH1 0xA0 SHL SUB AND EQ ISZERO JUMPDEST ISZERO PUSH2 0x89C JUMPI PUSH1 0x40 MLOAD PUSH4 0x703E46DD PUSH1 0xE1 SHL DUP2 MSTORE PUSH1 0x4 ADD PUSH1 0x40 MLOAD DUP1 SWAP2 SUB SWAP1 REVERT JUMPDEST JUMP JUMPDEST PUSH0 SLOAD PUSH32 0xA1FCBA4EFB1E94B7648F5E0504BFD39734AEAD5F17965D12705915D771C859FF SWAP1 PUSH2 0x2EB SWAP1 PUSH1 0x1 PUSH1 0x1 PUSH1 0xA0 SHL SUB AND ADDRESS CALLER PUSH2 0x530 JUMP JUMPDEST DUP2 PUSH1 0x1 PUSH1 0x1 PUSH1 0xA0 SHL SUB AND PUSH4 0x52D1902D PUSH1 0x40 MLOAD DUP2 PUSH4 0xFFFFFFFF AND PUSH1 0xE0 SHL DUP2 MSTORE PUSH1 0x4 ADD PUSH1 0x20 PUSH1 0x40 MLOAD DUP1 DUP4 SUB DUP2 DUP7 GAS STATICCALL SWAP3 POP POP POP DUP1 ISZERO PUSH2 0x930 JUMPI POP PUSH1 0x40 DUP1 MLOAD PUSH1 0x1F RETURNDATASIZE SWAP1 DUP2 ADD PUSH1 0x1F NOT AND DUP3 ADD SWAP1 SWAP3 MSTORE PUSH2 0x92D SWAP2 DUP2 ADD SWAP1 PUSH2 0xF0D JUMP JUMPDEST PUSH1 0x1 JUMPDEST PUSH2 0x958 JUMPI PUSH1 0x40 MLOAD PUSH4 0x4C9C8CE3 PUSH1 0xE0 SHL DUP2 MSTORE PUSH1 0x1 PUSH1 0x1 PUSH1 0xA0 SHL SUB DUP4 AND PUSH1 0x4 DUP3 ADD MSTORE PUSH1 0x24 ADD PUSH2 0x483 JUMP JUMPDEST PUSH0 DUP1 MLOAD PUSH1 0x20 PUSH2 0xFB1 DUP4 CODECOPY DUP2 MLOAD SWAP2 MSTORE DUP2 EQ PUSH2 0x988 JUMPI PUSH1 0x40 MLOAD PUSH4 0x2A875269 PUSH1 0xE2 SHL DUP2 MSTORE PUSH1 0x4 DUP2 ADD DUP3 SWAP1 MSTORE PUSH1 0x24 ADD PUSH2 0x483 JUMP JUMPDEST PUSH2 0x992 DUP4 DUP4 PUSH2 0xAC3 JUMP JUMPDEST POP POP POP JUMP JUMPDEST ADDRESS PUSH1 0x1 PUSH1 0x1 PUSH1 0xA0 SHL SUB PUSH32 0x0 AND EQ PUSH2 0x89C JUMPI PUSH1 0x40 MLOAD PUSH4 0x703E46DD PUSH1 0xE1 SHL DUP2 MSTORE PUSH1 0x4 ADD PUSH1 0x40 MLOAD DUP1 SWAP2 SUB SWAP1 REVERT JUMPDEST PUSH2 0x9E8 PUSH2 0xB18 JUMP JUMPDEST PUSH0 DUP1 SLOAD PUSH1 0x1 PUSH1 0x1 PUSH1 0xA0 SHL SUB NOT AND PUSH1 0x1 PUSH1 0x1 PUSH1 0xA0 SHL SUB SWAP3 SWAP1 SWAP3 AND SWAP2 SWAP1 SWAP2 OR SWAP1 SSTORE JUMP JUMPDEST PUSH1 0x40 MLOAD PUSH4 0x7EF7C883 PUSH1 0xE1 SHL DUP2 MSTORE PUSH1 0x1 PUSH1 0x1 PUSH1 0xA0 SHL SUB DUP8 AND SWAP1 PUSH4 0xFDEF9106 SWAP1 PUSH2 0xA3D SWAP1 DUP9 SWAP1 DUP9 SWAP1 DUP9 SWAP1 DUP9 SWAP1 DUP9 SWAP1 PUSH1 0x4 ADD PUSH2 0xF24 JUMP JUMPDEST PUSH1 0x20 PUSH1 0x40 MLOAD DUP1 DUP4 SUB DUP2 DUP7 GAS STATICCALL ISZERO DUP1 ISZERO PUSH2 0xA58 JUMPI RETURNDATASIZE PUSH0 DUP1 RETURNDATACOPY RETURNDATASIZE PUSH0 REVERT JUMPDEST POP POP POP POP PUSH1 0x40 MLOAD RETURNDATASIZE PUSH1 0x1F NOT PUSH1 0x1F DUP3 ADD AND DUP3 ADD DUP1 PUSH1 0x40 MSTORE POP DUP2 ADD SWAP1 PUSH2 0xA7C SWAP2 SWAP1 PUSH2 0xF76 JUMP JUMPDEST PUSH2 0xABB JUMPI PUSH1 0x40 MLOAD PUSH4 0xCB6F8ED PUSH1 0xE2 SHL DUP2 MSTORE PUSH1 0x1 PUSH1 0x1 PUSH1 0xA0 SHL SUB DUP1 DUP9 AND PUSH1 0x4 DUP4 ADD MSTORE DUP1 DUP8 AND PUSH1 0x24 DUP4 ADD MSTORE DUP6 AND PUSH1 0x44 DUP3 ADD MSTORE PUSH1 0x64 DUP2 ADD DUP5 SWAP1 MSTORE PUSH1 0x84 ADD PUSH2 0x483 JUMP JUMPDEST POP POP POP POP POP POP JUMP JUMPDEST PUSH2 0xACC DUP3 PUSH2 0xB61 JUMP JUMPDEST PUSH1 0x40 MLOAD PUSH1 0x1 PUSH1 0x1 PUSH1 0xA0 SHL SUB DUP4 AND SWAP1 PUSH32 0xBC7CD75A20EE27FD9ADEBAB32041F755214DBC6BFFA90CC0225B39DA2E5C2D3B SWAP1 PUSH0 SWAP1 LOG2 DUP1 MLOAD ISZERO PUSH2 0xB10 JUMPI PUSH2 0x992 DUP3 DUP3 PUSH2 0xBC4 JUMP JUMPDEST PUSH2 0x2EB PUSH2 0xC36 JUMP JUMPDEST PUSH32 0xF0C57E16840DF040F15088DC2F81FE391C3923BEC73E23A9662EFC9C229C6A00 SLOAD PUSH1 0x1 PUSH1 0x40 SHL SWAP1 DIV PUSH1 0xFF AND PUSH2 0x89C JUMPI PUSH1 0x40 MLOAD PUSH4 0x1AFCD79F PUSH1 0xE3 SHL DUP2 MSTORE PUSH1 0x4 ADD PUSH1 0x40 MLOAD DUP1 SWAP2 SUB SWAP1 REVERT JUMPDEST DUP1 PUSH1 0x1 PUSH1 0x1 PUSH1 0xA0 SHL SUB AND EXTCODESIZE PUSH0 SUB PUSH2 0xB96 JUMPI PUSH1 0x40 MLOAD PUSH4 0x4C9C8CE3 PUSH1 0xE0 SHL DUP2 MSTORE PUSH1 0x1 PUSH1 0x1 PUSH1 0xA0 SHL SUB DUP3 AND PUSH1 0x4 DUP3 ADD MSTORE PUSH1 0x24 ADD PUSH2 0x483 JUMP JUMPDEST PUSH0 DUP1 MLOAD PUSH1 0x20 PUSH2 0xFB1 DUP4 CODECOPY DUP2 MLOAD SWAP2 MSTORE DUP1 SLOAD PUSH1 0x1 PUSH1 0x1 PUSH1 0xA0 SHL SUB NOT AND PUSH1 0x1 PUSH1 0x1 PUSH1 0xA0 SHL SUB SWAP3 SWAP1 SWAP3 AND SWAP2 SWAP1 SWAP2 OR SWAP1 SSTORE JUMP JUMPDEST PUSH1 0x60 PUSH0 DUP1 DUP5 PUSH1 0x1 PUSH1 0x1 PUSH1 0xA0 SHL SUB AND DUP5 PUSH1 0x40 MLOAD PUSH2 0xBE0 SWAP2 SWAP1 PUSH2 0xF95 JUMP JUMPDEST PUSH0 PUSH1 0x40 MLOAD DUP1 DUP4 SUB DUP2 DUP6 GAS DELEGATECALL SWAP2 POP POP RETURNDATASIZE DUP1 PUSH0 DUP2 EQ PUSH2 0xC18 JUMPI PUSH1 0x40 MLOAD SWAP2 POP PUSH1 0x1F NOT PUSH1 0x3F RETURNDATASIZE ADD AND DUP3 ADD PUSH1 0x40 MSTORE RETURNDATASIZE DUP3 MSTORE RETURNDATASIZE PUSH0 PUSH1 0x20 DUP5 ADD RETURNDATACOPY PUSH2 0xC1D JUMP JUMPDEST PUSH1 0x60 SWAP2 POP JUMPDEST POP SWAP2 POP SWAP2 POP PUSH2 0xC2D DUP6 DUP4 DUP4 PUSH2 0xC55 JUMP JUMPDEST SWAP6 SWAP5 POP POP POP POP POP JUMP JUMPDEST CALLVALUE ISZERO PUSH2 0x89C JUMPI PUSH1 0x40 MLOAD PUSH4 0xB398979F PUSH1 0xE0 SHL DUP2 MSTORE PUSH1 0x4 ADD PUSH1 0x40 MLOAD DUP1 SWAP2 SUB SWAP1 REVERT JUMPDEST PUSH1 0x60 DUP3 PUSH2 0xC6A JUMPI PUSH2 0xC65 DUP3 PUSH2 0xCB4 JUMP JUMPDEST PUSH2 0xCAD JUMP JUMPDEST DUP2 MLOAD ISZERO DUP1 ISZERO PUSH2 0xC81 JUMPI POP PUSH1 0x1 PUSH1 0x1 PUSH1 0xA0 SHL SUB DUP5 AND EXTCODESIZE ISZERO JUMPDEST ISZERO PUSH2 0xCAA JUMPI PUSH1 0x40 MLOAD PUSH4 0x9996B315 PUSH1 0xE0 SHL DUP2 MSTORE PUSH1 0x1 PUSH1 0x1 PUSH1 0xA0 SHL SUB DUP6 AND PUSH1 0x4 DUP3 ADD MSTORE PUSH1 0x24 ADD PUSH2 0x483 JUMP JUMPDEST POP DUP1 JUMPDEST SWAP4 SWAP3 POP POP POP JUMP JUMPDEST DUP1 MLOAD ISZERO PUSH2 0xCC4 JUMPI DUP1 MLOAD DUP1 DUP3 PUSH1 0x20 ADD REVERT JUMPDEST PUSH1 0x40 MLOAD PUSH4 0xA12F521 PUSH1 0xE1 SHL DUP2 MSTORE PUSH1 0x4 ADD PUSH1 0x40 MLOAD DUP1 SWAP2 SUB SWAP1 REVERT JUMPDEST POP JUMP JUMPDEST PUSH1 0x40 MLOAD DUP1 PUSH1 0x60 ADD PUSH1 0x40 MSTORE DUP1 PUSH1 0x3 SWAP1 PUSH1 0x20 DUP3 MUL DUP1 CALLDATASIZE DUP4 CALLDATACOPY POP SWAP2 SWAP3 SWAP2 POP POP JUMP JUMPDEST PUSH1 0x60 DUP2 ADD DUP2 DUP4 PUSH0 JUMPDEST PUSH1 0x3 DUP2 LT ISZERO PUSH2 0xD28 JUMPI DUP2 MLOAD PUSH1 0xFF AND DUP4 MSTORE PUSH1 0x20 SWAP3 DUP4 ADD SWAP3 SWAP1 SWAP2 ADD SWAP1 PUSH1 0x1 ADD PUSH2 0xD06 JUMP JUMPDEST POP POP POP SWAP3 SWAP2 POP POP JUMP JUMPDEST PUSH1 0x1 PUSH1 0x1 PUSH1 0xA0 SHL SUB DUP2 AND DUP2 EQ PUSH2 0xCDD JUMPI PUSH0 DUP1 REVERT JUMPDEST PUSH4 0x4E487B71 PUSH1 0xE0 SHL PUSH0 MSTORE PUSH1 0x41 PUSH1 0x4 MSTORE PUSH1 0x24 PUSH0 REVERT JUMPDEST PUSH0 DUP1 PUSH1 0x40 DUP4 DUP6 SUB SLT ISZERO PUSH2 0xD6A JUMPI PUSH0 DUP1 REVERT JUMPDEST DUP3 CALLDATALOAD PUSH2 0xD75 DUP2 PUSH2 0xD31 JUMP JUMPDEST SWAP2 POP PUSH1 0x20 DUP4 ADD CALLDATALOAD PUSH8 0xFFFFFFFFFFFFFFFF DUP1 DUP3 GT ISZERO PUSH2 0xD91 JUMPI PUSH0 DUP1 REVERT JUMPDEST DUP2 DUP6 ADD SWAP2 POP DUP6 PUSH1 0x1F DUP4 ADD SLT PUSH2 0xDA4 JUMPI PUSH0 DUP1 REVERT JUMPDEST DUP2 CALLDATALOAD DUP2 DUP2 GT ISZERO PUSH2 0xDB6 JUMPI PUSH2 0xDB6 PUSH2 0xD45 JUMP JUMPDEST PUSH1 0x40 MLOAD PUSH1 0x1F DUP3 ADD PUSH1 0x1F NOT SWAP1 DUP2 AND PUSH1 0x3F ADD AND DUP2 ADD SWAP1 DUP4 DUP3 GT DUP2 DUP4 LT OR ISZERO PUSH2 0xDDE JUMPI PUSH2 0xDDE PUSH2 0xD45 JUMP JUMPDEST DUP2 PUSH1 0x40 MSTORE DUP3 DUP2 MSTORE DUP9 PUSH1 0x20 DUP5 DUP8 ADD ADD GT ISZERO PUSH2 0xDF6 JUMPI PUSH0 DUP1 REVERT JUMPDEST DUP3 PUSH1 0x20 DUP7 ADD PUSH1 0x20 DUP4 ADD CALLDATACOPY PUSH0 PUSH1 0x20 DUP5 DUP4 ADD ADD MSTORE DUP1 SWAP6 POP POP POP POP POP POP SWAP3 POP SWAP3 SWAP1 POP JUMP JUMPDEST PUSH0 DUP1 PUSH0 PUSH1 0x60 DUP5 DUP7 SUB SLT ISZERO PUSH2 0xE29 JUMPI PUSH0 DUP1 REVERT JUMPDEST DUP4 CALLDATALOAD PUSH2 0xE34 DUP2 PUSH2 0xD31 JUMP JUMPDEST SWAP3 POP PUSH1 0x20 DUP5 ADD CALLDATALOAD PUSH2 0xE44 DUP2 PUSH2 0xD31 JUMP JUMPDEST SWAP3 SWAP6 SWAP3 SWAP5 POP POP POP PUSH1 0x40 SWAP2 SWAP1 SWAP2 ADD CALLDATALOAD SWAP1 JUMP JUMPDEST PUSH0 DUP1 PUSH1 0x40 DUP4 DUP6 SUB SLT ISZERO PUSH2 0xE66 JUMPI PUSH0 DUP1 REVERT JUMPDEST DUP3 CALLDATALOAD SWAP2 POP PUSH1 0x20 DUP4 ADD CALLDATALOAD PUSH2 0xE78 DUP2 PUSH2 0xD31 JUMP JUMPDEST DUP1 SWAP2 POP POP SWAP3 POP SWAP3 SWAP1 POP JUMP JUMPDEST PUSH0 JUMPDEST DUP4 DUP2 LT ISZERO PUSH2 0xE9D JUMPI DUP2 DUP2 ADD MLOAD DUP4 DUP3 ADD MSTORE PUSH1 0x20 ADD PUSH2 0xE85 JUMP JUMPDEST POP POP PUSH0 SWAP2 ADD MSTORE JUMP JUMPDEST PUSH1 0x20 DUP2 MSTORE PUSH0 DUP3 MLOAD DUP1 PUSH1 0x20 DUP5 ADD MSTORE PUSH2 0xEC3 DUP2 PUSH1 0x40 DUP6 ADD PUSH1 0x20 DUP8 ADD PUSH2 0xE83 JUMP JUMPDEST PUSH1 0x1F ADD PUSH1 0x1F NOT AND SWAP2 SWAP1 SWAP2 ADD PUSH1 0x40 ADD SWAP3 SWAP2 POP POP JUMP JUMPDEST PUSH0 PUSH1 0x20 DUP3 DUP5 SUB SLT ISZERO PUSH2 0xEE7 JUMPI PUSH0 DUP1 REVERT JUMPDEST DUP2 CALLDATALOAD PUSH2 0xCAD DUP2 PUSH2 0xD31 JUMP JUMPDEST PUSH0 PUSH1 0x20 DUP3 DUP5 SUB SLT ISZERO PUSH2 0xF02 JUMPI PUSH0 DUP1 REVERT JUMPDEST DUP2 MLOAD PUSH2 0xCAD DUP2 PUSH2 0xD31 JUMP JUMPDEST PUSH0 PUSH1 0x20 DUP3 DUP5 SUB SLT ISZERO PUSH2 0xF1D JUMPI PUSH0 DUP1 REVERT JUMPDEST POP MLOAD SWAP2 SWAP1 POP JUMP JUMPDEST PUSH1 0x1 PUSH1 0x1 PUSH1 0xA0 SHL SUB DUP7 DUP2 AND DUP3 MSTORE DUP6 AND PUSH1 0x20 DUP3 ADD MSTORE PUSH1 0x40 DUP2 ADD DUP5 SWAP1 MSTORE PUSH1 0x80 PUSH1 0x60 DUP3 ADD DUP2 SWAP1 MSTORE DUP2 ADD DUP3 SWAP1 MSTORE PUSH0 DUP3 DUP5 PUSH1 0xA0 DUP5 ADD CALLDATACOPY PUSH0 PUSH1 0xA0 DUP5 DUP5 ADD ADD MSTORE PUSH1 0xA0 PUSH1 0x1F NOT PUSH1 0x1F DUP6 ADD AND DUP4 ADD ADD SWAP1 POP SWAP7 SWAP6 POP POP POP POP POP POP JUMP JUMPDEST PUSH0 PUSH1 0x20 DUP3 DUP5 SUB SLT ISZERO PUSH2 0xF86 JUMPI PUSH0 DUP1 REVERT JUMPDEST DUP2 MLOAD DUP1 ISZERO ISZERO DUP2 EQ PUSH2 0xCAD JUMPI PUSH0 DUP1 REVERT JUMPDEST PUSH0 DUP3 MLOAD PUSH2 0xFA6 DUP2 DUP5 PUSH1 0x20 DUP8 ADD PUSH2 0xE83 JUMP JUMPDEST SWAP2 SWAP1 SWAP2 ADD SWAP3 SWAP2 POP POP JUMP INVALID CALLDATASIZE ADDMOD SWAP5 LOG1 EXTCODESIZE LOG1 LOG3 0x21 MOD PUSH8 0xC828492DB98DCA3E KECCAK256 PUSH23 0xCC3735A920A3CA505D382BBCA2646970667358221220AA 0xA5 ISZERO SWAP3 CALLCODE SWAP5 KECCAK256 SWAP9 0xE4 0xC5 0x22 MSIZE SLT 0xD8 SHR ADDRESS 0xBC 0xE7 GAS 0xB2 DUP5 LOG0 PUSH11 0xAEE11392D2BE918F456473 PUSH16 0x6C634300081600330000000000000000 "
				},
				"gasEstimates": {
					"creation": {
						"codeDepositCost": "820400",
						"executionCost": "infinite",
						"totalCost": "infinite"
					},
					"external": {
						"REGISTER_ENS_SUBDOMAIN_PERMISSION_ID()": "261",
						"UPGRADE_INTERFACE_VERSION()": "infinite",
						"UPGRADE_REGISTRAR_PERMISSION_ID()": "238",
						"dao()": "2385",
						"ens()": "2370",
						"initialize(address,address,bytes32)": "infinite",
						"node()": "2382",
						"protocolVersion()": "infinite",
						"proxiableUUID()": "infinite",
						"registerSubnode(bytes32,address)": "infinite",
						"resolver()": "2326",
						"setDefaultResolver(address)": "infinite",
						"upgradeToAndCall(address,bytes)": "infinite"
					},
					"internal": {
						"_authorizeUpgrade(address)": "infinite"
					}
				},
				"methodIdentifiers": {
					"REGISTER_ENS_SUBDOMAIN_PERMISSION_ID()": "9848ba51",
					"UPGRADE_INTERFACE_VERSION()": "ad3cb1cc",
					"UPGRADE_REGISTRAR_PERMISSION_ID()": "af7b2fed",
					"dao()": "4162169f",
					"ens()": "3f15457f",
					"initialize(address,address,bytes32)": "6133f985",
					"node()": "d70754ec",
					"protocolVersion()": "2ae9c600",
					"proxiableUUID()": "52d1902d",
					"registerSubnode(bytes32,address)": "89bb4145",
					"resolver()": "04f3bcec",
					"setDefaultResolver(address)": "c66485b2",
					"upgradeToAndCall(address,bytes)": "4f1ef286"
				}
			},
			"storageLayout": {
				"storage": [
					{
						"astId": 2164,
						"contract": "packages/contracts/src/framework/dao/DAORegistry_flattened.sol:ENSSubdomainRegistrar",
						"label": "dao_",
						"offset": 0,
						"slot": "0",
						"type": "t_contract(IDAO)2109"
					},
					{
						"astId": 2213,
						"contract": "packages/contracts/src/framework/dao/DAORegistry_flattened.sol:ENSSubdomainRegistrar",
						"label": "__gap",
						"offset": 0,
						"slot": "1",
						"type": "t_array(t_uint256)49_storage"
					},
					{
						"astId": 2376,
						"contract": "packages/contracts/src/framework/dao/DAORegistry_flattened.sol:ENSSubdomainRegistrar",
						"label": "ens",
						"offset": 0,
						"slot": "50",
						"type": "t_contract(ENS)1958"
					},
					{
						"astId": 2379,
						"contract": "packages/contracts/src/framework/dao/DAORegistry_flattened.sol:ENSSubdomainRegistrar",
						"label": "node",
						"offset": 0,
						"slot": "51",
						"type": "t_bytes32"
					},
					{
						"astId": 2382,
						"contract": "packages/contracts/src/framework/dao/DAORegistry_flattened.sol:ENSSubdomainRegistrar",
						"label": "resolver",
						"offset": 0,
						"slot": "52",
						"type": "t_address"
					},
					{
						"astId": 2566,
						"contract": "packages/contracts/src/framework/dao/DAORegistry_flattened.sol:ENSSubdomainRegistrar",
						"label": "__gap",
						"offset": 0,
						"slot": "53",
						"type": "t_array(t_uint256)47_storage"
					}
				],
				"types": {
					"t_address": {
						"encoding": "inplace",
						"label": "address",
						"numberOfBytes": "20"
					},
					"t_array(t_uint256)47_storage": {
						"base": "t_uint256",
						"encoding": "inplace",
						"label": "uint256[47]",
						"numberOfBytes": "1504"
					},
					"t_array(t_uint256)49_storage": {
						"base": "t_uint256",
						"encoding": "inplace",
						"label": "uint256[49]",
						"numberOfBytes": "1568"
					},
					"t_bytes32": {
						"encoding": "inplace",
						"label": "bytes32",
						"numberOfBytes": "32"
					},
					"t_contract(ENS)1958": {
						"encoding": "inplace",
						"label": "contract ENS",
						"numberOfBytes": "20"
					},
					"t_contract(IDAO)2109": {
						"encoding": "inplace",
						"label": "contract IDAO",
						"numberOfBytes": "20"
					},
					"t_uint256": {
						"encoding": "inplace",
						"label": "uint256",
						"numberOfBytes": "32"
					}
				}
			},
			"userdoc": {
				"errors": {
					"AlreadyRegistered(bytes32,address)": [
						{
							"notice": "Thrown if the subnode is already registered."
						}
					],
					"DaoUnauthorized(address,address,address,bytes32)": [
						{
							"notice": "Thrown if a call is unauthorized in the associated DAO."
						}
					],
					"InvalidResolver(bytes32,address)": [
						{
							"notice": "Thrown if node's resolver is invalid."
						}
					]
				},
				"kind": "user",
				"methods": {
					"REGISTER_ENS_SUBDOMAIN_PERMISSION_ID()": {
						"notice": "The ID of the permission required to call the `registerSubnode` and `setDefaultResolver` function."
					},
					"UPGRADE_REGISTRAR_PERMISSION_ID()": {
						"notice": "The ID of the permission required to call the `_authorizeUpgrade` function."
					},
					"dao()": {
						"notice": "Returns the DAO contract."
					},
					"ens()": {
						"notice": "The ENS registry contract"
					},
					"initialize(address,address,bytes32)": {
						"notice": "Initializes the component by - checking that the contract is the domain node owner or an approved operator - initializing the underlying component - registering the [ERC-165](https://eips.ethereum.org/EIPS/eip-165) interface ID - setting the ENS contract, the domain node hash, and resolver."
					},
					"node()": {
						"notice": "The namehash of the domain on which subdomains are registered."
					},
					"protocolVersion()": {
						"notice": "Returns the semantic Aragon OSx protocol version number that the implementing contract is associated with."
					},
					"registerSubnode(bytes32,address)": {
						"notice": "Registers a new subdomain with this registrar as the owner and set the target address in the resolver."
					},
					"resolver()": {
						"notice": "The address of the ENS resolver resolving the names to an address."
					},
					"setDefaultResolver(address)": {
						"notice": "Sets the default resolver contract address that the subdomains being registered will use."
					}
				},
				"notice": "This contract registers ENS subdomains under a parent domain specified in the initialization process and maintains ownership of the subdomain since only the resolver address is set. This contract must either be the domain node owner or an approved operator of the node owner. The default resolver being used is the one specified in the parent domain.",
				"version": 1
			}
		}
	}
}