{
	"packages/contracts/src/framework/plugin/repo/PluginRepoRegistry.sol": {
		"PluginRepoRegistry": {
			"abi": [
				{
					"inputs": [],
					"stateMutability": "nonpayable",
					"type": "constructor"
				},
				{
					"inputs": [
						{
							"internalType": "address",
							"name": "registrant",
							"type": "address"
						}
					],
					"name": "ContractAlreadyRegistered",
					"type": "error"
				},
				{
					"inputs": [
						{
							"internalType": "address",
							"name": "registrant",
							"type": "address"
						}
					],
					"name": "ContractERC165SupportInvalid",
					"type": "error"
				},
				{
					"inputs": [
						{
							"internalType": "address",
							"name": "registrant",
							"type": "address"
						}
					],
					"name": "ContractInterfaceInvalid",
					"type": "error"
				},
				{
					"inputs": [
						{
							"internalType": "address",
							"name": "dao",
							"type": "address"
						},
						{
							"internalType": "address",
							"name": "where",
							"type": "address"
						},
						{
							"internalType": "address",
							"name": "who",
							"type": "address"
						},
						{
							"internalType": "bytes32",
							"name": "permissionId",
							"type": "bytes32"
						}
					],
					"name": "DaoUnauthorized",
					"type": "error"
				},
				{
					"inputs": [],
					"name": "EmptyPluginRepoSubdomain",
					"type": "error"
				},
				{
					"inputs": [
						{
							"internalType": "string",
							"name": "subdomain",
							"type": "string"
						}
					],
					"name": "InvalidPluginSubdomain",
					"type": "error"
				},
				{
					"anonymous": false,
					"inputs": [
						{
							"indexed": false,
							"internalType": "address",
							"name": "previousAdmin",
							"type": "address"
						},
						{
							"indexed": false,
							"internalType": "address",
							"name": "newAdmin",
							"type": "address"
						}
					],
					"name": "AdminChanged",
					"type": "event"
				},
				{
					"anonymous": false,
					"inputs": [
						{
							"indexed": true,
							"internalType": "address",
							"name": "beacon",
							"type": "address"
						}
					],
					"name": "BeaconUpgraded",
					"type": "event"
				},
				{
					"anonymous": false,
					"inputs": [
						{
							"indexed": false,
							"internalType": "uint8",
							"name": "version",
							"type": "uint8"
						}
					],
					"name": "Initialized",
					"type": "event"
				},
				{
					"anonymous": false,
					"inputs": [
						{
							"indexed": false,
							"internalType": "string",
							"name": "subdomain",
							"type": "string"
						},
						{
							"indexed": false,
							"internalType": "address",
							"name": "pluginRepo",
							"type": "address"
						}
					],
					"name": "PluginRepoRegistered",
					"type": "event"
				},
				{
					"anonymous": false,
					"inputs": [
						{
							"indexed": true,
							"internalType": "address",
							"name": "implementation",
							"type": "address"
						}
					],
					"name": "Upgraded",
					"type": "event"
				},
				{
					"inputs": [],
					"name": "REGISTER_PLUGIN_REPO_PERMISSION_ID",
					"outputs": [
						{
							"internalType": "bytes32",
							"name": "",
							"type": "bytes32"
						}
					],
					"stateMutability": "view",
					"type": "function"
				},
				{
					"inputs": [],
					"name": "UPGRADE_REGISTRY_PERMISSION_ID",
					"outputs": [
						{
							"internalType": "bytes32",
							"name": "",
							"type": "bytes32"
						}
					],
					"stateMutability": "view",
					"type": "function"
				},
				{
					"inputs": [],
					"name": "dao",
					"outputs": [
						{
							"internalType": "contract IDAO",
							"name": "",
							"type": "address"
						}
					],
					"stateMutability": "view",
					"type": "function"
				},
				{
					"inputs": [
						{
							"internalType": "address",
							"name": "",
							"type": "address"
						}
					],
					"name": "entries",
					"outputs": [
						{
							"internalType": "bool",
							"name": "",
							"type": "bool"
						}
					],
					"stateMutability": "view",
					"type": "function"
				},
				{
					"inputs": [
						{
							"internalType": "contract IDAO",
							"name": "_dao",
							"type": "address"
						},
						{
							"internalType": "contract ENSSubdomainRegistrar",
							"name": "_subdomainRegistrar",
							"type": "address"
						}
					],
					"name": "initialize",
					"outputs": [],
					"stateMutability": "nonpayable",
					"type": "function"
				},
				{
					"inputs": [],
					"name": "protocolVersion",
					"outputs": [
						{
							"internalType": "uint8[3]",
							"name": "",
							"type": "uint8[3]"
						}
					],
					"stateMutability": "pure",
					"type": "function"
				},
				{
					"inputs": [],
					"name": "proxiableUUID",
					"outputs": [
						{
							"internalType": "bytes32",
							"name": "",
							"type": "bytes32"
						}
					],
					"stateMutability": "view",
					"type": "function"
				},
				{
					"inputs": [
						{
							"internalType": "string",
							"name": "subdomain",
							"type": "string"
						},
						{
							"internalType": "address",
							"name": "pluginRepo",
							"type": "address"
						}
					],
					"name": "registerPluginRepo",
					"outputs": [],
					"stateMutability": "nonpayable",
					"type": "function"
				},
				{
					"inputs": [],
					"name": "subdomainRegistrar",
					"outputs": [
						{
							"internalType": "contract ENSSubdomainRegistrar",
							"name": "",
							"type": "address"
						}
					],
					"stateMutability": "view",
					"type": "function"
				},
				{
					"inputs": [],
					"name": "targetInterfaceId",
					"outputs": [
						{
							"internalType": "bytes4",
							"name": "",
							"type": "bytes4"
						}
					],
					"stateMutability": "view",
					"type": "function"
				},
				{
					"inputs": [
						{
							"internalType": "address",
							"name": "newImplementation",
							"type": "address"
						}
					],
					"name": "upgradeTo",
					"outputs": [],
					"stateMutability": "nonpayable",
					"type": "function"
				},
				{
					"inputs": [
						{
							"internalType": "address",
							"name": "newImplementation",
							"type": "address"
						},
						{
							"internalType": "bytes",
							"name": "data",
							"type": "bytes"
						}
					],
					"name": "upgradeToAndCall",
					"outputs": [],
					"stateMutability": "payable",
					"type": "function"
				}
			],
			"devdoc": {
				"author": "Aragon Association - 2022-2023",
				"custom:security-contact": "sirt@aragon.org",
				"errors": {
					"ContractAlreadyRegistered(address)": [
						{
							"params": {
								"registrant": "The address of the contract to be registered."
							}
						}
					],
					"ContractERC165SupportInvalid(address)": [
						{
							"params": {
								"registrant": "The address of the contract."
							}
						}
					],
					"ContractInterfaceInvalid(address)": [
						{
							"params": {
								"registrant": "The address of the contract to be registered."
							}
						}
					],
					"DaoUnauthorized(address,address,address,bytes32)": [
						{
							"params": {
								"dao": "The associated DAO.",
								"permissionId": "The permission identifier.",
								"where": "The context in which the authorization reverted.",
								"who": "The address (EOA or contract) missing the permission."
							}
						}
					]
				},
				"events": {
					"PluginRepoRegistered(string,address)": {
						"params": {
							"pluginRepo": "The address of the plugin repository.",
							"subdomain": "The subdomain of the plugin repository."
						}
					}
				},
				"kind": "dev",
				"methods": {
					"constructor": {
						"custom:oz-upgrades-unsafe-allow": "constructor",
						"details": "Used to disallow initializing the implementation contract by an attacker for extra safety."
					},
					"dao()": {
						"returns": {
							"_0": "The DAO contract."
						}
					},
					"initialize(address,address)": {
						"params": {
							"_dao": "The address of the managing DAO.",
							"_subdomainRegistrar": "The `ENSSubdomainRegistrar` where `ENS` subdomain will be registered."
						}
					},
					"protocolVersion()": {
						"details": "This version number is not to be confused with the `release` and `build` numbers found in the `Version.Tag` struct inside the `PluginRepo` contract being used to version plugin setup and associated plugin implementation contracts.",
						"returns": {
							"_0": "Returns the semantic Aragon OSx protocol version number."
						}
					},
					"proxiableUUID()": {
						"details": "Implementation of the ERC1822 {proxiableUUID} function. This returns the storage slot used by the implementation. It is used to validate the implementation's compatibility when performing an upgrade. IMPORTANT: A proxy pointing at a proxiable contract should not be considered proxiable itself, because this risks bricking a proxy that upgrades to it, by delegating to itself until out of gas. Thus it is critical that this function revert if invoked through a proxy. This is guaranteed by the `notDelegated` modifier."
					},
					"registerPluginRepo(string,address)": {
						"params": {
							"pluginRepo": "The address of the PluginRepo contract.",
							"subdomain": "The subdomain of the PluginRepo."
						}
					},
					"upgradeTo(address)": {
						"custom:oz-upgrades-unsafe-allow-reachable": "delegatecall",
						"details": "Upgrade the implementation of the proxy to `newImplementation`. Calls {_authorizeUpgrade}. Emits an {Upgraded} event."
					},
					"upgradeToAndCall(address,bytes)": {
						"custom:oz-upgrades-unsafe-allow-reachable": "delegatecall",
						"details": "Upgrade the implementation of the proxy to `newImplementation`, and subsequently execute the function call encoded in `data`. Calls {_authorizeUpgrade}. Emits an {Upgraded} event."
					}
				},
				"title": "PluginRepoRegistry",
				"version": 1
			},
			"evm": {
				"assembly": "    /* \"packages/contracts/src/framework/plugin/repo/PluginRepoRegistry.sol\":721:3605  contract PluginRepoRegistry is InterfaceBasedRegistry, ProtocolVersion {... */\n  mstore(0x40, 0xa0)\n    /* \"https://raw.githubusercontent.com/mzfshark/contracts-upgradeable/v4.9.3/contracts/proxy/utils/UUPSUpgradeable.sol\":1332:1336  this */\n  address\n    /* \"https://raw.githubusercontent.com/mzfshark/contracts-upgradeable/v4.9.3/contracts/proxy/utils/UUPSUpgradeable.sol\":1289:1337  address private immutable __self = address(this) */\n  0x80\n  mstore\n    /* \"packages/contracts/src/framework/plugin/repo/PluginRepoRegistry.sol\":1826:1881  constructor() {... */\n  callvalue\n  dup1\n  iszero\n  tag_1\n  jumpi\n  0x00\n  dup1\n  revert\ntag_1:\n  pop\n    /* \"packages/contracts/src/framework/plugin/repo/PluginRepoRegistry.sol\":1851:1873  _disableInitializers() */\n  tag_4\n    /* \"packages/contracts/src/framework/plugin/repo/PluginRepoRegistry.sol\":1851:1871  _disableInitializers */\n  tag_5\n    /* \"packages/contracts/src/framework/plugin/repo/PluginRepoRegistry.sol\":1851:1873  _disableInitializers() */\n  jump\t// in\ntag_4:\n    /* \"packages/contracts/src/framework/plugin/repo/PluginRepoRegistry.sol\":721:3605  contract PluginRepoRegistry is InterfaceBasedRegistry, ProtocolVersion {... */\n  jump(tag_14)\n    /* \"https://raw.githubusercontent.com/mzfshark/contracts-upgradeable/v4.9.3/contracts/proxy/utils/Initializable.sol\":5939:6219  function _disableInitializers() internal virtual {... */\ntag_5:\n    /* \"https://raw.githubusercontent.com/mzfshark/contracts-upgradeable/v4.9.3/contracts/proxy/utils/Initializable.sol\":6007:6020  _initializing */\n  sload(0x00)\n  0x0100\n  swap1\n  div\n  0xff\n  and\n    /* \"https://raw.githubusercontent.com/mzfshark/contracts-upgradeable/v4.9.3/contracts/proxy/utils/Initializable.sol\":6006:6020  !_initializing */\n  iszero\n    /* \"https://raw.githubusercontent.com/mzfshark/contracts-upgradeable/v4.9.3/contracts/proxy/utils/Initializable.sol\":5998:6064  require(!_initializing, \"Initializable: contract is initializing\") */\n  tag_8\n  jumpi\n  mload(0x40)\n  shl(0xe5, 0x461bcd)\n  dup2\n  mstore\n    /* \"#utility.yul\":216:218   */\n  0x20\n    /* \"https://raw.githubusercontent.com/mzfshark/contracts-upgradeable/v4.9.3/contracts/proxy/utils/Initializable.sol\":5998:6064  require(!_initializing, \"Initializable: contract is initializing\") */\n  0x04\n  dup3\n  add\n    /* \"#utility.yul\":198:219   */\n  mstore\n    /* \"#utility.yul\":255:257   */\n  0x27\n    /* \"#utility.yul\":235:253   */\n  0x24\n  dup3\n  add\n    /* \"#utility.yul\":228:258   */\n  mstore\n    /* \"#utility.yul\":294:328   */\n  0x496e697469616c697a61626c653a20636f6e747261637420697320696e697469\n    /* \"#utility.yul\":274:292   */\n  0x44\n  dup3\n  add\n    /* \"#utility.yul\":267:329   */\n  mstore\n  shl(0xc8, 0x616c697a696e67)\n    /* \"#utility.yul\":345:363   */\n  0x64\n  dup3\n  add\n    /* \"#utility.yul\":338:375   */\n  mstore\n    /* \"#utility.yul\":392:411   */\n  0x84\n  add\n    /* \"https://raw.githubusercontent.com/mzfshark/contracts-upgradeable/v4.9.3/contracts/proxy/utils/Initializable.sol\":5998:6064  require(!_initializing, \"Initializable: contract is initializing\") */\n  mload(0x40)\n  dup1\n  swap2\n  sub\n  swap1\n  revert\ntag_8:\n    /* \"https://raw.githubusercontent.com/mzfshark/contracts-upgradeable/v4.9.3/contracts/proxy/utils/Initializable.sol\":6078:6090  _initialized */\n  sload(0x00)\n    /* \"https://raw.githubusercontent.com/mzfshark/contracts-upgradeable/v4.9.3/contracts/proxy/utils/Initializable.sol\":6094:6109  type(uint8).max */\n  0xff\n    /* \"https://raw.githubusercontent.com/mzfshark/contracts-upgradeable/v4.9.3/contracts/proxy/utils/Initializable.sol\":6078:6090  _initialized */\n  swap1\n  dup2\n  and\n    /* \"https://raw.githubusercontent.com/mzfshark/contracts-upgradeable/v4.9.3/contracts/proxy/utils/Initializable.sol\":6078:6109  _initialized != type(uint8).max */\n  eq\n    /* \"https://raw.githubusercontent.com/mzfshark/contracts-upgradeable/v4.9.3/contracts/proxy/utils/Initializable.sol\":6074:6213  if (_initialized != type(uint8).max) {... */\n  tag_11\n  jumpi\n    /* \"https://raw.githubusercontent.com/mzfshark/contracts-upgradeable/v4.9.3/contracts/proxy/utils/Initializable.sol\":6125:6137  _initialized */\n  0x00\n    /* \"https://raw.githubusercontent.com/mzfshark/contracts-upgradeable/v4.9.3/contracts/proxy/utils/Initializable.sol\":6125:6155  _initialized = type(uint8).max */\n  dup1\n  sload\n  not(0xff)\n  and\n    /* \"https://raw.githubusercontent.com/mzfshark/contracts-upgradeable/v4.9.3/contracts/proxy/utils/Initializable.sol\":6140:6155  type(uint8).max */\n  0xff\n    /* \"https://raw.githubusercontent.com/mzfshark/contracts-upgradeable/v4.9.3/contracts/proxy/utils/Initializable.sol\":6125:6155  _initialized = type(uint8).max */\n  swap1\n  dup2\n  or\n  swap1\n  swap2\n  sstore\n    /* \"https://raw.githubusercontent.com/mzfshark/contracts-upgradeable/v4.9.3/contracts/proxy/utils/Initializable.sol\":6174:6202  Initialized(type(uint8).max) */\n  mload(0x40)\n    /* \"#utility.yul\":564:600   */\n  swap1\n  dup2\n  mstore\n    /* \"https://raw.githubusercontent.com/mzfshark/contracts-upgradeable/v4.9.3/contracts/proxy/utils/Initializable.sol\":6174:6202  Initialized(type(uint8).max) */\n  0x7f26b83ff96e1f2b6a682f133852f6798a09c465da95921460cefb3847402498\n  swap1\n    /* \"#utility.yul\":552:554   */\n  0x20\n    /* \"#utility.yul\":537:555   */\n  add\n    /* \"https://raw.githubusercontent.com/mzfshark/contracts-upgradeable/v4.9.3/contracts/proxy/utils/Initializable.sol\":6174:6202  Initialized(type(uint8).max) */\n  mload(0x40)\n  dup1\n  swap2\n  sub\n  swap1\n  log1\n    /* \"https://raw.githubusercontent.com/mzfshark/contracts-upgradeable/v4.9.3/contracts/proxy/utils/Initializable.sol\":6074:6213  if (_initialized != type(uint8).max) {... */\ntag_11:\n    /* \"https://raw.githubusercontent.com/mzfshark/contracts-upgradeable/v4.9.3/contracts/proxy/utils/Initializable.sol\":5939:6219  function _disableInitializers() internal virtual {... */\n  jump\t// out\n    /* \"#utility.yul\":422:606   */\ntag_14:\n    /* \"packages/contracts/src/framework/plugin/repo/PluginRepoRegistry.sol\":721:3605  contract PluginRepoRegistry is InterfaceBasedRegistry, ProtocolVersion {... */\n  mload(0x80)\n  codecopy(0x00, dataOffset(sub_0), dataSize(sub_0))\n  0x00\n  assignImmutable(\"0x0227f622f4eada773ae6f97af92d6534c94b72b7108fbd4b2bf2fecdd9a0faeb\")\n  return(0x00, dataSize(sub_0))\nstop\n\nsub_0: assembly {\n        /* \"packages/contracts/src/framework/plugin/repo/PluginRepoRegistry.sol\":721:3605  contract PluginRepoRegistry is InterfaceBasedRegistry, ProtocolVersion {... */\n      mstore(0x40, 0x80)\n      jumpi(tag_1, lt(calldatasize, 0x04))\n      shr(0xe0, calldataload(0x00))\n      dup1\n      0x4f1ef286\n      gt\n      tag_14\n      jumpi\n      dup1\n      0x4f1ef286\n      eq\n      tag_8\n      jumpi\n      dup1\n      0x52d1902d\n      eq\n      tag_9\n      jumpi\n      dup1\n      0x74574eb7\n      eq\n      tag_10\n      jumpi\n      dup1\n      0xce091c86\n      eq\n      tag_11\n      jumpi\n      dup1\n      0xf29ee125\n      eq\n      tag_12\n      jumpi\n      dup1\n      0xfdb9df55\n      eq\n      tag_13\n      jumpi\n      0x00\n      dup1\n      revert\n    tag_14:\n      dup1\n      0x077393\n      eq\n      tag_2\n      jumpi\n      dup1\n      0x2ae9c600\n      eq\n      tag_3\n      jumpi\n      dup1\n      0x3659cfe6\n      eq\n      tag_4\n      jumpi\n      dup1\n      0x4162169f\n      eq\n      tag_5\n      jumpi\n      dup1\n      0x44162ef8\n      eq\n      tag_6\n      jumpi\n      dup1\n      0x485cc955\n      eq\n      tag_7\n      jumpi\n    tag_1:\n      0x00\n      dup1\n      revert\n        /* \"packages/contracts/src/framework/plugin/repo/PluginRepoRegistry.sol\":1090:1137  ENSSubdomainRegistrar public subdomainRegistrar */\n    tag_2:\n      callvalue\n      dup1\n      iszero\n      tag_15\n      jumpi\n      0x00\n      dup1\n      revert\n    tag_15:\n      pop\n      sload(0xfb)\n      tag_16\n      swap1\n      sub(shl(0xa0, 0x01), 0x01)\n      and\n      dup2\n      jump\n    tag_16:\n      mload(0x40)\n      sub(shl(0xa0, 0x01), 0x01)\n        /* \"#utility.yul\":208:240   */\n      swap1\n      swap2\n      and\n        /* \"#utility.yul\":190:241   */\n      dup2\n      mstore\n        /* \"#utility.yul\":178:180   */\n      0x20\n        /* \"#utility.yul\":163:181   */\n      add\n        /* \"packages/contracts/src/framework/plugin/repo/PluginRepoRegistry.sol\":1090:1137  ENSSubdomainRegistrar public subdomainRegistrar */\n    tag_18:\n      mload(0x40)\n      dup1\n      swap2\n      sub\n      swap1\n      return\n        /* \"packages/contracts/src/utils/protocol/ProtocolVersion.sol\":656:756  function protocolVersion() public pure returns (uint8[3] memory) {... */\n    tag_3:\n      callvalue\n      dup1\n      iszero\n      tag_20\n      jumpi\n      0x00\n      dup1\n      revert\n    tag_20:\n      pop\n      tag_21\n      tag_22\n      jump\t// in\n    tag_21:\n      mload(0x40)\n      tag_18\n      swap2\n      swap1\n      tag_24\n      jump\t// in\n        /* \"https://raw.githubusercontent.com/mzfshark/contracts-upgradeable/v4.9.3/contracts/proxy/utils/UUPSUpgradeable.sol\":3387:3582  function upgradeTo(address newImplementation) public virtual onlyProxy {... */\n    tag_4:\n      callvalue\n      dup1\n      iszero\n      tag_25\n      jumpi\n      0x00\n      dup1\n      revert\n    tag_25:\n      pop\n      tag_26\n      tag_27\n      calldatasize\n      0x04\n      tag_28\n      jump\t// in\n    tag_27:\n      tag_29\n      jump\t// in\n    tag_26:\n      stop\n        /* \"packages/contracts/src/core/plugin/dao-authorizable/DaoAuthorizableUpgradeable.sol\":1239:1311  function dao() public view returns (IDAO) {... */\n    tag_5:\n      callvalue\n      dup1\n      iszero\n      tag_30\n      jumpi\n      0x00\n      dup1\n      revert\n    tag_30:\n      pop\n        /* \"packages/contracts/src/core/plugin/dao-authorizable/DaoAuthorizableUpgradeable.sol\":1299:1303  dao_ */\n      and(sub(shl(0xa0, 0x01), 0x01), sload(0x97))\n        /* \"packages/contracts/src/core/plugin/dao-authorizable/DaoAuthorizableUpgradeable.sol\":1239:1311  function dao() public view returns (IDAO) {... */\n      jump(tag_16)\n        /* \"packages/contracts/src/framework/utils/InterfaceBasedRegistry.sol\":1276:1307  bytes4 public targetInterfaceId */\n    tag_6:\n      callvalue\n      dup1\n      iszero\n      tag_35\n      jumpi\n      0x00\n      dup1\n      revert\n    tag_35:\n      pop\n      sload(0xc9)\n      tag_36\n      swap1\n      0xe0\n      shl\n      dup2\n      jump\n    tag_36:\n      mload(0x40)\n      not(sub(shl(0xe0, 0x01), 0x01))\n        /* \"#utility.yul\":1529:1562   */\n      swap1\n      swap2\n      and\n        /* \"#utility.yul\":1511:1563   */\n      dup2\n      mstore\n        /* \"#utility.yul\":1499:1501   */\n      0x20\n        /* \"#utility.yul\":1484:1502   */\n      add\n        /* \"packages/contracts/src/framework/utils/InterfaceBasedRegistry.sol\":1276:1307  bytes4 public targetInterfaceId */\n      tag_18\n        /* \"#utility.yul\":1367:1569   */\n      jump\n        /* \"packages/contracts/src/framework/plugin/repo/PluginRepoRegistry.sol\":2169:2465  function initialize(IDAO _dao, ENSSubdomainRegistrar _subdomainRegistrar) external initializer {... */\n    tag_7:\n      callvalue\n      dup1\n      iszero\n      tag_40\n      jumpi\n      0x00\n      dup1\n      revert\n    tag_40:\n      pop\n      tag_26\n      tag_42\n      calldatasize\n      0x04\n      tag_43\n      jump\t// in\n    tag_42:\n      tag_44\n      jump\t// in\n        /* \"https://raw.githubusercontent.com/mzfshark/contracts-upgradeable/v4.9.3/contracts/proxy/utils/UUPSUpgradeable.sol\":3901:4121  function upgradeToAndCall(address newImplementation, bytes memory data) public payable virtual onlyProxy {... */\n    tag_8:\n      tag_26\n      tag_46\n      calldatasize\n      0x04\n      tag_47\n      jump\t// in\n    tag_46:\n      tag_48\n      jump\t// in\n        /* \"https://raw.githubusercontent.com/mzfshark/contracts-upgradeable/v4.9.3/contracts/proxy/utils/UUPSUpgradeable.sol\":3006:3137  function proxiableUUID() external view virtual override notDelegated returns (bytes32) {... */\n    tag_9:\n      callvalue\n      dup1\n      iszero\n      tag_49\n      jumpi\n      0x00\n      dup1\n      revert\n    tag_49:\n      pop\n      tag_50\n      tag_51\n      jump\t// in\n    tag_50:\n      mload(0x40)\n        /* \"#utility.yul\":3349:3374   */\n      swap1\n      dup2\n      mstore\n        /* \"#utility.yul\":3337:3339   */\n      0x20\n        /* \"#utility.yul\":3322:3340   */\n      add\n        /* \"https://raw.githubusercontent.com/mzfshark/contracts-upgradeable/v4.9.3/contracts/proxy/utils/UUPSUpgradeable.sol\":3006:3137  function proxiableUUID() external view virtual override notDelegated returns (bytes32) {... */\n      tag_18\n        /* \"#utility.yul\":3203:3380   */\n      jump\n        /* \"packages/contracts/src/framework/utils/InterfaceBasedRegistry.sol\":1020:1126  bytes32 public constant UPGRADE_REGISTRY_PERMISSION_ID =... */\n    tag_10:\n      callvalue\n      dup1\n      iszero\n      tag_54\n      jumpi\n      0x00\n      dup1\n      revert\n    tag_54:\n      pop\n      tag_50\n        /* \"packages/contracts/src/framework/utils/InterfaceBasedRegistry.sol\":1086:1126  keccak256(\"UPGRADE_REGISTRY_PERMISSION\") */\n      0x60b96ff9fb5f29153c29c1747515b8be4ee523d686cc6f453ec294b0afa72932\n        /* \"packages/contracts/src/framework/utils/InterfaceBasedRegistry.sol\":1020:1126  bytes32 public constant UPGRADE_REGISTRY_PERMISSION_ID =... */\n      dup2\n      jump\n        /* \"packages/contracts/src/framework/plugin/repo/PluginRepoRegistry.sol\":883:997  bytes32 public constant REGISTER_PLUGIN_REPO_PERMISSION_ID =... */\n    tag_11:\n      callvalue\n      dup1\n      iszero\n      tag_58\n      jumpi\n      0x00\n      dup1\n      revert\n    tag_58:\n      pop\n      tag_50\n        /* \"packages/contracts/src/framework/plugin/repo/PluginRepoRegistry.sol\":953:997  keccak256(\"REGISTER_PLUGIN_REPO_PERMISSION\") */\n      0x055973dfb6d3b3cd890dde3a801f5427fa973864752b6d2a1ae61cbd5ae5dc09\n        /* \"packages/contracts/src/framework/plugin/repo/PluginRepoRegistry.sol\":883:997  bytes32 public constant REGISTER_PLUGIN_REPO_PERMISSION_ID =... */\n      dup2\n      jump\n        /* \"packages/contracts/src/framework/utils/InterfaceBasedRegistry.sol\":1427:1466  mapping(address => bool) public entries */\n    tag_12:\n      callvalue\n      dup1\n      iszero\n      tag_62\n      jumpi\n      0x00\n      dup1\n      revert\n    tag_62:\n      pop\n      tag_63\n      tag_64\n      calldatasize\n      0x04\n      tag_28\n      jump\t// in\n    tag_64:\n      mstore(0x20, 0xca)\n      0x00\n      swap1\n      dup2\n      mstore\n      0x40\n      swap1\n      keccak256\n      sload\n      0xff\n      and\n      dup2\n      jump\n    tag_63:\n      mload(0x40)\n        /* \"#utility.yul\":3550:3564   */\n      swap1\n      iszero\n        /* \"#utility.yul\":3543:3565   */\n      iszero\n        /* \"#utility.yul\":3525:3566   */\n      dup2\n      mstore\n        /* \"#utility.yul\":3513:3515   */\n      0x20\n        /* \"#utility.yul\":3498:3516   */\n      add\n        /* \"packages/contracts/src/framework/utils/InterfaceBasedRegistry.sol\":1427:1466  mapping(address => bool) public entries */\n      tag_18\n        /* \"#utility.yul\":3385:3572   */\n      jump\n        /* \"packages/contracts/src/framework/plugin/repo/PluginRepoRegistry.sol\":2676:3289  function registerPluginRepo(... */\n    tag_13:\n      callvalue\n      dup1\n      iszero\n      tag_68\n      jumpi\n      0x00\n      dup1\n      revert\n    tag_68:\n      pop\n      tag_26\n      tag_70\n      calldatasize\n      0x04\n      tag_71\n      jump\t// in\n    tag_70:\n      tag_72\n      jump\t// in\n        /* \"packages/contracts/src/utils/protocol/ProtocolVersion.sol\":656:756  function protocolVersion() public pure returns (uint8[3] memory) {... */\n    tag_22:\n        /* \"packages/contracts/src/utils/protocol/ProtocolVersion.sol\":704:719  uint8[3] memory */\n      tag_73\n      tag_74\n      jump\t// in\n    tag_73:\n      pop\n        /* \"packages/contracts/src/utils/protocol/ProtocolVersion.sol\":732:748  return [1, 4, 0] */\n      0x40\n      dup1\n      mload\n      0x60\n      dup2\n      add\n      dup3\n      mstore\n        /* \"packages/contracts/src/utils/protocol/ProtocolVersion.sol\":740:741  1 */\n      0x01\n        /* \"packages/contracts/src/utils/protocol/ProtocolVersion.sol\":732:748  return [1, 4, 0] */\n      dup2\n      mstore\n        /* \"packages/contracts/src/utils/protocol/ProtocolVersion.sol\":743:744  4 */\n      0x04\n        /* \"packages/contracts/src/utils/protocol/ProtocolVersion.sol\":732:748  return [1, 4, 0] */\n      0x20\n      dup3\n      add\n      mstore\n      0x00\n      swap2\n      dup2\n      add\n      swap2\n      swap1\n      swap2\n      mstore\n      swap1\n        /* \"packages/contracts/src/utils/protocol/ProtocolVersion.sol\":656:756  function protocolVersion() public pure returns (uint8[3] memory) {... */\n      jump\t// out\n        /* \"https://raw.githubusercontent.com/mzfshark/contracts-upgradeable/v4.9.3/contracts/proxy/utils/UUPSUpgradeable.sol\":3387:3582  function upgradeTo(address newImplementation) public virtual onlyProxy {... */\n    tag_29:\n      sub(shl(0xa0, 0x01), 0x01)\n        /* \"https://raw.githubusercontent.com/mzfshark/contracts-upgradeable/v4.9.3/contracts/proxy/utils/UUPSUpgradeable.sol\":1898:1904  __self */\n      immutable(\"0x0227f622f4eada773ae6f97af92d6534c94b72b7108fbd4b2bf2fecdd9a0faeb\")\n        /* \"https://raw.githubusercontent.com/mzfshark/contracts-upgradeable/v4.9.3/contracts/proxy/utils/UUPSUpgradeable.sol\":1881:1904  address(this) != __self */\n      and\n        /* \"https://raw.githubusercontent.com/mzfshark/contracts-upgradeable/v4.9.3/contracts/proxy/utils/UUPSUpgradeable.sol\":1889:1893  this */\n      address\n        /* \"https://raw.githubusercontent.com/mzfshark/contracts-upgradeable/v4.9.3/contracts/proxy/utils/UUPSUpgradeable.sol\":1881:1904  address(this) != __self */\n      sub\n        /* \"https://raw.githubusercontent.com/mzfshark/contracts-upgradeable/v4.9.3/contracts/proxy/utils/UUPSUpgradeable.sol\":1873:1953  require(address(this) != __self, \"Function must be called through delegatecall\") */\n      tag_77\n      jumpi\n      mload(0x40)\n      shl(0xe5, 0x461bcd)\n      dup2\n      mstore\n      0x04\n      add\n      tag_78\n      swap1\n      tag_79\n      jump\t// in\n    tag_78:\n      mload(0x40)\n      dup1\n      swap2\n      sub\n      swap1\n      revert\n    tag_77:\n        /* \"https://raw.githubusercontent.com/mzfshark/contracts-upgradeable/v4.9.3/contracts/proxy/utils/UUPSUpgradeable.sol\":1995:2001  __self */\n      immutable(\"0x0227f622f4eada773ae6f97af92d6534c94b72b7108fbd4b2bf2fecdd9a0faeb\")\n      sub(shl(0xa0, 0x01), 0x01)\n        /* \"https://raw.githubusercontent.com/mzfshark/contracts-upgradeable/v4.9.3/contracts/proxy/utils/UUPSUpgradeable.sol\":1971:2001  _getImplementation() == __self */\n      and\n        /* \"https://raw.githubusercontent.com/mzfshark/contracts-upgradeable/v4.9.3/contracts/proxy/utils/UUPSUpgradeable.sol\":1971:1991  _getImplementation() */\n      tag_80\n      0x00\n      dup1\n      mload\n      0x20\n      data_75b20eef8615de99c108b05f0dbda081c91897128caa336d75dffb97c4132b4d\n      dup4\n      codecopy\n      dup2\n      mload\n      swap2\n      mstore\n        /* \"https://raw.githubusercontent.com/mzfshark/contracts-upgradeable/v4.9.3/contracts/proxy/ERC1967/ERC1967UpgradeUpgradeable.sol\":1536:1601  StorageSlotUpgradeable.getAddressSlot(_IMPLEMENTATION_SLOT).value */\n      sload\n      sub(shl(0xa0, 0x01), 0x01)\n      and\n      swap1\n        /* \"https://raw.githubusercontent.com/mzfshark/contracts-upgradeable/v4.9.3/contracts/proxy/ERC1967/ERC1967UpgradeUpgradeable.sol\":1457:1608  function _getImplementation() internal view returns (address) {... */\n      jump\n        /* \"https://raw.githubusercontent.com/mzfshark/contracts-upgradeable/v4.9.3/contracts/proxy/utils/UUPSUpgradeable.sol\":1971:1991  _getImplementation() */\n    tag_80:\n      sub(shl(0xa0, 0x01), 0x01)\n        /* \"https://raw.githubusercontent.com/mzfshark/contracts-upgradeable/v4.9.3/contracts/proxy/utils/UUPSUpgradeable.sol\":1971:2001  _getImplementation() == __self */\n      and\n      eq\n        /* \"https://raw.githubusercontent.com/mzfshark/contracts-upgradeable/v4.9.3/contracts/proxy/utils/UUPSUpgradeable.sol\":1963:2050  require(_getImplementation() == __self, \"Function must be called through active proxy\") */\n      tag_82\n      jumpi\n      mload(0x40)\n      shl(0xe5, 0x461bcd)\n      dup2\n      mstore\n      0x04\n      add\n      tag_78\n      swap1\n      tag_84\n      jump\t// in\n    tag_82:\n        /* \"https://raw.githubusercontent.com/mzfshark/contracts-upgradeable/v4.9.3/contracts/proxy/utils/UUPSUpgradeable.sol\":3468:3504  _authorizeUpgrade(newImplementation) */\n      tag_86\n        /* \"https://raw.githubusercontent.com/mzfshark/contracts-upgradeable/v4.9.3/contracts/proxy/utils/UUPSUpgradeable.sol\":3486:3503  newImplementation */\n      dup2\n        /* \"https://raw.githubusercontent.com/mzfshark/contracts-upgradeable/v4.9.3/contracts/proxy/utils/UUPSUpgradeable.sol\":3468:3485  _authorizeUpgrade */\n      tag_87\n        /* \"https://raw.githubusercontent.com/mzfshark/contracts-upgradeable/v4.9.3/contracts/proxy/utils/UUPSUpgradeable.sol\":3468:3504  _authorizeUpgrade(newImplementation) */\n      jump\t// in\n    tag_86:\n        /* \"https://raw.githubusercontent.com/mzfshark/contracts-upgradeable/v4.9.3/contracts/proxy/utils/UUPSUpgradeable.sol\":3555:3567  new bytes(0) */\n      0x40\n      dup1\n      mload\n        /* \"https://raw.githubusercontent.com/mzfshark/contracts-upgradeable/v4.9.3/contracts/proxy/utils/UUPSUpgradeable.sol\":3565:3566  0 */\n      0x00\n        /* \"https://raw.githubusercontent.com/mzfshark/contracts-upgradeable/v4.9.3/contracts/proxy/utils/UUPSUpgradeable.sol\":3555:3567  new bytes(0) */\n      dup1\n      dup3\n      mstore\n      0x20\n      dup3\n      add\n      swap1\n      swap3\n      mstore\n        /* \"https://raw.githubusercontent.com/mzfshark/contracts-upgradeable/v4.9.3/contracts/proxy/utils/UUPSUpgradeable.sol\":3514:3575  _upgradeToAndCallUUPS(newImplementation, new bytes(0), false) */\n      tag_88\n      swap2\n        /* \"https://raw.githubusercontent.com/mzfshark/contracts-upgradeable/v4.9.3/contracts/proxy/utils/UUPSUpgradeable.sol\":3536:3553  newImplementation */\n      dup4\n      swap2\n        /* \"https://raw.githubusercontent.com/mzfshark/contracts-upgradeable/v4.9.3/contracts/proxy/utils/UUPSUpgradeable.sol\":3555:3567  new bytes(0) */\n      swap1\n        /* \"https://raw.githubusercontent.com/mzfshark/contracts-upgradeable/v4.9.3/contracts/proxy/utils/UUPSUpgradeable.sol\":3514:3535  _upgradeToAndCallUUPS */\n      tag_93\n        /* \"https://raw.githubusercontent.com/mzfshark/contracts-upgradeable/v4.9.3/contracts/proxy/utils/UUPSUpgradeable.sol\":3514:3575  _upgradeToAndCallUUPS(newImplementation, new bytes(0), false) */\n      jump\t// in\n    tag_88:\n        /* \"https://raw.githubusercontent.com/mzfshark/contracts-upgradeable/v4.9.3/contracts/proxy/utils/UUPSUpgradeable.sol\":3387:3582  function upgradeTo(address newImplementation) public virtual onlyProxy {... */\n      pop\n      jump\t// out\n        /* \"packages/contracts/src/framework/plugin/repo/PluginRepoRegistry.sol\":2169:2465  function initialize(IDAO _dao, ENSSubdomainRegistrar _subdomainRegistrar) external initializer {... */\n    tag_44:\n        /* \"https://raw.githubusercontent.com/mzfshark/contracts-upgradeable/v4.9.3/contracts/proxy/utils/Initializable.sol\":3279:3298  bool isTopLevelCall */\n      0x00\n        /* \"https://raw.githubusercontent.com/mzfshark/contracts-upgradeable/v4.9.3/contracts/proxy/utils/Initializable.sol\":3302:3315  _initializing */\n      sload\n      0x0100\n      swap1\n      div\n      0xff\n      and\n        /* \"https://raw.githubusercontent.com/mzfshark/contracts-upgradeable/v4.9.3/contracts/proxy/utils/Initializable.sol\":3301:3315  !_initializing */\n      iszero\n      dup1\n        /* \"https://raw.githubusercontent.com/mzfshark/contracts-upgradeable/v4.9.3/contracts/proxy/utils/Initializable.sol\":3347:3381  isTopLevelCall && _initialized < 1 */\n      dup1\n      iszero\n      tag_96\n      jumpi\n      pop\n        /* \"https://raw.githubusercontent.com/mzfshark/contracts-upgradeable/v4.9.3/contracts/proxy/utils/Initializable.sol\":3365:3377  _initialized */\n      sload(0x00)\n        /* \"https://raw.githubusercontent.com/mzfshark/contracts-upgradeable/v4.9.3/contracts/proxy/utils/Initializable.sol\":3380:3381  1 */\n      0x01\n        /* \"https://raw.githubusercontent.com/mzfshark/contracts-upgradeable/v4.9.3/contracts/proxy/utils/Initializable.sol\":3365:3377  _initialized */\n      0xff\n      swap1\n      swap2\n      and\n        /* \"https://raw.githubusercontent.com/mzfshark/contracts-upgradeable/v4.9.3/contracts/proxy/utils/Initializable.sol\":3365:3381  _initialized < 1 */\n      lt\n        /* \"https://raw.githubusercontent.com/mzfshark/contracts-upgradeable/v4.9.3/contracts/proxy/utils/Initializable.sol\":3347:3381  isTopLevelCall && _initialized < 1 */\n    tag_96:\n        /* \"https://raw.githubusercontent.com/mzfshark/contracts-upgradeable/v4.9.3/contracts/proxy/utils/Initializable.sol\":3346:3454  (isTopLevelCall && _initialized < 1) || (!AddressUpgradeable.isContract(address(this)) && _initialized == 1) */\n      dup1\n      tag_100\n      jumpi\n      pop\n        /* \"https://raw.githubusercontent.com/mzfshark/contracts-upgradeable/v4.9.3/contracts/proxy/utils/Initializable.sol\":3426:3430  this */\n      address\n        /* \"https://raw.githubusercontent.com/mzfshark/contracts-upgradeable/v4.9.3/contracts/utils/AddressUpgradeable.sol\":1713:1732  account.code.length */\n      extcodesize\n        /* \"https://raw.githubusercontent.com/mzfshark/contracts-upgradeable/v4.9.3/contracts/utils/AddressUpgradeable.sol\":1713:1736  account.code.length > 0 */\n      iszero\n      dup1\n      iszero\n        /* \"https://raw.githubusercontent.com/mzfshark/contracts-upgradeable/v4.9.3/contracts/proxy/utils/Initializable.sol\":3387:3453  !AddressUpgradeable.isContract(address(this)) && _initialized == 1 */\n      tag_100\n      jumpi\n      pop\n        /* \"https://raw.githubusercontent.com/mzfshark/contracts-upgradeable/v4.9.3/contracts/proxy/utils/Initializable.sol\":3436:3448  _initialized */\n      and(0xff, sload(0x00))\n      0x01\n        /* \"https://raw.githubusercontent.com/mzfshark/contracts-upgradeable/v4.9.3/contracts/proxy/utils/Initializable.sol\":3436:3453  _initialized == 1 */\n      eq\n        /* \"https://raw.githubusercontent.com/mzfshark/contracts-upgradeable/v4.9.3/contracts/proxy/utils/Initializable.sol\":3387:3453  !AddressUpgradeable.isContract(address(this)) && _initialized == 1 */\n    tag_100:\n        /* \"https://raw.githubusercontent.com/mzfshark/contracts-upgradeable/v4.9.3/contracts/proxy/utils/Initializable.sol\":3325:3526  require(... */\n      tag_101\n      jumpi\n      mload(0x40)\n      shl(0xe5, 0x461bcd)\n      dup2\n      mstore\n        /* \"#utility.yul\":5343:5345   */\n      0x20\n        /* \"https://raw.githubusercontent.com/mzfshark/contracts-upgradeable/v4.9.3/contracts/proxy/utils/Initializable.sol\":3325:3526  require(... */\n      0x04\n      dup3\n      add\n        /* \"#utility.yul\":5325:5346   */\n      mstore\n        /* \"#utility.yul\":5382:5384   */\n      0x2e\n        /* \"#utility.yul\":5362:5380   */\n      0x24\n      dup3\n      add\n        /* \"#utility.yul\":5355:5385   */\n      mstore\n        /* \"#utility.yul\":5421:5455   */\n      0x496e697469616c697a61626c653a20636f6e747261637420697320616c726561\n        /* \"#utility.yul\":5401:5419   */\n      0x44\n      dup3\n      add\n        /* \"#utility.yul\":5394:5456   */\n      mstore\n      shl(0x92, 0x191e481a5b9a5d1a585b1a5e9959)\n        /* \"#utility.yul\":5472:5490   */\n      0x64\n      dup3\n      add\n        /* \"#utility.yul\":5465:5509   */\n      mstore\n        /* \"#utility.yul\":5526:5545   */\n      0x84\n      add\n        /* \"https://raw.githubusercontent.com/mzfshark/contracts-upgradeable/v4.9.3/contracts/proxy/utils/Initializable.sol\":3325:3526  require(... */\n      tag_78\n        /* \"#utility.yul\":5141:5551   */\n      jump\n        /* \"https://raw.githubusercontent.com/mzfshark/contracts-upgradeable/v4.9.3/contracts/proxy/utils/Initializable.sol\":3325:3526  require(... */\n    tag_101:\n        /* \"https://raw.githubusercontent.com/mzfshark/contracts-upgradeable/v4.9.3/contracts/proxy/utils/Initializable.sol\":3536:3548  _initialized */\n      0x00\n        /* \"https://raw.githubusercontent.com/mzfshark/contracts-upgradeable/v4.9.3/contracts/proxy/utils/Initializable.sol\":3536:3552  _initialized = 1 */\n      dup1\n      sload\n      not(0xff)\n      and\n        /* \"https://raw.githubusercontent.com/mzfshark/contracts-upgradeable/v4.9.3/contracts/proxy/utils/Initializable.sol\":3551:3552  1 */\n      0x01\n        /* \"https://raw.githubusercontent.com/mzfshark/contracts-upgradeable/v4.9.3/contracts/proxy/utils/Initializable.sol\":3536:3552  _initialized = 1 */\n      or\n      swap1\n      sstore\n        /* \"https://raw.githubusercontent.com/mzfshark/contracts-upgradeable/v4.9.3/contracts/proxy/utils/Initializable.sol\":3562:3627  if (isTopLevelCall) {... */\n      dup1\n      iszero\n      tag_104\n      jumpi\n        /* \"https://raw.githubusercontent.com/mzfshark/contracts-upgradeable/v4.9.3/contracts/proxy/utils/Initializable.sol\":3596:3609  _initializing */\n      0x00\n        /* \"https://raw.githubusercontent.com/mzfshark/contracts-upgradeable/v4.9.3/contracts/proxy/utils/Initializable.sol\":3596:3616  _initializing = true */\n      dup1\n      sload\n      not(0xff00)\n      and\n      0x0100\n      or\n      swap1\n      sstore\n        /* \"https://raw.githubusercontent.com/mzfshark/contracts-upgradeable/v4.9.3/contracts/proxy/utils/Initializable.sol\":3562:3627  if (isTopLevelCall) {... */\n    tag_104:\n      shl(0xe6, 0x0350c86d)\n        /* \"packages/contracts/src/framework/plugin/repo/PluginRepoRegistry.sol\":2346:2404  __InterfaceBasedRegistry_init(_dao, pluginRepoInterfaceId) */\n      tag_106\n        /* \"packages/contracts/src/framework/plugin/repo/PluginRepoRegistry.sol\":2376:2380  _dao */\n      dup5\n        /* \"packages/contracts/src/framework/plugin/repo/PluginRepoRegistry.sol\":2306:2335  type(IPluginRepo).interfaceId */\n      dup3\n        /* \"packages/contracts/src/framework/plugin/repo/PluginRepoRegistry.sol\":2346:2375  __InterfaceBasedRegistry_init */\n      tag_107\n        /* \"packages/contracts/src/framework/plugin/repo/PluginRepoRegistry.sol\":2346:2404  __InterfaceBasedRegistry_init(_dao, pluginRepoInterfaceId) */\n      jump\t// in\n    tag_106:\n      pop\n        /* \"packages/contracts/src/framework/plugin/repo/PluginRepoRegistry.sol\":2417:2435  subdomainRegistrar */\n      0xfb\n        /* \"packages/contracts/src/framework/plugin/repo/PluginRepoRegistry.sol\":2417:2457  subdomainRegistrar = _subdomainRegistrar */\n      dup1\n      sload\n      not(sub(shl(0xa0, 0x01), 0x01))\n      and\n      sub(shl(0xa0, 0x01), 0x01)\n      dup5\n      and\n      or\n      swap1\n      sstore\n        /* \"https://raw.githubusercontent.com/mzfshark/contracts-upgradeable/v4.9.3/contracts/proxy/utils/Initializable.sol\":3647:3746  if (isTopLevelCall) {... */\n      dup1\n      iszero\n      tag_108\n      jumpi\n        /* \"https://raw.githubusercontent.com/mzfshark/contracts-upgradeable/v4.9.3/contracts/proxy/utils/Initializable.sol\":3697:3702  false */\n      0x00\n        /* \"https://raw.githubusercontent.com/mzfshark/contracts-upgradeable/v4.9.3/contracts/proxy/utils/Initializable.sol\":3681:3702  _initializing = false */\n      dup1\n      sload\n      not(0xff00)\n      and\n      swap1\n      sstore\n        /* \"https://raw.githubusercontent.com/mzfshark/contracts-upgradeable/v4.9.3/contracts/proxy/utils/Initializable.sol\":3721:3735  Initialized(1) */\n      mload(0x40)\n      0x01\n        /* \"#utility.yul\":5708:5744   */\n      dup2\n      mstore\n        /* \"https://raw.githubusercontent.com/mzfshark/contracts-upgradeable/v4.9.3/contracts/proxy/utils/Initializable.sol\":3721:3735  Initialized(1) */\n      0x7f26b83ff96e1f2b6a682f133852f6798a09c465da95921460cefb3847402498\n      swap1\n        /* \"#utility.yul\":5696:5698   */\n      0x20\n        /* \"#utility.yul\":5681:5699   */\n      add\n        /* \"https://raw.githubusercontent.com/mzfshark/contracts-upgradeable/v4.9.3/contracts/proxy/utils/Initializable.sol\":3721:3735  Initialized(1) */\n      mload(0x40)\n      dup1\n      swap2\n      sub\n      swap1\n      log1\n        /* \"https://raw.githubusercontent.com/mzfshark/contracts-upgradeable/v4.9.3/contracts/proxy/utils/Initializable.sol\":3647:3746  if (isTopLevelCall) {... */\n    tag_108:\n        /* \"https://raw.githubusercontent.com/mzfshark/contracts-upgradeable/v4.9.3/contracts/proxy/utils/Initializable.sol\":3269:3752  {... */\n      pop\n        /* \"packages/contracts/src/framework/plugin/repo/PluginRepoRegistry.sol\":2169:2465  function initialize(IDAO _dao, ENSSubdomainRegistrar _subdomainRegistrar) external initializer {... */\n      pop\n      pop\n      jump\t// out\n        /* \"https://raw.githubusercontent.com/mzfshark/contracts-upgradeable/v4.9.3/contracts/proxy/utils/UUPSUpgradeable.sol\":3901:4121  function upgradeToAndCall(address newImplementation, bytes memory data) public payable virtual onlyProxy {... */\n    tag_48:\n      sub(shl(0xa0, 0x01), 0x01)\n        /* \"https://raw.githubusercontent.com/mzfshark/contracts-upgradeable/v4.9.3/contracts/proxy/utils/UUPSUpgradeable.sol\":1898:1904  __self */\n      immutable(\"0x0227f622f4eada773ae6f97af92d6534c94b72b7108fbd4b2bf2fecdd9a0faeb\")\n        /* \"https://raw.githubusercontent.com/mzfshark/contracts-upgradeable/v4.9.3/contracts/proxy/utils/UUPSUpgradeable.sol\":1881:1904  address(this) != __self */\n      and\n        /* \"https://raw.githubusercontent.com/mzfshark/contracts-upgradeable/v4.9.3/contracts/proxy/utils/UUPSUpgradeable.sol\":1889:1893  this */\n      address\n        /* \"https://raw.githubusercontent.com/mzfshark/contracts-upgradeable/v4.9.3/contracts/proxy/utils/UUPSUpgradeable.sol\":1881:1904  address(this) != __self */\n      sub\n        /* \"https://raw.githubusercontent.com/mzfshark/contracts-upgradeable/v4.9.3/contracts/proxy/utils/UUPSUpgradeable.sol\":1873:1953  require(address(this) != __self, \"Function must be called through delegatecall\") */\n      tag_112\n      jumpi\n      mload(0x40)\n      shl(0xe5, 0x461bcd)\n      dup2\n      mstore\n      0x04\n      add\n      tag_78\n      swap1\n      tag_79\n      jump\t// in\n    tag_112:\n        /* \"https://raw.githubusercontent.com/mzfshark/contracts-upgradeable/v4.9.3/contracts/proxy/utils/UUPSUpgradeable.sol\":1995:2001  __self */\n      immutable(\"0x0227f622f4eada773ae6f97af92d6534c94b72b7108fbd4b2bf2fecdd9a0faeb\")\n      sub(shl(0xa0, 0x01), 0x01)\n        /* \"https://raw.githubusercontent.com/mzfshark/contracts-upgradeable/v4.9.3/contracts/proxy/utils/UUPSUpgradeable.sol\":1971:2001  _getImplementation() == __self */\n      and\n        /* \"https://raw.githubusercontent.com/mzfshark/contracts-upgradeable/v4.9.3/contracts/proxy/utils/UUPSUpgradeable.sol\":1971:1991  _getImplementation() */\n      tag_114\n      0x00\n      dup1\n      mload\n      0x20\n      data_75b20eef8615de99c108b05f0dbda081c91897128caa336d75dffb97c4132b4d\n      dup4\n      codecopy\n      dup2\n      mload\n      swap2\n      mstore\n        /* \"https://raw.githubusercontent.com/mzfshark/contracts-upgradeable/v4.9.3/contracts/proxy/ERC1967/ERC1967UpgradeUpgradeable.sol\":1536:1601  StorageSlotUpgradeable.getAddressSlot(_IMPLEMENTATION_SLOT).value */\n      sload\n      sub(shl(0xa0, 0x01), 0x01)\n      and\n      swap1\n        /* \"https://raw.githubusercontent.com/mzfshark/contracts-upgradeable/v4.9.3/contracts/proxy/ERC1967/ERC1967UpgradeUpgradeable.sol\":1457:1608  function _getImplementation() internal view returns (address) {... */\n      jump\n        /* \"https://raw.githubusercontent.com/mzfshark/contracts-upgradeable/v4.9.3/contracts/proxy/utils/UUPSUpgradeable.sol\":1971:1991  _getImplementation() */\n    tag_114:\n      sub(shl(0xa0, 0x01), 0x01)\n        /* \"https://raw.githubusercontent.com/mzfshark/contracts-upgradeable/v4.9.3/contracts/proxy/utils/UUPSUpgradeable.sol\":1971:2001  _getImplementation() == __self */\n      and\n      eq\n        /* \"https://raw.githubusercontent.com/mzfshark/contracts-upgradeable/v4.9.3/contracts/proxy/utils/UUPSUpgradeable.sol\":1963:2050  require(_getImplementation() == __self, \"Function must be called through active proxy\") */\n      tag_115\n      jumpi\n      mload(0x40)\n      shl(0xe5, 0x461bcd)\n      dup2\n      mstore\n      0x04\n      add\n      tag_78\n      swap1\n      tag_84\n      jump\t// in\n    tag_115:\n        /* \"https://raw.githubusercontent.com/mzfshark/contracts-upgradeable/v4.9.3/contracts/proxy/utils/UUPSUpgradeable.sol\":4016:4052  _authorizeUpgrade(newImplementation) */\n      tag_118\n        /* \"https://raw.githubusercontent.com/mzfshark/contracts-upgradeable/v4.9.3/contracts/proxy/utils/UUPSUpgradeable.sol\":4034:4051  newImplementation */\n      dup3\n        /* \"https://raw.githubusercontent.com/mzfshark/contracts-upgradeable/v4.9.3/contracts/proxy/utils/UUPSUpgradeable.sol\":4016:4033  _authorizeUpgrade */\n      tag_87\n        /* \"https://raw.githubusercontent.com/mzfshark/contracts-upgradeable/v4.9.3/contracts/proxy/utils/UUPSUpgradeable.sol\":4016:4052  _authorizeUpgrade(newImplementation) */\n      jump\t// in\n    tag_118:\n        /* \"https://raw.githubusercontent.com/mzfshark/contracts-upgradeable/v4.9.3/contracts/proxy/utils/UUPSUpgradeable.sol\":4062:4114  _upgradeToAndCallUUPS(newImplementation, data, true) */\n      tag_119\n        /* \"https://raw.githubusercontent.com/mzfshark/contracts-upgradeable/v4.9.3/contracts/proxy/utils/UUPSUpgradeable.sol\":4084:4101  newImplementation */\n      dup3\n        /* \"https://raw.githubusercontent.com/mzfshark/contracts-upgradeable/v4.9.3/contracts/proxy/utils/UUPSUpgradeable.sol\":4103:4107  data */\n      dup3\n        /* \"https://raw.githubusercontent.com/mzfshark/contracts-upgradeable/v4.9.3/contracts/proxy/utils/UUPSUpgradeable.sol\":4109:4113  true */\n      0x01\n        /* \"https://raw.githubusercontent.com/mzfshark/contracts-upgradeable/v4.9.3/contracts/proxy/utils/UUPSUpgradeable.sol\":4062:4083  _upgradeToAndCallUUPS */\n      tag_93\n        /* \"https://raw.githubusercontent.com/mzfshark/contracts-upgradeable/v4.9.3/contracts/proxy/utils/UUPSUpgradeable.sol\":4062:4114  _upgradeToAndCallUUPS(newImplementation, data, true) */\n      jump\t// in\n    tag_119:\n        /* \"https://raw.githubusercontent.com/mzfshark/contracts-upgradeable/v4.9.3/contracts/proxy/utils/UUPSUpgradeable.sol\":3901:4121  function upgradeToAndCall(address newImplementation, bytes memory data) public payable virtual onlyProxy {... */\n      pop\n      pop\n      jump\t// out\n        /* \"https://raw.githubusercontent.com/mzfshark/contracts-upgradeable/v4.9.3/contracts/proxy/utils/UUPSUpgradeable.sol\":3006:3137  function proxiableUUID() external view virtual override notDelegated returns (bytes32) {... */\n    tag_51:\n        /* \"https://raw.githubusercontent.com/mzfshark/contracts-upgradeable/v4.9.3/contracts/proxy/utils/UUPSUpgradeable.sol\":3084:3091  bytes32 */\n      0x00\n        /* \"https://raw.githubusercontent.com/mzfshark/contracts-upgradeable/v4.9.3/contracts/proxy/utils/UUPSUpgradeable.sol\":2324:2328  this */\n      address\n      sub(shl(0xa0, 0x01), 0x01)\n        /* \"https://raw.githubusercontent.com/mzfshark/contracts-upgradeable/v4.9.3/contracts/proxy/utils/UUPSUpgradeable.sol\":2333:2339  __self */\n      immutable(\"0x0227f622f4eada773ae6f97af92d6534c94b72b7108fbd4b2bf2fecdd9a0faeb\")\n        /* \"https://raw.githubusercontent.com/mzfshark/contracts-upgradeable/v4.9.3/contracts/proxy/utils/UUPSUpgradeable.sol\":2316:2339  address(this) == __self */\n      and\n      eq\n        /* \"https://raw.githubusercontent.com/mzfshark/contracts-upgradeable/v4.9.3/contracts/proxy/utils/UUPSUpgradeable.sol\":2308:2400  require(address(this) == __self, \"UUPSUpgradeable: must not be called through delegatecall\") */\n      tag_121\n      jumpi\n      mload(0x40)\n      shl(0xe5, 0x461bcd)\n      dup2\n      mstore\n        /* \"#utility.yul\":5957:5959   */\n      0x20\n        /* \"https://raw.githubusercontent.com/mzfshark/contracts-upgradeable/v4.9.3/contracts/proxy/utils/UUPSUpgradeable.sol\":2308:2400  require(address(this) == __self, \"UUPSUpgradeable: must not be called through delegatecall\") */\n      0x04\n      dup3\n      add\n        /* \"#utility.yul\":5939:5960   */\n      mstore\n        /* \"#utility.yul\":5996:5998   */\n      0x38\n        /* \"#utility.yul\":5976:5994   */\n      0x24\n      dup3\n      add\n        /* \"#utility.yul\":5969:5999   */\n      mstore\n        /* \"#utility.yul\":6035:6069   */\n      0x555550535570677261646561626c653a206d757374206e6f742062652063616c\n        /* \"#utility.yul\":6015:6033   */\n      0x44\n      dup3\n      add\n        /* \"#utility.yul\":6008:6070   */\n      mstore\n        /* \"#utility.yul\":6106:6132   */\n      0x6c6564207468726f7567682064656c656761746563616c6c0000000000000000\n        /* \"#utility.yul\":6086:6104   */\n      0x64\n      dup3\n      add\n        /* \"#utility.yul\":6079:6133   */\n      mstore\n        /* \"#utility.yul\":6150:6169   */\n      0x84\n      add\n        /* \"https://raw.githubusercontent.com/mzfshark/contracts-upgradeable/v4.9.3/contracts/proxy/utils/UUPSUpgradeable.sol\":2308:2400  require(address(this) == __self, \"UUPSUpgradeable: must not be called through delegatecall\") */\n      tag_78\n        /* \"#utility.yul\":5755:6175   */\n      jump\n        /* \"https://raw.githubusercontent.com/mzfshark/contracts-upgradeable/v4.9.3/contracts/proxy/utils/UUPSUpgradeable.sol\":2308:2400  require(address(this) == __self, \"UUPSUpgradeable: must not be called through delegatecall\") */\n    tag_121:\n      pop\n      0x00\n      dup1\n      mload\n      0x20\n      data_75b20eef8615de99c108b05f0dbda081c91897128caa336d75dffb97c4132b4d\n      dup4\n      codecopy\n      dup2\n      mload\n      swap2\n      mstore\n        /* \"https://raw.githubusercontent.com/mzfshark/contracts-upgradeable/v4.9.3/contracts/proxy/utils/UUPSUpgradeable.sol\":3006:3137  function proxiableUUID() external view virtual override notDelegated returns (bytes32) {... */\n      swap1\n      jump\t// out\n        /* \"packages/contracts/src/framework/plugin/repo/PluginRepoRegistry.sol\":2676:3289  function registerPluginRepo(... */\n    tag_72:\n        /* \"packages/contracts/src/core/plugin/dao-authorizable/DaoAuthorizableUpgradeable.sol\":1662:1666  dao_ */\n      sload(0x97)\n        /* \"packages/contracts/src/framework/plugin/repo/PluginRepoRegistry.sol\":953:997  keccak256(\"REGISTER_PLUGIN_REPO_PERMISSION\") */\n      0x055973dfb6d3b3cd890dde3a801f5427fa973864752b6d2a1ae61cbd5ae5dc09\n      swap1\n        /* \"packages/contracts/src/core/plugin/dao-authorizable/DaoAuthorizableUpgradeable.sol\":1656:1723  _auth(dao_, address(this), _msgSender(), _permissionId, _msgData()) */\n      tag_126\n      swap1\n      sub(shl(0xa0, 0x01), 0x01)\n        /* \"packages/contracts/src/core/plugin/dao-authorizable/DaoAuthorizableUpgradeable.sol\":1662:1666  dao_ */\n      and\n        /* \"packages/contracts/src/core/plugin/dao-authorizable/DaoAuthorizableUpgradeable.sol\":1676:1680  this */\n      address\n        /* \"https://raw.githubusercontent.com/mzfshark/contracts-upgradeable/v4.9.3/contracts/utils/ContextUpgradeable.sol\":929:939  msg.sender */\n      caller\n        /* \"packages/contracts/src/core/plugin/dao-authorizable/DaoAuthorizableUpgradeable.sol\":1683:1695  _msgSender() */\n    tag_127:\n        /* \"packages/contracts/src/core/plugin/dao-authorizable/DaoAuthorizableUpgradeable.sol\":1697:1710  _permissionId */\n      dup5\n        /* \"https://raw.githubusercontent.com/mzfshark/contracts-upgradeable/v4.9.3/contracts/utils/ContextUpgradeable.sol\":1003:1017  bytes calldata */\n      0x00\n      calldatasize\n        /* \"packages/contracts/src/core/plugin/dao-authorizable/DaoAuthorizableUpgradeable.sol\":1656:1661  _auth */\n      tag_131\n        /* \"packages/contracts/src/core/plugin/dao-authorizable/DaoAuthorizableUpgradeable.sol\":1656:1723  _auth(dao_, address(this), _msgSender(), _permissionId, _msgData()) */\n      jump\t// in\n    tag_126:\n        /* \"packages/contracts/src/framework/plugin/repo/PluginRepoRegistry.sol\":2843:2870  bytes(subdomain).length > 0 */\n      dup3\n        /* \"packages/contracts/src/framework/plugin/repo/PluginRepoRegistry.sol\":2837:2933  if (!(bytes(subdomain).length > 0)) {... */\n      tag_133\n      jumpi\n        /* \"packages/contracts/src/framework/plugin/repo/PluginRepoRegistry.sol\":2895:2921  EmptyPluginRepoSubdomain() */\n      mload(0x40)\n      shl(0xe0, 0xeb592077)\n      dup2\n      mstore\n      0x04\n      add\n      mload(0x40)\n      dup1\n      swap2\n      sub\n      swap1\n      revert\n        /* \"packages/contracts/src/framework/plugin/repo/PluginRepoRegistry.sol\":2837:2933  if (!(bytes(subdomain).length > 0)) {... */\n    tag_133:\n        /* \"packages/contracts/src/framework/plugin/repo/PluginRepoRegistry.sol\":2950:2977  isSubdomainValid(subdomain) */\n      tag_134\n        /* \"packages/contracts/src/framework/plugin/repo/PluginRepoRegistry.sol\":2967:2976  subdomain */\n      dup5\n      dup5\n        /* \"packages/contracts/src/framework/plugin/repo/PluginRepoRegistry.sol\":2950:2966  isSubdomainValid */\n      tag_135\n        /* \"packages/contracts/src/framework/plugin/repo/PluginRepoRegistry.sol\":2950:2977  isSubdomainValid(subdomain) */\n      jump\t// in\n    tag_134:\n        /* \"packages/contracts/src/framework/plugin/repo/PluginRepoRegistry.sol\":2945:3059  if (!isSubdomainValid(subdomain)) {... */\n      tag_136\n      jumpi\n        /* \"packages/contracts/src/framework/plugin/repo/PluginRepoRegistry.sol\":3036:3045  subdomain */\n      dup4\n      dup4\n        /* \"packages/contracts/src/framework/plugin/repo/PluginRepoRegistry.sol\":3001:3047  InvalidPluginSubdomain({subdomain: subdomain}) */\n      mload(0x40)\n      shl(0xe0, 0x5b7dee83)\n      dup2\n      mstore\n      0x04\n      add\n      tag_78\n      swap3\n      swap2\n      swap1\n      tag_138\n      jump\t// in\n        /* \"packages/contracts/src/framework/plugin/repo/PluginRepoRegistry.sol\":2945:3059  if (!isSubdomainValid(subdomain)) {... */\n    tag_136:\n        /* \"packages/contracts/src/framework/plugin/repo/PluginRepoRegistry.sol\":3071:3088  bytes32 labelhash */\n      0x00\n        /* \"packages/contracts/src/framework/plugin/repo/PluginRepoRegistry.sol\":3107:3116  subdomain */\n      dup5\n      dup5\n        /* \"packages/contracts/src/framework/plugin/repo/PluginRepoRegistry.sol\":3091:3118  keccak256(bytes(subdomain)) */\n      mload(0x40)\n      tag_139\n      swap3\n      swap2\n      swap1\n      tag_140\n      jump\t// in\n    tag_139:\n      mload(0x40)\n      swap1\n      dup2\n      swap1\n      sub\n      dup2\n      keccak256\n        /* \"packages/contracts/src/framework/plugin/repo/PluginRepoRegistry.sol\":3129:3147  subdomainRegistrar */\n      sload(0xfb)\n      shl(0xe0, 0x89bb4145)\n        /* \"packages/contracts/src/framework/plugin/repo/PluginRepoRegistry.sol\":3129:3186  subdomainRegistrar.registerSubnode(labelhash, pluginRepo) */\n      dup4\n      mstore\n      0x04\n      dup4\n      add\n        /* \"#utility.yul\":7154:7179   */\n      dup3\n      swap1\n      mstore\n      sub(shl(0xa0, 0x01), 0x01)\n        /* \"#utility.yul\":7215:7247   */\n      dup7\n      dup2\n      and\n        /* \"#utility.yul\":7195:7213   */\n      0x24\n      dup6\n      add\n        /* \"#utility.yul\":7188:7248   */\n      mstore\n        /* \"packages/contracts/src/framework/plugin/repo/PluginRepoRegistry.sol\":3091:3118  keccak256(bytes(subdomain)) */\n      swap2\n      swap4\n      pop\n        /* \"packages/contracts/src/framework/plugin/repo/PluginRepoRegistry.sol\":3129:3147  subdomainRegistrar */\n      and\n      swap1\n        /* \"packages/contracts/src/framework/plugin/repo/PluginRepoRegistry.sol\":3129:3163  subdomainRegistrar.registerSubnode */\n      0x89bb4145\n      swap1\n        /* \"#utility.yul\":7127:7145   */\n      0x44\n      add\n        /* \"packages/contracts/src/framework/plugin/repo/PluginRepoRegistry.sol\":3129:3186  subdomainRegistrar.registerSubnode(labelhash, pluginRepo) */\n      0x00\n      mload(0x40)\n      dup1\n      dup4\n      sub\n      dup2\n      0x00\n      dup8\n      dup1\n      extcodesize\n      iszero\n      dup1\n      iszero\n      tag_143\n      jumpi\n      0x00\n      dup1\n      revert\n    tag_143:\n      pop\n      gas\n      call\n      iszero\n      dup1\n      iszero\n      tag_145\n      jumpi\n      returndatasize\n      0x00\n      dup1\n      returndatacopy\n      revert(0x00, returndatasize)\n    tag_145:\n      pop\n      pop\n      pop\n      pop\n        /* \"packages/contracts/src/framework/plugin/repo/PluginRepoRegistry.sol\":3199:3220  _register(pluginRepo) */\n      tag_146\n        /* \"packages/contracts/src/framework/plugin/repo/PluginRepoRegistry.sol\":3209:3219  pluginRepo */\n      dup4\n        /* \"packages/contracts/src/framework/plugin/repo/PluginRepoRegistry.sol\":3199:3208  _register */\n      tag_147\n        /* \"packages/contracts/src/framework/plugin/repo/PluginRepoRegistry.sol\":3199:3220  _register(pluginRepo) */\n      jump\t// in\n    tag_146:\n        /* \"packages/contracts/src/framework/plugin/repo/PluginRepoRegistry.sol\":3238:3281  PluginRepoRegistered(subdomain, pluginRepo) */\n      0x8cc06643d6cbee78b006d2df2db4d2487b69dd64bb2c96088280fb29dd93a0b2\n        /* \"packages/contracts/src/framework/plugin/repo/PluginRepoRegistry.sol\":3259:3268  subdomain */\n      dup6\n      dup6\n        /* \"packages/contracts/src/framework/plugin/repo/PluginRepoRegistry.sol\":3270:3280  pluginRepo */\n      dup6\n        /* \"packages/contracts/src/framework/plugin/repo/PluginRepoRegistry.sol\":3238:3281  PluginRepoRegistered(subdomain, pluginRepo) */\n      mload(0x40)\n      tag_148\n      swap4\n      swap3\n      swap2\n      swap1\n      tag_149\n      jump\t// in\n    tag_148:\n      mload(0x40)\n      dup1\n      swap2\n      sub\n      swap1\n      log1\n        /* \"packages/contracts/src/framework/plugin/repo/PluginRepoRegistry.sol\":2826:3289  {... */\n      pop\n        /* \"packages/contracts/src/framework/plugin/repo/PluginRepoRegistry.sol\":2676:3289  function registerPluginRepo(... */\n      pop\n      pop\n      pop\n      pop\n      jump\t// out\n        /* \"packages/contracts/src/framework/utils/InterfaceBasedRegistry.sol\":3015:3132  function _authorizeUpgrade(... */\n    tag_87:\n        /* \"packages/contracts/src/core/plugin/dao-authorizable/DaoAuthorizableUpgradeable.sol\":1662:1666  dao_ */\n      sload(0x97)\n        /* \"packages/contracts/src/framework/utils/InterfaceBasedRegistry.sol\":1086:1126  keccak256(\"UPGRADE_REGISTRY_PERMISSION\") */\n      0x60b96ff9fb5f29153c29c1747515b8be4ee523d686cc6f453ec294b0afa72932\n      swap1\n        /* \"packages/contracts/src/core/plugin/dao-authorizable/DaoAuthorizableUpgradeable.sol\":1656:1723  _auth(dao_, address(this), _msgSender(), _permissionId, _msgData()) */\n      tag_119\n      swap1\n      sub(shl(0xa0, 0x01), 0x01)\n        /* \"packages/contracts/src/core/plugin/dao-authorizable/DaoAuthorizableUpgradeable.sol\":1662:1666  dao_ */\n      and\n        /* \"packages/contracts/src/core/plugin/dao-authorizable/DaoAuthorizableUpgradeable.sol\":1676:1680  this */\n      address\n        /* \"https://raw.githubusercontent.com/mzfshark/contracts-upgradeable/v4.9.3/contracts/utils/ContextUpgradeable.sol\":929:939  msg.sender */\n      caller\n        /* \"packages/contracts/src/core/plugin/dao-authorizable/DaoAuthorizableUpgradeable.sol\":1683:1695  _msgSender() */\n      tag_127\n        /* \"https://raw.githubusercontent.com/mzfshark/contracts-upgradeable/v4.9.3/contracts/utils/ContextUpgradeable.sol\":850:946  function _msgSender() internal view virtual returns (address) {... */\n      jump\n        /* \"https://raw.githubusercontent.com/mzfshark/contracts-upgradeable/v4.9.3/contracts/proxy/ERC1967/ERC1967UpgradeUpgradeable.sol\":2820:3764  function _upgradeToAndCallUUPS(address newImplementation, bytes memory data, bool forceCall) internal {... */\n    tag_93:\n        /* \"https://raw.githubusercontent.com/mzfshark/contracts-upgradeable/v4.9.3/contracts/proxy/ERC1967/ERC1967UpgradeUpgradeable.sol\":971:1037  0x4910fdfa16fed3260ed0e7147f7cc6da11a60208b5b9406d12a635614ffd9143 */\n      0x4910fdfa16fed3260ed0e7147f7cc6da11a60208b5b9406d12a635614ffd9143\n        /* \"https://raw.githubusercontent.com/mzfshark/contracts-upgradeable/v4.9.3/contracts/proxy/ERC1967/ERC1967UpgradeUpgradeable.sol\":3236:3295  StorageSlotUpgradeable.getBooleanSlot(_ROLLBACK_SLOT).value */\n      sload\n      0xff\n      and\n        /* \"https://raw.githubusercontent.com/mzfshark/contracts-upgradeable/v4.9.3/contracts/proxy/ERC1967/ERC1967UpgradeUpgradeable.sol\":3232:3758  if (StorageSlotUpgradeable.getBooleanSlot(_ROLLBACK_SLOT).value) {... */\n      iszero\n      tag_161\n      jumpi\n        /* \"https://raw.githubusercontent.com/mzfshark/contracts-upgradeable/v4.9.3/contracts/proxy/ERC1967/ERC1967UpgradeUpgradeable.sol\":3311:3348  _setImplementation(newImplementation) */\n      tag_108\n        /* \"https://raw.githubusercontent.com/mzfshark/contracts-upgradeable/v4.9.3/contracts/proxy/ERC1967/ERC1967UpgradeUpgradeable.sol\":3330:3347  newImplementation */\n      dup4\n        /* \"https://raw.githubusercontent.com/mzfshark/contracts-upgradeable/v4.9.3/contracts/proxy/ERC1967/ERC1967UpgradeUpgradeable.sol\":3311:3329  _setImplementation */\n      tag_163\n        /* \"https://raw.githubusercontent.com/mzfshark/contracts-upgradeable/v4.9.3/contracts/proxy/ERC1967/ERC1967UpgradeUpgradeable.sol\":3311:3348  _setImplementation(newImplementation) */\n      jump\t// in\n        /* \"https://raw.githubusercontent.com/mzfshark/contracts-upgradeable/v4.9.3/contracts/proxy/ERC1967/ERC1967UpgradeUpgradeable.sol\":3232:3758  if (StorageSlotUpgradeable.getBooleanSlot(_ROLLBACK_SLOT).value) {... */\n    tag_161:\n        /* \"https://raw.githubusercontent.com/mzfshark/contracts-upgradeable/v4.9.3/contracts/proxy/ERC1967/ERC1967UpgradeUpgradeable.sol\":3412:3429  newImplementation */\n      dup3\n      sub(shl(0xa0, 0x01), 0x01)\n        /* \"https://raw.githubusercontent.com/mzfshark/contracts-upgradeable/v4.9.3/contracts/proxy/ERC1967/ERC1967UpgradeUpgradeable.sol\":3383:3444  IERC1822ProxiableUpgradeable(newImplementation).proxiableUUID */\n      and\n      0x52d1902d\n        /* \"https://raw.githubusercontent.com/mzfshark/contracts-upgradeable/v4.9.3/contracts/proxy/ERC1967/ERC1967UpgradeUpgradeable.sol\":3383:3446  IERC1822ProxiableUpgradeable(newImplementation).proxiableUUID() */\n      mload(0x40)\n      dup2\n      0xffffffff\n      and\n      0xe0\n      shl\n      dup2\n      mstore\n      0x04\n      add\n      0x20\n      mload(0x40)\n      dup1\n      dup4\n      sub\n      dup2\n      dup7\n      gas\n      staticcall\n      swap3\n      pop\n      pop\n      pop\n      dup1\n      iszero\n      tag_165\n      jumpi\n      pop\n      0x40\n      dup1\n      mload\n      0x1f\n      returndatasize\n      swap1\n      dup2\n      add\n      not(0x1f)\n      and\n      dup3\n      add\n      swap1\n      swap3\n      mstore\n      tag_166\n      swap2\n      dup2\n      add\n      swap1\n      tag_167\n      jump\t// in\n    tag_166:\n      0x01\n    tag_165:\n        /* \"https://raw.githubusercontent.com/mzfshark/contracts-upgradeable/v4.9.3/contracts/proxy/ERC1967/ERC1967UpgradeUpgradeable.sol\":3379:3681  try IERC1822ProxiableUpgradeable(newImplementation).proxiableUUID() returns (bytes32 slot) {... */\n      tag_168\n      jumpi\n        /* \"https://raw.githubusercontent.com/mzfshark/contracts-upgradeable/v4.9.3/contracts/proxy/ERC1967/ERC1967UpgradeUpgradeable.sol\":3610:3666  revert(\"ERC1967Upgrade: new implementation is not UUPS\") */\n      mload(0x40)\n      shl(0xe5, 0x461bcd)\n      dup2\n      mstore\n        /* \"#utility.yul\":7999:8001   */\n      0x20\n        /* \"https://raw.githubusercontent.com/mzfshark/contracts-upgradeable/v4.9.3/contracts/proxy/ERC1967/ERC1967UpgradeUpgradeable.sol\":3610:3666  revert(\"ERC1967Upgrade: new implementation is not UUPS\") */\n      0x04\n      dup3\n      add\n        /* \"#utility.yul\":7981:8002   */\n      mstore\n        /* \"#utility.yul\":8038:8040   */\n      0x2e\n        /* \"#utility.yul\":8018:8036   */\n      0x24\n      dup3\n      add\n        /* \"#utility.yul\":8011:8041   */\n      mstore\n        /* \"#utility.yul\":8077:8111   */\n      0x45524331393637557067726164653a206e657720696d706c656d656e74617469\n        /* \"#utility.yul\":8057:8075   */\n      0x44\n      dup3\n      add\n        /* \"#utility.yul\":8050:8112   */\n      mstore\n      shl(0x90, 0x6f6e206973206e6f742055555053)\n        /* \"#utility.yul\":8128:8146   */\n      0x64\n      dup3\n      add\n        /* \"#utility.yul\":8121:8165   */\n      mstore\n        /* \"#utility.yul\":8182:8201   */\n      0x84\n      add\n        /* \"https://raw.githubusercontent.com/mzfshark/contracts-upgradeable/v4.9.3/contracts/proxy/ERC1967/ERC1967UpgradeUpgradeable.sol\":3610:3666  revert(\"ERC1967Upgrade: new implementation is not UUPS\") */\n      tag_78\n        /* \"#utility.yul\":7797:8207   */\n      jump\n        /* \"https://raw.githubusercontent.com/mzfshark/contracts-upgradeable/v4.9.3/contracts/proxy/ERC1967/ERC1967UpgradeUpgradeable.sol\":3379:3681  try IERC1822ProxiableUpgradeable(newImplementation).proxiableUUID() returns (bytes32 slot) {... */\n    tag_168:\n      0x00\n      dup1\n      mload\n      0x20\n      data_75b20eef8615de99c108b05f0dbda081c91897128caa336d75dffb97c4132b4d\n      dup4\n      codecopy\n      dup2\n      mload\n      swap2\n      mstore\n        /* \"https://raw.githubusercontent.com/mzfshark/contracts-upgradeable/v4.9.3/contracts/proxy/ERC1967/ERC1967UpgradeUpgradeable.sol\":3496:3524  slot == _IMPLEMENTATION_SLOT */\n      dup2\n      eq\n        /* \"https://raw.githubusercontent.com/mzfshark/contracts-upgradeable/v4.9.3/contracts/proxy/ERC1967/ERC1967UpgradeUpgradeable.sol\":3488:3570  require(slot == _IMPLEMENTATION_SLOT, \"ERC1967Upgrade: unsupported proxiableUUID\") */\n      tag_175\n      jumpi\n      mload(0x40)\n      shl(0xe5, 0x461bcd)\n      dup2\n      mstore\n        /* \"#utility.yul\":8414:8416   */\n      0x20\n        /* \"https://raw.githubusercontent.com/mzfshark/contracts-upgradeable/v4.9.3/contracts/proxy/ERC1967/ERC1967UpgradeUpgradeable.sol\":3488:3570  require(slot == _IMPLEMENTATION_SLOT, \"ERC1967Upgrade: unsupported proxiableUUID\") */\n      0x04\n      dup3\n      add\n        /* \"#utility.yul\":8396:8417   */\n      mstore\n        /* \"#utility.yul\":8453:8455   */\n      0x29\n        /* \"#utility.yul\":8433:8451   */\n      0x24\n      dup3\n      add\n        /* \"#utility.yul\":8426:8456   */\n      mstore\n        /* \"#utility.yul\":8492:8526   */\n      0x45524331393637557067726164653a20756e737570706f727465642070726f78\n        /* \"#utility.yul\":8472:8490   */\n      0x44\n      dup3\n      add\n        /* \"#utility.yul\":8465:8527   */\n      mstore\n      shl(0xba, 0x1a58589b1955555251)\n        /* \"#utility.yul\":8543:8561   */\n      0x64\n      dup3\n      add\n        /* \"#utility.yul\":8536:8575   */\n      mstore\n        /* \"#utility.yul\":8592:8611   */\n      0x84\n      add\n        /* \"https://raw.githubusercontent.com/mzfshark/contracts-upgradeable/v4.9.3/contracts/proxy/ERC1967/ERC1967UpgradeUpgradeable.sol\":3488:3570  require(slot == _IMPLEMENTATION_SLOT, \"ERC1967Upgrade: unsupported proxiableUUID\") */\n      tag_78\n        /* \"#utility.yul\":8212:8617   */\n      jump\n        /* \"https://raw.githubusercontent.com/mzfshark/contracts-upgradeable/v4.9.3/contracts/proxy/ERC1967/ERC1967UpgradeUpgradeable.sol\":3488:3570  require(slot == _IMPLEMENTATION_SLOT, \"ERC1967Upgrade: unsupported proxiableUUID\") */\n    tag_175:\n        /* \"https://raw.githubusercontent.com/mzfshark/contracts-upgradeable/v4.9.3/contracts/proxy/ERC1967/ERC1967UpgradeUpgradeable.sol\":3447:3585  returns (bytes32 slot) {... */\n      pop\n        /* \"https://raw.githubusercontent.com/mzfshark/contracts-upgradeable/v4.9.3/contracts/proxy/ERC1967/ERC1967UpgradeUpgradeable.sol\":3694:3747  _upgradeToAndCall(newImplementation, data, forceCall) */\n      tag_108\n        /* \"https://raw.githubusercontent.com/mzfshark/contracts-upgradeable/v4.9.3/contracts/proxy/ERC1967/ERC1967UpgradeUpgradeable.sol\":3712:3729  newImplementation */\n      dup4\n        /* \"https://raw.githubusercontent.com/mzfshark/contracts-upgradeable/v4.9.3/contracts/proxy/ERC1967/ERC1967UpgradeUpgradeable.sol\":3731:3735  data */\n      dup4\n        /* \"https://raw.githubusercontent.com/mzfshark/contracts-upgradeable/v4.9.3/contracts/proxy/ERC1967/ERC1967UpgradeUpgradeable.sol\":3737:3746  forceCall */\n      dup4\n        /* \"https://raw.githubusercontent.com/mzfshark/contracts-upgradeable/v4.9.3/contracts/proxy/ERC1967/ERC1967UpgradeUpgradeable.sol\":3694:3711  _upgradeToAndCall */\n      tag_179\n        /* \"https://raw.githubusercontent.com/mzfshark/contracts-upgradeable/v4.9.3/contracts/proxy/ERC1967/ERC1967UpgradeUpgradeable.sol\":3694:3747  _upgradeToAndCall(newImplementation, data, forceCall) */\n      jump\t// in\n        /* \"packages/contracts/src/framework/utils/InterfaceBasedRegistry.sol\":2407:2668  function __InterfaceBasedRegistry_init(... */\n    tag_107:\n        /* \"https://raw.githubusercontent.com/mzfshark/contracts-upgradeable/v4.9.3/contracts/proxy/utils/Initializable.sol\":5374:5387  _initializing */\n      sload(0x00)\n      0x0100\n      swap1\n      div\n      0xff\n      and\n        /* \"https://raw.githubusercontent.com/mzfshark/contracts-upgradeable/v4.9.3/contracts/proxy/utils/Initializable.sol\":5366:5435  require(_initializing, \"Initializable: contract is not initializing\") */\n      tag_182\n      jumpi\n      mload(0x40)\n      shl(0xe5, 0x461bcd)\n      dup2\n      mstore\n      0x04\n      add\n      tag_78\n      swap1\n      tag_184\n      jump\t// in\n    tag_182:\n        /* \"packages/contracts/src/framework/utils/InterfaceBasedRegistry.sol\":2562:2609  __DaoAuthorizableUpgradeable_init(_managingDao) */\n      tag_186\n        /* \"packages/contracts/src/framework/utils/InterfaceBasedRegistry.sol\":2596:2608  _managingDao */\n      dup3\n        /* \"packages/contracts/src/framework/utils/InterfaceBasedRegistry.sol\":2562:2595  __DaoAuthorizableUpgradeable_init */\n      tag_187\n        /* \"packages/contracts/src/framework/utils/InterfaceBasedRegistry.sol\":2562:2609  __DaoAuthorizableUpgradeable_init(_managingDao) */\n      jump\t// in\n    tag_186:\n        /* \"packages/contracts/src/framework/utils/InterfaceBasedRegistry.sol\":2622:2639  targetInterfaceId */\n      0xc9\n        /* \"packages/contracts/src/framework/utils/InterfaceBasedRegistry.sol\":2622:2660  targetInterfaceId = _targetInterfaceId */\n      dup1\n      sload\n      not(0xffffffff)\n      and\n      0xe0\n      swap3\n      swap1\n      swap3\n      shr\n      swap2\n      swap1\n      swap2\n      or\n      swap1\n      sstore\n      pop\n        /* \"packages/contracts/src/framework/utils/InterfaceBasedRegistry.sol\":2407:2668  function __InterfaceBasedRegistry_init(... */\n      jump\t// out\n        /* \"packages/contracts/src/core/utils/auth.sol\":1057:1434  function _auth(... */\n    tag_131:\n        /* \"packages/contracts/src/core/utils/auth.sol\":1203:1257  _dao.hasPermission(_where, _who, _permissionId, _data) */\n      mload(0x40)\n      shl(0xe1, 0x7ef7c883)\n      dup2\n      mstore\n      sub(shl(0xa0, 0x01), 0x01)\n        /* \"packages/contracts/src/core/utils/auth.sol\":1203:1221  _dao.hasPermission */\n      dup8\n      and\n      swap1\n      0xfdef9106\n      swap1\n        /* \"packages/contracts/src/core/utils/auth.sol\":1203:1257  _dao.hasPermission(_where, _who, _permissionId, _data) */\n      tag_191\n      swap1\n        /* \"packages/contracts/src/core/utils/auth.sol\":1222:1228  _where */\n      dup9\n      swap1\n        /* \"packages/contracts/src/core/utils/auth.sol\":1230:1234  _who */\n      dup9\n      swap1\n        /* \"packages/contracts/src/core/utils/auth.sol\":1236:1249  _permissionId */\n      dup9\n      swap1\n        /* \"packages/contracts/src/core/utils/auth.sol\":1251:1256  _data */\n      dup9\n      swap1\n      dup9\n      swap1\n        /* \"packages/contracts/src/core/utils/auth.sol\":1203:1257  _dao.hasPermission(_where, _who, _permissionId, _data) */\n      0x04\n      add\n      tag_192\n      jump\t// in\n    tag_191:\n      0x20\n      mload(0x40)\n      dup1\n      dup4\n      sub\n      dup2\n      dup7\n      gas\n      staticcall\n      iszero\n      dup1\n      iszero\n      tag_194\n      jumpi\n      returndatasize\n      0x00\n      dup1\n      returndatacopy\n      revert(0x00, returndatasize)\n    tag_194:\n      pop\n      pop\n      pop\n      pop\n      mload(0x40)\n      returndatasize\n      not(0x1f)\n      0x1f\n      dup3\n      add\n      and\n      dup3\n      add\n      dup1\n      0x40\n      mstore\n      pop\n      dup2\n      add\n      swap1\n      tag_195\n      swap2\n      swap1\n      tag_196\n      jump\t// in\n    tag_195:\n        /* \"packages/contracts/src/core/utils/auth.sol\":1198:1430  if (!_dao.hasPermission(_where, _who, _permissionId, _data))... */\n      tag_197\n      jumpi\n        /* \"packages/contracts/src/core/utils/auth.sol\":1275:1430  DaoUnauthorized({... */\n      mload(0x40)\n      shl(0xe2, 0x0cb6f8ed)\n      dup2\n      mstore\n      sub(shl(0xa0, 0x01), 0x01)\n        /* \"#utility.yul\":10124:10139   */\n      dup1\n      dup9\n      and\n        /* \"packages/contracts/src/core/utils/auth.sol\":1275:1430  DaoUnauthorized({... */\n      0x04\n      dup4\n      add\n        /* \"#utility.yul\":10106:10140   */\n      mstore\n        /* \"#utility.yul\":10176:10191   */\n      dup1\n      dup8\n      and\n        /* \"#utility.yul\":10156:10174   */\n      0x24\n      dup4\n      add\n        /* \"#utility.yul\":10149:10192   */\n      mstore\n        /* \"#utility.yul\":10228:10243   */\n      dup6\n      and\n        /* \"#utility.yul\":10208:10226   */\n      0x44\n      dup3\n      add\n        /* \"#utility.yul\":10201:10244   */\n      mstore\n        /* \"#utility.yul\":10260:10278   */\n      0x64\n      dup2\n      add\n        /* \"#utility.yul\":10253:10287   */\n      dup5\n      swap1\n      mstore\n        /* \"#utility.yul\":10040:10059   */\n      0x84\n      add\n        /* \"packages/contracts/src/core/utils/auth.sol\":1275:1430  DaoUnauthorized({... */\n      tag_78\n        /* \"#utility.yul\":9837:10293   */\n      jump\n        /* \"packages/contracts/src/core/utils/auth.sol\":1198:1430  if (!_dao.hasPermission(_where, _who, _permissionId, _data))... */\n    tag_197:\n        /* \"packages/contracts/src/core/utils/auth.sol\":1057:1434  function _auth(... */\n      pop\n      pop\n      pop\n      pop\n      pop\n      pop\n      jump\t// out\n        /* \"packages/contracts/src/framework/utils/RegistryUtils.sol\":658:1341  function isSubdomainValid(string calldata subDomain) pure returns (bool) {... */\n    tag_135:\n        /* \"packages/contracts/src/framework/utils/RegistryUtils.sol\":725:729  bool */\n      0x00\n        /* \"packages/contracts/src/framework/utils/RegistryUtils.sol\":771:780  subDomain */\n      dup3\n      dup3\n      dup1\n        /* \"packages/contracts/src/framework/utils/RegistryUtils.sol\":725:729  bool */\n      dup4\n        /* \"packages/contracts/src/framework/utils/RegistryUtils.sol\":832:1320  for (uint256 i; i < nameLength; i++) {... */\n    tag_201:\n        /* \"packages/contracts/src/framework/utils/RegistryUtils.sol\":852:862  nameLength */\n      dup2\n        /* \"packages/contracts/src/framework/utils/RegistryUtils.sol\":848:849  i */\n      dup2\n        /* \"packages/contracts/src/framework/utils/RegistryUtils.sol\":848:862  i < nameLength */\n      lt\n        /* \"packages/contracts/src/framework/utils/RegistryUtils.sol\":832:1320  for (uint256 i; i < nameLength; i++) {... */\n      iszero\n      tag_202\n      jumpi\n        /* \"packages/contracts/src/framework/utils/RegistryUtils.sol\":880:890  uint8 char */\n      0x00\n        /* \"packages/contracts/src/framework/utils/RegistryUtils.sol\":899:908  nameBytes */\n      dup5\n      dup5\n        /* \"packages/contracts/src/framework/utils/RegistryUtils.sol\":909:910  i */\n      dup4\n        /* \"packages/contracts/src/framework/utils/RegistryUtils.sol\":899:911  nameBytes[i] */\n      dup2\n      dup2\n      lt\n      tag_205\n      jumpi\n      tag_205\n      tag_206\n      jump\t// in\n    tag_205:\n      swap2\n      swap1\n      swap2\n      add\n      calldataload\n      0xf8\n      shr\n      swap2\n      pop\n      pop\n        /* \"packages/contracts/src/framework/utils/RegistryUtils.sol\":971:973  96 */\n      0x60\n        /* \"packages/contracts/src/framework/utils/RegistryUtils.sol\":964:973  char > 96 */\n      dup2\n      gt\n        /* \"packages/contracts/src/framework/utils/RegistryUtils.sol\":964:987  char > 96 && char < 123 */\n      dup1\n      iszero\n      tag_207\n      jumpi\n      pop\n        /* \"packages/contracts/src/framework/utils/RegistryUtils.sol\":984:987  123 */\n      0x7b\n        /* \"packages/contracts/src/framework/utils/RegistryUtils.sol\":977:981  char */\n      dup2\n        /* \"packages/contracts/src/framework/utils/RegistryUtils.sol\":977:987  char < 123 */\n      0xff\n      and\n      lt\n        /* \"packages/contracts/src/framework/utils/RegistryUtils.sol\":964:987  char > 96 && char < 123 */\n    tag_207:\n        /* \"packages/contracts/src/framework/utils/RegistryUtils.sol\":960:1024  if (char > 96 && char < 123) {... */\n      iszero\n      tag_208\n      jumpi\n        /* \"packages/contracts/src/framework/utils/RegistryUtils.sol\":1004:1012  continue */\n      pop\n      jump(tag_203)\n        /* \"packages/contracts/src/framework/utils/RegistryUtils.sol\":960:1024  if (char > 96 && char < 123) {... */\n    tag_208:\n        /* \"packages/contracts/src/framework/utils/RegistryUtils.sol\":1082:1084  47 */\n      0x2f\n        /* \"packages/contracts/src/framework/utils/RegistryUtils.sol\":1075:1079  char */\n      dup2\n        /* \"packages/contracts/src/framework/utils/RegistryUtils.sol\":1075:1084  char > 47 */\n      0xff\n      and\n      gt\n        /* \"packages/contracts/src/framework/utils/RegistryUtils.sol\":1075:1097  char > 47 && char < 58 */\n      dup1\n      iszero\n      tag_209\n      jumpi\n      pop\n        /* \"packages/contracts/src/framework/utils/RegistryUtils.sol\":1095:1097  58 */\n      0x3a\n        /* \"packages/contracts/src/framework/utils/RegistryUtils.sol\":1088:1092  char */\n      dup2\n        /* \"packages/contracts/src/framework/utils/RegistryUtils.sol\":1088:1097  char < 58 */\n      0xff\n      and\n      lt\n        /* \"packages/contracts/src/framework/utils/RegistryUtils.sol\":1075:1097  char > 47 && char < 58 */\n    tag_209:\n        /* \"packages/contracts/src/framework/utils/RegistryUtils.sol\":1071:1134  if (char > 47 && char < 58) {... */\n      iszero\n      tag_210\n      jumpi\n        /* \"packages/contracts/src/framework/utils/RegistryUtils.sol\":1114:1122  continue */\n      pop\n      jump(tag_203)\n        /* \"packages/contracts/src/framework/utils/RegistryUtils.sol\":1071:1134  if (char > 47 && char < 58) {... */\n    tag_210:\n        /* \"packages/contracts/src/framework/utils/RegistryUtils.sol\":1175:1179  char */\n      dup1\n        /* \"packages/contracts/src/framework/utils/RegistryUtils.sol\":1175:1185  char == 45 */\n      0xff\n      and\n        /* \"packages/contracts/src/framework/utils/RegistryUtils.sol\":1183:1185  45 */\n      0x2d\n        /* \"packages/contracts/src/framework/utils/RegistryUtils.sol\":1175:1185  char == 45 */\n      sub\n        /* \"packages/contracts/src/framework/utils/RegistryUtils.sol\":1171:1222  if (char == 45) {... */\n      tag_211\n      jumpi\n        /* \"packages/contracts/src/framework/utils/RegistryUtils.sol\":1202:1210  continue */\n      pop\n      jump(tag_203)\n        /* \"packages/contracts/src/framework/utils/RegistryUtils.sol\":1171:1222  if (char == 45) {... */\n    tag_211:\n        /* \"packages/contracts/src/framework/utils/RegistryUtils.sol\":1307:1312  false */\n      0x00\n        /* \"packages/contracts/src/framework/utils/RegistryUtils.sol\":1300:1312  return false */\n      swap6\n      pop\n      pop\n      pop\n      pop\n      pop\n      pop\n      jump(tag_200)\n        /* \"packages/contracts/src/framework/utils/RegistryUtils.sol\":832:1320  for (uint256 i; i < nameLength; i++) {... */\n    tag_203:\n        /* \"packages/contracts/src/framework/utils/RegistryUtils.sol\":864:867  i++ */\n      dup1\n      tag_212\n      dup2\n      tag_213\n      jump\t// in\n    tag_212:\n      swap2\n      pop\n      pop\n        /* \"packages/contracts/src/framework/utils/RegistryUtils.sol\":832:1320  for (uint256 i; i < nameLength; i++) {... */\n      jump(tag_201)\n    tag_202:\n      pop\n        /* \"packages/contracts/src/framework/utils/RegistryUtils.sol\":1333:1337  true */\n      0x01\n        /* \"packages/contracts/src/framework/utils/RegistryUtils.sol\":1326:1337  return true */\n      swap4\n      pop\n      pop\n      pop\n      pop\n        /* \"packages/contracts/src/framework/utils/RegistryUtils.sol\":658:1341  function isSubdomainValid(string calldata subDomain) pure returns (bool) {... */\n    tag_200:\n      swap3\n      swap2\n      pop\n      pop\n      jump\t// out\n        /* \"packages/contracts/src/framework/utils/InterfaceBasedRegistry.sol\":3426:3889  function _register(address _registrant) internal {... */\n    tag_147:\n      sub(shl(0xa0, 0x01), 0x01)\n        /* \"packages/contracts/src/framework/utils/InterfaceBasedRegistry.sol\":3490:3510  entries[_registrant] */\n      dup2\n      and\n      0x00\n      swap1\n      dup2\n      mstore\n        /* \"packages/contracts/src/framework/utils/InterfaceBasedRegistry.sol\":3490:3497  entries */\n      0xca\n        /* \"packages/contracts/src/framework/utils/InterfaceBasedRegistry.sol\":3490:3510  entries[_registrant] */\n      0x20\n      mstore\n      0x40\n      swap1\n      keccak256\n      sload\n      0xff\n      and\n        /* \"packages/contracts/src/framework/utils/InterfaceBasedRegistry.sol\":3486:3598  if (entries[_registrant]) {... */\n      iszero\n      tag_215\n      jumpi\n        /* \"packages/contracts/src/framework/utils/InterfaceBasedRegistry.sol\":3534:3586  ContractAlreadyRegistered({registrant: _registrant}) */\n      mload(0x40)\n      shl(0xe0, 0xfdcce17f)\n      dup2\n      mstore\n      sub(shl(0xa0, 0x01), 0x01)\n        /* \"#utility.yul\":208:240   */\n      dup3\n      and\n        /* \"packages/contracts/src/framework/utils/InterfaceBasedRegistry.sol\":3534:3586  ContractAlreadyRegistered({registrant: _registrant}) */\n      0x04\n      dup3\n      add\n        /* \"#utility.yul\":190:241   */\n      mstore\n        /* \"#utility.yul\":163:181   */\n      0x24\n      add\n        /* \"packages/contracts/src/framework/utils/InterfaceBasedRegistry.sol\":3534:3586  ContractAlreadyRegistered({registrant: _registrant}) */\n      tag_78\n        /* \"#utility.yul\":14:247   */\n      jump\n        /* \"packages/contracts/src/framework/utils/InterfaceBasedRegistry.sol\":3486:3598  if (entries[_registrant]) {... */\n    tag_215:\n        /* \"packages/contracts/src/framework/utils/InterfaceBasedRegistry.sol\":3751:3768  targetInterfaceId */\n      sload(0xc9)\n        /* \"packages/contracts/src/framework/utils/InterfaceBasedRegistry.sol\":3721:3769  _registrant.supportsInterface(targetInterfaceId) */\n      tag_218\n      swap1\n      sub(shl(0xa0, 0x01), 0x01)\n        /* \"packages/contracts/src/framework/utils/InterfaceBasedRegistry.sol\":3721:3750  _registrant.supportsInterface */\n      dup4\n      and\n      swap1\n        /* \"packages/contracts/src/framework/utils/InterfaceBasedRegistry.sol\":3751:3768  targetInterfaceId */\n      0xe0\n      shl\n        /* \"packages/contracts/src/framework/utils/InterfaceBasedRegistry.sol\":3721:3750  _registrant.supportsInterface */\n      tag_219\n        /* \"packages/contracts/src/framework/utils/InterfaceBasedRegistry.sol\":3721:3769  _registrant.supportsInterface(targetInterfaceId) */\n      jump\t// in\n    tag_218:\n        /* \"packages/contracts/src/framework/utils/InterfaceBasedRegistry.sol\":3716:3842  if (!_registrant.supportsInterface(targetInterfaceId)) {... */\n      tag_220\n      jumpi\n        /* \"packages/contracts/src/framework/utils/InterfaceBasedRegistry.sol\":3793:3830  ContractInterfaceInvalid(_registrant) */\n      mload(0x40)\n      shl(0xe1, 0x38811e45)\n      dup2\n      mstore\n      sub(shl(0xa0, 0x01), 0x01)\n        /* \"#utility.yul\":208:240   */\n      dup3\n      and\n        /* \"packages/contracts/src/framework/utils/InterfaceBasedRegistry.sol\":3793:3830  ContractInterfaceInvalid(_registrant) */\n      0x04\n      dup3\n      add\n        /* \"#utility.yul\":190:241   */\n      mstore\n        /* \"#utility.yul\":163:181   */\n      0x24\n      add\n        /* \"packages/contracts/src/framework/utils/InterfaceBasedRegistry.sol\":3793:3830  ContractInterfaceInvalid(_registrant) */\n      tag_78\n        /* \"#utility.yul\":14:247   */\n      jump\n        /* \"packages/contracts/src/framework/utils/InterfaceBasedRegistry.sol\":3716:3842  if (!_registrant.supportsInterface(targetInterfaceId)) {... */\n    tag_220:\n      sub(shl(0xa0, 0x01), 0x01)\n        /* \"packages/contracts/src/framework/utils/InterfaceBasedRegistry.sol\":3854:3874  entries[_registrant] */\n      and\n      0x00\n      swap1\n      dup2\n      mstore\n        /* \"packages/contracts/src/framework/utils/InterfaceBasedRegistry.sol\":3854:3861  entries */\n      0xca\n        /* \"packages/contracts/src/framework/utils/InterfaceBasedRegistry.sol\":3854:3874  entries[_registrant] */\n      0x20\n      mstore\n      0x40\n      swap1\n      keccak256\n        /* \"packages/contracts/src/framework/utils/InterfaceBasedRegistry.sol\":3854:3881  entries[_registrant] = true */\n      dup1\n      sload\n      not(0xff)\n      and\n        /* \"packages/contracts/src/framework/utils/InterfaceBasedRegistry.sol\":3877:3881  true */\n      0x01\n        /* \"packages/contracts/src/framework/utils/InterfaceBasedRegistry.sol\":3854:3881  entries[_registrant] = true */\n      or\n      swap1\n      sstore\n        /* \"packages/contracts/src/framework/utils/InterfaceBasedRegistry.sol\":3426:3889  function _register(address _registrant) internal {... */\n      jump\t// out\n        /* \"https://raw.githubusercontent.com/mzfshark/contracts-upgradeable/v4.9.3/contracts/proxy/ERC1967/ERC1967UpgradeUpgradeable.sol\":1699:1980  function _setImplementation(address newImplementation) private {... */\n    tag_163:\n      sub(shl(0xa0, 0x01), 0x01)\n        /* \"https://raw.githubusercontent.com/mzfshark/contracts-upgradeable/v4.9.3/contracts/utils/AddressUpgradeable.sol\":1713:1732  account.code.length */\n      dup2\n      and\n      extcodesize\n        /* \"https://raw.githubusercontent.com/mzfshark/contracts-upgradeable/v4.9.3/contracts/proxy/ERC1967/ERC1967UpgradeUpgradeable.sol\":1772:1878  require(AddressUpgradeable.isContract(newImplementation), \"ERC1967: new implementation is not a contract\") */\n      tag_226\n      jumpi\n      mload(0x40)\n      shl(0xe5, 0x461bcd)\n      dup2\n      mstore\n        /* \"#utility.yul\":11077:11079   */\n      0x20\n        /* \"https://raw.githubusercontent.com/mzfshark/contracts-upgradeable/v4.9.3/contracts/proxy/ERC1967/ERC1967UpgradeUpgradeable.sol\":1772:1878  require(AddressUpgradeable.isContract(newImplementation), \"ERC1967: new implementation is not a contract\") */\n      0x04\n      dup3\n      add\n        /* \"#utility.yul\":11059:11080   */\n      mstore\n        /* \"#utility.yul\":11116:11118   */\n      0x2d\n        /* \"#utility.yul\":11096:11114   */\n      0x24\n      dup3\n      add\n        /* \"#utility.yul\":11089:11119   */\n      mstore\n        /* \"#utility.yul\":11155:11189   */\n      0x455243313936373a206e657720696d706c656d656e746174696f6e206973206e\n        /* \"#utility.yul\":11135:11153   */\n      0x44\n      dup3\n      add\n        /* \"#utility.yul\":11128:11190   */\n      mstore\n      shl(0x9a, 0x1bdd08184818dbdb9d1c9858dd)\n        /* \"#utility.yul\":11206:11224   */\n      0x64\n      dup3\n      add\n        /* \"#utility.yul\":11199:11242   */\n      mstore\n        /* \"#utility.yul\":11259:11278   */\n      0x84\n      add\n        /* \"https://raw.githubusercontent.com/mzfshark/contracts-upgradeable/v4.9.3/contracts/proxy/ERC1967/ERC1967UpgradeUpgradeable.sol\":1772:1878  require(AddressUpgradeable.isContract(newImplementation), \"ERC1967: new implementation is not a contract\") */\n      tag_78\n        /* \"#utility.yul\":10875:11284   */\n      jump\n        /* \"https://raw.githubusercontent.com/mzfshark/contracts-upgradeable/v4.9.3/contracts/proxy/ERC1967/ERC1967UpgradeUpgradeable.sol\":1772:1878  require(AddressUpgradeable.isContract(newImplementation), \"ERC1967: new implementation is not a contract\") */\n    tag_226:\n      0x00\n      dup1\n      mload\n      0x20\n      data_75b20eef8615de99c108b05f0dbda081c91897128caa336d75dffb97c4132b4d\n      dup4\n      codecopy\n      dup2\n      mload\n      swap2\n      mstore\n        /* \"https://raw.githubusercontent.com/mzfshark/contracts-upgradeable/v4.9.3/contracts/proxy/ERC1967/ERC1967UpgradeUpgradeable.sol\":1888:1973  StorageSlotUpgradeable.getAddressSlot(_IMPLEMENTATION_SLOT).value = newImplementation */\n      dup1\n      sload\n      not(sub(shl(0xa0, 0x01), 0x01))\n      and\n      sub(shl(0xa0, 0x01), 0x01)\n      swap3\n      swap1\n      swap3\n      and\n      swap2\n      swap1\n      swap2\n      or\n      swap1\n      sstore\n        /* \"https://raw.githubusercontent.com/mzfshark/contracts-upgradeable/v4.9.3/contracts/proxy/ERC1967/ERC1967UpgradeUpgradeable.sol\":1699:1980  function _setImplementation(address newImplementation) private {... */\n      jump\t// out\n        /* \"https://raw.githubusercontent.com/mzfshark/contracts-upgradeable/v4.9.3/contracts/proxy/ERC1967/ERC1967UpgradeUpgradeable.sol\":2372:2648  function _upgradeToAndCall(address newImplementation, bytes memory data, bool forceCall) internal {... */\n    tag_179:\n        /* \"https://raw.githubusercontent.com/mzfshark/contracts-upgradeable/v4.9.3/contracts/proxy/ERC1967/ERC1967UpgradeUpgradeable.sol\":2480:2509  _upgradeTo(newImplementation) */\n      tag_231\n        /* \"https://raw.githubusercontent.com/mzfshark/contracts-upgradeable/v4.9.3/contracts/proxy/ERC1967/ERC1967UpgradeUpgradeable.sol\":2491:2508  newImplementation */\n      dup4\n        /* \"https://raw.githubusercontent.com/mzfshark/contracts-upgradeable/v4.9.3/contracts/proxy/ERC1967/ERC1967UpgradeUpgradeable.sol\":2480:2490  _upgradeTo */\n      tag_232\n        /* \"https://raw.githubusercontent.com/mzfshark/contracts-upgradeable/v4.9.3/contracts/proxy/ERC1967/ERC1967UpgradeUpgradeable.sol\":2480:2509  _upgradeTo(newImplementation) */\n      jump\t// in\n    tag_231:\n        /* \"https://raw.githubusercontent.com/mzfshark/contracts-upgradeable/v4.9.3/contracts/proxy/ERC1967/ERC1967UpgradeUpgradeable.sol\":2537:2538  0 */\n      0x00\n        /* \"https://raw.githubusercontent.com/mzfshark/contracts-upgradeable/v4.9.3/contracts/proxy/ERC1967/ERC1967UpgradeUpgradeable.sol\":2523:2527  data */\n      dup3\n        /* \"https://raw.githubusercontent.com/mzfshark/contracts-upgradeable/v4.9.3/contracts/proxy/ERC1967/ERC1967UpgradeUpgradeable.sol\":2523:2534  data.length */\n      mload\n        /* \"https://raw.githubusercontent.com/mzfshark/contracts-upgradeable/v4.9.3/contracts/proxy/ERC1967/ERC1967UpgradeUpgradeable.sol\":2523:2538  data.length > 0 */\n      gt\n        /* \"https://raw.githubusercontent.com/mzfshark/contracts-upgradeable/v4.9.3/contracts/proxy/ERC1967/ERC1967UpgradeUpgradeable.sol\":2523:2551  data.length > 0 || forceCall */\n      dup1\n      tag_233\n      jumpi\n      pop\n        /* \"https://raw.githubusercontent.com/mzfshark/contracts-upgradeable/v4.9.3/contracts/proxy/ERC1967/ERC1967UpgradeUpgradeable.sol\":2542:2551  forceCall */\n      dup1\n        /* \"https://raw.githubusercontent.com/mzfshark/contracts-upgradeable/v4.9.3/contracts/proxy/ERC1967/ERC1967UpgradeUpgradeable.sol\":2523:2551  data.length > 0 || forceCall */\n    tag_233:\n        /* \"https://raw.githubusercontent.com/mzfshark/contracts-upgradeable/v4.9.3/contracts/proxy/ERC1967/ERC1967UpgradeUpgradeable.sol\":2519:2642  if (data.length > 0 || forceCall) {... */\n      iszero\n      tag_108\n      jumpi\n        /* \"https://raw.githubusercontent.com/mzfshark/contracts-upgradeable/v4.9.3/contracts/proxy/ERC1967/ERC1967UpgradeUpgradeable.sol\":2567:2631  AddressUpgradeable.functionDelegateCall(newImplementation, data) */\n      tag_235\n        /* \"https://raw.githubusercontent.com/mzfshark/contracts-upgradeable/v4.9.3/contracts/proxy/ERC1967/ERC1967UpgradeUpgradeable.sol\":2607:2624  newImplementation */\n      dup4\n        /* \"https://raw.githubusercontent.com/mzfshark/contracts-upgradeable/v4.9.3/contracts/proxy/ERC1967/ERC1967UpgradeUpgradeable.sol\":2626:2630  data */\n      dup4\n        /* \"https://raw.githubusercontent.com/mzfshark/contracts-upgradeable/v4.9.3/contracts/proxy/ERC1967/ERC1967UpgradeUpgradeable.sol\":2567:2606  AddressUpgradeable.functionDelegateCall */\n      tag_236\n        /* \"https://raw.githubusercontent.com/mzfshark/contracts-upgradeable/v4.9.3/contracts/proxy/ERC1967/ERC1967UpgradeUpgradeable.sol\":2567:2631  AddressUpgradeable.functionDelegateCall(newImplementation, data) */\n      jump\t// in\n    tag_235:\n      pop\n        /* \"https://raw.githubusercontent.com/mzfshark/contracts-upgradeable/v4.9.3/contracts/proxy/ERC1967/ERC1967UpgradeUpgradeable.sol\":2372:2648  function _upgradeToAndCall(address newImplementation, bytes memory data, bool forceCall) internal {... */\n      pop\n      pop\n      pop\n      jump\t// out\n        /* \"packages/contracts/src/core/plugin/dao-authorizable/DaoAuthorizableUpgradeable.sol\":1043:1153  function __DaoAuthorizableUpgradeable_init(IDAO _dao) internal onlyInitializing {... */\n    tag_187:\n        /* \"https://raw.githubusercontent.com/mzfshark/contracts-upgradeable/v4.9.3/contracts/proxy/utils/Initializable.sol\":5374:5387  _initializing */\n      sload(0x00)\n      0x0100\n      swap1\n      div\n      0xff\n      and\n        /* \"https://raw.githubusercontent.com/mzfshark/contracts-upgradeable/v4.9.3/contracts/proxy/utils/Initializable.sol\":5366:5435  require(_initializing, \"Initializable: contract is not initializing\") */\n      tag_238\n      jumpi\n      mload(0x40)\n      shl(0xe5, 0x461bcd)\n      dup2\n      mstore\n      0x04\n      add\n      tag_78\n      swap1\n      tag_184\n      jump\t// in\n    tag_238:\n        /* \"packages/contracts/src/core/plugin/dao-authorizable/DaoAuthorizableUpgradeable.sol\":1134:1138  dao_ */\n      0x97\n        /* \"packages/contracts/src/core/plugin/dao-authorizable/DaoAuthorizableUpgradeable.sol\":1134:1145  dao_ = _dao */\n      dup1\n      sload\n      not(sub(shl(0xa0, 0x01), 0x01))\n      and\n      sub(shl(0xa0, 0x01), 0x01)\n      swap3\n      swap1\n      swap3\n      and\n      swap2\n      swap1\n      swap2\n      or\n      swap1\n      sstore\n        /* \"packages/contracts/src/core/plugin/dao-authorizable/DaoAuthorizableUpgradeable.sol\":1043:1153  function __DaoAuthorizableUpgradeable_init(IDAO _dao) internal onlyInitializing {... */\n      jump\t// out\n        /* \"https://raw.githubusercontent.com/mzfshark/contracts-upgradeable/v4.9.3/contracts/utils/introspection/ERC165CheckerUpgradeable.sol\":1382:1664  function supportsInterface(address account, bytes4 interfaceId) internal view returns (bool) {... */\n    tag_219:\n        /* \"https://raw.githubusercontent.com/mzfshark/contracts-upgradeable/v4.9.3/contracts/utils/introspection/ERC165CheckerUpgradeable.sol\":1469:1473  bool */\n      0x00\n        /* \"https://raw.githubusercontent.com/mzfshark/contracts-upgradeable/v4.9.3/contracts/utils/introspection/ERC165CheckerUpgradeable.sol\":1576:1599  supportsERC165(account) */\n      tag_242\n        /* \"https://raw.githubusercontent.com/mzfshark/contracts-upgradeable/v4.9.3/contracts/utils/introspection/ERC165CheckerUpgradeable.sol\":1591:1598  account */\n      dup4\n        /* \"https://raw.githubusercontent.com/mzfshark/contracts-upgradeable/v4.9.3/contracts/utils/introspection/ERC165CheckerUpgradeable.sol\":1576:1590  supportsERC165 */\n      tag_243\n        /* \"https://raw.githubusercontent.com/mzfshark/contracts-upgradeable/v4.9.3/contracts/utils/introspection/ERC165CheckerUpgradeable.sol\":1576:1599  supportsERC165(account) */\n      jump\t// in\n    tag_242:\n        /* \"https://raw.githubusercontent.com/mzfshark/contracts-upgradeable/v4.9.3/contracts/utils/introspection/ERC165CheckerUpgradeable.sol\":1576:1657  supportsERC165(account) && supportsERC165InterfaceUnchecked(account, interfaceId) */\n      dup1\n      iszero\n      tag_245\n      jumpi\n      pop\n        /* \"https://raw.githubusercontent.com/mzfshark/contracts-upgradeable/v4.9.3/contracts/utils/introspection/ERC165CheckerUpgradeable.sol\":1603:1657  supportsERC165InterfaceUnchecked(account, interfaceId) */\n      tag_245\n        /* \"https://raw.githubusercontent.com/mzfshark/contracts-upgradeable/v4.9.3/contracts/utils/introspection/ERC165CheckerUpgradeable.sol\":1636:1643  account */\n      dup4\n        /* \"https://raw.githubusercontent.com/mzfshark/contracts-upgradeable/v4.9.3/contracts/utils/introspection/ERC165CheckerUpgradeable.sol\":1645:1656  interfaceId */\n      dup4\n        /* \"https://raw.githubusercontent.com/mzfshark/contracts-upgradeable/v4.9.3/contracts/utils/introspection/ERC165CheckerUpgradeable.sol\":1603:1635  supportsERC165InterfaceUnchecked */\n      tag_246\n        /* \"https://raw.githubusercontent.com/mzfshark/contracts-upgradeable/v4.9.3/contracts/utils/introspection/ERC165CheckerUpgradeable.sol\":1603:1657  supportsERC165InterfaceUnchecked(account, interfaceId) */\n      jump\t// in\n    tag_245:\n        /* \"https://raw.githubusercontent.com/mzfshark/contracts-upgradeable/v4.9.3/contracts/utils/introspection/ERC165CheckerUpgradeable.sol\":1569:1657  return supportsERC165(account) && supportsERC165InterfaceUnchecked(account, interfaceId) */\n      swap4\n        /* \"https://raw.githubusercontent.com/mzfshark/contracts-upgradeable/v4.9.3/contracts/utils/introspection/ERC165CheckerUpgradeable.sol\":1382:1664  function supportsInterface(address account, bytes4 interfaceId) internal view returns (bool) {... */\n      swap3\n      pop\n      pop\n      pop\n      jump\t// out\n        /* \"https://raw.githubusercontent.com/mzfshark/contracts-upgradeable/v4.9.3/contracts/proxy/ERC1967/ERC1967UpgradeUpgradeable.sol\":2086:2238  function _upgradeTo(address newImplementation) internal {... */\n    tag_232:\n        /* \"https://raw.githubusercontent.com/mzfshark/contracts-upgradeable/v4.9.3/contracts/proxy/ERC1967/ERC1967UpgradeUpgradeable.sol\":2152:2189  _setImplementation(newImplementation) */\n      tag_248\n        /* \"https://raw.githubusercontent.com/mzfshark/contracts-upgradeable/v4.9.3/contracts/proxy/ERC1967/ERC1967UpgradeUpgradeable.sol\":2171:2188  newImplementation */\n      dup2\n        /* \"https://raw.githubusercontent.com/mzfshark/contracts-upgradeable/v4.9.3/contracts/proxy/ERC1967/ERC1967UpgradeUpgradeable.sol\":2152:2170  _setImplementation */\n      tag_163\n        /* \"https://raw.githubusercontent.com/mzfshark/contracts-upgradeable/v4.9.3/contracts/proxy/ERC1967/ERC1967UpgradeUpgradeable.sol\":2152:2189  _setImplementation(newImplementation) */\n      jump\t// in\n    tag_248:\n        /* \"https://raw.githubusercontent.com/mzfshark/contracts-upgradeable/v4.9.3/contracts/proxy/ERC1967/ERC1967UpgradeUpgradeable.sol\":2204:2231  Upgraded(newImplementation) */\n      mload(0x40)\n      sub(shl(0xa0, 0x01), 0x01)\n      dup3\n      and\n      swap1\n      0xbc7cd75a20ee27fd9adebab32041f755214dbc6bffa90cc0225b39da2e5c2d3b\n      swap1\n      0x00\n      swap1\n      log2\n        /* \"https://raw.githubusercontent.com/mzfshark/contracts-upgradeable/v4.9.3/contracts/proxy/ERC1967/ERC1967UpgradeUpgradeable.sol\":2086:2238  function _upgradeTo(address newImplementation) internal {... */\n      pop\n      jump\t// out\n        /* \"https://raw.githubusercontent.com/mzfshark/contracts-upgradeable/v4.9.3/contracts/utils/AddressUpgradeable.sol\":6685:6883  function functionDelegateCall(address target, bytes memory data) internal returns (bytes memory) {... */\n    tag_236:\n        /* \"https://raw.githubusercontent.com/mzfshark/contracts-upgradeable/v4.9.3/contracts/utils/AddressUpgradeable.sol\":6768:6780  bytes memory */\n      0x60\n        /* \"https://raw.githubusercontent.com/mzfshark/contracts-upgradeable/v4.9.3/contracts/utils/AddressUpgradeable.sol\":6799:6876  functionDelegateCall(target, data, \"Address: low-level delegate call failed\") */\n      tag_245\n        /* \"https://raw.githubusercontent.com/mzfshark/contracts-upgradeable/v4.9.3/contracts/utils/AddressUpgradeable.sol\":6820:6826  target */\n      dup4\n        /* \"https://raw.githubusercontent.com/mzfshark/contracts-upgradeable/v4.9.3/contracts/utils/AddressUpgradeable.sol\":6828:6832  data */\n      dup4\n        /* \"https://raw.githubusercontent.com/mzfshark/contracts-upgradeable/v4.9.3/contracts/utils/AddressUpgradeable.sol\":6799:6876  functionDelegateCall(target, data, \"Address: low-level delegate call failed\") */\n      mload(0x40)\n      dup1\n      0x60\n      add\n      0x40\n      mstore\n      dup1\n      0x27\n      dup2\n      mstore\n      0x20\n      add\n      data_9fdcd12e4b726339b32a442b0a448365d5d85c96b2d2cff917b4f66c63110398\n      0x27\n      swap2\n      codecopy\n        /* \"https://raw.githubusercontent.com/mzfshark/contracts-upgradeable/v4.9.3/contracts/utils/AddressUpgradeable.sol\":6799:6819  functionDelegateCall */\n      tag_251\n        /* \"https://raw.githubusercontent.com/mzfshark/contracts-upgradeable/v4.9.3/contracts/utils/AddressUpgradeable.sol\":6799:6876  functionDelegateCall(target, data, \"Address: low-level delegate call failed\") */\n      jump\t// in\n        /* \"https://raw.githubusercontent.com/mzfshark/contracts-upgradeable/v4.9.3/contracts/utils/introspection/ERC165CheckerUpgradeable.sol\":726:1164  function supportsERC165(address account) internal view returns (bool) {... */\n    tag_243:\n        /* \"https://raw.githubusercontent.com/mzfshark/contracts-upgradeable/v4.9.3/contracts/utils/introspection/ERC165CheckerUpgradeable.sol\":790:794  bool */\n      0x00\n        /* \"https://raw.githubusercontent.com/mzfshark/contracts-upgradeable/v4.9.3/contracts/utils/introspection/ERC165CheckerUpgradeable.sol\":997:1076  supportsERC165InterfaceUnchecked(account, type(IERC165Upgradeable).interfaceId) */\n      tag_253\n        /* \"https://raw.githubusercontent.com/mzfshark/contracts-upgradeable/v4.9.3/contracts/utils/introspection/ERC165CheckerUpgradeable.sol\":1030:1037  account */\n      dup3\n      shl(0xe0, 0x01ffc9a7)\n        /* \"https://raw.githubusercontent.com/mzfshark/contracts-upgradeable/v4.9.3/contracts/utils/introspection/ERC165CheckerUpgradeable.sol\":997:1029  supportsERC165InterfaceUnchecked */\n      tag_246\n        /* \"https://raw.githubusercontent.com/mzfshark/contracts-upgradeable/v4.9.3/contracts/utils/introspection/ERC165CheckerUpgradeable.sol\":997:1076  supportsERC165InterfaceUnchecked(account, type(IERC165Upgradeable).interfaceId) */\n      jump\t// in\n    tag_253:\n        /* \"https://raw.githubusercontent.com/mzfshark/contracts-upgradeable/v4.9.3/contracts/utils/introspection/ERC165CheckerUpgradeable.sol\":997:1157  supportsERC165InterfaceUnchecked(account, type(IERC165Upgradeable).interfaceId) &&... */\n      dup1\n      iszero\n      tag_200\n      jumpi\n      pop\n        /* \"https://raw.githubusercontent.com/mzfshark/contracts-upgradeable/v4.9.3/contracts/utils/introspection/ERC165CheckerUpgradeable.sol\":1093:1157  supportsERC165InterfaceUnchecked(account, _INTERFACE_ID_INVALID) */\n      tag_255\n        /* \"https://raw.githubusercontent.com/mzfshark/contracts-upgradeable/v4.9.3/contracts/utils/introspection/ERC165CheckerUpgradeable.sol\":1126:1133  account */\n      dup3\n      not(sub(shl(0xe0, 0x01), 0x01))\n        /* \"https://raw.githubusercontent.com/mzfshark/contracts-upgradeable/v4.9.3/contracts/utils/introspection/ERC165CheckerUpgradeable.sol\":1093:1125  supportsERC165InterfaceUnchecked */\n      tag_246\n        /* \"https://raw.githubusercontent.com/mzfshark/contracts-upgradeable/v4.9.3/contracts/utils/introspection/ERC165CheckerUpgradeable.sol\":1093:1157  supportsERC165InterfaceUnchecked(account, _INTERFACE_ID_INVALID) */\n      jump\t// in\n    tag_255:\n        /* \"https://raw.githubusercontent.com/mzfshark/contracts-upgradeable/v4.9.3/contracts/utils/introspection/ERC165CheckerUpgradeable.sol\":1092:1157  !supportsERC165InterfaceUnchecked(account, _INTERFACE_ID_INVALID) */\n      iszero\n        /* \"https://raw.githubusercontent.com/mzfshark/contracts-upgradeable/v4.9.3/contracts/utils/introspection/ERC165CheckerUpgradeable.sol\":978:1157  return... */\n      swap3\n        /* \"https://raw.githubusercontent.com/mzfshark/contracts-upgradeable/v4.9.3/contracts/utils/introspection/ERC165CheckerUpgradeable.sol\":726:1164  function supportsERC165(address account) internal view returns (bool) {... */\n      swap2\n      pop\n      pop\n      jump\t// out\n        /* \"https://raw.githubusercontent.com/mzfshark/contracts-upgradeable/v4.9.3/contracts/utils/introspection/ERC165CheckerUpgradeable.sol\":4454:5112  function supportsERC165InterfaceUnchecked(address account, bytes4 interfaceId) internal view returns (bool) {... */\n    tag_246:\n        /* \"https://raw.githubusercontent.com/mzfshark/contracts-upgradeable/v4.9.3/contracts/utils/introspection/ERC165CheckerUpgradeable.sol\":4625:4707  abi.encodeWithSelector(IERC165Upgradeable.supportsInterface.selector, interfaceId) */\n      0x40\n      dup1\n      mload\n      not(sub(shl(0xe0, 0x01), 0x01))\n        /* \"#utility.yul\":1529:1562   */\n      dup4\n      and\n        /* \"https://raw.githubusercontent.com/mzfshark/contracts-upgradeable/v4.9.3/contracts/utils/introspection/ERC165CheckerUpgradeable.sol\":4625:4707  abi.encodeWithSelector(IERC165Upgradeable.supportsInterface.selector, interfaceId) */\n      0x24\n      dup1\n      dup4\n      add\n        /* \"#utility.yul\":1511:1563   */\n      swap2\n      swap1\n      swap2\n      mstore\n        /* \"https://raw.githubusercontent.com/mzfshark/contracts-upgradeable/v4.9.3/contracts/utils/introspection/ERC165CheckerUpgradeable.sol\":4625:4707  abi.encodeWithSelector(IERC165Upgradeable.supportsInterface.selector, interfaceId) */\n      dup3\n      mload\n      dup1\n      dup4\n      sub\n      swap1\n      swap2\n      add\n      dup2\n      mstore\n        /* \"#utility.yul\":1484:1502   */\n      0x44\n      swap1\n      swap2\n      add\n        /* \"https://raw.githubusercontent.com/mzfshark/contracts-upgradeable/v4.9.3/contracts/utils/introspection/ERC165CheckerUpgradeable.sol\":4625:4707  abi.encodeWithSelector(IERC165Upgradeable.supportsInterface.selector, interfaceId) */\n      swap1\n      swap2\n      mstore\n      0x20\n      dup1\n      dup3\n      add\n      dup1\n      mload\n      sub(shl(0xe0, 0x01), 0x01)\n      and\n      shl(0xe0, 0x01ffc9a7)\n      or\n      dup2\n      mstore\n        /* \"https://raw.githubusercontent.com/mzfshark/contracts-upgradeable/v4.9.3/contracts/utils/introspection/ERC165CheckerUpgradeable.sol\":4915:4935  mload(encodedParams) */\n      dup3\n      mload\n        /* \"https://raw.githubusercontent.com/mzfshark/contracts-upgradeable/v4.9.3/contracts/utils/introspection/ERC165CheckerUpgradeable.sol\":4556:4560  bool */\n      0x00\n      swap4\n        /* \"https://raw.githubusercontent.com/mzfshark/contracts-upgradeable/v4.9.3/contracts/utils/introspection/ERC165CheckerUpgradeable.sol\":4625:4707  abi.encodeWithSelector(IERC165Upgradeable.supportsInterface.selector, interfaceId) */\n      swap3\n        /* \"https://raw.githubusercontent.com/mzfshark/contracts-upgradeable/v4.9.3/contracts/utils/introspection/ERC165CheckerUpgradeable.sol\":4556:4560  bool */\n      dup5\n      swap3\n      dup4\n      swap3\n      dup4\n      swap3\n        /* \"https://raw.githubusercontent.com/mzfshark/contracts-upgradeable/v4.9.3/contracts/utils/introspection/ERC165CheckerUpgradeable.sol\":4625:4707  abi.encodeWithSelector(IERC165Upgradeable.supportsInterface.selector, interfaceId) */\n      swap2\n        /* \"https://raw.githubusercontent.com/mzfshark/contracts-upgradeable/v4.9.3/contracts/utils/introspection/ERC165CheckerUpgradeable.sol\":4556:4560  bool */\n      dup4\n      swap2\n        /* \"https://raw.githubusercontent.com/mzfshark/contracts-upgradeable/v4.9.3/contracts/utils/introspection/ERC165CheckerUpgradeable.sol\":4915:4935  mload(encodedParams) */\n      swap1\n        /* \"https://raw.githubusercontent.com/mzfshark/contracts-upgradeable/v4.9.3/contracts/utils/introspection/ERC165CheckerUpgradeable.sol\":4880:4887  account */\n      dup11\n        /* \"https://raw.githubusercontent.com/mzfshark/contracts-upgradeable/v4.9.3/contracts/utils/introspection/ERC165CheckerUpgradeable.sol\":4873:4878  30000 */\n      0x7530\n        /* \"https://raw.githubusercontent.com/mzfshark/contracts-upgradeable/v4.9.3/contracts/utils/introspection/ERC165CheckerUpgradeable.sol\":4862:4948  staticcall(30000, account, add(encodedParams, 0x20), mload(encodedParams), 0x00, 0x20) */\n      staticcall\n        /* \"https://raw.githubusercontent.com/mzfshark/contracts-upgradeable/v4.9.3/contracts/utils/introspection/ERC165CheckerUpgradeable.sol\":4851:4948  success := staticcall(30000, account, add(encodedParams, 0x20), mload(encodedParams), 0x00, 0x20) */\n      swap3\n      pop\n        /* \"https://raw.githubusercontent.com/mzfshark/contracts-upgradeable/v4.9.3/contracts/utils/introspection/ERC165CheckerUpgradeable.sol\":4975:4991  returndatasize() */\n      returndatasize\n        /* \"https://raw.githubusercontent.com/mzfshark/contracts-upgradeable/v4.9.3/contracts/utils/introspection/ERC165CheckerUpgradeable.sol\":4961:4991  returnSize := returndatasize() */\n      swap2\n      pop\n        /* \"https://raw.githubusercontent.com/mzfshark/contracts-upgradeable/v4.9.3/contracts/utils/introspection/ERC165CheckerUpgradeable.sol\":5025:5029  0x00 */\n      0x00\n        /* \"https://raw.githubusercontent.com/mzfshark/contracts-upgradeable/v4.9.3/contracts/utils/introspection/ERC165CheckerUpgradeable.sol\":5019:5030  mload(0x00) */\n      mload\n        /* \"https://raw.githubusercontent.com/mzfshark/contracts-upgradeable/v4.9.3/contracts/utils/introspection/ERC165CheckerUpgradeable.sol\":5004:5030  returnValue := mload(0x00) */\n      swap1\n      pop\n        /* \"https://raw.githubusercontent.com/mzfshark/contracts-upgradeable/v4.9.3/contracts/utils/introspection/ERC165CheckerUpgradeable.sol\":5057:5064  success */\n      dup3\n        /* \"https://raw.githubusercontent.com/mzfshark/contracts-upgradeable/v4.9.3/contracts/utils/introspection/ERC165CheckerUpgradeable.sol\":5057:5086  success && returnSize >= 0x20 */\n      dup1\n      iszero\n      tag_258\n      jumpi\n      pop\n        /* \"https://raw.githubusercontent.com/mzfshark/contracts-upgradeable/v4.9.3/contracts/utils/introspection/ERC165CheckerUpgradeable.sol\":5082:5086  0x20 */\n      0x20\n        /* \"https://raw.githubusercontent.com/mzfshark/contracts-upgradeable/v4.9.3/contracts/utils/introspection/ERC165CheckerUpgradeable.sol\":5068:5078  returnSize */\n      dup3\n        /* \"https://raw.githubusercontent.com/mzfshark/contracts-upgradeable/v4.9.3/contracts/utils/introspection/ERC165CheckerUpgradeable.sol\":5068:5086  returnSize >= 0x20 */\n      lt\n      iszero\n        /* \"https://raw.githubusercontent.com/mzfshark/contracts-upgradeable/v4.9.3/contracts/utils/introspection/ERC165CheckerUpgradeable.sol\":5057:5086  success && returnSize >= 0x20 */\n    tag_258:\n        /* \"https://raw.githubusercontent.com/mzfshark/contracts-upgradeable/v4.9.3/contracts/utils/introspection/ERC165CheckerUpgradeable.sol\":5057:5105  success && returnSize >= 0x20 && returnValue > 0 */\n      dup1\n      iszero\n      tag_259\n      jumpi\n      pop\n        /* \"https://raw.githubusercontent.com/mzfshark/contracts-upgradeable/v4.9.3/contracts/utils/introspection/ERC165CheckerUpgradeable.sol\":5104:5105  0 */\n      0x00\n        /* \"https://raw.githubusercontent.com/mzfshark/contracts-upgradeable/v4.9.3/contracts/utils/introspection/ERC165CheckerUpgradeable.sol\":5090:5101  returnValue */\n      dup2\n        /* \"https://raw.githubusercontent.com/mzfshark/contracts-upgradeable/v4.9.3/contracts/utils/introspection/ERC165CheckerUpgradeable.sol\":5090:5105  returnValue > 0 */\n      gt\n        /* \"https://raw.githubusercontent.com/mzfshark/contracts-upgradeable/v4.9.3/contracts/utils/introspection/ERC165CheckerUpgradeable.sol\":5057:5105  success && returnSize >= 0x20 && returnValue > 0 */\n    tag_259:\n        /* \"https://raw.githubusercontent.com/mzfshark/contracts-upgradeable/v4.9.3/contracts/utils/introspection/ERC165CheckerUpgradeable.sol\":5050:5105  return success && returnSize >= 0x20 && returnValue > 0 */\n      swap8\n        /* \"https://raw.githubusercontent.com/mzfshark/contracts-upgradeable/v4.9.3/contracts/utils/introspection/ERC165CheckerUpgradeable.sol\":4454:5112  function supportsERC165InterfaceUnchecked(address account, bytes4 interfaceId) internal view returns (bool) {... */\n      swap7\n      pop\n      pop\n      pop\n      pop\n      pop\n      pop\n      pop\n      jump\t// out\n        /* \"https://raw.githubusercontent.com/mzfshark/contracts-upgradeable/v4.9.3/contracts/utils/AddressUpgradeable.sol\":7069:7394  function functionDelegateCall(... */\n    tag_251:\n        /* \"https://raw.githubusercontent.com/mzfshark/contracts-upgradeable/v4.9.3/contracts/utils/AddressUpgradeable.sol\":7210:7222  bytes memory */\n      0x60\n        /* \"https://raw.githubusercontent.com/mzfshark/contracts-upgradeable/v4.9.3/contracts/utils/AddressUpgradeable.sol\":7235:7247  bool success */\n      0x00\n        /* \"https://raw.githubusercontent.com/mzfshark/contracts-upgradeable/v4.9.3/contracts/utils/AddressUpgradeable.sol\":7249:7272  bytes memory returndata */\n      dup1\n        /* \"https://raw.githubusercontent.com/mzfshark/contracts-upgradeable/v4.9.3/contracts/utils/AddressUpgradeable.sol\":7276:7282  target */\n      dup6\n      sub(shl(0xa0, 0x01), 0x01)\n        /* \"https://raw.githubusercontent.com/mzfshark/contracts-upgradeable/v4.9.3/contracts/utils/AddressUpgradeable.sol\":7276:7295  target.delegatecall */\n      and\n        /* \"https://raw.githubusercontent.com/mzfshark/contracts-upgradeable/v4.9.3/contracts/utils/AddressUpgradeable.sol\":7296:7300  data */\n      dup6\n        /* \"https://raw.githubusercontent.com/mzfshark/contracts-upgradeable/v4.9.3/contracts/utils/AddressUpgradeable.sol\":7276:7301  target.delegatecall(data) */\n      mload(0x40)\n      tag_261\n      swap2\n      swap1\n      tag_262\n      jump\t// in\n    tag_261:\n      0x00\n      mload(0x40)\n      dup1\n      dup4\n      sub\n      dup2\n      dup6\n      gas\n      delegatecall\n      swap2\n      pop\n      pop\n      returndatasize\n      dup1\n      0x00\n      dup2\n      eq\n      tag_265\n      jumpi\n      mload(0x40)\n      swap2\n      pop\n      and(add(returndatasize, 0x3f), not(0x1f))\n      dup3\n      add\n      0x40\n      mstore\n      returndatasize\n      dup3\n      mstore\n      returndatasize\n      0x00\n      0x20\n      dup5\n      add\n      returndatacopy\n      jump(tag_264)\n    tag_265:\n      0x60\n      swap2\n      pop\n    tag_264:\n      pop\n        /* \"https://raw.githubusercontent.com/mzfshark/contracts-upgradeable/v4.9.3/contracts/utils/AddressUpgradeable.sol\":7234:7301  (bool success, bytes memory returndata) = target.delegatecall(data) */\n      swap2\n      pop\n      swap2\n      pop\n        /* \"https://raw.githubusercontent.com/mzfshark/contracts-upgradeable/v4.9.3/contracts/utils/AddressUpgradeable.sol\":7318:7387  verifyCallResultFromTarget(target, success, returndata, errorMessage) */\n      tag_266\n        /* \"https://raw.githubusercontent.com/mzfshark/contracts-upgradeable/v4.9.3/contracts/utils/AddressUpgradeable.sol\":7345:7351  target */\n      dup7\n        /* \"https://raw.githubusercontent.com/mzfshark/contracts-upgradeable/v4.9.3/contracts/utils/AddressUpgradeable.sol\":7353:7360  success */\n      dup4\n        /* \"https://raw.githubusercontent.com/mzfshark/contracts-upgradeable/v4.9.3/contracts/utils/AddressUpgradeable.sol\":7362:7372  returndata */\n      dup4\n        /* \"https://raw.githubusercontent.com/mzfshark/contracts-upgradeable/v4.9.3/contracts/utils/AddressUpgradeable.sol\":7374:7386  errorMessage */\n      dup8\n        /* \"https://raw.githubusercontent.com/mzfshark/contracts-upgradeable/v4.9.3/contracts/utils/AddressUpgradeable.sol\":7318:7344  verifyCallResultFromTarget */\n      tag_267\n        /* \"https://raw.githubusercontent.com/mzfshark/contracts-upgradeable/v4.9.3/contracts/utils/AddressUpgradeable.sol\":7318:7387  verifyCallResultFromTarget(target, success, returndata, errorMessage) */\n      jump\t// in\n    tag_266:\n        /* \"https://raw.githubusercontent.com/mzfshark/contracts-upgradeable/v4.9.3/contracts/utils/AddressUpgradeable.sol\":7311:7387  return verifyCallResultFromTarget(target, success, returndata, errorMessage) */\n      swap7\n        /* \"https://raw.githubusercontent.com/mzfshark/contracts-upgradeable/v4.9.3/contracts/utils/AddressUpgradeable.sol\":7069:7394  function functionDelegateCall(... */\n      swap6\n      pop\n      pop\n      pop\n      pop\n      pop\n      pop\n      jump\t// out\n        /* \"https://raw.githubusercontent.com/mzfshark/contracts-upgradeable/v4.9.3/contracts/utils/AddressUpgradeable.sol\":7682:8310  function verifyCallResultFromTarget(... */\n    tag_267:\n        /* \"https://raw.githubusercontent.com/mzfshark/contracts-upgradeable/v4.9.3/contracts/utils/AddressUpgradeable.sol\":7862:7874  bytes memory */\n      0x60\n        /* \"https://raw.githubusercontent.com/mzfshark/contracts-upgradeable/v4.9.3/contracts/utils/AddressUpgradeable.sol\":7890:7897  success */\n      dup4\n        /* \"https://raw.githubusercontent.com/mzfshark/contracts-upgradeable/v4.9.3/contracts/utils/AddressUpgradeable.sol\":7886:8304  if (success) {... */\n      iszero\n      tag_269\n      jumpi\n        /* \"https://raw.githubusercontent.com/mzfshark/contracts-upgradeable/v4.9.3/contracts/utils/AddressUpgradeable.sol\":7917:7927  returndata */\n      dup3\n        /* \"https://raw.githubusercontent.com/mzfshark/contracts-upgradeable/v4.9.3/contracts/utils/AddressUpgradeable.sol\":7917:7934  returndata.length */\n      mload\n        /* \"https://raw.githubusercontent.com/mzfshark/contracts-upgradeable/v4.9.3/contracts/utils/AddressUpgradeable.sol\":7938:7939  0 */\n      0x00\n        /* \"https://raw.githubusercontent.com/mzfshark/contracts-upgradeable/v4.9.3/contracts/utils/AddressUpgradeable.sol\":7917:7939  returndata.length == 0 */\n      sub\n        /* \"https://raw.githubusercontent.com/mzfshark/contracts-upgradeable/v4.9.3/contracts/utils/AddressUpgradeable.sol\":7913:8199  if (returndata.length == 0) {... */\n      tag_272\n      jumpi\n      sub(shl(0xa0, 0x01), 0x01)\n        /* \"https://raw.githubusercontent.com/mzfshark/contracts-upgradeable/v4.9.3/contracts/utils/AddressUpgradeable.sol\":1713:1732  account.code.length */\n      dup6\n      and\n      extcodesize\n        /* \"https://raw.githubusercontent.com/mzfshark/contracts-upgradeable/v4.9.3/contracts/utils/AddressUpgradeable.sol\":8124:8184  require(isContract(target), \"Address: call to non-contract\") */\n      tag_272\n      jumpi\n      mload(0x40)\n      shl(0xe5, 0x461bcd)\n      dup2\n      mstore\n        /* \"#utility.yul\":12038:12040   */\n      0x20\n        /* \"https://raw.githubusercontent.com/mzfshark/contracts-upgradeable/v4.9.3/contracts/utils/AddressUpgradeable.sol\":8124:8184  require(isContract(target), \"Address: call to non-contract\") */\n      0x04\n      dup3\n      add\n        /* \"#utility.yul\":12020:12041   */\n      mstore\n        /* \"#utility.yul\":12077:12079   */\n      0x1d\n        /* \"#utility.yul\":12057:12075   */\n      0x24\n      dup3\n      add\n        /* \"#utility.yul\":12050:12080   */\n      mstore\n        /* \"#utility.yul\":12116:12147   */\n      0x416464726573733a2063616c6c20746f206e6f6e2d636f6e7472616374000000\n        /* \"#utility.yul\":12096:12114   */\n      0x44\n      dup3\n      add\n        /* \"#utility.yul\":12089:12148   */\n      mstore\n        /* \"#utility.yul\":12165:12183   */\n      0x64\n      add\n        /* \"https://raw.githubusercontent.com/mzfshark/contracts-upgradeable/v4.9.3/contracts/utils/AddressUpgradeable.sol\":8124:8184  require(isContract(target), \"Address: call to non-contract\") */\n      tag_78\n        /* \"#utility.yul\":11836:12189   */\n      jump\n        /* \"https://raw.githubusercontent.com/mzfshark/contracts-upgradeable/v4.9.3/contracts/utils/AddressUpgradeable.sol\":8124:8184  require(isContract(target), \"Address: call to non-contract\") */\n    tag_272:\n      pop\n        /* \"https://raw.githubusercontent.com/mzfshark/contracts-upgradeable/v4.9.3/contracts/utils/AddressUpgradeable.sol\":8219:8229  returndata */\n      dup2\n        /* \"https://raw.githubusercontent.com/mzfshark/contracts-upgradeable/v4.9.3/contracts/utils/AddressUpgradeable.sol\":8212:8229  return returndata */\n      jump(tag_276)\n        /* \"https://raw.githubusercontent.com/mzfshark/contracts-upgradeable/v4.9.3/contracts/utils/AddressUpgradeable.sol\":7886:8304  if (success) {... */\n    tag_269:\n        /* \"https://raw.githubusercontent.com/mzfshark/contracts-upgradeable/v4.9.3/contracts/utils/AddressUpgradeable.sol\":8260:8293  _revert(returndata, errorMessage) */\n      tag_276\n        /* \"https://raw.githubusercontent.com/mzfshark/contracts-upgradeable/v4.9.3/contracts/utils/AddressUpgradeable.sol\":8268:8278  returndata */\n      dup4\n        /* \"https://raw.githubusercontent.com/mzfshark/contracts-upgradeable/v4.9.3/contracts/utils/AddressUpgradeable.sol\":8280:8292  errorMessage */\n      dup4\n        /* \"https://raw.githubusercontent.com/mzfshark/contracts-upgradeable/v4.9.3/contracts/utils/AddressUpgradeable.sol\":8260:8267  _revert */\n      tag_277\n        /* \"https://raw.githubusercontent.com/mzfshark/contracts-upgradeable/v4.9.3/contracts/utils/AddressUpgradeable.sol\":8260:8293  _revert(returndata, errorMessage) */\n      jump\t// in\n    tag_276:\n        /* \"https://raw.githubusercontent.com/mzfshark/contracts-upgradeable/v4.9.3/contracts/utils/AddressUpgradeable.sol\":7682:8310  function verifyCallResultFromTarget(... */\n      swap5\n      swap4\n      pop\n      pop\n      pop\n      pop\n      jump\t// out\n        /* \"https://raw.githubusercontent.com/mzfshark/contracts-upgradeable/v4.9.3/contracts/utils/AddressUpgradeable.sol\":8832:9372  function _revert(bytes memory returndata, string memory errorMessage) private pure {... */\n    tag_277:\n        /* \"https://raw.githubusercontent.com/mzfshark/contracts-upgradeable/v4.9.3/contracts/utils/AddressUpgradeable.sol\":8991:9008  returndata.length */\n      dup2\n      mload\n        /* \"https://raw.githubusercontent.com/mzfshark/contracts-upgradeable/v4.9.3/contracts/utils/AddressUpgradeable.sol\":8991:9012  returndata.length > 0 */\n      iszero\n        /* \"https://raw.githubusercontent.com/mzfshark/contracts-upgradeable/v4.9.3/contracts/utils/AddressUpgradeable.sol\":8987:9366  if (returndata.length > 0) {... */\n      tag_279\n      jumpi\n        /* \"https://raw.githubusercontent.com/mzfshark/contracts-upgradeable/v4.9.3/contracts/utils/AddressUpgradeable.sol\":9219:9229  returndata */\n      dup2\n        /* \"https://raw.githubusercontent.com/mzfshark/contracts-upgradeable/v4.9.3/contracts/utils/AddressUpgradeable.sol\":9213:9230  mload(returndata) */\n      mload\n        /* \"https://raw.githubusercontent.com/mzfshark/contracts-upgradeable/v4.9.3/contracts/utils/AddressUpgradeable.sol\":9275:9290  returndata_size */\n      dup1\n        /* \"https://raw.githubusercontent.com/mzfshark/contracts-upgradeable/v4.9.3/contracts/utils/AddressUpgradeable.sol\":9262:9272  returndata */\n      dup4\n        /* \"https://raw.githubusercontent.com/mzfshark/contracts-upgradeable/v4.9.3/contracts/utils/AddressUpgradeable.sol\":9258:9260  32 */\n      0x20\n        /* \"https://raw.githubusercontent.com/mzfshark/contracts-upgradeable/v4.9.3/contracts/utils/AddressUpgradeable.sol\":9254:9273  add(32, returndata) */\n      add\n        /* \"https://raw.githubusercontent.com/mzfshark/contracts-upgradeable/v4.9.3/contracts/utils/AddressUpgradeable.sol\":9247:9291  revert(add(32, returndata), returndata_size) */\n      revert\n        /* \"https://raw.githubusercontent.com/mzfshark/contracts-upgradeable/v4.9.3/contracts/utils/AddressUpgradeable.sol\":8987:9366  if (returndata.length > 0) {... */\n    tag_279:\n        /* \"https://raw.githubusercontent.com/mzfshark/contracts-upgradeable/v4.9.3/contracts/utils/AddressUpgradeable.sol\":9342:9354  errorMessage */\n      dup1\n        /* \"https://raw.githubusercontent.com/mzfshark/contracts-upgradeable/v4.9.3/contracts/utils/AddressUpgradeable.sol\":9335:9355  revert(errorMessage) */\n      mload(0x40)\n      shl(0xe5, 0x461bcd)\n      dup2\n      mstore\n      0x04\n      add\n      tag_78\n      swap2\n      swap1\n      tag_282\n      jump\t// in\n    tag_74:\n      mload(0x40)\n      dup1\n      0x60\n      add\n      0x40\n      mstore\n      dup1\n      0x03\n      swap1\n      0x20\n      dup3\n      mul\n      dup1\n      calldatasize\n      dup4\n      calldatacopy\n      pop\n      swap2\n      swap3\n      swap2\n      pop\n      pop\n      jump\t// out\n        /* \"#utility.yul\":252:753   */\n    tag_24:\n        /* \"#utility.yul\":428:430   */\n      0x60\n        /* \"#utility.yul\":413:431   */\n      dup2\n      add\n        /* \"#utility.yul\":417:426   */\n      dup2\n        /* \"#utility.yul\":508:514   */\n      dup4\n        /* \"#utility.yul\":386:390   */\n      0x00\n        /* \"#utility.yul\":542:747   */\n    tag_289:\n        /* \"#utility.yul\":556:560   */\n      0x03\n        /* \"#utility.yul\":553:554   */\n      dup2\n        /* \"#utility.yul\":550:561   */\n      lt\n        /* \"#utility.yul\":542:747   */\n      iszero\n      tag_291\n      jumpi\n        /* \"#utility.yul\":619:632   */\n      dup2\n      mload\n        /* \"#utility.yul\":634:638   */\n      0xff\n        /* \"#utility.yul\":615:639   */\n      and\n        /* \"#utility.yul\":603:640   */\n      dup4\n      mstore\n        /* \"#utility.yul\":663:667   */\n      0x20\n        /* \"#utility.yul\":687:699   */\n      swap3\n      dup4\n      add\n      swap3\n        /* \"#utility.yul\":722:737   */\n      swap1\n      swap2\n      add\n      swap1\n        /* \"#utility.yul\":576:577   */\n      0x01\n        /* \"#utility.yul\":569:578   */\n      add\n        /* \"#utility.yul\":542:747   */\n      jump(tag_289)\n    tag_291:\n        /* \"#utility.yul\":546:549   */\n      pop\n      pop\n      pop\n        /* \"#utility.yul\":252:753   */\n      swap3\n      swap2\n      pop\n      pop\n      jump\t// out\n        /* \"#utility.yul\":758:889   */\n    tag_283:\n      sub(shl(0xa0, 0x01), 0x01)\n        /* \"#utility.yul\":833:864   */\n      dup2\n      and\n        /* \"#utility.yul\":823:865   */\n      dup2\n      eq\n        /* \"#utility.yul\":813:883   */\n      tag_88\n      jumpi\n        /* \"#utility.yul\":879:880   */\n      0x00\n        /* \"#utility.yul\":876:877   */\n      dup1\n        /* \"#utility.yul\":869:881   */\n      revert\n        /* \"#utility.yul\":894:1141   */\n    tag_28:\n        /* \"#utility.yul\":953:959   */\n      0x00\n        /* \"#utility.yul\":1006:1008   */\n      0x20\n        /* \"#utility.yul\":994:1003   */\n      dup3\n        /* \"#utility.yul\":985:992   */\n      dup5\n        /* \"#utility.yul\":981:1004   */\n      sub\n        /* \"#utility.yul\":977:1009   */\n      slt\n        /* \"#utility.yul\":974:1026   */\n      iszero\n      tag_295\n      jumpi\n        /* \"#utility.yul\":1022:1023   */\n      0x00\n        /* \"#utility.yul\":1019:1020   */\n      dup1\n        /* \"#utility.yul\":1012:1024   */\n      revert\n        /* \"#utility.yul\":974:1026   */\n    tag_295:\n        /* \"#utility.yul\":1061:1070   */\n      dup2\n        /* \"#utility.yul\":1048:1071   */\n      calldataload\n        /* \"#utility.yul\":1080:1111   */\n      tag_245\n        /* \"#utility.yul\":1105:1110   */\n      dup2\n        /* \"#utility.yul\":1080:1111   */\n      tag_283\n      jump\t// in\n        /* \"#utility.yul\":1574:2005   */\n    tag_43:\n        /* \"#utility.yul\":1685:1691   */\n      0x00\n        /* \"#utility.yul\":1693:1699   */\n      dup1\n        /* \"#utility.yul\":1746:1748   */\n      0x40\n        /* \"#utility.yul\":1734:1743   */\n      dup4\n        /* \"#utility.yul\":1725:1732   */\n      dup6\n        /* \"#utility.yul\":1721:1744   */\n      sub\n        /* \"#utility.yul\":1717:1749   */\n      slt\n        /* \"#utility.yul\":1714:1766   */\n      iszero\n      tag_300\n      jumpi\n        /* \"#utility.yul\":1762:1763   */\n      0x00\n        /* \"#utility.yul\":1759:1760   */\n      dup1\n        /* \"#utility.yul\":1752:1764   */\n      revert\n        /* \"#utility.yul\":1714:1766   */\n    tag_300:\n        /* \"#utility.yul\":1801:1810   */\n      dup3\n        /* \"#utility.yul\":1788:1811   */\n      calldataload\n        /* \"#utility.yul\":1820:1851   */\n      tag_301\n        /* \"#utility.yul\":1845:1850   */\n      dup2\n        /* \"#utility.yul\":1820:1851   */\n      tag_283\n      jump\t// in\n    tag_301:\n        /* \"#utility.yul\":1870:1875   */\n      swap2\n      pop\n        /* \"#utility.yul\":1927:1929   */\n      0x20\n        /* \"#utility.yul\":1912:1930   */\n      dup4\n      add\n        /* \"#utility.yul\":1899:1931   */\n      calldataload\n        /* \"#utility.yul\":1940:1973   */\n      tag_302\n        /* \"#utility.yul\":1899:1931   */\n      dup2\n        /* \"#utility.yul\":1940:1973   */\n      tag_283\n      jump\t// in\n    tag_302:\n        /* \"#utility.yul\":1992:1999   */\n      dup1\n        /* \"#utility.yul\":1982:1999   */\n      swap2\n      pop\n      pop\n        /* \"#utility.yul\":1574:2005   */\n      swap3\n      pop\n      swap3\n      swap1\n      pop\n      jump\t// out\n        /* \"#utility.yul\":2010:2137   */\n    tag_91:\n        /* \"#utility.yul\":2071:2081   */\n      0x4e487b71\n        /* \"#utility.yul\":2066:2069   */\n      0xe0\n        /* \"#utility.yul\":2062:2082   */\n      shl\n        /* \"#utility.yul\":2059:2060   */\n      0x00\n        /* \"#utility.yul\":2052:2083   */\n      mstore\n        /* \"#utility.yul\":2102:2106   */\n      0x41\n        /* \"#utility.yul\":2099:2100   */\n      0x04\n        /* \"#utility.yul\":2092:2107   */\n      mstore\n        /* \"#utility.yul\":2126:2130   */\n      0x24\n        /* \"#utility.yul\":2123:2124   */\n      0x00\n        /* \"#utility.yul\":2116:2131   */\n      revert\n        /* \"#utility.yul\":2142:3198   */\n    tag_47:\n        /* \"#utility.yul\":2219:2225   */\n      0x00\n        /* \"#utility.yul\":2227:2233   */\n      dup1\n        /* \"#utility.yul\":2280:2282   */\n      0x40\n        /* \"#utility.yul\":2268:2277   */\n      dup4\n        /* \"#utility.yul\":2259:2266   */\n      dup6\n        /* \"#utility.yul\":2255:2278   */\n      sub\n        /* \"#utility.yul\":2251:2283   */\n      slt\n        /* \"#utility.yul\":2248:2300   */\n      iszero\n      tag_305\n      jumpi\n        /* \"#utility.yul\":2296:2297   */\n      0x00\n        /* \"#utility.yul\":2293:2294   */\n      dup1\n        /* \"#utility.yul\":2286:2298   */\n      revert\n        /* \"#utility.yul\":2248:2300   */\n    tag_305:\n        /* \"#utility.yul\":2335:2344   */\n      dup3\n        /* \"#utility.yul\":2322:2345   */\n      calldataload\n        /* \"#utility.yul\":2354:2385   */\n      tag_306\n        /* \"#utility.yul\":2379:2384   */\n      dup2\n        /* \"#utility.yul\":2354:2385   */\n      tag_283\n      jump\t// in\n    tag_306:\n        /* \"#utility.yul\":2404:2409   */\n      swap2\n      pop\n        /* \"#utility.yul\":2460:2462   */\n      0x20\n        /* \"#utility.yul\":2445:2463   */\n      dup4\n      add\n        /* \"#utility.yul\":2432:2464   */\n      calldataload\n        /* \"#utility.yul\":2483:2501   */\n      0xffffffffffffffff\n        /* \"#utility.yul\":2513:2527   */\n      dup1\n      dup3\n      gt\n        /* \"#utility.yul\":2510:2544   */\n      iszero\n      tag_307\n      jumpi\n        /* \"#utility.yul\":2540:2541   */\n      0x00\n        /* \"#utility.yul\":2537:2538   */\n      dup1\n        /* \"#utility.yul\":2530:2542   */\n      revert\n        /* \"#utility.yul\":2510:2544   */\n    tag_307:\n        /* \"#utility.yul\":2578:2584   */\n      dup2\n        /* \"#utility.yul\":2567:2576   */\n      dup6\n        /* \"#utility.yul\":2563:2585   */\n      add\n        /* \"#utility.yul\":2553:2585   */\n      swap2\n      pop\n        /* \"#utility.yul\":2623:2630   */\n      dup6\n        /* \"#utility.yul\":2616:2620   */\n      0x1f\n        /* \"#utility.yul\":2612:2614   */\n      dup4\n        /* \"#utility.yul\":2608:2621   */\n      add\n        /* \"#utility.yul\":2604:2631   */\n      slt\n        /* \"#utility.yul\":2594:2649   */\n      tag_308\n      jumpi\n        /* \"#utility.yul\":2645:2646   */\n      0x00\n        /* \"#utility.yul\":2642:2643   */\n      dup1\n        /* \"#utility.yul\":2635:2647   */\n      revert\n        /* \"#utility.yul\":2594:2649   */\n    tag_308:\n        /* \"#utility.yul\":2681:2683   */\n      dup2\n        /* \"#utility.yul\":2668:2684   */\n      calldataload\n        /* \"#utility.yul\":2703:2705   */\n      dup2\n        /* \"#utility.yul\":2699:2701   */\n      dup2\n        /* \"#utility.yul\":2696:2706   */\n      gt\n        /* \"#utility.yul\":2693:2729   */\n      iszero\n      tag_310\n      jumpi\n        /* \"#utility.yul\":2709:2727   */\n      tag_310\n      tag_91\n      jump\t// in\n    tag_310:\n        /* \"#utility.yul\":2784:2786   */\n      0x40\n        /* \"#utility.yul\":2778:2787   */\n      mload\n        /* \"#utility.yul\":2752:2754   */\n      0x1f\n        /* \"#utility.yul\":2838:2851   */\n      dup3\n      add\n      not(0x1f)\n        /* \"#utility.yul\":2834:2856   */\n      swap1\n      dup2\n      and\n        /* \"#utility.yul\":2858:2860   */\n      0x3f\n        /* \"#utility.yul\":2830:2861   */\n      add\n        /* \"#utility.yul\":2826:2866   */\n      and\n        /* \"#utility.yul\":2814:2867   */\n      dup2\n      add\n      swap1\n        /* \"#utility.yul\":2882:2900   */\n      dup4\n      dup3\n      gt\n        /* \"#utility.yul\":2902:2924   */\n      dup2\n      dup4\n      lt\n        /* \"#utility.yul\":2879:2925   */\n      or\n        /* \"#utility.yul\":2876:2948   */\n      iszero\n      tag_312\n      jumpi\n        /* \"#utility.yul\":2928:2946   */\n      tag_312\n      tag_91\n      jump\t// in\n    tag_312:\n        /* \"#utility.yul\":2968:2978   */\n      dup2\n        /* \"#utility.yul\":2964:2966   */\n      0x40\n        /* \"#utility.yul\":2957:2979   */\n      mstore\n        /* \"#utility.yul\":3003:3005   */\n      dup3\n        /* \"#utility.yul\":2995:3001   */\n      dup2\n        /* \"#utility.yul\":2988:3006   */\n      mstore\n        /* \"#utility.yul\":3043:3050   */\n      dup9\n        /* \"#utility.yul\":3038:3040   */\n      0x20\n        /* \"#utility.yul\":3033:3035   */\n      dup5\n        /* \"#utility.yul\":3029:3031   */\n      dup8\n        /* \"#utility.yul\":3025:3036   */\n      add\n        /* \"#utility.yul\":3021:3041   */\n      add\n        /* \"#utility.yul\":3018:3051   */\n      gt\n        /* \"#utility.yul\":3015:3068   */\n      iszero\n      tag_313\n      jumpi\n        /* \"#utility.yul\":3064:3065   */\n      0x00\n        /* \"#utility.yul\":3061:3062   */\n      dup1\n        /* \"#utility.yul\":3054:3066   */\n      revert\n        /* \"#utility.yul\":3015:3068   */\n    tag_313:\n        /* \"#utility.yul\":3120:3122   */\n      dup3\n        /* \"#utility.yul\":3115:3117   */\n      0x20\n        /* \"#utility.yul\":3111:3113   */\n      dup7\n        /* \"#utility.yul\":3107:3118   */\n      add\n        /* \"#utility.yul\":3102:3104   */\n      0x20\n        /* \"#utility.yul\":3094:3100   */\n      dup4\n        /* \"#utility.yul\":3090:3105   */\n      add\n        /* \"#utility.yul\":3077:3123   */\n      calldatacopy\n        /* \"#utility.yul\":3165:3166   */\n      0x00\n        /* \"#utility.yul\":3160:3162   */\n      0x20\n        /* \"#utility.yul\":3155:3157   */\n      dup5\n        /* \"#utility.yul\":3147:3153   */\n      dup4\n        /* \"#utility.yul\":3143:3158   */\n      add\n        /* \"#utility.yul\":3139:3163   */\n      add\n        /* \"#utility.yul\":3132:3167   */\n      mstore\n        /* \"#utility.yul\":3186:3192   */\n      dup1\n        /* \"#utility.yul\":3176:3192   */\n      swap6\n      pop\n      pop\n      pop\n      pop\n      pop\n      pop\n        /* \"#utility.yul\":2142:3198   */\n      swap3\n      pop\n      swap3\n      swap1\n      pop\n      jump\t// out\n        /* \"#utility.yul\":3577:4310   */\n    tag_71:\n        /* \"#utility.yul\":3657:3663   */\n      0x00\n        /* \"#utility.yul\":3665:3671   */\n      dup1\n        /* \"#utility.yul\":3673:3679   */\n      0x00\n        /* \"#utility.yul\":3726:3728   */\n      0x40\n        /* \"#utility.yul\":3714:3723   */\n      dup5\n        /* \"#utility.yul\":3705:3712   */\n      dup7\n        /* \"#utility.yul\":3701:3724   */\n      sub\n        /* \"#utility.yul\":3697:3729   */\n      slt\n        /* \"#utility.yul\":3694:3746   */\n      iszero\n      tag_317\n      jumpi\n        /* \"#utility.yul\":3742:3743   */\n      0x00\n        /* \"#utility.yul\":3739:3740   */\n      dup1\n        /* \"#utility.yul\":3732:3744   */\n      revert\n        /* \"#utility.yul\":3694:3746   */\n    tag_317:\n        /* \"#utility.yul\":3782:3791   */\n      dup4\n        /* \"#utility.yul\":3769:3792   */\n      calldataload\n        /* \"#utility.yul\":3811:3829   */\n      0xffffffffffffffff\n        /* \"#utility.yul\":3852:3854   */\n      dup1\n        /* \"#utility.yul\":3844:3850   */\n      dup3\n        /* \"#utility.yul\":3841:3855   */\n      gt\n        /* \"#utility.yul\":3838:3872   */\n      iszero\n      tag_318\n      jumpi\n        /* \"#utility.yul\":3868:3869   */\n      0x00\n        /* \"#utility.yul\":3865:3866   */\n      dup1\n        /* \"#utility.yul\":3858:3870   */\n      revert\n        /* \"#utility.yul\":3838:3872   */\n    tag_318:\n        /* \"#utility.yul\":3906:3912   */\n      dup2\n        /* \"#utility.yul\":3895:3904   */\n      dup7\n        /* \"#utility.yul\":3891:3913   */\n      add\n        /* \"#utility.yul\":3881:3913   */\n      swap2\n      pop\n        /* \"#utility.yul\":3951:3958   */\n      dup7\n        /* \"#utility.yul\":3944:3948   */\n      0x1f\n        /* \"#utility.yul\":3940:3942   */\n      dup4\n        /* \"#utility.yul\":3936:3949   */\n      add\n        /* \"#utility.yul\":3932:3959   */\n      slt\n        /* \"#utility.yul\":3922:3977   */\n      tag_319\n      jumpi\n        /* \"#utility.yul\":3973:3974   */\n      0x00\n        /* \"#utility.yul\":3970:3971   */\n      dup1\n        /* \"#utility.yul\":3963:3975   */\n      revert\n        /* \"#utility.yul\":3922:3977   */\n    tag_319:\n        /* \"#utility.yul\":4013:4015   */\n      dup2\n        /* \"#utility.yul\":4000:4016   */\n      calldataload\n        /* \"#utility.yul\":4039:4041   */\n      dup2\n        /* \"#utility.yul\":4031:4037   */\n      dup2\n        /* \"#utility.yul\":4028:4042   */\n      gt\n        /* \"#utility.yul\":4025:4059   */\n      iszero\n      tag_320\n      jumpi\n        /* \"#utility.yul\":4055:4056   */\n      0x00\n        /* \"#utility.yul\":4052:4053   */\n      dup1\n        /* \"#utility.yul\":4045:4057   */\n      revert\n        /* \"#utility.yul\":4025:4059   */\n    tag_320:\n        /* \"#utility.yul\":4102:4109   */\n      dup8\n        /* \"#utility.yul\":4095:4099   */\n      0x20\n        /* \"#utility.yul\":4086:4092   */\n      dup3\n        /* \"#utility.yul\":4082:4084   */\n      dup6\n        /* \"#utility.yul\":4078:4093   */\n      add\n        /* \"#utility.yul\":4074:4100   */\n      add\n        /* \"#utility.yul\":4071:4110   */\n      gt\n        /* \"#utility.yul\":4068:4127   */\n      iszero\n      tag_321\n      jumpi\n        /* \"#utility.yul\":4123:4124   */\n      0x00\n        /* \"#utility.yul\":4120:4121   */\n      dup1\n        /* \"#utility.yul\":4113:4125   */\n      revert\n        /* \"#utility.yul\":4068:4127   */\n    tag_321:\n        /* \"#utility.yul\":4154:4158   */\n      0x20\n        /* \"#utility.yul\":4146:4159   */\n      swap3\n      dup4\n      add\n      swap6\n      pop\n        /* \"#utility.yul\":4178:4184   */\n      swap4\n      pop\n      pop\n        /* \"#utility.yul\":4219:4239   */\n      dup5\n      add\n        /* \"#utility.yul\":4206:4240   */\n      calldataload\n        /* \"#utility.yul\":4249:4280   */\n      tag_322\n        /* \"#utility.yul\":4206:4240   */\n      dup2\n        /* \"#utility.yul\":4249:4280   */\n      tag_283\n      jump\t// in\n    tag_322:\n        /* \"#utility.yul\":4299:4304   */\n      dup1\n        /* \"#utility.yul\":4289:4304   */\n      swap2\n      pop\n      pop\n        /* \"#utility.yul\":3577:4310   */\n      swap3\n      pop\n      swap3\n      pop\n      swap3\n      jump\t// out\n        /* \"#utility.yul\":4315:4723   */\n    tag_79:\n        /* \"#utility.yul\":4517:4519   */\n      0x20\n        /* \"#utility.yul\":4499:4520   */\n      dup1\n      dup3\n      mstore\n        /* \"#utility.yul\":4556:4558   */\n      0x2c\n        /* \"#utility.yul\":4536:4554   */\n      swap1\n      dup3\n      add\n        /* \"#utility.yul\":4529:4559   */\n      mstore\n        /* \"#utility.yul\":4595:4629   */\n      0x46756e6374696f6e206d7573742062652063616c6c6564207468726f75676820\n        /* \"#utility.yul\":4590:4592   */\n      0x40\n        /* \"#utility.yul\":4575:4593   */\n      dup3\n      add\n        /* \"#utility.yul\":4568:4630   */\n      mstore\n      shl(0xa2, 0x19195b1959d85d1958d85b1b)\n        /* \"#utility.yul\":4661:4663   */\n      0x60\n        /* \"#utility.yul\":4646:4664   */\n      dup3\n      add\n        /* \"#utility.yul\":4639:4681   */\n      mstore\n        /* \"#utility.yul\":4713:4716   */\n      0x80\n        /* \"#utility.yul\":4698:4717   */\n      add\n      swap1\n        /* \"#utility.yul\":4315:4723   */\n      jump\t// out\n        /* \"#utility.yul\":4728:5136   */\n    tag_84:\n        /* \"#utility.yul\":4930:4932   */\n      0x20\n        /* \"#utility.yul\":4912:4933   */\n      dup1\n      dup3\n      mstore\n        /* \"#utility.yul\":4969:4971   */\n      0x2c\n        /* \"#utility.yul\":4949:4967   */\n      swap1\n      dup3\n      add\n        /* \"#utility.yul\":4942:4972   */\n      mstore\n        /* \"#utility.yul\":5008:5042   */\n      0x46756e6374696f6e206d7573742062652063616c6c6564207468726f75676820\n        /* \"#utility.yul\":5003:5005   */\n      0x40\n        /* \"#utility.yul\":4988:5006   */\n      dup3\n      add\n        /* \"#utility.yul\":4981:5043   */\n      mstore\n      shl(0xa0, 0x6163746976652070726f7879)\n        /* \"#utility.yul\":5074:5076   */\n      0x60\n        /* \"#utility.yul\":5059:5077   */\n      dup3\n      add\n        /* \"#utility.yul\":5052:5094   */\n      mstore\n        /* \"#utility.yul\":5126:5129   */\n      0x80\n        /* \"#utility.yul\":5111:5130   */\n      add\n      swap1\n        /* \"#utility.yul\":4728:5136   */\n      jump\t// out\n        /* \"#utility.yul\":6180:6447   */\n    tag_284:\n        /* \"#utility.yul\":6269:6275   */\n      dup2\n        /* \"#utility.yul\":6264:6267   */\n      dup4\n        /* \"#utility.yul\":6257:6276   */\n      mstore\n        /* \"#utility.yul\":6321:6327   */\n      dup2\n        /* \"#utility.yul\":6314:6319   */\n      dup2\n        /* \"#utility.yul\":6307:6311   */\n      0x20\n        /* \"#utility.yul\":6302:6305   */\n      dup6\n        /* \"#utility.yul\":6298:6312   */\n      add\n        /* \"#utility.yul\":6285:6328   */\n      calldatacopy\n      pop\n        /* \"#utility.yul\":6373:6374   */\n      0x00\n        /* \"#utility.yul\":6348:6364   */\n      dup3\n      dup3\n      add\n        /* \"#utility.yul\":6366:6370   */\n      0x20\n        /* \"#utility.yul\":6344:6371   */\n      swap1\n      dup2\n      add\n        /* \"#utility.yul\":6337:6375   */\n      swap2\n      swap1\n      swap2\n      mstore\n        /* \"#utility.yul\":6429:6431   */\n      0x1f\n        /* \"#utility.yul\":6408:6423   */\n      swap1\n      swap2\n      add\n      not(0x1f)\n        /* \"#utility.yul\":6404:6433   */\n      and\n        /* \"#utility.yul\":6395:6434   */\n      swap1\n      swap2\n      add\n        /* \"#utility.yul\":6391:6441   */\n      add\n      swap1\n        /* \"#utility.yul\":6180:6447   */\n      jump\t// out\n        /* \"#utility.yul\":6452:6699   */\n    tag_138:\n        /* \"#utility.yul\":6611:6613   */\n      0x20\n        /* \"#utility.yul\":6600:6609   */\n      dup2\n        /* \"#utility.yul\":6593:6614   */\n      mstore\n        /* \"#utility.yul\":6574:6578   */\n      0x00\n        /* \"#utility.yul\":6631:6693   */\n      tag_276\n        /* \"#utility.yul\":6689:6691   */\n      0x20\n        /* \"#utility.yul\":6678:6687   */\n      dup4\n        /* \"#utility.yul\":6674:6692   */\n      add\n        /* \"#utility.yul\":6666:6672   */\n      dup5\n        /* \"#utility.yul\":6658:6664   */\n      dup7\n        /* \"#utility.yul\":6631:6693   */\n      tag_284\n      jump\t// in\n        /* \"#utility.yul\":6704:6975   */\n    tag_140:\n        /* \"#utility.yul\":6887:6893   */\n      dup2\n        /* \"#utility.yul\":6879:6885   */\n      dup4\n        /* \"#utility.yul\":6874:6877   */\n      dup3\n        /* \"#utility.yul\":6861:6894   */\n      calldatacopy\n        /* \"#utility.yul\":6843:6846   */\n      0x00\n        /* \"#utility.yul\":6913:6929   */\n      swap2\n      add\n        /* \"#utility.yul\":6938:6951   */\n      swap1\n      dup2\n      mstore\n        /* \"#utility.yul\":6913:6929   */\n      swap2\n        /* \"#utility.yul\":6704:6975   */\n      swap1\n      pop\n      jump\t// out\n        /* \"#utility.yul\":7259:7603   */\n    tag_149:\n        /* \"#utility.yul\":7446:7448   */\n      0x40\n        /* \"#utility.yul\":7435:7444   */\n      dup2\n        /* \"#utility.yul\":7428:7449   */\n      mstore\n        /* \"#utility.yul\":7409:7413   */\n      0x00\n        /* \"#utility.yul\":7466:7528   */\n      tag_334\n        /* \"#utility.yul\":7524:7526   */\n      0x40\n        /* \"#utility.yul\":7513:7522   */\n      dup4\n        /* \"#utility.yul\":7509:7527   */\n      add\n        /* \"#utility.yul\":7501:7507   */\n      dup6\n        /* \"#utility.yul\":7493:7499   */\n      dup8\n        /* \"#utility.yul\":7466:7528   */\n      tag_284\n      jump\t// in\n    tag_334:\n        /* \"#utility.yul\":7458:7528   */\n      swap1\n      pop\n        /* \"#utility.yul\":7593:7594   */\n      0x01\n        /* \"#utility.yul\":7589:7590   */\n      dup1\n        /* \"#utility.yul\":7584:7587   */\n      0xa0\n        /* \"#utility.yul\":7580:7591   */\n      shl\n        /* \"#utility.yul\":7576:7595   */\n      sub\n        /* \"#utility.yul\":7568:7574   */\n      dup4\n        /* \"#utility.yul\":7564:7596   */\n      and\n        /* \"#utility.yul\":7559:7561   */\n      0x20\n        /* \"#utility.yul\":7548:7557   */\n      dup4\n        /* \"#utility.yul\":7544:7562   */\n      add\n        /* \"#utility.yul\":7537:7597   */\n      mstore\n        /* \"#utility.yul\":7259:7603   */\n      swap5\n      swap4\n      pop\n      pop\n      pop\n      pop\n      jump\t// out\n        /* \"#utility.yul\":7608:7792   */\n    tag_167:\n        /* \"#utility.yul\":7678:7684   */\n      0x00\n        /* \"#utility.yul\":7731:7733   */\n      0x20\n        /* \"#utility.yul\":7719:7728   */\n      dup3\n        /* \"#utility.yul\":7710:7717   */\n      dup5\n        /* \"#utility.yul\":7706:7729   */\n      sub\n        /* \"#utility.yul\":7702:7734   */\n      slt\n        /* \"#utility.yul\":7699:7751   */\n      iszero\n      tag_336\n      jumpi\n        /* \"#utility.yul\":7747:7748   */\n      0x00\n        /* \"#utility.yul\":7744:7745   */\n      dup1\n        /* \"#utility.yul\":7737:7749   */\n      revert\n        /* \"#utility.yul\":7699:7751   */\n    tag_336:\n      pop\n        /* \"#utility.yul\":7770:7786   */\n      mload\n      swap2\n        /* \"#utility.yul\":7608:7792   */\n      swap1\n      pop\n      jump\t// out\n        /* \"#utility.yul\":8622:9029   */\n    tag_184:\n        /* \"#utility.yul\":8824:8826   */\n      0x20\n        /* \"#utility.yul\":8806:8827   */\n      dup1\n      dup3\n      mstore\n        /* \"#utility.yul\":8863:8865   */\n      0x2b\n        /* \"#utility.yul\":8843:8861   */\n      swap1\n      dup3\n      add\n        /* \"#utility.yul\":8836:8866   */\n      mstore\n        /* \"#utility.yul\":8902:8936   */\n      0x496e697469616c697a61626c653a20636f6e7472616374206973206e6f742069\n        /* \"#utility.yul\":8897:8899   */\n      0x40\n        /* \"#utility.yul\":8882:8900   */\n      dup3\n      add\n        /* \"#utility.yul\":8875:8937   */\n      mstore\n      shl(0xa8, 0x6e697469616c697a696e67)\n        /* \"#utility.yul\":8968:8970   */\n      0x60\n        /* \"#utility.yul\":8953:8971   */\n      dup3\n      add\n        /* \"#utility.yul\":8946:8987   */\n      mstore\n        /* \"#utility.yul\":9019:9022   */\n      0x80\n        /* \"#utility.yul\":9004:9023   */\n      add\n      swap1\n        /* \"#utility.yul\":8622:9029   */\n      jump\t// out\n        /* \"#utility.yul\":9034:9550   */\n    tag_192:\n      sub(shl(0xa0, 0x01), 0x01)\n        /* \"#utility.yul\":9313:9328   */\n      dup7\n      dup2\n      and\n        /* \"#utility.yul\":9295:9329   */\n      dup3\n      mstore\n        /* \"#utility.yul\":9365:9380   */\n      dup6\n      and\n        /* \"#utility.yul\":9360:9362   */\n      0x20\n        /* \"#utility.yul\":9345:9363   */\n      dup3\n      add\n        /* \"#utility.yul\":9338:9381   */\n      mstore\n        /* \"#utility.yul\":9412:9414   */\n      0x40\n        /* \"#utility.yul\":9397:9415   */\n      dup2\n      add\n        /* \"#utility.yul\":9390:9424   */\n      dup5\n      swap1\n      mstore\n        /* \"#utility.yul\":9460:9463   */\n      0x80\n        /* \"#utility.yul\":9455:9457   */\n      0x60\n        /* \"#utility.yul\":9440:9458   */\n      dup3\n      add\n        /* \"#utility.yul\":9433:9464   */\n      dup2\n      swap1\n      mstore\n        /* \"#utility.yul\":9238:9242   */\n      0x00\n      swap1\n        /* \"#utility.yul\":9481:9544   */\n      tag_259\n      swap1\n        /* \"#utility.yul\":9524:9543   */\n      dup4\n      add\n        /* \"#utility.yul\":9516:9522   */\n      dup5\n        /* \"#utility.yul\":9508:9514   */\n      dup7\n        /* \"#utility.yul\":9481:9544   */\n      tag_284\n      jump\t// in\n        /* \"#utility.yul\":9555:9832   */\n    tag_196:\n        /* \"#utility.yul\":9622:9628   */\n      0x00\n        /* \"#utility.yul\":9675:9677   */\n      0x20\n        /* \"#utility.yul\":9663:9672   */\n      dup3\n        /* \"#utility.yul\":9654:9661   */\n      dup5\n        /* \"#utility.yul\":9650:9673   */\n      sub\n        /* \"#utility.yul\":9646:9678   */\n      slt\n        /* \"#utility.yul\":9643:9695   */\n      iszero\n      tag_343\n      jumpi\n        /* \"#utility.yul\":9691:9692   */\n      0x00\n        /* \"#utility.yul\":9688:9689   */\n      dup1\n        /* \"#utility.yul\":9681:9693   */\n      revert\n        /* \"#utility.yul\":9643:9695   */\n    tag_343:\n        /* \"#utility.yul\":9723:9732   */\n      dup2\n        /* \"#utility.yul\":9717:9733   */\n      mload\n        /* \"#utility.yul\":9776:9781   */\n      dup1\n        /* \"#utility.yul\":9769:9782   */\n      iszero\n        /* \"#utility.yul\":9762:9783   */\n      iszero\n        /* \"#utility.yul\":9755:9760   */\n      dup2\n        /* \"#utility.yul\":9752:9784   */\n      eq\n        /* \"#utility.yul\":9742:9802   */\n      tag_245\n      jumpi\n        /* \"#utility.yul\":9798:9799   */\n      0x00\n        /* \"#utility.yul\":9795:9796   */\n      dup1\n        /* \"#utility.yul\":9788:9800   */\n      revert\n        /* \"#utility.yul\":10298:10425   */\n    tag_206:\n        /* \"#utility.yul\":10359:10369   */\n      0x4e487b71\n        /* \"#utility.yul\":10354:10357   */\n      0xe0\n        /* \"#utility.yul\":10350:10370   */\n      shl\n        /* \"#utility.yul\":10347:10348   */\n      0x00\n        /* \"#utility.yul\":10340:10371   */\n      mstore\n        /* \"#utility.yul\":10390:10394   */\n      0x32\n        /* \"#utility.yul\":10387:10388   */\n      0x04\n        /* \"#utility.yul\":10380:10395   */\n      mstore\n        /* \"#utility.yul\":10414:10418   */\n      0x24\n        /* \"#utility.yul\":10411:10412   */\n      0x00\n        /* \"#utility.yul\":10404:10419   */\n      revert\n        /* \"#utility.yul\":10430:10662   */\n    tag_213:\n        /* \"#utility.yul\":10469:10472   */\n      0x00\n        /* \"#utility.yul\":10490:10507   */\n      0x01\n      dup3\n      add\n        /* \"#utility.yul\":10487:10627   */\n      tag_348\n      jumpi\n        /* \"#utility.yul\":10549:10559   */\n      0x4e487b71\n        /* \"#utility.yul\":10544:10547   */\n      0xe0\n        /* \"#utility.yul\":10540:10560   */\n      shl\n        /* \"#utility.yul\":10537:10538   */\n      0x00\n        /* \"#utility.yul\":10530:10561   */\n      mstore\n        /* \"#utility.yul\":10584:10588   */\n      0x11\n        /* \"#utility.yul\":10581:10582   */\n      0x04\n        /* \"#utility.yul\":10574:10589   */\n      mstore\n        /* \"#utility.yul\":10612:10616   */\n      0x24\n        /* \"#utility.yul\":10609:10610   */\n      0x00\n        /* \"#utility.yul\":10602:10617   */\n      revert\n        /* \"#utility.yul\":10487:10627   */\n    tag_348:\n      pop\n        /* \"#utility.yul\":10654:10655   */\n      0x01\n        /* \"#utility.yul\":10643:10656   */\n      add\n      swap1\n        /* \"#utility.yul\":10430:10662   */\n      jump\t// out\n        /* \"#utility.yul\":11289:11539   */\n    tag_285:\n        /* \"#utility.yul\":11374:11375   */\n      0x00\n        /* \"#utility.yul\":11384:11497   */\n    tag_352:\n        /* \"#utility.yul\":11398:11404   */\n      dup4\n        /* \"#utility.yul\":11395:11396   */\n      dup2\n        /* \"#utility.yul\":11392:11405   */\n      lt\n        /* \"#utility.yul\":11384:11497   */\n      iszero\n      tag_354\n      jumpi\n        /* \"#utility.yul\":11474:11485   */\n      dup2\n      dup2\n      add\n        /* \"#utility.yul\":11468:11486   */\n      mload\n        /* \"#utility.yul\":11455:11466   */\n      dup4\n      dup3\n      add\n        /* \"#utility.yul\":11448:11487   */\n      mstore\n        /* \"#utility.yul\":11420:11422   */\n      0x20\n        /* \"#utility.yul\":11413:11423   */\n      add\n        /* \"#utility.yul\":11384:11497   */\n      jump(tag_352)\n    tag_354:\n      pop\n      pop\n        /* \"#utility.yul\":11531:11532   */\n      0x00\n        /* \"#utility.yul\":11513:11529   */\n      swap2\n      add\n        /* \"#utility.yul\":11506:11533   */\n      mstore\n        /* \"#utility.yul\":11289:11539   */\n      jump\t// out\n        /* \"#utility.yul\":11544:11831   */\n    tag_262:\n        /* \"#utility.yul\":11673:11676   */\n      0x00\n        /* \"#utility.yul\":11711:11717   */\n      dup3\n        /* \"#utility.yul\":11705:11718   */\n      mload\n        /* \"#utility.yul\":11727:11793   */\n      tag_356\n        /* \"#utility.yul\":11786:11792   */\n      dup2\n        /* \"#utility.yul\":11781:11784   */\n      dup5\n        /* \"#utility.yul\":11774:11778   */\n      0x20\n        /* \"#utility.yul\":11766:11772   */\n      dup8\n        /* \"#utility.yul\":11762:11779   */\n      add\n        /* \"#utility.yul\":11727:11793   */\n      tag_285\n      jump\t// in\n    tag_356:\n        /* \"#utility.yul\":11809:11825   */\n      swap2\n      swap1\n      swap2\n      add\n      swap3\n        /* \"#utility.yul\":11544:11831   */\n      swap2\n      pop\n      pop\n      jump\t// out\n        /* \"#utility.yul\":12194:12590   */\n    tag_282:\n        /* \"#utility.yul\":12343:12345   */\n      0x20\n        /* \"#utility.yul\":12332:12341   */\n      dup2\n        /* \"#utility.yul\":12325:12346   */\n      mstore\n        /* \"#utility.yul\":12306:12310   */\n      0x00\n        /* \"#utility.yul\":12375:12381   */\n      dup3\n        /* \"#utility.yul\":12369:12382   */\n      mload\n        /* \"#utility.yul\":12418:12424   */\n      dup1\n        /* \"#utility.yul\":12413:12415   */\n      0x20\n        /* \"#utility.yul\":12402:12411   */\n      dup5\n        /* \"#utility.yul\":12398:12416   */\n      add\n        /* \"#utility.yul\":12391:12425   */\n      mstore\n        /* \"#utility.yul\":12434:12513   */\n      tag_359\n        /* \"#utility.yul\":12506:12512   */\n      dup2\n        /* \"#utility.yul\":12501:12503   */\n      0x40\n        /* \"#utility.yul\":12490:12499   */\n      dup6\n        /* \"#utility.yul\":12486:12504   */\n      add\n        /* \"#utility.yul\":12481:12483   */\n      0x20\n        /* \"#utility.yul\":12473:12479   */\n      dup8\n        /* \"#utility.yul\":12469:12484   */\n      add\n        /* \"#utility.yul\":12434:12513   */\n      tag_285\n      jump\t// in\n    tag_359:\n        /* \"#utility.yul\":12574:12576   */\n      0x1f\n        /* \"#utility.yul\":12553:12568   */\n      add\n      not(0x1f)\n        /* \"#utility.yul\":12549:12578   */\n      and\n        /* \"#utility.yul\":12534:12579   */\n      swap2\n      swap1\n      swap2\n      add\n        /* \"#utility.yul\":12581:12583   */\n      0x40\n        /* \"#utility.yul\":12530:12584   */\n      add\n      swap3\n        /* \"#utility.yul\":12194:12590   */\n      swap2\n      pop\n      pop\n      jump\t// out\n    stop\n    data_75b20eef8615de99c108b05f0dbda081c91897128caa336d75dffb97c4132b4d 360894a13ba1a3210667c828492db98dca3e2076cc3735a920a3ca505d382bbc\n    data_9fdcd12e4b726339b32a442b0a448365d5d85c96b2d2cff917b4f66c63110398 416464726573733a206c6f772d6c6576656c2064656c65676174652063616c6c206661696c6564\n\n    auxdata: 0xa26469706673582212204ea10d00488f9c2d717c3cab80bf3f11b089ec38d845a36043674bc45e4c2cd864736f6c63430008110033\n}\n",
				"bytecode": {
					"linkReferences": {},
					"object": "60a06040523060805234801561001457600080fd5b5061001d610022565b6100e1565b600054610100900460ff161561008e5760405162461bcd60e51b815260206004820152602760248201527f496e697469616c697a61626c653a20636f6e747261637420697320696e697469604482015266616c697a696e6760c81b606482015260840160405180910390fd5b60005460ff908116146100df576000805460ff191660ff9081179091556040519081527f7f26b83ff96e1f2b6a682f133852f6798a09c465da95921460cefb38474024989060200160405180910390a15b565b608051611445610118600039600081816102cf01528181610318015281816104f00152818161053001526105c301526114456000f3fe6080604052600436106100a65760003560e01c80634f1ef286116100645780634f1ef2861461019d57806352d1902d146101b057806374574eb7146101d3578063ce091c8614610207578063f29ee1251461023b578063fdb9df551461027b57600080fd5b8062077393146100ab5780632ae9c600146100e85780633659cfe61461010a5780634162169f1461012c57806344162ef81461014a578063485cc9551461017d575b600080fd5b3480156100b757600080fd5b5060fb546100cb906001600160a01b031681565b6040516001600160a01b0390911681526020015b60405180910390f35b3480156100f457600080fd5b506100fd61029b565b6040516100df9190610f51565b34801561011657600080fd5b5061012a610125366004610f9a565b6102c5565b005b34801561013857600080fd5b506097546001600160a01b03166100cb565b34801561015657600080fd5b5060c9546101649060e01b81565b6040516001600160e01b031990911681526020016100df565b34801561018957600080fd5b5061012a610198366004610fb7565b6103ad565b61012a6101ab366004611006565b6104e6565b3480156101bc57600080fd5b506101c56105b6565b6040519081526020016100df565b3480156101df57600080fd5b506101c57f60b96ff9fb5f29153c29c1747515b8be4ee523d686cc6f453ec294b0afa7293281565b34801561021357600080fd5b506101c57f055973dfb6d3b3cd890dde3a801f5427fa973864752b6d2a1ae61cbd5ae5dc0981565b34801561024757600080fd5b5061026b610256366004610f9a565b60ca6020526000908152604090205460ff1681565b60405190151581526020016100df565b34801561028757600080fd5b5061012a6102963660046110ca565b610669565b6102a3610f33565b5060408051606081018252600181526004602082015260009181019190915290565b6001600160a01b037f00000000000000000000000000000000000000000000000000000000000000001630036103165760405162461bcd60e51b815260040161030d9061114d565b60405180910390fd5b7f00000000000000000000000000000000000000000000000000000000000000006001600160a01b031661035f6000805160206113c9833981519152546001600160a01b031690565b6001600160a01b0316146103855760405162461bcd60e51b815260040161030d90611199565b61038e816107ba565b604080516000808252602082019092526103aa918391906107f3565b50565b600054610100900460ff16158080156103cd5750600054600160ff909116105b806103e75750303b1580156103e7575060005460ff166001145b61044a5760405162461bcd60e51b815260206004820152602e60248201527f496e697469616c697a61626c653a20636f6e747261637420697320616c72656160448201526d191e481a5b9a5d1a585b1a5e995960921b606482015260840161030d565b6000805460ff19166001179055801561046d576000805461ff0019166101001790555b630350c86d60e61b61047f848261095e565b5060fb80546001600160a01b0319166001600160a01b03841617905580156104e1576000805461ff0019169055604051600181527f7f26b83ff96e1f2b6a682f133852f6798a09c465da95921460cefb38474024989060200160405180910390a15b505050565b6001600160a01b037f000000000000000000000000000000000000000000000000000000000000000016300361052e5760405162461bcd60e51b815260040161030d9061114d565b7f00000000000000000000000000000000000000000000000000000000000000006001600160a01b03166105776000805160206113c9833981519152546001600160a01b031690565b6001600160a01b03161461059d5760405162461bcd60e51b815260040161030d90611199565b6105a6826107ba565b6105b2828260016107f3565b5050565b6000306001600160a01b037f000000000000000000000000000000000000000000000000000000000000000016146106565760405162461bcd60e51b815260206004820152603860248201527f555550535570677261646561626c653a206d757374206e6f742062652063616c60448201527f6c6564207468726f7567682064656c656761746563616c6c0000000000000000606482015260840161030d565b506000805160206113c983398151915290565b6097547f055973dfb6d3b3cd890dde3a801f5427fa973864752b6d2a1ae61cbd5ae5dc09906106a7906001600160a01b031630335b846000366109a8565b826106c55760405163eb59207760e01b815260040160405180910390fd5b6106cf8484610a64565b6106f0578383604051635b7dee8360e01b815260040161030d92919061120e565b60008484604051610702929190611222565b60405190819003812060fb546389bb414560e01b8352600483018290526001600160a01b03868116602485015291935016906389bb414590604401600060405180830381600087803b15801561075757600080fd5b505af115801561076b573d6000803e3d6000fd5b5050505061077883610b11565b7f8cc06643d6cbee78b006d2df2db4d2487b69dd64bb2c96088280fb29dd93a0b28585856040516107ab93929190611232565b60405180910390a15050505050565b6097547f60b96ff9fb5f29153c29c1747515b8be4ee523d686cc6f453ec294b0afa72932906105b2906001600160a01b0316303361069e565b7f4910fdfa16fed3260ed0e7147f7cc6da11a60208b5b9406d12a635614ffd91435460ff1615610826576104e183610bbc565b826001600160a01b03166352d1902d6040518163ffffffff1660e01b8152600401602060405180830381865afa925050508015610880575060408051601f3d908101601f1916820190925261087d9181019061125e565b60015b6108e35760405162461bcd60e51b815260206004820152602e60248201527f45524331393637557067726164653a206e657720696d706c656d656e7461746960448201526d6f6e206973206e6f74205555505360901b606482015260840161030d565b6000805160206113c983398151915281146109525760405162461bcd60e51b815260206004820152602960248201527f45524331393637557067726164653a20756e737570706f727465642070726f786044820152681a58589b195555525160ba1b606482015260840161030d565b506104e1838383610c58565b600054610100900460ff166109855760405162461bcd60e51b815260040161030d90611277565b61098e82610c83565b60c9805463ffffffff191660e09290921c91909117905550565b604051637ef7c88360e11b81526001600160a01b0387169063fdef9106906109dc90889088908890889088906004016112c2565b602060405180830381865afa1580156109f9573d6000803e3d6000fd5b505050506040513d601f19601f82011682018060405250810190610a1d91906112f6565b610a5c57604051630cb6f8ed60e21b81526001600160a01b0380881660048301528087166024830152851660448201526064810184905260840161030d565b505050505050565b6000828280835b81811015610b02576000848483818110610a8757610a87611318565b919091013560f81c915050606081118015610aa55750607b8160ff16105b15610ab05750610af0565b602f8160ff16118015610ac65750603a8160ff16105b15610ad15750610af0565b8060ff16602d03610ae25750610af0565b600095505050505050610b0b565b80610afa8161132e565b915050610a6b565b50600193505050505b92915050565b6001600160a01b038116600090815260ca602052604090205460ff1615610b565760405163fdcce17f60e01b81526001600160a01b038216600482015260240161030d565b60c954610b70906001600160a01b0383169060e01b610ccc565b610b98576040516338811e4560e11b81526001600160a01b038216600482015260240161030d565b6001600160a01b0316600090815260ca60205260409020805460ff19166001179055565b6001600160a01b0381163b610c295760405162461bcd60e51b815260206004820152602d60248201527f455243313936373a206e657720696d706c656d656e746174696f6e206973206e60448201526c1bdd08184818dbdb9d1c9858dd609a1b606482015260840161030d565b6000805160206113c983398151915280546001600160a01b0319166001600160a01b0392909216919091179055565b610c6183610cef565b600082511180610c6e5750805b156104e157610c7d8383610d2f565b50505050565b600054610100900460ff16610caa5760405162461bcd60e51b815260040161030d90611277565b609780546001600160a01b0319166001600160a01b0392909216919091179055565b6000610cd783610d54565b8015610ce85750610ce88383610d87565b9392505050565b610cf881610bbc565b6040516001600160a01b038216907fbc7cd75a20ee27fd9adebab32041f755214dbc6bffa90cc0225b39da2e5c2d3b90600090a250565b6060610ce883836040518060600160405280602781526020016113e960279139610e10565b6000610d67826301ffc9a760e01b610d87565b8015610b0b5750610d80826001600160e01b0319610d87565b1592915050565b604080516001600160e01b03198316602480830191909152825180830390910181526044909101909152602080820180516001600160e01b03166301ffc9a760e01b178152825160009392849283928392918391908a617530fa92503d91506000519050828015610df9575060208210155b8015610e055750600081115b979650505050505050565b6060600080856001600160a01b031685604051610e2d9190611379565b600060405180830381855af49150503d8060008114610e68576040519150601f19603f3d011682016040523d82523d6000602084013e610e6d565b606091505b5091509150610e7e86838387610e88565b9695505050505050565b60608315610ef7578251600003610ef0576001600160a01b0385163b610ef05760405162461bcd60e51b815260206004820152601d60248201527f416464726573733a2063616c6c20746f206e6f6e2d636f6e7472616374000000604482015260640161030d565b5081610f01565b610f018383610f09565b949350505050565b815115610f195781518083602001fd5b8060405162461bcd60e51b815260040161030d9190611395565b60405180606001604052806003906020820280368337509192915050565b60608101818360005b6003811015610f7c57815160ff16835260209283019290910190600101610f5a565b50505092915050565b6001600160a01b03811681146103aa57600080fd5b600060208284031215610fac57600080fd5b8135610ce881610f85565b60008060408385031215610fca57600080fd5b8235610fd581610f85565b91506020830135610fe581610f85565b809150509250929050565b634e487b7160e01b600052604160045260246000fd5b6000806040838503121561101957600080fd5b823561102481610f85565b9150602083013567ffffffffffffffff8082111561104157600080fd5b818501915085601f83011261105557600080fd5b81358181111561106757611067610ff0565b604051601f8201601f19908116603f0116810190838211818310171561108f5761108f610ff0565b816040528281528860208487010111156110a857600080fd5b8260208601602083013760006020848301015280955050505050509250929050565b6000806000604084860312156110df57600080fd5b833567ffffffffffffffff808211156110f757600080fd5b818601915086601f83011261110b57600080fd5b81358181111561111a57600080fd5b87602082850101111561112c57600080fd5b6020928301955093505084013561114281610f85565b809150509250925092565b6020808252602c908201527f46756e6374696f6e206d7573742062652063616c6c6564207468726f7567682060408201526b19195b1959d85d1958d85b1b60a21b606082015260800190565b6020808252602c908201527f46756e6374696f6e206d7573742062652063616c6c6564207468726f7567682060408201526b6163746976652070726f787960a01b606082015260800190565b81835281816020850137506000828201602090810191909152601f909101601f19169091010190565b602081526000610f016020830184866111e5565b8183823760009101908152919050565b6040815260006112466040830185876111e5565b905060018060a01b0383166020830152949350505050565b60006020828403121561127057600080fd5b5051919050565b6020808252602b908201527f496e697469616c697a61626c653a20636f6e7472616374206973206e6f74206960408201526a6e697469616c697a696e6760a81b606082015260800190565b6001600160a01b0386811682528516602082015260408101849052608060608201819052600090610e0590830184866111e5565b60006020828403121561130857600080fd5b81518015158114610ce857600080fd5b634e487b7160e01b600052603260045260246000fd5b60006001820161134e57634e487b7160e01b600052601160045260246000fd5b5060010190565b60005b83811015611370578181015183820152602001611358565b50506000910152565b6000825161138b818460208701611355565b9190910192915050565b60208152600082518060208401526113b4816040850160208701611355565b601f01601f1916919091016040019291505056fe360894a13ba1a3210667c828492db98dca3e2076cc3735a920a3ca505d382bbc416464726573733a206c6f772d6c6576656c2064656c65676174652063616c6c206661696c6564a26469706673582212204ea10d00488f9c2d717c3cab80bf3f11b089ec38d845a36043674bc45e4c2cd864736f6c63430008110033",
					"opcodes": "PUSH1 0xA0 PUSH1 0x40 MSTORE ADDRESS PUSH1 0x80 MSTORE CALLVALUE DUP1 ISZERO PUSH2 0x14 JUMPI PUSH1 0x0 DUP1 REVERT JUMPDEST POP PUSH2 0x1D PUSH2 0x22 JUMP JUMPDEST PUSH2 0xE1 JUMP JUMPDEST PUSH1 0x0 SLOAD PUSH2 0x100 SWAP1 DIV PUSH1 0xFF AND ISZERO PUSH2 0x8E JUMPI PUSH1 0x40 MLOAD PUSH3 0x461BCD PUSH1 0xE5 SHL DUP2 MSTORE PUSH1 0x20 PUSH1 0x4 DUP3 ADD MSTORE PUSH1 0x27 PUSH1 0x24 DUP3 ADD MSTORE PUSH32 0x496E697469616C697A61626C653A20636F6E747261637420697320696E697469 PUSH1 0x44 DUP3 ADD MSTORE PUSH7 0x616C697A696E67 PUSH1 0xC8 SHL PUSH1 0x64 DUP3 ADD MSTORE PUSH1 0x84 ADD PUSH1 0x40 MLOAD DUP1 SWAP2 SUB SWAP1 REVERT JUMPDEST PUSH1 0x0 SLOAD PUSH1 0xFF SWAP1 DUP2 AND EQ PUSH2 0xDF JUMPI PUSH1 0x0 DUP1 SLOAD PUSH1 0xFF NOT AND PUSH1 0xFF SWAP1 DUP2 OR SWAP1 SWAP2 SSTORE PUSH1 0x40 MLOAD SWAP1 DUP2 MSTORE PUSH32 0x7F26B83FF96E1F2B6A682F133852F6798A09C465DA95921460CEFB3847402498 SWAP1 PUSH1 0x20 ADD PUSH1 0x40 MLOAD DUP1 SWAP2 SUB SWAP1 LOG1 JUMPDEST JUMP JUMPDEST PUSH1 0x80 MLOAD PUSH2 0x1445 PUSH2 0x118 PUSH1 0x0 CODECOPY PUSH1 0x0 DUP2 DUP2 PUSH2 0x2CF ADD MSTORE DUP2 DUP2 PUSH2 0x318 ADD MSTORE DUP2 DUP2 PUSH2 0x4F0 ADD MSTORE DUP2 DUP2 PUSH2 0x530 ADD MSTORE PUSH2 0x5C3 ADD MSTORE PUSH2 0x1445 PUSH1 0x0 RETURN INVALID PUSH1 0x80 PUSH1 0x40 MSTORE PUSH1 0x4 CALLDATASIZE LT PUSH2 0xA6 JUMPI PUSH1 0x0 CALLDATALOAD PUSH1 0xE0 SHR DUP1 PUSH4 0x4F1EF286 GT PUSH2 0x64 JUMPI DUP1 PUSH4 0x4F1EF286 EQ PUSH2 0x19D JUMPI DUP1 PUSH4 0x52D1902D EQ PUSH2 0x1B0 JUMPI DUP1 PUSH4 0x74574EB7 EQ PUSH2 0x1D3 JUMPI DUP1 PUSH4 0xCE091C86 EQ PUSH2 0x207 JUMPI DUP1 PUSH4 0xF29EE125 EQ PUSH2 0x23B JUMPI DUP1 PUSH4 0xFDB9DF55 EQ PUSH2 0x27B JUMPI PUSH1 0x0 DUP1 REVERT JUMPDEST DUP1 PUSH3 0x77393 EQ PUSH2 0xAB JUMPI DUP1 PUSH4 0x2AE9C600 EQ PUSH2 0xE8 JUMPI DUP1 PUSH4 0x3659CFE6 EQ PUSH2 0x10A JUMPI DUP1 PUSH4 0x4162169F EQ PUSH2 0x12C JUMPI DUP1 PUSH4 0x44162EF8 EQ PUSH2 0x14A JUMPI DUP1 PUSH4 0x485CC955 EQ PUSH2 0x17D JUMPI JUMPDEST PUSH1 0x0 DUP1 REVERT JUMPDEST CALLVALUE DUP1 ISZERO PUSH2 0xB7 JUMPI PUSH1 0x0 DUP1 REVERT JUMPDEST POP PUSH1 0xFB SLOAD PUSH2 0xCB SWAP1 PUSH1 0x1 PUSH1 0x1 PUSH1 0xA0 SHL SUB AND DUP2 JUMP JUMPDEST PUSH1 0x40 MLOAD PUSH1 0x1 PUSH1 0x1 PUSH1 0xA0 SHL SUB SWAP1 SWAP2 AND DUP2 MSTORE PUSH1 0x20 ADD JUMPDEST PUSH1 0x40 MLOAD DUP1 SWAP2 SUB SWAP1 RETURN JUMPDEST CALLVALUE DUP1 ISZERO PUSH2 0xF4 JUMPI PUSH1 0x0 DUP1 REVERT JUMPDEST POP PUSH2 0xFD PUSH2 0x29B JUMP JUMPDEST PUSH1 0x40 MLOAD PUSH2 0xDF SWAP2 SWAP1 PUSH2 0xF51 JUMP JUMPDEST CALLVALUE DUP1 ISZERO PUSH2 0x116 JUMPI PUSH1 0x0 DUP1 REVERT JUMPDEST POP PUSH2 0x12A PUSH2 0x125 CALLDATASIZE PUSH1 0x4 PUSH2 0xF9A JUMP JUMPDEST PUSH2 0x2C5 JUMP JUMPDEST STOP JUMPDEST CALLVALUE DUP1 ISZERO PUSH2 0x138 JUMPI PUSH1 0x0 DUP1 REVERT JUMPDEST POP PUSH1 0x97 SLOAD PUSH1 0x1 PUSH1 0x1 PUSH1 0xA0 SHL SUB AND PUSH2 0xCB JUMP JUMPDEST CALLVALUE DUP1 ISZERO PUSH2 0x156 JUMPI PUSH1 0x0 DUP1 REVERT JUMPDEST POP PUSH1 0xC9 SLOAD PUSH2 0x164 SWAP1 PUSH1 0xE0 SHL DUP2 JUMP JUMPDEST PUSH1 0x40 MLOAD PUSH1 0x1 PUSH1 0x1 PUSH1 0xE0 SHL SUB NOT SWAP1 SWAP2 AND DUP2 MSTORE PUSH1 0x20 ADD PUSH2 0xDF JUMP JUMPDEST CALLVALUE DUP1 ISZERO PUSH2 0x189 JUMPI PUSH1 0x0 DUP1 REVERT JUMPDEST POP PUSH2 0x12A PUSH2 0x198 CALLDATASIZE PUSH1 0x4 PUSH2 0xFB7 JUMP JUMPDEST PUSH2 0x3AD JUMP JUMPDEST PUSH2 0x12A PUSH2 0x1AB CALLDATASIZE PUSH1 0x4 PUSH2 0x1006 JUMP JUMPDEST PUSH2 0x4E6 JUMP JUMPDEST CALLVALUE DUP1 ISZERO PUSH2 0x1BC JUMPI PUSH1 0x0 DUP1 REVERT JUMPDEST POP PUSH2 0x1C5 PUSH2 0x5B6 JUMP JUMPDEST PUSH1 0x40 MLOAD SWAP1 DUP2 MSTORE PUSH1 0x20 ADD PUSH2 0xDF JUMP JUMPDEST CALLVALUE DUP1 ISZERO PUSH2 0x1DF JUMPI PUSH1 0x0 DUP1 REVERT JUMPDEST POP PUSH2 0x1C5 PUSH32 0x60B96FF9FB5F29153C29C1747515B8BE4EE523D686CC6F453EC294B0AFA72932 DUP2 JUMP JUMPDEST CALLVALUE DUP1 ISZERO PUSH2 0x213 JUMPI PUSH1 0x0 DUP1 REVERT JUMPDEST POP PUSH2 0x1C5 PUSH32 0x55973DFB6D3B3CD890DDE3A801F5427FA973864752B6D2A1AE61CBD5AE5DC09 DUP2 JUMP JUMPDEST CALLVALUE DUP1 ISZERO PUSH2 0x247 JUMPI PUSH1 0x0 DUP1 REVERT JUMPDEST POP PUSH2 0x26B PUSH2 0x256 CALLDATASIZE PUSH1 0x4 PUSH2 0xF9A JUMP JUMPDEST PUSH1 0xCA PUSH1 0x20 MSTORE PUSH1 0x0 SWAP1 DUP2 MSTORE PUSH1 0x40 SWAP1 KECCAK256 SLOAD PUSH1 0xFF AND DUP2 JUMP JUMPDEST PUSH1 0x40 MLOAD SWAP1 ISZERO ISZERO DUP2 MSTORE PUSH1 0x20 ADD PUSH2 0xDF JUMP JUMPDEST CALLVALUE DUP1 ISZERO PUSH2 0x287 JUMPI PUSH1 0x0 DUP1 REVERT JUMPDEST POP PUSH2 0x12A PUSH2 0x296 CALLDATASIZE PUSH1 0x4 PUSH2 0x10CA JUMP JUMPDEST PUSH2 0x669 JUMP JUMPDEST PUSH2 0x2A3 PUSH2 0xF33 JUMP JUMPDEST POP PUSH1 0x40 DUP1 MLOAD PUSH1 0x60 DUP2 ADD DUP3 MSTORE PUSH1 0x1 DUP2 MSTORE PUSH1 0x4 PUSH1 0x20 DUP3 ADD MSTORE PUSH1 0x0 SWAP2 DUP2 ADD SWAP2 SWAP1 SWAP2 MSTORE SWAP1 JUMP JUMPDEST PUSH1 0x1 PUSH1 0x1 PUSH1 0xA0 SHL SUB PUSH32 0x0 AND ADDRESS SUB PUSH2 0x316 JUMPI PUSH1 0x40 MLOAD PUSH3 0x461BCD PUSH1 0xE5 SHL DUP2 MSTORE PUSH1 0x4 ADD PUSH2 0x30D SWAP1 PUSH2 0x114D JUMP JUMPDEST PUSH1 0x40 MLOAD DUP1 SWAP2 SUB SWAP1 REVERT JUMPDEST PUSH32 0x0 PUSH1 0x1 PUSH1 0x1 PUSH1 0xA0 SHL SUB AND PUSH2 0x35F PUSH1 0x0 DUP1 MLOAD PUSH1 0x20 PUSH2 0x13C9 DUP4 CODECOPY DUP2 MLOAD SWAP2 MSTORE SLOAD PUSH1 0x1 PUSH1 0x1 PUSH1 0xA0 SHL SUB AND SWAP1 JUMP JUMPDEST PUSH1 0x1 PUSH1 0x1 PUSH1 0xA0 SHL SUB AND EQ PUSH2 0x385 JUMPI PUSH1 0x40 MLOAD PUSH3 0x461BCD PUSH1 0xE5 SHL DUP2 MSTORE PUSH1 0x4 ADD PUSH2 0x30D SWAP1 PUSH2 0x1199 JUMP JUMPDEST PUSH2 0x38E DUP2 PUSH2 0x7BA JUMP JUMPDEST PUSH1 0x40 DUP1 MLOAD PUSH1 0x0 DUP1 DUP3 MSTORE PUSH1 0x20 DUP3 ADD SWAP1 SWAP3 MSTORE PUSH2 0x3AA SWAP2 DUP4 SWAP2 SWAP1 PUSH2 0x7F3 JUMP JUMPDEST POP JUMP JUMPDEST PUSH1 0x0 SLOAD PUSH2 0x100 SWAP1 DIV PUSH1 0xFF AND ISZERO DUP1 DUP1 ISZERO PUSH2 0x3CD JUMPI POP PUSH1 0x0 SLOAD PUSH1 0x1 PUSH1 0xFF SWAP1 SWAP2 AND LT JUMPDEST DUP1 PUSH2 0x3E7 JUMPI POP ADDRESS EXTCODESIZE ISZERO DUP1 ISZERO PUSH2 0x3E7 JUMPI POP PUSH1 0x0 SLOAD PUSH1 0xFF AND PUSH1 0x1 EQ JUMPDEST PUSH2 0x44A JUMPI PUSH1 0x40 MLOAD PUSH3 0x461BCD PUSH1 0xE5 SHL DUP2 MSTORE PUSH1 0x20 PUSH1 0x4 DUP3 ADD MSTORE PUSH1 0x2E PUSH1 0x24 DUP3 ADD MSTORE PUSH32 0x496E697469616C697A61626C653A20636F6E747261637420697320616C726561 PUSH1 0x44 DUP3 ADD MSTORE PUSH14 0x191E481A5B9A5D1A585B1A5E9959 PUSH1 0x92 SHL PUSH1 0x64 DUP3 ADD MSTORE PUSH1 0x84 ADD PUSH2 0x30D JUMP JUMPDEST PUSH1 0x0 DUP1 SLOAD PUSH1 0xFF NOT AND PUSH1 0x1 OR SWAP1 SSTORE DUP1 ISZERO PUSH2 0x46D JUMPI PUSH1 0x0 DUP1 SLOAD PUSH2 0xFF00 NOT AND PUSH2 0x100 OR SWAP1 SSTORE JUMPDEST PUSH4 0x350C86D PUSH1 0xE6 SHL PUSH2 0x47F DUP5 DUP3 PUSH2 0x95E JUMP JUMPDEST POP PUSH1 0xFB DUP1 SLOAD PUSH1 0x1 PUSH1 0x1 PUSH1 0xA0 SHL SUB NOT AND PUSH1 0x1 PUSH1 0x1 PUSH1 0xA0 SHL SUB DUP5 AND OR SWAP1 SSTORE DUP1 ISZERO PUSH2 0x4E1 JUMPI PUSH1 0x0 DUP1 SLOAD PUSH2 0xFF00 NOT AND SWAP1 SSTORE PUSH1 0x40 MLOAD PUSH1 0x1 DUP2 MSTORE PUSH32 0x7F26B83FF96E1F2B6A682F133852F6798A09C465DA95921460CEFB3847402498 SWAP1 PUSH1 0x20 ADD PUSH1 0x40 MLOAD DUP1 SWAP2 SUB SWAP1 LOG1 JUMPDEST POP POP POP JUMP JUMPDEST PUSH1 0x1 PUSH1 0x1 PUSH1 0xA0 SHL SUB PUSH32 0x0 AND ADDRESS SUB PUSH2 0x52E JUMPI PUSH1 0x40 MLOAD PUSH3 0x461BCD PUSH1 0xE5 SHL DUP2 MSTORE PUSH1 0x4 ADD PUSH2 0x30D SWAP1 PUSH2 0x114D JUMP JUMPDEST PUSH32 0x0 PUSH1 0x1 PUSH1 0x1 PUSH1 0xA0 SHL SUB AND PUSH2 0x577 PUSH1 0x0 DUP1 MLOAD PUSH1 0x20 PUSH2 0x13C9 DUP4 CODECOPY DUP2 MLOAD SWAP2 MSTORE SLOAD PUSH1 0x1 PUSH1 0x1 PUSH1 0xA0 SHL SUB AND SWAP1 JUMP JUMPDEST PUSH1 0x1 PUSH1 0x1 PUSH1 0xA0 SHL SUB AND EQ PUSH2 0x59D JUMPI PUSH1 0x40 MLOAD PUSH3 0x461BCD PUSH1 0xE5 SHL DUP2 MSTORE PUSH1 0x4 ADD PUSH2 0x30D SWAP1 PUSH2 0x1199 JUMP JUMPDEST PUSH2 0x5A6 DUP3 PUSH2 0x7BA JUMP JUMPDEST PUSH2 0x5B2 DUP3 DUP3 PUSH1 0x1 PUSH2 0x7F3 JUMP JUMPDEST POP POP JUMP JUMPDEST PUSH1 0x0 ADDRESS PUSH1 0x1 PUSH1 0x1 PUSH1 0xA0 SHL SUB PUSH32 0x0 AND EQ PUSH2 0x656 JUMPI PUSH1 0x40 MLOAD PUSH3 0x461BCD PUSH1 0xE5 SHL DUP2 MSTORE PUSH1 0x20 PUSH1 0x4 DUP3 ADD MSTORE PUSH1 0x38 PUSH1 0x24 DUP3 ADD MSTORE PUSH32 0x555550535570677261646561626C653A206D757374206E6F742062652063616C PUSH1 0x44 DUP3 ADD MSTORE PUSH32 0x6C6564207468726F7567682064656C656761746563616C6C0000000000000000 PUSH1 0x64 DUP3 ADD MSTORE PUSH1 0x84 ADD PUSH2 0x30D JUMP JUMPDEST POP PUSH1 0x0 DUP1 MLOAD PUSH1 0x20 PUSH2 0x13C9 DUP4 CODECOPY DUP2 MLOAD SWAP2 MSTORE SWAP1 JUMP JUMPDEST PUSH1 0x97 SLOAD PUSH32 0x55973DFB6D3B3CD890DDE3A801F5427FA973864752B6D2A1AE61CBD5AE5DC09 SWAP1 PUSH2 0x6A7 SWAP1 PUSH1 0x1 PUSH1 0x1 PUSH1 0xA0 SHL SUB AND ADDRESS CALLER JUMPDEST DUP5 PUSH1 0x0 CALLDATASIZE PUSH2 0x9A8 JUMP JUMPDEST DUP3 PUSH2 0x6C5 JUMPI PUSH1 0x40 MLOAD PUSH4 0xEB592077 PUSH1 0xE0 SHL DUP2 MSTORE PUSH1 0x4 ADD PUSH1 0x40 MLOAD DUP1 SWAP2 SUB SWAP1 REVERT JUMPDEST PUSH2 0x6CF DUP5 DUP5 PUSH2 0xA64 JUMP JUMPDEST PUSH2 0x6F0 JUMPI DUP4 DUP4 PUSH1 0x40 MLOAD PUSH4 0x5B7DEE83 PUSH1 0xE0 SHL DUP2 MSTORE PUSH1 0x4 ADD PUSH2 0x30D SWAP3 SWAP2 SWAP1 PUSH2 0x120E JUMP JUMPDEST PUSH1 0x0 DUP5 DUP5 PUSH1 0x40 MLOAD PUSH2 0x702 SWAP3 SWAP2 SWAP1 PUSH2 0x1222 JUMP JUMPDEST PUSH1 0x40 MLOAD SWAP1 DUP2 SWAP1 SUB DUP2 KECCAK256 PUSH1 0xFB SLOAD PUSH4 0x89BB4145 PUSH1 0xE0 SHL DUP4 MSTORE PUSH1 0x4 DUP4 ADD DUP3 SWAP1 MSTORE PUSH1 0x1 PUSH1 0x1 PUSH1 0xA0 SHL SUB DUP7 DUP2 AND PUSH1 0x24 DUP6 ADD MSTORE SWAP2 SWAP4 POP AND SWAP1 PUSH4 0x89BB4145 SWAP1 PUSH1 0x44 ADD PUSH1 0x0 PUSH1 0x40 MLOAD DUP1 DUP4 SUB DUP2 PUSH1 0x0 DUP8 DUP1 EXTCODESIZE ISZERO DUP1 ISZERO PUSH2 0x757 JUMPI PUSH1 0x0 DUP1 REVERT JUMPDEST POP GAS CALL ISZERO DUP1 ISZERO PUSH2 0x76B JUMPI RETURNDATASIZE PUSH1 0x0 DUP1 RETURNDATACOPY RETURNDATASIZE PUSH1 0x0 REVERT JUMPDEST POP POP POP POP PUSH2 0x778 DUP4 PUSH2 0xB11 JUMP JUMPDEST PUSH32 0x8CC06643D6CBEE78B006D2DF2DB4D2487B69DD64BB2C96088280FB29DD93A0B2 DUP6 DUP6 DUP6 PUSH1 0x40 MLOAD PUSH2 0x7AB SWAP4 SWAP3 SWAP2 SWAP1 PUSH2 0x1232 JUMP JUMPDEST PUSH1 0x40 MLOAD DUP1 SWAP2 SUB SWAP1 LOG1 POP POP POP POP POP JUMP JUMPDEST PUSH1 0x97 SLOAD PUSH32 0x60B96FF9FB5F29153C29C1747515B8BE4EE523D686CC6F453EC294B0AFA72932 SWAP1 PUSH2 0x5B2 SWAP1 PUSH1 0x1 PUSH1 0x1 PUSH1 0xA0 SHL SUB AND ADDRESS CALLER PUSH2 0x69E JUMP JUMPDEST PUSH32 0x4910FDFA16FED3260ED0E7147F7CC6DA11A60208B5B9406D12A635614FFD9143 SLOAD PUSH1 0xFF AND ISZERO PUSH2 0x826 JUMPI PUSH2 0x4E1 DUP4 PUSH2 0xBBC JUMP JUMPDEST DUP3 PUSH1 0x1 PUSH1 0x1 PUSH1 0xA0 SHL SUB AND PUSH4 0x52D1902D PUSH1 0x40 MLOAD DUP2 PUSH4 0xFFFFFFFF AND PUSH1 0xE0 SHL DUP2 MSTORE PUSH1 0x4 ADD PUSH1 0x20 PUSH1 0x40 MLOAD DUP1 DUP4 SUB DUP2 DUP7 GAS STATICCALL SWAP3 POP POP POP DUP1 ISZERO PUSH2 0x880 JUMPI POP PUSH1 0x40 DUP1 MLOAD PUSH1 0x1F RETURNDATASIZE SWAP1 DUP2 ADD PUSH1 0x1F NOT AND DUP3 ADD SWAP1 SWAP3 MSTORE PUSH2 0x87D SWAP2 DUP2 ADD SWAP1 PUSH2 0x125E JUMP JUMPDEST PUSH1 0x1 JUMPDEST PUSH2 0x8E3 JUMPI PUSH1 0x40 MLOAD PUSH3 0x461BCD PUSH1 0xE5 SHL DUP2 MSTORE PUSH1 0x20 PUSH1 0x4 DUP3 ADD MSTORE PUSH1 0x2E PUSH1 0x24 DUP3 ADD MSTORE PUSH32 0x45524331393637557067726164653A206E657720696D706C656D656E74617469 PUSH1 0x44 DUP3 ADD MSTORE PUSH14 0x6F6E206973206E6F742055555053 PUSH1 0x90 SHL PUSH1 0x64 DUP3 ADD MSTORE PUSH1 0x84 ADD PUSH2 0x30D JUMP JUMPDEST PUSH1 0x0 DUP1 MLOAD PUSH1 0x20 PUSH2 0x13C9 DUP4 CODECOPY DUP2 MLOAD SWAP2 MSTORE DUP2 EQ PUSH2 0x952 JUMPI PUSH1 0x40 MLOAD PUSH3 0x461BCD PUSH1 0xE5 SHL DUP2 MSTORE PUSH1 0x20 PUSH1 0x4 DUP3 ADD MSTORE PUSH1 0x29 PUSH1 0x24 DUP3 ADD MSTORE PUSH32 0x45524331393637557067726164653A20756E737570706F727465642070726F78 PUSH1 0x44 DUP3 ADD MSTORE PUSH9 0x1A58589B1955555251 PUSH1 0xBA SHL PUSH1 0x64 DUP3 ADD MSTORE PUSH1 0x84 ADD PUSH2 0x30D JUMP JUMPDEST POP PUSH2 0x4E1 DUP4 DUP4 DUP4 PUSH2 0xC58 JUMP JUMPDEST PUSH1 0x0 SLOAD PUSH2 0x100 SWAP1 DIV PUSH1 0xFF AND PUSH2 0x985 JUMPI PUSH1 0x40 MLOAD PUSH3 0x461BCD PUSH1 0xE5 SHL DUP2 MSTORE PUSH1 0x4 ADD PUSH2 0x30D SWAP1 PUSH2 0x1277 JUMP JUMPDEST PUSH2 0x98E DUP3 PUSH2 0xC83 JUMP JUMPDEST PUSH1 0xC9 DUP1 SLOAD PUSH4 0xFFFFFFFF NOT AND PUSH1 0xE0 SWAP3 SWAP1 SWAP3 SHR SWAP2 SWAP1 SWAP2 OR SWAP1 SSTORE POP JUMP JUMPDEST PUSH1 0x40 MLOAD PUSH4 0x7EF7C883 PUSH1 0xE1 SHL DUP2 MSTORE PUSH1 0x1 PUSH1 0x1 PUSH1 0xA0 SHL SUB DUP8 AND SWAP1 PUSH4 0xFDEF9106 SWAP1 PUSH2 0x9DC SWAP1 DUP9 SWAP1 DUP9 SWAP1 DUP9 SWAP1 DUP9 SWAP1 DUP9 SWAP1 PUSH1 0x4 ADD PUSH2 0x12C2 JUMP JUMPDEST PUSH1 0x20 PUSH1 0x40 MLOAD DUP1 DUP4 SUB DUP2 DUP7 GAS STATICCALL ISZERO DUP1 ISZERO PUSH2 0x9F9 JUMPI RETURNDATASIZE PUSH1 0x0 DUP1 RETURNDATACOPY RETURNDATASIZE PUSH1 0x0 REVERT JUMPDEST POP POP POP POP PUSH1 0x40 MLOAD RETURNDATASIZE PUSH1 0x1F NOT PUSH1 0x1F DUP3 ADD AND DUP3 ADD DUP1 PUSH1 0x40 MSTORE POP DUP2 ADD SWAP1 PUSH2 0xA1D SWAP2 SWAP1 PUSH2 0x12F6 JUMP JUMPDEST PUSH2 0xA5C JUMPI PUSH1 0x40 MLOAD PUSH4 0xCB6F8ED PUSH1 0xE2 SHL DUP2 MSTORE PUSH1 0x1 PUSH1 0x1 PUSH1 0xA0 SHL SUB DUP1 DUP9 AND PUSH1 0x4 DUP4 ADD MSTORE DUP1 DUP8 AND PUSH1 0x24 DUP4 ADD MSTORE DUP6 AND PUSH1 0x44 DUP3 ADD MSTORE PUSH1 0x64 DUP2 ADD DUP5 SWAP1 MSTORE PUSH1 0x84 ADD PUSH2 0x30D JUMP JUMPDEST POP POP POP POP POP POP JUMP JUMPDEST PUSH1 0x0 DUP3 DUP3 DUP1 DUP4 JUMPDEST DUP2 DUP2 LT ISZERO PUSH2 0xB02 JUMPI PUSH1 0x0 DUP5 DUP5 DUP4 DUP2 DUP2 LT PUSH2 0xA87 JUMPI PUSH2 0xA87 PUSH2 0x1318 JUMP JUMPDEST SWAP2 SWAP1 SWAP2 ADD CALLDATALOAD PUSH1 0xF8 SHR SWAP2 POP POP PUSH1 0x60 DUP2 GT DUP1 ISZERO PUSH2 0xAA5 JUMPI POP PUSH1 0x7B DUP2 PUSH1 0xFF AND LT JUMPDEST ISZERO PUSH2 0xAB0 JUMPI POP PUSH2 0xAF0 JUMP JUMPDEST PUSH1 0x2F DUP2 PUSH1 0xFF AND GT DUP1 ISZERO PUSH2 0xAC6 JUMPI POP PUSH1 0x3A DUP2 PUSH1 0xFF AND LT JUMPDEST ISZERO PUSH2 0xAD1 JUMPI POP PUSH2 0xAF0 JUMP JUMPDEST DUP1 PUSH1 0xFF AND PUSH1 0x2D SUB PUSH2 0xAE2 JUMPI POP PUSH2 0xAF0 JUMP JUMPDEST PUSH1 0x0 SWAP6 POP POP POP POP POP POP PUSH2 0xB0B JUMP JUMPDEST DUP1 PUSH2 0xAFA DUP2 PUSH2 0x132E JUMP JUMPDEST SWAP2 POP POP PUSH2 0xA6B JUMP JUMPDEST POP PUSH1 0x1 SWAP4 POP POP POP POP JUMPDEST SWAP3 SWAP2 POP POP JUMP JUMPDEST PUSH1 0x1 PUSH1 0x1 PUSH1 0xA0 SHL SUB DUP2 AND PUSH1 0x0 SWAP1 DUP2 MSTORE PUSH1 0xCA PUSH1 0x20 MSTORE PUSH1 0x40 SWAP1 KECCAK256 SLOAD PUSH1 0xFF AND ISZERO PUSH2 0xB56 JUMPI PUSH1 0x40 MLOAD PUSH4 0xFDCCE17F PUSH1 0xE0 SHL DUP2 MSTORE PUSH1 0x1 PUSH1 0x1 PUSH1 0xA0 SHL SUB DUP3 AND PUSH1 0x4 DUP3 ADD MSTORE PUSH1 0x24 ADD PUSH2 0x30D JUMP JUMPDEST PUSH1 0xC9 SLOAD PUSH2 0xB70 SWAP1 PUSH1 0x1 PUSH1 0x1 PUSH1 0xA0 SHL SUB DUP4 AND SWAP1 PUSH1 0xE0 SHL PUSH2 0xCCC JUMP JUMPDEST PUSH2 0xB98 JUMPI PUSH1 0x40 MLOAD PUSH4 0x38811E45 PUSH1 0xE1 SHL DUP2 MSTORE PUSH1 0x1 PUSH1 0x1 PUSH1 0xA0 SHL SUB DUP3 AND PUSH1 0x4 DUP3 ADD MSTORE PUSH1 0x24 ADD PUSH2 0x30D JUMP JUMPDEST PUSH1 0x1 PUSH1 0x1 PUSH1 0xA0 SHL SUB AND PUSH1 0x0 SWAP1 DUP2 MSTORE PUSH1 0xCA PUSH1 0x20 MSTORE PUSH1 0x40 SWAP1 KECCAK256 DUP1 SLOAD PUSH1 0xFF NOT AND PUSH1 0x1 OR SWAP1 SSTORE JUMP JUMPDEST PUSH1 0x1 PUSH1 0x1 PUSH1 0xA0 SHL SUB DUP2 AND EXTCODESIZE PUSH2 0xC29 JUMPI PUSH1 0x40 MLOAD PUSH3 0x461BCD PUSH1 0xE5 SHL DUP2 MSTORE PUSH1 0x20 PUSH1 0x4 DUP3 ADD MSTORE PUSH1 0x2D PUSH1 0x24 DUP3 ADD MSTORE PUSH32 0x455243313936373A206E657720696D706C656D656E746174696F6E206973206E PUSH1 0x44 DUP3 ADD MSTORE PUSH13 0x1BDD08184818DBDB9D1C9858DD PUSH1 0x9A SHL PUSH1 0x64 DUP3 ADD MSTORE PUSH1 0x84 ADD PUSH2 0x30D JUMP JUMPDEST PUSH1 0x0 DUP1 MLOAD PUSH1 0x20 PUSH2 0x13C9 DUP4 CODECOPY DUP2 MLOAD SWAP2 MSTORE DUP1 SLOAD PUSH1 0x1 PUSH1 0x1 PUSH1 0xA0 SHL SUB NOT AND PUSH1 0x1 PUSH1 0x1 PUSH1 0xA0 SHL SUB SWAP3 SWAP1 SWAP3 AND SWAP2 SWAP1 SWAP2 OR SWAP1 SSTORE JUMP JUMPDEST PUSH2 0xC61 DUP4 PUSH2 0xCEF JUMP JUMPDEST PUSH1 0x0 DUP3 MLOAD GT DUP1 PUSH2 0xC6E JUMPI POP DUP1 JUMPDEST ISZERO PUSH2 0x4E1 JUMPI PUSH2 0xC7D DUP4 DUP4 PUSH2 0xD2F JUMP JUMPDEST POP POP POP POP JUMP JUMPDEST PUSH1 0x0 SLOAD PUSH2 0x100 SWAP1 DIV PUSH1 0xFF AND PUSH2 0xCAA JUMPI PUSH1 0x40 MLOAD PUSH3 0x461BCD PUSH1 0xE5 SHL DUP2 MSTORE PUSH1 0x4 ADD PUSH2 0x30D SWAP1 PUSH2 0x1277 JUMP JUMPDEST PUSH1 0x97 DUP1 SLOAD PUSH1 0x1 PUSH1 0x1 PUSH1 0xA0 SHL SUB NOT AND PUSH1 0x1 PUSH1 0x1 PUSH1 0xA0 SHL SUB SWAP3 SWAP1 SWAP3 AND SWAP2 SWAP1 SWAP2 OR SWAP1 SSTORE JUMP JUMPDEST PUSH1 0x0 PUSH2 0xCD7 DUP4 PUSH2 0xD54 JUMP JUMPDEST DUP1 ISZERO PUSH2 0xCE8 JUMPI POP PUSH2 0xCE8 DUP4 DUP4 PUSH2 0xD87 JUMP JUMPDEST SWAP4 SWAP3 POP POP POP JUMP JUMPDEST PUSH2 0xCF8 DUP2 PUSH2 0xBBC JUMP JUMPDEST PUSH1 0x40 MLOAD PUSH1 0x1 PUSH1 0x1 PUSH1 0xA0 SHL SUB DUP3 AND SWAP1 PUSH32 0xBC7CD75A20EE27FD9ADEBAB32041F755214DBC6BFFA90CC0225B39DA2E5C2D3B SWAP1 PUSH1 0x0 SWAP1 LOG2 POP JUMP JUMPDEST PUSH1 0x60 PUSH2 0xCE8 DUP4 DUP4 PUSH1 0x40 MLOAD DUP1 PUSH1 0x60 ADD PUSH1 0x40 MSTORE DUP1 PUSH1 0x27 DUP2 MSTORE PUSH1 0x20 ADD PUSH2 0x13E9 PUSH1 0x27 SWAP2 CODECOPY PUSH2 0xE10 JUMP JUMPDEST PUSH1 0x0 PUSH2 0xD67 DUP3 PUSH4 0x1FFC9A7 PUSH1 0xE0 SHL PUSH2 0xD87 JUMP JUMPDEST DUP1 ISZERO PUSH2 0xB0B JUMPI POP PUSH2 0xD80 DUP3 PUSH1 0x1 PUSH1 0x1 PUSH1 0xE0 SHL SUB NOT PUSH2 0xD87 JUMP JUMPDEST ISZERO SWAP3 SWAP2 POP POP JUMP JUMPDEST PUSH1 0x40 DUP1 MLOAD PUSH1 0x1 PUSH1 0x1 PUSH1 0xE0 SHL SUB NOT DUP4 AND PUSH1 0x24 DUP1 DUP4 ADD SWAP2 SWAP1 SWAP2 MSTORE DUP3 MLOAD DUP1 DUP4 SUB SWAP1 SWAP2 ADD DUP2 MSTORE PUSH1 0x44 SWAP1 SWAP2 ADD SWAP1 SWAP2 MSTORE PUSH1 0x20 DUP1 DUP3 ADD DUP1 MLOAD PUSH1 0x1 PUSH1 0x1 PUSH1 0xE0 SHL SUB AND PUSH4 0x1FFC9A7 PUSH1 0xE0 SHL OR DUP2 MSTORE DUP3 MLOAD PUSH1 0x0 SWAP4 SWAP3 DUP5 SWAP3 DUP4 SWAP3 DUP4 SWAP3 SWAP2 DUP4 SWAP2 SWAP1 DUP11 PUSH2 0x7530 STATICCALL SWAP3 POP RETURNDATASIZE SWAP2 POP PUSH1 0x0 MLOAD SWAP1 POP DUP3 DUP1 ISZERO PUSH2 0xDF9 JUMPI POP PUSH1 0x20 DUP3 LT ISZERO JUMPDEST DUP1 ISZERO PUSH2 0xE05 JUMPI POP PUSH1 0x0 DUP2 GT JUMPDEST SWAP8 SWAP7 POP POP POP POP POP POP POP JUMP JUMPDEST PUSH1 0x60 PUSH1 0x0 DUP1 DUP6 PUSH1 0x1 PUSH1 0x1 PUSH1 0xA0 SHL SUB AND DUP6 PUSH1 0x40 MLOAD PUSH2 0xE2D SWAP2 SWAP1 PUSH2 0x1379 JUMP JUMPDEST PUSH1 0x0 PUSH1 0x40 MLOAD DUP1 DUP4 SUB DUP2 DUP6 GAS DELEGATECALL SWAP2 POP POP RETURNDATASIZE DUP1 PUSH1 0x0 DUP2 EQ PUSH2 0xE68 JUMPI PUSH1 0x40 MLOAD SWAP2 POP PUSH1 0x1F NOT PUSH1 0x3F RETURNDATASIZE ADD AND DUP3 ADD PUSH1 0x40 MSTORE RETURNDATASIZE DUP3 MSTORE RETURNDATASIZE PUSH1 0x0 PUSH1 0x20 DUP5 ADD RETURNDATACOPY PUSH2 0xE6D JUMP JUMPDEST PUSH1 0x60 SWAP2 POP JUMPDEST POP SWAP2 POP SWAP2 POP PUSH2 0xE7E DUP7 DUP4 DUP4 DUP8 PUSH2 0xE88 JUMP JUMPDEST SWAP7 SWAP6 POP POP POP POP POP POP JUMP JUMPDEST PUSH1 0x60 DUP4 ISZERO PUSH2 0xEF7 JUMPI DUP3 MLOAD PUSH1 0x0 SUB PUSH2 0xEF0 JUMPI PUSH1 0x1 PUSH1 0x1 PUSH1 0xA0 SHL SUB DUP6 AND EXTCODESIZE PUSH2 0xEF0 JUMPI PUSH1 0x40 MLOAD PUSH3 0x461BCD PUSH1 0xE5 SHL DUP2 MSTORE PUSH1 0x20 PUSH1 0x4 DUP3 ADD MSTORE PUSH1 0x1D PUSH1 0x24 DUP3 ADD MSTORE PUSH32 0x416464726573733A2063616C6C20746F206E6F6E2D636F6E7472616374000000 PUSH1 0x44 DUP3 ADD MSTORE PUSH1 0x64 ADD PUSH2 0x30D JUMP JUMPDEST POP DUP2 PUSH2 0xF01 JUMP JUMPDEST PUSH2 0xF01 DUP4 DUP4 PUSH2 0xF09 JUMP JUMPDEST SWAP5 SWAP4 POP POP POP POP JUMP JUMPDEST DUP2 MLOAD ISZERO PUSH2 0xF19 JUMPI DUP2 MLOAD DUP1 DUP4 PUSH1 0x20 ADD REVERT JUMPDEST DUP1 PUSH1 0x40 MLOAD PUSH3 0x461BCD PUSH1 0xE5 SHL DUP2 MSTORE PUSH1 0x4 ADD PUSH2 0x30D SWAP2 SWAP1 PUSH2 0x1395 JUMP JUMPDEST PUSH1 0x40 MLOAD DUP1 PUSH1 0x60 ADD PUSH1 0x40 MSTORE DUP1 PUSH1 0x3 SWAP1 PUSH1 0x20 DUP3 MUL DUP1 CALLDATASIZE DUP4 CALLDATACOPY POP SWAP2 SWAP3 SWAP2 POP POP JUMP JUMPDEST PUSH1 0x60 DUP2 ADD DUP2 DUP4 PUSH1 0x0 JUMPDEST PUSH1 0x3 DUP2 LT ISZERO PUSH2 0xF7C JUMPI DUP2 MLOAD PUSH1 0xFF AND DUP4 MSTORE PUSH1 0x20 SWAP3 DUP4 ADD SWAP3 SWAP1 SWAP2 ADD SWAP1 PUSH1 0x1 ADD PUSH2 0xF5A JUMP JUMPDEST POP POP POP SWAP3 SWAP2 POP POP JUMP JUMPDEST PUSH1 0x1 PUSH1 0x1 PUSH1 0xA0 SHL SUB DUP2 AND DUP2 EQ PUSH2 0x3AA JUMPI PUSH1 0x0 DUP1 REVERT JUMPDEST PUSH1 0x0 PUSH1 0x20 DUP3 DUP5 SUB SLT ISZERO PUSH2 0xFAC JUMPI PUSH1 0x0 DUP1 REVERT JUMPDEST DUP2 CALLDATALOAD PUSH2 0xCE8 DUP2 PUSH2 0xF85 JUMP JUMPDEST PUSH1 0x0 DUP1 PUSH1 0x40 DUP4 DUP6 SUB SLT ISZERO PUSH2 0xFCA JUMPI PUSH1 0x0 DUP1 REVERT JUMPDEST DUP3 CALLDATALOAD PUSH2 0xFD5 DUP2 PUSH2 0xF85 JUMP JUMPDEST SWAP2 POP PUSH1 0x20 DUP4 ADD CALLDATALOAD PUSH2 0xFE5 DUP2 PUSH2 0xF85 JUMP JUMPDEST DUP1 SWAP2 POP POP SWAP3 POP SWAP3 SWAP1 POP JUMP JUMPDEST PUSH4 0x4E487B71 PUSH1 0xE0 SHL PUSH1 0x0 MSTORE PUSH1 0x41 PUSH1 0x4 MSTORE PUSH1 0x24 PUSH1 0x0 REVERT JUMPDEST PUSH1 0x0 DUP1 PUSH1 0x40 DUP4 DUP6 SUB SLT ISZERO PUSH2 0x1019 JUMPI PUSH1 0x0 DUP1 REVERT JUMPDEST DUP3 CALLDATALOAD PUSH2 0x1024 DUP2 PUSH2 0xF85 JUMP JUMPDEST SWAP2 POP PUSH1 0x20 DUP4 ADD CALLDATALOAD PUSH8 0xFFFFFFFFFFFFFFFF DUP1 DUP3 GT ISZERO PUSH2 0x1041 JUMPI PUSH1 0x0 DUP1 REVERT JUMPDEST DUP2 DUP6 ADD SWAP2 POP DUP6 PUSH1 0x1F DUP4 ADD SLT PUSH2 0x1055 JUMPI PUSH1 0x0 DUP1 REVERT JUMPDEST DUP2 CALLDATALOAD DUP2 DUP2 GT ISZERO PUSH2 0x1067 JUMPI PUSH2 0x1067 PUSH2 0xFF0 JUMP JUMPDEST PUSH1 0x40 MLOAD PUSH1 0x1F DUP3 ADD PUSH1 0x1F NOT SWAP1 DUP2 AND PUSH1 0x3F ADD AND DUP2 ADD SWAP1 DUP4 DUP3 GT DUP2 DUP4 LT OR ISZERO PUSH2 0x108F JUMPI PUSH2 0x108F PUSH2 0xFF0 JUMP JUMPDEST DUP2 PUSH1 0x40 MSTORE DUP3 DUP2 MSTORE DUP9 PUSH1 0x20 DUP5 DUP8 ADD ADD GT ISZERO PUSH2 0x10A8 JUMPI PUSH1 0x0 DUP1 REVERT JUMPDEST DUP3 PUSH1 0x20 DUP7 ADD PUSH1 0x20 DUP4 ADD CALLDATACOPY PUSH1 0x0 PUSH1 0x20 DUP5 DUP4 ADD ADD MSTORE DUP1 SWAP6 POP POP POP POP POP POP SWAP3 POP SWAP3 SWAP1 POP JUMP JUMPDEST PUSH1 0x0 DUP1 PUSH1 0x0 PUSH1 0x40 DUP5 DUP7 SUB SLT ISZERO PUSH2 0x10DF JUMPI PUSH1 0x0 DUP1 REVERT JUMPDEST DUP4 CALLDATALOAD PUSH8 0xFFFFFFFFFFFFFFFF DUP1 DUP3 GT ISZERO PUSH2 0x10F7 JUMPI PUSH1 0x0 DUP1 REVERT JUMPDEST DUP2 DUP7 ADD SWAP2 POP DUP7 PUSH1 0x1F DUP4 ADD SLT PUSH2 0x110B JUMPI PUSH1 0x0 DUP1 REVERT JUMPDEST DUP2 CALLDATALOAD DUP2 DUP2 GT ISZERO PUSH2 0x111A JUMPI PUSH1 0x0 DUP1 REVERT JUMPDEST DUP8 PUSH1 0x20 DUP3 DUP6 ADD ADD GT ISZERO PUSH2 0x112C JUMPI PUSH1 0x0 DUP1 REVERT JUMPDEST PUSH1 0x20 SWAP3 DUP4 ADD SWAP6 POP SWAP4 POP POP DUP5 ADD CALLDATALOAD PUSH2 0x1142 DUP2 PUSH2 0xF85 JUMP JUMPDEST DUP1 SWAP2 POP POP SWAP3 POP SWAP3 POP SWAP3 JUMP JUMPDEST PUSH1 0x20 DUP1 DUP3 MSTORE PUSH1 0x2C SWAP1 DUP3 ADD MSTORE PUSH32 0x46756E6374696F6E206D7573742062652063616C6C6564207468726F75676820 PUSH1 0x40 DUP3 ADD MSTORE PUSH12 0x19195B1959D85D1958D85B1B PUSH1 0xA2 SHL PUSH1 0x60 DUP3 ADD MSTORE PUSH1 0x80 ADD SWAP1 JUMP JUMPDEST PUSH1 0x20 DUP1 DUP3 MSTORE PUSH1 0x2C SWAP1 DUP3 ADD MSTORE PUSH32 0x46756E6374696F6E206D7573742062652063616C6C6564207468726F75676820 PUSH1 0x40 DUP3 ADD MSTORE PUSH12 0x6163746976652070726F7879 PUSH1 0xA0 SHL PUSH1 0x60 DUP3 ADD MSTORE PUSH1 0x80 ADD SWAP1 JUMP JUMPDEST DUP2 DUP4 MSTORE DUP2 DUP2 PUSH1 0x20 DUP6 ADD CALLDATACOPY POP PUSH1 0x0 DUP3 DUP3 ADD PUSH1 0x20 SWAP1 DUP2 ADD SWAP2 SWAP1 SWAP2 MSTORE PUSH1 0x1F SWAP1 SWAP2 ADD PUSH1 0x1F NOT AND SWAP1 SWAP2 ADD ADD SWAP1 JUMP JUMPDEST PUSH1 0x20 DUP2 MSTORE PUSH1 0x0 PUSH2 0xF01 PUSH1 0x20 DUP4 ADD DUP5 DUP7 PUSH2 0x11E5 JUMP JUMPDEST DUP2 DUP4 DUP3 CALLDATACOPY PUSH1 0x0 SWAP2 ADD SWAP1 DUP2 MSTORE SWAP2 SWAP1 POP JUMP JUMPDEST PUSH1 0x40 DUP2 MSTORE PUSH1 0x0 PUSH2 0x1246 PUSH1 0x40 DUP4 ADD DUP6 DUP8 PUSH2 0x11E5 JUMP JUMPDEST SWAP1 POP PUSH1 0x1 DUP1 PUSH1 0xA0 SHL SUB DUP4 AND PUSH1 0x20 DUP4 ADD MSTORE SWAP5 SWAP4 POP POP POP POP JUMP JUMPDEST PUSH1 0x0 PUSH1 0x20 DUP3 DUP5 SUB SLT ISZERO PUSH2 0x1270 JUMPI PUSH1 0x0 DUP1 REVERT JUMPDEST POP MLOAD SWAP2 SWAP1 POP JUMP JUMPDEST PUSH1 0x20 DUP1 DUP3 MSTORE PUSH1 0x2B SWAP1 DUP3 ADD MSTORE PUSH32 0x496E697469616C697A61626C653A20636F6E7472616374206973206E6F742069 PUSH1 0x40 DUP3 ADD MSTORE PUSH11 0x6E697469616C697A696E67 PUSH1 0xA8 SHL PUSH1 0x60 DUP3 ADD MSTORE PUSH1 0x80 ADD SWAP1 JUMP JUMPDEST PUSH1 0x1 PUSH1 0x1 PUSH1 0xA0 SHL SUB DUP7 DUP2 AND DUP3 MSTORE DUP6 AND PUSH1 0x20 DUP3 ADD MSTORE PUSH1 0x40 DUP2 ADD DUP5 SWAP1 MSTORE PUSH1 0x80 PUSH1 0x60 DUP3 ADD DUP2 SWAP1 MSTORE PUSH1 0x0 SWAP1 PUSH2 0xE05 SWAP1 DUP4 ADD DUP5 DUP7 PUSH2 0x11E5 JUMP JUMPDEST PUSH1 0x0 PUSH1 0x20 DUP3 DUP5 SUB SLT ISZERO PUSH2 0x1308 JUMPI PUSH1 0x0 DUP1 REVERT JUMPDEST DUP2 MLOAD DUP1 ISZERO ISZERO DUP2 EQ PUSH2 0xCE8 JUMPI PUSH1 0x0 DUP1 REVERT JUMPDEST PUSH4 0x4E487B71 PUSH1 0xE0 SHL PUSH1 0x0 MSTORE PUSH1 0x32 PUSH1 0x4 MSTORE PUSH1 0x24 PUSH1 0x0 REVERT JUMPDEST PUSH1 0x0 PUSH1 0x1 DUP3 ADD PUSH2 0x134E JUMPI PUSH4 0x4E487B71 PUSH1 0xE0 SHL PUSH1 0x0 MSTORE PUSH1 0x11 PUSH1 0x4 MSTORE PUSH1 0x24 PUSH1 0x0 REVERT JUMPDEST POP PUSH1 0x1 ADD SWAP1 JUMP JUMPDEST PUSH1 0x0 JUMPDEST DUP4 DUP2 LT ISZERO PUSH2 0x1370 JUMPI DUP2 DUP2 ADD MLOAD DUP4 DUP3 ADD MSTORE PUSH1 0x20 ADD PUSH2 0x1358 JUMP JUMPDEST POP POP PUSH1 0x0 SWAP2 ADD MSTORE JUMP JUMPDEST PUSH1 0x0 DUP3 MLOAD PUSH2 0x138B DUP2 DUP5 PUSH1 0x20 DUP8 ADD PUSH2 0x1355 JUMP JUMPDEST SWAP2 SWAP1 SWAP2 ADD SWAP3 SWAP2 POP POP JUMP JUMPDEST PUSH1 0x20 DUP2 MSTORE PUSH1 0x0 DUP3 MLOAD DUP1 PUSH1 0x20 DUP5 ADD MSTORE PUSH2 0x13B4 DUP2 PUSH1 0x40 DUP6 ADD PUSH1 0x20 DUP8 ADD PUSH2 0x1355 JUMP JUMPDEST PUSH1 0x1F ADD PUSH1 0x1F NOT AND SWAP2 SWAP1 SWAP2 ADD PUSH1 0x40 ADD SWAP3 SWAP2 POP POP JUMP INVALID CALLDATASIZE ADDMOD SWAP5 LOG1 EXTCODESIZE LOG1 LOG3 0x21 MOD PUSH8 0xC828492DB98DCA3E KECCAK256 PUSH23 0xCC3735A920A3CA505D382BBC416464726573733A206C6F PUSH24 0x2D6C6576656C2064656C65676174652063616C6C20666169 PUSH13 0x6564A26469706673582212204E LOG1 0xD STOP BASEFEE DUP16 SWAP13 0x2D PUSH18 0x7C3CAB80BF3F11B089EC38D845A36043674B 0xC4 0x5E 0x4C 0x2C 0xD8 PUSH5 0x736F6C6343 STOP ADDMOD GT STOP CALLER "
				},
				"gasEstimates": {
					"creation": {
						"codeDepositCost": "1037800",
						"executionCost": "infinite",
						"totalCost": "infinite"
					},
					"external": {
						"REGISTER_PLUGIN_REPO_PERMISSION_ID()": "261",
						"UPGRADE_REGISTRY_PERMISSION_ID()": "239",
						"dao()": "2387",
						"entries(address)": "2613",
						"initialize(address,address)": "infinite",
						"protocolVersion()": "infinite",
						"proxiableUUID()": "infinite",
						"registerPluginRepo(string,address)": "infinite",
						"subdomainRegistrar()": "2327",
						"targetInterfaceId()": "2417",
						"upgradeTo(address)": "infinite",
						"upgradeToAndCall(address,bytes)": "infinite"
					}
				},
				"methodIdentifiers": {
					"REGISTER_PLUGIN_REPO_PERMISSION_ID()": "ce091c86",
					"UPGRADE_REGISTRY_PERMISSION_ID()": "74574eb7",
					"dao()": "4162169f",
					"entries(address)": "f29ee125",
					"initialize(address,address)": "485cc955",
					"protocolVersion()": "2ae9c600",
					"proxiableUUID()": "52d1902d",
					"registerPluginRepo(string,address)": "fdb9df55",
					"subdomainRegistrar()": "00077393",
					"targetInterfaceId()": "44162ef8",
					"upgradeTo(address)": "3659cfe6",
					"upgradeToAndCall(address,bytes)": "4f1ef286"
				}
			},
			"storageLayout": {
				"storage": [
					{
						"astId": 520,
						"contract": "packages/contracts/src/framework/plugin/repo/PluginRepoRegistry.sol:PluginRepoRegistry",
						"label": "_initialized",
						"offset": 0,
						"slot": "0",
						"type": "t_uint8"
					},
					{
						"astId": 523,
						"contract": "packages/contracts/src/framework/plugin/repo/PluginRepoRegistry.sol:PluginRepoRegistry",
						"label": "_initializing",
						"offset": 1,
						"slot": "0",
						"type": "t_bool"
					},
					{
						"astId": 502,
						"contract": "packages/contracts/src/framework/plugin/repo/PluginRepoRegistry.sol:PluginRepoRegistry",
						"label": "__gap",
						"offset": 0,
						"slot": "1",
						"type": "t_array(t_uint256)50_storage"
					},
					{
						"astId": 817,
						"contract": "packages/contracts/src/framework/plugin/repo/PluginRepoRegistry.sol:PluginRepoRegistry",
						"label": "__gap",
						"offset": 0,
						"slot": "51",
						"type": "t_array(t_uint256)50_storage"
					},
					{
						"astId": 1189,
						"contract": "packages/contracts/src/framework/plugin/repo/PluginRepoRegistry.sol:PluginRepoRegistry",
						"label": "__gap",
						"offset": 0,
						"slot": "101",
						"type": "t_array(t_uint256)50_storage"
					},
					{
						"astId": 2995,
						"contract": "packages/contracts/src/framework/plugin/repo/PluginRepoRegistry.sol:PluginRepoRegistry",
						"label": "dao_",
						"offset": 0,
						"slot": "151",
						"type": "t_contract(IDAO)2980"
					},
					{
						"astId": 3044,
						"contract": "packages/contracts/src/framework/plugin/repo/PluginRepoRegistry.sol:PluginRepoRegistry",
						"label": "__gap",
						"offset": 0,
						"slot": "152",
						"type": "t_array(t_uint256)49_storage"
					},
					{
						"astId": 3294,
						"contract": "packages/contracts/src/framework/plugin/repo/PluginRepoRegistry.sol:PluginRepoRegistry",
						"label": "targetInterfaceId",
						"offset": 0,
						"slot": "201",
						"type": "t_bytes4"
					},
					{
						"astId": 3299,
						"contract": "packages/contracts/src/framework/plugin/repo/PluginRepoRegistry.sol:PluginRepoRegistry",
						"label": "entries",
						"offset": 0,
						"slot": "202",
						"type": "t_mapping(t_address,t_bool)"
					},
					{
						"astId": 3383,
						"contract": "packages/contracts/src/framework/plugin/repo/PluginRepoRegistry.sol:PluginRepoRegistry",
						"label": "__gap",
						"offset": 0,
						"slot": "203",
						"type": "t_array(t_uint256)48_storage"
					},
					{
						"astId": 3148,
						"contract": "packages/contracts/src/framework/plugin/repo/PluginRepoRegistry.sol:PluginRepoRegistry",
						"label": "subdomainRegistrar",
						"offset": 0,
						"slot": "251",
						"type": "t_contract(ENSSubdomainRegistrar)3683"
					},
					{
						"astId": 3266,
						"contract": "packages/contracts/src/framework/plugin/repo/PluginRepoRegistry.sol:PluginRepoRegistry",
						"label": "__gap",
						"offset": 0,
						"slot": "252",
						"type": "t_array(t_uint256)49_storage"
					}
				],
				"types": {
					"t_address": {
						"encoding": "inplace",
						"label": "address",
						"numberOfBytes": "20"
					},
					"t_array(t_uint256)48_storage": {
						"base": "t_uint256",
						"encoding": "inplace",
						"label": "uint256[48]",
						"numberOfBytes": "1536"
					},
					"t_array(t_uint256)49_storage": {
						"base": "t_uint256",
						"encoding": "inplace",
						"label": "uint256[49]",
						"numberOfBytes": "1568"
					},
					"t_array(t_uint256)50_storage": {
						"base": "t_uint256",
						"encoding": "inplace",
						"label": "uint256[50]",
						"numberOfBytes": "1600"
					},
					"t_bool": {
						"encoding": "inplace",
						"label": "bool",
						"numberOfBytes": "1"
					},
					"t_bytes4": {
						"encoding": "inplace",
						"label": "bytes4",
						"numberOfBytes": "4"
					},
					"t_contract(ENSSubdomainRegistrar)3683": {
						"encoding": "inplace",
						"label": "contract ENSSubdomainRegistrar",
						"numberOfBytes": "20"
					},
					"t_contract(IDAO)2980": {
						"encoding": "inplace",
						"label": "contract IDAO",
						"numberOfBytes": "20"
					},
					"t_mapping(t_address,t_bool)": {
						"encoding": "mapping",
						"key": "t_address",
						"label": "mapping(address => bool)",
						"numberOfBytes": "32",
						"value": "t_bool"
					},
					"t_uint256": {
						"encoding": "inplace",
						"label": "uint256",
						"numberOfBytes": "32"
					},
					"t_uint8": {
						"encoding": "inplace",
						"label": "uint8",
						"numberOfBytes": "1"
					}
				}
			},
			"userdoc": {
				"errors": {
					"ContractAlreadyRegistered(address)": [
						{
							"notice": "Thrown if the contract is already registered."
						}
					],
					"ContractERC165SupportInvalid(address)": [
						{
							"notice": "Thrown if the contract does not support ERC165."
						}
					],
					"ContractInterfaceInvalid(address)": [
						{
							"notice": "Thrown if the contract does not support the required interface."
						}
					],
					"DaoUnauthorized(address,address,address,bytes32)": [
						{
							"notice": "Thrown if a call is unauthorized in the associated DAO."
						}
					],
					"EmptyPluginRepoSubdomain()": [
						{
							"notice": "Thrown if the plugin repository subdomain is empty."
						}
					],
					"InvalidPluginSubdomain(string)": [
						{
							"notice": "Thrown if the plugin subdomain doesn't match the regex `[0-9a-z\\-]`"
						}
					]
				},
				"events": {
					"PluginRepoRegistered(string,address)": {
						"notice": "Emitted if a new plugin repository is registered."
					}
				},
				"kind": "user",
				"methods": {
					"REGISTER_PLUGIN_REPO_PERMISSION_ID()": {
						"notice": "The ID of the permission required to call the `register` function."
					},
					"UPGRADE_REGISTRY_PERMISSION_ID()": {
						"notice": "The ID of the permission required to call the `_authorizeUpgrade` function."
					},
					"dao()": {
						"notice": "Returns the DAO contract."
					},
					"entries(address)": {
						"notice": "The mapping containing the registry entries returning true for registered contract addresses."
					},
					"initialize(address,address)": {
						"notice": "Initializes the contract by setting calling the `InterfaceBasedRegistry` base class initialize method."
					},
					"protocolVersion()": {
						"notice": "Returns the semantic Aragon OSx protocol version number that the implementing contract is associated with."
					},
					"registerPluginRepo(string,address)": {
						"notice": "Registers a plugin repository with a subdomain and address."
					},
					"subdomainRegistrar()": {
						"notice": "The ENS subdomain registrar registering the PluginRepo subdomains."
					},
					"targetInterfaceId()": {
						"notice": "The [ERC-165](https://eips.ethereum.org/EIPS/eip-165) interface ID that the target contracts being registered must support."
					}
				},
				"notice": "This contract maintains an address-based registry of plugin repositories in the Aragon App DAO framework.",
				"version": 1
			}
		}
	}
}