{
	"data": {
		"bytecode": {
			"linkReferences": {},
			"object": "60806040523480156200001157600080fd5b5060405162002d5238038062002d5283398101604081905262000034916200005a565b600180546001600160a01b0319166001600160a01b03929092169190911790556200008c565b6000602082840312156200006d57600080fd5b81516001600160a01b03811681146200008557600080fd5b9392505050565b612cb6806200009c6000396000f3fe608060405234801561001057600080fd5b50600436106100cf5760003560e01c8063851d11f81161008c578063d759812211610066578063d759812214610209578063fafc79da1461022a578063fbdc1ef11461023d578063fe6c34741461027957600080fd5b8063851d11f8146101a85780639665861a146101bb578063ca211f7f146101e257600080fd5b806322e12c63146100d45780632ae9c600146100e95780632fb04336146101075780633c8c01d114610127578063483d209e14610148578063747e5ec114610173575b600080fd5b6100e76100e2366004611b93565b61028c565b005b6100f16106ae565b6040516100fe9190611be9565b60405180910390f35b61011a610115366004611c35565b6106d8565b6040516100fe9190611d3a565b61013a610135366004611c35565b6109d6565b6040516100fe929190611de0565b60015461015b906001600160a01b031681565b6040516001600160a01b0390911681526020016100fe565b61019a7ff796b89427c6552c1ac705d833bfb7909f8eb5ce502c1db97f85fabc6ad8354881565b6040519081526020016100fe565b6100e76101b6366004611e0c565b610ccc565b61019a7fb03cf3d518f6d49560b7f5bece1ccb8fd50ea7370f02f5e5210edba04be3c4f781565b61019a7fbd4dbacf5ba6d9793f600403b3293d6ecd695fcc703a2b5edcf245f45fda6cfa81565b61021c610217366004611e69565b610e89565b6040516100fe929190611efe565b6100e7610238366004611f2c565b611496565b61026461024b366004611f4e565b6000602081905290815260409020805460019091015482565b604080519283526020830191909152016100fe565b6100e7610287366004611e69565b6114db565b817fb03cf3d518f6d49560b7f5bece1ccb8fd50ea7370f02f5e5210edba04be3c4f76102b88282611704565b60006102d0856102cb6020870187611f67565b6117d1565b60008181526020818152604082209293506103ac906102f790368990038901908901612091565b61035d61030760a08a018a6120d5565b808060200260200160405190810160405280939291908181526020016000905b828210156103535761034460a0830286013681900381019061212a565b81526020019060010190610327565b5050505050611814565b60c089013561036f60808b018b6121ba565b8080601f01602080910402602001604051908101604052809392919081815260200183838082843760009201919091525060029250611844915050565b90506103b88382611496565b60006103d96103cf36899003890160208a01612091565b8860c0013561188c565b43845560018401819055905060006103f76080890160608a01611f67565b604051639af3e90960e01b81526001600160a01b039190911690639af3e909906104289060208c019060040161222d565b600060405180830381865afa158015610445573d6000803e3d6000fd5b505050506040513d6000823e601f3d908101601f1916820160405261046d91908101906122b2565b9050600061047e60208a018a611f67565b6001600160a01b0316635c60da1b6040518163ffffffff1660e01b8152600401602060405180830381865afa1580156104bb573d6000803e3d6000fd5b505050506040513d601f19601f820116820180604052508101906104df919061237b565b9050600082602001516001600160a01b0316635c60da1b6040518163ffffffff1660e01b8152600401602060405180830381865afa158015610525573d6000803e3d6000fd5b505050506040513d601f19601f82011682018060405250810190610549919061237b565b9050806001600160a01b0316826001600160a01b0316146105bc576105bc61057460208c018c611f67565b8261058260808e018e6121ba565b8080601f0160208091040260200160405190810160405280939291908181526020018383808284376000920191909152506118d392505050565b60006105cb60a08c018c6120d5565b9050111561063f576001600160a01b038b1663e978afe56105ef60a08d018d6120d5565b6040518363ffffffff1660e01b815260040161060c929190612398565b600060405180830381600087803b15801561062657600080fd5b505af115801561063a573d6000803e3d6000fd5b505050505b61064c60208b018b611f67565b6001600160a01b03168b6001600160a01b03167f24565610ddf61ee73e8501d7f0454657c71f5944882f5c586d7246bf43e13cda8787604051610699929190918252602082015260400190565b60405180910390a35050505050505050505050565b6106b6611b5d565b5060408051606081018252600181526004602082015260009181019190915290565b606060006106fa846106ec8585018661243b565b6102cb906020810190611f67565b600081815260208190526040812091925061077761071d36879003870187612091565b61077261072d606089018961243b565b61073b90602081019061245b565b808060200260200160405190810160405280939291908181526020018383602002808284376000920191909152506119f792505050565b61188c565b9050808260010154146107b257600182015460405163039d275560e51b81526004810191909152602481018290526044015b60405180910390fd5b60006107c46060870160408801611f67565b604051639af3e90960e01b81526001600160a01b039190911690639af3e909906107f290899060040161222d565b600060405180830381865afa15801561080f573d6000803e3d6000fd5b505050506040513d6000823e601f3d908101601f1916820160405261083791908101906122b2565b60208101519091506001600160a01b0316639cb0a1248861085b60608a018a61243b565b6040518363ffffffff1660e01b81526004016108789291906125e4565b6000604051808303816000875af1158015610897573d6000803e3d6000fd5b505050506040513d6000823e601f3d908101601f191682016040526108bf9190810190612704565b945060006109166108d536899003890189612091565b6108de88611814565b6040805160208101909152600081527f290decd9548b62a8d60345a988386fc84ba6bc95484008f6362f93160ef3e563906003611844565b60008181526002860160205260409020548554919250111561094e57604051630559b4b760e31b8152600481018290526024016107a9565b6000818152600285016020526040908190204390556109739060608901908901611f67565b6001600160a01b03908116908916337f5fdcd271ff15db84cbc94365956df5504f6d756e111654144648433c11a44530848b6109b2606082018261243b565b8c6040516109c39493929190612738565b60405180910390a4505050505092915050565b60006109f5604051806040016040528060608152602001606081525090565b6000610a076060850160408601611f67565b60015460405163f29ee12560e01b81526001600160a01b03808416600483015292935091169063f29ee12590602401602060405180830381865afa158015610a53573d6000803e3d6000fd5b505050506040513d601f19601f82011682018060405250810190610a779190612770565b610a9457604051630353faad60e21b815260040160405180910390fd5b604051639af3e90960e01b81526000906001600160a01b03831690639af3e90990610ac390889060040161222d565b600060405180830381865afa158015610ae0573d6000803e3d6000fd5b505050506040513d6000823e601f3d908101601f19168201604052610b0891908101906122b2565b60208101519091506001600160a01b031663f10832f187610b2c60608901896121ba565b6040518463ffffffff1660e01b8152600401610b4a93929190612792565b6000604051808303816000875af1158015610b69573d6000803e3d6000fd5b505050506040513d6000823e601f3d908101601f19168201604052610b919190810190612895565b90945092506000610ba287866117d1565b90506000610be7610bb836899003890189612091565b610bc58760200151611814565b8751610bd0906119f7565b604051806020016040528060008152506001611844565b600083815260208190526040902060018101549192509015610c1c57604051636972275b60e11b815260040160405180910390fd5b600082815260028201602052604090205481541015610c5157604051630559b4b760e31b8152600481018390526024016107a9565b600082815260028201602052604090204390556001600160a01b03808616908a16337f8ea69cee01fd9fc24e6b9614ea0896c5a1eac8fd8aba383285248cd0e1d8503a858c610ca360608201826121ba565b8e8e604051610cb7969594939291906128db565b60405180910390a450505050505b9250929050565b817fbd4dbacf5ba6d9793f600403b3293d6ecd695fcc703a2b5edcf245f45fda6cfa610cf88282611704565b6000610d0b856102cb6020870187611f67565b6000818152602081815260408220929350610d8e90610d3290368990038901908901612091565b6108de610d4260808a018a6120d5565b808060200260200160405190810160405280939291908181526020016000905b8282101561035357610d7f60a0830286013681900381019061212a565b81526020019060010190610d62565b9050610d9a8382611496565b438255600060018301819055610db360808801886120d5565b90501115610e27576001600160a01b03871663e978afe5610dd760808901896120d5565b6040518363ffffffff1660e01b8152600401610df4929190612398565b600060405180830381600087803b158015610e0e57600080fd5b505af1158015610e22573d6000803e3d6000fd5b505050505b610e346020870187611f67565b6001600160a01b0316876001600160a01b03167fa0e5d4ce6420a0e7a5f0ac10c47b3a672fb661c11f5609bb21b68644d81e17aa83604051610e7891815260200190565b60405180910390a350505050505050565b6060610ea8604051806040016040528060608152602001606081525090565b610eb86060840160408501612923565b60ff16610ec86020850185612923565b60ff16141580610efe5750610ee36080840160608501612940565b61ffff16610ef76040850160208601612940565b61ffff1610155b15610f2357604080516380d4e90760e01b81526107a99185919082019060040161295d565b6000610f36856106ec60a087018761243b565b6000818152602081905260408120919250610f5761072d60a088018861243b565b90506000610fa3604051806040016040528089600001803603810190610f7d9190612978565b8152602001610f9260a08b0160808c01611f67565b6001600160a01b031690528361188c565b905080836001015414610fd957600183015460405163039d275560e51b81526004810191909152602481018290526044016107a9565b6000610feb60a0890160808a01611f67565b604051639af3e90960e01b81526001600160a01b039190911690639af3e90990611019908b9060040161222d565b600060405180830381865afa158015611036573d6000803e3d6000fd5b505050506040513d6000823e601f3d908101601f1916820160405261105e91908101906122b2565b9050600061107260a08a0160808b01611f67565b6001600160a01b0316639af3e9098a6040016040518263ffffffff1660e01b81526004016110a0919061222d565b600060405180830381865afa1580156110bd573d6000803e3d6000fd5b505050506040513d6000823e601f3d908101601f191682016040526110e591908101906122b2565b9050600081602001516001600160a01b031683602001516001600160a01b0316036111dc5761118660405180604001604052808c60400180360381019061112c9190612978565b815260200161114160a08e0160808f01611f67565b6001600160a01b031690526040805160208101909152600081527f569e75fc77c1a856f6daaf9e69d8a9566ca34aa47f9133711ce065a571af0cfd9088906002611844565b905061119560a08b018b61243b565b6111a390602081019061245b565b80806020026020016040519081016040528093929190818152602001838360200280828437600092019190915250505090895250611433565b61121163041de68360e41b6111f460a08d018d61243b565b611202906020810190611f67565b6001600160a01b031690611a0a565b6112555761122260a08b018b61243b565b611230906020810190611f67565b604051638174ff5560e01b81526001600160a01b0390911660048201526024016107a9565b600061126460a08c018c61243b565b611272906020810190611f67565b6001600160a01b03166341de68306040518163ffffffff1660e01b8152600401602060405180830381865afa1580156112af573d6000803e3d6000fd5b505050506040513d601f19601f820116820180604052508101906112d39190612994565b60028111156112e4576112e4611c84565b14611329576112f660a08b018b61243b565b611304906020810190611f67565b60405163390d5b2560e21b81526001600160a01b0390911660048201526024016107a9565b81602001516001600160a01b031663a8a9c29e8c8c60000160200160208101906113539190612940565b61136060a08f018f61243b565b6040518463ffffffff1660e01b815260040161137e939291906129b1565b6000604051808303816000875af115801561139d573d6000803e3d6000fd5b505050506040513d6000823e601f3d908101601f191682016040526113c591908101906129df565b809950819a50505061143060405180604001604052808c6040018036038101906113ef9190612978565b815260200161140460a08e0160808f01611f67565b6001600160a01b031681525061141d8a60200151611814565b8a51611428906119f7565b8c6002611844565b90505b60008181526002870160205260409020548654101561146857604051630559b4b760e31b8152600481018290526024016107a9565b600081815260028701602052604090204390556114888b828c8b8d611a2d565b505050505050509250929050565b60008281526020818152604080832084845260028101909252909120548154106114d657604051632cb9867360e11b8152600481018390526024016107a9565b505050565b817ff796b89427c6552c1ac705d833bfb7909f8eb5ce502c1db97f85fabc6ad835486115078282611704565b600061151d856102cb6080870160608801611f67565b60008181526020819052604081209192506115b861154036889003880188612091565b61159c61155060808a018a6120d5565b808060200260200160405190810160405280939291908181526020016000905b828210156103535761158d60a0830286013681900381019061212a565b81526020019060010190611570565b8860a00135604051806020016040528060008152506001611844565b6001830154909150156115de57604051636972275b60e11b815260040160405180910390fd5b6115e88382611496565b60006116066115fc36899003890189612091565b8860a0013561188c565b600184018190554384559050600061162160808901896120d5565b90501115611695576001600160a01b03881663e978afe561164560808a018a6120d5565b6040518363ffffffff1660e01b8152600401611662929190612398565b600060405180830381600087803b15801561167c57600080fd5b505af1158015611690573d6000803e3d6000fd5b505050505b6116a56080880160608901611f67565b6001600160a01b0316886001600160a01b03167f74e616c7264536b98a5ec234d051ae6ce1305bf05c85f9ddc112364440ccf12984846040516116f2929190918252602082015260400190565b60405180910390a35050505050505050565b336001600160a01b03831614801590611798575060408051602081018252600081529051637ef7c88360e11b81526001600160a01b0384169163fdef91069161175591309133918791600401612a38565b602060405180830381865afa158015611772573d6000803e3d6000fd5b505050506040513d601f19601f820116820180604052508101906117969190612770565b155b156117cd5760405162aeb47760e51b81526001600160a01b0383166004820152336024820152604481018290526064016107a9565b5050565b604080516001600160a01b0380851660208301528316918101919091526000906060015b6040516020818303038152906040528051906020012090505b92915050565b6000816040516020016118279190611d3a565b604051602081830303815290604052805190602001209050919050565b845160208087015184518583012060405160009461186b949093928a928a92899101612a75565b60405160208183030381529060405280519060200120905095945050505050565b815160208084015160408051845160ff1681850152929093015161ffff16928201929092526001600160a01b0390911660608201526080810182905260009060a0016117f5565b8051156119c95760405163278f794360e11b81526001600160a01b03841690634f1ef286906119089085908590600401612ad3565b600060405180830381600087803b15801561192257600080fd5b505af1925050508015611933575060015b6114d65761193f612af7565b806308c379a0036119785750611953612b13565b8061195e575061197a565b8060405162461bcd60e51b81526004016107a99190612b9c565b505b3d8080156119a4576040519150601f19603f3d011682016040523d82523d6000602084013e6119a9565b606091505b508383836040516396e9e31b60e01b81526004016107a993929190612baf565b604051631b2ce7f360e11b81526001600160a01b038381166004830152841690633659cfe690602401611908565b6000816040516020016118279190612bdb565b6000611a1583611aa1565b8015611a265750611a268383611ad4565b9392505050565b611a3d60a0840160808501611f67565b6001600160a01b03908116908616337f3686138d92841c8549b2fe39fda23881fef6aa9b347352114c0869bf5af3e3f28760408801611a7f60a08a018a61243b565b8888604051611a92959493929190612c28565b60405180910390a45050505050565b6000611ab4826301ffc9a760e01b611ad4565b801561180e5750611acd826001600160e01b0319611ad4565b1592915050565b604080516001600160e01b03198316602480830191909152825180830390910181526044909101909152602080820180516001600160e01b03166301ffc9a760e01b178152825160009392849283928392918391908a617530fa92503d91506000519050828015611b46575060208210155b8015611b525750600081115b979650505050505050565b60405180606001604052806003906020820280368337509192915050565b6001600160a01b0381168114611b9057600080fd5b50565b60008060408385031215611ba657600080fd5b8235611bb181611b7b565b915060208301356001600160401b03811115611bcc57600080fd5b830160e08186031215611bde57600080fd5b809150509250929050565b60608101818360005b6003811015611c1457815160ff16835260209283019290910190600101611bf2565b50505092915050565b600060808284031215611c2f57600080fd5b50919050565b60008060408385031215611c4857600080fd5b8235611c5381611b7b565b915060208301356001600160401b03811115611c6e57600080fd5b611c7a85828601611c1d565b9150509250929050565b634e487b7160e01b600052602160045260246000fd5b60038110611caa57611caa611c84565b9052565b611cb9828251611c9a565b6020818101516001600160a01b0390811691840191909152604080830151821690840152606080830151909116908301526080908101519082015260a00190565b600081518084526020808501945080840160005b83811015611d2f57611d21878351611cae565b965090820190600101611d0e565b509495945050505050565b602081526000611a266020830184611cfa565b805160408084528151908401819052600091602091908201906060860190845b81811015611d925783516001600160a01b031683529284019291840191600101611d6d565b50508483015186820387850152805180835290840192506000918401905b80831015611dd557611dc3828551611cae565b91508484019350600183019250611db0565b509695505050505050565b6001600160a01b0383168152604060208201819052600090611e0490830184611d4d565b949350505050565b60008060408385031215611e1f57600080fd5b8235611e2a81611b7b565b915060208301356001600160401b03811115611e4557600080fd5b830160a08186031215611bde57600080fd5b600060c08284031215611c2f57600080fd5b60008060408385031215611e7c57600080fd5b8235611e8781611b7b565b915060208301356001600160401b03811115611ea257600080fd5b611c7a85828601611e57565b60005b83811015611ec9578181015183820152602001611eb1565b50506000910152565b60008151808452611eea816020860160208601611eae565b601f01601f19169290920160200192915050565b604081526000611f116040830185611ed2565b8281036020840152611f238185611d4d565b95945050505050565b60008060408385031215611f3f57600080fd5b50508035926020909101359150565b600060208284031215611f6057600080fd5b5035919050565b600060208284031215611f7957600080fd5b8135611a2681611b7b565b634e487b7160e01b600052604160045260246000fd5b604081018181106001600160401b0382111715611fb957611fb9611f84565b60405250565b606081018181106001600160401b0382111715611fb957611fb9611f84565b60a081018181106001600160401b0382111715611fb957611fb9611f84565b601f8201601f191681016001600160401b038111828210171561202257612022611f84565b6040525050565b60ff81168114611b9057600080fd5b61ffff81168114611b9057600080fd5b60006040828403121561205a57600080fd5b60405161206681611f9a565b809150823561207481612029565b8152602083013561208481612038565b6020919091015292915050565b6000606082840312156120a357600080fd5b6040516120af81611f9a565b6120b98484612048565b815260408301356120c981611b7b565b60208201529392505050565b6000808335601e198436030181126120ec57600080fd5b8301803591506001600160401b0382111561210657600080fd5b602001915060a081023603821315610cc557600080fd5b60038110611b9057600080fd5b600060a0828403121561213c57600080fd5b60405160a081018181106001600160401b038211171561215e5761215e611f84565b604052823561216c8161211d565b8152602083013561217c81611b7b565b6020820152604083013561218f81611b7b565b604082015260608301356121a281611b7b565b60608201526080928301359281019290925250919050565b6000808335601e198436030181126121d157600080fd5b8301803591506001600160401b038211156121eb57600080fd5b602001915036819003821315610cc557600080fd5b803561220b81612029565b60ff168252602081013561221e81612038565b61ffff81166020840152505050565b6040810161180e8284612200565b805161224681611b7b565b919050565b600082601f83011261225c57600080fd5b81516001600160401b0381111561227557612275611f84565b60405161228c601f8301601f191660200182611ffd565b8181528460208386010111156122a157600080fd5b611e04826020830160208701611eae565b6000602082840312156122c457600080fd5b81516001600160401b03808211156122db57600080fd5b9083019081850360808112156122f057600080fd5b6040516122fc81611fbf565b604082121561230a57600080fd5b604051915061231882611f9a565b835161232381612029565b8252602084015161233381612038565b60208301528181526123476040850161223b565b6020820152606084015191508282111561236057600080fd5b61236c8783860161224b565b60408201529695505050505050565b60006020828403121561238d57600080fd5b8151611a2681611b7b565b6020808252818101839052600090604080840186845b8781101561242e5781356123c18161211d565b6123cb8482611c9a565b50848201356123d981611b7b565b6001600160a01b039081168487015282850135906123f682611b7b565b908116848601526060908382013561240d81611b7b565b16908401526080828101359084015260a092830192909101906001016123ae565b5090979650505050505050565b60008235605e1983360301811261245157600080fd5b9190910192915050565b6000808335601e1984360301811261247257600080fd5b8301803591506001600160401b0382111561248c57600080fd5b6020019150600581901b3603821315610cc557600080fd5b6000808335601e198436030181126124bb57600080fd5b83016020810192503590506001600160401b038111156124da57600080fd5b803603821315610cc557600080fd5b81835281816020850137506000828201602090810191909152601f909101601f19169091010190565b600060608301823561252381611b7b565b6001600160a01b0390811685526020908482013536869003601e1901811261254a57600080fd5b850182810190356001600160401b0381111561256557600080fd5b8060051b360382131561257757600080fd5b6060888501529384905292600090608088015b818310156125b357853561259d81611b7b565b841681529484019460019290920191840161258a565b6125c060408901896124a4565b9650945088810360408a01526125d78187876124e9565b9998505050505050505050565b6001600160a01b0383168152604060208201819052600090611e0490830184612512565b60006001600160401b0382111561262157612621611f84565b5060051b60200190565b600082601f83011261263c57600080fd5b8151602061264982612608565b604080516126578382611ffd565b84815260a0948502870184019484820193508886111561267657600080fd5b8488015b868110156126f65781818b0312156126925760008081fd5b835161269d81611fde565b81516126a88161211d565b8152818701516126b781611b7b565b81880152818501516126c881611b7b565b818601526060828101516126db81611b7b565b9082015260808281015190820152855293850193810161267a565b509098975050505050505050565b60006020828403121561271657600080fd5b81516001600160401b0381111561272c57600080fd5b611e048482850161262b565b8481526127486020820185612200565b60a06060820152600061275e60a0830185612512565b8281036080840152611b528185611cfa565b60006020828403121561278257600080fd5b81518015158114611a2657600080fd5b6001600160a01b0384168152604060208201819052600090611f2390830184866124e9565b6000604082840312156127c957600080fd5b6040516127d581611f9a565b80915082516001600160401b03808211156127ef57600080fd5b818501915085601f83011261280357600080fd5b8151602061281082612608565b60405161281d8282611ffd565b83815260059390931b850182019282810191508984111561283d57600080fd5b948201945b8386101561286457855161285581611b7b565b82529482019490820190612842565b8652508681015193508284111561287a57600080fd5b6128868885890161262b565b81860152505050505092915050565b600080604083850312156128a857600080fd5b82516128b381611b7b565b60208401519092506001600160401b038111156128cf57600080fd5b611c7a858286016127b7565b8681526128eb6020820187612200565b60c06060820152600061290260c0830186886124e9565b6001600160a01b038516608084015282810360a08401526125d78185611d4d565b60006020828403121561293557600080fd5b8135611a2681612029565b60006020828403121561295257600080fd5b8135611a2681612038565b6080810161296b8285612200565b611a266040830184612200565b60006040828403121561298a57600080fd5b611a268383612048565b6000602082840312156129a657600080fd5b8151611a268161211d565b6001600160a01b038416815261ffff83166020820152606060408201819052600090611f2390830184612512565b600080604083850312156129f257600080fd5b82516001600160401b0380821115612a0957600080fd5b612a158683870161224b565b93506020850151915080821115612a2b57600080fd5b50611c7a858286016127b7565b6001600160a01b0385811682528416602082015260408101839052608060608201819052600090612a6b90830184611ed2565b9695505050505050565b865160ff16815260208088015161ffff169082015260e081016001600160a01b0387166040830152606082018690526080820185905260a0820184905260048310612ac257612ac2611c84565b8260c0830152979650505050505050565b6001600160a01b0383168152604060208201819052600090611e0490830184611ed2565b600060033d1115612b105760046000803e5060005160e01c5b90565b600060443d1015612b215790565b6040516003193d81016004833e81513d6001600160401b038160248401118184111715612b5057505050505090565b8285019150815181811115612b685750505050505090565b843d8701016020828501011115612b825750505050505090565b612b9160208286010187611ffd565b509095945050505050565b602081526000611a266020830184611ed2565b6001600160a01b03848116825283166020820152606060408201819052600090611f2390830184611ed2565b6020808252825182820181905260009190848201906040850190845b81811015612c1c5783516001600160a01b031683529284019291840191600101612bf7565b50909695505050505050565b858152612c386020820186612200565b60c060608201526000612c4e60c0830186612512565b8281036080840152612c608186611d4d565b905082810360a0840152612c748185611ed2565b9897505050505050505056fea26469706673582212209e7ba7f80beb5fb73cf99a8f2e208eeb8a67051ce9d506ceee3022081505c0e864736f6c63430008110033",
			"opcodes": "PUSH1 0x80 PUSH1 0x40 MSTORE CALLVALUE DUP1 ISZERO PUSH3 0x11 JUMPI PUSH1 0x0 DUP1 REVERT JUMPDEST POP PUSH1 0x40 MLOAD PUSH3 0x2D52 CODESIZE SUB DUP1 PUSH3 0x2D52 DUP4 CODECOPY DUP2 ADD PUSH1 0x40 DUP2 SWAP1 MSTORE PUSH3 0x34 SWAP2 PUSH3 0x5A JUMP JUMPDEST PUSH1 0x1 DUP1 SLOAD PUSH1 0x1 PUSH1 0x1 PUSH1 0xA0 SHL SUB NOT AND PUSH1 0x1 PUSH1 0x1 PUSH1 0xA0 SHL SUB SWAP3 SWAP1 SWAP3 AND SWAP2 SWAP1 SWAP2 OR SWAP1 SSTORE PUSH3 0x8C JUMP JUMPDEST PUSH1 0x0 PUSH1 0x20 DUP3 DUP5 SUB SLT ISZERO PUSH3 0x6D JUMPI PUSH1 0x0 DUP1 REVERT JUMPDEST DUP2 MLOAD PUSH1 0x1 PUSH1 0x1 PUSH1 0xA0 SHL SUB DUP2 AND DUP2 EQ PUSH3 0x85 JUMPI PUSH1 0x0 DUP1 REVERT JUMPDEST SWAP4 SWAP3 POP POP POP JUMP JUMPDEST PUSH2 0x2CB6 DUP1 PUSH3 0x9C PUSH1 0x0 CODECOPY PUSH1 0x0 RETURN INVALID PUSH1 0x80 PUSH1 0x40 MSTORE CALLVALUE DUP1 ISZERO PUSH2 0x10 JUMPI PUSH1 0x0 DUP1 REVERT JUMPDEST POP PUSH1 0x4 CALLDATASIZE LT PUSH2 0xCF JUMPI PUSH1 0x0 CALLDATALOAD PUSH1 0xE0 SHR DUP1 PUSH4 0x851D11F8 GT PUSH2 0x8C JUMPI DUP1 PUSH4 0xD7598122 GT PUSH2 0x66 JUMPI DUP1 PUSH4 0xD7598122 EQ PUSH2 0x209 JUMPI DUP1 PUSH4 0xFAFC79DA EQ PUSH2 0x22A JUMPI DUP1 PUSH4 0xFBDC1EF1 EQ PUSH2 0x23D JUMPI DUP1 PUSH4 0xFE6C3474 EQ PUSH2 0x279 JUMPI PUSH1 0x0 DUP1 REVERT JUMPDEST DUP1 PUSH4 0x851D11F8 EQ PUSH2 0x1A8 JUMPI DUP1 PUSH4 0x9665861A EQ PUSH2 0x1BB JUMPI DUP1 PUSH4 0xCA211F7F EQ PUSH2 0x1E2 JUMPI PUSH1 0x0 DUP1 REVERT JUMPDEST DUP1 PUSH4 0x22E12C63 EQ PUSH2 0xD4 JUMPI DUP1 PUSH4 0x2AE9C600 EQ PUSH2 0xE9 JUMPI DUP1 PUSH4 0x2FB04336 EQ PUSH2 0x107 JUMPI DUP1 PUSH4 0x3C8C01D1 EQ PUSH2 0x127 JUMPI DUP1 PUSH4 0x483D209E EQ PUSH2 0x148 JUMPI DUP1 PUSH4 0x747E5EC1 EQ PUSH2 0x173 JUMPI JUMPDEST PUSH1 0x0 DUP1 REVERT JUMPDEST PUSH2 0xE7 PUSH2 0xE2 CALLDATASIZE PUSH1 0x4 PUSH2 0x1B93 JUMP JUMPDEST PUSH2 0x28C JUMP JUMPDEST STOP JUMPDEST PUSH2 0xF1 PUSH2 0x6AE JUMP JUMPDEST PUSH1 0x40 MLOAD PUSH2 0xFE SWAP2 SWAP1 PUSH2 0x1BE9 JUMP JUMPDEST PUSH1 0x40 MLOAD DUP1 SWAP2 SUB SWAP1 RETURN JUMPDEST PUSH2 0x11A PUSH2 0x115 CALLDATASIZE PUSH1 0x4 PUSH2 0x1C35 JUMP JUMPDEST PUSH2 0x6D8 JUMP JUMPDEST PUSH1 0x40 MLOAD PUSH2 0xFE SWAP2 SWAP1 PUSH2 0x1D3A JUMP JUMPDEST PUSH2 0x13A PUSH2 0x135 CALLDATASIZE PUSH1 0x4 PUSH2 0x1C35 JUMP JUMPDEST PUSH2 0x9D6 JUMP JUMPDEST PUSH1 0x40 MLOAD PUSH2 0xFE SWAP3 SWAP2 SWAP1 PUSH2 0x1DE0 JUMP JUMPDEST PUSH1 0x1 SLOAD PUSH2 0x15B SWAP1 PUSH1 0x1 PUSH1 0x1 PUSH1 0xA0 SHL SUB AND DUP2 JUMP JUMPDEST PUSH1 0x40 MLOAD PUSH1 0x1 PUSH1 0x1 PUSH1 0xA0 SHL SUB SWAP1 SWAP2 AND DUP2 MSTORE PUSH1 0x20 ADD PUSH2 0xFE JUMP JUMPDEST PUSH2 0x19A PUSH32 0xF796B89427C6552C1AC705D833BFB7909F8EB5CE502C1DB97F85FABC6AD83548 DUP2 JUMP JUMPDEST PUSH1 0x40 MLOAD SWAP1 DUP2 MSTORE PUSH1 0x20 ADD PUSH2 0xFE JUMP JUMPDEST PUSH2 0xE7 PUSH2 0x1B6 CALLDATASIZE PUSH1 0x4 PUSH2 0x1E0C JUMP JUMPDEST PUSH2 0xCCC JUMP JUMPDEST PUSH2 0x19A PUSH32 0xB03CF3D518F6D49560B7F5BECE1CCB8FD50EA7370F02F5E5210EDBA04BE3C4F7 DUP2 JUMP JUMPDEST PUSH2 0x19A PUSH32 0xBD4DBACF5BA6D9793F600403B3293D6ECD695FCC703A2B5EDCF245F45FDA6CFA DUP2 JUMP JUMPDEST PUSH2 0x21C PUSH2 0x217 CALLDATASIZE PUSH1 0x4 PUSH2 0x1E69 JUMP JUMPDEST PUSH2 0xE89 JUMP JUMPDEST PUSH1 0x40 MLOAD PUSH2 0xFE SWAP3 SWAP2 SWAP1 PUSH2 0x1EFE JUMP JUMPDEST PUSH2 0xE7 PUSH2 0x238 CALLDATASIZE PUSH1 0x4 PUSH2 0x1F2C JUMP JUMPDEST PUSH2 0x1496 JUMP JUMPDEST PUSH2 0x264 PUSH2 0x24B CALLDATASIZE PUSH1 0x4 PUSH2 0x1F4E JUMP JUMPDEST PUSH1 0x0 PUSH1 0x20 DUP2 SWAP1 MSTORE SWAP1 DUP2 MSTORE PUSH1 0x40 SWAP1 KECCAK256 DUP1 SLOAD PUSH1 0x1 SWAP1 SWAP2 ADD SLOAD DUP3 JUMP JUMPDEST PUSH1 0x40 DUP1 MLOAD SWAP3 DUP4 MSTORE PUSH1 0x20 DUP4 ADD SWAP2 SWAP1 SWAP2 MSTORE ADD PUSH2 0xFE JUMP JUMPDEST PUSH2 0xE7 PUSH2 0x287 CALLDATASIZE PUSH1 0x4 PUSH2 0x1E69 JUMP JUMPDEST PUSH2 0x14DB JUMP JUMPDEST DUP2 PUSH32 0xB03CF3D518F6D49560B7F5BECE1CCB8FD50EA7370F02F5E5210EDBA04BE3C4F7 PUSH2 0x2B8 DUP3 DUP3 PUSH2 0x1704 JUMP JUMPDEST PUSH1 0x0 PUSH2 0x2D0 DUP6 PUSH2 0x2CB PUSH1 0x20 DUP8 ADD DUP8 PUSH2 0x1F67 JUMP JUMPDEST PUSH2 0x17D1 JUMP JUMPDEST PUSH1 0x0 DUP2 DUP2 MSTORE PUSH1 0x20 DUP2 DUP2 MSTORE PUSH1 0x40 DUP3 KECCAK256 SWAP3 SWAP4 POP PUSH2 0x3AC SWAP1 PUSH2 0x2F7 SWAP1 CALLDATASIZE DUP10 SWAP1 SUB DUP10 ADD SWAP1 DUP10 ADD PUSH2 0x2091 JUMP JUMPDEST PUSH2 0x35D PUSH2 0x307 PUSH1 0xA0 DUP11 ADD DUP11 PUSH2 0x20D5 JUMP JUMPDEST DUP1 DUP1 PUSH1 0x20 MUL PUSH1 0x20 ADD PUSH1 0x40 MLOAD SWAP1 DUP2 ADD PUSH1 0x40 MSTORE DUP1 SWAP4 SWAP3 SWAP2 SWAP1 DUP2 DUP2 MSTORE PUSH1 0x20 ADD PUSH1 0x0 SWAP1 JUMPDEST DUP3 DUP3 LT ISZERO PUSH2 0x353 JUMPI PUSH2 0x344 PUSH1 0xA0 DUP4 MUL DUP7 ADD CALLDATASIZE DUP2 SWAP1 SUB DUP2 ADD SWAP1 PUSH2 0x212A JUMP JUMPDEST DUP2 MSTORE PUSH1 0x20 ADD SWAP1 PUSH1 0x1 ADD SWAP1 PUSH2 0x327 JUMP JUMPDEST POP POP POP POP POP PUSH2 0x1814 JUMP JUMPDEST PUSH1 0xC0 DUP10 ADD CALLDATALOAD PUSH2 0x36F PUSH1 0x80 DUP12 ADD DUP12 PUSH2 0x21BA JUMP JUMPDEST DUP1 DUP1 PUSH1 0x1F ADD PUSH1 0x20 DUP1 SWAP2 DIV MUL PUSH1 0x20 ADD PUSH1 0x40 MLOAD SWAP1 DUP2 ADD PUSH1 0x40 MSTORE DUP1 SWAP4 SWAP3 SWAP2 SWAP1 DUP2 DUP2 MSTORE PUSH1 0x20 ADD DUP4 DUP4 DUP1 DUP3 DUP5 CALLDATACOPY PUSH1 0x0 SWAP3 ADD SWAP2 SWAP1 SWAP2 MSTORE POP PUSH1 0x2 SWAP3 POP PUSH2 0x1844 SWAP2 POP POP JUMP JUMPDEST SWAP1 POP PUSH2 0x3B8 DUP4 DUP3 PUSH2 0x1496 JUMP JUMPDEST PUSH1 0x0 PUSH2 0x3D9 PUSH2 0x3CF CALLDATASIZE DUP10 SWAP1 SUB DUP10 ADD PUSH1 0x20 DUP11 ADD PUSH2 0x2091 JUMP JUMPDEST DUP9 PUSH1 0xC0 ADD CALLDATALOAD PUSH2 0x188C JUMP JUMPDEST NUMBER DUP5 SSTORE PUSH1 0x1 DUP5 ADD DUP2 SWAP1 SSTORE SWAP1 POP PUSH1 0x0 PUSH2 0x3F7 PUSH1 0x80 DUP10 ADD PUSH1 0x60 DUP11 ADD PUSH2 0x1F67 JUMP JUMPDEST PUSH1 0x40 MLOAD PUSH4 0x9AF3E909 PUSH1 0xE0 SHL DUP2 MSTORE PUSH1 0x1 PUSH1 0x1 PUSH1 0xA0 SHL SUB SWAP2 SWAP1 SWAP2 AND SWAP1 PUSH4 0x9AF3E909 SWAP1 PUSH2 0x428 SWAP1 PUSH1 0x20 DUP13 ADD SWAP1 PUSH1 0x4 ADD PUSH2 0x222D JUMP JUMPDEST PUSH1 0x0 PUSH1 0x40 MLOAD DUP1 DUP4 SUB DUP2 DUP7 GAS STATICCALL ISZERO DUP1 ISZERO PUSH2 0x445 JUMPI RETURNDATASIZE PUSH1 0x0 DUP1 RETURNDATACOPY RETURNDATASIZE PUSH1 0x0 REVERT JUMPDEST POP POP POP POP PUSH1 0x40 MLOAD RETURNDATASIZE PUSH1 0x0 DUP3 RETURNDATACOPY PUSH1 0x1F RETURNDATASIZE SWAP1 DUP2 ADD PUSH1 0x1F NOT AND DUP3 ADD PUSH1 0x40 MSTORE PUSH2 0x46D SWAP2 SWAP1 DUP2 ADD SWAP1 PUSH2 0x22B2 JUMP JUMPDEST SWAP1 POP PUSH1 0x0 PUSH2 0x47E PUSH1 0x20 DUP11 ADD DUP11 PUSH2 0x1F67 JUMP JUMPDEST PUSH1 0x1 PUSH1 0x1 PUSH1 0xA0 SHL SUB AND PUSH4 0x5C60DA1B PUSH1 0x40 MLOAD DUP2 PUSH4 0xFFFFFFFF AND PUSH1 0xE0 SHL DUP2 MSTORE PUSH1 0x4 ADD PUSH1 0x20 PUSH1 0x40 MLOAD DUP1 DUP4 SUB DUP2 DUP7 GAS STATICCALL ISZERO DUP1 ISZERO PUSH2 0x4BB JUMPI RETURNDATASIZE PUSH1 0x0 DUP1 RETURNDATACOPY RETURNDATASIZE PUSH1 0x0 REVERT JUMPDEST POP POP POP POP PUSH1 0x40 MLOAD RETURNDATASIZE PUSH1 0x1F NOT PUSH1 0x1F DUP3 ADD AND DUP3 ADD DUP1 PUSH1 0x40 MSTORE POP DUP2 ADD SWAP1 PUSH2 0x4DF SWAP2 SWAP1 PUSH2 0x237B JUMP JUMPDEST SWAP1 POP PUSH1 0x0 DUP3 PUSH1 0x20 ADD MLOAD PUSH1 0x1 PUSH1 0x1 PUSH1 0xA0 SHL SUB AND PUSH4 0x5C60DA1B PUSH1 0x40 MLOAD DUP2 PUSH4 0xFFFFFFFF AND PUSH1 0xE0 SHL DUP2 MSTORE PUSH1 0x4 ADD PUSH1 0x20 PUSH1 0x40 MLOAD DUP1 DUP4 SUB DUP2 DUP7 GAS STATICCALL ISZERO DUP1 ISZERO PUSH2 0x525 JUMPI RETURNDATASIZE PUSH1 0x0 DUP1 RETURNDATACOPY RETURNDATASIZE PUSH1 0x0 REVERT JUMPDEST POP POP POP POP PUSH1 0x40 MLOAD RETURNDATASIZE PUSH1 0x1F NOT PUSH1 0x1F DUP3 ADD AND DUP3 ADD DUP1 PUSH1 0x40 MSTORE POP DUP2 ADD SWAP1 PUSH2 0x549 SWAP2 SWAP1 PUSH2 0x237B JUMP JUMPDEST SWAP1 POP DUP1 PUSH1 0x1 PUSH1 0x1 PUSH1 0xA0 SHL SUB AND DUP3 PUSH1 0x1 PUSH1 0x1 PUSH1 0xA0 SHL SUB AND EQ PUSH2 0x5BC JUMPI PUSH2 0x5BC PUSH2 0x574 PUSH1 0x20 DUP13 ADD DUP13 PUSH2 0x1F67 JUMP JUMPDEST DUP3 PUSH2 0x582 PUSH1 0x80 DUP15 ADD DUP15 PUSH2 0x21BA JUMP JUMPDEST DUP1 DUP1 PUSH1 0x1F ADD PUSH1 0x20 DUP1 SWAP2 DIV MUL PUSH1 0x20 ADD PUSH1 0x40 MLOAD SWAP1 DUP2 ADD PUSH1 0x40 MSTORE DUP1 SWAP4 SWAP3 SWAP2 SWAP1 DUP2 DUP2 MSTORE PUSH1 0x20 ADD DUP4 DUP4 DUP1 DUP3 DUP5 CALLDATACOPY PUSH1 0x0 SWAP3 ADD SWAP2 SWAP1 SWAP2 MSTORE POP PUSH2 0x18D3 SWAP3 POP POP POP JUMP JUMPDEST PUSH1 0x0 PUSH2 0x5CB PUSH1 0xA0 DUP13 ADD DUP13 PUSH2 0x20D5 JUMP JUMPDEST SWAP1 POP GT ISZERO PUSH2 0x63F JUMPI PUSH1 0x1 PUSH1 0x1 PUSH1 0xA0 SHL SUB DUP12 AND PUSH4 0xE978AFE5 PUSH2 0x5EF PUSH1 0xA0 DUP14 ADD DUP14 PUSH2 0x20D5 JUMP JUMPDEST PUSH1 0x40 MLOAD DUP4 PUSH4 0xFFFFFFFF AND PUSH1 0xE0 SHL DUP2 MSTORE PUSH1 0x4 ADD PUSH2 0x60C SWAP3 SWAP2 SWAP1 PUSH2 0x2398 JUMP JUMPDEST PUSH1 0x0 PUSH1 0x40 MLOAD DUP1 DUP4 SUB DUP2 PUSH1 0x0 DUP8 DUP1 EXTCODESIZE ISZERO DUP1 ISZERO PUSH2 0x626 JUMPI PUSH1 0x0 DUP1 REVERT JUMPDEST POP GAS CALL ISZERO DUP1 ISZERO PUSH2 0x63A JUMPI RETURNDATASIZE PUSH1 0x0 DUP1 RETURNDATACOPY RETURNDATASIZE PUSH1 0x0 REVERT JUMPDEST POP POP POP POP JUMPDEST PUSH2 0x64C PUSH1 0x20 DUP12 ADD DUP12 PUSH2 0x1F67 JUMP JUMPDEST PUSH1 0x1 PUSH1 0x1 PUSH1 0xA0 SHL SUB AND DUP12 PUSH1 0x1 PUSH1 0x1 PUSH1 0xA0 SHL SUB AND PUSH32 0x24565610DDF61EE73E8501D7F0454657C71F5944882F5C586D7246BF43E13CDA DUP8 DUP8 PUSH1 0x40 MLOAD PUSH2 0x699 SWAP3 SWAP2 SWAP1 SWAP2 DUP3 MSTORE PUSH1 0x20 DUP3 ADD MSTORE PUSH1 0x40 ADD SWAP1 JUMP JUMPDEST PUSH1 0x40 MLOAD DUP1 SWAP2 SUB SWAP1 LOG3 POP POP POP POP POP POP POP POP POP POP POP JUMP JUMPDEST PUSH2 0x6B6 PUSH2 0x1B5D JUMP JUMPDEST POP PUSH1 0x40 DUP1 MLOAD PUSH1 0x60 DUP2 ADD DUP3 MSTORE PUSH1 0x1 DUP2 MSTORE PUSH1 0x4 PUSH1 0x20 DUP3 ADD MSTORE PUSH1 0x0 SWAP2 DUP2 ADD SWAP2 SWAP1 SWAP2 MSTORE SWAP1 JUMP JUMPDEST PUSH1 0x60 PUSH1 0x0 PUSH2 0x6FA DUP5 PUSH2 0x6EC DUP6 DUP6 ADD DUP7 PUSH2 0x243B JUMP JUMPDEST PUSH2 0x2CB SWAP1 PUSH1 0x20 DUP2 ADD SWAP1 PUSH2 0x1F67 JUMP JUMPDEST PUSH1 0x0 DUP2 DUP2 MSTORE PUSH1 0x20 DUP2 SWAP1 MSTORE PUSH1 0x40 DUP2 KECCAK256 SWAP2 SWAP3 POP PUSH2 0x777 PUSH2 0x71D CALLDATASIZE DUP8 SWAP1 SUB DUP8 ADD DUP8 PUSH2 0x2091 JUMP JUMPDEST PUSH2 0x772 PUSH2 0x72D PUSH1 0x60 DUP10 ADD DUP10 PUSH2 0x243B JUMP JUMPDEST PUSH2 0x73B SWAP1 PUSH1 0x20 DUP2 ADD SWAP1 PUSH2 0x245B JUMP JUMPDEST DUP1 DUP1 PUSH1 0x20 MUL PUSH1 0x20 ADD PUSH1 0x40 MLOAD SWAP1 DUP2 ADD PUSH1 0x40 MSTORE DUP1 SWAP4 SWAP3 SWAP2 SWAP1 DUP2 DUP2 MSTORE PUSH1 0x20 ADD DUP4 DUP4 PUSH1 0x20 MUL DUP1 DUP3 DUP5 CALLDATACOPY PUSH1 0x0 SWAP3 ADD SWAP2 SWAP1 SWAP2 MSTORE POP PUSH2 0x19F7 SWAP3 POP POP POP JUMP JUMPDEST PUSH2 0x188C JUMP JUMPDEST SWAP1 POP DUP1 DUP3 PUSH1 0x1 ADD SLOAD EQ PUSH2 0x7B2 JUMPI PUSH1 0x1 DUP3 ADD SLOAD PUSH1 0x40 MLOAD PUSH4 0x39D2755 PUSH1 0xE5 SHL DUP2 MSTORE PUSH1 0x4 DUP2 ADD SWAP2 SWAP1 SWAP2 MSTORE PUSH1 0x24 DUP2 ADD DUP3 SWAP1 MSTORE PUSH1 0x44 ADD JUMPDEST PUSH1 0x40 MLOAD DUP1 SWAP2 SUB SWAP1 REVERT JUMPDEST PUSH1 0x0 PUSH2 0x7C4 PUSH1 0x60 DUP8 ADD PUSH1 0x40 DUP9 ADD PUSH2 0x1F67 JUMP JUMPDEST PUSH1 0x40 MLOAD PUSH4 0x9AF3E909 PUSH1 0xE0 SHL DUP2 MSTORE PUSH1 0x1 PUSH1 0x1 PUSH1 0xA0 SHL SUB SWAP2 SWAP1 SWAP2 AND SWAP1 PUSH4 0x9AF3E909 SWAP1 PUSH2 0x7F2 SWAP1 DUP10 SWAP1 PUSH1 0x4 ADD PUSH2 0x222D JUMP JUMPDEST PUSH1 0x0 PUSH1 0x40 MLOAD DUP1 DUP4 SUB DUP2 DUP7 GAS STATICCALL ISZERO DUP1 ISZERO PUSH2 0x80F JUMPI RETURNDATASIZE PUSH1 0x0 DUP1 RETURNDATACOPY RETURNDATASIZE PUSH1 0x0 REVERT JUMPDEST POP POP POP POP PUSH1 0x40 MLOAD RETURNDATASIZE PUSH1 0x0 DUP3 RETURNDATACOPY PUSH1 0x1F RETURNDATASIZE SWAP1 DUP2 ADD PUSH1 0x1F NOT AND DUP3 ADD PUSH1 0x40 MSTORE PUSH2 0x837 SWAP2 SWAP1 DUP2 ADD SWAP1 PUSH2 0x22B2 JUMP JUMPDEST PUSH1 0x20 DUP2 ADD MLOAD SWAP1 SWAP2 POP PUSH1 0x1 PUSH1 0x1 PUSH1 0xA0 SHL SUB AND PUSH4 0x9CB0A124 DUP9 PUSH2 0x85B PUSH1 0x60 DUP11 ADD DUP11 PUSH2 0x243B JUMP JUMPDEST PUSH1 0x40 MLOAD DUP4 PUSH4 0xFFFFFFFF AND PUSH1 0xE0 SHL DUP2 MSTORE PUSH1 0x4 ADD PUSH2 0x878 SWAP3 SWAP2 SWAP1 PUSH2 0x25E4 JUMP JUMPDEST PUSH1 0x0 PUSH1 0x40 MLOAD DUP1 DUP4 SUB DUP2 PUSH1 0x0 DUP8 GAS CALL ISZERO DUP1 ISZERO PUSH2 0x897 JUMPI RETURNDATASIZE PUSH1 0x0 DUP1 RETURNDATACOPY RETURNDATASIZE PUSH1 0x0 REVERT JUMPDEST POP POP POP POP PUSH1 0x40 MLOAD RETURNDATASIZE PUSH1 0x0 DUP3 RETURNDATACOPY PUSH1 0x1F RETURNDATASIZE SWAP1 DUP2 ADD PUSH1 0x1F NOT AND DUP3 ADD PUSH1 0x40 MSTORE PUSH2 0x8BF SWAP2 SWAP1 DUP2 ADD SWAP1 PUSH2 0x2704 JUMP JUMPDEST SWAP5 POP PUSH1 0x0 PUSH2 0x916 PUSH2 0x8D5 CALLDATASIZE DUP10 SWAP1 SUB DUP10 ADD DUP10 PUSH2 0x2091 JUMP JUMPDEST PUSH2 0x8DE DUP9 PUSH2 0x1814 JUMP JUMPDEST PUSH1 0x40 DUP1 MLOAD PUSH1 0x20 DUP2 ADD SWAP1 SWAP2 MSTORE PUSH1 0x0 DUP2 MSTORE PUSH32 0x290DECD9548B62A8D60345A988386FC84BA6BC95484008F6362F93160EF3E563 SWAP1 PUSH1 0x3 PUSH2 0x1844 JUMP JUMPDEST PUSH1 0x0 DUP2 DUP2 MSTORE PUSH1 0x2 DUP7 ADD PUSH1 0x20 MSTORE PUSH1 0x40 SWAP1 KECCAK256 SLOAD DUP6 SLOAD SWAP2 SWAP3 POP GT ISZERO PUSH2 0x94E JUMPI PUSH1 0x40 MLOAD PUSH4 0x559B4B7 PUSH1 0xE3 SHL DUP2 MSTORE PUSH1 0x4 DUP2 ADD DUP3 SWAP1 MSTORE PUSH1 0x24 ADD PUSH2 0x7A9 JUMP JUMPDEST PUSH1 0x0 DUP2 DUP2 MSTORE PUSH1 0x2 DUP6 ADD PUSH1 0x20 MSTORE PUSH1 0x40 SWAP1 DUP2 SWAP1 KECCAK256 NUMBER SWAP1 SSTORE PUSH2 0x973 SWAP1 PUSH1 0x60 DUP10 ADD SWAP1 DUP10 ADD PUSH2 0x1F67 JUMP JUMPDEST PUSH1 0x1 PUSH1 0x1 PUSH1 0xA0 SHL SUB SWAP1 DUP2 AND SWAP1 DUP10 AND CALLER PUSH32 0x5FDCD271FF15DB84CBC94365956DF5504F6D756E111654144648433C11A44530 DUP5 DUP12 PUSH2 0x9B2 PUSH1 0x60 DUP3 ADD DUP3 PUSH2 0x243B JUMP JUMPDEST DUP13 PUSH1 0x40 MLOAD PUSH2 0x9C3 SWAP5 SWAP4 SWAP3 SWAP2 SWAP1 PUSH2 0x2738 JUMP JUMPDEST PUSH1 0x40 MLOAD DUP1 SWAP2 SUB SWAP1 LOG4 POP POP POP POP POP SWAP3 SWAP2 POP POP JUMP JUMPDEST PUSH1 0x0 PUSH2 0x9F5 PUSH1 0x40 MLOAD DUP1 PUSH1 0x40 ADD PUSH1 0x40 MSTORE DUP1 PUSH1 0x60 DUP2 MSTORE PUSH1 0x20 ADD PUSH1 0x60 DUP2 MSTORE POP SWAP1 JUMP JUMPDEST PUSH1 0x0 PUSH2 0xA07 PUSH1 0x60 DUP6 ADD PUSH1 0x40 DUP7 ADD PUSH2 0x1F67 JUMP JUMPDEST PUSH1 0x1 SLOAD PUSH1 0x40 MLOAD PUSH4 0xF29EE125 PUSH1 0xE0 SHL DUP2 MSTORE PUSH1 0x1 PUSH1 0x1 PUSH1 0xA0 SHL SUB DUP1 DUP5 AND PUSH1 0x4 DUP4 ADD MSTORE SWAP3 SWAP4 POP SWAP2 AND SWAP1 PUSH4 0xF29EE125 SWAP1 PUSH1 0x24 ADD PUSH1 0x20 PUSH1 0x40 MLOAD DUP1 DUP4 SUB DUP2 DUP7 GAS STATICCALL ISZERO DUP1 ISZERO PUSH2 0xA53 JUMPI RETURNDATASIZE PUSH1 0x0 DUP1 RETURNDATACOPY RETURNDATASIZE PUSH1 0x0 REVERT JUMPDEST POP POP POP POP PUSH1 0x40 MLOAD RETURNDATASIZE PUSH1 0x1F NOT PUSH1 0x1F DUP3 ADD AND DUP3 ADD DUP1 PUSH1 0x40 MSTORE POP DUP2 ADD SWAP1 PUSH2 0xA77 SWAP2 SWAP1 PUSH2 0x2770 JUMP JUMPDEST PUSH2 0xA94 JUMPI PUSH1 0x40 MLOAD PUSH4 0x353FAAD PUSH1 0xE2 SHL DUP2 MSTORE PUSH1 0x4 ADD PUSH1 0x40 MLOAD DUP1 SWAP2 SUB SWAP1 REVERT JUMPDEST PUSH1 0x40 MLOAD PUSH4 0x9AF3E909 PUSH1 0xE0 SHL DUP2 MSTORE PUSH1 0x0 SWAP1 PUSH1 0x1 PUSH1 0x1 PUSH1 0xA0 SHL SUB DUP4 AND SWAP1 PUSH4 0x9AF3E909 SWAP1 PUSH2 0xAC3 SWAP1 DUP9 SWAP1 PUSH1 0x4 ADD PUSH2 0x222D JUMP JUMPDEST PUSH1 0x0 PUSH1 0x40 MLOAD DUP1 DUP4 SUB DUP2 DUP7 GAS STATICCALL ISZERO DUP1 ISZERO PUSH2 0xAE0 JUMPI RETURNDATASIZE PUSH1 0x0 DUP1 RETURNDATACOPY RETURNDATASIZE PUSH1 0x0 REVERT JUMPDEST POP POP POP POP PUSH1 0x40 MLOAD RETURNDATASIZE PUSH1 0x0 DUP3 RETURNDATACOPY PUSH1 0x1F RETURNDATASIZE SWAP1 DUP2 ADD PUSH1 0x1F NOT AND DUP3 ADD PUSH1 0x40 MSTORE PUSH2 0xB08 SWAP2 SWAP1 DUP2 ADD SWAP1 PUSH2 0x22B2 JUMP JUMPDEST PUSH1 0x20 DUP2 ADD MLOAD SWAP1 SWAP2 POP PUSH1 0x1 PUSH1 0x1 PUSH1 0xA0 SHL SUB AND PUSH4 0xF10832F1 DUP8 PUSH2 0xB2C PUSH1 0x60 DUP10 ADD DUP10 PUSH2 0x21BA JUMP JUMPDEST PUSH1 0x40 MLOAD DUP5 PUSH4 0xFFFFFFFF AND PUSH1 0xE0 SHL DUP2 MSTORE PUSH1 0x4 ADD PUSH2 0xB4A SWAP4 SWAP3 SWAP2 SWAP1 PUSH2 0x2792 JUMP JUMPDEST PUSH1 0x0 PUSH1 0x40 MLOAD DUP1 DUP4 SUB DUP2 PUSH1 0x0 DUP8 GAS CALL ISZERO DUP1 ISZERO PUSH2 0xB69 JUMPI RETURNDATASIZE PUSH1 0x0 DUP1 RETURNDATACOPY RETURNDATASIZE PUSH1 0x0 REVERT JUMPDEST POP POP POP POP PUSH1 0x40 MLOAD RETURNDATASIZE PUSH1 0x0 DUP3 RETURNDATACOPY PUSH1 0x1F RETURNDATASIZE SWAP1 DUP2 ADD PUSH1 0x1F NOT AND DUP3 ADD PUSH1 0x40 MSTORE PUSH2 0xB91 SWAP2 SWAP1 DUP2 ADD SWAP1 PUSH2 0x2895 JUMP JUMPDEST SWAP1 SWAP5 POP SWAP3 POP PUSH1 0x0 PUSH2 0xBA2 DUP8 DUP7 PUSH2 0x17D1 JUMP JUMPDEST SWAP1 POP PUSH1 0x0 PUSH2 0xBE7 PUSH2 0xBB8 CALLDATASIZE DUP10 SWAP1 SUB DUP10 ADD DUP10 PUSH2 0x2091 JUMP JUMPDEST PUSH2 0xBC5 DUP8 PUSH1 0x20 ADD MLOAD PUSH2 0x1814 JUMP JUMPDEST DUP8 MLOAD PUSH2 0xBD0 SWAP1 PUSH2 0x19F7 JUMP JUMPDEST PUSH1 0x40 MLOAD DUP1 PUSH1 0x20 ADD PUSH1 0x40 MSTORE DUP1 PUSH1 0x0 DUP2 MSTORE POP PUSH1 0x1 PUSH2 0x1844 JUMP JUMPDEST PUSH1 0x0 DUP4 DUP2 MSTORE PUSH1 0x20 DUP2 SWAP1 MSTORE PUSH1 0x40 SWAP1 KECCAK256 PUSH1 0x1 DUP2 ADD SLOAD SWAP2 SWAP3 POP SWAP1 ISZERO PUSH2 0xC1C JUMPI PUSH1 0x40 MLOAD PUSH4 0x6972275B PUSH1 0xE1 SHL DUP2 MSTORE PUSH1 0x4 ADD PUSH1 0x40 MLOAD DUP1 SWAP2 SUB SWAP1 REVERT JUMPDEST PUSH1 0x0 DUP3 DUP2 MSTORE PUSH1 0x2 DUP3 ADD PUSH1 0x20 MSTORE PUSH1 0x40 SWAP1 KECCAK256 SLOAD DUP2 SLOAD LT ISZERO PUSH2 0xC51 JUMPI PUSH1 0x40 MLOAD PUSH4 0x559B4B7 PUSH1 0xE3 SHL DUP2 MSTORE PUSH1 0x4 DUP2 ADD DUP4 SWAP1 MSTORE PUSH1 0x24 ADD PUSH2 0x7A9 JUMP JUMPDEST PUSH1 0x0 DUP3 DUP2 MSTORE PUSH1 0x2 DUP3 ADD PUSH1 0x20 MSTORE PUSH1 0x40 SWAP1 KECCAK256 NUMBER SWAP1 SSTORE PUSH1 0x1 PUSH1 0x1 PUSH1 0xA0 SHL SUB DUP1 DUP7 AND SWAP1 DUP11 AND CALLER PUSH32 0x8EA69CEE01FD9FC24E6B9614EA0896C5A1EAC8FD8ABA383285248CD0E1D8503A DUP6 DUP13 PUSH2 0xCA3 PUSH1 0x60 DUP3 ADD DUP3 PUSH2 0x21BA JUMP JUMPDEST DUP15 DUP15 PUSH1 0x40 MLOAD PUSH2 0xCB7 SWAP7 SWAP6 SWAP5 SWAP4 SWAP3 SWAP2 SWAP1 PUSH2 0x28DB JUMP JUMPDEST PUSH1 0x40 MLOAD DUP1 SWAP2 SUB SWAP1 LOG4 POP POP POP POP POP JUMPDEST SWAP3 POP SWAP3 SWAP1 POP JUMP JUMPDEST DUP2 PUSH32 0xBD4DBACF5BA6D9793F600403B3293D6ECD695FCC703A2B5EDCF245F45FDA6CFA PUSH2 0xCF8 DUP3 DUP3 PUSH2 0x1704 JUMP JUMPDEST PUSH1 0x0 PUSH2 0xD0B DUP6 PUSH2 0x2CB PUSH1 0x20 DUP8 ADD DUP8 PUSH2 0x1F67 JUMP JUMPDEST PUSH1 0x0 DUP2 DUP2 MSTORE PUSH1 0x20 DUP2 DUP2 MSTORE PUSH1 0x40 DUP3 KECCAK256 SWAP3 SWAP4 POP PUSH2 0xD8E SWAP1 PUSH2 0xD32 SWAP1 CALLDATASIZE DUP10 SWAP1 SUB DUP10 ADD SWAP1 DUP10 ADD PUSH2 0x2091 JUMP JUMPDEST PUSH2 0x8DE PUSH2 0xD42 PUSH1 0x80 DUP11 ADD DUP11 PUSH2 0x20D5 JUMP JUMPDEST DUP1 DUP1 PUSH1 0x20 MUL PUSH1 0x20 ADD PUSH1 0x40 MLOAD SWAP1 DUP2 ADD PUSH1 0x40 MSTORE DUP1 SWAP4 SWAP3 SWAP2 SWAP1 DUP2 DUP2 MSTORE PUSH1 0x20 ADD PUSH1 0x0 SWAP1 JUMPDEST DUP3 DUP3 LT ISZERO PUSH2 0x353 JUMPI PUSH2 0xD7F PUSH1 0xA0 DUP4 MUL DUP7 ADD CALLDATASIZE DUP2 SWAP1 SUB DUP2 ADD SWAP1 PUSH2 0x212A JUMP JUMPDEST DUP2 MSTORE PUSH1 0x20 ADD SWAP1 PUSH1 0x1 ADD SWAP1 PUSH2 0xD62 JUMP JUMPDEST SWAP1 POP PUSH2 0xD9A DUP4 DUP3 PUSH2 0x1496 JUMP JUMPDEST NUMBER DUP3 SSTORE PUSH1 0x0 PUSH1 0x1 DUP4 ADD DUP2 SWAP1 SSTORE PUSH2 0xDB3 PUSH1 0x80 DUP9 ADD DUP9 PUSH2 0x20D5 JUMP JUMPDEST SWAP1 POP GT ISZERO PUSH2 0xE27 JUMPI PUSH1 0x1 PUSH1 0x1 PUSH1 0xA0 SHL SUB DUP8 AND PUSH4 0xE978AFE5 PUSH2 0xDD7 PUSH1 0x80 DUP10 ADD DUP10 PUSH2 0x20D5 JUMP JUMPDEST PUSH1 0x40 MLOAD DUP4 PUSH4 0xFFFFFFFF AND PUSH1 0xE0 SHL DUP2 MSTORE PUSH1 0x4 ADD PUSH2 0xDF4 SWAP3 SWAP2 SWAP1 PUSH2 0x2398 JUMP JUMPDEST PUSH1 0x0 PUSH1 0x40 MLOAD DUP1 DUP4 SUB DUP2 PUSH1 0x0 DUP8 DUP1 EXTCODESIZE ISZERO DUP1 ISZERO PUSH2 0xE0E JUMPI PUSH1 0x0 DUP1 REVERT JUMPDEST POP GAS CALL ISZERO DUP1 ISZERO PUSH2 0xE22 JUMPI RETURNDATASIZE PUSH1 0x0 DUP1 RETURNDATACOPY RETURNDATASIZE PUSH1 0x0 REVERT JUMPDEST POP POP POP POP JUMPDEST PUSH2 0xE34 PUSH1 0x20 DUP8 ADD DUP8 PUSH2 0x1F67 JUMP JUMPDEST PUSH1 0x1 PUSH1 0x1 PUSH1 0xA0 SHL SUB AND DUP8 PUSH1 0x1 PUSH1 0x1 PUSH1 0xA0 SHL SUB AND PUSH32 0xA0E5D4CE6420A0E7A5F0AC10C47B3A672FB661C11F5609BB21B68644D81E17AA DUP4 PUSH1 0x40 MLOAD PUSH2 0xE78 SWAP2 DUP2 MSTORE PUSH1 0x20 ADD SWAP1 JUMP JUMPDEST PUSH1 0x40 MLOAD DUP1 SWAP2 SUB SWAP1 LOG3 POP POP POP POP POP POP POP JUMP JUMPDEST PUSH1 0x60 PUSH2 0xEA8 PUSH1 0x40 MLOAD DUP1 PUSH1 0x40 ADD PUSH1 0x40 MSTORE DUP1 PUSH1 0x60 DUP2 MSTORE PUSH1 0x20 ADD PUSH1 0x60 DUP2 MSTORE POP SWAP1 JUMP JUMPDEST PUSH2 0xEB8 PUSH1 0x60 DUP5 ADD PUSH1 0x40 DUP6 ADD PUSH2 0x2923 JUMP JUMPDEST PUSH1 0xFF AND PUSH2 0xEC8 PUSH1 0x20 DUP6 ADD DUP6 PUSH2 0x2923 JUMP JUMPDEST PUSH1 0xFF AND EQ ISZERO DUP1 PUSH2 0xEFE JUMPI POP PUSH2 0xEE3 PUSH1 0x80 DUP5 ADD PUSH1 0x60 DUP6 ADD PUSH2 0x2940 JUMP JUMPDEST PUSH2 0xFFFF AND PUSH2 0xEF7 PUSH1 0x40 DUP6 ADD PUSH1 0x20 DUP7 ADD PUSH2 0x2940 JUMP JUMPDEST PUSH2 0xFFFF AND LT ISZERO JUMPDEST ISZERO PUSH2 0xF23 JUMPI PUSH1 0x40 DUP1 MLOAD PUSH4 0x80D4E907 PUSH1 0xE0 SHL DUP2 MSTORE PUSH2 0x7A9 SWAP2 DUP6 SWAP2 SWAP1 DUP3 ADD SWAP1 PUSH1 0x4 ADD PUSH2 0x295D JUMP JUMPDEST PUSH1 0x0 PUSH2 0xF36 DUP6 PUSH2 0x6EC PUSH1 0xA0 DUP8 ADD DUP8 PUSH2 0x243B JUMP JUMPDEST PUSH1 0x0 DUP2 DUP2 MSTORE PUSH1 0x20 DUP2 SWAP1 MSTORE PUSH1 0x40 DUP2 KECCAK256 SWAP2 SWAP3 POP PUSH2 0xF57 PUSH2 0x72D PUSH1 0xA0 DUP9 ADD DUP9 PUSH2 0x243B JUMP JUMPDEST SWAP1 POP PUSH1 0x0 PUSH2 0xFA3 PUSH1 0x40 MLOAD DUP1 PUSH1 0x40 ADD PUSH1 0x40 MSTORE DUP1 DUP10 PUSH1 0x0 ADD DUP1 CALLDATASIZE SUB DUP2 ADD SWAP1 PUSH2 0xF7D SWAP2 SWAP1 PUSH2 0x2978 JUMP JUMPDEST DUP2 MSTORE PUSH1 0x20 ADD PUSH2 0xF92 PUSH1 0xA0 DUP12 ADD PUSH1 0x80 DUP13 ADD PUSH2 0x1F67 JUMP JUMPDEST PUSH1 0x1 PUSH1 0x1 PUSH1 0xA0 SHL SUB AND SWAP1 MSTORE DUP4 PUSH2 0x188C JUMP JUMPDEST SWAP1 POP DUP1 DUP4 PUSH1 0x1 ADD SLOAD EQ PUSH2 0xFD9 JUMPI PUSH1 0x1 DUP4 ADD SLOAD PUSH1 0x40 MLOAD PUSH4 0x39D2755 PUSH1 0xE5 SHL DUP2 MSTORE PUSH1 0x4 DUP2 ADD SWAP2 SWAP1 SWAP2 MSTORE PUSH1 0x24 DUP2 ADD DUP3 SWAP1 MSTORE PUSH1 0x44 ADD PUSH2 0x7A9 JUMP JUMPDEST PUSH1 0x0 PUSH2 0xFEB PUSH1 0xA0 DUP10 ADD PUSH1 0x80 DUP11 ADD PUSH2 0x1F67 JUMP JUMPDEST PUSH1 0x40 MLOAD PUSH4 0x9AF3E909 PUSH1 0xE0 SHL DUP2 MSTORE PUSH1 0x1 PUSH1 0x1 PUSH1 0xA0 SHL SUB SWAP2 SWAP1 SWAP2 AND SWAP1 PUSH4 0x9AF3E909 SWAP1 PUSH2 0x1019 SWAP1 DUP12 SWAP1 PUSH1 0x4 ADD PUSH2 0x222D JUMP JUMPDEST PUSH1 0x0 PUSH1 0x40 MLOAD DUP1 DUP4 SUB DUP2 DUP7 GAS STATICCALL ISZERO DUP1 ISZERO PUSH2 0x1036 JUMPI RETURNDATASIZE PUSH1 0x0 DUP1 RETURNDATACOPY RETURNDATASIZE PUSH1 0x0 REVERT JUMPDEST POP POP POP POP PUSH1 0x40 MLOAD RETURNDATASIZE PUSH1 0x0 DUP3 RETURNDATACOPY PUSH1 0x1F RETURNDATASIZE SWAP1 DUP2 ADD PUSH1 0x1F NOT AND DUP3 ADD PUSH1 0x40 MSTORE PUSH2 0x105E SWAP2 SWAP1 DUP2 ADD SWAP1 PUSH2 0x22B2 JUMP JUMPDEST SWAP1 POP PUSH1 0x0 PUSH2 0x1072 PUSH1 0xA0 DUP11 ADD PUSH1 0x80 DUP12 ADD PUSH2 0x1F67 JUMP JUMPDEST PUSH1 0x1 PUSH1 0x1 PUSH1 0xA0 SHL SUB AND PUSH4 0x9AF3E909 DUP11 PUSH1 0x40 ADD PUSH1 0x40 MLOAD DUP3 PUSH4 0xFFFFFFFF AND PUSH1 0xE0 SHL DUP2 MSTORE PUSH1 0x4 ADD PUSH2 0x10A0 SWAP2 SWAP1 PUSH2 0x222D JUMP JUMPDEST PUSH1 0x0 PUSH1 0x40 MLOAD DUP1 DUP4 SUB DUP2 DUP7 GAS STATICCALL ISZERO DUP1 ISZERO PUSH2 0x10BD JUMPI RETURNDATASIZE PUSH1 0x0 DUP1 RETURNDATACOPY RETURNDATASIZE PUSH1 0x0 REVERT JUMPDEST POP POP POP POP PUSH1 0x40 MLOAD RETURNDATASIZE PUSH1 0x0 DUP3 RETURNDATACOPY PUSH1 0x1F RETURNDATASIZE SWAP1 DUP2 ADD PUSH1 0x1F NOT AND DUP3 ADD PUSH1 0x40 MSTORE PUSH2 0x10E5 SWAP2 SWAP1 DUP2 ADD SWAP1 PUSH2 0x22B2 JUMP JUMPDEST SWAP1 POP PUSH1 0x0 DUP2 PUSH1 0x20 ADD MLOAD PUSH1 0x1 PUSH1 0x1 PUSH1 0xA0 SHL SUB AND DUP4 PUSH1 0x20 ADD MLOAD PUSH1 0x1 PUSH1 0x1 PUSH1 0xA0 SHL SUB AND SUB PUSH2 0x11DC JUMPI PUSH2 0x1186 PUSH1 0x40 MLOAD DUP1 PUSH1 0x40 ADD PUSH1 0x40 MSTORE DUP1 DUP13 PUSH1 0x40 ADD DUP1 CALLDATASIZE SUB DUP2 ADD SWAP1 PUSH2 0x112C SWAP2 SWAP1 PUSH2 0x2978 JUMP JUMPDEST DUP2 MSTORE PUSH1 0x20 ADD PUSH2 0x1141 PUSH1 0xA0 DUP15 ADD PUSH1 0x80 DUP16 ADD PUSH2 0x1F67 JUMP JUMPDEST PUSH1 0x1 PUSH1 0x1 PUSH1 0xA0 SHL SUB AND SWAP1 MSTORE PUSH1 0x40 DUP1 MLOAD PUSH1 0x20 DUP2 ADD SWAP1 SWAP2 MSTORE PUSH1 0x0 DUP2 MSTORE PUSH32 0x569E75FC77C1A856F6DAAF9E69D8A9566CA34AA47F9133711CE065A571AF0CFD SWAP1 DUP9 SWAP1 PUSH1 0x2 PUSH2 0x1844 JUMP JUMPDEST SWAP1 POP PUSH2 0x1195 PUSH1 0xA0 DUP12 ADD DUP12 PUSH2 0x243B JUMP JUMPDEST PUSH2 0x11A3 SWAP1 PUSH1 0x20 DUP2 ADD SWAP1 PUSH2 0x245B JUMP JUMPDEST DUP1 DUP1 PUSH1 0x20 MUL PUSH1 0x20 ADD PUSH1 0x40 MLOAD SWAP1 DUP2 ADD PUSH1 0x40 MSTORE DUP1 SWAP4 SWAP3 SWAP2 SWAP1 DUP2 DUP2 MSTORE PUSH1 0x20 ADD DUP4 DUP4 PUSH1 0x20 MUL DUP1 DUP3 DUP5 CALLDATACOPY PUSH1 0x0 SWAP3 ADD SWAP2 SWAP1 SWAP2 MSTORE POP POP POP SWAP1 DUP10 MSTORE POP PUSH2 0x1433 JUMP JUMPDEST PUSH2 0x1211 PUSH4 0x41DE683 PUSH1 0xE4 SHL PUSH2 0x11F4 PUSH1 0xA0 DUP14 ADD DUP14 PUSH2 0x243B JUMP JUMPDEST PUSH2 0x1202 SWAP1 PUSH1 0x20 DUP2 ADD SWAP1 PUSH2 0x1F67 JUMP JUMPDEST PUSH1 0x1 PUSH1 0x1 PUSH1 0xA0 SHL SUB AND SWAP1 PUSH2 0x1A0A JUMP JUMPDEST PUSH2 0x1255 JUMPI PUSH2 0x1222 PUSH1 0xA0 DUP12 ADD DUP12 PUSH2 0x243B JUMP JUMPDEST PUSH2 0x1230 SWAP1 PUSH1 0x20 DUP2 ADD SWAP1 PUSH2 0x1F67 JUMP JUMPDEST PUSH1 0x40 MLOAD PUSH4 0x8174FF55 PUSH1 0xE0 SHL DUP2 MSTORE PUSH1 0x1 PUSH1 0x1 PUSH1 0xA0 SHL SUB SWAP1 SWAP2 AND PUSH1 0x4 DUP3 ADD MSTORE PUSH1 0x24 ADD PUSH2 0x7A9 JUMP JUMPDEST PUSH1 0x0 PUSH2 0x1264 PUSH1 0xA0 DUP13 ADD DUP13 PUSH2 0x243B JUMP JUMPDEST PUSH2 0x1272 SWAP1 PUSH1 0x20 DUP2 ADD SWAP1 PUSH2 0x1F67 JUMP JUMPDEST PUSH1 0x1 PUSH1 0x1 PUSH1 0xA0 SHL SUB AND PUSH4 0x41DE6830 PUSH1 0x40 MLOAD DUP2 PUSH4 0xFFFFFFFF AND PUSH1 0xE0 SHL DUP2 MSTORE PUSH1 0x4 ADD PUSH1 0x20 PUSH1 0x40 MLOAD DUP1 DUP4 SUB DUP2 DUP7 GAS STATICCALL ISZERO DUP1 ISZERO PUSH2 0x12AF JUMPI RETURNDATASIZE PUSH1 0x0 DUP1 RETURNDATACOPY RETURNDATASIZE PUSH1 0x0 REVERT JUMPDEST POP POP POP POP PUSH1 0x40 MLOAD RETURNDATASIZE PUSH1 0x1F NOT PUSH1 0x1F DUP3 ADD AND DUP3 ADD DUP1 PUSH1 0x40 MSTORE POP DUP2 ADD SWAP1 PUSH2 0x12D3 SWAP2 SWAP1 PUSH2 0x2994 JUMP JUMPDEST PUSH1 0x2 DUP2 GT ISZERO PUSH2 0x12E4 JUMPI PUSH2 0x12E4 PUSH2 0x1C84 JUMP JUMPDEST EQ PUSH2 0x1329 JUMPI PUSH2 0x12F6 PUSH1 0xA0 DUP12 ADD DUP12 PUSH2 0x243B JUMP JUMPDEST PUSH2 0x1304 SWAP1 PUSH1 0x20 DUP2 ADD SWAP1 PUSH2 0x1F67 JUMP JUMPDEST PUSH1 0x40 MLOAD PUSH4 0x390D5B25 PUSH1 0xE2 SHL DUP2 MSTORE PUSH1 0x1 PUSH1 0x1 PUSH1 0xA0 SHL SUB SWAP1 SWAP2 AND PUSH1 0x4 DUP3 ADD MSTORE PUSH1 0x24 ADD PUSH2 0x7A9 JUMP JUMPDEST DUP2 PUSH1 0x20 ADD MLOAD PUSH1 0x1 PUSH1 0x1 PUSH1 0xA0 SHL SUB AND PUSH4 0xA8A9C29E DUP13 DUP13 PUSH1 0x0 ADD PUSH1 0x20 ADD PUSH1 0x20 DUP2 ADD SWAP1 PUSH2 0x1353 SWAP2 SWAP1 PUSH2 0x2940 JUMP JUMPDEST PUSH2 0x1360 PUSH1 0xA0 DUP16 ADD DUP16 PUSH2 0x243B JUMP JUMPDEST PUSH1 0x40 MLOAD DUP5 PUSH4 0xFFFFFFFF AND PUSH1 0xE0 SHL DUP2 MSTORE PUSH1 0x4 ADD PUSH2 0x137E SWAP4 SWAP3 SWAP2 SWAP1 PUSH2 0x29B1 JUMP JUMPDEST PUSH1 0x0 PUSH1 0x40 MLOAD DUP1 DUP4 SUB DUP2 PUSH1 0x0 DUP8 GAS CALL ISZERO DUP1 ISZERO PUSH2 0x139D JUMPI RETURNDATASIZE PUSH1 0x0 DUP1 RETURNDATACOPY RETURNDATASIZE PUSH1 0x0 REVERT JUMPDEST POP POP POP POP PUSH1 0x40 MLOAD RETURNDATASIZE PUSH1 0x0 DUP3 RETURNDATACOPY PUSH1 0x1F RETURNDATASIZE SWAP1 DUP2 ADD PUSH1 0x1F NOT AND DUP3 ADD PUSH1 0x40 MSTORE PUSH2 0x13C5 SWAP2 SWAP1 DUP2 ADD SWAP1 PUSH2 0x29DF JUMP JUMPDEST DUP1 SWAP10 POP DUP2 SWAP11 POP POP POP PUSH2 0x1430 PUSH1 0x40 MLOAD DUP1 PUSH1 0x40 ADD PUSH1 0x40 MSTORE DUP1 DUP13 PUSH1 0x40 ADD DUP1 CALLDATASIZE SUB DUP2 ADD SWAP1 PUSH2 0x13EF SWAP2 SWAP1 PUSH2 0x2978 JUMP JUMPDEST DUP2 MSTORE PUSH1 0x20 ADD PUSH2 0x1404 PUSH1 0xA0 DUP15 ADD PUSH1 0x80 DUP16 ADD PUSH2 0x1F67 JUMP JUMPDEST PUSH1 0x1 PUSH1 0x1 PUSH1 0xA0 SHL SUB AND DUP2 MSTORE POP PUSH2 0x141D DUP11 PUSH1 0x20 ADD MLOAD PUSH2 0x1814 JUMP JUMPDEST DUP11 MLOAD PUSH2 0x1428 SWAP1 PUSH2 0x19F7 JUMP JUMPDEST DUP13 PUSH1 0x2 PUSH2 0x1844 JUMP JUMPDEST SWAP1 POP JUMPDEST PUSH1 0x0 DUP2 DUP2 MSTORE PUSH1 0x2 DUP8 ADD PUSH1 0x20 MSTORE PUSH1 0x40 SWAP1 KECCAK256 SLOAD DUP7 SLOAD LT ISZERO PUSH2 0x1468 JUMPI PUSH1 0x40 MLOAD PUSH4 0x559B4B7 PUSH1 0xE3 SHL DUP2 MSTORE PUSH1 0x4 DUP2 ADD DUP3 SWAP1 MSTORE PUSH1 0x24 ADD PUSH2 0x7A9 JUMP JUMPDEST PUSH1 0x0 DUP2 DUP2 MSTORE PUSH1 0x2 DUP8 ADD PUSH1 0x20 MSTORE PUSH1 0x40 SWAP1 KECCAK256 NUMBER SWAP1 SSTORE PUSH2 0x1488 DUP12 DUP3 DUP13 DUP12 DUP14 PUSH2 0x1A2D JUMP JUMPDEST POP POP POP POP POP POP POP SWAP3 POP SWAP3 SWAP1 POP JUMP JUMPDEST PUSH1 0x0 DUP3 DUP2 MSTORE PUSH1 0x20 DUP2 DUP2 MSTORE PUSH1 0x40 DUP1 DUP4 KECCAK256 DUP5 DUP5 MSTORE PUSH1 0x2 DUP2 ADD SWAP1 SWAP3 MSTORE SWAP1 SWAP2 KECCAK256 SLOAD DUP2 SLOAD LT PUSH2 0x14D6 JUMPI PUSH1 0x40 MLOAD PUSH4 0x2CB98673 PUSH1 0xE1 SHL DUP2 MSTORE PUSH1 0x4 DUP2 ADD DUP4 SWAP1 MSTORE PUSH1 0x24 ADD PUSH2 0x7A9 JUMP JUMPDEST POP POP POP JUMP JUMPDEST DUP2 PUSH32 0xF796B89427C6552C1AC705D833BFB7909F8EB5CE502C1DB97F85FABC6AD83548 PUSH2 0x1507 DUP3 DUP3 PUSH2 0x1704 JUMP JUMPDEST PUSH1 0x0 PUSH2 0x151D DUP6 PUSH2 0x2CB PUSH1 0x80 DUP8 ADD PUSH1 0x60 DUP9 ADD PUSH2 0x1F67 JUMP JUMPDEST PUSH1 0x0 DUP2 DUP2 MSTORE PUSH1 0x20 DUP2 SWAP1 MSTORE PUSH1 0x40 DUP2 KECCAK256 SWAP2 SWAP3 POP PUSH2 0x15B8 PUSH2 0x1540 CALLDATASIZE DUP9 SWAP1 SUB DUP9 ADD DUP9 PUSH2 0x2091 JUMP JUMPDEST PUSH2 0x159C PUSH2 0x1550 PUSH1 0x80 DUP11 ADD DUP11 PUSH2 0x20D5 JUMP JUMPDEST DUP1 DUP1 PUSH1 0x20 MUL PUSH1 0x20 ADD PUSH1 0x40 MLOAD SWAP1 DUP2 ADD PUSH1 0x40 MSTORE DUP1 SWAP4 SWAP3 SWAP2 SWAP1 DUP2 DUP2 MSTORE PUSH1 0x20 ADD PUSH1 0x0 SWAP1 JUMPDEST DUP3 DUP3 LT ISZERO PUSH2 0x353 JUMPI PUSH2 0x158D PUSH1 0xA0 DUP4 MUL DUP7 ADD CALLDATASIZE DUP2 SWAP1 SUB DUP2 ADD SWAP1 PUSH2 0x212A JUMP JUMPDEST DUP2 MSTORE PUSH1 0x20 ADD SWAP1 PUSH1 0x1 ADD SWAP1 PUSH2 0x1570 JUMP JUMPDEST DUP9 PUSH1 0xA0 ADD CALLDATALOAD PUSH1 0x40 MLOAD DUP1 PUSH1 0x20 ADD PUSH1 0x40 MSTORE DUP1 PUSH1 0x0 DUP2 MSTORE POP PUSH1 0x1 PUSH2 0x1844 JUMP JUMPDEST PUSH1 0x1 DUP4 ADD SLOAD SWAP1 SWAP2 POP ISZERO PUSH2 0x15DE JUMPI PUSH1 0x40 MLOAD PUSH4 0x6972275B PUSH1 0xE1 SHL DUP2 MSTORE PUSH1 0x4 ADD PUSH1 0x40 MLOAD DUP1 SWAP2 SUB SWAP1 REVERT JUMPDEST PUSH2 0x15E8 DUP4 DUP3 PUSH2 0x1496 JUMP JUMPDEST PUSH1 0x0 PUSH2 0x1606 PUSH2 0x15FC CALLDATASIZE DUP10 SWAP1 SUB DUP10 ADD DUP10 PUSH2 0x2091 JUMP JUMPDEST DUP9 PUSH1 0xA0 ADD CALLDATALOAD PUSH2 0x188C JUMP JUMPDEST PUSH1 0x1 DUP5 ADD DUP2 SWAP1 SSTORE NUMBER DUP5 SSTORE SWAP1 POP PUSH1 0x0 PUSH2 0x1621 PUSH1 0x80 DUP10 ADD DUP10 PUSH2 0x20D5 JUMP JUMPDEST SWAP1 POP GT ISZERO PUSH2 0x1695 JUMPI PUSH1 0x1 PUSH1 0x1 PUSH1 0xA0 SHL SUB DUP9 AND PUSH4 0xE978AFE5 PUSH2 0x1645 PUSH1 0x80 DUP11 ADD DUP11 PUSH2 0x20D5 JUMP JUMPDEST PUSH1 0x40 MLOAD DUP4 PUSH4 0xFFFFFFFF AND PUSH1 0xE0 SHL DUP2 MSTORE PUSH1 0x4 ADD PUSH2 0x1662 SWAP3 SWAP2 SWAP1 PUSH2 0x2398 JUMP JUMPDEST PUSH1 0x0 PUSH1 0x40 MLOAD DUP1 DUP4 SUB DUP2 PUSH1 0x0 DUP8 DUP1 EXTCODESIZE ISZERO DUP1 ISZERO PUSH2 0x167C JUMPI PUSH1 0x0 DUP1 REVERT JUMPDEST POP GAS CALL ISZERO DUP1 ISZERO PUSH2 0x1690 JUMPI RETURNDATASIZE PUSH1 0x0 DUP1 RETURNDATACOPY RETURNDATASIZE PUSH1 0x0 REVERT JUMPDEST POP POP POP POP JUMPDEST PUSH2 0x16A5 PUSH1 0x80 DUP9 ADD PUSH1 0x60 DUP10 ADD PUSH2 0x1F67 JUMP JUMPDEST PUSH1 0x1 PUSH1 0x1 PUSH1 0xA0 SHL SUB AND DUP9 PUSH1 0x1 PUSH1 0x1 PUSH1 0xA0 SHL SUB AND PUSH32 0x74E616C7264536B98A5EC234D051AE6CE1305BF05C85F9DDC112364440CCF129 DUP5 DUP5 PUSH1 0x40 MLOAD PUSH2 0x16F2 SWAP3 SWAP2 SWAP1 SWAP2 DUP3 MSTORE PUSH1 0x20 DUP3 ADD MSTORE PUSH1 0x40 ADD SWAP1 JUMP JUMPDEST PUSH1 0x40 MLOAD DUP1 SWAP2 SUB SWAP1 LOG3 POP POP POP POP POP POP POP POP JUMP JUMPDEST CALLER PUSH1 0x1 PUSH1 0x1 PUSH1 0xA0 SHL SUB DUP4 AND EQ DUP1 ISZERO SWAP1 PUSH2 0x1798 JUMPI POP PUSH1 0x40 DUP1 MLOAD PUSH1 0x20 DUP2 ADD DUP3 MSTORE PUSH1 0x0 DUP2 MSTORE SWAP1 MLOAD PUSH4 0x7EF7C883 PUSH1 0xE1 SHL DUP2 MSTORE PUSH1 0x1 PUSH1 0x1 PUSH1 0xA0 SHL SUB DUP5 AND SWAP2 PUSH4 0xFDEF9106 SWAP2 PUSH2 0x1755 SWAP2 ADDRESS SWAP2 CALLER SWAP2 DUP8 SWAP2 PUSH1 0x4 ADD PUSH2 0x2A38 JUMP JUMPDEST PUSH1 0x20 PUSH1 0x40 MLOAD DUP1 DUP4 SUB DUP2 DUP7 GAS STATICCALL ISZERO DUP1 ISZERO PUSH2 0x1772 JUMPI RETURNDATASIZE PUSH1 0x0 DUP1 RETURNDATACOPY RETURNDATASIZE PUSH1 0x0 REVERT JUMPDEST POP POP POP POP PUSH1 0x40 MLOAD RETURNDATASIZE PUSH1 0x1F NOT PUSH1 0x1F DUP3 ADD AND DUP3 ADD DUP1 PUSH1 0x40 MSTORE POP DUP2 ADD SWAP1 PUSH2 0x1796 SWAP2 SWAP1 PUSH2 0x2770 JUMP JUMPDEST ISZERO JUMPDEST ISZERO PUSH2 0x17CD JUMPI PUSH1 0x40 MLOAD PUSH3 0xAEB477 PUSH1 0xE5 SHL DUP2 MSTORE PUSH1 0x1 PUSH1 0x1 PUSH1 0xA0 SHL SUB DUP4 AND PUSH1 0x4 DUP3 ADD MSTORE CALLER PUSH1 0x24 DUP3 ADD MSTORE PUSH1 0x44 DUP2 ADD DUP3 SWAP1 MSTORE PUSH1 0x64 ADD PUSH2 0x7A9 JUMP JUMPDEST POP POP JUMP JUMPDEST PUSH1 0x40 DUP1 MLOAD PUSH1 0x1 PUSH1 0x1 PUSH1 0xA0 SHL SUB DUP1 DUP6 AND PUSH1 0x20 DUP4 ADD MSTORE DUP4 AND SWAP2 DUP2 ADD SWAP2 SWAP1 SWAP2 MSTORE PUSH1 0x0 SWAP1 PUSH1 0x60 ADD JUMPDEST PUSH1 0x40 MLOAD PUSH1 0x20 DUP2 DUP4 SUB SUB DUP2 MSTORE SWAP1 PUSH1 0x40 MSTORE DUP1 MLOAD SWAP1 PUSH1 0x20 ADD KECCAK256 SWAP1 POP JUMPDEST SWAP3 SWAP2 POP POP JUMP JUMPDEST PUSH1 0x0 DUP2 PUSH1 0x40 MLOAD PUSH1 0x20 ADD PUSH2 0x1827 SWAP2 SWAP1 PUSH2 0x1D3A JUMP JUMPDEST PUSH1 0x40 MLOAD PUSH1 0x20 DUP2 DUP4 SUB SUB DUP2 MSTORE SWAP1 PUSH1 0x40 MSTORE DUP1 MLOAD SWAP1 PUSH1 0x20 ADD KECCAK256 SWAP1 POP SWAP2 SWAP1 POP JUMP JUMPDEST DUP5 MLOAD PUSH1 0x20 DUP1 DUP8 ADD MLOAD DUP5 MLOAD DUP6 DUP4 ADD KECCAK256 PUSH1 0x40 MLOAD PUSH1 0x0 SWAP5 PUSH2 0x186B SWAP5 SWAP1 SWAP4 SWAP3 DUP11 SWAP3 DUP11 SWAP3 DUP10 SWAP2 ADD PUSH2 0x2A75 JUMP JUMPDEST PUSH1 0x40 MLOAD PUSH1 0x20 DUP2 DUP4 SUB SUB DUP2 MSTORE SWAP1 PUSH1 0x40 MSTORE DUP1 MLOAD SWAP1 PUSH1 0x20 ADD KECCAK256 SWAP1 POP SWAP6 SWAP5 POP POP POP POP POP JUMP JUMPDEST DUP2 MLOAD PUSH1 0x20 DUP1 DUP5 ADD MLOAD PUSH1 0x40 DUP1 MLOAD DUP5 MLOAD PUSH1 0xFF AND DUP2 DUP6 ADD MSTORE SWAP3 SWAP1 SWAP4 ADD MLOAD PUSH2 0xFFFF AND SWAP3 DUP3 ADD SWAP3 SWAP1 SWAP3 MSTORE PUSH1 0x1 PUSH1 0x1 PUSH1 0xA0 SHL SUB SWAP1 SWAP2 AND PUSH1 0x60 DUP3 ADD MSTORE PUSH1 0x80 DUP2 ADD DUP3 SWAP1 MSTORE PUSH1 0x0 SWAP1 PUSH1 0xA0 ADD PUSH2 0x17F5 JUMP JUMPDEST DUP1 MLOAD ISZERO PUSH2 0x19C9 JUMPI PUSH1 0x40 MLOAD PUSH4 0x278F7943 PUSH1 0xE1 SHL DUP2 MSTORE PUSH1 0x1 PUSH1 0x1 PUSH1 0xA0 SHL SUB DUP5 AND SWAP1 PUSH4 0x4F1EF286 SWAP1 PUSH2 0x1908 SWAP1 DUP6 SWAP1 DUP6 SWAP1 PUSH1 0x4 ADD PUSH2 0x2AD3 JUMP JUMPDEST PUSH1 0x0 PUSH1 0x40 MLOAD DUP1 DUP4 SUB DUP2 PUSH1 0x0 DUP8 DUP1 EXTCODESIZE ISZERO DUP1 ISZERO PUSH2 0x1922 JUMPI PUSH1 0x0 DUP1 REVERT JUMPDEST POP GAS CALL SWAP3 POP POP POP DUP1 ISZERO PUSH2 0x1933 JUMPI POP PUSH1 0x1 JUMPDEST PUSH2 0x14D6 JUMPI PUSH2 0x193F PUSH2 0x2AF7 JUMP JUMPDEST DUP1 PUSH4 0x8C379A0 SUB PUSH2 0x1978 JUMPI POP PUSH2 0x1953 PUSH2 0x2B13 JUMP JUMPDEST DUP1 PUSH2 0x195E JUMPI POP PUSH2 0x197A JUMP JUMPDEST DUP1 PUSH1 0x40 MLOAD PUSH3 0x461BCD PUSH1 0xE5 SHL DUP2 MSTORE PUSH1 0x4 ADD PUSH2 0x7A9 SWAP2 SWAP1 PUSH2 0x2B9C JUMP JUMPDEST POP JUMPDEST RETURNDATASIZE DUP1 DUP1 ISZERO PUSH2 0x19A4 JUMPI PUSH1 0x40 MLOAD SWAP2 POP PUSH1 0x1F NOT PUSH1 0x3F RETURNDATASIZE ADD AND DUP3 ADD PUSH1 0x40 MSTORE RETURNDATASIZE DUP3 MSTORE RETURNDATASIZE PUSH1 0x0 PUSH1 0x20 DUP5 ADD RETURNDATACOPY PUSH2 0x19A9 JUMP JUMPDEST PUSH1 0x60 SWAP2 POP JUMPDEST POP DUP4 DUP4 DUP4 PUSH1 0x40 MLOAD PUSH4 0x96E9E31B PUSH1 0xE0 SHL DUP2 MSTORE PUSH1 0x4 ADD PUSH2 0x7A9 SWAP4 SWAP3 SWAP2 SWAP1 PUSH2 0x2BAF JUMP JUMPDEST PUSH1 0x40 MLOAD PUSH4 0x1B2CE7F3 PUSH1 0xE1 SHL DUP2 MSTORE PUSH1 0x1 PUSH1 0x1 PUSH1 0xA0 SHL SUB DUP4 DUP2 AND PUSH1 0x4 DUP4 ADD MSTORE DUP5 AND SWAP1 PUSH4 0x3659CFE6 SWAP1 PUSH1 0x24 ADD PUSH2 0x1908 JUMP JUMPDEST PUSH1 0x0 DUP2 PUSH1 0x40 MLOAD PUSH1 0x20 ADD PUSH2 0x1827 SWAP2 SWAP1 PUSH2 0x2BDB JUMP JUMPDEST PUSH1 0x0 PUSH2 0x1A15 DUP4 PUSH2 0x1AA1 JUMP JUMPDEST DUP1 ISZERO PUSH2 0x1A26 JUMPI POP PUSH2 0x1A26 DUP4 DUP4 PUSH2 0x1AD4 JUMP JUMPDEST SWAP4 SWAP3 POP POP POP JUMP JUMPDEST PUSH2 0x1A3D PUSH1 0xA0 DUP5 ADD PUSH1 0x80 DUP6 ADD PUSH2 0x1F67 JUMP JUMPDEST PUSH1 0x1 PUSH1 0x1 PUSH1 0xA0 SHL SUB SWAP1 DUP2 AND SWAP1 DUP7 AND CALLER PUSH32 0x3686138D92841C8549B2FE39FDA23881FEF6AA9B347352114C0869BF5AF3E3F2 DUP8 PUSH1 0x40 DUP9 ADD PUSH2 0x1A7F PUSH1 0xA0 DUP11 ADD DUP11 PUSH2 0x243B JUMP JUMPDEST DUP9 DUP9 PUSH1 0x40 MLOAD PUSH2 0x1A92 SWAP6 SWAP5 SWAP4 SWAP3 SWAP2 SWAP1 PUSH2 0x2C28 JUMP JUMPDEST PUSH1 0x40 MLOAD DUP1 SWAP2 SUB SWAP1 LOG4 POP POP POP POP POP JUMP JUMPDEST PUSH1 0x0 PUSH2 0x1AB4 DUP3 PUSH4 0x1FFC9A7 PUSH1 0xE0 SHL PUSH2 0x1AD4 JUMP JUMPDEST DUP1 ISZERO PUSH2 0x180E JUMPI POP PUSH2 0x1ACD DUP3 PUSH1 0x1 PUSH1 0x1 PUSH1 0xE0 SHL SUB NOT PUSH2 0x1AD4 JUMP JUMPDEST ISZERO SWAP3 SWAP2 POP POP JUMP JUMPDEST PUSH1 0x40 DUP1 MLOAD PUSH1 0x1 PUSH1 0x1 PUSH1 0xE0 SHL SUB NOT DUP4 AND PUSH1 0x24 DUP1 DUP4 ADD SWAP2 SWAP1 SWAP2 MSTORE DUP3 MLOAD DUP1 DUP4 SUB SWAP1 SWAP2 ADD DUP2 MSTORE PUSH1 0x44 SWAP1 SWAP2 ADD SWAP1 SWAP2 MSTORE PUSH1 0x20 DUP1 DUP3 ADD DUP1 MLOAD PUSH1 0x1 PUSH1 0x1 PUSH1 0xE0 SHL SUB AND PUSH4 0x1FFC9A7 PUSH1 0xE0 SHL OR DUP2 MSTORE DUP3 MLOAD PUSH1 0x0 SWAP4 SWAP3 DUP5 SWAP3 DUP4 SWAP3 DUP4 SWAP3 SWAP2 DUP4 SWAP2 SWAP1 DUP11 PUSH2 0x7530 STATICCALL SWAP3 POP RETURNDATASIZE SWAP2 POP PUSH1 0x0 MLOAD SWAP1 POP DUP3 DUP1 ISZERO PUSH2 0x1B46 JUMPI POP PUSH1 0x20 DUP3 LT ISZERO JUMPDEST DUP1 ISZERO PUSH2 0x1B52 JUMPI POP PUSH1 0x0 DUP2 GT JUMPDEST SWAP8 SWAP7 POP POP POP POP POP POP POP JUMP JUMPDEST PUSH1 0x40 MLOAD DUP1 PUSH1 0x60 ADD PUSH1 0x40 MSTORE DUP1 PUSH1 0x3 SWAP1 PUSH1 0x20 DUP3 MUL DUP1 CALLDATASIZE DUP4 CALLDATACOPY POP SWAP2 SWAP3 SWAP2 POP POP JUMP JUMPDEST PUSH1 0x1 PUSH1 0x1 PUSH1 0xA0 SHL SUB DUP2 AND DUP2 EQ PUSH2 0x1B90 JUMPI PUSH1 0x0 DUP1 REVERT JUMPDEST POP JUMP JUMPDEST PUSH1 0x0 DUP1 PUSH1 0x40 DUP4 DUP6 SUB SLT ISZERO PUSH2 0x1BA6 JUMPI PUSH1 0x0 DUP1 REVERT JUMPDEST DUP3 CALLDATALOAD PUSH2 0x1BB1 DUP2 PUSH2 0x1B7B JUMP JUMPDEST SWAP2 POP PUSH1 0x20 DUP4 ADD CALLDATALOAD PUSH1 0x1 PUSH1 0x1 PUSH1 0x40 SHL SUB DUP2 GT ISZERO PUSH2 0x1BCC JUMPI PUSH1 0x0 DUP1 REVERT JUMPDEST DUP4 ADD PUSH1 0xE0 DUP2 DUP7 SUB SLT ISZERO PUSH2 0x1BDE JUMPI PUSH1 0x0 DUP1 REVERT JUMPDEST DUP1 SWAP2 POP POP SWAP3 POP SWAP3 SWAP1 POP JUMP JUMPDEST PUSH1 0x60 DUP2 ADD DUP2 DUP4 PUSH1 0x0 JUMPDEST PUSH1 0x3 DUP2 LT ISZERO PUSH2 0x1C14 JUMPI DUP2 MLOAD PUSH1 0xFF AND DUP4 MSTORE PUSH1 0x20 SWAP3 DUP4 ADD SWAP3 SWAP1 SWAP2 ADD SWAP1 PUSH1 0x1 ADD PUSH2 0x1BF2 JUMP JUMPDEST POP POP POP SWAP3 SWAP2 POP POP JUMP JUMPDEST PUSH1 0x0 PUSH1 0x80 DUP3 DUP5 SUB SLT ISZERO PUSH2 0x1C2F JUMPI PUSH1 0x0 DUP1 REVERT JUMPDEST POP SWAP2 SWAP1 POP JUMP JUMPDEST PUSH1 0x0 DUP1 PUSH1 0x40 DUP4 DUP6 SUB SLT ISZERO PUSH2 0x1C48 JUMPI PUSH1 0x0 DUP1 REVERT JUMPDEST DUP3 CALLDATALOAD PUSH2 0x1C53 DUP2 PUSH2 0x1B7B JUMP JUMPDEST SWAP2 POP PUSH1 0x20 DUP4 ADD CALLDATALOAD PUSH1 0x1 PUSH1 0x1 PUSH1 0x40 SHL SUB DUP2 GT ISZERO PUSH2 0x1C6E JUMPI PUSH1 0x0 DUP1 REVERT JUMPDEST PUSH2 0x1C7A DUP6 DUP3 DUP7 ADD PUSH2 0x1C1D JUMP JUMPDEST SWAP2 POP POP SWAP3 POP SWAP3 SWAP1 POP JUMP JUMPDEST PUSH4 0x4E487B71 PUSH1 0xE0 SHL PUSH1 0x0 MSTORE PUSH1 0x21 PUSH1 0x4 MSTORE PUSH1 0x24 PUSH1 0x0 REVERT JUMPDEST PUSH1 0x3 DUP2 LT PUSH2 0x1CAA JUMPI PUSH2 0x1CAA PUSH2 0x1C84 JUMP JUMPDEST SWAP1 MSTORE JUMP JUMPDEST PUSH2 0x1CB9 DUP3 DUP3 MLOAD PUSH2 0x1C9A JUMP JUMPDEST PUSH1 0x20 DUP2 DUP2 ADD MLOAD PUSH1 0x1 PUSH1 0x1 PUSH1 0xA0 SHL SUB SWAP1 DUP2 AND SWAP2 DUP5 ADD SWAP2 SWAP1 SWAP2 MSTORE PUSH1 0x40 DUP1 DUP4 ADD MLOAD DUP3 AND SWAP1 DUP5 ADD MSTORE PUSH1 0x60 DUP1 DUP4 ADD MLOAD SWAP1 SWAP2 AND SWAP1 DUP4 ADD MSTORE PUSH1 0x80 SWAP1 DUP2 ADD MLOAD SWAP1 DUP3 ADD MSTORE PUSH1 0xA0 ADD SWAP1 JUMP JUMPDEST PUSH1 0x0 DUP2 MLOAD DUP1 DUP5 MSTORE PUSH1 0x20 DUP1 DUP6 ADD SWAP5 POP DUP1 DUP5 ADD PUSH1 0x0 JUMPDEST DUP4 DUP2 LT ISZERO PUSH2 0x1D2F JUMPI PUSH2 0x1D21 DUP8 DUP4 MLOAD PUSH2 0x1CAE JUMP JUMPDEST SWAP7 POP SWAP1 DUP3 ADD SWAP1 PUSH1 0x1 ADD PUSH2 0x1D0E JUMP JUMPDEST POP SWAP5 SWAP6 SWAP5 POP POP POP POP POP JUMP JUMPDEST PUSH1 0x20 DUP2 MSTORE PUSH1 0x0 PUSH2 0x1A26 PUSH1 0x20 DUP4 ADD DUP5 PUSH2 0x1CFA JUMP JUMPDEST DUP1 MLOAD PUSH1 0x40 DUP1 DUP5 MSTORE DUP2 MLOAD SWAP1 DUP5 ADD DUP2 SWAP1 MSTORE PUSH1 0x0 SWAP2 PUSH1 0x20 SWAP2 SWAP1 DUP3 ADD SWAP1 PUSH1 0x60 DUP7 ADD SWAP1 DUP5 JUMPDEST DUP2 DUP2 LT ISZERO PUSH2 0x1D92 JUMPI DUP4 MLOAD PUSH1 0x1 PUSH1 0x1 PUSH1 0xA0 SHL SUB AND DUP4 MSTORE SWAP3 DUP5 ADD SWAP3 SWAP2 DUP5 ADD SWAP2 PUSH1 0x1 ADD PUSH2 0x1D6D JUMP JUMPDEST POP POP DUP5 DUP4 ADD MLOAD DUP7 DUP3 SUB DUP8 DUP6 ADD MSTORE DUP1 MLOAD DUP1 DUP4 MSTORE SWAP1 DUP5 ADD SWAP3 POP PUSH1 0x0 SWAP2 DUP5 ADD SWAP1 JUMPDEST DUP1 DUP4 LT ISZERO PUSH2 0x1DD5 JUMPI PUSH2 0x1DC3 DUP3 DUP6 MLOAD PUSH2 0x1CAE JUMP JUMPDEST SWAP2 POP DUP5 DUP5 ADD SWAP4 POP PUSH1 0x1 DUP4 ADD SWAP3 POP PUSH2 0x1DB0 JUMP JUMPDEST POP SWAP7 SWAP6 POP POP POP POP POP POP JUMP JUMPDEST PUSH1 0x1 PUSH1 0x1 PUSH1 0xA0 SHL SUB DUP4 AND DUP2 MSTORE PUSH1 0x40 PUSH1 0x20 DUP3 ADD DUP2 SWAP1 MSTORE PUSH1 0x0 SWAP1 PUSH2 0x1E04 SWAP1 DUP4 ADD DUP5 PUSH2 0x1D4D JUMP JUMPDEST SWAP5 SWAP4 POP POP POP POP JUMP JUMPDEST PUSH1 0x0 DUP1 PUSH1 0x40 DUP4 DUP6 SUB SLT ISZERO PUSH2 0x1E1F JUMPI PUSH1 0x0 DUP1 REVERT JUMPDEST DUP3 CALLDATALOAD PUSH2 0x1E2A DUP2 PUSH2 0x1B7B JUMP JUMPDEST SWAP2 POP PUSH1 0x20 DUP4 ADD CALLDATALOAD PUSH1 0x1 PUSH1 0x1 PUSH1 0x40 SHL SUB DUP2 GT ISZERO PUSH2 0x1E45 JUMPI PUSH1 0x0 DUP1 REVERT JUMPDEST DUP4 ADD PUSH1 0xA0 DUP2 DUP7 SUB SLT ISZERO PUSH2 0x1BDE JUMPI PUSH1 0x0 DUP1 REVERT JUMPDEST PUSH1 0x0 PUSH1 0xC0 DUP3 DUP5 SUB SLT ISZERO PUSH2 0x1C2F JUMPI PUSH1 0x0 DUP1 REVERT JUMPDEST PUSH1 0x0 DUP1 PUSH1 0x40 DUP4 DUP6 SUB SLT ISZERO PUSH2 0x1E7C JUMPI PUSH1 0x0 DUP1 REVERT JUMPDEST DUP3 CALLDATALOAD PUSH2 0x1E87 DUP2 PUSH2 0x1B7B JUMP JUMPDEST SWAP2 POP PUSH1 0x20 DUP4 ADD CALLDATALOAD PUSH1 0x1 PUSH1 0x1 PUSH1 0x40 SHL SUB DUP2 GT ISZERO PUSH2 0x1EA2 JUMPI PUSH1 0x0 DUP1 REVERT JUMPDEST PUSH2 0x1C7A DUP6 DUP3 DUP7 ADD PUSH2 0x1E57 JUMP JUMPDEST PUSH1 0x0 JUMPDEST DUP4 DUP2 LT ISZERO PUSH2 0x1EC9 JUMPI DUP2 DUP2 ADD MLOAD DUP4 DUP3 ADD MSTORE PUSH1 0x20 ADD PUSH2 0x1EB1 JUMP JUMPDEST POP POP PUSH1 0x0 SWAP2 ADD MSTORE JUMP JUMPDEST PUSH1 0x0 DUP2 MLOAD DUP1 DUP5 MSTORE PUSH2 0x1EEA DUP2 PUSH1 0x20 DUP7 ADD PUSH1 0x20 DUP7 ADD PUSH2 0x1EAE JUMP JUMPDEST PUSH1 0x1F ADD PUSH1 0x1F NOT AND SWAP3 SWAP1 SWAP3 ADD PUSH1 0x20 ADD SWAP3 SWAP2 POP POP JUMP JUMPDEST PUSH1 0x40 DUP2 MSTORE PUSH1 0x0 PUSH2 0x1F11 PUSH1 0x40 DUP4 ADD DUP6 PUSH2 0x1ED2 JUMP JUMPDEST DUP3 DUP2 SUB PUSH1 0x20 DUP5 ADD MSTORE PUSH2 0x1F23 DUP2 DUP6 PUSH2 0x1D4D JUMP JUMPDEST SWAP6 SWAP5 POP POP POP POP POP JUMP JUMPDEST PUSH1 0x0 DUP1 PUSH1 0x40 DUP4 DUP6 SUB SLT ISZERO PUSH2 0x1F3F JUMPI PUSH1 0x0 DUP1 REVERT JUMPDEST POP POP DUP1 CALLDATALOAD SWAP3 PUSH1 0x20 SWAP1 SWAP2 ADD CALLDATALOAD SWAP2 POP JUMP JUMPDEST PUSH1 0x0 PUSH1 0x20 DUP3 DUP5 SUB SLT ISZERO PUSH2 0x1F60 JUMPI PUSH1 0x0 DUP1 REVERT JUMPDEST POP CALLDATALOAD SWAP2 SWAP1 POP JUMP JUMPDEST PUSH1 0x0 PUSH1 0x20 DUP3 DUP5 SUB SLT ISZERO PUSH2 0x1F79 JUMPI PUSH1 0x0 DUP1 REVERT JUMPDEST DUP2 CALLDATALOAD PUSH2 0x1A26 DUP2 PUSH2 0x1B7B JUMP JUMPDEST PUSH4 0x4E487B71 PUSH1 0xE0 SHL PUSH1 0x0 MSTORE PUSH1 0x41 PUSH1 0x4 MSTORE PUSH1 0x24 PUSH1 0x0 REVERT JUMPDEST PUSH1 0x40 DUP2 ADD DUP2 DUP2 LT PUSH1 0x1 PUSH1 0x1 PUSH1 0x40 SHL SUB DUP3 GT OR ISZERO PUSH2 0x1FB9 JUMPI PUSH2 0x1FB9 PUSH2 0x1F84 JUMP JUMPDEST PUSH1 0x40 MSTORE POP JUMP JUMPDEST PUSH1 0x60 DUP2 ADD DUP2 DUP2 LT PUSH1 0x1 PUSH1 0x1 PUSH1 0x40 SHL SUB DUP3 GT OR ISZERO PUSH2 0x1FB9 JUMPI PUSH2 0x1FB9 PUSH2 0x1F84 JUMP JUMPDEST PUSH1 0xA0 DUP2 ADD DUP2 DUP2 LT PUSH1 0x1 PUSH1 0x1 PUSH1 0x40 SHL SUB DUP3 GT OR ISZERO PUSH2 0x1FB9 JUMPI PUSH2 0x1FB9 PUSH2 0x1F84 JUMP JUMPDEST PUSH1 0x1F DUP3 ADD PUSH1 0x1F NOT AND DUP2 ADD PUSH1 0x1 PUSH1 0x1 PUSH1 0x40 SHL SUB DUP2 GT DUP3 DUP3 LT OR ISZERO PUSH2 0x2022 JUMPI PUSH2 0x2022 PUSH2 0x1F84 JUMP JUMPDEST PUSH1 0x40 MSTORE POP POP JUMP JUMPDEST PUSH1 0xFF DUP2 AND DUP2 EQ PUSH2 0x1B90 JUMPI PUSH1 0x0 DUP1 REVERT JUMPDEST PUSH2 0xFFFF DUP2 AND DUP2 EQ PUSH2 0x1B90 JUMPI PUSH1 0x0 DUP1 REVERT JUMPDEST PUSH1 0x0 PUSH1 0x40 DUP3 DUP5 SUB SLT ISZERO PUSH2 0x205A JUMPI PUSH1 0x0 DUP1 REVERT JUMPDEST PUSH1 0x40 MLOAD PUSH2 0x2066 DUP2 PUSH2 0x1F9A JUMP JUMPDEST DUP1 SWAP2 POP DUP3 CALLDATALOAD PUSH2 0x2074 DUP2 PUSH2 0x2029 JUMP JUMPDEST DUP2 MSTORE PUSH1 0x20 DUP4 ADD CALLDATALOAD PUSH2 0x2084 DUP2 PUSH2 0x2038 JUMP JUMPDEST PUSH1 0x20 SWAP2 SWAP1 SWAP2 ADD MSTORE SWAP3 SWAP2 POP POP JUMP JUMPDEST PUSH1 0x0 PUSH1 0x60 DUP3 DUP5 SUB SLT ISZERO PUSH2 0x20A3 JUMPI PUSH1 0x0 DUP1 REVERT JUMPDEST PUSH1 0x40 MLOAD PUSH2 0x20AF DUP2 PUSH2 0x1F9A JUMP JUMPDEST PUSH2 0x20B9 DUP5 DUP5 PUSH2 0x2048 JUMP JUMPDEST DUP2 MSTORE PUSH1 0x40 DUP4 ADD CALLDATALOAD PUSH2 0x20C9 DUP2 PUSH2 0x1B7B JUMP JUMPDEST PUSH1 0x20 DUP3 ADD MSTORE SWAP4 SWAP3 POP POP POP JUMP JUMPDEST PUSH1 0x0 DUP1 DUP4 CALLDATALOAD PUSH1 0x1E NOT DUP5 CALLDATASIZE SUB ADD DUP2 SLT PUSH2 0x20EC JUMPI PUSH1 0x0 DUP1 REVERT JUMPDEST DUP4 ADD DUP1 CALLDATALOAD SWAP2 POP PUSH1 0x1 PUSH1 0x1 PUSH1 0x40 SHL SUB DUP3 GT ISZERO PUSH2 0x2106 JUMPI PUSH1 0x0 DUP1 REVERT JUMPDEST PUSH1 0x20 ADD SWAP2 POP PUSH1 0xA0 DUP2 MUL CALLDATASIZE SUB DUP3 SGT ISZERO PUSH2 0xCC5 JUMPI PUSH1 0x0 DUP1 REVERT JUMPDEST PUSH1 0x3 DUP2 LT PUSH2 0x1B90 JUMPI PUSH1 0x0 DUP1 REVERT JUMPDEST PUSH1 0x0 PUSH1 0xA0 DUP3 DUP5 SUB SLT ISZERO PUSH2 0x213C JUMPI PUSH1 0x0 DUP1 REVERT JUMPDEST PUSH1 0x40 MLOAD PUSH1 0xA0 DUP2 ADD DUP2 DUP2 LT PUSH1 0x1 PUSH1 0x1 PUSH1 0x40 SHL SUB DUP3 GT OR ISZERO PUSH2 0x215E JUMPI PUSH2 0x215E PUSH2 0x1F84 JUMP JUMPDEST PUSH1 0x40 MSTORE DUP3 CALLDATALOAD PUSH2 0x216C DUP2 PUSH2 0x211D JUMP JUMPDEST DUP2 MSTORE PUSH1 0x20 DUP4 ADD CALLDATALOAD PUSH2 0x217C DUP2 PUSH2 0x1B7B JUMP JUMPDEST PUSH1 0x20 DUP3 ADD MSTORE PUSH1 0x40 DUP4 ADD CALLDATALOAD PUSH2 0x218F DUP2 PUSH2 0x1B7B JUMP JUMPDEST PUSH1 0x40 DUP3 ADD MSTORE PUSH1 0x60 DUP4 ADD CALLDATALOAD PUSH2 0x21A2 DUP2 PUSH2 0x1B7B JUMP JUMPDEST PUSH1 0x60 DUP3 ADD MSTORE PUSH1 0x80 SWAP3 DUP4 ADD CALLDATALOAD SWAP3 DUP2 ADD SWAP3 SWAP1 SWAP3 MSTORE POP SWAP2 SWAP1 POP JUMP JUMPDEST PUSH1 0x0 DUP1 DUP4 CALLDATALOAD PUSH1 0x1E NOT DUP5 CALLDATASIZE SUB ADD DUP2 SLT PUSH2 0x21D1 JUMPI PUSH1 0x0 DUP1 REVERT JUMPDEST DUP4 ADD DUP1 CALLDATALOAD SWAP2 POP PUSH1 0x1 PUSH1 0x1 PUSH1 0x40 SHL SUB DUP3 GT ISZERO PUSH2 0x21EB JUMPI PUSH1 0x0 DUP1 REVERT JUMPDEST PUSH1 0x20 ADD SWAP2 POP CALLDATASIZE DUP2 SWAP1 SUB DUP3 SGT ISZERO PUSH2 0xCC5 JUMPI PUSH1 0x0 DUP1 REVERT JUMPDEST DUP1 CALLDATALOAD PUSH2 0x220B DUP2 PUSH2 0x2029 JUMP JUMPDEST PUSH1 0xFF AND DUP3 MSTORE PUSH1 0x20 DUP2 ADD CALLDATALOAD PUSH2 0x221E DUP2 PUSH2 0x2038 JUMP JUMPDEST PUSH2 0xFFFF DUP2 AND PUSH1 0x20 DUP5 ADD MSTORE POP POP POP JUMP JUMPDEST PUSH1 0x40 DUP2 ADD PUSH2 0x180E DUP3 DUP5 PUSH2 0x2200 JUMP JUMPDEST DUP1 MLOAD PUSH2 0x2246 DUP2 PUSH2 0x1B7B JUMP JUMPDEST SWAP2 SWAP1 POP JUMP JUMPDEST PUSH1 0x0 DUP3 PUSH1 0x1F DUP4 ADD SLT PUSH2 0x225C JUMPI PUSH1 0x0 DUP1 REVERT JUMPDEST DUP2 MLOAD PUSH1 0x1 PUSH1 0x1 PUSH1 0x40 SHL SUB DUP2 GT ISZERO PUSH2 0x2275 JUMPI PUSH2 0x2275 PUSH2 0x1F84 JUMP JUMPDEST PUSH1 0x40 MLOAD PUSH2 0x228C PUSH1 0x1F DUP4 ADD PUSH1 0x1F NOT AND PUSH1 0x20 ADD DUP3 PUSH2 0x1FFD JUMP JUMPDEST DUP2 DUP2 MSTORE DUP5 PUSH1 0x20 DUP4 DUP7 ADD ADD GT ISZERO PUSH2 0x22A1 JUMPI PUSH1 0x0 DUP1 REVERT JUMPDEST PUSH2 0x1E04 DUP3 PUSH1 0x20 DUP4 ADD PUSH1 0x20 DUP8 ADD PUSH2 0x1EAE JUMP JUMPDEST PUSH1 0x0 PUSH1 0x20 DUP3 DUP5 SUB SLT ISZERO PUSH2 0x22C4 JUMPI PUSH1 0x0 DUP1 REVERT JUMPDEST DUP2 MLOAD PUSH1 0x1 PUSH1 0x1 PUSH1 0x40 SHL SUB DUP1 DUP3 GT ISZERO PUSH2 0x22DB JUMPI PUSH1 0x0 DUP1 REVERT JUMPDEST SWAP1 DUP4 ADD SWAP1 DUP2 DUP6 SUB PUSH1 0x80 DUP2 SLT ISZERO PUSH2 0x22F0 JUMPI PUSH1 0x0 DUP1 REVERT JUMPDEST PUSH1 0x40 MLOAD PUSH2 0x22FC DUP2 PUSH2 0x1FBF JUMP JUMPDEST PUSH1 0x40 DUP3 SLT ISZERO PUSH2 0x230A JUMPI PUSH1 0x0 DUP1 REVERT JUMPDEST PUSH1 0x40 MLOAD SWAP2 POP PUSH2 0x2318 DUP3 PUSH2 0x1F9A JUMP JUMPDEST DUP4 MLOAD PUSH2 0x2323 DUP2 PUSH2 0x2029 JUMP JUMPDEST DUP3 MSTORE PUSH1 0x20 DUP5 ADD MLOAD PUSH2 0x2333 DUP2 PUSH2 0x2038 JUMP JUMPDEST PUSH1 0x20 DUP4 ADD MSTORE DUP2 DUP2 MSTORE PUSH2 0x2347 PUSH1 0x40 DUP6 ADD PUSH2 0x223B JUMP JUMPDEST PUSH1 0x20 DUP3 ADD MSTORE PUSH1 0x60 DUP5 ADD MLOAD SWAP2 POP DUP3 DUP3 GT ISZERO PUSH2 0x2360 JUMPI PUSH1 0x0 DUP1 REVERT JUMPDEST PUSH2 0x236C DUP8 DUP4 DUP7 ADD PUSH2 0x224B JUMP JUMPDEST PUSH1 0x40 DUP3 ADD MSTORE SWAP7 SWAP6 POP POP POP POP POP POP JUMP JUMPDEST PUSH1 0x0 PUSH1 0x20 DUP3 DUP5 SUB SLT ISZERO PUSH2 0x238D JUMPI PUSH1 0x0 DUP1 REVERT JUMPDEST DUP2 MLOAD PUSH2 0x1A26 DUP2 PUSH2 0x1B7B JUMP JUMPDEST PUSH1 0x20 DUP1 DUP3 MSTORE DUP2 DUP2 ADD DUP4 SWAP1 MSTORE PUSH1 0x0 SWAP1 PUSH1 0x40 DUP1 DUP5 ADD DUP7 DUP5 JUMPDEST DUP8 DUP2 LT ISZERO PUSH2 0x242E JUMPI DUP2 CALLDATALOAD PUSH2 0x23C1 DUP2 PUSH2 0x211D JUMP JUMPDEST PUSH2 0x23CB DUP5 DUP3 PUSH2 0x1C9A JUMP JUMPDEST POP DUP5 DUP3 ADD CALLDATALOAD PUSH2 0x23D9 DUP2 PUSH2 0x1B7B JUMP JUMPDEST PUSH1 0x1 PUSH1 0x1 PUSH1 0xA0 SHL SUB SWAP1 DUP2 AND DUP5 DUP8 ADD MSTORE DUP3 DUP6 ADD CALLDATALOAD SWAP1 PUSH2 0x23F6 DUP3 PUSH2 0x1B7B JUMP JUMPDEST SWAP1 DUP2 AND DUP5 DUP7 ADD MSTORE PUSH1 0x60 SWAP1 DUP4 DUP3 ADD CALLDATALOAD PUSH2 0x240D DUP2 PUSH2 0x1B7B JUMP JUMPDEST AND SWAP1 DUP5 ADD MSTORE PUSH1 0x80 DUP3 DUP2 ADD CALLDATALOAD SWAP1 DUP5 ADD MSTORE PUSH1 0xA0 SWAP3 DUP4 ADD SWAP3 SWAP1 SWAP2 ADD SWAP1 PUSH1 0x1 ADD PUSH2 0x23AE JUMP JUMPDEST POP SWAP1 SWAP8 SWAP7 POP POP POP POP POP POP POP JUMP JUMPDEST PUSH1 0x0 DUP3 CALLDATALOAD PUSH1 0x5E NOT DUP4 CALLDATASIZE SUB ADD DUP2 SLT PUSH2 0x2451 JUMPI PUSH1 0x0 DUP1 REVERT JUMPDEST SWAP2 SWAP1 SWAP2 ADD SWAP3 SWAP2 POP POP JUMP JUMPDEST PUSH1 0x0 DUP1 DUP4 CALLDATALOAD PUSH1 0x1E NOT DUP5 CALLDATASIZE SUB ADD DUP2 SLT PUSH2 0x2472 JUMPI PUSH1 0x0 DUP1 REVERT JUMPDEST DUP4 ADD DUP1 CALLDATALOAD SWAP2 POP PUSH1 0x1 PUSH1 0x1 PUSH1 0x40 SHL SUB DUP3 GT ISZERO PUSH2 0x248C JUMPI PUSH1 0x0 DUP1 REVERT JUMPDEST PUSH1 0x20 ADD SWAP2 POP PUSH1 0x5 DUP2 SWAP1 SHL CALLDATASIZE SUB DUP3 SGT ISZERO PUSH2 0xCC5 JUMPI PUSH1 0x0 DUP1 REVERT JUMPDEST PUSH1 0x0 DUP1 DUP4 CALLDATALOAD PUSH1 0x1E NOT DUP5 CALLDATASIZE SUB ADD DUP2 SLT PUSH2 0x24BB JUMPI PUSH1 0x0 DUP1 REVERT JUMPDEST DUP4 ADD PUSH1 0x20 DUP2 ADD SWAP3 POP CALLDATALOAD SWAP1 POP PUSH1 0x1 PUSH1 0x1 PUSH1 0x40 SHL SUB DUP2 GT ISZERO PUSH2 0x24DA JUMPI PUSH1 0x0 DUP1 REVERT JUMPDEST DUP1 CALLDATASIZE SUB DUP3 SGT ISZERO PUSH2 0xCC5 JUMPI PUSH1 0x0 DUP1 REVERT JUMPDEST DUP2 DUP4 MSTORE DUP2 DUP2 PUSH1 0x20 DUP6 ADD CALLDATACOPY POP PUSH1 0x0 DUP3 DUP3 ADD PUSH1 0x20 SWAP1 DUP2 ADD SWAP2 SWAP1 SWAP2 MSTORE PUSH1 0x1F SWAP1 SWAP2 ADD PUSH1 0x1F NOT AND SWAP1 SWAP2 ADD ADD SWAP1 JUMP JUMPDEST PUSH1 0x0 PUSH1 0x60 DUP4 ADD DUP3 CALLDATALOAD PUSH2 0x2523 DUP2 PUSH2 0x1B7B JUMP JUMPDEST PUSH1 0x1 PUSH1 0x1 PUSH1 0xA0 SHL SUB SWAP1 DUP2 AND DUP6 MSTORE PUSH1 0x20 SWAP1 DUP5 DUP3 ADD CALLDATALOAD CALLDATASIZE DUP7 SWAP1 SUB PUSH1 0x1E NOT ADD DUP2 SLT PUSH2 0x254A JUMPI PUSH1 0x0 DUP1 REVERT JUMPDEST DUP6 ADD DUP3 DUP2 ADD SWAP1 CALLDATALOAD PUSH1 0x1 PUSH1 0x1 PUSH1 0x40 SHL SUB DUP2 GT ISZERO PUSH2 0x2565 JUMPI PUSH1 0x0 DUP1 REVERT JUMPDEST DUP1 PUSH1 0x5 SHL CALLDATASIZE SUB DUP3 SGT ISZERO PUSH2 0x2577 JUMPI PUSH1 0x0 DUP1 REVERT JUMPDEST PUSH1 0x60 DUP9 DUP6 ADD MSTORE SWAP4 DUP5 SWAP1 MSTORE SWAP3 PUSH1 0x0 SWAP1 PUSH1 0x80 DUP9 ADD JUMPDEST DUP2 DUP4 LT ISZERO PUSH2 0x25B3 JUMPI DUP6 CALLDATALOAD PUSH2 0x259D DUP2 PUSH2 0x1B7B JUMP JUMPDEST DUP5 AND DUP2 MSTORE SWAP5 DUP5 ADD SWAP5 PUSH1 0x1 SWAP3 SWAP1 SWAP3 ADD SWAP2 DUP5 ADD PUSH2 0x258A JUMP JUMPDEST PUSH2 0x25C0 PUSH1 0x40 DUP10 ADD DUP10 PUSH2 0x24A4 JUMP JUMPDEST SWAP7 POP SWAP5 POP DUP9 DUP2 SUB PUSH1 0x40 DUP11 ADD MSTORE PUSH2 0x25D7 DUP2 DUP8 DUP8 PUSH2 0x24E9 JUMP JUMPDEST SWAP10 SWAP9 POP POP POP POP POP POP POP POP POP JUMP JUMPDEST PUSH1 0x1 PUSH1 0x1 PUSH1 0xA0 SHL SUB DUP4 AND DUP2 MSTORE PUSH1 0x40 PUSH1 0x20 DUP3 ADD DUP2 SWAP1 MSTORE PUSH1 0x0 SWAP1 PUSH2 0x1E04 SWAP1 DUP4 ADD DUP5 PUSH2 0x2512 JUMP JUMPDEST PUSH1 0x0 PUSH1 0x1 PUSH1 0x1 PUSH1 0x40 SHL SUB DUP3 GT ISZERO PUSH2 0x2621 JUMPI PUSH2 0x2621 PUSH2 0x1F84 JUMP JUMPDEST POP PUSH1 0x5 SHL PUSH1 0x20 ADD SWAP1 JUMP JUMPDEST PUSH1 0x0 DUP3 PUSH1 0x1F DUP4 ADD SLT PUSH2 0x263C JUMPI PUSH1 0x0 DUP1 REVERT JUMPDEST DUP2 MLOAD PUSH1 0x20 PUSH2 0x2649 DUP3 PUSH2 0x2608 JUMP JUMPDEST PUSH1 0x40 DUP1 MLOAD PUSH2 0x2657 DUP4 DUP3 PUSH2 0x1FFD JUMP JUMPDEST DUP5 DUP2 MSTORE PUSH1 0xA0 SWAP5 DUP6 MUL DUP8 ADD DUP5 ADD SWAP5 DUP5 DUP3 ADD SWAP4 POP DUP9 DUP7 GT ISZERO PUSH2 0x2676 JUMPI PUSH1 0x0 DUP1 REVERT JUMPDEST DUP5 DUP9 ADD JUMPDEST DUP7 DUP2 LT ISZERO PUSH2 0x26F6 JUMPI DUP2 DUP2 DUP12 SUB SLT ISZERO PUSH2 0x2692 JUMPI PUSH1 0x0 DUP1 DUP2 REVERT JUMPDEST DUP4 MLOAD PUSH2 0x269D DUP2 PUSH2 0x1FDE JUMP JUMPDEST DUP2 MLOAD PUSH2 0x26A8 DUP2 PUSH2 0x211D JUMP JUMPDEST DUP2 MSTORE DUP2 DUP8 ADD MLOAD PUSH2 0x26B7 DUP2 PUSH2 0x1B7B JUMP JUMPDEST DUP2 DUP9 ADD MSTORE DUP2 DUP6 ADD MLOAD PUSH2 0x26C8 DUP2 PUSH2 0x1B7B JUMP JUMPDEST DUP2 DUP7 ADD MSTORE PUSH1 0x60 DUP3 DUP2 ADD MLOAD PUSH2 0x26DB DUP2 PUSH2 0x1B7B JUMP JUMPDEST SWAP1 DUP3 ADD MSTORE PUSH1 0x80 DUP3 DUP2 ADD MLOAD SWAP1 DUP3 ADD MSTORE DUP6 MSTORE SWAP4 DUP6 ADD SWAP4 DUP2 ADD PUSH2 0x267A JUMP JUMPDEST POP SWAP1 SWAP9 SWAP8 POP POP POP POP POP POP POP POP JUMP JUMPDEST PUSH1 0x0 PUSH1 0x20 DUP3 DUP5 SUB SLT ISZERO PUSH2 0x2716 JUMPI PUSH1 0x0 DUP1 REVERT JUMPDEST DUP2 MLOAD PUSH1 0x1 PUSH1 0x1 PUSH1 0x40 SHL SUB DUP2 GT ISZERO PUSH2 0x272C JUMPI PUSH1 0x0 DUP1 REVERT JUMPDEST PUSH2 0x1E04 DUP5 DUP3 DUP6 ADD PUSH2 0x262B JUMP JUMPDEST DUP5 DUP2 MSTORE PUSH2 0x2748 PUSH1 0x20 DUP3 ADD DUP6 PUSH2 0x2200 JUMP JUMPDEST PUSH1 0xA0 PUSH1 0x60 DUP3 ADD MSTORE PUSH1 0x0 PUSH2 0x275E PUSH1 0xA0 DUP4 ADD DUP6 PUSH2 0x2512 JUMP JUMPDEST DUP3 DUP2 SUB PUSH1 0x80 DUP5 ADD MSTORE PUSH2 0x1B52 DUP2 DUP6 PUSH2 0x1CFA JUMP JUMPDEST PUSH1 0x0 PUSH1 0x20 DUP3 DUP5 SUB SLT ISZERO PUSH2 0x2782 JUMPI PUSH1 0x0 DUP1 REVERT JUMPDEST DUP2 MLOAD DUP1 ISZERO ISZERO DUP2 EQ PUSH2 0x1A26 JUMPI PUSH1 0x0 DUP1 REVERT JUMPDEST PUSH1 0x1 PUSH1 0x1 PUSH1 0xA0 SHL SUB DUP5 AND DUP2 MSTORE PUSH1 0x40 PUSH1 0x20 DUP3 ADD DUP2 SWAP1 MSTORE PUSH1 0x0 SWAP1 PUSH2 0x1F23 SWAP1 DUP4 ADD DUP5 DUP7 PUSH2 0x24E9 JUMP JUMPDEST PUSH1 0x0 PUSH1 0x40 DUP3 DUP5 SUB SLT ISZERO PUSH2 0x27C9 JUMPI PUSH1 0x0 DUP1 REVERT JUMPDEST PUSH1 0x40 MLOAD PUSH2 0x27D5 DUP2 PUSH2 0x1F9A JUMP JUMPDEST DUP1 SWAP2 POP DUP3 MLOAD PUSH1 0x1 PUSH1 0x1 PUSH1 0x40 SHL SUB DUP1 DUP3 GT ISZERO PUSH2 0x27EF JUMPI PUSH1 0x0 DUP1 REVERT JUMPDEST DUP2 DUP6 ADD SWAP2 POP DUP6 PUSH1 0x1F DUP4 ADD SLT PUSH2 0x2803 JUMPI PUSH1 0x0 DUP1 REVERT JUMPDEST DUP2 MLOAD PUSH1 0x20 PUSH2 0x2810 DUP3 PUSH2 0x2608 JUMP JUMPDEST PUSH1 0x40 MLOAD PUSH2 0x281D DUP3 DUP3 PUSH2 0x1FFD JUMP JUMPDEST DUP4 DUP2 MSTORE PUSH1 0x5 SWAP4 SWAP1 SWAP4 SHL DUP6 ADD DUP3 ADD SWAP3 DUP3 DUP2 ADD SWAP2 POP DUP10 DUP5 GT ISZERO PUSH2 0x283D JUMPI PUSH1 0x0 DUP1 REVERT JUMPDEST SWAP5 DUP3 ADD SWAP5 JUMPDEST DUP4 DUP7 LT ISZERO PUSH2 0x2864 JUMPI DUP6 MLOAD PUSH2 0x2855 DUP2 PUSH2 0x1B7B JUMP JUMPDEST DUP3 MSTORE SWAP5 DUP3 ADD SWAP5 SWAP1 DUP3 ADD SWAP1 PUSH2 0x2842 JUMP JUMPDEST DUP7 MSTORE POP DUP7 DUP2 ADD MLOAD SWAP4 POP DUP3 DUP5 GT ISZERO PUSH2 0x287A JUMPI PUSH1 0x0 DUP1 REVERT JUMPDEST PUSH2 0x2886 DUP9 DUP6 DUP10 ADD PUSH2 0x262B JUMP JUMPDEST DUP2 DUP7 ADD MSTORE POP POP POP POP POP SWAP3 SWAP2 POP POP JUMP JUMPDEST PUSH1 0x0 DUP1 PUSH1 0x40 DUP4 DUP6 SUB SLT ISZERO PUSH2 0x28A8 JUMPI PUSH1 0x0 DUP1 REVERT JUMPDEST DUP3 MLOAD PUSH2 0x28B3 DUP2 PUSH2 0x1B7B JUMP JUMPDEST PUSH1 0x20 DUP5 ADD MLOAD SWAP1 SWAP3 POP PUSH1 0x1 PUSH1 0x1 PUSH1 0x40 SHL SUB DUP2 GT ISZERO PUSH2 0x28CF JUMPI PUSH1 0x0 DUP1 REVERT JUMPDEST PUSH2 0x1C7A DUP6 DUP3 DUP7 ADD PUSH2 0x27B7 JUMP JUMPDEST DUP7 DUP2 MSTORE PUSH2 0x28EB PUSH1 0x20 DUP3 ADD DUP8 PUSH2 0x2200 JUMP JUMPDEST PUSH1 0xC0 PUSH1 0x60 DUP3 ADD MSTORE PUSH1 0x0 PUSH2 0x2902 PUSH1 0xC0 DUP4 ADD DUP7 DUP9 PUSH2 0x24E9 JUMP JUMPDEST PUSH1 0x1 PUSH1 0x1 PUSH1 0xA0 SHL SUB DUP6 AND PUSH1 0x80 DUP5 ADD MSTORE DUP3 DUP2 SUB PUSH1 0xA0 DUP5 ADD MSTORE PUSH2 0x25D7 DUP2 DUP6 PUSH2 0x1D4D JUMP JUMPDEST PUSH1 0x0 PUSH1 0x20 DUP3 DUP5 SUB SLT ISZERO PUSH2 0x2935 JUMPI PUSH1 0x0 DUP1 REVERT JUMPDEST DUP2 CALLDATALOAD PUSH2 0x1A26 DUP2 PUSH2 0x2029 JUMP JUMPDEST PUSH1 0x0 PUSH1 0x20 DUP3 DUP5 SUB SLT ISZERO PUSH2 0x2952 JUMPI PUSH1 0x0 DUP1 REVERT JUMPDEST DUP2 CALLDATALOAD PUSH2 0x1A26 DUP2 PUSH2 0x2038 JUMP JUMPDEST PUSH1 0x80 DUP2 ADD PUSH2 0x296B DUP3 DUP6 PUSH2 0x2200 JUMP JUMPDEST PUSH2 0x1A26 PUSH1 0x40 DUP4 ADD DUP5 PUSH2 0x2200 JUMP JUMPDEST PUSH1 0x0 PUSH1 0x40 DUP3 DUP5 SUB SLT ISZERO PUSH2 0x298A JUMPI PUSH1 0x0 DUP1 REVERT JUMPDEST PUSH2 0x1A26 DUP4 DUP4 PUSH2 0x2048 JUMP JUMPDEST PUSH1 0x0 PUSH1 0x20 DUP3 DUP5 SUB SLT ISZERO PUSH2 0x29A6 JUMPI PUSH1 0x0 DUP1 REVERT JUMPDEST DUP2 MLOAD PUSH2 0x1A26 DUP2 PUSH2 0x211D JUMP JUMPDEST PUSH1 0x1 PUSH1 0x1 PUSH1 0xA0 SHL SUB DUP5 AND DUP2 MSTORE PUSH2 0xFFFF DUP4 AND PUSH1 0x20 DUP3 ADD MSTORE PUSH1 0x60 PUSH1 0x40 DUP3 ADD DUP2 SWAP1 MSTORE PUSH1 0x0 SWAP1 PUSH2 0x1F23 SWAP1 DUP4 ADD DUP5 PUSH2 0x2512 JUMP JUMPDEST PUSH1 0x0 DUP1 PUSH1 0x40 DUP4 DUP6 SUB SLT ISZERO PUSH2 0x29F2 JUMPI PUSH1 0x0 DUP1 REVERT JUMPDEST DUP3 MLOAD PUSH1 0x1 PUSH1 0x1 PUSH1 0x40 SHL SUB DUP1 DUP3 GT ISZERO PUSH2 0x2A09 JUMPI PUSH1 0x0 DUP1 REVERT JUMPDEST PUSH2 0x2A15 DUP7 DUP4 DUP8 ADD PUSH2 0x224B JUMP JUMPDEST SWAP4 POP PUSH1 0x20 DUP6 ADD MLOAD SWAP2 POP DUP1 DUP3 GT ISZERO PUSH2 0x2A2B JUMPI PUSH1 0x0 DUP1 REVERT JUMPDEST POP PUSH2 0x1C7A DUP6 DUP3 DUP7 ADD PUSH2 0x27B7 JUMP JUMPDEST PUSH1 0x1 PUSH1 0x1 PUSH1 0xA0 SHL SUB DUP6 DUP2 AND DUP3 MSTORE DUP5 AND PUSH1 0x20 DUP3 ADD MSTORE PUSH1 0x40 DUP2 ADD DUP4 SWAP1 MSTORE PUSH1 0x80 PUSH1 0x60 DUP3 ADD DUP2 SWAP1 MSTORE PUSH1 0x0 SWAP1 PUSH2 0x2A6B SWAP1 DUP4 ADD DUP5 PUSH2 0x1ED2 JUMP JUMPDEST SWAP7 SWAP6 POP POP POP POP POP POP JUMP JUMPDEST DUP7 MLOAD PUSH1 0xFF AND DUP2 MSTORE PUSH1 0x20 DUP1 DUP9 ADD MLOAD PUSH2 0xFFFF AND SWAP1 DUP3 ADD MSTORE PUSH1 0xE0 DUP2 ADD PUSH1 0x1 PUSH1 0x1 PUSH1 0xA0 SHL SUB DUP8 AND PUSH1 0x40 DUP4 ADD MSTORE PUSH1 0x60 DUP3 ADD DUP7 SWAP1 MSTORE PUSH1 0x80 DUP3 ADD DUP6 SWAP1 MSTORE PUSH1 0xA0 DUP3 ADD DUP5 SWAP1 MSTORE PUSH1 0x4 DUP4 LT PUSH2 0x2AC2 JUMPI PUSH2 0x2AC2 PUSH2 0x1C84 JUMP JUMPDEST DUP3 PUSH1 0xC0 DUP4 ADD MSTORE SWAP8 SWAP7 POP POP POP POP POP POP POP JUMP JUMPDEST PUSH1 0x1 PUSH1 0x1 PUSH1 0xA0 SHL SUB DUP4 AND DUP2 MSTORE PUSH1 0x40 PUSH1 0x20 DUP3 ADD DUP2 SWAP1 MSTORE PUSH1 0x0 SWAP1 PUSH2 0x1E04 SWAP1 DUP4 ADD DUP5 PUSH2 0x1ED2 JUMP JUMPDEST PUSH1 0x0 PUSH1 0x3 RETURNDATASIZE GT ISZERO PUSH2 0x2B10 JUMPI PUSH1 0x4 PUSH1 0x0 DUP1 RETURNDATACOPY POP PUSH1 0x0 MLOAD PUSH1 0xE0 SHR JUMPDEST SWAP1 JUMP JUMPDEST PUSH1 0x0 PUSH1 0x44 RETURNDATASIZE LT ISZERO PUSH2 0x2B21 JUMPI SWAP1 JUMP JUMPDEST PUSH1 0x40 MLOAD PUSH1 0x3 NOT RETURNDATASIZE DUP2 ADD PUSH1 0x4 DUP4 RETURNDATACOPY DUP2 MLOAD RETURNDATASIZE PUSH1 0x1 PUSH1 0x1 PUSH1 0x40 SHL SUB DUP2 PUSH1 0x24 DUP5 ADD GT DUP2 DUP5 GT OR ISZERO PUSH2 0x2B50 JUMPI POP POP POP POP POP SWAP1 JUMP JUMPDEST DUP3 DUP6 ADD SWAP2 POP DUP2 MLOAD DUP2 DUP2 GT ISZERO PUSH2 0x2B68 JUMPI POP POP POP POP POP POP SWAP1 JUMP JUMPDEST DUP5 RETURNDATASIZE DUP8 ADD ADD PUSH1 0x20 DUP3 DUP6 ADD ADD GT ISZERO PUSH2 0x2B82 JUMPI POP POP POP POP POP POP SWAP1 JUMP JUMPDEST PUSH2 0x2B91 PUSH1 0x20 DUP3 DUP7 ADD ADD DUP8 PUSH2 0x1FFD JUMP JUMPDEST POP SWAP1 SWAP6 SWAP5 POP POP POP POP POP JUMP JUMPDEST PUSH1 0x20 DUP2 MSTORE PUSH1 0x0 PUSH2 0x1A26 PUSH1 0x20 DUP4 ADD DUP5 PUSH2 0x1ED2 JUMP JUMPDEST PUSH1 0x1 PUSH1 0x1 PUSH1 0xA0 SHL SUB DUP5 DUP2 AND DUP3 MSTORE DUP4 AND PUSH1 0x20 DUP3 ADD MSTORE PUSH1 0x60 PUSH1 0x40 DUP3 ADD DUP2 SWAP1 MSTORE PUSH1 0x0 SWAP1 PUSH2 0x1F23 SWAP1 DUP4 ADD DUP5 PUSH2 0x1ED2 JUMP JUMPDEST PUSH1 0x20 DUP1 DUP3 MSTORE DUP3 MLOAD DUP3 DUP3 ADD DUP2 SWAP1 MSTORE PUSH1 0x0 SWAP2 SWAP1 DUP5 DUP3 ADD SWAP1 PUSH1 0x40 DUP6 ADD SWAP1 DUP5 JUMPDEST DUP2 DUP2 LT ISZERO PUSH2 0x2C1C JUMPI DUP4 MLOAD PUSH1 0x1 PUSH1 0x1 PUSH1 0xA0 SHL SUB AND DUP4 MSTORE SWAP3 DUP5 ADD SWAP3 SWAP2 DUP5 ADD SWAP2 PUSH1 0x1 ADD PUSH2 0x2BF7 JUMP JUMPDEST POP SWAP1 SWAP7 SWAP6 POP POP POP POP POP POP JUMP JUMPDEST DUP6 DUP2 MSTORE PUSH2 0x2C38 PUSH1 0x20 DUP3 ADD DUP7 PUSH2 0x2200 JUMP JUMPDEST PUSH1 0xC0 PUSH1 0x60 DUP3 ADD MSTORE PUSH1 0x0 PUSH2 0x2C4E PUSH1 0xC0 DUP4 ADD DUP7 PUSH2 0x2512 JUMP JUMPDEST DUP3 DUP2 SUB PUSH1 0x80 DUP5 ADD MSTORE PUSH2 0x2C60 DUP2 DUP7 PUSH2 0x1D4D JUMP JUMPDEST SWAP1 POP DUP3 DUP2 SUB PUSH1 0xA0 DUP5 ADD MSTORE PUSH2 0x2C74 DUP2 DUP6 PUSH2 0x1ED2 JUMP JUMPDEST SWAP9 SWAP8 POP POP POP POP POP POP POP POP JUMP INVALID LOG2 PUSH5 0x6970667358 0x22 SLT KECCAK256 SWAP15 PUSH28 0xA7F80BEB5FB73CF99A8F2E208EEB8A67051CE9D506CEEE3022081505 0xC0 0xE8 PUSH5 0x736F6C6343 STOP ADDMOD GT STOP CALLER "
		},
		"gasEstimates": {
			"creation": {
				"codeDepositCost": "2289200",
				"executionCost": "infinite",
				"totalCost": "infinite"
			},
			"external": {
				"APPLY_INSTALLATION_PERMISSION_ID()": "306",
				"APPLY_UNINSTALLATION_PERMISSION_ID()": "262",
				"APPLY_UPDATE_PERMISSION_ID()": "240",
				"applyInstallation(address,(((uint8,uint16),address),address,(uint8,address,address,address,bytes32)[],bytes32))": "infinite",
				"applyUninstallation(address,(address,((uint8,uint16),address),(uint8,address,address,address,bytes32)[]))": "infinite",
				"applyUpdate(address,(address,((uint8,uint16),address),bytes,(uint8,address,address,address,bytes32)[],bytes32))": "infinite",
				"prepareInstallation(address,(((uint8,uint16),address),bytes))": "infinite",
				"prepareUninstallation(address,(((uint8,uint16),address),(address,address[],bytes)))": "infinite",
				"prepareUpdate(address,((uint8,uint16),(uint8,uint16),address,(address,address[],bytes)))": "infinite",
				"protocolVersion()": "infinite",
				"repoRegistry()": "2426",
				"states(bytes32)": "4646",
				"validatePreparedSetupId(bytes32,bytes32)": "4732"
			},
			"internal": {
				"_canApply(address,bytes32)": "infinite",
				"_upgradeProxy(address,address,bytes memory)": "infinite",
				"emitPrepareUpdateEvent(address,bytes32,struct PluginSetupProcessor.PrepareUpdateParams calldata,struct IPluginSetup.PreparedSetupData memory,bytes memory)": "infinite"
			}
		},
		"methodIdentifiers": {
			"APPLY_INSTALLATION_PERMISSION_ID()": "747e5ec1",
			"APPLY_UNINSTALLATION_PERMISSION_ID()": "ca211f7f",
			"APPLY_UPDATE_PERMISSION_ID()": "9665861a",
			"applyInstallation(address,(((uint8,uint16),address),address,(uint8,address,address,address,bytes32)[],bytes32))": "fe6c3474",
			"applyUninstallation(address,(address,((uint8,uint16),address),(uint8,address,address,address,bytes32)[]))": "851d11f8",
			"applyUpdate(address,(address,((uint8,uint16),address),bytes,(uint8,address,address,address,bytes32)[],bytes32))": "22e12c63",
			"prepareInstallation(address,(((uint8,uint16),address),bytes))": "3c8c01d1",
			"prepareUninstallation(address,(((uint8,uint16),address),(address,address[],bytes)))": "2fb04336",
			"prepareUpdate(address,((uint8,uint16),(uint8,uint16),address,(address,address[],bytes)))": "d7598122",
			"protocolVersion()": "2ae9c600",
			"repoRegistry()": "483d209e",
			"states(bytes32)": "fbdc1ef1",
			"validatePreparedSetupId(bytes32,bytes32)": "fafc79da"
		}
	},
	"abi": [
		{
			"inputs": [
				{
					"internalType": "contract PluginRepoRegistry",
					"name": "_repoRegistry",
					"type": "address"
				}
			],
			"stateMutability": "nonpayable",
			"type": "constructor"
		},
		{
			"inputs": [
				{
					"internalType": "address",
					"name": "plugin",
					"type": "address"
				}
			],
			"name": "IPluginNotSupported",
			"type": "error"
		},
		{
			"inputs": [
				{
					"internalType": "bytes32",
					"name": "currentAppliedSetupId",
					"type": "bytes32"
				},
				{
					"internalType": "bytes32",
					"name": "appliedSetupId",
					"type": "bytes32"
				}
			],
			"name": "InvalidAppliedSetupId",
			"type": "error"
		},
		{
			"inputs": [
				{
					"components": [
						{
							"internalType": "uint8",
							"name": "release",
							"type": "uint8"
						},
						{
							"internalType": "uint16",
							"name": "build",
							"type": "uint16"
						}
					],
					"internalType": "struct PluginRepo.Tag",
					"name": "currentVersionTag",
					"type": "tuple"
				},
				{
					"components": [
						{
							"internalType": "uint8",
							"name": "release",
							"type": "uint8"
						},
						{
							"internalType": "uint16",
							"name": "build",
							"type": "uint16"
						}
					],
					"internalType": "struct PluginRepo.Tag",
					"name": "newVersionTag",
					"type": "tuple"
				}
			],
			"name": "InvalidUpdateVersion",
			"type": "error"
		},
		{
			"inputs": [],
			"name": "PluginAlreadyInstalled",
			"type": "error"
		},
		{
			"inputs": [
				{
					"internalType": "address",
					"name": "plugin",
					"type": "address"
				}
			],
			"name": "PluginNonupgradeable",
			"type": "error"
		},
		{
			"inputs": [
				{
					"internalType": "address",
					"name": "proxy",
					"type": "address"
				},
				{
					"internalType": "address",
					"name": "implementation",
					"type": "address"
				},
				{
					"internalType": "bytes",
					"name": "initData",
					"type": "bytes"
				}
			],
			"name": "PluginProxyUpgradeFailed",
			"type": "error"
		},
		{
			"inputs": [],
			"name": "PluginRepoNonexistent",
			"type": "error"
		},
		{
			"inputs": [
				{
					"internalType": "bytes32",
					"name": "preparedSetupId",
					"type": "bytes32"
				}
			],
			"name": "SetupAlreadyPrepared",
			"type": "error"
		},
		{
			"inputs": [
				{
					"internalType": "address",
					"name": "dao",
					"type": "address"
				},
				{
					"internalType": "address",
					"name": "caller",
					"type": "address"
				},
				{
					"internalType": "bytes32",
					"name": "permissionId",
					"type": "bytes32"
				}
			],
			"name": "SetupApplicationUnauthorized",
			"type": "error"
		},
		{
			"inputs": [
				{
					"internalType": "bytes32",
					"name": "preparedSetupId",
					"type": "bytes32"
				}
			],
			"name": "SetupNotApplicable",
			"type": "error"
		},
		{
			"anonymous": false,
			"inputs": [
				{
					"indexed": true,
					"internalType": "address",
					"name": "dao",
					"type": "address"
				},
				{
					"indexed": true,
					"internalType": "address",
					"name": "plugin",
					"type": "address"
				},
				{
					"indexed": false,
					"internalType": "bytes32",
					"name": "preparedSetupId",
					"type": "bytes32"
				},
				{
					"indexed": false,
					"internalType": "bytes32",
					"name": "appliedSetupId",
					"type": "bytes32"
				}
			],
			"name": "InstallationApplied",
			"type": "event"
		},
		{
			"anonymous": false,
			"inputs": [
				{
					"indexed": true,
					"internalType": "address",
					"name": "sender",
					"type": "address"
				},
				{
					"indexed": true,
					"internalType": "address",
					"name": "dao",
					"type": "address"
				},
				{
					"indexed": false,
					"internalType": "bytes32",
					"name": "preparedSetupId",
					"type": "bytes32"
				},
				{
					"indexed": true,
					"internalType": "contract PluginRepo",
					"name": "pluginSetupRepo",
					"type": "address"
				},
				{
					"components": [
						{
							"internalType": "uint8",
							"name": "release",
							"type": "uint8"
						},
						{
							"internalType": "uint16",
							"name": "build",
							"type": "uint16"
						}
					],
					"indexed": false,
					"internalType": "struct PluginRepo.Tag",
					"name": "versionTag",
					"type": "tuple"
				},
				{
					"indexed": false,
					"internalType": "bytes",
					"name": "data",
					"type": "bytes"
				},
				{
					"indexed": false,
					"internalType": "address",
					"name": "plugin",
					"type": "address"
				},
				{
					"components": [
						{
							"internalType": "address[]",
							"name": "helpers",
							"type": "address[]"
						},
						{
							"components": [
								{
									"internalType": "enum PermissionLib.Operation",
									"name": "operation",
									"type": "uint8"
								},
								{
									"internalType": "address",
									"name": "where",
									"type": "address"
								},
								{
									"internalType": "address",
									"name": "who",
									"type": "address"
								},
								{
									"internalType": "address",
									"name": "condition",
									"type": "address"
								},
								{
									"internalType": "bytes32",
									"name": "permissionId",
									"type": "bytes32"
								}
							],
							"internalType": "struct PermissionLib.MultiTargetPermission[]",
							"name": "permissions",
							"type": "tuple[]"
						}
					],
					"indexed": false,
					"internalType": "struct IPluginSetup.PreparedSetupData",
					"name": "preparedSetupData",
					"type": "tuple"
				}
			],
			"name": "InstallationPrepared",
			"type": "event"
		},
		{
			"anonymous": false,
			"inputs": [
				{
					"indexed": true,
					"internalType": "address",
					"name": "dao",
					"type": "address"
				},
				{
					"indexed": true,
					"internalType": "address",
					"name": "plugin",
					"type": "address"
				},
				{
					"indexed": false,
					"internalType": "bytes32",
					"name": "preparedSetupId",
					"type": "bytes32"
				}
			],
			"name": "UninstallationApplied",
			"type": "event"
		},
		{
			"anonymous": false,
			"inputs": [
				{
					"indexed": true,
					"internalType": "address",
					"name": "sender",
					"type": "address"
				},
				{
					"indexed": true,
					"internalType": "address",
					"name": "dao",
					"type": "address"
				},
				{
					"indexed": false,
					"internalType": "bytes32",
					"name": "preparedSetupId",
					"type": "bytes32"
				},
				{
					"indexed": true,
					"internalType": "contract PluginRepo",
					"name": "pluginSetupRepo",
					"type": "address"
				},
				{
					"components": [
						{
							"internalType": "uint8",
							"name": "release",
							"type": "uint8"
						},
						{
							"internalType": "uint16",
							"name": "build",
							"type": "uint16"
						}
					],
					"indexed": false,
					"internalType": "struct PluginRepo.Tag",
					"name": "versionTag",
					"type": "tuple"
				},
				{
					"components": [
						{
							"internalType": "address",
							"name": "plugin",
							"type": "address"
						},
						{
							"internalType": "address[]",
							"name": "currentHelpers",
							"type": "address[]"
						},
						{
							"internalType": "bytes",
							"name": "data",
							"type": "bytes"
						}
					],
					"indexed": false,
					"internalType": "struct IPluginSetup.SetupPayload",
					"name": "setupPayload",
					"type": "tuple"
				},
				{
					"components": [
						{
							"internalType": "enum PermissionLib.Operation",
							"name": "operation",
							"type": "uint8"
						},
						{
							"internalType": "address",
							"name": "where",
							"type": "address"
						},
						{
							"internalType": "address",
							"name": "who",
							"type": "address"
						},
						{
							"internalType": "address",
							"name": "condition",
							"type": "address"
						},
						{
							"internalType": "bytes32",
							"name": "permissionId",
							"type": "bytes32"
						}
					],
					"indexed": false,
					"internalType": "struct PermissionLib.MultiTargetPermission[]",
					"name": "permissions",
					"type": "tuple[]"
				}
			],
			"name": "UninstallationPrepared",
			"type": "event"
		},
		{
			"anonymous": false,
			"inputs": [
				{
					"indexed": true,
					"internalType": "address",
					"name": "dao",
					"type": "address"
				},
				{
					"indexed": true,
					"internalType": "address",
					"name": "plugin",
					"type": "address"
				},
				{
					"indexed": false,
					"internalType": "bytes32",
					"name": "preparedSetupId",
					"type": "bytes32"
				},
				{
					"indexed": false,
					"internalType": "bytes32",
					"name": "appliedSetupId",
					"type": "bytes32"
				}
			],
			"name": "UpdateApplied",
			"type": "event"
		},
		{
			"anonymous": false,
			"inputs": [
				{
					"indexed": true,
					"internalType": "address",
					"name": "sender",
					"type": "address"
				},
				{
					"indexed": true,
					"internalType": "address",
					"name": "dao",
					"type": "address"
				},
				{
					"indexed": false,
					"internalType": "bytes32",
					"name": "preparedSetupId",
					"type": "bytes32"
				},
				{
					"indexed": true,
					"internalType": "contract PluginRepo",
					"name": "pluginSetupRepo",
					"type": "address"
				},
				{
					"components": [
						{
							"internalType": "uint8",
							"name": "release",
							"type": "uint8"
						},
						{
							"internalType": "uint16",
							"name": "build",
							"type": "uint16"
						}
					],
					"indexed": false,
					"internalType": "struct PluginRepo.Tag",
					"name": "versionTag",
					"type": "tuple"
				},
				{
					"components": [
						{
							"internalType": "address",
							"name": "plugin",
							"type": "address"
						},
						{
							"internalType": "address[]",
							"name": "currentHelpers",
							"type": "address[]"
						},
						{
							"internalType": "bytes",
							"name": "data",
							"type": "bytes"
						}
					],
					"indexed": false,
					"internalType": "struct IPluginSetup.SetupPayload",
					"name": "setupPayload",
					"type": "tuple"
				},
				{
					"components": [
						{
							"internalType": "address[]",
							"name": "helpers",
							"type": "address[]"
						},
						{
							"components": [
								{
									"internalType": "enum PermissionLib.Operation",
									"name": "operation",
									"type": "uint8"
								},
								{
									"internalType": "address",
									"name": "where",
									"type": "address"
								},
								{
									"internalType": "address",
									"name": "who",
									"type": "address"
								},
								{
									"internalType": "address",
									"name": "condition",
									"type": "address"
								},
								{
									"internalType": "bytes32",
									"name": "permissionId",
									"type": "bytes32"
								}
							],
							"internalType": "struct PermissionLib.MultiTargetPermission[]",
							"name": "permissions",
							"type": "tuple[]"
						}
					],
					"indexed": false,
					"internalType": "struct IPluginSetup.PreparedSetupData",
					"name": "preparedSetupData",
					"type": "tuple"
				},
				{
					"indexed": false,
					"internalType": "bytes",
					"name": "initData",
					"type": "bytes"
				}
			],
			"name": "UpdatePrepared",
			"type": "event"
		},
		{
			"inputs": [],
			"name": "APPLY_INSTALLATION_PERMISSION_ID",
			"outputs": [
				{
					"internalType": "bytes32",
					"name": "",
					"type": "bytes32"
				}
			],
			"stateMutability": "view",
			"type": "function"
		},
		{
			"inputs": [],
			"name": "APPLY_UNINSTALLATION_PERMISSION_ID",
			"outputs": [
				{
					"internalType": "bytes32",
					"name": "",
					"type": "bytes32"
				}
			],
			"stateMutability": "view",
			"type": "function"
		},
		{
			"inputs": [],
			"name": "APPLY_UPDATE_PERMISSION_ID",
			"outputs": [
				{
					"internalType": "bytes32",
					"name": "",
					"type": "bytes32"
				}
			],
			"stateMutability": "view",
			"type": "function"
		},
		{
			"inputs": [
				{
					"internalType": "address",
					"name": "_dao",
					"type": "address"
				},
				{
					"components": [
						{
							"components": [
								{
									"components": [
										{
											"internalType": "uint8",
											"name": "release",
											"type": "uint8"
										},
										{
											"internalType": "uint16",
											"name": "build",
											"type": "uint16"
										}
									],
									"internalType": "struct PluginRepo.Tag",
									"name": "versionTag",
									"type": "tuple"
								},
								{
									"internalType": "contract PluginRepo",
									"name": "pluginSetupRepo",
									"type": "address"
								}
							],
							"internalType": "struct PluginSetupRef",
							"name": "pluginSetupRef",
							"type": "tuple"
						},
						{
							"internalType": "address",
							"name": "plugin",
							"type": "address"
						},
						{
							"components": [
								{
									"internalType": "enum PermissionLib.Operation",
									"name": "operation",
									"type": "uint8"
								},
								{
									"internalType": "address",
									"name": "where",
									"type": "address"
								},
								{
									"internalType": "address",
									"name": "who",
									"type": "address"
								},
								{
									"internalType": "address",
									"name": "condition",
									"type": "address"
								},
								{
									"internalType": "bytes32",
									"name": "permissionId",
									"type": "bytes32"
								}
							],
							"internalType": "struct PermissionLib.MultiTargetPermission[]",
							"name": "permissions",
							"type": "tuple[]"
						},
						{
							"internalType": "bytes32",
							"name": "helpersHash",
							"type": "bytes32"
						}
					],
					"internalType": "struct PluginSetupProcessor.ApplyInstallationParams",
					"name": "_params",
					"type": "tuple"
				}
			],
			"name": "applyInstallation",
			"outputs": [],
			"stateMutability": "nonpayable",
			"type": "function"
		},
		{
			"inputs": [
				{
					"internalType": "address",
					"name": "_dao",
					"type": "address"
				},
				{
					"components": [
						{
							"internalType": "address",
							"name": "plugin",
							"type": "address"
						},
						{
							"components": [
								{
									"components": [
										{
											"internalType": "uint8",
											"name": "release",
											"type": "uint8"
										},
										{
											"internalType": "uint16",
											"name": "build",
											"type": "uint16"
										}
									],
									"internalType": "struct PluginRepo.Tag",
									"name": "versionTag",
									"type": "tuple"
								},
								{
									"internalType": "contract PluginRepo",
									"name": "pluginSetupRepo",
									"type": "address"
								}
							],
							"internalType": "struct PluginSetupRef",
							"name": "pluginSetupRef",
							"type": "tuple"
						},
						{
							"components": [
								{
									"internalType": "enum PermissionLib.Operation",
									"name": "operation",
									"type": "uint8"
								},
								{
									"internalType": "address",
									"name": "where",
									"type": "address"
								},
								{
									"internalType": "address",
									"name": "who",
									"type": "address"
								},
								{
									"internalType": "address",
									"name": "condition",
									"type": "address"
								},
								{
									"internalType": "bytes32",
									"name": "permissionId",
									"type": "bytes32"
								}
							],
							"internalType": "struct PermissionLib.MultiTargetPermission[]",
							"name": "permissions",
							"type": "tuple[]"
						}
					],
					"internalType": "struct PluginSetupProcessor.ApplyUninstallationParams",
					"name": "_params",
					"type": "tuple"
				}
			],
			"name": "applyUninstallation",
			"outputs": [],
			"stateMutability": "nonpayable",
			"type": "function"
		},
		{
			"inputs": [
				{
					"internalType": "address",
					"name": "_dao",
					"type": "address"
				},
				{
					"components": [
						{
							"internalType": "address",
							"name": "plugin",
							"type": "address"
						},
						{
							"components": [
								{
									"components": [
										{
											"internalType": "uint8",
											"name": "release",
											"type": "uint8"
										},
										{
											"internalType": "uint16",
											"name": "build",
											"type": "uint16"
										}
									],
									"internalType": "struct PluginRepo.Tag",
									"name": "versionTag",
									"type": "tuple"
								},
								{
									"internalType": "contract PluginRepo",
									"name": "pluginSetupRepo",
									"type": "address"
								}
							],
							"internalType": "struct PluginSetupRef",
							"name": "pluginSetupRef",
							"type": "tuple"
						},
						{
							"internalType": "bytes",
							"name": "initData",
							"type": "bytes"
						},
						{
							"components": [
								{
									"internalType": "enum PermissionLib.Operation",
									"name": "operation",
									"type": "uint8"
								},
								{
									"internalType": "address",
									"name": "where",
									"type": "address"
								},
								{
									"internalType": "address",
									"name": "who",
									"type": "address"
								},
								{
									"internalType": "address",
									"name": "condition",
									"type": "address"
								},
								{
									"internalType": "bytes32",
									"name": "permissionId",
									"type": "bytes32"
								}
							],
							"internalType": "struct PermissionLib.MultiTargetPermission[]",
							"name": "permissions",
							"type": "tuple[]"
						},
						{
							"internalType": "bytes32",
							"name": "helpersHash",
							"type": "bytes32"
						}
					],
					"internalType": "struct PluginSetupProcessor.ApplyUpdateParams",
					"name": "_params",
					"type": "tuple"
				}
			],
			"name": "applyUpdate",
			"outputs": [],
			"stateMutability": "nonpayable",
			"type": "function"
		},
		{
			"inputs": [
				{
					"internalType": "address",
					"name": "_dao",
					"type": "address"
				},
				{
					"components": [
						{
							"components": [
								{
									"components": [
										{
											"internalType": "uint8",
											"name": "release",
											"type": "uint8"
										},
										{
											"internalType": "uint16",
											"name": "build",
											"type": "uint16"
										}
									],
									"internalType": "struct PluginRepo.Tag",
									"name": "versionTag",
									"type": "tuple"
								},
								{
									"internalType": "contract PluginRepo",
									"name": "pluginSetupRepo",
									"type": "address"
								}
							],
							"internalType": "struct PluginSetupRef",
							"name": "pluginSetupRef",
							"type": "tuple"
						},
						{
							"internalType": "bytes",
							"name": "data",
							"type": "bytes"
						}
					],
					"internalType": "struct PluginSetupProcessor.PrepareInstallationParams",
					"name": "_params",
					"type": "tuple"
				}
			],
			"name": "prepareInstallation",
			"outputs": [
				{
					"internalType": "address",
					"name": "plugin",
					"type": "address"
				},
				{
					"components": [
						{
							"internalType": "address[]",
							"name": "helpers",
							"type": "address[]"
						},
						{
							"components": [
								{
									"internalType": "enum PermissionLib.Operation",
									"name": "operation",
									"type": "uint8"
								},
								{
									"internalType": "address",
									"name": "where",
									"type": "address"
								},
								{
									"internalType": "address",
									"name": "who",
									"type": "address"
								},
								{
									"internalType": "address",
									"name": "condition",
									"type": "address"
								},
								{
									"internalType": "bytes32",
									"name": "permissionId",
									"type": "bytes32"
								}
							],
							"internalType": "struct PermissionLib.MultiTargetPermission[]",
							"name": "permissions",
							"type": "tuple[]"
						}
					],
					"internalType": "struct IPluginSetup.PreparedSetupData",
					"name": "preparedSetupData",
					"type": "tuple"
				}
			],
			"stateMutability": "nonpayable",
			"type": "function"
		},
		{
			"inputs": [
				{
					"internalType": "address",
					"name": "_dao",
					"type": "address"
				},
				{
					"components": [
						{
							"components": [
								{
									"components": [
										{
											"internalType": "uint8",
											"name": "release",
											"type": "uint8"
										},
										{
											"internalType": "uint16",
											"name": "build",
											"type": "uint16"
										}
									],
									"internalType": "struct PluginRepo.Tag",
									"name": "versionTag",
									"type": "tuple"
								},
								{
									"internalType": "contract PluginRepo",
									"name": "pluginSetupRepo",
									"type": "address"
								}
							],
							"internalType": "struct PluginSetupRef",
							"name": "pluginSetupRef",
							"type": "tuple"
						},
						{
							"components": [
								{
									"internalType": "address",
									"name": "plugin",
									"type": "address"
								},
								{
									"internalType": "address[]",
									"name": "currentHelpers",
									"type": "address[]"
								},
								{
									"internalType": "bytes",
									"name": "data",
									"type": "bytes"
								}
							],
							"internalType": "struct IPluginSetup.SetupPayload",
							"name": "setupPayload",
							"type": "tuple"
						}
					],
					"internalType": "struct PluginSetupProcessor.PrepareUninstallationParams",
					"name": "_params",
					"type": "tuple"
				}
			],
			"name": "prepareUninstallation",
			"outputs": [
				{
					"components": [
						{
							"internalType": "enum PermissionLib.Operation",
							"name": "operation",
							"type": "uint8"
						},
						{
							"internalType": "address",
							"name": "where",
							"type": "address"
						},
						{
							"internalType": "address",
							"name": "who",
							"type": "address"
						},
						{
							"internalType": "address",
							"name": "condition",
							"type": "address"
						},
						{
							"internalType": "bytes32",
							"name": "permissionId",
							"type": "bytes32"
						}
					],
					"internalType": "struct PermissionLib.MultiTargetPermission[]",
					"name": "permissions",
					"type": "tuple[]"
				}
			],
			"stateMutability": "nonpayable",
			"type": "function"
		},
		{
			"inputs": [
				{
					"internalType": "address",
					"name": "_dao",
					"type": "address"
				},
				{
					"components": [
						{
							"components": [
								{
									"internalType": "uint8",
									"name": "release",
									"type": "uint8"
								},
								{
									"internalType": "uint16",
									"name": "build",
									"type": "uint16"
								}
							],
							"internalType": "struct PluginRepo.Tag",
							"name": "currentVersionTag",
							"type": "tuple"
						},
						{
							"components": [
								{
									"internalType": "uint8",
									"name": "release",
									"type": "uint8"
								},
								{
									"internalType": "uint16",
									"name": "build",
									"type": "uint16"
								}
							],
							"internalType": "struct PluginRepo.Tag",
							"name": "newVersionTag",
							"type": "tuple"
						},
						{
							"internalType": "contract PluginRepo",
							"name": "pluginSetupRepo",
							"type": "address"
						},
						{
							"components": [
								{
									"internalType": "address",
									"name": "plugin",
									"type": "address"
								},
								{
									"internalType": "address[]",
									"name": "currentHelpers",
									"type": "address[]"
								},
								{
									"internalType": "bytes",
									"name": "data",
									"type": "bytes"
								}
							],
							"internalType": "struct IPluginSetup.SetupPayload",
							"name": "setupPayload",
							"type": "tuple"
						}
					],
					"internalType": "struct PluginSetupProcessor.PrepareUpdateParams",
					"name": "_params",
					"type": "tuple"
				}
			],
			"name": "prepareUpdate",
			"outputs": [
				{
					"internalType": "bytes",
					"name": "initData",
					"type": "bytes"
				},
				{
					"components": [
						{
							"internalType": "address[]",
							"name": "helpers",
							"type": "address[]"
						},
						{
							"components": [
								{
									"internalType": "enum PermissionLib.Operation",
									"name": "operation",
									"type": "uint8"
								},
								{
									"internalType": "address",
									"name": "where",
									"type": "address"
								},
								{
									"internalType": "address",
									"name": "who",
									"type": "address"
								},
								{
									"internalType": "address",
									"name": "condition",
									"type": "address"
								},
								{
									"internalType": "bytes32",
									"name": "permissionId",
									"type": "bytes32"
								}
							],
							"internalType": "struct PermissionLib.MultiTargetPermission[]",
							"name": "permissions",
							"type": "tuple[]"
						}
					],
					"internalType": "struct IPluginSetup.PreparedSetupData",
					"name": "preparedSetupData",
					"type": "tuple"
				}
			],
			"stateMutability": "nonpayable",
			"type": "function"
		},
		{
			"inputs": [],
			"name": "protocolVersion",
			"outputs": [
				{
					"internalType": "uint8[3]",
					"name": "",
					"type": "uint8[3]"
				}
			],
			"stateMutability": "pure",
			"type": "function"
		},
		{
			"inputs": [],
			"name": "repoRegistry",
			"outputs": [
				{
					"internalType": "contract PluginRepoRegistry",
					"name": "",
					"type": "address"
				}
			],
			"stateMutability": "view",
			"type": "function"
		},
		{
			"inputs": [
				{
					"internalType": "bytes32",
					"name": "",
					"type": "bytes32"
				}
			],
			"name": "states",
			"outputs": [
				{
					"internalType": "uint256",
					"name": "blockNumber",
					"type": "uint256"
				},
				{
					"internalType": "bytes32",
					"name": "currentAppliedSetupId",
					"type": "bytes32"
				}
			],
			"stateMutability": "view",
			"type": "function"
		},
		{
			"inputs": [
				{
					"internalType": "bytes32",
					"name": "pluginInstallationId",
					"type": "bytes32"
				},
				{
					"internalType": "bytes32",
					"name": "preparedSetupId",
					"type": "bytes32"
				}
			],
			"name": "validatePreparedSetupId",
			"outputs": [],
			"stateMutability": "view",
			"type": "function"
		}
	]
}