{
	"packages/contracts/src/core/permission/PermissionLib.sol": {
		"PermissionLib": {
			"abi": [
				{
					"inputs": [],
					"name": "NO_CONDITION",
					"outputs": [
						{
							"internalType": "address",
							"name": "",
							"type": "address"
						}
					],
					"stateMutability": "view",
					"type": "function"
				}
			],
			"devdoc": {
				"author": "Aragon Association - 2021-2023",
				"custom:security-contact": "sirt@aragon.org",
				"kind": "dev",
				"methods": {},
				"title": "PermissionLib",
				"version": 1
			},
			"evm": {
				"assembly": "    /* \"packages/contracts/src/core/permission/PermissionLib.sol\":261:2108  library PermissionLib {... */\n  dataSize(sub_0)\n  dataOffset(sub_0)\n  0x0b\n  dup3\n  dup3\n  dup3\n  codecopy\n  dup1\n  mload\n  0x00\n  byte\n  0x73\n  eq\n  tag_1\n  jumpi\n  mstore(0x00, shl(0xe0, 0x4e487b71))\n  mstore(0x04, 0x00)\n  revert(0x00, 0x24)\ntag_1:\n  mstore(0x00, address)\n  0x73\n  dup2\n  mstore8\n  dup3\n  dup2\n  return\nstop\n\nsub_0: assembly {\n        /* \"packages/contracts/src/core/permission/PermissionLib.sol\":261:2108  library PermissionLib {... */\n      eq(address, deployTimeAddress())\n      mstore(0x40, 0x80)\n      jumpi(tag_1, lt(calldatasize, 0x04))\n      shr(0xe0, calldataload(0x00))\n      dup1\n      0x6dd02a5b\n      eq\n      tag_2\n      jumpi\n    tag_1:\n      0x00\n      dup1\n      revert\n        /* \"packages/contracts/src/core/permission/PermissionLib.sol\":375:424  address public constant NO_CONDITION = address(0) */\n    tag_2:\n      tag_3\n        /* \"packages/contracts/src/core/permission/PermissionLib.sol\":422:423  0 */\n      0x00\n        /* \"packages/contracts/src/core/permission/PermissionLib.sol\":375:424  address public constant NO_CONDITION = address(0) */\n      dup2\n      jump\n    tag_3:\n      mload(0x40)\n      sub(shl(0xa0, 0x01), 0x01)\n        /* \"#utility.yul\":186:218   */\n      swap1\n      swap2\n      and\n        /* \"#utility.yul\":168:219   */\n      dup2\n      mstore\n        /* \"#utility.yul\":156:158   */\n      0x20\n        /* \"#utility.yul\":141:159   */\n      add\n        /* \"packages/contracts/src/core/permission/PermissionLib.sol\":375:424  address public constant NO_CONDITION = address(0) */\n      mload(0x40)\n      dup1\n      swap2\n      sub\n      swap1\n      return\n\n    auxdata: 0xa26469706673582212205b64d19c4d31650f4ac4b8ef13d24cbe4e2d2bdcfc6ec8e434b3745129a18c3a64736f6c63430008110033\n}\n",
				"bytecode": {
					"linkReferences": {},
					"object": "6091610038600b82828239805160001a607314602b57634e487b7160e01b600052600060045260246000fd5b30600052607381538281f3fe730000000000000000000000000000000000000000301460806040526004361060335760003560e01c80636dd02a5b146038575b600080fd5b603f600081565b6040516001600160a01b03909116815260200160405180910390f3fea26469706673582212205b64d19c4d31650f4ac4b8ef13d24cbe4e2d2bdcfc6ec8e434b3745129a18c3a64736f6c63430008110033",
					"opcodes": "PUSH1 0x91 PUSH2 0x38 PUSH1 0xB DUP3 DUP3 DUP3 CODECOPY DUP1 MLOAD PUSH1 0x0 BYTE PUSH1 0x73 EQ PUSH1 0x2B JUMPI PUSH4 0x4E487B71 PUSH1 0xE0 SHL PUSH1 0x0 MSTORE PUSH1 0x0 PUSH1 0x4 MSTORE PUSH1 0x24 PUSH1 0x0 REVERT JUMPDEST ADDRESS PUSH1 0x0 MSTORE PUSH1 0x73 DUP2 MSTORE8 DUP3 DUP2 RETURN INVALID PUSH20 0x0 ADDRESS EQ PUSH1 0x80 PUSH1 0x40 MSTORE PUSH1 0x4 CALLDATASIZE LT PUSH1 0x33 JUMPI PUSH1 0x0 CALLDATALOAD PUSH1 0xE0 SHR DUP1 PUSH4 0x6DD02A5B EQ PUSH1 0x38 JUMPI JUMPDEST PUSH1 0x0 DUP1 REVERT JUMPDEST PUSH1 0x3F PUSH1 0x0 DUP2 JUMP JUMPDEST PUSH1 0x40 MLOAD PUSH1 0x1 PUSH1 0x1 PUSH1 0xA0 SHL SUB SWAP1 SWAP2 AND DUP2 MSTORE PUSH1 0x20 ADD PUSH1 0x40 MLOAD DUP1 SWAP2 SUB SWAP1 RETURN INVALID LOG2 PUSH5 0x6970667358 0x22 SLT KECCAK256 JUMPDEST PUSH5 0xD19C4D3165 0xF 0x4A 0xC4 0xB8 0xEF SGT 0xD2 0x4C 0xBE 0x4E 0x2D 0x2B 0xDC 0xFC PUSH15 0xC8E434B3745129A18C3A64736F6C63 NUMBER STOP ADDMOD GT STOP CALLER "
				},
				"gasEstimates": {
					"creation": {
						"codeDepositCost": "29000",
						"executionCost": "112",
						"totalCost": "29112"
					},
					"external": {
						"NO_CONDITION()": "166"
					}
				},
				"methodIdentifiers": {
					"NO_CONDITION()": "6dd02a5b"
				}
			},
			"storageLayout": {
				"storage": [],
				"types": null
			},
			"userdoc": {
				"kind": "user",
				"methods": {
					"NO_CONDITION()": {
						"notice": "A constant expressing that no condition is applied to a permission."
					}
				},
				"notice": "A library containing objects for permission processing.",
				"version": 1
			}
		}
	}
}