{
	"packages/contracts/src/mocks/proxy/UUPSUpgradeableMockUpgradeable.sol": {
		"NonUpgradeableMockUpgradeable": {
			"abi": [
				{
					"anonymous": false,
					"inputs": [
						{
							"indexed": false,
							"internalType": "uint8",
							"name": "version",
							"type": "uint8"
						}
					],
					"name": "Initialized",
					"type": "event"
				},
				{
					"inputs": [],
					"name": "current",
					"outputs": [
						{
							"internalType": "uint256",
							"name": "",
							"type": "uint256"
						}
					],
					"stateMutability": "view",
					"type": "function"
				},
				{
					"inputs": [],
					"name": "increment",
					"outputs": [],
					"stateMutability": "nonpayable",
					"type": "function"
				}
			],
			"devdoc": {
				"kind": "dev",
				"methods": {},
				"stateVariables": {
					"__gap": {
						"details": "This empty reserved space is put in place to allow future versions to add new variables without shifting down storage in the inheritance chain. See https://docs.openzeppelin.com/contracts/4.x/upgradeable#storage_gaps"
					}
				},
				"version": 1
			},
			"evm": {
				"assembly": "    /* \"packages/contracts/src/mocks/proxy/UUPSUpgradeableMockUpgradeable.sol\":207:1008  contract NonUpgradeableMockUpgradeable is Initializable {... */\n  mstore(0x40, 0x80)\n  callvalue\n  dup1\n  iszero\n  tag_1\n  jumpi\n  0x00\n  dup1\n  revert\ntag_1:\n  pop\n  dataSize(sub_0)\n  dup1\n  dataOffset(sub_0)\n  0x00\n  codecopy\n  0x00\n  return\nstop\n\nsub_0: assembly {\n        /* \"packages/contracts/src/mocks/proxy/UUPSUpgradeableMockUpgradeable.sol\":207:1008  contract NonUpgradeableMockUpgradeable is Initializable {... */\n      mstore(0x40, 0x80)\n      callvalue\n      dup1\n      iszero\n      tag_1\n      jumpi\n      0x00\n      dup1\n      revert\n    tag_1:\n      pop\n      jumpi(tag_2, lt(calldatasize, 0x04))\n      shr(0xe0, calldataload(0x00))\n      dup1\n      0x9fa6a6e3\n      eq\n      tag_3\n      jumpi\n      dup1\n      0xd09de08a\n      eq\n      tag_4\n      jumpi\n    tag_2:\n      0x00\n      dup1\n      revert\n        /* \"packages/contracts/src/mocks/proxy/UUPSUpgradeableMockUpgradeable.sol\":490:604  function current() external view returns (uint256) {... */\n    tag_3:\n      tag_5\n      tag_6\n      jump\t// in\n    tag_5:\n      mload(0x40)\n        /* \"#utility.yul\":160:185   */\n      swap1\n      dup2\n      mstore\n        /* \"#utility.yul\":148:150   */\n      0x20\n        /* \"#utility.yul\":133:151   */\n      add\n        /* \"packages/contracts/src/mocks/proxy/UUPSUpgradeableMockUpgradeable.sol\":490:604  function current() external view returns (uint256) {... */\n      mload(0x40)\n      dup1\n      swap2\n      sub\n      swap1\n      return\n        /* \"packages/contracts/src/mocks/proxy/UUPSUpgradeableMockUpgradeable.sol\":612:707  function increment() external {... */\n    tag_4:\n      tag_9\n      tag_10\n      jump\t// in\n    tag_9:\n      stop\n        /* \"packages/contracts/src/mocks/proxy/UUPSUpgradeableMockUpgradeable.sol\":490:604  function current() external view returns (uint256) {... */\n    tag_6:\n        /* \"packages/contracts/src/mocks/proxy/UUPSUpgradeableMockUpgradeable.sol\":532:539  uint256 */\n      0x00\n        /* \"packages/contracts/src/mocks/proxy/UUPSUpgradeableMockUpgradeable.sol\":559:596  CountersUpgradeable.current(_counter) */\n      tag_12\n        /* \"packages/contracts/src/mocks/proxy/UUPSUpgradeableMockUpgradeable.sol\":587:595  _counter */\n      0x01\n        /* \"packages/contracts/src/utils/CountersUpgradeable.sol\":951:965  counter._value */\n      sload\n      swap1\n        /* \"packages/contracts/src/utils/CountersUpgradeable.sol\":859:973  function current(Counter storage counter) internal view returns (uint256) {... */\n      jump\n        /* \"packages/contracts/src/mocks/proxy/UUPSUpgradeableMockUpgradeable.sol\":559:596  CountersUpgradeable.current(_counter) */\n    tag_12:\n        /* \"packages/contracts/src/mocks/proxy/UUPSUpgradeableMockUpgradeable.sol\":552:596  return CountersUpgradeable.current(_counter) */\n      swap1\n      pop\n        /* \"packages/contracts/src/mocks/proxy/UUPSUpgradeableMockUpgradeable.sol\":490:604  function current() external view returns (uint256) {... */\n      swap1\n      jump\t// out\n        /* \"packages/contracts/src/mocks/proxy/UUPSUpgradeableMockUpgradeable.sol\":612:707  function increment() external {... */\n    tag_10:\n        /* \"packages/contracts/src/mocks/proxy/UUPSUpgradeableMockUpgradeable.sol\":660:699  CountersUpgradeable.increment(_counter) */\n      tag_15\n        /* \"packages/contracts/src/mocks/proxy/UUPSUpgradeableMockUpgradeable.sol\":690:698  _counter */\n      0x01\n        /* \"packages/contracts/src/utils/CountersUpgradeable.sol\":1070:1089  counter._value += 1 */\n      dup1\n      sload\n        /* \"packages/contracts/src/utils/CountersUpgradeable.sol\":1088:1089  1 */\n      0x01\n        /* \"packages/contracts/src/utils/CountersUpgradeable.sol\":1070:1089  counter._value += 1 */\n      add\n      swap1\n      sstore\n        /* \"packages/contracts/src/utils/CountersUpgradeable.sol\":981:1108  function increment(Counter storage counter) internal {... */\n      jump\n        /* \"packages/contracts/src/mocks/proxy/UUPSUpgradeableMockUpgradeable.sol\":660:699  CountersUpgradeable.increment(_counter) */\n    tag_15:\n        /* \"packages/contracts/src/mocks/proxy/UUPSUpgradeableMockUpgradeable.sol\":612:707  function increment() external {... */\n      jump\t// out\n\n    auxdata: 0xa264697066735822122072cb360b0d4363369573f9266337a0b2f79d54116d315ca6f808c77ddc42c0bc64736f6c63430008110033\n}\n",
				"bytecode": {
					"linkReferences": {},
					"object": "608060405234801561001057600080fd5b5060ab8061001f6000396000f3fe6080604052348015600f57600080fd5b506004361060325760003560e01c80639fa6a6e3146037578063d09de08a14604f575b600080fd5b603d6057565b60405190815260200160405180910390f35b60556066565b005b6000606160015490565b905090565b6073600180546001019055565b56fea264697066735822122072cb360b0d4363369573f9266337a0b2f79d54116d315ca6f808c77ddc42c0bc64736f6c63430008110033",
					"opcodes": "PUSH1 0x80 PUSH1 0x40 MSTORE CALLVALUE DUP1 ISZERO PUSH2 0x10 JUMPI PUSH1 0x0 DUP1 REVERT JUMPDEST POP PUSH1 0xAB DUP1 PUSH2 0x1F PUSH1 0x0 CODECOPY PUSH1 0x0 RETURN INVALID PUSH1 0x80 PUSH1 0x40 MSTORE CALLVALUE DUP1 ISZERO PUSH1 0xF JUMPI PUSH1 0x0 DUP1 REVERT JUMPDEST POP PUSH1 0x4 CALLDATASIZE LT PUSH1 0x32 JUMPI PUSH1 0x0 CALLDATALOAD PUSH1 0xE0 SHR DUP1 PUSH4 0x9FA6A6E3 EQ PUSH1 0x37 JUMPI DUP1 PUSH4 0xD09DE08A EQ PUSH1 0x4F JUMPI JUMPDEST PUSH1 0x0 DUP1 REVERT JUMPDEST PUSH1 0x3D PUSH1 0x57 JUMP JUMPDEST PUSH1 0x40 MLOAD SWAP1 DUP2 MSTORE PUSH1 0x20 ADD PUSH1 0x40 MLOAD DUP1 SWAP2 SUB SWAP1 RETURN JUMPDEST PUSH1 0x55 PUSH1 0x66 JUMP JUMPDEST STOP JUMPDEST PUSH1 0x0 PUSH1 0x61 PUSH1 0x1 SLOAD SWAP1 JUMP JUMPDEST SWAP1 POP SWAP1 JUMP JUMPDEST PUSH1 0x73 PUSH1 0x1 DUP1 SLOAD PUSH1 0x1 ADD SWAP1 SSTORE JUMP JUMPDEST JUMP INVALID LOG2 PUSH5 0x6970667358 0x22 SLT KECCAK256 PUSH19 0xCB360B0D4363369573F9266337A0B2F79D5411 PUSH14 0x315CA6F808C77DDC42C0BC64736F PUSH13 0x63430008110033000000000000 "
				},
				"gasEstimates": {
					"creation": {
						"codeDepositCost": "34200",
						"executionCost": "87",
						"totalCost": "34287"
					},
					"external": {
						"current()": "2296",
						"increment()": "24371"
					},
					"internal": {
						"__NonUpgradeableMock_init()": "infinite",
						"__NonUpgradeableMock_init_unchained()": "infinite"
					}
				},
				"methodIdentifiers": {
					"current()": "9fa6a6e3",
					"increment()": "d09de08a"
				}
			},
			"storageLayout": {
				"storage": [
					{
						"astId": 810,
						"contract": "packages/contracts/src/mocks/proxy/UUPSUpgradeableMockUpgradeable.sol:NonUpgradeableMockUpgradeable",
						"label": "_initialized",
						"offset": 0,
						"slot": "0",
						"type": "t_uint8"
					},
					{
						"astId": 813,
						"contract": "packages/contracts/src/mocks/proxy/UUPSUpgradeableMockUpgradeable.sol:NonUpgradeableMockUpgradeable",
						"label": "_initializing",
						"offset": 1,
						"slot": "0",
						"type": "t_bool"
					},
					{
						"astId": 207,
						"contract": "packages/contracts/src/mocks/proxy/UUPSUpgradeableMockUpgradeable.sol:NonUpgradeableMockUpgradeable",
						"label": "_counter",
						"offset": 0,
						"slot": "1",
						"type": "t_struct(Counter)1308_storage"
					},
					{
						"astId": 244,
						"contract": "packages/contracts/src/mocks/proxy/UUPSUpgradeableMockUpgradeable.sol:NonUpgradeableMockUpgradeable",
						"label": "__gap",
						"offset": 0,
						"slot": "2",
						"type": "t_array(t_uint256)49_storage"
					}
				],
				"types": {
					"t_array(t_uint256)49_storage": {
						"base": "t_uint256",
						"encoding": "inplace",
						"label": "uint256[49]",
						"numberOfBytes": "1568"
					},
					"t_bool": {
						"encoding": "inplace",
						"label": "bool",
						"numberOfBytes": "1"
					},
					"t_struct(Counter)1308_storage": {
						"encoding": "inplace",
						"label": "struct CountersUpgradeable.Counter",
						"members": [
							{
								"astId": 1307,
								"contract": "packages/contracts/src/mocks/proxy/UUPSUpgradeableMockUpgradeable.sol:NonUpgradeableMockUpgradeable",
								"label": "_value",
								"offset": 0,
								"slot": "0",
								"type": "t_uint256"
							}
						],
						"numberOfBytes": "32"
					},
					"t_uint256": {
						"encoding": "inplace",
						"label": "uint256",
						"numberOfBytes": "32"
					},
					"t_uint8": {
						"encoding": "inplace",
						"label": "uint8",
						"numberOfBytes": "1"
					}
				}
			},
			"userdoc": {
				"kind": "user",
				"methods": {},
				"version": 1
			}
		}
	}
}