{
	"packages/contracts/src/mocks/proxy/UUPSUpgradeableMockUpgradeable.sol": {
		"UUPSUpgradeableMockUpgradeable": {
			"abi": [
				{
					"anonymous": false,
					"inputs": [
						{
							"indexed": false,
							"internalType": "address",
							"name": "previousAdmin",
							"type": "address"
						},
						{
							"indexed": false,
							"internalType": "address",
							"name": "newAdmin",
							"type": "address"
						}
					],
					"name": "AdminChanged",
					"type": "event"
				},
				{
					"anonymous": false,
					"inputs": [
						{
							"indexed": true,
							"internalType": "address",
							"name": "beacon",
							"type": "address"
						}
					],
					"name": "BeaconUpgraded",
					"type": "event"
				},
				{
					"anonymous": false,
					"inputs": [
						{
							"indexed": false,
							"internalType": "uint8",
							"name": "version",
							"type": "uint8"
						}
					],
					"name": "Initialized",
					"type": "event"
				},
				{
					"anonymous": false,
					"inputs": [
						{
							"indexed": true,
							"internalType": "address",
							"name": "implementation",
							"type": "address"
						}
					],
					"name": "Upgraded",
					"type": "event"
				},
				{
					"inputs": [],
					"name": "current",
					"outputs": [
						{
							"internalType": "uint256",
							"name": "",
							"type": "uint256"
						}
					],
					"stateMutability": "view",
					"type": "function"
				},
				{
					"inputs": [],
					"name": "increment",
					"outputs": [],
					"stateMutability": "nonpayable",
					"type": "function"
				},
				{
					"inputs": [],
					"name": "proxiableUUID",
					"outputs": [
						{
							"internalType": "bytes32",
							"name": "",
							"type": "bytes32"
						}
					],
					"stateMutability": "view",
					"type": "function"
				},
				{
					"inputs": [
						{
							"internalType": "address",
							"name": "newImplementation",
							"type": "address"
						}
					],
					"name": "upgradeTo",
					"outputs": [],
					"stateMutability": "nonpayable",
					"type": "function"
				},
				{
					"inputs": [
						{
							"internalType": "address",
							"name": "newImplementation",
							"type": "address"
						},
						{
							"internalType": "bytes",
							"name": "data",
							"type": "bytes"
						}
					],
					"name": "upgradeToAndCall",
					"outputs": [],
					"stateMutability": "payable",
					"type": "function"
				}
			],
			"devdoc": {
				"kind": "dev",
				"methods": {
					"proxiableUUID()": {
						"details": "Implementation of the ERC1822 {proxiableUUID} function. This returns the storage slot used by the implementation. It is used to validate the implementation's compatibility when performing an upgrade. IMPORTANT: A proxy pointing at a proxiable contract should not be considered proxiable itself, because this risks bricking a proxy that upgrades to it, by delegating to itself until out of gas. Thus it is critical that this function revert if invoked through a proxy. This is guaranteed by the `notDelegated` modifier."
					},
					"upgradeTo(address)": {
						"custom:oz-upgrades-unsafe-allow-reachable": "delegatecall",
						"details": "Upgrade the implementation of the proxy to `newImplementation`. Calls {_authorizeUpgrade}. Emits an {Upgraded} event."
					},
					"upgradeToAndCall(address,bytes)": {
						"custom:oz-upgrades-unsafe-allow-reachable": "delegatecall",
						"details": "Upgrade the implementation of the proxy to `newImplementation`, and subsequently execute the function call encoded in `data`. Calls {_authorizeUpgrade}. Emits an {Upgraded} event."
					}
				},
				"stateVariables": {
					"__gap": {
						"details": "This empty reserved space is put in place to allow future versions to add new variables without shifting down storage in the inheritance chain. See https://docs.openzeppelin.com/contracts/4.x/upgradeable#storage_gaps"
					}
				},
				"version": 1
			},
			"evm": {
				"assembly": "    /* \"packages/contracts/src/mocks/proxy/UUPSUpgradeableMockUpgradeable.sol\":1012:1740  contract UUPSUpgradeableMockUpgradeable is Initializable, NonUpgradeableMockUpgradeable, UUPSUpgradeable {... */\n  mstore(0x40, 0xa0)\n    /* \"packages/contracts/src/proxy/utils/UUPSUpgradeable.sol\":1360:1364  this */\n  address\n    /* \"packages/contracts/src/proxy/utils/UUPSUpgradeable.sol\":1317:1365  address private immutable __self = address(this) */\n  0x80\n  mstore\n    /* \"packages/contracts/src/mocks/proxy/UUPSUpgradeableMockUpgradeable.sol\":1012:1740  contract UUPSUpgradeableMockUpgradeable is Initializable, NonUpgradeableMockUpgradeable, UUPSUpgradeable {... */\n  callvalue\n  dup1\n  iszero\n  tag_1\n  jumpi\n  0x00\n  dup1\n  revert\ntag_1:\n  pop\n  mload(0x80)\n  codecopy(0x00, dataOffset(sub_0), dataSize(sub_0))\n  0x00\n  assignImmutable(\"0xc2c77dc624b4aac67a6e14132cf7e60e698350f9c72b88ffba77407546a8ee13\")\n  return(0x00, dataSize(sub_0))\nstop\n\nsub_0: assembly {\n        /* \"packages/contracts/src/mocks/proxy/UUPSUpgradeableMockUpgradeable.sol\":1012:1740  contract UUPSUpgradeableMockUpgradeable is Initializable, NonUpgradeableMockUpgradeable, UUPSUpgradeable {... */\n      mstore(0x40, 0x80)\n      jumpi(tag_1, lt(calldatasize, 0x04))\n      shr(0xe0, calldataload(0x00))\n      dup1\n      0x3659cfe6\n      eq\n      tag_2\n      jumpi\n      dup1\n      0x4f1ef286\n      eq\n      tag_3\n      jumpi\n      dup1\n      0x52d1902d\n      eq\n      tag_4\n      jumpi\n      dup1\n      0x9fa6a6e3\n      eq\n      tag_5\n      jumpi\n      dup1\n      0xd09de08a\n      eq\n      tag_6\n      jumpi\n    tag_1:\n      0x00\n      dup1\n      revert\n        /* \"packages/contracts/src/proxy/utils/UUPSUpgradeable.sol\":3460:3658  function upgradeTo(address newImplementation) public virtual onlyProxy {... */\n    tag_2:\n      callvalue\n      dup1\n      iszero\n      tag_7\n      jumpi\n      0x00\n      dup1\n      revert\n    tag_7:\n      pop\n      tag_8\n      tag_9\n      calldatasize\n      0x04\n      tag_10\n      jump\t// in\n    tag_9:\n      tag_11\n      jump\t// in\n    tag_8:\n      stop\n        /* \"packages/contracts/src/proxy/utils/UUPSUpgradeable.sol\":3989:4212  function upgradeToAndCall(address newImplementation, bytes memory data) public payable virtual onlyProxy {... */\n    tag_3:\n      tag_8\n      tag_13\n      calldatasize\n      0x04\n      tag_14\n      jump\t// in\n    tag_13:\n      tag_15\n      jump\t// in\n        /* \"packages/contracts/src/proxy/utils/UUPSUpgradeable.sol\":3066:3199  function proxiableUUID() external view virtual override notDelegated returns (bytes32) {... */\n    tag_4:\n      callvalue\n      dup1\n      iszero\n      tag_16\n      jumpi\n      0x00\n      dup1\n      revert\n    tag_16:\n      pop\n      tag_17\n      tag_18\n      jump\t// in\n    tag_17:\n      mload(0x40)\n        /* \"#utility.yul\":1661:1686   */\n      swap1\n      dup2\n      mstore\n        /* \"#utility.yul\":1649:1651   */\n      0x20\n        /* \"#utility.yul\":1634:1652   */\n      add\n        /* \"packages/contracts/src/proxy/utils/UUPSUpgradeable.sol\":3066:3199  function proxiableUUID() external view virtual override notDelegated returns (bytes32) {... */\n      mload(0x40)\n      dup1\n      swap2\n      sub\n      swap1\n      return\n        /* \"packages/contracts/src/mocks/proxy/UUPSUpgradeableMockUpgradeable.sol\":490:604  function current() external view returns (uint256) {... */\n    tag_5:\n      callvalue\n      dup1\n      iszero\n      tag_21\n      jumpi\n      0x00\n      dup1\n      revert\n    tag_21:\n      pop\n      tag_17\n      tag_23\n      jump\t// in\n        /* \"packages/contracts/src/mocks/proxy/UUPSUpgradeableMockUpgradeable.sol\":612:707  function increment() external {... */\n    tag_6:\n      callvalue\n      dup1\n      iszero\n      tag_26\n      jumpi\n      0x00\n      dup1\n      revert\n    tag_26:\n      pop\n      tag_8\n      tag_28\n      jump\t// in\n        /* \"packages/contracts/src/proxy/utils/UUPSUpgradeable.sol\":3460:3658  function upgradeTo(address newImplementation) public virtual onlyProxy {... */\n    tag_11:\n      sub(shl(0xa0, 0x01), 0x01)\n        /* \"packages/contracts/src/proxy/utils/UUPSUpgradeable.sol\":1936:1942  __self */\n      immutable(\"0xc2c77dc624b4aac67a6e14132cf7e60e698350f9c72b88ffba77407546a8ee13\")\n        /* \"packages/contracts/src/proxy/utils/UUPSUpgradeable.sol\":1919:1942  address(this) != __self */\n      and\n        /* \"packages/contracts/src/proxy/utils/UUPSUpgradeable.sol\":1927:1931  this */\n      address\n        /* \"packages/contracts/src/proxy/utils/UUPSUpgradeable.sol\":1919:1942  address(this) != __self */\n      sub\n        /* \"packages/contracts/src/proxy/utils/UUPSUpgradeable.sol\":1911:1991  require(address(this) != __self, \"Function must be called through delegatecall\") */\n      tag_30\n      jumpi\n      mload(0x40)\n      shl(0xe5, 0x461bcd)\n      dup2\n      mstore\n      0x04\n      add\n      tag_31\n      swap1\n      tag_32\n      jump\t// in\n    tag_31:\n      mload(0x40)\n      dup1\n      swap2\n      sub\n      swap1\n      revert\n    tag_30:\n        /* \"packages/contracts/src/proxy/utils/UUPSUpgradeable.sol\":2034:2040  __self */\n      immutable(\"0xc2c77dc624b4aac67a6e14132cf7e60e698350f9c72b88ffba77407546a8ee13\")\n      sub(shl(0xa0, 0x01), 0x01)\n        /* \"packages/contracts/src/proxy/utils/UUPSUpgradeable.sol\":2010:2040  _getImplementation() == __self */\n      and\n        /* \"packages/contracts/src/proxy/utils/UUPSUpgradeable.sol\":2010:2030  _getImplementation() */\n      tag_33\n      0x00\n      dup1\n      mload\n      0x20\n      data_75b20eef8615de99c108b05f0dbda081c91897128caa336d75dffb97c4132b4d\n      dup4\n      codecopy\n      dup2\n      mload\n      swap2\n      mstore\n        /* \"packages/contracts/src/proxy/ERC1967/ERC1967UpgradeUpgradeable.sol\":1574:1639  StorageSlotUpgradeable.getAddressSlot(_IMPLEMENTATION_SLOT).value */\n      sload\n      sub(shl(0xa0, 0x01), 0x01)\n      and\n      swap1\n        /* \"packages/contracts/src/proxy/ERC1967/ERC1967UpgradeUpgradeable.sol\":1494:1647  function _getImplementation() internal view returns (address) {... */\n      jump\n        /* \"packages/contracts/src/proxy/utils/UUPSUpgradeable.sol\":2010:2030  _getImplementation() */\n    tag_33:\n      sub(shl(0xa0, 0x01), 0x01)\n        /* \"packages/contracts/src/proxy/utils/UUPSUpgradeable.sol\":2010:2040  _getImplementation() == __self */\n      and\n      eq\n        /* \"packages/contracts/src/proxy/utils/UUPSUpgradeable.sol\":2002:2089  require(_getImplementation() == __self, \"Function must be called through active proxy\") */\n      tag_35\n      jumpi\n      mload(0x40)\n      shl(0xe5, 0x461bcd)\n      dup2\n      mstore\n      0x04\n      add\n      tag_31\n      swap1\n      tag_37\n      jump\t// in\n    tag_35:\n        /* \"packages/contracts/src/proxy/utils/UUPSUpgradeable.sol\":3630:3642  new bytes(0) */\n      0x40\n      dup1\n      mload\n        /* \"packages/contracts/src/proxy/utils/UUPSUpgradeable.sol\":3640:3641  0 */\n      0x00\n        /* \"packages/contracts/src/proxy/utils/UUPSUpgradeable.sol\":3630:3642  new bytes(0) */\n      dup1\n      dup3\n      mstore\n      0x20\n      dup3\n      add\n      swap1\n      swap3\n      mstore\n        /* \"packages/contracts/src/proxy/utils/UUPSUpgradeable.sol\":3589:3650  _upgradeToAndCallUUPS(newImplementation, new bytes(0), false) */\n      tag_41\n      swap2\n        /* \"packages/contracts/src/proxy/utils/UUPSUpgradeable.sol\":3611:3628  newImplementation */\n      dup4\n      swap2\n        /* \"packages/contracts/src/proxy/utils/UUPSUpgradeable.sol\":3630:3642  new bytes(0) */\n      swap1\n        /* \"packages/contracts/src/proxy/utils/UUPSUpgradeable.sol\":3589:3610  _upgradeToAndCallUUPS */\n      tag_46\n        /* \"packages/contracts/src/proxy/utils/UUPSUpgradeable.sol\":3589:3650  _upgradeToAndCallUUPS(newImplementation, new bytes(0), false) */\n      jump\t// in\n    tag_41:\n        /* \"packages/contracts/src/proxy/utils/UUPSUpgradeable.sol\":3460:3658  function upgradeTo(address newImplementation) public virtual onlyProxy {... */\n      pop\n      jump\t// out\n        /* \"packages/contracts/src/proxy/utils/UUPSUpgradeable.sol\":3989:4212  function upgradeToAndCall(address newImplementation, bytes memory data) public payable virtual onlyProxy {... */\n    tag_15:\n      sub(shl(0xa0, 0x01), 0x01)\n        /* \"packages/contracts/src/proxy/utils/UUPSUpgradeable.sol\":1936:1942  __self */\n      immutable(\"0xc2c77dc624b4aac67a6e14132cf7e60e698350f9c72b88ffba77407546a8ee13\")\n        /* \"packages/contracts/src/proxy/utils/UUPSUpgradeable.sol\":1919:1942  address(this) != __self */\n      and\n        /* \"packages/contracts/src/proxy/utils/UUPSUpgradeable.sol\":1927:1931  this */\n      address\n        /* \"packages/contracts/src/proxy/utils/UUPSUpgradeable.sol\":1919:1942  address(this) != __self */\n      sub\n        /* \"packages/contracts/src/proxy/utils/UUPSUpgradeable.sol\":1911:1991  require(address(this) != __self, \"Function must be called through delegatecall\") */\n      tag_48\n      jumpi\n      mload(0x40)\n      shl(0xe5, 0x461bcd)\n      dup2\n      mstore\n      0x04\n      add\n      tag_31\n      swap1\n      tag_32\n      jump\t// in\n    tag_48:\n        /* \"packages/contracts/src/proxy/utils/UUPSUpgradeable.sol\":2034:2040  __self */\n      immutable(\"0xc2c77dc624b4aac67a6e14132cf7e60e698350f9c72b88ffba77407546a8ee13\")\n      sub(shl(0xa0, 0x01), 0x01)\n        /* \"packages/contracts/src/proxy/utils/UUPSUpgradeable.sol\":2010:2040  _getImplementation() == __self */\n      and\n        /* \"packages/contracts/src/proxy/utils/UUPSUpgradeable.sol\":2010:2030  _getImplementation() */\n      tag_50\n      0x00\n      dup1\n      mload\n      0x20\n      data_75b20eef8615de99c108b05f0dbda081c91897128caa336d75dffb97c4132b4d\n      dup4\n      codecopy\n      dup2\n      mload\n      swap2\n      mstore\n        /* \"packages/contracts/src/proxy/ERC1967/ERC1967UpgradeUpgradeable.sol\":1574:1639  StorageSlotUpgradeable.getAddressSlot(_IMPLEMENTATION_SLOT).value */\n      sload\n      sub(shl(0xa0, 0x01), 0x01)\n      and\n      swap1\n        /* \"packages/contracts/src/proxy/ERC1967/ERC1967UpgradeUpgradeable.sol\":1494:1647  function _getImplementation() internal view returns (address) {... */\n      jump\n        /* \"packages/contracts/src/proxy/utils/UUPSUpgradeable.sol\":2010:2030  _getImplementation() */\n    tag_50:\n      sub(shl(0xa0, 0x01), 0x01)\n        /* \"packages/contracts/src/proxy/utils/UUPSUpgradeable.sol\":2010:2040  _getImplementation() == __self */\n      and\n      eq\n        /* \"packages/contracts/src/proxy/utils/UUPSUpgradeable.sol\":2002:2089  require(_getImplementation() == __self, \"Function must be called through active proxy\") */\n      tag_51\n      jumpi\n      mload(0x40)\n      shl(0xe5, 0x461bcd)\n      dup2\n      mstore\n      0x04\n      add\n      tag_31\n      swap1\n      tag_37\n      jump\t// in\n    tag_51:\n        /* \"packages/contracts/src/proxy/utils/UUPSUpgradeable.sol\":4152:4204  _upgradeToAndCallUUPS(newImplementation, data, true) */\n      tag_55\n        /* \"packages/contracts/src/proxy/utils/UUPSUpgradeable.sol\":4174:4191  newImplementation */\n      dup3\n        /* \"packages/contracts/src/proxy/utils/UUPSUpgradeable.sol\":4193:4197  data */\n      dup3\n        /* \"packages/contracts/src/proxy/utils/UUPSUpgradeable.sol\":4199:4203  true */\n      0x01\n        /* \"packages/contracts/src/proxy/utils/UUPSUpgradeable.sol\":4152:4173  _upgradeToAndCallUUPS */\n      tag_46\n        /* \"packages/contracts/src/proxy/utils/UUPSUpgradeable.sol\":4152:4204  _upgradeToAndCallUUPS(newImplementation, data, true) */\n      jump\t// in\n    tag_55:\n        /* \"packages/contracts/src/proxy/utils/UUPSUpgradeable.sol\":3989:4212  function upgradeToAndCall(address newImplementation, bytes memory data) public payable virtual onlyProxy {... */\n      pop\n      pop\n      jump\t// out\n        /* \"packages/contracts/src/proxy/utils/UUPSUpgradeable.sol\":3066:3199  function proxiableUUID() external view virtual override notDelegated returns (bytes32) {... */\n    tag_18:\n        /* \"packages/contracts/src/proxy/utils/UUPSUpgradeable.sol\":3144:3151  bytes32 */\n      0x00\n        /* \"packages/contracts/src/proxy/utils/UUPSUpgradeable.sol\":2372:2376  this */\n      address\n      sub(shl(0xa0, 0x01), 0x01)\n        /* \"packages/contracts/src/proxy/utils/UUPSUpgradeable.sol\":2381:2387  __self */\n      immutable(\"0xc2c77dc624b4aac67a6e14132cf7e60e698350f9c72b88ffba77407546a8ee13\")\n        /* \"packages/contracts/src/proxy/utils/UUPSUpgradeable.sol\":2364:2387  address(this) == __self */\n      and\n      eq\n        /* \"packages/contracts/src/proxy/utils/UUPSUpgradeable.sol\":2356:2448  require(address(this) == __self, \"UUPSUpgradeable: must not be called through delegatecall\") */\n      tag_57\n      jumpi\n      mload(0x40)\n      shl(0xe5, 0x461bcd)\n      dup2\n      mstore\n        /* \"#utility.yul\":2907:2909   */\n      0x20\n        /* \"packages/contracts/src/proxy/utils/UUPSUpgradeable.sol\":2356:2448  require(address(this) == __self, \"UUPSUpgradeable: must not be called through delegatecall\") */\n      0x04\n      dup3\n      add\n        /* \"#utility.yul\":2889:2910   */\n      mstore\n        /* \"#utility.yul\":2946:2948   */\n      0x38\n        /* \"#utility.yul\":2926:2944   */\n      0x24\n      dup3\n      add\n        /* \"#utility.yul\":2919:2949   */\n      mstore\n        /* \"#utility.yul\":2985:3019   */\n      0x555550535570677261646561626c653a206d757374206e6f742062652063616c\n        /* \"#utility.yul\":2965:2983   */\n      0x44\n      dup3\n      add\n        /* \"#utility.yul\":2958:3020   */\n      mstore\n        /* \"#utility.yul\":3056:3082   */\n      0x6c6564207468726f7567682064656c656761746563616c6c0000000000000000\n        /* \"#utility.yul\":3036:3054   */\n      0x64\n      dup3\n      add\n        /* \"#utility.yul\":3029:3083   */\n      mstore\n        /* \"#utility.yul\":3100:3119   */\n      0x84\n      add\n        /* \"packages/contracts/src/proxy/utils/UUPSUpgradeable.sol\":2356:2448  require(address(this) == __self, \"UUPSUpgradeable: must not be called through delegatecall\") */\n      tag_31\n        /* \"#utility.yul\":2705:3125   */\n      jump\n        /* \"packages/contracts/src/proxy/utils/UUPSUpgradeable.sol\":2356:2448  require(address(this) == __self, \"UUPSUpgradeable: must not be called through delegatecall\") */\n    tag_57:\n      pop\n      0x00\n      dup1\n      mload\n      0x20\n      data_75b20eef8615de99c108b05f0dbda081c91897128caa336d75dffb97c4132b4d\n      dup4\n      codecopy\n      dup2\n      mload\n      swap2\n      mstore\n        /* \"packages/contracts/src/proxy/utils/UUPSUpgradeable.sol\":3066:3199  function proxiableUUID() external view virtual override notDelegated returns (bytes32) {... */\n      swap1\n      jump\t// out\n        /* \"packages/contracts/src/mocks/proxy/UUPSUpgradeableMockUpgradeable.sol\":490:604  function current() external view returns (uint256) {... */\n    tag_23:\n        /* \"packages/contracts/src/mocks/proxy/UUPSUpgradeableMockUpgradeable.sol\":532:539  uint256 */\n      0x00\n        /* \"packages/contracts/src/mocks/proxy/UUPSUpgradeableMockUpgradeable.sol\":559:596  CountersUpgradeable.current(_counter) */\n      tag_62\n        /* \"packages/contracts/src/mocks/proxy/UUPSUpgradeableMockUpgradeable.sol\":587:595  _counter */\n      0x01\n        /* \"packages/contracts/src/utils/CountersUpgradeable.sol\":951:965  counter._value */\n      sload\n      swap1\n        /* \"packages/contracts/src/utils/CountersUpgradeable.sol\":859:973  function current(Counter storage counter) internal view returns (uint256) {... */\n      jump\n        /* \"packages/contracts/src/mocks/proxy/UUPSUpgradeableMockUpgradeable.sol\":559:596  CountersUpgradeable.current(_counter) */\n    tag_62:\n        /* \"packages/contracts/src/mocks/proxy/UUPSUpgradeableMockUpgradeable.sol\":552:596  return CountersUpgradeable.current(_counter) */\n      swap1\n      pop\n        /* \"packages/contracts/src/mocks/proxy/UUPSUpgradeableMockUpgradeable.sol\":490:604  function current() external view returns (uint256) {... */\n      swap1\n      jump\t// out\n        /* \"packages/contracts/src/mocks/proxy/UUPSUpgradeableMockUpgradeable.sol\":612:707  function increment() external {... */\n    tag_28:\n        /* \"packages/contracts/src/mocks/proxy/UUPSUpgradeableMockUpgradeable.sol\":660:699  CountersUpgradeable.increment(_counter) */\n      tag_65\n        /* \"packages/contracts/src/mocks/proxy/UUPSUpgradeableMockUpgradeable.sol\":690:698  _counter */\n      0x01\n        /* \"packages/contracts/src/utils/CountersUpgradeable.sol\":1070:1089  counter._value += 1 */\n      dup1\n      sload\n        /* \"packages/contracts/src/utils/CountersUpgradeable.sol\":1088:1089  1 */\n      0x01\n        /* \"packages/contracts/src/utils/CountersUpgradeable.sol\":1070:1089  counter._value += 1 */\n      add\n      swap1\n      sstore\n        /* \"packages/contracts/src/utils/CountersUpgradeable.sol\":981:1108  function increment(Counter storage counter) internal {... */\n      jump\n        /* \"packages/contracts/src/mocks/proxy/UUPSUpgradeableMockUpgradeable.sol\":660:699  CountersUpgradeable.increment(_counter) */\n    tag_65:\n        /* \"packages/contracts/src/mocks/proxy/UUPSUpgradeableMockUpgradeable.sol\":612:707  function increment() external {... */\n      jump\t// out\n        /* \"packages/contracts/src/proxy/ERC1967/ERC1967UpgradeUpgradeable.sol\":2896:3854  function _upgradeToAndCallUUPS(address newImplementation, bytes memory data, bool forceCall) internal {... */\n    tag_46:\n        /* \"packages/contracts/src/proxy/ERC1967/ERC1967UpgradeUpgradeable.sol\":838:904  0x4910fdfa16fed3260ed0e7147f7cc6da11a60208b5b9406d12a635614ffd9143 */\n      0x4910fdfa16fed3260ed0e7147f7cc6da11a60208b5b9406d12a635614ffd9143\n        /* \"packages/contracts/src/proxy/ERC1967/ERC1967UpgradeUpgradeable.sol\":3316:3375  StorageSlotUpgradeable.getBooleanSlot(_ROLLBACK_SLOT).value */\n      sload\n      0xff\n      and\n        /* \"packages/contracts/src/proxy/ERC1967/ERC1967UpgradeUpgradeable.sol\":3312:3847  if (StorageSlotUpgradeable.getBooleanSlot(_ROLLBACK_SLOT).value) {... */\n      iszero\n      tag_74\n      jumpi\n        /* \"packages/contracts/src/proxy/ERC1967/ERC1967UpgradeUpgradeable.sol\":3392:3429  _setImplementation(newImplementation) */\n      tag_75\n        /* \"packages/contracts/src/proxy/ERC1967/ERC1967UpgradeUpgradeable.sol\":3411:3428  newImplementation */\n      dup4\n        /* \"packages/contracts/src/proxy/ERC1967/ERC1967UpgradeUpgradeable.sol\":3392:3410  _setImplementation */\n      tag_76\n        /* \"packages/contracts/src/proxy/ERC1967/ERC1967UpgradeUpgradeable.sol\":3392:3429  _setImplementation(newImplementation) */\n      jump\t// in\n    tag_75:\n        /* \"packages/contracts/src/proxy/ERC1967/ERC1967UpgradeUpgradeable.sol\":2896:3854  function _upgradeToAndCallUUPS(address newImplementation, bytes memory data, bool forceCall) internal {... */\n      pop\n      pop\n      pop\n      jump\t// out\n        /* \"packages/contracts/src/proxy/ERC1967/ERC1967UpgradeUpgradeable.sol\":3312:3847  if (StorageSlotUpgradeable.getBooleanSlot(_ROLLBACK_SLOT).value) {... */\n    tag_74:\n        /* \"packages/contracts/src/proxy/ERC1967/ERC1967UpgradeUpgradeable.sol\":3495:3512  newImplementation */\n      dup3\n      sub(shl(0xa0, 0x01), 0x01)\n        /* \"packages/contracts/src/proxy/ERC1967/ERC1967UpgradeUpgradeable.sol\":3466:3527  IERC1822ProxiableUpgradeable(newImplementation).proxiableUUID */\n      and\n      0x52d1902d\n        /* \"packages/contracts/src/proxy/ERC1967/ERC1967UpgradeUpgradeable.sol\":3466:3529  IERC1822ProxiableUpgradeable(newImplementation).proxiableUUID() */\n      mload(0x40)\n      dup2\n      0xffffffff\n      and\n      0xe0\n      shl\n      dup2\n      mstore\n      0x04\n      add\n      0x20\n      mload(0x40)\n      dup1\n      dup4\n      sub\n      dup2\n      dup7\n      gas\n      staticcall\n      swap3\n      pop\n      pop\n      pop\n      dup1\n      iszero\n      tag_78\n      jumpi\n      pop\n      0x40\n      dup1\n      mload\n      0x1f\n      returndatasize\n      swap1\n      dup2\n      add\n      not(0x1f)\n      and\n      dup3\n      add\n      swap1\n      swap3\n      mstore\n      tag_79\n      swap2\n      dup2\n      add\n      swap1\n      tag_80\n      jump\t// in\n    tag_79:\n      0x01\n    tag_78:\n        /* \"packages/contracts/src/proxy/ERC1967/ERC1967UpgradeUpgradeable.sol\":3462:3768  try IERC1822ProxiableUpgradeable(newImplementation).proxiableUUID() returns (bytes32 slot) {... */\n      tag_81\n      jumpi\n        /* \"packages/contracts/src/proxy/ERC1967/ERC1967UpgradeUpgradeable.sol\":3696:3752  revert(\"ERC1967Upgrade: new implementation is not UUPS\") */\n      mload(0x40)\n      shl(0xe5, 0x461bcd)\n      dup2\n      mstore\n        /* \"#utility.yul\":3521:3523   */\n      0x20\n        /* \"packages/contracts/src/proxy/ERC1967/ERC1967UpgradeUpgradeable.sol\":3696:3752  revert(\"ERC1967Upgrade: new implementation is not UUPS\") */\n      0x04\n      dup3\n      add\n        /* \"#utility.yul\":3503:3524   */\n      mstore\n        /* \"#utility.yul\":3560:3562   */\n      0x2e\n        /* \"#utility.yul\":3540:3558   */\n      0x24\n      dup3\n      add\n        /* \"#utility.yul\":3533:3563   */\n      mstore\n        /* \"#utility.yul\":3599:3633   */\n      0x45524331393637557067726164653a206e657720696d706c656d656e74617469\n        /* \"#utility.yul\":3579:3597   */\n      0x44\n      dup3\n      add\n        /* \"#utility.yul\":3572:3634   */\n      mstore\n      shl(0x90, 0x6f6e206973206e6f742055555053)\n        /* \"#utility.yul\":3650:3668   */\n      0x64\n      dup3\n      add\n        /* \"#utility.yul\":3643:3687   */\n      mstore\n        /* \"#utility.yul\":3704:3723   */\n      0x84\n      add\n        /* \"packages/contracts/src/proxy/ERC1967/ERC1967UpgradeUpgradeable.sol\":3696:3752  revert(\"ERC1967Upgrade: new implementation is not UUPS\") */\n      tag_31\n        /* \"#utility.yul\":3319:3729   */\n      jump\n        /* \"packages/contracts/src/proxy/ERC1967/ERC1967UpgradeUpgradeable.sol\":3462:3768  try IERC1822ProxiableUpgradeable(newImplementation).proxiableUUID() returns (bytes32 slot) {... */\n    tag_81:\n      0x00\n      dup1\n      mload\n      0x20\n      data_75b20eef8615de99c108b05f0dbda081c91897128caa336d75dffb97c4132b4d\n      dup4\n      codecopy\n      dup2\n      mload\n      swap2\n      mstore\n        /* \"packages/contracts/src/proxy/ERC1967/ERC1967UpgradeUpgradeable.sol\":3580:3608  slot == _IMPLEMENTATION_SLOT */\n      dup2\n      eq\n        /* \"packages/contracts/src/proxy/ERC1967/ERC1967UpgradeUpgradeable.sol\":3572:3654  require(slot == _IMPLEMENTATION_SLOT, \"ERC1967Upgrade: unsupported proxiableUUID\") */\n      tag_88\n      jumpi\n      mload(0x40)\n      shl(0xe5, 0x461bcd)\n      dup2\n      mstore\n        /* \"#utility.yul\":3936:3938   */\n      0x20\n        /* \"packages/contracts/src/proxy/ERC1967/ERC1967UpgradeUpgradeable.sol\":3572:3654  require(slot == _IMPLEMENTATION_SLOT, \"ERC1967Upgrade: unsupported proxiableUUID\") */\n      0x04\n      dup3\n      add\n        /* \"#utility.yul\":3918:3939   */\n      mstore\n        /* \"#utility.yul\":3975:3977   */\n      0x29\n        /* \"#utility.yul\":3955:3973   */\n      0x24\n      dup3\n      add\n        /* \"#utility.yul\":3948:3978   */\n      mstore\n        /* \"#utility.yul\":4014:4048   */\n      0x45524331393637557067726164653a20756e737570706f727465642070726f78\n        /* \"#utility.yul\":3994:4012   */\n      0x44\n      dup3\n      add\n        /* \"#utility.yul\":3987:4049   */\n      mstore\n      shl(0xba, 0x1a58589b1955555251)\n        /* \"#utility.yul\":4065:4083   */\n      0x64\n      dup3\n      add\n        /* \"#utility.yul\":4058:4097   */\n      mstore\n        /* \"#utility.yul\":4114:4133   */\n      0x84\n      add\n        /* \"packages/contracts/src/proxy/ERC1967/ERC1967UpgradeUpgradeable.sol\":3572:3654  require(slot == _IMPLEMENTATION_SLOT, \"ERC1967Upgrade: unsupported proxiableUUID\") */\n      tag_31\n        /* \"#utility.yul\":3734:4139   */\n      jump\n        /* \"packages/contracts/src/proxy/ERC1967/ERC1967UpgradeUpgradeable.sol\":3572:3654  require(slot == _IMPLEMENTATION_SLOT, \"ERC1967Upgrade: unsupported proxiableUUID\") */\n    tag_88:\n        /* \"packages/contracts/src/proxy/ERC1967/ERC1967UpgradeUpgradeable.sol\":3530:3670  returns (bytes32 slot) {... */\n      pop\n        /* \"packages/contracts/src/proxy/ERC1967/ERC1967UpgradeUpgradeable.sol\":3782:3835  _upgradeToAndCall(newImplementation, data, forceCall) */\n      tag_75\n        /* \"packages/contracts/src/proxy/ERC1967/ERC1967UpgradeUpgradeable.sol\":3800:3817  newImplementation */\n      dup4\n        /* \"packages/contracts/src/proxy/ERC1967/ERC1967UpgradeUpgradeable.sol\":3819:3823  data */\n      dup4\n        /* \"packages/contracts/src/proxy/ERC1967/ERC1967UpgradeUpgradeable.sol\":3825:3834  forceCall */\n      dup4\n        /* \"packages/contracts/src/proxy/ERC1967/ERC1967UpgradeUpgradeable.sol\":3782:3799  _upgradeToAndCall */\n      tag_92\n        /* \"packages/contracts/src/proxy/ERC1967/ERC1967UpgradeUpgradeable.sol\":3782:3835  _upgradeToAndCall(newImplementation, data, forceCall) */\n      jump\t// in\n        /* \"packages/contracts/src/proxy/ERC1967/ERC1967UpgradeUpgradeable.sol\":1743:2027  function _setImplementation(address newImplementation) private {... */\n    tag_76:\n      sub(shl(0xa0, 0x01), 0x01)\n        /* \"packages/contracts/src/utils/AddressUpgradeable.sol\":1757:1776  account.code.length */\n      dup2\n      and\n      extcodesize\n        /* \"packages/contracts/src/proxy/ERC1967/ERC1967UpgradeUpgradeable.sol\":1817:1923  require(AddressUpgradeable.isContract(newImplementation), \"ERC1967: new implementation is not a contract\") */\n      tag_100\n      jumpi\n      mload(0x40)\n      shl(0xe5, 0x461bcd)\n      dup2\n      mstore\n        /* \"#utility.yul\":4346:4348   */\n      0x20\n        /* \"packages/contracts/src/proxy/ERC1967/ERC1967UpgradeUpgradeable.sol\":1817:1923  require(AddressUpgradeable.isContract(newImplementation), \"ERC1967: new implementation is not a contract\") */\n      0x04\n      dup3\n      add\n        /* \"#utility.yul\":4328:4349   */\n      mstore\n        /* \"#utility.yul\":4385:4387   */\n      0x2d\n        /* \"#utility.yul\":4365:4383   */\n      0x24\n      dup3\n      add\n        /* \"#utility.yul\":4358:4388   */\n      mstore\n        /* \"#utility.yul\":4424:4458   */\n      0x455243313936373a206e657720696d706c656d656e746174696f6e206973206e\n        /* \"#utility.yul\":4404:4422   */\n      0x44\n      dup3\n      add\n        /* \"#utility.yul\":4397:4459   */\n      mstore\n      shl(0x9a, 0x1bdd08184818dbdb9d1c9858dd)\n        /* \"#utility.yul\":4475:4493   */\n      0x64\n      dup3\n      add\n        /* \"#utility.yul\":4468:4511   */\n      mstore\n        /* \"#utility.yul\":4528:4547   */\n      0x84\n      add\n        /* \"packages/contracts/src/proxy/ERC1967/ERC1967UpgradeUpgradeable.sol\":1817:1923  require(AddressUpgradeable.isContract(newImplementation), \"ERC1967: new implementation is not a contract\") */\n      tag_31\n        /* \"#utility.yul\":4144:4553   */\n      jump\n        /* \"packages/contracts/src/proxy/ERC1967/ERC1967UpgradeUpgradeable.sol\":1817:1923  require(AddressUpgradeable.isContract(newImplementation), \"ERC1967: new implementation is not a contract\") */\n    tag_100:\n      0x00\n      dup1\n      mload\n      0x20\n      data_75b20eef8615de99c108b05f0dbda081c91897128caa336d75dffb97c4132b4d\n      dup4\n      codecopy\n      dup2\n      mload\n      swap2\n      mstore\n        /* \"packages/contracts/src/proxy/ERC1967/ERC1967UpgradeUpgradeable.sol\":1934:2019  StorageSlotUpgradeable.getAddressSlot(_IMPLEMENTATION_SLOT).value = newImplementation */\n      dup1\n      sload\n      not(sub(shl(0xa0, 0x01), 0x01))\n      and\n      sub(shl(0xa0, 0x01), 0x01)\n      swap3\n      swap1\n      swap3\n      and\n      swap2\n      swap1\n      swap2\n      or\n      swap1\n      sstore\n        /* \"packages/contracts/src/proxy/ERC1967/ERC1967UpgradeUpgradeable.sol\":1743:2027  function _setImplementation(address newImplementation) private {... */\n      jump\t// out\n        /* \"packages/contracts/src/proxy/ERC1967/ERC1967UpgradeUpgradeable.sol\":2436:2717  function _upgradeToAndCall(address newImplementation, bytes memory data, bool forceCall) internal {... */\n    tag_92:\n        /* \"packages/contracts/src/proxy/ERC1967/ERC1967UpgradeUpgradeable.sol\":2545:2574  _upgradeTo(newImplementation) */\n      tag_105\n        /* \"packages/contracts/src/proxy/ERC1967/ERC1967UpgradeUpgradeable.sol\":2556:2573  newImplementation */\n      dup4\n        /* \"packages/contracts/src/proxy/ERC1967/ERC1967UpgradeUpgradeable.sol\":2545:2555  _upgradeTo */\n      tag_106\n        /* \"packages/contracts/src/proxy/ERC1967/ERC1967UpgradeUpgradeable.sol\":2545:2574  _upgradeTo(newImplementation) */\n      jump\t// in\n    tag_105:\n        /* \"packages/contracts/src/proxy/ERC1967/ERC1967UpgradeUpgradeable.sol\":2603:2604  0 */\n      0x00\n        /* \"packages/contracts/src/proxy/ERC1967/ERC1967UpgradeUpgradeable.sol\":2589:2593  data */\n      dup3\n        /* \"packages/contracts/src/proxy/ERC1967/ERC1967UpgradeUpgradeable.sol\":2589:2600  data.length */\n      mload\n        /* \"packages/contracts/src/proxy/ERC1967/ERC1967UpgradeUpgradeable.sol\":2589:2604  data.length > 0 */\n      gt\n        /* \"packages/contracts/src/proxy/ERC1967/ERC1967UpgradeUpgradeable.sol\":2589:2617  data.length > 0 || forceCall */\n      dup1\n      tag_107\n      jumpi\n      pop\n        /* \"packages/contracts/src/proxy/ERC1967/ERC1967UpgradeUpgradeable.sol\":2608:2617  forceCall */\n      dup1\n        /* \"packages/contracts/src/proxy/ERC1967/ERC1967UpgradeUpgradeable.sol\":2589:2617  data.length > 0 || forceCall */\n    tag_107:\n        /* \"packages/contracts/src/proxy/ERC1967/ERC1967UpgradeUpgradeable.sol\":2585:2710  if (data.length > 0 || forceCall) {... */\n      iszero\n      tag_75\n      jumpi\n        /* \"packages/contracts/src/proxy/ERC1967/ERC1967UpgradeUpgradeable.sol\":2634:2698  AddressUpgradeable.functionDelegateCall(newImplementation, data) */\n      tag_109\n        /* \"packages/contracts/src/proxy/ERC1967/ERC1967UpgradeUpgradeable.sol\":2674:2691  newImplementation */\n      dup4\n        /* \"packages/contracts/src/proxy/ERC1967/ERC1967UpgradeUpgradeable.sol\":2693:2697  data */\n      dup4\n        /* \"packages/contracts/src/proxy/ERC1967/ERC1967UpgradeUpgradeable.sol\":2634:2673  AddressUpgradeable.functionDelegateCall */\n      tag_110\n        /* \"packages/contracts/src/proxy/ERC1967/ERC1967UpgradeUpgradeable.sol\":2634:2698  AddressUpgradeable.functionDelegateCall(newImplementation, data) */\n      jump\t// in\n    tag_109:\n      pop\n        /* \"packages/contracts/src/proxy/ERC1967/ERC1967UpgradeUpgradeable.sol\":2436:2717  function _upgradeToAndCall(address newImplementation, bytes memory data, bool forceCall) internal {... */\n      pop\n      pop\n      pop\n      jump\t// out\n        /* \"packages/contracts/src/proxy/ERC1967/ERC1967UpgradeUpgradeable.sol\":2140:2295  function _upgradeTo(address newImplementation) internal {... */\n    tag_106:\n        /* \"packages/contracts/src/proxy/ERC1967/ERC1967UpgradeUpgradeable.sol\":2207:2244  _setImplementation(newImplementation) */\n      tag_113\n        /* \"packages/contracts/src/proxy/ERC1967/ERC1967UpgradeUpgradeable.sol\":2226:2243  newImplementation */\n      dup2\n        /* \"packages/contracts/src/proxy/ERC1967/ERC1967UpgradeUpgradeable.sol\":2207:2225  _setImplementation */\n      tag_76\n        /* \"packages/contracts/src/proxy/ERC1967/ERC1967UpgradeUpgradeable.sol\":2207:2244  _setImplementation(newImplementation) */\n      jump\t// in\n    tag_113:\n        /* \"packages/contracts/src/proxy/ERC1967/ERC1967UpgradeUpgradeable.sol\":2260:2287  Upgraded(newImplementation) */\n      mload(0x40)\n      sub(shl(0xa0, 0x01), 0x01)\n      dup3\n      and\n      swap1\n      0xbc7cd75a20ee27fd9adebab32041f755214dbc6bffa90cc0225b39da2e5c2d3b\n      swap1\n      0x00\n      swap1\n      log2\n        /* \"packages/contracts/src/proxy/ERC1967/ERC1967UpgradeUpgradeable.sol\":2140:2295  function _upgradeTo(address newImplementation) internal {... */\n      pop\n      jump\t// out\n        /* \"packages/contracts/src/utils/AddressUpgradeable.sol\":6854:7054  function functionDelegateCall(address target, bytes memory data) internal returns (bytes memory) {... */\n    tag_110:\n        /* \"packages/contracts/src/utils/AddressUpgradeable.sol\":6937:6949  bytes memory */\n      0x60\n        /* \"packages/contracts/src/utils/AddressUpgradeable.sol\":6969:7046  functionDelegateCall(target, data, \"Address: low-level delegate call failed\") */\n      tag_115\n        /* \"packages/contracts/src/utils/AddressUpgradeable.sol\":6990:6996  target */\n      dup4\n        /* \"packages/contracts/src/utils/AddressUpgradeable.sol\":6998:7002  data */\n      dup4\n        /* \"packages/contracts/src/utils/AddressUpgradeable.sol\":6969:7046  functionDelegateCall(target, data, \"Address: low-level delegate call failed\") */\n      mload(0x40)\n      dup1\n      0x60\n      add\n      0x40\n      mstore\n      dup1\n      0x27\n      dup2\n      mstore\n      0x20\n      add\n      data_9fdcd12e4b726339b32a442b0a448365d5d85c96b2d2cff917b4f66c63110398\n      0x27\n      swap2\n      codecopy\n        /* \"packages/contracts/src/utils/AddressUpgradeable.sol\":6969:6989  functionDelegateCall */\n      tag_116\n        /* \"packages/contracts/src/utils/AddressUpgradeable.sol\":6969:7046  functionDelegateCall(target, data, \"Address: low-level delegate call failed\") */\n      jump\t// in\n    tag_115:\n        /* \"packages/contracts/src/utils/AddressUpgradeable.sol\":6962:7046  return functionDelegateCall(target, data, \"Address: low-level delegate call failed\") */\n      swap4\n        /* \"packages/contracts/src/utils/AddressUpgradeable.sol\":6854:7054  function functionDelegateCall(address target, bytes memory data) internal returns (bytes memory) {... */\n      swap3\n      pop\n      pop\n      pop\n      jump\t// out\n        /* \"packages/contracts/src/utils/AddressUpgradeable.sol\":7248:7580  function functionDelegateCall(... */\n    tag_116:\n        /* \"packages/contracts/src/utils/AddressUpgradeable.sol\":7393:7405  bytes memory */\n      0x60\n        /* \"packages/contracts/src/utils/AddressUpgradeable.sol\":7419:7431  bool success */\n      0x00\n        /* \"packages/contracts/src/utils/AddressUpgradeable.sol\":7433:7456  bytes memory returndata */\n      dup1\n        /* \"packages/contracts/src/utils/AddressUpgradeable.sol\":7460:7466  target */\n      dup6\n      sub(shl(0xa0, 0x01), 0x01)\n        /* \"packages/contracts/src/utils/AddressUpgradeable.sol\":7460:7479  target.delegatecall */\n      and\n        /* \"packages/contracts/src/utils/AddressUpgradeable.sol\":7480:7484  data */\n      dup6\n        /* \"packages/contracts/src/utils/AddressUpgradeable.sol\":7460:7485  target.delegatecall(data) */\n      mload(0x40)\n      tag_118\n      swap2\n      swap1\n      tag_119\n      jump\t// in\n    tag_118:\n      0x00\n      mload(0x40)\n      dup1\n      dup4\n      sub\n      dup2\n      dup6\n      gas\n      delegatecall\n      swap2\n      pop\n      pop\n      returndatasize\n      dup1\n      0x00\n      dup2\n      eq\n      tag_122\n      jumpi\n      mload(0x40)\n      swap2\n      pop\n      and(add(returndatasize, 0x3f), not(0x1f))\n      dup3\n      add\n      0x40\n      mstore\n      returndatasize\n      dup3\n      mstore\n      returndatasize\n      0x00\n      0x20\n      dup5\n      add\n      returndatacopy\n      jump(tag_121)\n    tag_122:\n      0x60\n      swap2\n      pop\n    tag_121:\n      pop\n        /* \"packages/contracts/src/utils/AddressUpgradeable.sol\":7418:7485  (bool success, bytes memory returndata) = target.delegatecall(data) */\n      swap2\n      pop\n      swap2\n      pop\n        /* \"packages/contracts/src/utils/AddressUpgradeable.sol\":7503:7572  verifyCallResultFromTarget(target, success, returndata, errorMessage) */\n      tag_123\n        /* \"packages/contracts/src/utils/AddressUpgradeable.sol\":7530:7536  target */\n      dup7\n        /* \"packages/contracts/src/utils/AddressUpgradeable.sol\":7538:7545  success */\n      dup4\n        /* \"packages/contracts/src/utils/AddressUpgradeable.sol\":7547:7557  returndata */\n      dup4\n        /* \"packages/contracts/src/utils/AddressUpgradeable.sol\":7559:7571  errorMessage */\n      dup8\n        /* \"packages/contracts/src/utils/AddressUpgradeable.sol\":7503:7529  verifyCallResultFromTarget */\n      tag_124\n        /* \"packages/contracts/src/utils/AddressUpgradeable.sol\":7503:7572  verifyCallResultFromTarget(target, success, returndata, errorMessage) */\n      jump\t// in\n    tag_123:\n        /* \"packages/contracts/src/utils/AddressUpgradeable.sol\":7496:7572  return verifyCallResultFromTarget(target, success, returndata, errorMessage) */\n      swap7\n        /* \"packages/contracts/src/utils/AddressUpgradeable.sol\":7248:7580  function functionDelegateCall(... */\n      swap6\n      pop\n      pop\n      pop\n      pop\n      pop\n      pop\n      jump\t// out\n        /* \"packages/contracts/src/utils/AddressUpgradeable.sol\":7876:8520  function verifyCallResultFromTarget(... */\n    tag_124:\n        /* \"packages/contracts/src/utils/AddressUpgradeable.sol\":8061:8073  bytes memory */\n      0x60\n        /* \"packages/contracts/src/utils/AddressUpgradeable.sol\":8090:8097  success */\n      dup4\n        /* \"packages/contracts/src/utils/AddressUpgradeable.sol\":8086:8513  if (success) {... */\n      iszero\n      tag_126\n      jumpi\n        /* \"packages/contracts/src/utils/AddressUpgradeable.sol\":8118:8128  returndata */\n      dup3\n        /* \"packages/contracts/src/utils/AddressUpgradeable.sol\":8118:8135  returndata.length */\n      mload\n        /* \"packages/contracts/src/utils/AddressUpgradeable.sol\":8139:8140  0 */\n      0x00\n        /* \"packages/contracts/src/utils/AddressUpgradeable.sol\":8118:8140  returndata.length == 0 */\n      sub\n        /* \"packages/contracts/src/utils/AddressUpgradeable.sol\":8114:8404  if (returndata.length == 0) {... */\n      tag_129\n      jumpi\n      sub(shl(0xa0, 0x01), 0x01)\n        /* \"packages/contracts/src/utils/AddressUpgradeable.sol\":1757:1776  account.code.length */\n      dup6\n      and\n      extcodesize\n        /* \"packages/contracts/src/utils/AddressUpgradeable.sol\":8328:8388  require(isContract(target), \"Address: call to non-contract\") */\n      tag_129\n      jumpi\n      mload(0x40)\n      shl(0xe5, 0x461bcd)\n      dup2\n      mstore\n        /* \"#utility.yul\":5307:5309   */\n      0x20\n        /* \"packages/contracts/src/utils/AddressUpgradeable.sol\":8328:8388  require(isContract(target), \"Address: call to non-contract\") */\n      0x04\n      dup3\n      add\n        /* \"#utility.yul\":5289:5310   */\n      mstore\n        /* \"#utility.yul\":5346:5348   */\n      0x1d\n        /* \"#utility.yul\":5326:5344   */\n      0x24\n      dup3\n      add\n        /* \"#utility.yul\":5319:5349   */\n      mstore\n        /* \"#utility.yul\":5385:5416   */\n      0x416464726573733a2063616c6c20746f206e6f6e2d636f6e7472616374000000\n        /* \"#utility.yul\":5365:5383   */\n      0x44\n      dup3\n      add\n        /* \"#utility.yul\":5358:5417   */\n      mstore\n        /* \"#utility.yul\":5434:5452   */\n      0x64\n      add\n        /* \"packages/contracts/src/utils/AddressUpgradeable.sol\":8328:8388  require(isContract(target), \"Address: call to non-contract\") */\n      tag_31\n        /* \"#utility.yul\":5105:5458   */\n      jump\n        /* \"packages/contracts/src/utils/AddressUpgradeable.sol\":8328:8388  require(isContract(target), \"Address: call to non-contract\") */\n    tag_129:\n      pop\n        /* \"packages/contracts/src/utils/AddressUpgradeable.sol\":8425:8435  returndata */\n      dup2\n        /* \"packages/contracts/src/utils/AddressUpgradeable.sol\":8418:8435  return returndata */\n      jump(tag_133)\n        /* \"packages/contracts/src/utils/AddressUpgradeable.sol\":8086:8513  if (success) {... */\n    tag_126:\n        /* \"packages/contracts/src/utils/AddressUpgradeable.sol\":8468:8501  _revert(returndata, errorMessage) */\n      tag_133\n        /* \"packages/contracts/src/utils/AddressUpgradeable.sol\":8476:8486  returndata */\n      dup4\n        /* \"packages/contracts/src/utils/AddressUpgradeable.sol\":8488:8500  errorMessage */\n      dup4\n        /* \"packages/contracts/src/utils/AddressUpgradeable.sol\":8468:8475  _revert */\n      tag_134\n        /* \"packages/contracts/src/utils/AddressUpgradeable.sol\":8468:8501  _revert(returndata, errorMessage) */\n      jump\t// in\n    tag_133:\n        /* \"packages/contracts/src/utils/AddressUpgradeable.sol\":7876:8520  function verifyCallResultFromTarget(... */\n      swap5\n      swap4\n      pop\n      pop\n      pop\n      pop\n      jump\t// out\n        /* \"packages/contracts/src/utils/AddressUpgradeable.sol\":9062:9614  function _revert(bytes memory returndata, string memory errorMessage) private pure {... */\n    tag_134:\n        /* \"packages/contracts/src/utils/AddressUpgradeable.sol\":9223:9240  returndata.length */\n      dup2\n      mload\n        /* \"packages/contracts/src/utils/AddressUpgradeable.sol\":9223:9244  returndata.length > 0 */\n      iszero\n        /* \"packages/contracts/src/utils/AddressUpgradeable.sol\":9219:9607  if (returndata.length > 0) {... */\n      tag_136\n      jumpi\n        /* \"packages/contracts/src/utils/AddressUpgradeable.sol\":9455:9465  returndata */\n      dup2\n        /* \"packages/contracts/src/utils/AddressUpgradeable.sol\":9449:9466  mload(returndata) */\n      mload\n        /* \"packages/contracts/src/utils/AddressUpgradeable.sol\":9512:9527  returndata_size */\n      dup1\n        /* \"packages/contracts/src/utils/AddressUpgradeable.sol\":9499:9509  returndata */\n      dup4\n        /* \"packages/contracts/src/utils/AddressUpgradeable.sol\":9495:9497  32 */\n      0x20\n        /* \"packages/contracts/src/utils/AddressUpgradeable.sol\":9491:9510  add(32, returndata) */\n      add\n        /* \"packages/contracts/src/utils/AddressUpgradeable.sol\":9484:9528  revert(add(32, returndata), returndata_size) */\n      revert\n        /* \"packages/contracts/src/utils/AddressUpgradeable.sol\":9219:9607  if (returndata.length > 0) {... */\n    tag_136:\n        /* \"packages/contracts/src/utils/AddressUpgradeable.sol\":9582:9594  errorMessage */\n      dup1\n        /* \"packages/contracts/src/utils/AddressUpgradeable.sol\":9575:9595  revert(errorMessage) */\n      mload(0x40)\n      shl(0xe5, 0x461bcd)\n      dup2\n      mstore\n      0x04\n      add\n      tag_31\n      swap2\n      swap1\n      tag_139\n      jump\t// in\n        /* \"#utility.yul\":14:187   */\n    tag_140:\n        /* \"#utility.yul\":82:102   */\n      dup1\n      calldataload\n      sub(shl(0xa0, 0x01), 0x01)\n        /* \"#utility.yul\":131:162   */\n      dup2\n      and\n        /* \"#utility.yul\":121:163   */\n      dup2\n      eq\n        /* \"#utility.yul\":111:181   */\n      tag_144\n      jumpi\n        /* \"#utility.yul\":177:178   */\n      0x00\n        /* \"#utility.yul\":174:175   */\n      dup1\n        /* \"#utility.yul\":167:179   */\n      revert\n        /* \"#utility.yul\":111:181   */\n    tag_144:\n        /* \"#utility.yul\":14:187   */\n      swap2\n      swap1\n      pop\n      jump\t// out\n        /* \"#utility.yul\":192:378   */\n    tag_10:\n        /* \"#utility.yul\":251:257   */\n      0x00\n        /* \"#utility.yul\":304:306   */\n      0x20\n        /* \"#utility.yul\":292:301   */\n      dup3\n        /* \"#utility.yul\":283:290   */\n      dup5\n        /* \"#utility.yul\":279:302   */\n      sub\n        /* \"#utility.yul\":275:307   */\n      slt\n        /* \"#utility.yul\":272:324   */\n      iszero\n      tag_146\n      jumpi\n        /* \"#utility.yul\":320:321   */\n      0x00\n        /* \"#utility.yul\":317:318   */\n      dup1\n        /* \"#utility.yul\":310:322   */\n      revert\n        /* \"#utility.yul\":272:324   */\n    tag_146:\n        /* \"#utility.yul\":343:372   */\n      tag_115\n        /* \"#utility.yul\":362:371   */\n      dup3\n        /* \"#utility.yul\":343:372   */\n      tag_140\n      jump\t// in\n        /* \"#utility.yul\":383:510   */\n    tag_44:\n        /* \"#utility.yul\":444:454   */\n      0x4e487b71\n        /* \"#utility.yul\":439:442   */\n      0xe0\n        /* \"#utility.yul\":435:455   */\n      shl\n        /* \"#utility.yul\":432:433   */\n      0x00\n        /* \"#utility.yul\":425:456   */\n      mstore\n        /* \"#utility.yul\":475:479   */\n      0x41\n        /* \"#utility.yul\":472:473   */\n      0x04\n        /* \"#utility.yul\":465:480   */\n      mstore\n        /* \"#utility.yul\":499:503   */\n      0x24\n        /* \"#utility.yul\":496:497   */\n      0x00\n        /* \"#utility.yul\":489:504   */\n      revert\n        /* \"#utility.yul\":515:1510   */\n    tag_14:\n        /* \"#utility.yul\":592:598   */\n      0x00\n        /* \"#utility.yul\":600:606   */\n      dup1\n        /* \"#utility.yul\":653:655   */\n      0x40\n        /* \"#utility.yul\":641:650   */\n      dup4\n        /* \"#utility.yul\":632:639   */\n      dup6\n        /* \"#utility.yul\":628:651   */\n      sub\n        /* \"#utility.yul\":624:656   */\n      slt\n        /* \"#utility.yul\":621:673   */\n      iszero\n      tag_150\n      jumpi\n        /* \"#utility.yul\":669:670   */\n      0x00\n        /* \"#utility.yul\":666:667   */\n      dup1\n        /* \"#utility.yul\":659:671   */\n      revert\n        /* \"#utility.yul\":621:673   */\n    tag_150:\n        /* \"#utility.yul\":692:721   */\n      tag_151\n        /* \"#utility.yul\":711:720   */\n      dup4\n        /* \"#utility.yul\":692:721   */\n      tag_140\n      jump\t// in\n    tag_151:\n        /* \"#utility.yul\":682:721   */\n      swap2\n      pop\n        /* \"#utility.yul\":772:774   */\n      0x20\n        /* \"#utility.yul\":761:770   */\n      dup4\n        /* \"#utility.yul\":757:775   */\n      add\n        /* \"#utility.yul\":744:776   */\n      calldataload\n        /* \"#utility.yul\":795:813   */\n      0xffffffffffffffff\n        /* \"#utility.yul\":836:838   */\n      dup1\n        /* \"#utility.yul\":828:834   */\n      dup3\n        /* \"#utility.yul\":825:839   */\n      gt\n        /* \"#utility.yul\":822:856   */\n      iszero\n      tag_152\n      jumpi\n        /* \"#utility.yul\":852:853   */\n      0x00\n        /* \"#utility.yul\":849:850   */\n      dup1\n        /* \"#utility.yul\":842:854   */\n      revert\n        /* \"#utility.yul\":822:856   */\n    tag_152:\n        /* \"#utility.yul\":890:896   */\n      dup2\n        /* \"#utility.yul\":879:888   */\n      dup6\n        /* \"#utility.yul\":875:897   */\n      add\n        /* \"#utility.yul\":865:897   */\n      swap2\n      pop\n        /* \"#utility.yul\":935:942   */\n      dup6\n        /* \"#utility.yul\":928:932   */\n      0x1f\n        /* \"#utility.yul\":924:926   */\n      dup4\n        /* \"#utility.yul\":920:933   */\n      add\n        /* \"#utility.yul\":916:943   */\n      slt\n        /* \"#utility.yul\":906:961   */\n      tag_153\n      jumpi\n        /* \"#utility.yul\":957:958   */\n      0x00\n        /* \"#utility.yul\":954:955   */\n      dup1\n        /* \"#utility.yul\":947:959   */\n      revert\n        /* \"#utility.yul\":906:961   */\n    tag_153:\n        /* \"#utility.yul\":993:995   */\n      dup2\n        /* \"#utility.yul\":980:996   */\n      calldataload\n        /* \"#utility.yul\":1015:1017   */\n      dup2\n        /* \"#utility.yul\":1011:1013   */\n      dup2\n        /* \"#utility.yul\":1008:1018   */\n      gt\n        /* \"#utility.yul\":1005:1041   */\n      iszero\n      tag_155\n      jumpi\n        /* \"#utility.yul\":1021:1039   */\n      tag_155\n      tag_44\n      jump\t// in\n    tag_155:\n        /* \"#utility.yul\":1096:1098   */\n      0x40\n        /* \"#utility.yul\":1090:1099   */\n      mload\n        /* \"#utility.yul\":1064:1066   */\n      0x1f\n        /* \"#utility.yul\":1150:1163   */\n      dup3\n      add\n      not(0x1f)\n        /* \"#utility.yul\":1146:1168   */\n      swap1\n      dup2\n      and\n        /* \"#utility.yul\":1170:1172   */\n      0x3f\n        /* \"#utility.yul\":1142:1173   */\n      add\n        /* \"#utility.yul\":1138:1178   */\n      and\n        /* \"#utility.yul\":1126:1179   */\n      dup2\n      add\n      swap1\n        /* \"#utility.yul\":1194:1212   */\n      dup4\n      dup3\n      gt\n        /* \"#utility.yul\":1214:1236   */\n      dup2\n      dup4\n      lt\n        /* \"#utility.yul\":1191:1237   */\n      or\n        /* \"#utility.yul\":1188:1260   */\n      iszero\n      tag_157\n      jumpi\n        /* \"#utility.yul\":1240:1258   */\n      tag_157\n      tag_44\n      jump\t// in\n    tag_157:\n        /* \"#utility.yul\":1280:1290   */\n      dup2\n        /* \"#utility.yul\":1276:1278   */\n      0x40\n        /* \"#utility.yul\":1269:1291   */\n      mstore\n        /* \"#utility.yul\":1315:1317   */\n      dup3\n        /* \"#utility.yul\":1307:1313   */\n      dup2\n        /* \"#utility.yul\":1300:1318   */\n      mstore\n        /* \"#utility.yul\":1355:1362   */\n      dup9\n        /* \"#utility.yul\":1350:1352   */\n      0x20\n        /* \"#utility.yul\":1345:1347   */\n      dup5\n        /* \"#utility.yul\":1341:1343   */\n      dup8\n        /* \"#utility.yul\":1337:1348   */\n      add\n        /* \"#utility.yul\":1333:1353   */\n      add\n        /* \"#utility.yul\":1330:1363   */\n      gt\n        /* \"#utility.yul\":1327:1380   */\n      iszero\n      tag_158\n      jumpi\n        /* \"#utility.yul\":1376:1377   */\n      0x00\n        /* \"#utility.yul\":1373:1374   */\n      dup1\n        /* \"#utility.yul\":1366:1378   */\n      revert\n        /* \"#utility.yul\":1327:1380   */\n    tag_158:\n        /* \"#utility.yul\":1432:1434   */\n      dup3\n        /* \"#utility.yul\":1427:1429   */\n      0x20\n        /* \"#utility.yul\":1423:1425   */\n      dup7\n        /* \"#utility.yul\":1419:1430   */\n      add\n        /* \"#utility.yul\":1414:1416   */\n      0x20\n        /* \"#utility.yul\":1406:1412   */\n      dup4\n        /* \"#utility.yul\":1402:1417   */\n      add\n        /* \"#utility.yul\":1389:1435   */\n      calldatacopy\n        /* \"#utility.yul\":1477:1478   */\n      0x00\n        /* \"#utility.yul\":1472:1474   */\n      0x20\n        /* \"#utility.yul\":1467:1469   */\n      dup5\n        /* \"#utility.yul\":1459:1465   */\n      dup4\n        /* \"#utility.yul\":1455:1470   */\n      add\n        /* \"#utility.yul\":1451:1475   */\n      add\n        /* \"#utility.yul\":1444:1479   */\n      mstore\n        /* \"#utility.yul\":1498:1504   */\n      dup1\n        /* \"#utility.yul\":1488:1504   */\n      swap6\n      pop\n      pop\n      pop\n      pop\n      pop\n      pop\n        /* \"#utility.yul\":515:1510   */\n      swap3\n      pop\n      swap3\n      swap1\n      pop\n      jump\t// out\n        /* \"#utility.yul\":1879:2287   */\n    tag_32:\n        /* \"#utility.yul\":2081:2083   */\n      0x20\n        /* \"#utility.yul\":2063:2084   */\n      dup1\n      dup3\n      mstore\n        /* \"#utility.yul\":2120:2122   */\n      0x2c\n        /* \"#utility.yul\":2100:2118   */\n      swap1\n      dup3\n      add\n        /* \"#utility.yul\":2093:2123   */\n      mstore\n        /* \"#utility.yul\":2159:2193   */\n      0x46756e6374696f6e206d7573742062652063616c6c6564207468726f75676820\n        /* \"#utility.yul\":2154:2156   */\n      0x40\n        /* \"#utility.yul\":2139:2157   */\n      dup3\n      add\n        /* \"#utility.yul\":2132:2194   */\n      mstore\n      shl(0xa2, 0x19195b1959d85d1958d85b1b)\n        /* \"#utility.yul\":2225:2227   */\n      0x60\n        /* \"#utility.yul\":2210:2228   */\n      dup3\n      add\n        /* \"#utility.yul\":2203:2245   */\n      mstore\n        /* \"#utility.yul\":2277:2280   */\n      0x80\n        /* \"#utility.yul\":2262:2281   */\n      add\n      swap1\n        /* \"#utility.yul\":1879:2287   */\n      jump\t// out\n        /* \"#utility.yul\":2292:2700   */\n    tag_37:\n        /* \"#utility.yul\":2494:2496   */\n      0x20\n        /* \"#utility.yul\":2476:2497   */\n      dup1\n      dup3\n      mstore\n        /* \"#utility.yul\":2533:2535   */\n      0x2c\n        /* \"#utility.yul\":2513:2531   */\n      swap1\n      dup3\n      add\n        /* \"#utility.yul\":2506:2536   */\n      mstore\n        /* \"#utility.yul\":2572:2606   */\n      0x46756e6374696f6e206d7573742062652063616c6c6564207468726f75676820\n        /* \"#utility.yul\":2567:2569   */\n      0x40\n        /* \"#utility.yul\":2552:2570   */\n      dup3\n      add\n        /* \"#utility.yul\":2545:2607   */\n      mstore\n      shl(0xa0, 0x6163746976652070726f7879)\n        /* \"#utility.yul\":2638:2640   */\n      0x60\n        /* \"#utility.yul\":2623:2641   */\n      dup3\n      add\n        /* \"#utility.yul\":2616:2658   */\n      mstore\n        /* \"#utility.yul\":2690:2693   */\n      0x80\n        /* \"#utility.yul\":2675:2694   */\n      add\n      swap1\n        /* \"#utility.yul\":2292:2700   */\n      jump\t// out\n        /* \"#utility.yul\":3130:3314   */\n    tag_80:\n        /* \"#utility.yul\":3200:3206   */\n      0x00\n        /* \"#utility.yul\":3253:3255   */\n      0x20\n        /* \"#utility.yul\":3241:3250   */\n      dup3\n        /* \"#utility.yul\":3232:3239   */\n      dup5\n        /* \"#utility.yul\":3228:3251   */\n      sub\n        /* \"#utility.yul\":3224:3256   */\n      slt\n        /* \"#utility.yul\":3221:3273   */\n      iszero\n      tag_165\n      jumpi\n        /* \"#utility.yul\":3269:3270   */\n      0x00\n        /* \"#utility.yul\":3266:3267   */\n      dup1\n        /* \"#utility.yul\":3259:3271   */\n      revert\n        /* \"#utility.yul\":3221:3273   */\n    tag_165:\n      pop\n        /* \"#utility.yul\":3292:3308   */\n      mload\n      swap2\n        /* \"#utility.yul\":3130:3314   */\n      swap1\n      pop\n      jump\t// out\n        /* \"#utility.yul\":4558:4808   */\n    tag_141:\n        /* \"#utility.yul\":4643:4644   */\n      0x00\n        /* \"#utility.yul\":4653:4766   */\n    tag_170:\n        /* \"#utility.yul\":4667:4673   */\n      dup4\n        /* \"#utility.yul\":4664:4665   */\n      dup2\n        /* \"#utility.yul\":4661:4674   */\n      lt\n        /* \"#utility.yul\":4653:4766   */\n      iszero\n      tag_172\n      jumpi\n        /* \"#utility.yul\":4743:4754   */\n      dup2\n      dup2\n      add\n        /* \"#utility.yul\":4737:4755   */\n      mload\n        /* \"#utility.yul\":4724:4735   */\n      dup4\n      dup3\n      add\n        /* \"#utility.yul\":4717:4756   */\n      mstore\n        /* \"#utility.yul\":4689:4691   */\n      0x20\n        /* \"#utility.yul\":4682:4692   */\n      add\n        /* \"#utility.yul\":4653:4766   */\n      jump(tag_170)\n    tag_172:\n      pop\n      pop\n        /* \"#utility.yul\":4800:4801   */\n      0x00\n        /* \"#utility.yul\":4782:4798   */\n      swap2\n      add\n        /* \"#utility.yul\":4775:4802   */\n      mstore\n        /* \"#utility.yul\":4558:4808   */\n      jump\t// out\n        /* \"#utility.yul\":4813:5100   */\n    tag_119:\n        /* \"#utility.yul\":4942:4945   */\n      0x00\n        /* \"#utility.yul\":4980:4986   */\n      dup3\n        /* \"#utility.yul\":4974:4987   */\n      mload\n        /* \"#utility.yul\":4996:5062   */\n      tag_174\n        /* \"#utility.yul\":5055:5061   */\n      dup2\n        /* \"#utility.yul\":5050:5053   */\n      dup5\n        /* \"#utility.yul\":5043:5047   */\n      0x20\n        /* \"#utility.yul\":5035:5041   */\n      dup8\n        /* \"#utility.yul\":5031:5048   */\n      add\n        /* \"#utility.yul\":4996:5062   */\n      tag_141\n      jump\t// in\n    tag_174:\n        /* \"#utility.yul\":5078:5094   */\n      swap2\n      swap1\n      swap2\n      add\n      swap3\n        /* \"#utility.yul\":4813:5100   */\n      swap2\n      pop\n      pop\n      jump\t// out\n        /* \"#utility.yul\":5463:5859   */\n    tag_139:\n        /* \"#utility.yul\":5612:5614   */\n      0x20\n        /* \"#utility.yul\":5601:5610   */\n      dup2\n        /* \"#utility.yul\":5594:5615   */\n      mstore\n        /* \"#utility.yul\":5575:5579   */\n      0x00\n        /* \"#utility.yul\":5644:5650   */\n      dup3\n        /* \"#utility.yul\":5638:5651   */\n      mload\n        /* \"#utility.yul\":5687:5693   */\n      dup1\n        /* \"#utility.yul\":5682:5684   */\n      0x20\n        /* \"#utility.yul\":5671:5680   */\n      dup5\n        /* \"#utility.yul\":5667:5685   */\n      add\n        /* \"#utility.yul\":5660:5694   */\n      mstore\n        /* \"#utility.yul\":5703:5782   */\n      tag_177\n        /* \"#utility.yul\":5775:5781   */\n      dup2\n        /* \"#utility.yul\":5770:5772   */\n      0x40\n        /* \"#utility.yul\":5759:5768   */\n      dup6\n        /* \"#utility.yul\":5755:5773   */\n      add\n        /* \"#utility.yul\":5750:5752   */\n      0x20\n        /* \"#utility.yul\":5742:5748   */\n      dup8\n        /* \"#utility.yul\":5738:5753   */\n      add\n        /* \"#utility.yul\":5703:5782   */\n      tag_141\n      jump\t// in\n    tag_177:\n        /* \"#utility.yul\":5843:5845   */\n      0x1f\n        /* \"#utility.yul\":5822:5837   */\n      add\n      not(0x1f)\n        /* \"#utility.yul\":5818:5847   */\n      and\n        /* \"#utility.yul\":5803:5848   */\n      swap2\n      swap1\n      swap2\n      add\n        /* \"#utility.yul\":5850:5852   */\n      0x40\n        /* \"#utility.yul\":5799:5853   */\n      add\n      swap3\n        /* \"#utility.yul\":5463:5859   */\n      swap2\n      pop\n      pop\n      jump\t// out\n    stop\n    data_75b20eef8615de99c108b05f0dbda081c91897128caa336d75dffb97c4132b4d 360894a13ba1a3210667c828492db98dca3e2076cc3735a920a3ca505d382bbc\n    data_9fdcd12e4b726339b32a442b0a448365d5d85c96b2d2cff917b4f66c63110398 416464726573733a206c6f772d6c6576656c2064656c65676174652063616c6c206661696c6564\n\n    auxdata: 0xa2646970667358221220290898b566edd2726fca5fc6f7fc398b4c30c40bb9361e2ef09c10167048f08564736f6c63430008110033\n}\n",
				"bytecode": {
					"linkReferences": {},
					"object": "60a06040523060805234801561001457600080fd5b506080516109c461004b6000396000818160df01528181610128015281816101be015281816101fe015261028801526109c46000f3fe60806040526004361061004a5760003560e01c80633659cfe61461004f5780634f1ef2861461007157806352d1902d146100845780639fa6a6e3146100ab578063d09de08a146100c0575b600080fd5b34801561005b57600080fd5b5061006f61006a366004610730565b6100d5565b005b61006f61007f366004610761565b6101b4565b34801561009057600080fd5b5061009961027b565b60405190815260200160405180910390f35b3480156100b757600080fd5b5061009961032e565b3480156100cc57600080fd5b5061006f61033e565b6001600160a01b037f00000000000000000000000000000000000000000000000000000000000000001630036101265760405162461bcd60e51b815260040161011d90610823565b60405180910390fd5b7f00000000000000000000000000000000000000000000000000000000000000006001600160a01b031661016f600080516020610948833981519152546001600160a01b031690565b6001600160a01b0316146101955760405162461bcd60e51b815260040161011d9061086f565b604080516000808252602082019092526101b19183919061034e565b50565b6001600160a01b037f00000000000000000000000000000000000000000000000000000000000000001630036101fc5760405162461bcd60e51b815260040161011d90610823565b7f00000000000000000000000000000000000000000000000000000000000000006001600160a01b0316610245600080516020610948833981519152546001600160a01b031690565b6001600160a01b03161461026b5760405162461bcd60e51b815260040161011d9061086f565b6102778282600161034e565b5050565b6000306001600160a01b037f0000000000000000000000000000000000000000000000000000000000000000161461031b5760405162461bcd60e51b815260206004820152603860248201527f555550535570677261646561626c653a206d757374206e6f742062652063616c60448201527f6c6564207468726f7567682064656c656761746563616c6c0000000000000000606482015260840161011d565b5060008051602061094883398151915290565b600061033960015490565b905090565b61034c600180546001019055565b565b7f4910fdfa16fed3260ed0e7147f7cc6da11a60208b5b9406d12a635614ffd91435460ff161561038657610381836104be565b505050565b826001600160a01b03166352d1902d6040518163ffffffff1660e01b8152600401602060405180830381865afa9250505080156103e0575060408051601f3d908101601f191682019092526103dd918101906108bb565b60015b6104435760405162461bcd60e51b815260206004820152602e60248201527f45524331393637557067726164653a206e657720696d706c656d656e7461746960448201526d6f6e206973206e6f74205555505360901b606482015260840161011d565b60008051602061094883398151915281146104b25760405162461bcd60e51b815260206004820152602960248201527f45524331393637557067726164653a20756e737570706f727465642070726f786044820152681a58589b195555525160ba1b606482015260840161011d565b5061038183838361055a565b6001600160a01b0381163b61052b5760405162461bcd60e51b815260206004820152602d60248201527f455243313936373a206e657720696d706c656d656e746174696f6e206973206e60448201526c1bdd08184818dbdb9d1c9858dd609a1b606482015260840161011d565b60008051602061094883398151915280546001600160a01b0319166001600160a01b0392909216919091179055565b61056383610585565b6000825111806105705750805b156103815761057f83836105c5565b50505050565b61058e816104be565b6040516001600160a01b038216907fbc7cd75a20ee27fd9adebab32041f755214dbc6bffa90cc0225b39da2e5c2d3b90600090a250565b60606105ea8383604051806060016040528060278152602001610968602791396105f1565b9392505050565b6060600080856001600160a01b03168560405161060e91906108f8565b600060405180830381855af49150503d8060008114610649576040519150601f19603f3d011682016040523d82523d6000602084013e61064e565b606091505b509150915061065f86838387610669565b9695505050505050565b606083156106d85782516000036106d1576001600160a01b0385163b6106d15760405162461bcd60e51b815260206004820152601d60248201527f416464726573733a2063616c6c20746f206e6f6e2d636f6e7472616374000000604482015260640161011d565b50816106e2565b6106e283836106ea565b949350505050565b8151156106fa5781518083602001fd5b8060405162461bcd60e51b815260040161011d9190610914565b80356001600160a01b038116811461072b57600080fd5b919050565b60006020828403121561074257600080fd5b6105ea82610714565b634e487b7160e01b600052604160045260246000fd5b6000806040838503121561077457600080fd5b61077d83610714565b9150602083013567ffffffffffffffff8082111561079a57600080fd5b818501915085601f8301126107ae57600080fd5b8135818111156107c0576107c061074b565b604051601f8201601f19908116603f011681019083821181831017156107e8576107e861074b565b8160405282815288602084870101111561080157600080fd5b8260208601602083013760006020848301015280955050505050509250929050565b6020808252602c908201527f46756e6374696f6e206d7573742062652063616c6c6564207468726f7567682060408201526b19195b1959d85d1958d85b1b60a21b606082015260800190565b6020808252602c908201527f46756e6374696f6e206d7573742062652063616c6c6564207468726f7567682060408201526b6163746976652070726f787960a01b606082015260800190565b6000602082840312156108cd57600080fd5b5051919050565b60005b838110156108ef5781810151838201526020016108d7565b50506000910152565b6000825161090a8184602087016108d4565b9190910192915050565b60208152600082518060208401526109338160408501602087016108d4565b601f01601f1916919091016040019291505056fe360894a13ba1a3210667c828492db98dca3e2076cc3735a920a3ca505d382bbc416464726573733a206c6f772d6c6576656c2064656c65676174652063616c6c206661696c6564a2646970667358221220290898b566edd2726fca5fc6f7fc398b4c30c40bb9361e2ef09c10167048f08564736f6c63430008110033",
					"opcodes": "PUSH1 0xA0 PUSH1 0x40 MSTORE ADDRESS PUSH1 0x80 MSTORE CALLVALUE DUP1 ISZERO PUSH2 0x14 JUMPI PUSH1 0x0 DUP1 REVERT JUMPDEST POP PUSH1 0x80 MLOAD PUSH2 0x9C4 PUSH2 0x4B PUSH1 0x0 CODECOPY PUSH1 0x0 DUP2 DUP2 PUSH1 0xDF ADD MSTORE DUP2 DUP2 PUSH2 0x128 ADD MSTORE DUP2 DUP2 PUSH2 0x1BE ADD MSTORE DUP2 DUP2 PUSH2 0x1FE ADD MSTORE PUSH2 0x288 ADD MSTORE PUSH2 0x9C4 PUSH1 0x0 RETURN INVALID PUSH1 0x80 PUSH1 0x40 MSTORE PUSH1 0x4 CALLDATASIZE LT PUSH2 0x4A JUMPI PUSH1 0x0 CALLDATALOAD PUSH1 0xE0 SHR DUP1 PUSH4 0x3659CFE6 EQ PUSH2 0x4F JUMPI DUP1 PUSH4 0x4F1EF286 EQ PUSH2 0x71 JUMPI DUP1 PUSH4 0x52D1902D EQ PUSH2 0x84 JUMPI DUP1 PUSH4 0x9FA6A6E3 EQ PUSH2 0xAB JUMPI DUP1 PUSH4 0xD09DE08A EQ PUSH2 0xC0 JUMPI JUMPDEST PUSH1 0x0 DUP1 REVERT JUMPDEST CALLVALUE DUP1 ISZERO PUSH2 0x5B JUMPI PUSH1 0x0 DUP1 REVERT JUMPDEST POP PUSH2 0x6F PUSH2 0x6A CALLDATASIZE PUSH1 0x4 PUSH2 0x730 JUMP JUMPDEST PUSH2 0xD5 JUMP JUMPDEST STOP JUMPDEST PUSH2 0x6F PUSH2 0x7F CALLDATASIZE PUSH1 0x4 PUSH2 0x761 JUMP JUMPDEST PUSH2 0x1B4 JUMP JUMPDEST CALLVALUE DUP1 ISZERO PUSH2 0x90 JUMPI PUSH1 0x0 DUP1 REVERT JUMPDEST POP PUSH2 0x99 PUSH2 0x27B JUMP JUMPDEST PUSH1 0x40 MLOAD SWAP1 DUP2 MSTORE PUSH1 0x20 ADD PUSH1 0x40 MLOAD DUP1 SWAP2 SUB SWAP1 RETURN JUMPDEST CALLVALUE DUP1 ISZERO PUSH2 0xB7 JUMPI PUSH1 0x0 DUP1 REVERT JUMPDEST POP PUSH2 0x99 PUSH2 0x32E JUMP JUMPDEST CALLVALUE DUP1 ISZERO PUSH2 0xCC JUMPI PUSH1 0x0 DUP1 REVERT JUMPDEST POP PUSH2 0x6F PUSH2 0x33E JUMP JUMPDEST PUSH1 0x1 PUSH1 0x1 PUSH1 0xA0 SHL SUB PUSH32 0x0 AND ADDRESS SUB PUSH2 0x126 JUMPI PUSH1 0x40 MLOAD PUSH3 0x461BCD PUSH1 0xE5 SHL DUP2 MSTORE PUSH1 0x4 ADD PUSH2 0x11D SWAP1 PUSH2 0x823 JUMP JUMPDEST PUSH1 0x40 MLOAD DUP1 SWAP2 SUB SWAP1 REVERT JUMPDEST PUSH32 0x0 PUSH1 0x1 PUSH1 0x1 PUSH1 0xA0 SHL SUB AND PUSH2 0x16F PUSH1 0x0 DUP1 MLOAD PUSH1 0x20 PUSH2 0x948 DUP4 CODECOPY DUP2 MLOAD SWAP2 MSTORE SLOAD PUSH1 0x1 PUSH1 0x1 PUSH1 0xA0 SHL SUB AND SWAP1 JUMP JUMPDEST PUSH1 0x1 PUSH1 0x1 PUSH1 0xA0 SHL SUB AND EQ PUSH2 0x195 JUMPI PUSH1 0x40 MLOAD PUSH3 0x461BCD PUSH1 0xE5 SHL DUP2 MSTORE PUSH1 0x4 ADD PUSH2 0x11D SWAP1 PUSH2 0x86F JUMP JUMPDEST PUSH1 0x40 DUP1 MLOAD PUSH1 0x0 DUP1 DUP3 MSTORE PUSH1 0x20 DUP3 ADD SWAP1 SWAP3 MSTORE PUSH2 0x1B1 SWAP2 DUP4 SWAP2 SWAP1 PUSH2 0x34E JUMP JUMPDEST POP JUMP JUMPDEST PUSH1 0x1 PUSH1 0x1 PUSH1 0xA0 SHL SUB PUSH32 0x0 AND ADDRESS SUB PUSH2 0x1FC JUMPI PUSH1 0x40 MLOAD PUSH3 0x461BCD PUSH1 0xE5 SHL DUP2 MSTORE PUSH1 0x4 ADD PUSH2 0x11D SWAP1 PUSH2 0x823 JUMP JUMPDEST PUSH32 0x0 PUSH1 0x1 PUSH1 0x1 PUSH1 0xA0 SHL SUB AND PUSH2 0x245 PUSH1 0x0 DUP1 MLOAD PUSH1 0x20 PUSH2 0x948 DUP4 CODECOPY DUP2 MLOAD SWAP2 MSTORE SLOAD PUSH1 0x1 PUSH1 0x1 PUSH1 0xA0 SHL SUB AND SWAP1 JUMP JUMPDEST PUSH1 0x1 PUSH1 0x1 PUSH1 0xA0 SHL SUB AND EQ PUSH2 0x26B JUMPI PUSH1 0x40 MLOAD PUSH3 0x461BCD PUSH1 0xE5 SHL DUP2 MSTORE PUSH1 0x4 ADD PUSH2 0x11D SWAP1 PUSH2 0x86F JUMP JUMPDEST PUSH2 0x277 DUP3 DUP3 PUSH1 0x1 PUSH2 0x34E JUMP JUMPDEST POP POP JUMP JUMPDEST PUSH1 0x0 ADDRESS PUSH1 0x1 PUSH1 0x1 PUSH1 0xA0 SHL SUB PUSH32 0x0 AND EQ PUSH2 0x31B JUMPI PUSH1 0x40 MLOAD PUSH3 0x461BCD PUSH1 0xE5 SHL DUP2 MSTORE PUSH1 0x20 PUSH1 0x4 DUP3 ADD MSTORE PUSH1 0x38 PUSH1 0x24 DUP3 ADD MSTORE PUSH32 0x555550535570677261646561626C653A206D757374206E6F742062652063616C PUSH1 0x44 DUP3 ADD MSTORE PUSH32 0x6C6564207468726F7567682064656C656761746563616C6C0000000000000000 PUSH1 0x64 DUP3 ADD MSTORE PUSH1 0x84 ADD PUSH2 0x11D JUMP JUMPDEST POP PUSH1 0x0 DUP1 MLOAD PUSH1 0x20 PUSH2 0x948 DUP4 CODECOPY DUP2 MLOAD SWAP2 MSTORE SWAP1 JUMP JUMPDEST PUSH1 0x0 PUSH2 0x339 PUSH1 0x1 SLOAD SWAP1 JUMP JUMPDEST SWAP1 POP SWAP1 JUMP JUMPDEST PUSH2 0x34C PUSH1 0x1 DUP1 SLOAD PUSH1 0x1 ADD SWAP1 SSTORE JUMP JUMPDEST JUMP JUMPDEST PUSH32 0x4910FDFA16FED3260ED0E7147F7CC6DA11A60208B5B9406D12A635614FFD9143 SLOAD PUSH1 0xFF AND ISZERO PUSH2 0x386 JUMPI PUSH2 0x381 DUP4 PUSH2 0x4BE JUMP JUMPDEST POP POP POP JUMP JUMPDEST DUP3 PUSH1 0x1 PUSH1 0x1 PUSH1 0xA0 SHL SUB AND PUSH4 0x52D1902D PUSH1 0x40 MLOAD DUP2 PUSH4 0xFFFFFFFF AND PUSH1 0xE0 SHL DUP2 MSTORE PUSH1 0x4 ADD PUSH1 0x20 PUSH1 0x40 MLOAD DUP1 DUP4 SUB DUP2 DUP7 GAS STATICCALL SWAP3 POP POP POP DUP1 ISZERO PUSH2 0x3E0 JUMPI POP PUSH1 0x40 DUP1 MLOAD PUSH1 0x1F RETURNDATASIZE SWAP1 DUP2 ADD PUSH1 0x1F NOT AND DUP3 ADD SWAP1 SWAP3 MSTORE PUSH2 0x3DD SWAP2 DUP2 ADD SWAP1 PUSH2 0x8BB JUMP JUMPDEST PUSH1 0x1 JUMPDEST PUSH2 0x443 JUMPI PUSH1 0x40 MLOAD PUSH3 0x461BCD PUSH1 0xE5 SHL DUP2 MSTORE PUSH1 0x20 PUSH1 0x4 DUP3 ADD MSTORE PUSH1 0x2E PUSH1 0x24 DUP3 ADD MSTORE PUSH32 0x45524331393637557067726164653A206E657720696D706C656D656E74617469 PUSH1 0x44 DUP3 ADD MSTORE PUSH14 0x6F6E206973206E6F742055555053 PUSH1 0x90 SHL PUSH1 0x64 DUP3 ADD MSTORE PUSH1 0x84 ADD PUSH2 0x11D JUMP JUMPDEST PUSH1 0x0 DUP1 MLOAD PUSH1 0x20 PUSH2 0x948 DUP4 CODECOPY DUP2 MLOAD SWAP2 MSTORE DUP2 EQ PUSH2 0x4B2 JUMPI PUSH1 0x40 MLOAD PUSH3 0x461BCD PUSH1 0xE5 SHL DUP2 MSTORE PUSH1 0x20 PUSH1 0x4 DUP3 ADD MSTORE PUSH1 0x29 PUSH1 0x24 DUP3 ADD MSTORE PUSH32 0x45524331393637557067726164653A20756E737570706F727465642070726F78 PUSH1 0x44 DUP3 ADD MSTORE PUSH9 0x1A58589B1955555251 PUSH1 0xBA SHL PUSH1 0x64 DUP3 ADD MSTORE PUSH1 0x84 ADD PUSH2 0x11D JUMP JUMPDEST POP PUSH2 0x381 DUP4 DUP4 DUP4 PUSH2 0x55A JUMP JUMPDEST PUSH1 0x1 PUSH1 0x1 PUSH1 0xA0 SHL SUB DUP2 AND EXTCODESIZE PUSH2 0x52B JUMPI PUSH1 0x40 MLOAD PUSH3 0x461BCD PUSH1 0xE5 SHL DUP2 MSTORE PUSH1 0x20 PUSH1 0x4 DUP3 ADD MSTORE PUSH1 0x2D PUSH1 0x24 DUP3 ADD MSTORE PUSH32 0x455243313936373A206E657720696D706C656D656E746174696F6E206973206E PUSH1 0x44 DUP3 ADD MSTORE PUSH13 0x1BDD08184818DBDB9D1C9858DD PUSH1 0x9A SHL PUSH1 0x64 DUP3 ADD MSTORE PUSH1 0x84 ADD PUSH2 0x11D JUMP JUMPDEST PUSH1 0x0 DUP1 MLOAD PUSH1 0x20 PUSH2 0x948 DUP4 CODECOPY DUP2 MLOAD SWAP2 MSTORE DUP1 SLOAD PUSH1 0x1 PUSH1 0x1 PUSH1 0xA0 SHL SUB NOT AND PUSH1 0x1 PUSH1 0x1 PUSH1 0xA0 SHL SUB SWAP3 SWAP1 SWAP3 AND SWAP2 SWAP1 SWAP2 OR SWAP1 SSTORE JUMP JUMPDEST PUSH2 0x563 DUP4 PUSH2 0x585 JUMP JUMPDEST PUSH1 0x0 DUP3 MLOAD GT DUP1 PUSH2 0x570 JUMPI POP DUP1 JUMPDEST ISZERO PUSH2 0x381 JUMPI PUSH2 0x57F DUP4 DUP4 PUSH2 0x5C5 JUMP JUMPDEST POP POP POP POP JUMP JUMPDEST PUSH2 0x58E DUP2 PUSH2 0x4BE JUMP JUMPDEST PUSH1 0x40 MLOAD PUSH1 0x1 PUSH1 0x1 PUSH1 0xA0 SHL SUB DUP3 AND SWAP1 PUSH32 0xBC7CD75A20EE27FD9ADEBAB32041F755214DBC6BFFA90CC0225B39DA2E5C2D3B SWAP1 PUSH1 0x0 SWAP1 LOG2 POP JUMP JUMPDEST PUSH1 0x60 PUSH2 0x5EA DUP4 DUP4 PUSH1 0x40 MLOAD DUP1 PUSH1 0x60 ADD PUSH1 0x40 MSTORE DUP1 PUSH1 0x27 DUP2 MSTORE PUSH1 0x20 ADD PUSH2 0x968 PUSH1 0x27 SWAP2 CODECOPY PUSH2 0x5F1 JUMP JUMPDEST SWAP4 SWAP3 POP POP POP JUMP JUMPDEST PUSH1 0x60 PUSH1 0x0 DUP1 DUP6 PUSH1 0x1 PUSH1 0x1 PUSH1 0xA0 SHL SUB AND DUP6 PUSH1 0x40 MLOAD PUSH2 0x60E SWAP2 SWAP1 PUSH2 0x8F8 JUMP JUMPDEST PUSH1 0x0 PUSH1 0x40 MLOAD DUP1 DUP4 SUB DUP2 DUP6 GAS DELEGATECALL SWAP2 POP POP RETURNDATASIZE DUP1 PUSH1 0x0 DUP2 EQ PUSH2 0x649 JUMPI PUSH1 0x40 MLOAD SWAP2 POP PUSH1 0x1F NOT PUSH1 0x3F RETURNDATASIZE ADD AND DUP3 ADD PUSH1 0x40 MSTORE RETURNDATASIZE DUP3 MSTORE RETURNDATASIZE PUSH1 0x0 PUSH1 0x20 DUP5 ADD RETURNDATACOPY PUSH2 0x64E JUMP JUMPDEST PUSH1 0x60 SWAP2 POP JUMPDEST POP SWAP2 POP SWAP2 POP PUSH2 0x65F DUP7 DUP4 DUP4 DUP8 PUSH2 0x669 JUMP JUMPDEST SWAP7 SWAP6 POP POP POP POP POP POP JUMP JUMPDEST PUSH1 0x60 DUP4 ISZERO PUSH2 0x6D8 JUMPI DUP3 MLOAD PUSH1 0x0 SUB PUSH2 0x6D1 JUMPI PUSH1 0x1 PUSH1 0x1 PUSH1 0xA0 SHL SUB DUP6 AND EXTCODESIZE PUSH2 0x6D1 JUMPI PUSH1 0x40 MLOAD PUSH3 0x461BCD PUSH1 0xE5 SHL DUP2 MSTORE PUSH1 0x20 PUSH1 0x4 DUP3 ADD MSTORE PUSH1 0x1D PUSH1 0x24 DUP3 ADD MSTORE PUSH32 0x416464726573733A2063616C6C20746F206E6F6E2D636F6E7472616374000000 PUSH1 0x44 DUP3 ADD MSTORE PUSH1 0x64 ADD PUSH2 0x11D JUMP JUMPDEST POP DUP2 PUSH2 0x6E2 JUMP JUMPDEST PUSH2 0x6E2 DUP4 DUP4 PUSH2 0x6EA JUMP JUMPDEST SWAP5 SWAP4 POP POP POP POP JUMP JUMPDEST DUP2 MLOAD ISZERO PUSH2 0x6FA JUMPI DUP2 MLOAD DUP1 DUP4 PUSH1 0x20 ADD REVERT JUMPDEST DUP1 PUSH1 0x40 MLOAD PUSH3 0x461BCD PUSH1 0xE5 SHL DUP2 MSTORE PUSH1 0x4 ADD PUSH2 0x11D SWAP2 SWAP1 PUSH2 0x914 JUMP JUMPDEST DUP1 CALLDATALOAD PUSH1 0x1 PUSH1 0x1 PUSH1 0xA0 SHL SUB DUP2 AND DUP2 EQ PUSH2 0x72B JUMPI PUSH1 0x0 DUP1 REVERT JUMPDEST SWAP2 SWAP1 POP JUMP JUMPDEST PUSH1 0x0 PUSH1 0x20 DUP3 DUP5 SUB SLT ISZERO PUSH2 0x742 JUMPI PUSH1 0x0 DUP1 REVERT JUMPDEST PUSH2 0x5EA DUP3 PUSH2 0x714 JUMP JUMPDEST PUSH4 0x4E487B71 PUSH1 0xE0 SHL PUSH1 0x0 MSTORE PUSH1 0x41 PUSH1 0x4 MSTORE PUSH1 0x24 PUSH1 0x0 REVERT JUMPDEST PUSH1 0x0 DUP1 PUSH1 0x40 DUP4 DUP6 SUB SLT ISZERO PUSH2 0x774 JUMPI PUSH1 0x0 DUP1 REVERT JUMPDEST PUSH2 0x77D DUP4 PUSH2 0x714 JUMP JUMPDEST SWAP2 POP PUSH1 0x20 DUP4 ADD CALLDATALOAD PUSH8 0xFFFFFFFFFFFFFFFF DUP1 DUP3 GT ISZERO PUSH2 0x79A JUMPI PUSH1 0x0 DUP1 REVERT JUMPDEST DUP2 DUP6 ADD SWAP2 POP DUP6 PUSH1 0x1F DUP4 ADD SLT PUSH2 0x7AE JUMPI PUSH1 0x0 DUP1 REVERT JUMPDEST DUP2 CALLDATALOAD DUP2 DUP2 GT ISZERO PUSH2 0x7C0 JUMPI PUSH2 0x7C0 PUSH2 0x74B JUMP JUMPDEST PUSH1 0x40 MLOAD PUSH1 0x1F DUP3 ADD PUSH1 0x1F NOT SWAP1 DUP2 AND PUSH1 0x3F ADD AND DUP2 ADD SWAP1 DUP4 DUP3 GT DUP2 DUP4 LT OR ISZERO PUSH2 0x7E8 JUMPI PUSH2 0x7E8 PUSH2 0x74B JUMP JUMPDEST DUP2 PUSH1 0x40 MSTORE DUP3 DUP2 MSTORE DUP9 PUSH1 0x20 DUP5 DUP8 ADD ADD GT ISZERO PUSH2 0x801 JUMPI PUSH1 0x0 DUP1 REVERT JUMPDEST DUP3 PUSH1 0x20 DUP7 ADD PUSH1 0x20 DUP4 ADD CALLDATACOPY PUSH1 0x0 PUSH1 0x20 DUP5 DUP4 ADD ADD MSTORE DUP1 SWAP6 POP POP POP POP POP POP SWAP3 POP SWAP3 SWAP1 POP JUMP JUMPDEST PUSH1 0x20 DUP1 DUP3 MSTORE PUSH1 0x2C SWAP1 DUP3 ADD MSTORE PUSH32 0x46756E6374696F6E206D7573742062652063616C6C6564207468726F75676820 PUSH1 0x40 DUP3 ADD MSTORE PUSH12 0x19195B1959D85D1958D85B1B PUSH1 0xA2 SHL PUSH1 0x60 DUP3 ADD MSTORE PUSH1 0x80 ADD SWAP1 JUMP JUMPDEST PUSH1 0x20 DUP1 DUP3 MSTORE PUSH1 0x2C SWAP1 DUP3 ADD MSTORE PUSH32 0x46756E6374696F6E206D7573742062652063616C6C6564207468726F75676820 PUSH1 0x40 DUP3 ADD MSTORE PUSH12 0x6163746976652070726F7879 PUSH1 0xA0 SHL PUSH1 0x60 DUP3 ADD MSTORE PUSH1 0x80 ADD SWAP1 JUMP JUMPDEST PUSH1 0x0 PUSH1 0x20 DUP3 DUP5 SUB SLT ISZERO PUSH2 0x8CD JUMPI PUSH1 0x0 DUP1 REVERT JUMPDEST POP MLOAD SWAP2 SWAP1 POP JUMP JUMPDEST PUSH1 0x0 JUMPDEST DUP4 DUP2 LT ISZERO PUSH2 0x8EF JUMPI DUP2 DUP2 ADD MLOAD DUP4 DUP3 ADD MSTORE PUSH1 0x20 ADD PUSH2 0x8D7 JUMP JUMPDEST POP POP PUSH1 0x0 SWAP2 ADD MSTORE JUMP JUMPDEST PUSH1 0x0 DUP3 MLOAD PUSH2 0x90A DUP2 DUP5 PUSH1 0x20 DUP8 ADD PUSH2 0x8D4 JUMP JUMPDEST SWAP2 SWAP1 SWAP2 ADD SWAP3 SWAP2 POP POP JUMP JUMPDEST PUSH1 0x20 DUP2 MSTORE PUSH1 0x0 DUP3 MLOAD DUP1 PUSH1 0x20 DUP5 ADD MSTORE PUSH2 0x933 DUP2 PUSH1 0x40 DUP6 ADD PUSH1 0x20 DUP8 ADD PUSH2 0x8D4 JUMP JUMPDEST PUSH1 0x1F ADD PUSH1 0x1F NOT AND SWAP2 SWAP1 SWAP2 ADD PUSH1 0x40 ADD SWAP3 SWAP2 POP POP JUMP INVALID CALLDATASIZE ADDMOD SWAP5 LOG1 EXTCODESIZE LOG1 LOG3 0x21 MOD PUSH8 0xC828492DB98DCA3E KECCAK256 PUSH23 0xCC3735A920A3CA505D382BBC416464726573733A206C6F PUSH24 0x2D6C6576656C2064656C65676174652063616C6C20666169 PUSH13 0x6564A264697066735822122029 ADDMOD SWAP9 0xB5 PUSH7 0xEDD2726FCA5FC6 0xF7 0xFC CODECOPY DUP12 0x4C ADDRESS 0xC4 SIGNEXTEND 0xB9 CALLDATASIZE 0x1E 0x2E CREATE SWAP13 LT AND PUSH17 0x48F08564736F6C63430008110033000000 "
				},
				"gasEstimates": {
					"creation": {
						"codeDepositCost": "500000",
						"executionCost": "infinite",
						"totalCost": "infinite"
					},
					"external": {
						"current()": "2362",
						"increment()": "24437",
						"proxiableUUID()": "infinite",
						"upgradeTo(address)": "infinite",
						"upgradeToAndCall(address,bytes)": "infinite"
					},
					"internal": {
						"__UUPSUpgradeableMock_init()": "infinite",
						"__UUPSUpgradeableMock_init_unchained()": "infinite",
						"_authorizeUpgrade(address)": "infinite"
					}
				},
				"methodIdentifiers": {
					"current()": "9fa6a6e3",
					"increment()": "d09de08a",
					"proxiableUUID()": "52d1902d",
					"upgradeTo(address)": "3659cfe6",
					"upgradeToAndCall(address,bytes)": "4f1ef286"
				}
			},
			"storageLayout": {
				"storage": [
					{
						"astId": 810,
						"contract": "packages/contracts/src/mocks/proxy/UUPSUpgradeableMockUpgradeable.sol:UUPSUpgradeableMockUpgradeable",
						"label": "_initialized",
						"offset": 0,
						"slot": "0",
						"type": "t_uint8"
					},
					{
						"astId": 813,
						"contract": "packages/contracts/src/mocks/proxy/UUPSUpgradeableMockUpgradeable.sol:UUPSUpgradeableMockUpgradeable",
						"label": "_initializing",
						"offset": 1,
						"slot": "0",
						"type": "t_bool"
					},
					{
						"astId": 207,
						"contract": "packages/contracts/src/mocks/proxy/UUPSUpgradeableMockUpgradeable.sol:UUPSUpgradeableMockUpgradeable",
						"label": "_counter",
						"offset": 0,
						"slot": "1",
						"type": "t_struct(Counter)1308_storage"
					},
					{
						"astId": 244,
						"contract": "packages/contracts/src/mocks/proxy/UUPSUpgradeableMockUpgradeable.sol:UUPSUpgradeableMockUpgradeable",
						"label": "__gap",
						"offset": 0,
						"slot": "2",
						"type": "t_array(t_uint256)49_storage"
					},
					{
						"astId": 656,
						"contract": "packages/contracts/src/mocks/proxy/UUPSUpgradeableMockUpgradeable.sol:UUPSUpgradeableMockUpgradeable",
						"label": "__gap",
						"offset": 0,
						"slot": "51",
						"type": "t_array(t_uint256)50_storage"
					},
					{
						"astId": 802,
						"contract": "packages/contracts/src/mocks/proxy/UUPSUpgradeableMockUpgradeable.sol:UUPSUpgradeableMockUpgradeable",
						"label": "__gap",
						"offset": 0,
						"slot": "101",
						"type": "t_array(t_uint256)50_storage"
					},
					{
						"astId": 275,
						"contract": "packages/contracts/src/mocks/proxy/UUPSUpgradeableMockUpgradeable.sol:UUPSUpgradeableMockUpgradeable",
						"label": "__gap",
						"offset": 0,
						"slot": "151",
						"type": "t_array(t_uint256)50_storage"
					}
				],
				"types": {
					"t_array(t_uint256)49_storage": {
						"base": "t_uint256",
						"encoding": "inplace",
						"label": "uint256[49]",
						"numberOfBytes": "1568"
					},
					"t_array(t_uint256)50_storage": {
						"base": "t_uint256",
						"encoding": "inplace",
						"label": "uint256[50]",
						"numberOfBytes": "1600"
					},
					"t_bool": {
						"encoding": "inplace",
						"label": "bool",
						"numberOfBytes": "1"
					},
					"t_struct(Counter)1308_storage": {
						"encoding": "inplace",
						"label": "struct CountersUpgradeable.Counter",
						"members": [
							{
								"astId": 1307,
								"contract": "packages/contracts/src/mocks/proxy/UUPSUpgradeableMockUpgradeable.sol:UUPSUpgradeableMockUpgradeable",
								"label": "_value",
								"offset": 0,
								"slot": "0",
								"type": "t_uint256"
							}
						],
						"numberOfBytes": "32"
					},
					"t_uint256": {
						"encoding": "inplace",
						"label": "uint256",
						"numberOfBytes": "32"
					},
					"t_uint8": {
						"encoding": "inplace",
						"label": "uint8",
						"numberOfBytes": "1"
					}
				}
			},
			"userdoc": {
				"kind": "user",
				"methods": {},
				"version": 1
			}
		}
	}
}