{
	"packages/contracts/src/mocks/proxy/UUPSLegacyUpgradeable.sol": {
		"UUPSUpgradeableLegacyMockUpgradeable": {
			"abi": [
				{
					"anonymous": false,
					"inputs": [
						{
							"indexed": false,
							"internalType": "address",
							"name": "previousAdmin",
							"type": "address"
						},
						{
							"indexed": false,
							"internalType": "address",
							"name": "newAdmin",
							"type": "address"
						}
					],
					"name": "AdminChanged",
					"type": "event"
				},
				{
					"anonymous": false,
					"inputs": [
						{
							"indexed": true,
							"internalType": "address",
							"name": "beacon",
							"type": "address"
						}
					],
					"name": "BeaconUpgraded",
					"type": "event"
				},
				{
					"anonymous": false,
					"inputs": [
						{
							"indexed": false,
							"internalType": "uint8",
							"name": "version",
							"type": "uint8"
						}
					],
					"name": "Initialized",
					"type": "event"
				},
				{
					"anonymous": false,
					"inputs": [
						{
							"indexed": true,
							"internalType": "address",
							"name": "implementation",
							"type": "address"
						}
					],
					"name": "Upgraded",
					"type": "event"
				},
				{
					"inputs": [],
					"name": "current",
					"outputs": [
						{
							"internalType": "uint256",
							"name": "",
							"type": "uint256"
						}
					],
					"stateMutability": "view",
					"type": "function"
				},
				{
					"inputs": [],
					"name": "increment",
					"outputs": [],
					"stateMutability": "nonpayable",
					"type": "function"
				},
				{
					"inputs": [],
					"name": "proxiableUUID",
					"outputs": [
						{
							"internalType": "bytes32",
							"name": "",
							"type": "bytes32"
						}
					],
					"stateMutability": "view",
					"type": "function"
				},
				{
					"inputs": [
						{
							"internalType": "address",
							"name": "newImplementation",
							"type": "address"
						}
					],
					"name": "upgradeTo",
					"outputs": [],
					"stateMutability": "nonpayable",
					"type": "function"
				},
				{
					"inputs": [
						{
							"internalType": "address",
							"name": "newImplementation",
							"type": "address"
						},
						{
							"internalType": "bytes",
							"name": "data",
							"type": "bytes"
						}
					],
					"name": "upgradeToAndCall",
					"outputs": [],
					"stateMutability": "payable",
					"type": "function"
				}
			],
			"devdoc": {
				"kind": "dev",
				"methods": {
					"proxiableUUID()": {
						"details": "Implementation of the ERC1822 {proxiableUUID} function. This returns the storage slot used by the implementation. It is used to validate the implementation's compatibility when performing an upgrade. IMPORTANT: A proxy pointing at a proxiable contract should not be considered proxiable itself, because this risks bricking a proxy that upgrades to it, by delegating to itself until out of gas. Thus it is critical that this function revert if invoked through a proxy. This is guaranteed by the `notDelegated` modifier."
					},
					"upgradeTo(address)": {
						"details": "Upgrade the implementation of the proxy to `newImplementation`. Calls {_authorizeUpgrade}. Emits an {Upgraded} event."
					},
					"upgradeToAndCall(address,bytes)": {
						"details": "Upgrade the implementation of the proxy to `newImplementation`, and subsequently execute the function call encoded in `data`. Calls {_authorizeUpgrade}. Emits an {Upgraded} event."
					}
				},
				"stateVariables": {
					"__gap": {
						"details": "This empty reserved space is put in place to allow future versions to add new variables without shifting down storage in the inheritance chain. See https://docs.openzeppelin.com/contracts/4.x/upgradeable#storage_gaps"
					}
				},
				"version": 1
			},
			"evm": {
				"assembly": "    /* \"packages/contracts/src/mocks/proxy/UUPSLegacyUpgradeable.sol\":347:3172  contract UUPSUpgradeableLegacyMockUpgradeable is Initializable, UUPSUpgradeableMockUpgradeable {... */\n  mstore(0x40, 0xa0)\n    /* \"packages/contracts/src/proxy/utils/UUPSUpgradeable.sol\":1360:1364  this */\n  address\n    /* \"packages/contracts/src/proxy/utils/UUPSUpgradeable.sol\":1317:1365  address private immutable __self = address(this) */\n  0x80\n  mstore\n    /* \"packages/contracts/src/mocks/proxy/UUPSLegacyUpgradeable.sol\":347:3172  contract UUPSUpgradeableLegacyMockUpgradeable is Initializable, UUPSUpgradeableMockUpgradeable {... */\n  callvalue\n  dup1\n  iszero\n  tag_1\n  jumpi\n  0x00\n  dup1\n  revert\ntag_1:\n  pop\n  mload(0x80)\n  codecopy(0x00, dataOffset(sub_0), dataSize(sub_0))\n  0x00\n  assignImmutable(\"0xc2c77dc624b4aac67a6e14132cf7e60e698350f9c72b88ffba77407546a8ee13\")\n  return(0x00, dataSize(sub_0))\nstop\n\nsub_0: assembly {\n        /* \"packages/contracts/src/mocks/proxy/UUPSLegacyUpgradeable.sol\":347:3172  contract UUPSUpgradeableLegacyMockUpgradeable is Initializable, UUPSUpgradeableMockUpgradeable {... */\n      mstore(0x40, 0x80)\n      jumpi(tag_1, lt(calldatasize, 0x04))\n      shr(0xe0, calldataload(0x00))\n      dup1\n      0x3659cfe6\n      eq\n      tag_2\n      jumpi\n      dup1\n      0x4f1ef286\n      eq\n      tag_3\n      jumpi\n      dup1\n      0x52d1902d\n      eq\n      tag_4\n      jumpi\n      dup1\n      0x9fa6a6e3\n      eq\n      tag_5\n      jumpi\n      dup1\n      0xd09de08a\n      eq\n      tag_6\n      jumpi\n    tag_1:\n      0x00\n      dup1\n      revert\n        /* \"packages/contracts/src/mocks/proxy/UUPSLegacyUpgradeable.sol\":2536:2685  function upgradeTo(address newImplementation) public override {... */\n    tag_2:\n      callvalue\n      dup1\n      iszero\n      tag_7\n      jumpi\n      0x00\n      dup1\n      revert\n    tag_7:\n      pop\n      tag_8\n      tag_9\n      calldatasize\n      0x04\n      tag_10\n      jump\t// in\n    tag_9:\n      tag_11\n      jump\t// in\n    tag_8:\n      stop\n        /* \"packages/contracts/src/mocks/proxy/UUPSLegacyUpgradeable.sol\":2693:2871  function upgradeToAndCall(address newImplementation, bytes memory data) public payable override {... */\n    tag_3:\n      tag_8\n      tag_13\n      calldatasize\n      0x04\n      tag_14\n      jump\t// in\n    tag_13:\n      tag_15\n      jump\t// in\n        /* \"packages/contracts/src/proxy/utils/UUPSUpgradeable.sol\":3066:3199  function proxiableUUID() external view virtual override notDelegated returns (bytes32) {... */\n    tag_4:\n      callvalue\n      dup1\n      iszero\n      tag_16\n      jumpi\n      0x00\n      dup1\n      revert\n    tag_16:\n      pop\n      tag_17\n      tag_18\n      jump\t// in\n    tag_17:\n      mload(0x40)\n        /* \"#utility.yul\":1661:1686   */\n      swap1\n      dup2\n      mstore\n        /* \"#utility.yul\":1649:1651   */\n      0x20\n        /* \"#utility.yul\":1634:1652   */\n      add\n        /* \"packages/contracts/src/proxy/utils/UUPSUpgradeable.sol\":3066:3199  function proxiableUUID() external view virtual override notDelegated returns (bytes32) {... */\n      mload(0x40)\n      dup1\n      swap2\n      sub\n      swap1\n      return\n        /* \"packages/contracts/src/mocks/proxy/UUPSUpgradeableMockUpgradeable.sol\":490:604  function current() external view returns (uint256) {... */\n    tag_5:\n      callvalue\n      dup1\n      iszero\n      tag_21\n      jumpi\n      0x00\n      dup1\n      revert\n    tag_21:\n      pop\n      tag_17\n      tag_23\n      jump\t// in\n        /* \"packages/contracts/src/mocks/proxy/UUPSUpgradeableMockUpgradeable.sol\":612:707  function increment() external {... */\n    tag_6:\n      callvalue\n      dup1\n      iszero\n      tag_26\n      jumpi\n      0x00\n      dup1\n      revert\n    tag_26:\n      pop\n      tag_8\n      tag_28\n      jump\t// in\n        /* \"packages/contracts/src/mocks/proxy/UUPSLegacyUpgradeable.sol\":2536:2685  function upgradeTo(address newImplementation) public override {... */\n    tag_11:\n        /* \"packages/contracts/src/mocks/proxy/UUPSLegacyUpgradeable.sol\":2609:2677  _upgradeToAndCallSecureLegacyV1(newImplementation, bytes(\"\"), false) */\n      tag_30\n        /* \"packages/contracts/src/mocks/proxy/UUPSLegacyUpgradeable.sol\":2641:2658  newImplementation */\n      dup2\n        /* \"packages/contracts/src/mocks/proxy/UUPSLegacyUpgradeable.sol\":2660:2669  bytes(\"\") */\n      mload(0x40)\n      dup1\n      0x20\n      add\n      0x40\n      mstore\n      dup1\n      0x00\n      dup2\n      mstore\n      pop\n        /* \"packages/contracts/src/mocks/proxy/UUPSLegacyUpgradeable.sol\":2671:2676  false */\n      0x00\n        /* \"packages/contracts/src/mocks/proxy/UUPSLegacyUpgradeable.sol\":2609:2640  _upgradeToAndCallSecureLegacyV1 */\n      tag_31\n        /* \"packages/contracts/src/mocks/proxy/UUPSLegacyUpgradeable.sol\":2609:2677  _upgradeToAndCallSecureLegacyV1(newImplementation, bytes(\"\"), false) */\n      jump\t// in\n    tag_30:\n        /* \"packages/contracts/src/mocks/proxy/UUPSLegacyUpgradeable.sol\":2536:2685  function upgradeTo(address newImplementation) public override {... */\n      pop\n      jump\t// out\n        /* \"packages/contracts/src/mocks/proxy/UUPSLegacyUpgradeable.sol\":2693:2871  function upgradeToAndCall(address newImplementation, bytes memory data) public payable override {... */\n    tag_15:\n        /* \"packages/contracts/src/mocks/proxy/UUPSLegacyUpgradeable.sol\":2800:2863  _upgradeToAndCallSecureLegacyV1(newImplementation, data, false) */\n      tag_33\n        /* \"packages/contracts/src/mocks/proxy/UUPSLegacyUpgradeable.sol\":2832:2849  newImplementation */\n      dup3\n        /* \"packages/contracts/src/mocks/proxy/UUPSLegacyUpgradeable.sol\":2851:2855  data */\n      dup3\n        /* \"packages/contracts/src/mocks/proxy/UUPSLegacyUpgradeable.sol\":2857:2862  false */\n      0x00\n        /* \"packages/contracts/src/mocks/proxy/UUPSLegacyUpgradeable.sol\":2800:2831  _upgradeToAndCallSecureLegacyV1 */\n      tag_31\n        /* \"packages/contracts/src/mocks/proxy/UUPSLegacyUpgradeable.sol\":2800:2863  _upgradeToAndCallSecureLegacyV1(newImplementation, data, false) */\n      jump\t// in\n    tag_33:\n        /* \"packages/contracts/src/mocks/proxy/UUPSLegacyUpgradeable.sol\":2693:2871  function upgradeToAndCall(address newImplementation, bytes memory data) public payable override {... */\n      pop\n      pop\n      jump\t// out\n        /* \"packages/contracts/src/proxy/utils/UUPSUpgradeable.sol\":3066:3199  function proxiableUUID() external view virtual override notDelegated returns (bytes32) {... */\n    tag_18:\n        /* \"packages/contracts/src/proxy/utils/UUPSUpgradeable.sol\":3144:3151  bytes32 */\n      0x00\n        /* \"packages/contracts/src/proxy/utils/UUPSUpgradeable.sol\":2372:2376  this */\n      address\n      sub(shl(0xa0, 0x01), 0x01)\n        /* \"packages/contracts/src/proxy/utils/UUPSUpgradeable.sol\":2381:2387  __self */\n      immutable(\"0xc2c77dc624b4aac67a6e14132cf7e60e698350f9c72b88ffba77407546a8ee13\")\n        /* \"packages/contracts/src/proxy/utils/UUPSUpgradeable.sol\":2364:2387  address(this) == __self */\n      and\n      eq\n        /* \"packages/contracts/src/proxy/utils/UUPSUpgradeable.sol\":2356:2448  require(address(this) == __self, \"UUPSUpgradeable: must not be called through delegatecall\") */\n      tag_35\n      jumpi\n      mload(0x40)\n      shl(0xe5, 0x461bcd)\n      dup2\n      mstore\n        /* \"#utility.yul\":2081:2083   */\n      0x20\n        /* \"packages/contracts/src/proxy/utils/UUPSUpgradeable.sol\":2356:2448  require(address(this) == __self, \"UUPSUpgradeable: must not be called through delegatecall\") */\n      0x04\n      dup3\n      add\n        /* \"#utility.yul\":2063:2084   */\n      mstore\n        /* \"#utility.yul\":2120:2122   */\n      0x38\n        /* \"#utility.yul\":2100:2118   */\n      0x24\n      dup3\n      add\n        /* \"#utility.yul\":2093:2123   */\n      mstore\n        /* \"#utility.yul\":2159:2193   */\n      0x555550535570677261646561626c653a206d757374206e6f742062652063616c\n        /* \"#utility.yul\":2139:2157   */\n      0x44\n      dup3\n      add\n        /* \"#utility.yul\":2132:2194   */\n      mstore\n        /* \"#utility.yul\":2230:2256   */\n      0x6c6564207468726f7567682064656c656761746563616c6c0000000000000000\n        /* \"#utility.yul\":2210:2228   */\n      0x64\n      dup3\n      add\n        /* \"#utility.yul\":2203:2257   */\n      mstore\n        /* \"#utility.yul\":2274:2293   */\n      0x84\n      add\n        /* \"packages/contracts/src/proxy/utils/UUPSUpgradeable.sol\":2356:2448  require(address(this) == __self, \"UUPSUpgradeable: must not be called through delegatecall\") */\n    tag_36:\n      mload(0x40)\n      dup1\n      swap2\n      sub\n      swap1\n      revert\n    tag_35:\n      pop\n      0x00\n      dup1\n      mload\n      0x20\n      data_75b20eef8615de99c108b05f0dbda081c91897128caa336d75dffb97c4132b4d\n      dup4\n      codecopy\n      dup2\n      mload\n      swap2\n      mstore\n        /* \"packages/contracts/src/proxy/utils/UUPSUpgradeable.sol\":3066:3199  function proxiableUUID() external view virtual override notDelegated returns (bytes32) {... */\n      swap1\n      jump\t// out\n        /* \"packages/contracts/src/mocks/proxy/UUPSUpgradeableMockUpgradeable.sol\":490:604  function current() external view returns (uint256) {... */\n    tag_23:\n        /* \"packages/contracts/src/mocks/proxy/UUPSUpgradeableMockUpgradeable.sol\":532:539  uint256 */\n      0x00\n        /* \"packages/contracts/src/mocks/proxy/UUPSUpgradeableMockUpgradeable.sol\":559:596  CountersUpgradeable.current(_counter) */\n      tag_40\n        /* \"packages/contracts/src/mocks/proxy/UUPSUpgradeableMockUpgradeable.sol\":587:595  _counter */\n      0x01\n        /* \"packages/contracts/src/utils/CountersUpgradeable.sol\":951:965  counter._value */\n      sload\n      swap1\n        /* \"packages/contracts/src/utils/CountersUpgradeable.sol\":859:973  function current(Counter storage counter) internal view returns (uint256) {... */\n      jump\n        /* \"packages/contracts/src/mocks/proxy/UUPSUpgradeableMockUpgradeable.sol\":559:596  CountersUpgradeable.current(_counter) */\n    tag_40:\n        /* \"packages/contracts/src/mocks/proxy/UUPSUpgradeableMockUpgradeable.sol\":552:596  return CountersUpgradeable.current(_counter) */\n      swap1\n      pop\n        /* \"packages/contracts/src/mocks/proxy/UUPSUpgradeableMockUpgradeable.sol\":490:604  function current() external view returns (uint256) {... */\n      swap1\n      jump\t// out\n        /* \"packages/contracts/src/mocks/proxy/UUPSUpgradeableMockUpgradeable.sol\":612:707  function increment() external {... */\n    tag_28:\n        /* \"packages/contracts/src/mocks/proxy/UUPSUpgradeableMockUpgradeable.sol\":660:699  CountersUpgradeable.increment(_counter) */\n      tag_43\n        /* \"packages/contracts/src/mocks/proxy/UUPSUpgradeableMockUpgradeable.sol\":690:698  _counter */\n      0x01\n        /* \"packages/contracts/src/utils/CountersUpgradeable.sol\":1070:1089  counter._value += 1 */\n      dup1\n      sload\n        /* \"packages/contracts/src/utils/CountersUpgradeable.sol\":1088:1089  1 */\n      0x01\n        /* \"packages/contracts/src/utils/CountersUpgradeable.sol\":1070:1089  counter._value += 1 */\n      add\n      swap1\n      sstore\n        /* \"packages/contracts/src/utils/CountersUpgradeable.sol\":981:1108  function increment(Counter storage counter) internal {... */\n      jump\n        /* \"packages/contracts/src/mocks/proxy/UUPSUpgradeableMockUpgradeable.sol\":660:699  CountersUpgradeable.increment(_counter) */\n    tag_43:\n        /* \"packages/contracts/src/mocks/proxy/UUPSUpgradeableMockUpgradeable.sol\":612:707  function increment() external {... */\n      jump\t// out\n        /* \"packages/contracts/src/mocks/proxy/UUPSLegacyUpgradeable.sol\":1210:2489  function _upgradeToAndCallSecureLegacyV1(address newImplementation, bytes memory data, bool forceCall) internal {... */\n    tag_31:\n        /* \"packages/contracts/src/mocks/proxy/UUPSLegacyUpgradeable.sol\":1333:1358  address oldImplementation */\n      0x00\n        /* \"packages/contracts/src/mocks/proxy/UUPSLegacyUpgradeable.sol\":1361:1381  _getImplementation() */\n      tag_46\n      0x00\n      dup1\n      mload\n      0x20\n      data_75b20eef8615de99c108b05f0dbda081c91897128caa336d75dffb97c4132b4d\n      dup4\n      codecopy\n      dup2\n      mload\n      swap2\n      mstore\n        /* \"packages/contracts/src/proxy/ERC1967/ERC1967UpgradeUpgradeable.sol\":1574:1639  StorageSlotUpgradeable.getAddressSlot(_IMPLEMENTATION_SLOT).value */\n      sload\n      sub(shl(0xa0, 0x01), 0x01)\n      and\n      swap1\n        /* \"packages/contracts/src/proxy/ERC1967/ERC1967UpgradeUpgradeable.sol\":1494:1647  function _getImplementation() internal view returns (address) {... */\n      jump\n        /* \"packages/contracts/src/mocks/proxy/UUPSLegacyUpgradeable.sol\":1361:1381  _getImplementation() */\n    tag_46:\n        /* \"packages/contracts/src/mocks/proxy/UUPSLegacyUpgradeable.sol\":1333:1381  address oldImplementation = _getImplementation() */\n      swap1\n      pop\n        /* \"packages/contracts/src/mocks/proxy/UUPSLegacyUpgradeable.sol\":1437:1475  __setImplementation(newImplementation) */\n      tag_48\n        /* \"packages/contracts/src/mocks/proxy/UUPSLegacyUpgradeable.sol\":1457:1474  newImplementation */\n      dup5\n        /* \"packages/contracts/src/mocks/proxy/UUPSLegacyUpgradeable.sol\":1437:1456  __setImplementation */\n      tag_49\n        /* \"packages/contracts/src/mocks/proxy/UUPSLegacyUpgradeable.sol\":1437:1475  __setImplementation(newImplementation) */\n      jump\t// in\n    tag_48:\n        /* \"packages/contracts/src/mocks/proxy/UUPSLegacyUpgradeable.sol\":1504:1505  0 */\n      0x00\n        /* \"packages/contracts/src/mocks/proxy/UUPSLegacyUpgradeable.sol\":1490:1494  data */\n      dup4\n        /* \"packages/contracts/src/mocks/proxy/UUPSLegacyUpgradeable.sol\":1490:1501  data.length */\n      mload\n        /* \"packages/contracts/src/mocks/proxy/UUPSLegacyUpgradeable.sol\":1490:1505  data.length > 0 */\n      gt\n        /* \"packages/contracts/src/mocks/proxy/UUPSLegacyUpgradeable.sol\":1490:1518  data.length > 0 || forceCall */\n      dup1\n      tag_50\n      jumpi\n      pop\n        /* \"packages/contracts/src/mocks/proxy/UUPSLegacyUpgradeable.sol\":1509:1518  forceCall */\n      dup2\n        /* \"packages/contracts/src/mocks/proxy/UUPSLegacyUpgradeable.sol\":1490:1518  data.length > 0 || forceCall */\n    tag_50:\n        /* \"packages/contracts/src/mocks/proxy/UUPSLegacyUpgradeable.sol\":1486:1611  if (data.length > 0 || forceCall) {... */\n      iszero\n      tag_51\n      jumpi\n        /* \"packages/contracts/src/mocks/proxy/UUPSLegacyUpgradeable.sol\":1535:1599  AddressUpgradeable.functionDelegateCall(newImplementation, data) */\n      tag_52\n        /* \"packages/contracts/src/mocks/proxy/UUPSLegacyUpgradeable.sol\":1575:1592  newImplementation */\n      dup5\n        /* \"packages/contracts/src/mocks/proxy/UUPSLegacyUpgradeable.sol\":1594:1598  data */\n      dup5\n        /* \"packages/contracts/src/mocks/proxy/UUPSLegacyUpgradeable.sol\":1535:1574  AddressUpgradeable.functionDelegateCall */\n      tag_53\n        /* \"packages/contracts/src/mocks/proxy/UUPSLegacyUpgradeable.sol\":1535:1599  AddressUpgradeable.functionDelegateCall(newImplementation, data) */\n      jump\t// in\n    tag_52:\n      pop\n        /* \"packages/contracts/src/mocks/proxy/UUPSLegacyUpgradeable.sol\":1486:1611  if (data.length > 0 || forceCall) {... */\n    tag_51:\n        /* \"packages/contracts/src/mocks/proxy/UUPSLegacyUpgradeable.sol\":527:593  0x4910fdfa16fed3260ed0e7147f7cc6da11a60208b5b9406d12a635614ffd9143 */\n      0x4910fdfa16fed3260ed0e7147f7cc6da11a60208b5b9406d12a635614ffd9143\n        /* \"packages/contracts/src/mocks/proxy/UUPSLegacyUpgradeable.sol\":1814:1835  rollbackTesting.value */\n      dup1\n      sload\n      0xff\n      and\n        /* \"packages/contracts/src/mocks/proxy/UUPSLegacyUpgradeable.sol\":1809:2482  if (!rollbackTesting.value) {... */\n      tag_64\n      jumpi\n        /* \"packages/contracts/src/mocks/proxy/UUPSLegacyUpgradeable.sol\":1929:1957  rollbackTesting.value = true */\n      dup1\n      sload\n      not(0xff)\n      and\n        /* \"packages/contracts/src/mocks/proxy/UUPSLegacyUpgradeable.sol\":1953:1957  true */\n      0x01\n        /* \"packages/contracts/src/mocks/proxy/UUPSLegacyUpgradeable.sol\":1929:1957  rollbackTesting.value = true */\n      or\n      dup2\n      sstore\n        /* \"packages/contracts/src/mocks/proxy/UUPSLegacyUpgradeable.sol\":2066:2130  abi.encodeWithSignature(\"upgradeTo(address)\", oldImplementation) */\n      mload(0x40)\n      sub(shl(0xa0, 0x01), 0x01)\n        /* \"#utility.yul\":2468:2500   */\n      dup4\n      and\n        /* \"packages/contracts/src/mocks/proxy/UUPSLegacyUpgradeable.sol\":2066:2130  abi.encodeWithSignature(\"upgradeTo(address)\", oldImplementation) */\n      0x24\n      dup3\n      add\n        /* \"#utility.yul\":2450:2501   */\n      mstore\n        /* \"packages/contracts/src/mocks/proxy/UUPSLegacyUpgradeable.sol\":1972:2145  AddressUpgradeable.functionDelegateCall(... */\n      tag_57\n      swap1\n        /* \"packages/contracts/src/mocks/proxy/UUPSLegacyUpgradeable.sol\":2030:2047  newImplementation */\n      dup7\n      swap1\n        /* \"#utility.yul\":2423:2441   */\n      0x44\n      add\n        /* \"packages/contracts/src/mocks/proxy/UUPSLegacyUpgradeable.sol\":2066:2130  abi.encodeWithSignature(\"upgradeTo(address)\", oldImplementation) */\n      0x40\n      dup1\n      mload\n      not(0x1f)\n      dup2\n      dup5\n      sub\n      add\n      dup2\n      mstore\n      swap2\n      swap1\n      mstore\n      0x20\n      dup2\n      add\n      dup1\n      mload\n      sub(shl(0xe0, 0x01), 0x01)\n      and\n      shl(0xe1, 0x1b2ce7f3)\n      or\n      swap1\n      mstore\n        /* \"packages/contracts/src/mocks/proxy/UUPSLegacyUpgradeable.sol\":1972:2011  AddressUpgradeable.functionDelegateCall */\n      tag_53\n        /* \"packages/contracts/src/mocks/proxy/UUPSLegacyUpgradeable.sol\":1972:2145  AddressUpgradeable.functionDelegateCall(... */\n      jump\t// in\n    tag_57:\n      pop\n        /* \"packages/contracts/src/mocks/proxy/UUPSLegacyUpgradeable.sol\":2160:2189  rollbackTesting.value = false */\n      dup1\n      sload\n      not(0xff)\n      and\n      dup2\n      sstore\n      0x00\n      dup1\n      mload\n      0x20\n      data_75b20eef8615de99c108b05f0dbda081c91897128caa336d75dffb97c4132b4d\n      dup4\n      codecopy\n      dup2\n      mload\n      swap2\n      mstore\n        /* \"packages/contracts/src/proxy/ERC1967/ERC1967UpgradeUpgradeable.sol\":1574:1639  StorageSlotUpgradeable.getAddressSlot(_IMPLEMENTATION_SLOT).value */\n      sload\n      sub(shl(0xa0, 0x01), 0x01)\n        /* \"packages/contracts/src/mocks/proxy/UUPSLegacyUpgradeable.sol\":2257:2298  oldImplementation == _getImplementation() */\n      dup4\n      dup2\n      and\n        /* \"packages/contracts/src/proxy/ERC1967/ERC1967UpgradeUpgradeable.sol\":1574:1639  StorageSlotUpgradeable.getAddressSlot(_IMPLEMENTATION_SLOT).value */\n      swap2\n      and\n        /* \"packages/contracts/src/mocks/proxy/UUPSLegacyUpgradeable.sol\":2257:2298  oldImplementation == _getImplementation() */\n      eq\n        /* \"packages/contracts/src/mocks/proxy/UUPSLegacyUpgradeable.sol\":2249:2350  require(oldImplementation == _getImplementation(), \"ERC1967Upgrade: upgrade breaks further upgrades\") */\n      tag_61\n      jumpi\n      mload(0x40)\n      shl(0xe5, 0x461bcd)\n      dup2\n      mstore\n        /* \"#utility.yul\":2714:2716   */\n      0x20\n        /* \"packages/contracts/src/mocks/proxy/UUPSLegacyUpgradeable.sol\":2249:2350  require(oldImplementation == _getImplementation(), \"ERC1967Upgrade: upgrade breaks further upgrades\") */\n      0x04\n      dup3\n      add\n        /* \"#utility.yul\":2696:2717   */\n      mstore\n        /* \"#utility.yul\":2753:2755   */\n      0x2f\n        /* \"#utility.yul\":2733:2751   */\n      0x24\n      dup3\n      add\n        /* \"#utility.yul\":2726:2756   */\n      mstore\n        /* \"#utility.yul\":2792:2826   */\n      0x45524331393637557067726164653a207570677261646520627265616b732066\n        /* \"#utility.yul\":2772:2790   */\n      0x44\n      dup3\n      add\n        /* \"#utility.yul\":2765:2827   */\n      mstore\n      shl(0x88, 0x757274686572207570677261646573)\n        /* \"#utility.yul\":2843:2861   */\n      0x64\n      dup3\n      add\n        /* \"#utility.yul\":2836:2881   */\n      mstore\n        /* \"#utility.yul\":2898:2917   */\n      0x84\n      add\n        /* \"packages/contracts/src/mocks/proxy/UUPSLegacyUpgradeable.sol\":2249:2350  require(oldImplementation == _getImplementation(), \"ERC1967Upgrade: upgrade breaks further upgrades\") */\n      tag_36\n        /* \"#utility.yul\":2512:2923   */\n      jump\n        /* \"packages/contracts/src/mocks/proxy/UUPSLegacyUpgradeable.sol\":2249:2350  require(oldImplementation == _getImplementation(), \"ERC1967Upgrade: upgrade breaks further upgrades\") */\n    tag_61:\n        /* \"packages/contracts/src/mocks/proxy/UUPSLegacyUpgradeable.sol\":2441:2470  _upgradeTo(newImplementation) */\n      tag_64\n        /* \"packages/contracts/src/mocks/proxy/UUPSLegacyUpgradeable.sol\":2452:2469  newImplementation */\n      dup6\n        /* \"packages/contracts/src/mocks/proxy/UUPSLegacyUpgradeable.sol\":2441:2451  _upgradeTo */\n      tag_65\n        /* \"packages/contracts/src/mocks/proxy/UUPSLegacyUpgradeable.sol\":2441:2470  _upgradeTo(newImplementation) */\n      jump\t// in\n    tag_64:\n        /* \"packages/contracts/src/mocks/proxy/UUPSLegacyUpgradeable.sol\":1322:2489  {... */\n      pop\n      pop\n        /* \"packages/contracts/src/mocks/proxy/UUPSLegacyUpgradeable.sol\":1210:2489  function _upgradeToAndCallSecureLegacyV1(address newImplementation, bytes memory data, bool forceCall) internal {... */\n      pop\n      pop\n      pop\n      jump\t// out\n        /* \"packages/contracts/src/mocks/proxy/UUPSLegacyUpgradeable.sol\":917:1202  function __setImplementation(address newImplementation) private {... */\n    tag_49:\n      sub(shl(0xa0, 0x01), 0x01)\n        /* \"packages/contracts/src/utils/AddressUpgradeable.sol\":1757:1776  account.code.length */\n      dup2\n      and\n      extcodesize\n        /* \"packages/contracts/src/mocks/proxy/UUPSLegacyUpgradeable.sol\":992:1098  require(AddressUpgradeable.isContract(newImplementation), \"ERC1967: new implementation is not a contract\") */\n      tag_74\n      jumpi\n      mload(0x40)\n      shl(0xe5, 0x461bcd)\n      dup2\n      mstore\n        /* \"#utility.yul\":3130:3132   */\n      0x20\n        /* \"packages/contracts/src/mocks/proxy/UUPSLegacyUpgradeable.sol\":992:1098  require(AddressUpgradeable.isContract(newImplementation), \"ERC1967: new implementation is not a contract\") */\n      0x04\n      dup3\n      add\n        /* \"#utility.yul\":3112:3133   */\n      mstore\n        /* \"#utility.yul\":3169:3171   */\n      0x2d\n        /* \"#utility.yul\":3149:3167   */\n      0x24\n      dup3\n      add\n        /* \"#utility.yul\":3142:3172   */\n      mstore\n        /* \"#utility.yul\":3208:3242   */\n      0x455243313936373a206e657720696d706c656d656e746174696f6e206973206e\n        /* \"#utility.yul\":3188:3206   */\n      0x44\n      dup3\n      add\n        /* \"#utility.yul\":3181:3243   */\n      mstore\n      shl(0x9a, 0x1bdd08184818dbdb9d1c9858dd)\n        /* \"#utility.yul\":3259:3277   */\n      0x64\n      dup3\n      add\n        /* \"#utility.yul\":3252:3295   */\n      mstore\n        /* \"#utility.yul\":3312:3331   */\n      0x84\n      add\n        /* \"packages/contracts/src/mocks/proxy/UUPSLegacyUpgradeable.sol\":992:1098  require(AddressUpgradeable.isContract(newImplementation), \"ERC1967: new implementation is not a contract\") */\n      tag_36\n        /* \"#utility.yul\":2928:3337   */\n      jump\n        /* \"packages/contracts/src/mocks/proxy/UUPSLegacyUpgradeable.sol\":992:1098  require(AddressUpgradeable.isContract(newImplementation), \"ERC1967: new implementation is not a contract\") */\n    tag_74:\n      0x00\n      dup1\n      mload\n      0x20\n      data_75b20eef8615de99c108b05f0dbda081c91897128caa336d75dffb97c4132b4d\n      dup4\n      codecopy\n      dup2\n      mload\n      swap2\n      mstore\n        /* \"packages/contracts/src/mocks/proxy/UUPSLegacyUpgradeable.sol\":1109:1194  StorageSlotUpgradeable.getAddressSlot(_IMPLEMENTATION_SLOT).value = newImplementation */\n      dup1\n      sload\n      not(sub(shl(0xa0, 0x01), 0x01))\n      and\n      sub(shl(0xa0, 0x01), 0x01)\n      swap3\n      swap1\n      swap3\n      and\n      swap2\n      swap1\n      swap2\n      or\n      swap1\n      sstore\n        /* \"packages/contracts/src/mocks/proxy/UUPSLegacyUpgradeable.sol\":917:1202  function __setImplementation(address newImplementation) private {... */\n      jump\t// out\n        /* \"packages/contracts/src/utils/AddressUpgradeable.sol\":6854:7054  function functionDelegateCall(address target, bytes memory data) internal returns (bytes memory) {... */\n    tag_53:\n        /* \"packages/contracts/src/utils/AddressUpgradeable.sol\":6937:6949  bytes memory */\n      0x60\n        /* \"packages/contracts/src/utils/AddressUpgradeable.sol\":6969:7046  functionDelegateCall(target, data, \"Address: low-level delegate call failed\") */\n      tag_79\n        /* \"packages/contracts/src/utils/AddressUpgradeable.sol\":6990:6996  target */\n      dup4\n        /* \"packages/contracts/src/utils/AddressUpgradeable.sol\":6998:7002  data */\n      dup4\n        /* \"packages/contracts/src/utils/AddressUpgradeable.sol\":6969:7046  functionDelegateCall(target, data, \"Address: low-level delegate call failed\") */\n      mload(0x40)\n      dup1\n      0x60\n      add\n      0x40\n      mstore\n      dup1\n      0x27\n      dup2\n      mstore\n      0x20\n      add\n      data_9fdcd12e4b726339b32a442b0a448365d5d85c96b2d2cff917b4f66c63110398\n      0x27\n      swap2\n      codecopy\n        /* \"packages/contracts/src/utils/AddressUpgradeable.sol\":6969:6989  functionDelegateCall */\n      tag_80\n        /* \"packages/contracts/src/utils/AddressUpgradeable.sol\":6969:7046  functionDelegateCall(target, data, \"Address: low-level delegate call failed\") */\n      jump\t// in\n    tag_79:\n        /* \"packages/contracts/src/utils/AddressUpgradeable.sol\":6962:7046  return functionDelegateCall(target, data, \"Address: low-level delegate call failed\") */\n      swap4\n        /* \"packages/contracts/src/utils/AddressUpgradeable.sol\":6854:7054  function functionDelegateCall(address target, bytes memory data) internal returns (bytes memory) {... */\n      swap3\n      pop\n      pop\n      pop\n      jump\t// out\n        /* \"packages/contracts/src/proxy/ERC1967/ERC1967UpgradeUpgradeable.sol\":2140:2295  function _upgradeTo(address newImplementation) internal {... */\n    tag_65:\n        /* \"packages/contracts/src/proxy/ERC1967/ERC1967UpgradeUpgradeable.sol\":2207:2244  _setImplementation(newImplementation) */\n      tag_83\n        /* \"packages/contracts/src/proxy/ERC1967/ERC1967UpgradeUpgradeable.sol\":2226:2243  newImplementation */\n      dup2\n        /* \"packages/contracts/src/proxy/ERC1967/ERC1967UpgradeUpgradeable.sol\":2207:2225  _setImplementation */\n      tag_49\n        /* \"packages/contracts/src/proxy/ERC1967/ERC1967UpgradeUpgradeable.sol\":2207:2244  _setImplementation(newImplementation) */\n      jump\t// in\n    tag_83:\n        /* \"packages/contracts/src/proxy/ERC1967/ERC1967UpgradeUpgradeable.sol\":2260:2287  Upgraded(newImplementation) */\n      mload(0x40)\n      sub(shl(0xa0, 0x01), 0x01)\n      dup3\n      and\n      swap1\n      0xbc7cd75a20ee27fd9adebab32041f755214dbc6bffa90cc0225b39da2e5c2d3b\n      swap1\n      0x00\n      swap1\n      log2\n        /* \"packages/contracts/src/proxy/ERC1967/ERC1967UpgradeUpgradeable.sol\":2140:2295  function _upgradeTo(address newImplementation) internal {... */\n      pop\n      jump\t// out\n        /* \"packages/contracts/src/utils/AddressUpgradeable.sol\":7248:7580  function functionDelegateCall(... */\n    tag_80:\n        /* \"packages/contracts/src/utils/AddressUpgradeable.sol\":7393:7405  bytes memory */\n      0x60\n        /* \"packages/contracts/src/utils/AddressUpgradeable.sol\":7419:7431  bool success */\n      0x00\n        /* \"packages/contracts/src/utils/AddressUpgradeable.sol\":7433:7456  bytes memory returndata */\n      dup1\n        /* \"packages/contracts/src/utils/AddressUpgradeable.sol\":7460:7466  target */\n      dup6\n      sub(shl(0xa0, 0x01), 0x01)\n        /* \"packages/contracts/src/utils/AddressUpgradeable.sol\":7460:7479  target.delegatecall */\n      and\n        /* \"packages/contracts/src/utils/AddressUpgradeable.sol\":7480:7484  data */\n      dup6\n        /* \"packages/contracts/src/utils/AddressUpgradeable.sol\":7460:7485  target.delegatecall(data) */\n      mload(0x40)\n      tag_88\n      swap2\n      swap1\n      tag_89\n      jump\t// in\n    tag_88:\n      0x00\n      mload(0x40)\n      dup1\n      dup4\n      sub\n      dup2\n      dup6\n      gas\n      delegatecall\n      swap2\n      pop\n      pop\n      returndatasize\n      dup1\n      0x00\n      dup2\n      eq\n      tag_92\n      jumpi\n      mload(0x40)\n      swap2\n      pop\n      and(add(returndatasize, 0x3f), not(0x1f))\n      dup3\n      add\n      0x40\n      mstore\n      returndatasize\n      dup3\n      mstore\n      returndatasize\n      0x00\n      0x20\n      dup5\n      add\n      returndatacopy\n      jump(tag_91)\n    tag_92:\n      0x60\n      swap2\n      pop\n    tag_91:\n      pop\n        /* \"packages/contracts/src/utils/AddressUpgradeable.sol\":7418:7485  (bool success, bytes memory returndata) = target.delegatecall(data) */\n      swap2\n      pop\n      swap2\n      pop\n        /* \"packages/contracts/src/utils/AddressUpgradeable.sol\":7503:7572  verifyCallResultFromTarget(target, success, returndata, errorMessage) */\n      tag_93\n        /* \"packages/contracts/src/utils/AddressUpgradeable.sol\":7530:7536  target */\n      dup7\n        /* \"packages/contracts/src/utils/AddressUpgradeable.sol\":7538:7545  success */\n      dup4\n        /* \"packages/contracts/src/utils/AddressUpgradeable.sol\":7547:7557  returndata */\n      dup4\n        /* \"packages/contracts/src/utils/AddressUpgradeable.sol\":7559:7571  errorMessage */\n      dup8\n        /* \"packages/contracts/src/utils/AddressUpgradeable.sol\":7503:7529  verifyCallResultFromTarget */\n      tag_94\n        /* \"packages/contracts/src/utils/AddressUpgradeable.sol\":7503:7572  verifyCallResultFromTarget(target, success, returndata, errorMessage) */\n      jump\t// in\n    tag_93:\n        /* \"packages/contracts/src/utils/AddressUpgradeable.sol\":7496:7572  return verifyCallResultFromTarget(target, success, returndata, errorMessage) */\n      swap7\n        /* \"packages/contracts/src/utils/AddressUpgradeable.sol\":7248:7580  function functionDelegateCall(... */\n      swap6\n      pop\n      pop\n      pop\n      pop\n      pop\n      pop\n      jump\t// out\n        /* \"packages/contracts/src/utils/AddressUpgradeable.sol\":7876:8520  function verifyCallResultFromTarget(... */\n    tag_94:\n        /* \"packages/contracts/src/utils/AddressUpgradeable.sol\":8061:8073  bytes memory */\n      0x60\n        /* \"packages/contracts/src/utils/AddressUpgradeable.sol\":8090:8097  success */\n      dup4\n        /* \"packages/contracts/src/utils/AddressUpgradeable.sol\":8086:8513  if (success) {... */\n      iszero\n      tag_101\n      jumpi\n        /* \"packages/contracts/src/utils/AddressUpgradeable.sol\":8118:8128  returndata */\n      dup3\n        /* \"packages/contracts/src/utils/AddressUpgradeable.sol\":8118:8135  returndata.length */\n      mload\n        /* \"packages/contracts/src/utils/AddressUpgradeable.sol\":8139:8140  0 */\n      0x00\n        /* \"packages/contracts/src/utils/AddressUpgradeable.sol\":8118:8140  returndata.length == 0 */\n      sub\n        /* \"packages/contracts/src/utils/AddressUpgradeable.sol\":8114:8404  if (returndata.length == 0) {... */\n      tag_104\n      jumpi\n      sub(shl(0xa0, 0x01), 0x01)\n        /* \"packages/contracts/src/utils/AddressUpgradeable.sol\":1757:1776  account.code.length */\n      dup6\n      and\n      extcodesize\n        /* \"packages/contracts/src/utils/AddressUpgradeable.sol\":8328:8388  require(isContract(target), \"Address: call to non-contract\") */\n      tag_104\n      jumpi\n      mload(0x40)\n      shl(0xe5, 0x461bcd)\n      dup2\n      mstore\n        /* \"#utility.yul\":4091:4093   */\n      0x20\n        /* \"packages/contracts/src/utils/AddressUpgradeable.sol\":8328:8388  require(isContract(target), \"Address: call to non-contract\") */\n      0x04\n      dup3\n      add\n        /* \"#utility.yul\":4073:4094   */\n      mstore\n        /* \"#utility.yul\":4130:4132   */\n      0x1d\n        /* \"#utility.yul\":4110:4128   */\n      0x24\n      dup3\n      add\n        /* \"#utility.yul\":4103:4133   */\n      mstore\n        /* \"#utility.yul\":4169:4200   */\n      0x416464726573733a2063616c6c20746f206e6f6e2d636f6e7472616374000000\n        /* \"#utility.yul\":4149:4167   */\n      0x44\n      dup3\n      add\n        /* \"#utility.yul\":4142:4201   */\n      mstore\n        /* \"#utility.yul\":4218:4236   */\n      0x64\n      add\n        /* \"packages/contracts/src/utils/AddressUpgradeable.sol\":8328:8388  require(isContract(target), \"Address: call to non-contract\") */\n      tag_36\n        /* \"#utility.yul\":3889:4242   */\n      jump\n        /* \"packages/contracts/src/utils/AddressUpgradeable.sol\":8328:8388  require(isContract(target), \"Address: call to non-contract\") */\n    tag_104:\n      pop\n        /* \"packages/contracts/src/utils/AddressUpgradeable.sol\":8425:8435  returndata */\n      dup2\n        /* \"packages/contracts/src/utils/AddressUpgradeable.sol\":8418:8435  return returndata */\n      jump(tag_108)\n        /* \"packages/contracts/src/utils/AddressUpgradeable.sol\":8086:8513  if (success) {... */\n    tag_101:\n        /* \"packages/contracts/src/utils/AddressUpgradeable.sol\":8468:8501  _revert(returndata, errorMessage) */\n      tag_108\n        /* \"packages/contracts/src/utils/AddressUpgradeable.sol\":8476:8486  returndata */\n      dup4\n        /* \"packages/contracts/src/utils/AddressUpgradeable.sol\":8488:8500  errorMessage */\n      dup4\n        /* \"packages/contracts/src/utils/AddressUpgradeable.sol\":8468:8475  _revert */\n      tag_109\n        /* \"packages/contracts/src/utils/AddressUpgradeable.sol\":8468:8501  _revert(returndata, errorMessage) */\n      jump\t// in\n    tag_108:\n        /* \"packages/contracts/src/utils/AddressUpgradeable.sol\":7876:8520  function verifyCallResultFromTarget(... */\n      swap5\n      swap4\n      pop\n      pop\n      pop\n      pop\n      jump\t// out\n        /* \"packages/contracts/src/utils/AddressUpgradeable.sol\":9062:9614  function _revert(bytes memory returndata, string memory errorMessage) private pure {... */\n    tag_109:\n        /* \"packages/contracts/src/utils/AddressUpgradeable.sol\":9223:9240  returndata.length */\n      dup2\n      mload\n        /* \"packages/contracts/src/utils/AddressUpgradeable.sol\":9223:9244  returndata.length > 0 */\n      iszero\n        /* \"packages/contracts/src/utils/AddressUpgradeable.sol\":9219:9607  if (returndata.length > 0) {... */\n      tag_111\n      jumpi\n        /* \"packages/contracts/src/utils/AddressUpgradeable.sol\":9455:9465  returndata */\n      dup2\n        /* \"packages/contracts/src/utils/AddressUpgradeable.sol\":9449:9466  mload(returndata) */\n      mload\n        /* \"packages/contracts/src/utils/AddressUpgradeable.sol\":9512:9527  returndata_size */\n      dup1\n        /* \"packages/contracts/src/utils/AddressUpgradeable.sol\":9499:9509  returndata */\n      dup4\n        /* \"packages/contracts/src/utils/AddressUpgradeable.sol\":9495:9497  32 */\n      0x20\n        /* \"packages/contracts/src/utils/AddressUpgradeable.sol\":9491:9510  add(32, returndata) */\n      add\n        /* \"packages/contracts/src/utils/AddressUpgradeable.sol\":9484:9528  revert(add(32, returndata), returndata_size) */\n      revert\n        /* \"packages/contracts/src/utils/AddressUpgradeable.sol\":9219:9607  if (returndata.length > 0) {... */\n    tag_111:\n        /* \"packages/contracts/src/utils/AddressUpgradeable.sol\":9582:9594  errorMessage */\n      dup1\n        /* \"packages/contracts/src/utils/AddressUpgradeable.sol\":9575:9595  revert(errorMessage) */\n      mload(0x40)\n      shl(0xe5, 0x461bcd)\n      dup2\n      mstore\n      0x04\n      add\n      tag_36\n      swap2\n      swap1\n      tag_114\n      jump\t// in\n        /* \"#utility.yul\":14:187   */\n    tag_115:\n        /* \"#utility.yul\":82:102   */\n      dup1\n      calldataload\n      sub(shl(0xa0, 0x01), 0x01)\n        /* \"#utility.yul\":131:162   */\n      dup2\n      and\n        /* \"#utility.yul\":121:163   */\n      dup2\n      eq\n        /* \"#utility.yul\":111:181   */\n      tag_120\n      jumpi\n        /* \"#utility.yul\":177:178   */\n      0x00\n        /* \"#utility.yul\":174:175   */\n      dup1\n        /* \"#utility.yul\":167:179   */\n      revert\n        /* \"#utility.yul\":111:181   */\n    tag_120:\n        /* \"#utility.yul\":14:187   */\n      swap2\n      swap1\n      pop\n      jump\t// out\n        /* \"#utility.yul\":192:378   */\n    tag_10:\n        /* \"#utility.yul\":251:257   */\n      0x00\n        /* \"#utility.yul\":304:306   */\n      0x20\n        /* \"#utility.yul\":292:301   */\n      dup3\n        /* \"#utility.yul\":283:290   */\n      dup5\n        /* \"#utility.yul\":279:302   */\n      sub\n        /* \"#utility.yul\":275:307   */\n      slt\n        /* \"#utility.yul\":272:324   */\n      iszero\n      tag_122\n      jumpi\n        /* \"#utility.yul\":320:321   */\n      0x00\n        /* \"#utility.yul\":317:318   */\n      dup1\n        /* \"#utility.yul\":310:322   */\n      revert\n        /* \"#utility.yul\":272:324   */\n    tag_122:\n        /* \"#utility.yul\":343:372   */\n      tag_79\n        /* \"#utility.yul\":362:371   */\n      dup3\n        /* \"#utility.yul\":343:372   */\n      tag_115\n      jump\t// in\n        /* \"#utility.yul\":383:510   */\n    tag_116:\n        /* \"#utility.yul\":444:454   */\n      0x4e487b71\n        /* \"#utility.yul\":439:442   */\n      0xe0\n        /* \"#utility.yul\":435:455   */\n      shl\n        /* \"#utility.yul\":432:433   */\n      0x00\n        /* \"#utility.yul\":425:456   */\n      mstore\n        /* \"#utility.yul\":475:479   */\n      0x41\n        /* \"#utility.yul\":472:473   */\n      0x04\n        /* \"#utility.yul\":465:480   */\n      mstore\n        /* \"#utility.yul\":499:503   */\n      0x24\n        /* \"#utility.yul\":496:497   */\n      0x00\n        /* \"#utility.yul\":489:504   */\n      revert\n        /* \"#utility.yul\":515:1510   */\n    tag_14:\n        /* \"#utility.yul\":592:598   */\n      0x00\n        /* \"#utility.yul\":600:606   */\n      dup1\n        /* \"#utility.yul\":653:655   */\n      0x40\n        /* \"#utility.yul\":641:650   */\n      dup4\n        /* \"#utility.yul\":632:639   */\n      dup6\n        /* \"#utility.yul\":628:651   */\n      sub\n        /* \"#utility.yul\":624:656   */\n      slt\n        /* \"#utility.yul\":621:673   */\n      iszero\n      tag_126\n      jumpi\n        /* \"#utility.yul\":669:670   */\n      0x00\n        /* \"#utility.yul\":666:667   */\n      dup1\n        /* \"#utility.yul\":659:671   */\n      revert\n        /* \"#utility.yul\":621:673   */\n    tag_126:\n        /* \"#utility.yul\":692:721   */\n      tag_127\n        /* \"#utility.yul\":711:720   */\n      dup4\n        /* \"#utility.yul\":692:721   */\n      tag_115\n      jump\t// in\n    tag_127:\n        /* \"#utility.yul\":682:721   */\n      swap2\n      pop\n        /* \"#utility.yul\":772:774   */\n      0x20\n        /* \"#utility.yul\":761:770   */\n      dup4\n        /* \"#utility.yul\":757:775   */\n      add\n        /* \"#utility.yul\":744:776   */\n      calldataload\n        /* \"#utility.yul\":795:813   */\n      0xffffffffffffffff\n        /* \"#utility.yul\":836:838   */\n      dup1\n        /* \"#utility.yul\":828:834   */\n      dup3\n        /* \"#utility.yul\":825:839   */\n      gt\n        /* \"#utility.yul\":822:856   */\n      iszero\n      tag_128\n      jumpi\n        /* \"#utility.yul\":852:853   */\n      0x00\n        /* \"#utility.yul\":849:850   */\n      dup1\n        /* \"#utility.yul\":842:854   */\n      revert\n        /* \"#utility.yul\":822:856   */\n    tag_128:\n        /* \"#utility.yul\":890:896   */\n      dup2\n        /* \"#utility.yul\":879:888   */\n      dup6\n        /* \"#utility.yul\":875:897   */\n      add\n        /* \"#utility.yul\":865:897   */\n      swap2\n      pop\n        /* \"#utility.yul\":935:942   */\n      dup6\n        /* \"#utility.yul\":928:932   */\n      0x1f\n        /* \"#utility.yul\":924:926   */\n      dup4\n        /* \"#utility.yul\":920:933   */\n      add\n        /* \"#utility.yul\":916:943   */\n      slt\n        /* \"#utility.yul\":906:961   */\n      tag_129\n      jumpi\n        /* \"#utility.yul\":957:958   */\n      0x00\n        /* \"#utility.yul\":954:955   */\n      dup1\n        /* \"#utility.yul\":947:959   */\n      revert\n        /* \"#utility.yul\":906:961   */\n    tag_129:\n        /* \"#utility.yul\":993:995   */\n      dup2\n        /* \"#utility.yul\":980:996   */\n      calldataload\n        /* \"#utility.yul\":1015:1017   */\n      dup2\n        /* \"#utility.yul\":1011:1013   */\n      dup2\n        /* \"#utility.yul\":1008:1018   */\n      gt\n        /* \"#utility.yul\":1005:1041   */\n      iszero\n      tag_131\n      jumpi\n        /* \"#utility.yul\":1021:1039   */\n      tag_131\n      tag_116\n      jump\t// in\n    tag_131:\n        /* \"#utility.yul\":1096:1098   */\n      0x40\n        /* \"#utility.yul\":1090:1099   */\n      mload\n        /* \"#utility.yul\":1064:1066   */\n      0x1f\n        /* \"#utility.yul\":1150:1163   */\n      dup3\n      add\n      not(0x1f)\n        /* \"#utility.yul\":1146:1168   */\n      swap1\n      dup2\n      and\n        /* \"#utility.yul\":1170:1172   */\n      0x3f\n        /* \"#utility.yul\":1142:1173   */\n      add\n        /* \"#utility.yul\":1138:1178   */\n      and\n        /* \"#utility.yul\":1126:1179   */\n      dup2\n      add\n      swap1\n        /* \"#utility.yul\":1194:1212   */\n      dup4\n      dup3\n      gt\n        /* \"#utility.yul\":1214:1236   */\n      dup2\n      dup4\n      lt\n        /* \"#utility.yul\":1191:1237   */\n      or\n        /* \"#utility.yul\":1188:1260   */\n      iszero\n      tag_133\n      jumpi\n        /* \"#utility.yul\":1240:1258   */\n      tag_133\n      tag_116\n      jump\t// in\n    tag_133:\n        /* \"#utility.yul\":1280:1290   */\n      dup2\n        /* \"#utility.yul\":1276:1278   */\n      0x40\n        /* \"#utility.yul\":1269:1291   */\n      mstore\n        /* \"#utility.yul\":1315:1317   */\n      dup3\n        /* \"#utility.yul\":1307:1313   */\n      dup2\n        /* \"#utility.yul\":1300:1318   */\n      mstore\n        /* \"#utility.yul\":1355:1362   */\n      dup9\n        /* \"#utility.yul\":1350:1352   */\n      0x20\n        /* \"#utility.yul\":1345:1347   */\n      dup5\n        /* \"#utility.yul\":1341:1343   */\n      dup8\n        /* \"#utility.yul\":1337:1348   */\n      add\n        /* \"#utility.yul\":1333:1353   */\n      add\n        /* \"#utility.yul\":1330:1363   */\n      gt\n        /* \"#utility.yul\":1327:1380   */\n      iszero\n      tag_134\n      jumpi\n        /* \"#utility.yul\":1376:1377   */\n      0x00\n        /* \"#utility.yul\":1373:1374   */\n      dup1\n        /* \"#utility.yul\":1366:1378   */\n      revert\n        /* \"#utility.yul\":1327:1380   */\n    tag_134:\n        /* \"#utility.yul\":1432:1434   */\n      dup3\n        /* \"#utility.yul\":1427:1429   */\n      0x20\n        /* \"#utility.yul\":1423:1425   */\n      dup7\n        /* \"#utility.yul\":1419:1430   */\n      add\n        /* \"#utility.yul\":1414:1416   */\n      0x20\n        /* \"#utility.yul\":1406:1412   */\n      dup4\n        /* \"#utility.yul\":1402:1417   */\n      add\n        /* \"#utility.yul\":1389:1435   */\n      calldatacopy\n        /* \"#utility.yul\":1477:1478   */\n      0x00\n        /* \"#utility.yul\":1472:1474   */\n      0x20\n        /* \"#utility.yul\":1467:1469   */\n      dup5\n        /* \"#utility.yul\":1459:1465   */\n      dup4\n        /* \"#utility.yul\":1455:1470   */\n      add\n        /* \"#utility.yul\":1451:1475   */\n      add\n        /* \"#utility.yul\":1444:1479   */\n      mstore\n        /* \"#utility.yul\":1498:1504   */\n      dup1\n        /* \"#utility.yul\":1488:1504   */\n      swap6\n      pop\n      pop\n      pop\n      pop\n      pop\n      pop\n        /* \"#utility.yul\":515:1510   */\n      swap3\n      pop\n      swap3\n      swap1\n      pop\n      jump\t// out\n        /* \"#utility.yul\":3342:3592   */\n    tag_117:\n        /* \"#utility.yul\":3427:3428   */\n      0x00\n        /* \"#utility.yul\":3437:3550   */\n    tag_142:\n        /* \"#utility.yul\":3451:3457   */\n      dup4\n        /* \"#utility.yul\":3448:3449   */\n      dup2\n        /* \"#utility.yul\":3445:3458   */\n      lt\n        /* \"#utility.yul\":3437:3550   */\n      iszero\n      tag_144\n      jumpi\n        /* \"#utility.yul\":3527:3538   */\n      dup2\n      dup2\n      add\n        /* \"#utility.yul\":3521:3539   */\n      mload\n        /* \"#utility.yul\":3508:3519   */\n      dup4\n      dup3\n      add\n        /* \"#utility.yul\":3501:3540   */\n      mstore\n        /* \"#utility.yul\":3473:3475   */\n      0x20\n        /* \"#utility.yul\":3466:3476   */\n      add\n        /* \"#utility.yul\":3437:3550   */\n      jump(tag_142)\n    tag_144:\n      pop\n      pop\n        /* \"#utility.yul\":3584:3585   */\n      0x00\n        /* \"#utility.yul\":3566:3582   */\n      swap2\n      add\n        /* \"#utility.yul\":3559:3586   */\n      mstore\n        /* \"#utility.yul\":3342:3592   */\n      jump\t// out\n        /* \"#utility.yul\":3597:3884   */\n    tag_89:\n        /* \"#utility.yul\":3726:3729   */\n      0x00\n        /* \"#utility.yul\":3764:3770   */\n      dup3\n        /* \"#utility.yul\":3758:3771   */\n      mload\n        /* \"#utility.yul\":3780:3846   */\n      tag_146\n        /* \"#utility.yul\":3839:3845   */\n      dup2\n        /* \"#utility.yul\":3834:3837   */\n      dup5\n        /* \"#utility.yul\":3827:3831   */\n      0x20\n        /* \"#utility.yul\":3819:3825   */\n      dup8\n        /* \"#utility.yul\":3815:3832   */\n      add\n        /* \"#utility.yul\":3780:3846   */\n      tag_117\n      jump\t// in\n    tag_146:\n        /* \"#utility.yul\":3862:3878   */\n      swap2\n      swap1\n      swap2\n      add\n      swap3\n        /* \"#utility.yul\":3597:3884   */\n      swap2\n      pop\n      pop\n      jump\t// out\n        /* \"#utility.yul\":4247:4643   */\n    tag_114:\n        /* \"#utility.yul\":4396:4398   */\n      0x20\n        /* \"#utility.yul\":4385:4394   */\n      dup2\n        /* \"#utility.yul\":4378:4399   */\n      mstore\n        /* \"#utility.yul\":4359:4363   */\n      0x00\n        /* \"#utility.yul\":4428:4434   */\n      dup3\n        /* \"#utility.yul\":4422:4435   */\n      mload\n        /* \"#utility.yul\":4471:4477   */\n      dup1\n        /* \"#utility.yul\":4466:4468   */\n      0x20\n        /* \"#utility.yul\":4455:4464   */\n      dup5\n        /* \"#utility.yul\":4451:4469   */\n      add\n        /* \"#utility.yul\":4444:4478   */\n      mstore\n        /* \"#utility.yul\":4487:4566   */\n      tag_149\n        /* \"#utility.yul\":4559:4565   */\n      dup2\n        /* \"#utility.yul\":4554:4556   */\n      0x40\n        /* \"#utility.yul\":4543:4552   */\n      dup6\n        /* \"#utility.yul\":4539:4557   */\n      add\n        /* \"#utility.yul\":4534:4536   */\n      0x20\n        /* \"#utility.yul\":4526:4532   */\n      dup8\n        /* \"#utility.yul\":4522:4537   */\n      add\n        /* \"#utility.yul\":4487:4566   */\n      tag_117\n      jump\t// in\n    tag_149:\n        /* \"#utility.yul\":4627:4629   */\n      0x1f\n        /* \"#utility.yul\":4606:4621   */\n      add\n      not(0x1f)\n        /* \"#utility.yul\":4602:4631   */\n      and\n        /* \"#utility.yul\":4587:4632   */\n      swap2\n      swap1\n      swap2\n      add\n        /* \"#utility.yul\":4634:4636   */\n      0x40\n        /* \"#utility.yul\":4583:4637   */\n      add\n      swap3\n        /* \"#utility.yul\":4247:4643   */\n      swap2\n      pop\n      pop\n      jump\t// out\n    stop\n    data_75b20eef8615de99c108b05f0dbda081c91897128caa336d75dffb97c4132b4d 360894a13ba1a3210667c828492db98dca3e2076cc3735a920a3ca505d382bbc\n    data_9fdcd12e4b726339b32a442b0a448365d5d85c96b2d2cff917b4f66c63110398 416464726573733a206c6f772d6c6576656c2064656c65676174652063616c6c206661696c6564\n\n    auxdata: 0xa2646970667358221220260cde48365b1accefa39796c08d48b81e9d6976e84db52c41ccec968cd55fd864736f6c63430008110033\n}\n",
				"bytecode": {
					"linkReferences": {},
					"object": "60a06040523060805234801561001457600080fd5b50608051610769610030600039600061011001526107696000f3fe60806040526004361061004a5760003560e01c80633659cfe61461004f5780634f1ef2861461007157806352d1902d146100845780639fa6a6e3146100ab578063d09de08a146100c0575b600080fd5b34801561005b57600080fd5b5061006f61006a366004610586565b6100d5565b005b61006f61007f3660046105b7565b6100f3565b34801561009057600080fd5b50610099610103565b60405190815260200160405180910390f35b3480156100b757600080fd5b506100996101bb565b3480156100cc57600080fd5b5061006f6101cb565b6100f0816040518060200160405280600081525060006101db565b50565b6100ff828260006101db565b5050565b6000306001600160a01b037f000000000000000000000000000000000000000000000000000000000000000016146101a85760405162461bcd60e51b815260206004820152603860248201527f555550535570677261646561626c653a206d757374206e6f742062652063616c60448201527f6c6564207468726f7567682064656c656761746563616c6c000000000000000060648201526084015b60405180910390fd5b506000805160206106ed83398151915290565b60006101c660015490565b905090565b6101d9600180546001019055565b565b60006101fc6000805160206106ed833981519152546001600160a01b031690565b90506102078461033f565b6000835111806102145750815b156102255761022384846103db565b505b7f4910fdfa16fed3260ed0e7147f7cc6da11a60208b5b9406d12a635614ffd9143805460ff1661033857805460ff191660011781556040516001600160a01b03831660248201526102a490869060440160408051601f198184030181529190526020810180516001600160e01b0316631b2ce7f360e11b1790526103db565b50805460ff191681556000805160206106ed833981519152546001600160a01b0383811691161461032f5760405162461bcd60e51b815260206004820152602f60248201527f45524331393637557067726164653a207570677261646520627265616b73206660448201526e75727468657220757067726164657360881b606482015260840161019f565b61033885610407565b5050505050565b6001600160a01b0381163b6103ac5760405162461bcd60e51b815260206004820152602d60248201527f455243313936373a206e657720696d706c656d656e746174696f6e206973206e60448201526c1bdd08184818dbdb9d1c9858dd609a1b606482015260840161019f565b6000805160206106ed83398151915280546001600160a01b0319166001600160a01b0392909216919091179055565b6060610400838360405180606001604052806027815260200161070d60279139610447565b9392505050565b6104108161033f565b6040516001600160a01b038216907fbc7cd75a20ee27fd9adebab32041f755214dbc6bffa90cc0225b39da2e5c2d3b90600090a250565b6060600080856001600160a01b031685604051610464919061069d565b600060405180830381855af49150503d806000811461049f576040519150601f19603f3d011682016040523d82523d6000602084013e6104a4565b606091505b50915091506104b5868383876104bf565b9695505050505050565b6060831561052e578251600003610527576001600160a01b0385163b6105275760405162461bcd60e51b815260206004820152601d60248201527f416464726573733a2063616c6c20746f206e6f6e2d636f6e7472616374000000604482015260640161019f565b5081610538565b6105388383610540565b949350505050565b8151156105505781518083602001fd5b8060405162461bcd60e51b815260040161019f91906106b9565b80356001600160a01b038116811461058157600080fd5b919050565b60006020828403121561059857600080fd5b6104008261056a565b634e487b7160e01b600052604160045260246000fd5b600080604083850312156105ca57600080fd5b6105d38361056a565b9150602083013567ffffffffffffffff808211156105f057600080fd5b818501915085601f83011261060457600080fd5b813581811115610616576106166105a1565b604051601f8201601f19908116603f0116810190838211818310171561063e5761063e6105a1565b8160405282815288602084870101111561065757600080fd5b8260208601602083013760006020848301015280955050505050509250929050565b60005b8381101561069457818101518382015260200161067c565b50506000910152565b600082516106af818460208701610679565b9190910192915050565b60208152600082518060208401526106d8816040850160208701610679565b601f01601f1916919091016040019291505056fe360894a13ba1a3210667c828492db98dca3e2076cc3735a920a3ca505d382bbc416464726573733a206c6f772d6c6576656c2064656c65676174652063616c6c206661696c6564a2646970667358221220260cde48365b1accefa39796c08d48b81e9d6976e84db52c41ccec968cd55fd864736f6c63430008110033",
					"opcodes": "PUSH1 0xA0 PUSH1 0x40 MSTORE ADDRESS PUSH1 0x80 MSTORE CALLVALUE DUP1 ISZERO PUSH2 0x14 JUMPI PUSH1 0x0 DUP1 REVERT JUMPDEST POP PUSH1 0x80 MLOAD PUSH2 0x769 PUSH2 0x30 PUSH1 0x0 CODECOPY PUSH1 0x0 PUSH2 0x110 ADD MSTORE PUSH2 0x769 PUSH1 0x0 RETURN INVALID PUSH1 0x80 PUSH1 0x40 MSTORE PUSH1 0x4 CALLDATASIZE LT PUSH2 0x4A JUMPI PUSH1 0x0 CALLDATALOAD PUSH1 0xE0 SHR DUP1 PUSH4 0x3659CFE6 EQ PUSH2 0x4F JUMPI DUP1 PUSH4 0x4F1EF286 EQ PUSH2 0x71 JUMPI DUP1 PUSH4 0x52D1902D EQ PUSH2 0x84 JUMPI DUP1 PUSH4 0x9FA6A6E3 EQ PUSH2 0xAB JUMPI DUP1 PUSH4 0xD09DE08A EQ PUSH2 0xC0 JUMPI JUMPDEST PUSH1 0x0 DUP1 REVERT JUMPDEST CALLVALUE DUP1 ISZERO PUSH2 0x5B JUMPI PUSH1 0x0 DUP1 REVERT JUMPDEST POP PUSH2 0x6F PUSH2 0x6A CALLDATASIZE PUSH1 0x4 PUSH2 0x586 JUMP JUMPDEST PUSH2 0xD5 JUMP JUMPDEST STOP JUMPDEST PUSH2 0x6F PUSH2 0x7F CALLDATASIZE PUSH1 0x4 PUSH2 0x5B7 JUMP JUMPDEST PUSH2 0xF3 JUMP JUMPDEST CALLVALUE DUP1 ISZERO PUSH2 0x90 JUMPI PUSH1 0x0 DUP1 REVERT JUMPDEST POP PUSH2 0x99 PUSH2 0x103 JUMP JUMPDEST PUSH1 0x40 MLOAD SWAP1 DUP2 MSTORE PUSH1 0x20 ADD PUSH1 0x40 MLOAD DUP1 SWAP2 SUB SWAP1 RETURN JUMPDEST CALLVALUE DUP1 ISZERO PUSH2 0xB7 JUMPI PUSH1 0x0 DUP1 REVERT JUMPDEST POP PUSH2 0x99 PUSH2 0x1BB JUMP JUMPDEST CALLVALUE DUP1 ISZERO PUSH2 0xCC JUMPI PUSH1 0x0 DUP1 REVERT JUMPDEST POP PUSH2 0x6F PUSH2 0x1CB JUMP JUMPDEST PUSH2 0xF0 DUP2 PUSH1 0x40 MLOAD DUP1 PUSH1 0x20 ADD PUSH1 0x40 MSTORE DUP1 PUSH1 0x0 DUP2 MSTORE POP PUSH1 0x0 PUSH2 0x1DB JUMP JUMPDEST POP JUMP JUMPDEST PUSH2 0xFF DUP3 DUP3 PUSH1 0x0 PUSH2 0x1DB JUMP JUMPDEST POP POP JUMP JUMPDEST PUSH1 0x0 ADDRESS PUSH1 0x1 PUSH1 0x1 PUSH1 0xA0 SHL SUB PUSH32 0x0 AND EQ PUSH2 0x1A8 JUMPI PUSH1 0x40 MLOAD PUSH3 0x461BCD PUSH1 0xE5 SHL DUP2 MSTORE PUSH1 0x20 PUSH1 0x4 DUP3 ADD MSTORE PUSH1 0x38 PUSH1 0x24 DUP3 ADD MSTORE PUSH32 0x555550535570677261646561626C653A206D757374206E6F742062652063616C PUSH1 0x44 DUP3 ADD MSTORE PUSH32 0x6C6564207468726F7567682064656C656761746563616C6C0000000000000000 PUSH1 0x64 DUP3 ADD MSTORE PUSH1 0x84 ADD JUMPDEST PUSH1 0x40 MLOAD DUP1 SWAP2 SUB SWAP1 REVERT JUMPDEST POP PUSH1 0x0 DUP1 MLOAD PUSH1 0x20 PUSH2 0x6ED DUP4 CODECOPY DUP2 MLOAD SWAP2 MSTORE SWAP1 JUMP JUMPDEST PUSH1 0x0 PUSH2 0x1C6 PUSH1 0x1 SLOAD SWAP1 JUMP JUMPDEST SWAP1 POP SWAP1 JUMP JUMPDEST PUSH2 0x1D9 PUSH1 0x1 DUP1 SLOAD PUSH1 0x1 ADD SWAP1 SSTORE JUMP JUMPDEST JUMP JUMPDEST PUSH1 0x0 PUSH2 0x1FC PUSH1 0x0 DUP1 MLOAD PUSH1 0x20 PUSH2 0x6ED DUP4 CODECOPY DUP2 MLOAD SWAP2 MSTORE SLOAD PUSH1 0x1 PUSH1 0x1 PUSH1 0xA0 SHL SUB AND SWAP1 JUMP JUMPDEST SWAP1 POP PUSH2 0x207 DUP5 PUSH2 0x33F JUMP JUMPDEST PUSH1 0x0 DUP4 MLOAD GT DUP1 PUSH2 0x214 JUMPI POP DUP2 JUMPDEST ISZERO PUSH2 0x225 JUMPI PUSH2 0x223 DUP5 DUP5 PUSH2 0x3DB JUMP JUMPDEST POP JUMPDEST PUSH32 0x4910FDFA16FED3260ED0E7147F7CC6DA11A60208B5B9406D12A635614FFD9143 DUP1 SLOAD PUSH1 0xFF AND PUSH2 0x338 JUMPI DUP1 SLOAD PUSH1 0xFF NOT AND PUSH1 0x1 OR DUP2 SSTORE PUSH1 0x40 MLOAD PUSH1 0x1 PUSH1 0x1 PUSH1 0xA0 SHL SUB DUP4 AND PUSH1 0x24 DUP3 ADD MSTORE PUSH2 0x2A4 SWAP1 DUP7 SWAP1 PUSH1 0x44 ADD PUSH1 0x40 DUP1 MLOAD PUSH1 0x1F NOT DUP2 DUP5 SUB ADD DUP2 MSTORE SWAP2 SWAP1 MSTORE PUSH1 0x20 DUP2 ADD DUP1 MLOAD PUSH1 0x1 PUSH1 0x1 PUSH1 0xE0 SHL SUB AND PUSH4 0x1B2CE7F3 PUSH1 0xE1 SHL OR SWAP1 MSTORE PUSH2 0x3DB JUMP JUMPDEST POP DUP1 SLOAD PUSH1 0xFF NOT AND DUP2 SSTORE PUSH1 0x0 DUP1 MLOAD PUSH1 0x20 PUSH2 0x6ED DUP4 CODECOPY DUP2 MLOAD SWAP2 MSTORE SLOAD PUSH1 0x1 PUSH1 0x1 PUSH1 0xA0 SHL SUB DUP4 DUP2 AND SWAP2 AND EQ PUSH2 0x32F JUMPI PUSH1 0x40 MLOAD PUSH3 0x461BCD PUSH1 0xE5 SHL DUP2 MSTORE PUSH1 0x20 PUSH1 0x4 DUP3 ADD MSTORE PUSH1 0x2F PUSH1 0x24 DUP3 ADD MSTORE PUSH32 0x45524331393637557067726164653A207570677261646520627265616B732066 PUSH1 0x44 DUP3 ADD MSTORE PUSH15 0x757274686572207570677261646573 PUSH1 0x88 SHL PUSH1 0x64 DUP3 ADD MSTORE PUSH1 0x84 ADD PUSH2 0x19F JUMP JUMPDEST PUSH2 0x338 DUP6 PUSH2 0x407 JUMP JUMPDEST POP POP POP POP POP JUMP JUMPDEST PUSH1 0x1 PUSH1 0x1 PUSH1 0xA0 SHL SUB DUP2 AND EXTCODESIZE PUSH2 0x3AC JUMPI PUSH1 0x40 MLOAD PUSH3 0x461BCD PUSH1 0xE5 SHL DUP2 MSTORE PUSH1 0x20 PUSH1 0x4 DUP3 ADD MSTORE PUSH1 0x2D PUSH1 0x24 DUP3 ADD MSTORE PUSH32 0x455243313936373A206E657720696D706C656D656E746174696F6E206973206E PUSH1 0x44 DUP3 ADD MSTORE PUSH13 0x1BDD08184818DBDB9D1C9858DD PUSH1 0x9A SHL PUSH1 0x64 DUP3 ADD MSTORE PUSH1 0x84 ADD PUSH2 0x19F JUMP JUMPDEST PUSH1 0x0 DUP1 MLOAD PUSH1 0x20 PUSH2 0x6ED DUP4 CODECOPY DUP2 MLOAD SWAP2 MSTORE DUP1 SLOAD PUSH1 0x1 PUSH1 0x1 PUSH1 0xA0 SHL SUB NOT AND PUSH1 0x1 PUSH1 0x1 PUSH1 0xA0 SHL SUB SWAP3 SWAP1 SWAP3 AND SWAP2 SWAP1 SWAP2 OR SWAP1 SSTORE JUMP JUMPDEST PUSH1 0x60 PUSH2 0x400 DUP4 DUP4 PUSH1 0x40 MLOAD DUP1 PUSH1 0x60 ADD PUSH1 0x40 MSTORE DUP1 PUSH1 0x27 DUP2 MSTORE PUSH1 0x20 ADD PUSH2 0x70D PUSH1 0x27 SWAP2 CODECOPY PUSH2 0x447 JUMP JUMPDEST SWAP4 SWAP3 POP POP POP JUMP JUMPDEST PUSH2 0x410 DUP2 PUSH2 0x33F JUMP JUMPDEST PUSH1 0x40 MLOAD PUSH1 0x1 PUSH1 0x1 PUSH1 0xA0 SHL SUB DUP3 AND SWAP1 PUSH32 0xBC7CD75A20EE27FD9ADEBAB32041F755214DBC6BFFA90CC0225B39DA2E5C2D3B SWAP1 PUSH1 0x0 SWAP1 LOG2 POP JUMP JUMPDEST PUSH1 0x60 PUSH1 0x0 DUP1 DUP6 PUSH1 0x1 PUSH1 0x1 PUSH1 0xA0 SHL SUB AND DUP6 PUSH1 0x40 MLOAD PUSH2 0x464 SWAP2 SWAP1 PUSH2 0x69D JUMP JUMPDEST PUSH1 0x0 PUSH1 0x40 MLOAD DUP1 DUP4 SUB DUP2 DUP6 GAS DELEGATECALL SWAP2 POP POP RETURNDATASIZE DUP1 PUSH1 0x0 DUP2 EQ PUSH2 0x49F JUMPI PUSH1 0x40 MLOAD SWAP2 POP PUSH1 0x1F NOT PUSH1 0x3F RETURNDATASIZE ADD AND DUP3 ADD PUSH1 0x40 MSTORE RETURNDATASIZE DUP3 MSTORE RETURNDATASIZE PUSH1 0x0 PUSH1 0x20 DUP5 ADD RETURNDATACOPY PUSH2 0x4A4 JUMP JUMPDEST PUSH1 0x60 SWAP2 POP JUMPDEST POP SWAP2 POP SWAP2 POP PUSH2 0x4B5 DUP7 DUP4 DUP4 DUP8 PUSH2 0x4BF JUMP JUMPDEST SWAP7 SWAP6 POP POP POP POP POP POP JUMP JUMPDEST PUSH1 0x60 DUP4 ISZERO PUSH2 0x52E JUMPI DUP3 MLOAD PUSH1 0x0 SUB PUSH2 0x527 JUMPI PUSH1 0x1 PUSH1 0x1 PUSH1 0xA0 SHL SUB DUP6 AND EXTCODESIZE PUSH2 0x527 JUMPI PUSH1 0x40 MLOAD PUSH3 0x461BCD PUSH1 0xE5 SHL DUP2 MSTORE PUSH1 0x20 PUSH1 0x4 DUP3 ADD MSTORE PUSH1 0x1D PUSH1 0x24 DUP3 ADD MSTORE PUSH32 0x416464726573733A2063616C6C20746F206E6F6E2D636F6E7472616374000000 PUSH1 0x44 DUP3 ADD MSTORE PUSH1 0x64 ADD PUSH2 0x19F JUMP JUMPDEST POP DUP2 PUSH2 0x538 JUMP JUMPDEST PUSH2 0x538 DUP4 DUP4 PUSH2 0x540 JUMP JUMPDEST SWAP5 SWAP4 POP POP POP POP JUMP JUMPDEST DUP2 MLOAD ISZERO PUSH2 0x550 JUMPI DUP2 MLOAD DUP1 DUP4 PUSH1 0x20 ADD REVERT JUMPDEST DUP1 PUSH1 0x40 MLOAD PUSH3 0x461BCD PUSH1 0xE5 SHL DUP2 MSTORE PUSH1 0x4 ADD PUSH2 0x19F SWAP2 SWAP1 PUSH2 0x6B9 JUMP JUMPDEST DUP1 CALLDATALOAD PUSH1 0x1 PUSH1 0x1 PUSH1 0xA0 SHL SUB DUP2 AND DUP2 EQ PUSH2 0x581 JUMPI PUSH1 0x0 DUP1 REVERT JUMPDEST SWAP2 SWAP1 POP JUMP JUMPDEST PUSH1 0x0 PUSH1 0x20 DUP3 DUP5 SUB SLT ISZERO PUSH2 0x598 JUMPI PUSH1 0x0 DUP1 REVERT JUMPDEST PUSH2 0x400 DUP3 PUSH2 0x56A JUMP JUMPDEST PUSH4 0x4E487B71 PUSH1 0xE0 SHL PUSH1 0x0 MSTORE PUSH1 0x41 PUSH1 0x4 MSTORE PUSH1 0x24 PUSH1 0x0 REVERT JUMPDEST PUSH1 0x0 DUP1 PUSH1 0x40 DUP4 DUP6 SUB SLT ISZERO PUSH2 0x5CA JUMPI PUSH1 0x0 DUP1 REVERT JUMPDEST PUSH2 0x5D3 DUP4 PUSH2 0x56A JUMP JUMPDEST SWAP2 POP PUSH1 0x20 DUP4 ADD CALLDATALOAD PUSH8 0xFFFFFFFFFFFFFFFF DUP1 DUP3 GT ISZERO PUSH2 0x5F0 JUMPI PUSH1 0x0 DUP1 REVERT JUMPDEST DUP2 DUP6 ADD SWAP2 POP DUP6 PUSH1 0x1F DUP4 ADD SLT PUSH2 0x604 JUMPI PUSH1 0x0 DUP1 REVERT JUMPDEST DUP2 CALLDATALOAD DUP2 DUP2 GT ISZERO PUSH2 0x616 JUMPI PUSH2 0x616 PUSH2 0x5A1 JUMP JUMPDEST PUSH1 0x40 MLOAD PUSH1 0x1F DUP3 ADD PUSH1 0x1F NOT SWAP1 DUP2 AND PUSH1 0x3F ADD AND DUP2 ADD SWAP1 DUP4 DUP3 GT DUP2 DUP4 LT OR ISZERO PUSH2 0x63E JUMPI PUSH2 0x63E PUSH2 0x5A1 JUMP JUMPDEST DUP2 PUSH1 0x40 MSTORE DUP3 DUP2 MSTORE DUP9 PUSH1 0x20 DUP5 DUP8 ADD ADD GT ISZERO PUSH2 0x657 JUMPI PUSH1 0x0 DUP1 REVERT JUMPDEST DUP3 PUSH1 0x20 DUP7 ADD PUSH1 0x20 DUP4 ADD CALLDATACOPY PUSH1 0x0 PUSH1 0x20 DUP5 DUP4 ADD ADD MSTORE DUP1 SWAP6 POP POP POP POP POP POP SWAP3 POP SWAP3 SWAP1 POP JUMP JUMPDEST PUSH1 0x0 JUMPDEST DUP4 DUP2 LT ISZERO PUSH2 0x694 JUMPI DUP2 DUP2 ADD MLOAD DUP4 DUP3 ADD MSTORE PUSH1 0x20 ADD PUSH2 0x67C JUMP JUMPDEST POP POP PUSH1 0x0 SWAP2 ADD MSTORE JUMP JUMPDEST PUSH1 0x0 DUP3 MLOAD PUSH2 0x6AF DUP2 DUP5 PUSH1 0x20 DUP8 ADD PUSH2 0x679 JUMP JUMPDEST SWAP2 SWAP1 SWAP2 ADD SWAP3 SWAP2 POP POP JUMP JUMPDEST PUSH1 0x20 DUP2 MSTORE PUSH1 0x0 DUP3 MLOAD DUP1 PUSH1 0x20 DUP5 ADD MSTORE PUSH2 0x6D8 DUP2 PUSH1 0x40 DUP6 ADD PUSH1 0x20 DUP8 ADD PUSH2 0x679 JUMP JUMPDEST PUSH1 0x1F ADD PUSH1 0x1F NOT AND SWAP2 SWAP1 SWAP2 ADD PUSH1 0x40 ADD SWAP3 SWAP2 POP POP JUMP INVALID CALLDATASIZE ADDMOD SWAP5 LOG1 EXTCODESIZE LOG1 LOG3 0x21 MOD PUSH8 0xC828492DB98DCA3E KECCAK256 PUSH23 0xCC3735A920A3CA505D382BBC416464726573733A206C6F PUSH24 0x2D6C6576656C2064656C65676174652063616C6C20666169 PUSH13 0x6564A264697066735822122026 0xC 0xDE BASEFEE CALLDATASIZE JUMPDEST BYTE 0xCC 0xEF LOG3 SWAP8 SWAP7 0xC0 DUP14 BASEFEE 0xB8 0x1E SWAP14 PUSH10 0x76E84DB52C41CCEC968C 0xD5 0x5F 0xD8 PUSH5 0x736F6C6343 STOP ADDMOD GT STOP CALLER "
				},
				"gasEstimates": {
					"creation": {
						"codeDepositCost": "379400",
						"executionCost": "infinite",
						"totalCost": "infinite"
					},
					"external": {
						"current()": "2362",
						"increment()": "24437",
						"proxiableUUID()": "infinite",
						"upgradeTo(address)": "infinite",
						"upgradeToAndCall(address,bytes)": "infinite"
					},
					"internal": {
						"__UUPSUpgradeableLegacyMock_init()": "infinite",
						"__UUPSUpgradeableLegacyMock_init_unchained()": "infinite",
						"__setImplementation(address)": "infinite",
						"_upgradeToAndCallSecureLegacyV1(address,bytes memory,bool)": "infinite"
					}
				},
				"methodIdentifiers": {
					"current()": "9fa6a6e3",
					"increment()": "d09de08a",
					"proxiableUUID()": "52d1902d",
					"upgradeTo(address)": "3659cfe6",
					"upgradeToAndCall(address,bytes)": "4f1ef286"
				}
			},
			"storageLayout": {
				"storage": [
					{
						"astId": 810,
						"contract": "packages/contracts/src/mocks/proxy/UUPSLegacyUpgradeable.sol:UUPSUpgradeableLegacyMockUpgradeable",
						"label": "_initialized",
						"offset": 0,
						"slot": "0",
						"type": "t_uint8"
					},
					{
						"astId": 813,
						"contract": "packages/contracts/src/mocks/proxy/UUPSLegacyUpgradeable.sol:UUPSUpgradeableLegacyMockUpgradeable",
						"label": "_initializing",
						"offset": 1,
						"slot": "0",
						"type": "t_bool"
					},
					{
						"astId": 207,
						"contract": "packages/contracts/src/mocks/proxy/UUPSLegacyUpgradeable.sol:UUPSUpgradeableLegacyMockUpgradeable",
						"label": "_counter",
						"offset": 0,
						"slot": "1",
						"type": "t_struct(Counter)1308_storage"
					},
					{
						"astId": 244,
						"contract": "packages/contracts/src/mocks/proxy/UUPSLegacyUpgradeable.sol:UUPSUpgradeableLegacyMockUpgradeable",
						"label": "__gap",
						"offset": 0,
						"slot": "2",
						"type": "t_array(t_uint256)49_storage"
					},
					{
						"astId": 656,
						"contract": "packages/contracts/src/mocks/proxy/UUPSLegacyUpgradeable.sol:UUPSUpgradeableLegacyMockUpgradeable",
						"label": "__gap",
						"offset": 0,
						"slot": "51",
						"type": "t_array(t_uint256)50_storage"
					},
					{
						"astId": 802,
						"contract": "packages/contracts/src/mocks/proxy/UUPSLegacyUpgradeable.sol:UUPSUpgradeableLegacyMockUpgradeable",
						"label": "__gap",
						"offset": 0,
						"slot": "101",
						"type": "t_array(t_uint256)50_storage"
					},
					{
						"astId": 275,
						"contract": "packages/contracts/src/mocks/proxy/UUPSLegacyUpgradeable.sol:UUPSUpgradeableLegacyMockUpgradeable",
						"label": "__gap",
						"offset": 0,
						"slot": "151",
						"type": "t_array(t_uint256)50_storage"
					},
					{
						"astId": 196,
						"contract": "packages/contracts/src/mocks/proxy/UUPSLegacyUpgradeable.sol:UUPSUpgradeableLegacyMockUpgradeable",
						"label": "__gap",
						"offset": 0,
						"slot": "201",
						"type": "t_array(t_uint256)50_storage"
					}
				],
				"types": {
					"t_array(t_uint256)49_storage": {
						"base": "t_uint256",
						"encoding": "inplace",
						"label": "uint256[49]",
						"numberOfBytes": "1568"
					},
					"t_array(t_uint256)50_storage": {
						"base": "t_uint256",
						"encoding": "inplace",
						"label": "uint256[50]",
						"numberOfBytes": "1600"
					},
					"t_bool": {
						"encoding": "inplace",
						"label": "bool",
						"numberOfBytes": "1"
					},
					"t_struct(Counter)1308_storage": {
						"encoding": "inplace",
						"label": "struct CountersUpgradeable.Counter",
						"members": [
							{
								"astId": 1307,
								"contract": "packages/contracts/src/mocks/proxy/UUPSLegacyUpgradeable.sol:UUPSUpgradeableLegacyMockUpgradeable",
								"label": "_value",
								"offset": 0,
								"slot": "0",
								"type": "t_uint256"
							}
						],
						"numberOfBytes": "32"
					},
					"t_uint256": {
						"encoding": "inplace",
						"label": "uint256",
						"numberOfBytes": "32"
					},
					"t_uint8": {
						"encoding": "inplace",
						"label": "uint8",
						"numberOfBytes": "1"
					}
				}
			},
			"userdoc": {
				"kind": "user",
				"methods": {},
				"version": 1
			}
		}
	}
}